{
  "address": "0x100cA4d0d2f618eE5ae4E76C44076851b4a2D956",
  "abi": [
    {
      "inputs": [
        {
          "internalType": "contract IUniswapV3Pool",
          "name": "_pool",
          "type": "address"
        },
        {
          "internalType": "address payable",
          "name": "_gelato",
          "type": "address"
        }
      ],
      "stateMutability": "nonpayable",
      "type": "constructor"
    },
    {
      "anonymous": false,
      "inputs": [
        {
          "indexed": true,
          "internalType": "address",
          "name": "owner",
          "type": "address"
        },
        {
          "indexed": true,
          "internalType": "address",
          "name": "spender",
          "type": "address"
        },
        {
          "indexed": false,
          "internalType": "uint256",
          "name": "value",
          "type": "uint256"
        }
      ],
      "name": "Approval",
      "type": "event"
    },
    {
      "anonymous": false,
      "inputs": [
        {
          "indexed": false,
          "internalType": "address",
          "name": "burner",
          "type": "address"
        },
        {
          "indexed": false,
          "internalType": "uint256",
          "name": "burnAmount",
          "type": "uint256"
        },
        {
          "indexed": false,
          "internalType": "uint256",
          "name": "amount0Out",
          "type": "uint256"
        },
        {
          "indexed": false,
          "internalType": "uint256",
          "name": "amount1Out",
          "type": "uint256"
        }
      ],
      "name": "Burned",
      "type": "event"
    },
    {
      "anonymous": false,
      "inputs": [
        {
          "indexed": false,
          "internalType": "uint256",
          "name": "supplyCap",
          "type": "uint256"
        },
        {
          "indexed": false,
          "internalType": "uint256",
          "name": "heartbeat",
          "type": "uint256"
        },
        {
          "indexed": false,
          "internalType": "int24",
          "name": "minTickDeviation",
          "type": "int24"
        },
        {
          "indexed": false,
          "internalType": "int24",
          "name": "maxTickDeviation",
          "type": "int24"
        },
        {
          "indexed": false,
          "internalType": "uint32",
          "name": "observationSeconds",
          "type": "uint32"
        },
        {
          "indexed": false,
          "internalType": "uint160",
          "name": "maxSlippagePercentage",
          "type": "uint160"
        }
      ],
      "name": "MetaParamsAdjusted",
      "type": "event"
    },
    {
      "anonymous": false,
      "inputs": [
        {
          "indexed": false,
          "internalType": "address",
          "name": "minter",
          "type": "address"
        },
        {
          "indexed": false,
          "internalType": "uint256",
          "name": "mintAmount",
          "type": "uint256"
        },
        {
          "indexed": false,
          "internalType": "uint256",
          "name": "amount0In",
          "type": "uint256"
        },
        {
          "indexed": false,
          "internalType": "uint256",
          "name": "amount1In",
          "type": "uint256"
        }
      ],
      "name": "Minted",
      "type": "event"
    },
    {
      "anonymous": false,
      "inputs": [
        {
          "indexed": true,
          "internalType": "address",
          "name": "previousOwner",
          "type": "address"
        },
        {
          "indexed": true,
          "internalType": "address",
          "name": "newOwner",
          "type": "address"
        }
      ],
      "name": "OwnershipTransferred",
      "type": "event"
    },
    {
      "anonymous": false,
      "inputs": [
        {
          "indexed": false,
          "internalType": "int24",
          "name": "newLowerTick",
          "type": "int24"
        },
        {
          "indexed": false,
          "internalType": "int24",
          "name": "newUpperTick",
          "type": "int24"
        }
      ],
      "name": "Rebalance",
      "type": "event"
    },
    {
      "anonymous": false,
      "inputs": [
        {
          "indexed": true,
          "internalType": "address",
          "name": "from",
          "type": "address"
        },
        {
          "indexed": true,
          "internalType": "address",
          "name": "to",
          "type": "address"
        },
        {
          "indexed": false,
          "internalType": "uint256",
          "name": "value",
          "type": "uint256"
        }
      ],
      "name": "Transfer",
      "type": "event"
    },
    {
      "inputs": [],
      "name": "DOMAIN_SEPARATOR",
      "outputs": [
        {
          "internalType": "bytes32",
          "name": "",
          "type": "bytes32"
        }
      ],
      "stateMutability": "view",
      "type": "function"
    },
    {
      "inputs": [],
      "name": "GELATO",
      "outputs": [
        {
          "internalType": "address payable",
          "name": "",
          "type": "address"
        }
      ],
      "stateMutability": "view",
      "type": "function"
    },
    {
      "inputs": [
        {
          "internalType": "address",
          "name": "owner",
          "type": "address"
        },
        {
          "internalType": "address",
          "name": "spender",
          "type": "address"
        }
      ],
      "name": "allowance",
      "outputs": [
        {
          "internalType": "uint256",
          "name": "",
          "type": "uint256"
        }
      ],
      "stateMutability": "view",
      "type": "function"
    },
    {
      "inputs": [
        {
          "internalType": "address",
          "name": "spender",
          "type": "address"
        },
        {
          "internalType": "uint256",
          "name": "amount",
          "type": "uint256"
        }
      ],
      "name": "approve",
      "outputs": [
        {
          "internalType": "bool",
          "name": "",
          "type": "bool"
        }
      ],
      "stateMutability": "nonpayable",
      "type": "function"
    },
    {
      "inputs": [
        {
          "internalType": "address",
          "name": "account",
          "type": "address"
        }
      ],
      "name": "balanceOf",
      "outputs": [
        {
          "internalType": "uint256",
          "name": "",
          "type": "uint256"
        }
      ],
      "stateMutability": "view",
      "type": "function"
    },
    {
      "inputs": [
        {
          "internalType": "uint256",
          "name": "_burnAmount",
          "type": "uint256"
        }
      ],
      "name": "burn",
      "outputs": [
        {
          "internalType": "uint256",
          "name": "amount0",
          "type": "uint256"
        },
        {
          "internalType": "uint256",
          "name": "amount1",
          "type": "uint256"
        },
        {
          "internalType": "uint128",
          "name": "liquidityBurned",
          "type": "uint128"
        }
      ],
      "stateMutability": "nonpayable",
      "type": "function"
    },
    {
      "inputs": [],
      "name": "currentLowerTick",
      "outputs": [
        {
          "internalType": "int24",
          "name": "",
          "type": "int24"
        }
      ],
      "stateMutability": "view",
      "type": "function"
    },
    {
      "inputs": [],
      "name": "currentUpperTick",
      "outputs": [
        {
          "internalType": "int24",
          "name": "",
          "type": "int24"
        }
      ],
      "stateMutability": "view",
      "type": "function"
    },
    {
      "inputs": [],
      "name": "decimals",
      "outputs": [
        {
          "internalType": "uint8",
          "name": "",
          "type": "uint8"
        }
      ],
      "stateMutability": "view",
      "type": "function"
    },
    {
      "inputs": [
        {
          "internalType": "address",
          "name": "spender",
          "type": "address"
        },
        {
          "internalType": "uint256",
          "name": "subtractedValue",
          "type": "uint256"
        }
      ],
      "name": "decreaseAllowance",
      "outputs": [
        {
          "internalType": "bool",
          "name": "",
          "type": "bool"
        }
      ],
      "stateMutability": "nonpayable",
      "type": "function"
    },
    {
      "inputs": [],
      "name": "deployer",
      "outputs": [
        {
          "internalType": "address",
          "name": "",
          "type": "address"
        }
      ],
      "stateMutability": "view",
      "type": "function"
    },
    {
      "inputs": [
        {
          "internalType": "uint160",
          "name": "sqrtRatioX96",
          "type": "uint160"
        },
        {
          "internalType": "uint160",
          "name": "sqrtRatioAX96",
          "type": "uint160"
        },
        {
          "internalType": "uint160",
          "name": "sqrtRatioBX96",
          "type": "uint160"
        },
        {
          "internalType": "uint128",
          "name": "liquidity",
          "type": "uint128"
        }
      ],
      "name": "getAmountsForLiquidity",
      "outputs": [
        {
          "internalType": "uint256",
          "name": "amount0",
          "type": "uint256"
        },
        {
          "internalType": "uint256",
          "name": "amount1",
          "type": "uint256"
        }
      ],
      "stateMutability": "pure",
      "type": "function"
    },
    {
      "inputs": [
        {
          "internalType": "uint160",
          "name": "sqrtRatioX96",
          "type": "uint160"
        },
        {
          "internalType": "uint160",
          "name": "sqrtRatioAX96",
          "type": "uint160"
        },
        {
          "internalType": "uint160",
          "name": "sqrtRatioBX96",
          "type": "uint160"
        },
        {
          "internalType": "uint256",
          "name": "amount0",
          "type": "uint256"
        },
        {
          "internalType": "uint256",
          "name": "amount1",
          "type": "uint256"
        }
      ],
      "name": "getLiquidityForAmounts",
      "outputs": [
        {
          "internalType": "uint128",
          "name": "liquidity",
          "type": "uint128"
        }
      ],
      "stateMutability": "pure",
      "type": "function"
    },
    {
      "inputs": [],
      "name": "getPositionID",
      "outputs": [
        {
          "internalType": "bytes32",
          "name": "positionID",
          "type": "bytes32"
        }
      ],
      "stateMutability": "view",
      "type": "function"
    },
    {
      "inputs": [],
      "name": "heartbeat",
      "outputs": [
        {
          "internalType": "uint256",
          "name": "",
          "type": "uint256"
        }
      ],
      "stateMutability": "view",
      "type": "function"
    },
    {
      "inputs": [
        {
          "internalType": "address",
          "name": "spender",
          "type": "address"
        },
        {
          "internalType": "uint256",
          "name": "addedValue",
          "type": "uint256"
        }
      ],
      "name": "increaseAllowance",
      "outputs": [
        {
          "internalType": "bool",
          "name": "",
          "type": "bool"
        }
      ],
      "stateMutability": "nonpayable",
      "type": "function"
    },
    {
      "inputs": [
        {
          "internalType": "uint256",
          "name": "__supplyCap",
          "type": "uint256"
        },
        {
          "internalType": "int24",
          "name": "_lowerTick",
          "type": "int24"
        },
        {
          "internalType": "int24",
          "name": "_upperTick",
          "type": "int24"
        },
        {
          "internalType": "address",
          "name": "_owner_",
          "type": "address"
        }
      ],
      "name": "initialize",
      "outputs": [],
      "stateMutability": "nonpayable",
      "type": "function"
    },
    {
      "inputs": [],
      "name": "lastMintOrBurnTimestamp",
      "outputs": [
        {
          "internalType": "uint256",
          "name": "",
          "type": "uint256"
        }
      ],
      "stateMutability": "view",
      "type": "function"
    },
    {
      "inputs": [],
      "name": "lastRebalanceTimestamp",
      "outputs": [
        {
          "internalType": "uint256",
          "name": "",
          "type": "uint256"
        }
      ],
      "stateMutability": "view",
      "type": "function"
    },
    {
      "inputs": [],
      "name": "maxSlippagePercentage",
      "outputs": [
        {
          "internalType": "uint160",
          "name": "",
          "type": "uint160"
        }
      ],
      "stateMutability": "view",
      "type": "function"
    },
    {
      "inputs": [],
      "name": "maxTickDeviation",
      "outputs": [
        {
          "internalType": "int24",
          "name": "",
          "type": "int24"
        }
      ],
      "stateMutability": "view",
      "type": "function"
    },
    {
      "inputs": [],
      "name": "minTickDeviation",
      "outputs": [
        {
          "internalType": "int24",
          "name": "",
          "type": "int24"
        }
      ],
      "stateMutability": "view",
      "type": "function"
    },
    {
      "inputs": [
        {
          "internalType": "uint128",
          "name": "_newLiquidity",
          "type": "uint128"
        }
      ],
      "name": "mint",
      "outputs": [
        {
          "internalType": "uint256",
          "name": "mintAmount",
          "type": "uint256"
        }
      ],
      "stateMutability": "nonpayable",
      "type": "function"
    },
    {
      "inputs": [],
      "name": "name",
      "outputs": [
        {
          "internalType": "string",
          "name": "",
          "type": "string"
        }
      ],
      "stateMutability": "view",
      "type": "function"
    },
    {
      "inputs": [
        {
          "internalType": "address",
          "name": "owner",
          "type": "address"
        }
      ],
      "name": "nonces",
      "outputs": [
        {
          "internalType": "uint256",
          "name": "",
          "type": "uint256"
        }
      ],
      "stateMutability": "view",
      "type": "function"
    },
    {
      "inputs": [],
      "name": "observationSeconds",
      "outputs": [
        {
          "internalType": "uint32",
          "name": "",
          "type": "uint32"
        }
      ],
      "stateMutability": "view",
      "type": "function"
    },
    {
      "inputs": [],
      "name": "owner",
      "outputs": [
        {
          "internalType": "address",
          "name": "",
          "type": "address"
        }
      ],
      "stateMutability": "view",
      "type": "function"
    },
    {
      "inputs": [
        {
          "internalType": "address",
          "name": "owner",
          "type": "address"
        },
        {
          "internalType": "address",
          "name": "spender",
          "type": "address"
        },
        {
          "internalType": "uint256",
          "name": "value",
          "type": "uint256"
        },
        {
          "internalType": "uint256",
          "name": "deadline",
          "type": "uint256"
        },
        {
          "internalType": "uint8",
          "name": "v",
          "type": "uint8"
        },
        {
          "internalType": "bytes32",
          "name": "r",
          "type": "bytes32"
        },
        {
          "internalType": "bytes32",
          "name": "s",
          "type": "bytes32"
        }
      ],
      "name": "permit",
      "outputs": [],
      "stateMutability": "nonpayable",
      "type": "function"
    },
    {
      "inputs": [],
      "name": "pool",
      "outputs": [
        {
          "internalType": "contract IUniswapV3Pool",
          "name": "",
          "type": "address"
        }
      ],
      "stateMutability": "view",
      "type": "function"
    },
    {
      "inputs": [
        {
          "internalType": "int24",
          "name": "_newLowerTick",
          "type": "int24"
        },
        {
          "internalType": "int24",
          "name": "_newUpperTick",
          "type": "int24"
        },
        {
          "internalType": "uint160",
          "name": "_swapThresholdPrice",
          "type": "uint160"
        },
        {
          "internalType": "uint256",
          "name": "_swapAmountBPS",
          "type": "uint256"
        },
        {
          "internalType": "uint256",
          "name": "_feeAmount",
          "type": "uint256"
        },
        {
          "internalType": "address",
          "name": "_paymentToken",
          "type": "address"
        }
      ],
      "name": "rebalance",
      "outputs": [],
      "stateMutability": "nonpayable",
      "type": "function"
    },
    {
      "inputs": [],
      "name": "renounceOwnership",
      "outputs": [],
      "stateMutability": "nonpayable",
      "type": "function"
    },
    {
      "inputs": [],
      "name": "supplyCap",
      "outputs": [
        {
          "internalType": "uint256",
          "name": "",
          "type": "uint256"
        }
      ],
      "stateMutability": "view",
      "type": "function"
    },
    {
      "inputs": [],
      "name": "symbol",
      "outputs": [
        {
          "internalType": "string",
          "name": "",
          "type": "string"
        }
      ],
      "stateMutability": "view",
      "type": "function"
    },
    {
      "inputs": [],
      "name": "token0",
      "outputs": [
        {
          "internalType": "contract IERC20",
          "name": "",
          "type": "address"
        }
      ],
      "stateMutability": "view",
      "type": "function"
    },
    {
      "inputs": [],
      "name": "token1",
      "outputs": [
        {
          "internalType": "contract IERC20",
          "name": "",
          "type": "address"
        }
      ],
      "stateMutability": "view",
      "type": "function"
    },
    {
      "inputs": [],
      "name": "totalSupply",
      "outputs": [
        {
          "internalType": "uint256",
          "name": "",
          "type": "uint256"
        }
      ],
      "stateMutability": "view",
      "type": "function"
    },
    {
      "inputs": [
        {
          "internalType": "address",
          "name": "recipient",
          "type": "address"
        },
        {
          "internalType": "uint256",
          "name": "amount",
          "type": "uint256"
        }
      ],
      "name": "transfer",
      "outputs": [
        {
          "internalType": "bool",
          "name": "",
          "type": "bool"
        }
      ],
      "stateMutability": "nonpayable",
      "type": "function"
    },
    {
      "inputs": [
        {
          "internalType": "address",
          "name": "sender",
          "type": "address"
        },
        {
          "internalType": "address",
          "name": "recipient",
          "type": "address"
        },
        {
          "internalType": "uint256",
          "name": "amount",
          "type": "uint256"
        }
      ],
      "name": "transferFrom",
      "outputs": [
        {
          "internalType": "bool",
          "name": "",
          "type": "bool"
        }
      ],
      "stateMutability": "nonpayable",
      "type": "function"
    },
    {
      "inputs": [
        {
          "internalType": "address",
          "name": "newOwner",
          "type": "address"
        }
      ],
      "name": "transferOwnership",
      "outputs": [],
      "stateMutability": "nonpayable",
      "type": "function"
    },
    {
      "inputs": [
        {
          "internalType": "uint256",
          "name": "_amount0Owed",
          "type": "uint256"
        },
        {
          "internalType": "uint256",
          "name": "_amount1Owed",
          "type": "uint256"
        },
        {
          "internalType": "bytes",
          "name": "_data",
          "type": "bytes"
        }
      ],
      "name": "uniswapV3MintCallback",
      "outputs": [],
      "stateMutability": "nonpayable",
      "type": "function"
    },
    {
      "inputs": [
        {
          "internalType": "int256",
          "name": "amount0Delta",
          "type": "int256"
        },
        {
          "internalType": "int256",
          "name": "amount1Delta",
          "type": "int256"
        },
        {
          "internalType": "bytes",
          "name": "",
          "type": "bytes"
        }
      ],
      "name": "uniswapV3SwapCallback",
      "outputs": [],
      "stateMutability": "nonpayable",
      "type": "function"
    },
    {
      "inputs": [
        {
          "internalType": "uint256",
          "name": "__supplyCap",
          "type": "uint256"
        },
        {
          "internalType": "uint256",
          "name": "__heartbeat",
          "type": "uint256"
        },
        {
          "internalType": "int24",
          "name": "__minTickDeviation",
          "type": "int24"
        },
        {
          "internalType": "int24",
          "name": "__maxTickDeviation",
          "type": "int24"
        },
        {
          "internalType": "uint32",
          "name": "__observationSeconds",
          "type": "uint32"
        },
        {
          "internalType": "uint160",
          "name": "__maxSlippagePercentage",
          "type": "uint160"
        }
      ],
      "name": "updateMetaParams",
      "outputs": [],
      "stateMutability": "nonpayable",
      "type": "function"
    }
  ],
  "transactionHash": "0x842374dbd63b87de847fc34c800a387e73e6ec70e82e597ee7d6617105daa6a8",
  "args": [
    "0x25D0Ea8FAc3Ce2313c6a478DA92e0ccf95213B1A",
    "0xCc4CcD69D31F9FfDBD3BFfDe49c6aA886DaB98d9"
  ],
  "solcInputHash": "06c09a7a92b08212c0228e96581cfa57",
  "bytecode": "0x6101e06040527f6e71edae12b1b97f4d1f60370fef10105fa2faae0126114a169c64845d6126c9610120523480156200003757600080fd5b5060405162005185380380620051858339810160408190526200005a91620002bf565b604080518082018252601d81527f47656c61746f20556e697377617020563320574554482f444149204c500000006020808301918252835180850185526001808252603160f81b91830191909152925190912060c08181527fc89efdaa54c0f20c7adf612882df0950f5a951637e0307cdcb4c672f298b8bc660e08190524660a081815287517f8b73c3c69bb8fe3d512ecc4cf759cc79239f7b179b0ffacaa9a75d522b39400f818801819052818a0196909652606080820194909452608080820193909352308183015288518082039092018252938401808952815191870191909120909152610100939093526001600160601b031987821b81166101405260059590955533811b6101605287901b90931661018052630dfe168160e01b90529151849284926001600160a01b03851692630dfe16819260c480840193919291829003018186803b158015620001b057600080fd5b505afa158015620001c5573d6000803e3d6000fd5b505050506040513d601f19601f82011682018060405250810190620001eb919062000299565b6001600160a01b03166101a0816001600160a01b031660601b81525050816001600160a01b031663d21220a76040518163ffffffff1660e01b815260040160206040518083038186803b1580156200024257600080fd5b505afa15801562000257573d6000803e3d6000fd5b505050506040513d601f19601f820116820180604052508101906200027d919062000299565b60601b6001600160601b0319166101c052506200031692505050565b600060208284031215620002ab578081fd5b8151620002b881620002fd565b9392505050565b60008060408385031215620002d2578081fd5b8251620002df81620002fd565b6020840151909250620002f281620002fd565b809150509250929050565b6001600160a01b03811681146200031357600080fd5b50565b60805160a05160c05160e05161010051610120516101405160601c6101605160601c6101805160601c6101a05160601c6101c05160601c614cc8620004bd6000396000818161056101528181610ba701528181610c4a01528181611127015281816111f20152818161176a015281816117e401528181611c84015281816128ab01526129740152600081816102d601528181610abb01528181610b5e0152818161101c015281816110e701528181611730015281816117a901528181611c420152818161280601526129290152600081816103150152818161082d01528181610959015281816109fc01528181610eba0152818161122f015281816116d201528181611c0201528181612726015281816129c401528181613116015281816133900152818161342c015281816134c50152818161359d01528181613cbb01528181613dad0152613e600152600081816105ae0152611596015260008181610634015281816119a501528181611a940152611ace0152600061186001526000612004015260006120530152600061202e01526000611fb201526000611fdb0152614cc86000f3fe608060405234801561001057600080fd5b506004361061025e5760003560e01c80637ecebe0011610146578063d3487997116100c3578063e3fbf2f811610087578063e3fbf2f814610611578063e5475ae714610624578063eff557a71461062f578063f2fde38b14610656578063fa2c6d7c14610669578063fa461e331461068e57600080fd5b8063d348799714610583578063d505accf14610596578063d5f39488146105a9578063dd62ed3e146105d0578063df28408a1461060957600080fd5b8063a9059cbb1161010a578063a9059cbb14610506578063b74f271314610519578063b83d81571461052c578063c72e160b14610534578063d21220a71461055c57600080fd5b80637ecebe00146104a75780638da5cb5b146104ba5780638f770ad0146104cb57806395d89b41146104d3578063a457c2d7146104f357600080fd5b80633defb962116101df578063696c58e5116101a3578063696c58e51461042457806369822d911461043657806369d3e20e1461044b5780636a3089f61461045e57806370a0823114610476578063715018a61461049f57600080fd5b80633defb962146103a757806342966c68146103af5780634b41d7d8146103e65780634f5e2635146103f15780636098fd4a146103f957600080fd5b80631f6697c6116102265780631f6697c61461034957806323b872dd1461036a578063313ce5671461037d5780633644e5151461038c578063395093511461039457600080fd5b806306fdde0314610263578063095ea7b3146102ae5780630dfe1681146102d157806316f0115b1461031057806318160ddd14610337575b600080fd5b60408051808201909152601d81527f47656c61746f20556e697377617020563320574554482f444149204c5000000060208201525b6040516102a59190614894565b60405180910390f35b6102c16102bc366004614289565b6106a1565b60405190151581526020016102a5565b6102f87f000000000000000000000000000000000000000000000000000000000000000081565b6040516001600160a01b0390911681526020016102a5565b6102f87f000000000000000000000000000000000000000000000000000000000000000081565b6002545b6040519081526020016102a5565b6009546301000000900460020b5b60405160029190910b81526020016102a5565b6102c16103783660046141d9565b6106b7565b604051601281526020016102a5565b61033b61076f565b6102c16103a2366004614289565b61077e565b60075461033b565b6103c26103bd366004614668565b6107b5565b6040805193845260208401929092526001600160801b0316908201526060016102a5565b60085460020b610357565b600b5461033b565b61040c61040736600461460e565b610ce7565b6040516001600160801b0390911681526020016102a5565b6008546301000000900460020b610357565b6104496104443660046146df565b610d02565b005b61033b61045936600461447c565b610e49565b600854600160501b90046001600160a01b03166102f8565b61033b610484366004614185565b6001600160a01b031660009081526020819052604090205490565b610449611391565b61033b6104b5366004614185565b611414565b6004546001600160a01b03166102f8565b60065461033b565b60408051808201909152600481526367554e4960e01b6020820152610298565b6102c1610501366004614289565b611434565b6102c1610514366004614289565b6114cf565b610449610527366004614698565b6114dc565b600a5461033b565b6105476105423660046145b3565b6116aa565b604080519283526020830191909152016102a5565b6102f87f000000000000000000000000000000000000000000000000000000000000000081565b61044961059136600461442b565b6116c7565b6104496105a4366004614219565b61180c565b6102f87f000000000000000000000000000000000000000000000000000000000000000081565b61033b6105de3660046141a1565b6001600160a01b03918216600090815260016020908152604080832093909416825291909152205490565b61033b61198e565b61044961061f366004614399565b611998565b60095460020b610357565b6102f87f000000000000000000000000000000000000000000000000000000000000000081565b610449610664366004614185565b611afd565b600854600160301b900463ffffffff1660405163ffffffff90911681526020016102a5565b61044961069c36600461442b565b611bf7565b60006106ae338484611cb1565b50600192915050565b60006106c4848484611dd6565b6001600160a01b03841660009081526001602090815260408083203384529091529020548281101561074e5760405162461bcd60e51b815260206004820152602860248201527f45524332303a207472616e7366657220616d6f756e74206578636565647320616044820152676c6c6f77616e636560c01b60648201526084015b60405180910390fd5b610762853361075d8685614b73565b611cb1565b60019150505b9392505050565b6000610779611fae565b905090565b3360008181526001602090815260408083206001600160a01b038716845290915281205490916106ae91859061075d9086906149a2565b60008060006002600554141561080d5760405162461bcd60e51b815260206004820152601f60248201527f5265656e7472616e637947756172643a207265656e7472616e742063616c6c006044820152606401610745565b60026005558361081c57600080fd5b600061082760025490565b905060007f00000000000000000000000000000000000000000000000000000000000000006001600160a01b031663514ea4bf6108626120a1565b6040518263ffffffff1660e01b815260040161088091815260200190565b60a06040518083038186803b15801561089857600080fd5b505afa1580156108ac573d6000803e3d6000fd5b505050506040513d601f19601f820116820180604052508101906108d091906144c6565b5050505090506108e03387612105565b6000826108f66001600160801b03841689614a61565b6109009190614a1e565b90506001600160801b03811061091557600080fd5b60095460405163a34123a760e01b8152600282810b810b60048301526301000000909204820b90910b60248201526001600160801b038216604482015290935083907f00000000000000000000000000000000000000000000000000000000000000006001600160a01b03169063a34123a7906064016040805180830381600087803b1580156109a457600080fd5b505af11580156109b8573d6000803e3d6000fd5b505050506040513d601f19601f820116820180604052508101906109dc9190614408565b6009546040516309e3d67b60e31b81529298509096506001600160a01b037f00000000000000000000000000000000000000000000000000000000000000001691634f1eb3d891610a46913391600281810b926301000000909204900b908c908c9060040161480d565b6040805180830381600087803b158015610a5f57600080fd5b505af1158015610a73573d6000803e3d6000fd5b505050506040513d601f19601f82011682018060405250810190610a979190614498565b50506040516370a0823160e01b815230600482015260009084906001600160a01b037f000000000000000000000000000000000000000000000000000000000000000016906370a082319060240160206040518083038186803b158015610afd57600080fd5b505afa158015610b11573d6000803e3d6000fd5b505050506040513d601f19601f82011682018060405250810190610b359190614680565b610b3f908a614a61565b610b499190614a1e565b90508015610b8557610b856001600160a01b037f0000000000000000000000000000000000000000000000000000000000000000163383612254565b6040516370a0823160e01b815230600482015260009085906001600160a01b037f000000000000000000000000000000000000000000000000000000000000000016906370a082319060240160206040518083038186803b158015610be957600080fd5b505afa158015610bfd573d6000803e3d6000fd5b505050506040513d601f19601f82011682018060405250810190610c219190614680565b610c2b908b614a61565b610c359190614a1e565b90508015610c7157610c716001600160a01b037f0000000000000000000000000000000000000000000000000000000000000000163383612254565b610c7b82896149a2565b9750610c8781886149a2565b60408051338152602081018c90529081018a9052606081018290529097507f4c60206a5c1de41f3376d1d60f0949d96cb682033c90b1c2d9d9a62d4c4120c09060800160405180910390a1505042600b5550506001600555509193909250565b6000610cf686868686866122bc565b90505b95945050505050565b33610d156004546001600160a01b031690565b6001600160a01b031614610d3b5760405162461bcd60e51b8152600401610745906148a7565b60068690556007859055600880546001600160a01b038316600160501b027fffff0000000000000000000000000000000000000000ffffffffffffffffffff63ffffffff8616600160301b02166601000000000000600160f01b0319600288810b62ffffff90811663010000000265ffffffffffff19909616918b900b16179390931792909216919091171790556040517f37bc6b2ab5c732be3097b0ac7f897954fde4420fdcf9de71f8df467c9a907f3890610e39908890889088908890889088909586526020860194909452600292830b6040860152910b606084015263ffffffff1660808301526001600160a01b031660a082015260c00190565b60405180910390a1505050505050565b600060026005541415610e9e5760405162461bcd60e51b815260206004820152601f60248201527f5265656e7472616e637947756172643a207265656e7472616e742063616c6c006044820152606401610745565b60026005556001600160801b038216610eb657600080fd5b60007f00000000000000000000000000000000000000000000000000000000000000006001600160a01b031663514ea4bf610eef6120a1565b6040518263ffffffff1660e01b8152600401610f0d91815260200190565b60a06040518083038186803b158015610f2557600080fd5b505afa158015610f39573d6000803e3d6000fd5b505050506040513d601f19601f82011682018060405250810190610f5d91906144c6565b5050505090506000610f6e60025490565b90508015610f9c5780610f8d6001600160801b03808516908716614a61565b610f979190614a1e565b610fa7565b836001600160801b03165b9250610fb383826149a2565b60065410156110045760405162461bcd60e51b815260206004820181905260248201527f47656c61746f556e695633506f6f6c2e6d696e743a205f737570706c794361706044820152606401610745565b6040516370a0823160e01b81523060048201526000907f00000000000000000000000000000000000000000000000000000000000000006001600160a01b0316906370a082319060240160206040518083038186803b15801561106657600080fd5b505afa15801561107a573d6000803e3d6000fd5b505050506040513d601f19601f8201168201806040525081019061109e9190614680565b9050600081156110d457836001600160801b031682876001600160801b03166110c79190614a61565b6110d19190614a1e565b90505b801561110f5761110f6001600160a01b037f000000000000000000000000000000000000000000000000000000000000000016333084612375565b6040516370a0823160e01b81523060048201526000907f00000000000000000000000000000000000000000000000000000000000000006001600160a01b0316906370a082319060240160206040518083038186803b15801561117157600080fd5b505afa158015611185573d6000803e3d6000fd5b505050506040513d601f19601f820116820180604052508101906111a99190614680565b9050600081156111df57856001600160801b031682896001600160801b03166111d29190614a61565b6111dc9190614a1e565b90505b801561121a5761121a6001600160a01b037f000000000000000000000000000000000000000000000000000000000000000016333084612375565b60095460405160009182916001600160a01b037f00000000000000000000000000000000000000000000000000000000000000001691633c8a7d8d913091600281810b926301000000909204900b908f906112889033906020016001600160a01b0391909116815260200190565b6040516020818303038152906040526040518663ffffffff1660e01b81526004016112b79594939291906147cb565b6040805180830381600087803b1580156112d057600080fd5b505af11580156112e4573d6000803e3d6000fd5b505050506040513d601f19601f820116820180604052508101906113089190614408565b91509150611316338a6123ad565b7f5a3358a3d27a5373c0df2604662088d37894d56b7cfd27f315770440f4e0d919338a61134388866149a2565b61134d87866149a2565b604080516001600160a01b039095168552602085019390935291830152606082015260800160405180910390a1505042600b55505060016005555092949350505050565b336113a46004546001600160a01b031690565b6001600160a01b0316146113ca5760405162461bcd60e51b8152600401610745906148a7565b6004546040516000916001600160a01b0316907f8be0079c531659141344cd1fd0a4f28419497f9722a3daafe3b4186f6b6457e0908390a3600480546001600160a01b0319169055565b6001600160a01b0381166000908152600360205260408120545b92915050565b3360009081526001602090815260408083206001600160a01b0386168452909152812054828110156114b65760405162461bcd60e51b815260206004820152602560248201527f45524332303a2064656372656173656420616c6c6f77616e63652062656c6f77604482015264207a65726f60d81b6064820152608401610745565b6114c5338561075d8685614b73565b5060019392505050565b60006106ae338484611dd6565b600454600160a81b900460ff16806114fe5750600454600160a01b900460ff16155b6115615760405162461bcd60e51b815260206004820152602e60248201527f496e697469616c697a61626c653a20636f6e747261637420697320616c72656160448201526d191e481a5b9a5d1a585b1a5e995960921b6064820152608401610745565b600454600160a81b900460ff1615801561158b576004805461ffff60a01b191661010160a01b1790555b336001600160a01b037f0000000000000000000000000000000000000000000000000000000000000000161461161c5760405162461bcd60e51b815260206004820152603060248201527f47656c61746f556e695633506f6f6c53746f726167652e696e697469616c697a60448201526f329d1037b7363c903232b83637bcb2b960811b6064820152608401610745565b600685905562015180600755600880546a050000012c001b580000786001600160f01b031990911617905560098054600285810b62ffffff90811663010000000265ffffffffffff19939093169188900b1617179055600480546001600160a01b0384166001600160a01b031990911617905580156116a3576004805460ff60a81b191690555b5050505050565b6000806116b98686868661248c565b915091505b94509492505050565b336001600160a01b037f000000000000000000000000000000000000000000000000000000000000000016146116fc57600080fd5b600061170a82840184614185565b90506001600160a01b038116301415611796578415611757576117576001600160a01b037f0000000000000000000000000000000000000000000000000000000000000000163387612254565b8315611791576117916001600160a01b037f0000000000000000000000000000000000000000000000000000000000000000163386612254565b6116a3565b84156117d1576117d16001600160a01b037f000000000000000000000000000000000000000000000000000000000000000016823388612375565b83156116a3576116a36001600160a01b037f000000000000000000000000000000000000000000000000000000000000000016823387612375565b8342111561185c5760405162461bcd60e51b815260206004820152601d60248201527f45524332305065726d69743a206578706972656420646561646c696e650000006044820152606401610745565b60007f00000000000000000000000000000000000000000000000000000000000000008888886118a98c6001600160a01b0316600090815260036020526040902080546001810190915590565b6040805160208101969096526001600160a01b0394851690860152929091166060840152608083015260a082015260c0810186905260e001604051602081830303815290604052805190602001209050600061190482612528565b9050600061191482878787612576565b9050896001600160a01b0316816001600160a01b0316146119775760405162461bcd60e51b815260206004820152601e60248201527f45524332305065726d69743a20696e76616c6964207369676e617475726500006044820152606401610745565b6119828a8a8a611cb1565b50505050505050505050565b60006107796120a1565b8181336001600160a01b037f00000000000000000000000000000000000000000000000000000000000000001614611a125760405162461bcd60e51b815260206004820152601760248201527f47656c61746f666965643a204f6e6c792067656c61746f0000000000000000006044820152606401610745565b611a20888888888888612716565b42600a556040805160028a810b825289900b60208201527fa40d93a72f8af7b904f2e4a60095955bfcaa3c724969f731bd8bc1fda226a171910160405180910390a16001600160a01b03811673eeeeeeeeeeeeeeeeeeeeeeeeeeeeeeeeeeeeeeee1415611abf57611aba6001600160a01b037f00000000000000000000000000000000000000000000000000000000000000001683612d05565b611af3565b611af36001600160a01b0382167f000000000000000000000000000000000000000000000000000000000000000084612254565b5050505050505050565b33611b106004546001600160a01b031690565b6001600160a01b031614611b365760405162461bcd60e51b8152600401610745906148a7565b6001600160a01b038116611b9b5760405162461bcd60e51b815260206004820152602660248201527f4f776e61626c653a206e6577206f776e657220697320746865207a65726f206160448201526564647265737360d01b6064820152608401610745565b6004546040516001600160a01b038084169216907f8be0079c531659141344cd1fd0a4f28419497f9722a3daafe3b4186f6b6457e090600090a3600480546001600160a01b0319166001600160a01b0392909216919091179055565b336001600160a01b037f00000000000000000000000000000000000000000000000000000000000000001614611c2c57600080fd5b6000841315611c6e57611c696001600160a01b037f0000000000000000000000000000000000000000000000000000000000000000163386612254565b611cab565b6000831315611cab57611cab6001600160a01b037f0000000000000000000000000000000000000000000000000000000000000000163385612254565b50505050565b6001600160a01b038316611d135760405162461bcd60e51b8152602060048201526024808201527f45524332303a20617070726f76652066726f6d20746865207a65726f206164646044820152637265737360e01b6064820152608401610745565b6001600160a01b038216611d745760405162461bcd60e51b815260206004820152602260248201527f45524332303a20617070726f766520746f20746865207a65726f206164647265604482015261737360f01b6064820152608401610745565b6001600160a01b0383811660008181526001602090815260408083209487168084529482529182902085905590518481527f8c5be1e5ebec7d5bd14f71427d1e84f3dd0314c0f7b2291e5b200ac8c7c3b92591015b60405180910390a3505050565b6001600160a01b038316611e3a5760405162461bcd60e51b815260206004820152602560248201527f45524332303a207472616e736665722066726f6d20746865207a65726f206164604482015264647265737360d81b6064820152608401610745565b6001600160a01b038216611e9c5760405162461bcd60e51b815260206004820152602360248201527f45524332303a207472616e7366657220746f20746865207a65726f206164647260448201526265737360e81b6064820152608401610745565b6001600160a01b03831660009081526020819052604090205481811015611f145760405162461bcd60e51b815260206004820152602660248201527f45524332303a207472616e7366657220616d6f756e7420657863656564732062604482015265616c616e636560d01b6064820152608401610745565b611f1e8282614b73565b6001600160a01b038086166000908152602081905260408082209390935590851681529081208054849290611f549084906149a2565b92505081905550826001600160a01b0316846001600160a01b03167fddf252ad1be2c89b69c2b068fc378daa952ba7f163c4a11628f55a4df523b3ef84604051611fa091815260200190565b60405180910390a350505050565b60007f0000000000000000000000000000000000000000000000000000000000000000461415611ffd57507f000000000000000000000000000000000000000000000000000000000000000090565b50604080517f00000000000000000000000000000000000000000000000000000000000000006020808301919091527f0000000000000000000000000000000000000000000000000000000000000000828401527f000000000000000000000000000000000000000000000000000000000000000060608301524660808301523060a0808401919091528351808403909101815260c0909201909252805191012090565b6009546040516bffffffffffffffffffffffff193060601b166020820152600282810b810b60e890811b60348401526301000000909304810b900b90911b6037820152600090603a0160405160208183030381529060405280519060200120905090565b6001600160a01b0382166121655760405162461bcd60e51b815260206004820152602160248201527f45524332303a206275726e2066726f6d20746865207a65726f206164647265736044820152607360f81b6064820152608401610745565b6001600160a01b038216600090815260208190526040902054818110156121d95760405162461bcd60e51b815260206004820152602260248201527f45524332303a206275726e20616d6f756e7420657863656564732062616c616e604482015261636560f01b6064820152608401610745565b6121e38282614b73565b6001600160a01b03841660009081526020819052604081209190915560028054849290612211908490614b73565b90915550506040518281526000906001600160a01b038516907fddf252ad1be2c89b69c2b068fc378daa952ba7f163c4a11628f55a4df523b3ef90602001611dc9565b6040516001600160a01b0383166024820152604481018290526122b790849063a9059cbb60e01b906064015b60408051601f198184030181529190526020810180516001600160e01b03166001600160e01b031990931692909217909152612e1e565b505050565b6000836001600160a01b0316856001600160a01b031611156122dc579293925b846001600160a01b0316866001600160a01b0316101561230857612301858585612ef0565b9050610cf9565b836001600160a01b0316866001600160a01b0316101561236a57600061232f878686612ef0565b9050600061233e878986612f5a565b9050806001600160801b0316826001600160801b03161061235f5780612361565b815b92505050610cf9565b610cf6858584612f5a565b6040516001600160a01b0380851660248301528316604482015260648101829052611cab9085906323b872dd60e01b90608401612280565b6001600160a01b0382166124035760405162461bcd60e51b815260206004820152601f60248201527f45524332303a206d696e7420746f20746865207a65726f2061646472657373006044820152606401610745565b806002600082825461241591906149a2565b90915550506001600160a01b038216600090815260208190526040812080548392906124429084906149a2565b90915550506040518181526001600160a01b038316906000907fddf252ad1be2c89b69c2b068fc378daa952ba7f163c4a11628f55a4df523b3ef9060200160405180910390a35050565b600080836001600160a01b0316856001600160a01b031611156124ad579293925b846001600160a01b0316866001600160a01b031610156124d9576124d2858585612f98565b91506116be565b836001600160a01b0316866001600160a01b03161015612512576124fe868585612f98565b915061250b85878561300b565b90506116be565b61251d85858561300b565b905094509492505050565b600061142e612535611fae565b8360405161190160f01b6020820152602281018390526042810182905260009060620160405160208183030381529060405280519060200120905092915050565b60007f7fffffffffffffffffffffffffffffff5d576e7357a4501ddfe92f46681b20a08211156125f35760405162461bcd60e51b815260206004820152602260248201527f45434453413a20696e76616c6964207369676e6174757265202773272076616c604482015261756560f01b6064820152608401610745565b8360ff16601b148061260857508360ff16601c145b61265f5760405162461bcd60e51b815260206004820152602260248201527f45434453413a20696e76616c6964207369676e6174757265202776272076616c604482015261756560f01b6064820152608401610745565b6040805160008082526020820180845288905260ff871692820192909252606081018590526080810184905260019060a0016020604051602081039080840390855afa1580156126b3573d6000803e3d6000fd5b5050604051601f1901519150506001600160a01b038116610cf95760405162461bcd60e51b815260206004820152601860248201527f45434453413a20696e76616c6964207369676e617475726500000000000000006044820152606401610745565b61271f84613055565b60008060007f00000000000000000000000000000000000000000000000000000000000000006001600160a01b031663514ea4bf61275b6120a1565b6040518263ffffffff1660e01b815260040161277991815260200190565b60a06040518083038186803b15801561279157600080fd5b505afa1580156127a5573d6000803e3d6000fd5b505050506040513d601f19601f820116820180604052508101906127c991906144c6565b50506009549293506127ee92600281810b93506301000000909104900b905083613360565b6040516370a0823160e01b81523060048201526000907f00000000000000000000000000000000000000000000000000000000000000006001600160a01b0316906370a082319060240160206040518083038186803b15801561285057600080fd5b505afa158015612864573d6000803e3d6000fd5b505050506040513d601f19601f820116820180604052508101906128889190614680565b6040516370a0823160e01b81523060048201529091506000906001600160a01b037f000000000000000000000000000000000000000000000000000000000000000016906370a082319060240160206040518083038186803b1580156128ed57600080fd5b505afa158015612901573d6000803e3d6000fd5b505050506040513d601f19601f820116820180604052508101906129259190614680565b90507f00000000000000000000000000000000000000000000000000000000000000006001600160a01b0316866001600160a01b0316146129665781612970565b6129708783614b73565b94507f00000000000000000000000000000000000000000000000000000000000000006001600160a01b0316866001600160a01b0316146129b157806129bb565b6129bb8782614b73565b935050505060007f00000000000000000000000000000000000000000000000000000000000000006001600160a01b0316633850c7bd6040518163ffffffff1660e01b815260040160e06040518083038186803b158015612a1b57600080fd5b505afa158015612a2f573d6000803e3d6000fd5b505050506040513d601f19601f82011682018060405250810190612a539190614527565b5050505050915050600754600a54612a6b91906149a2565b421015612b225760095463010000009004600290810b810b9082900b1380612a9e5750600954600290810b810b9082900b125b612b225760405162461bcd60e51b815260206004820152604960248201527f47656c61746f556e695633506f6f6c2e5f61646a75737443757272656e74506f60448201527f6f6c3a207072696365207374696c6c20696e2072616e676520616e64206e6f206064820152681a19585c9d1899585d60ba1b608482015260a401610745565b600854612b329060020b82614a80565b60020b8960020b13158015612b635750600854612b59906301000000900460020b82614a80565b60020b8960020b12155b612bd55760405162461bcd60e51b815260206004820152603a60248201527f47656c61746f556e695633506f6f6c2e5f61646a75737443757272656e74506f60448201527f6f6c3a206c6f7765725469636b206f7574206f662072616e67650000000000006064820152608401610745565b600854612bec906301000000900460020b82614931565b60020b8860020b13158015612c165750600854612c0c9060020b82614931565b60020b8860020b12155b612c885760405162461bcd60e51b815260206004820152603a60248201527f47656c61746f556e695633506f6f6c2e5f61646a75737443757272656e74506f60448201527f6f6c3a2075707065725469636b206f7574206f662072616e67650000000000006064820152608401610745565b60095460028a810b91810b900b14612cb2576009805462ffffff191662ffffff60028c900b161790555b600954600289810b6301000000909204810b900b14612cec576009805465ffffff0000001916630100000062ffffff60028c900b16021790555b612cfa898985858b8b6134c1565b505050505050505050565b80471015612d555760405162461bcd60e51b815260206004820152601d60248201527f416464726573733a20696e73756666696369656e742062616c616e63650000006044820152606401610745565b6000826001600160a01b03168260405160006040518083038185875af1925050503d8060008114612da2576040519150601f19603f3d011682016040523d82523d6000602084013e612da7565b606091505b50509050806122b75760405162461bcd60e51b815260206004820152603a60248201527f416464726573733a20756e61626c6520746f2073656e642076616c75652c207260448201527f6563697069656e74206d617920686176652072657665727465640000000000006064820152608401610745565b6000612e73826040518060400160405280602081526020017f5361666545524332303a206c6f772d6c6576656c2063616c6c206661696c6564815250856001600160a01b03166136ef9092919063ffffffff16565b8051909150156122b75780806020019051810190612e91919061437f565b6122b75760405162461bcd60e51b815260206004820152602a60248201527f5361666545524332303a204552433230206f7065726174696f6e20646964206e6044820152691bdd081cdd58d8d9595960b21b6064820152608401610745565b6000826001600160a01b0316846001600160a01b03161115612f10579192915b6000612f33856001600160a01b0316856001600160a01b0316600160601b6136fe565b9050610cf9612f558483612f478989614b4b565b6001600160a01b03166136fe565b613883565b6000826001600160a01b0316846001600160a01b03161115612f7a579192915b612f90612f5583600160601b612f478888614b4b565b949350505050565b6000826001600160a01b0316846001600160a01b03161115612fb8579192915b6001600160a01b0384166130016fffffffffffffffffffffffffffffffff60601b606085901b16612fe98787614b4b565b6001600160a01b0316866001600160a01b03166136fe565b612f909190614a1e565b6000826001600160a01b0316846001600160a01b0316111561302b579192915b612f906001600160801b0383166130428686614b4b565b6001600160a01b0316600160601b6136fe565b604080516002808252606082018352600092602083019080368337019050509050600860069054906101000a900463ffffffff16816000815181106130aa57634e487b7160e01b600052603260045260246000fd5b602002602001019063ffffffff16908163ffffffff16815250506000816001815181106130e757634e487b7160e01b600052603260045260246000fd5b63ffffffff9092166020928302919091019091015260405163883bdbfd60e01b81526000906001600160a01b037f0000000000000000000000000000000000000000000000000000000000000000169063883bdbfd9061314b90859060040161484a565b60006040518083038186803b15801561316357600080fd5b505afa158015613177573d6000803e3d6000fd5b505050506040513d6000823e601f3d908101601f1916820160405261319f91908101906142b4565b50905080516002146131f35760405162461bcd60e51b815260206004820152601f60248201527f756e6578706563746564206c656e677468206f66207469636b206172726179006044820152606401610745565b6008548151600091600160301b900463ffffffff16908390839061322757634e487b7160e01b600052603260045260246000fd5b60200260200101518360018151811061325057634e487b7160e01b600052603260045260246000fd5b60200260200101516132629190614b06565b61326c91906149ba565b9050600061327c8260020b61389e565b6008549091506000906064906132a290600160501b90046001600160a01b031684614a32565b6132ac91906149f8565b90506132b88183614977565b6001600160a01b0316866001600160a01b0316111580156132f457506132de8183614b4b565b6001600160a01b0316866001600160a01b031610155b6133585760405162461bcd60e51b815260206004820152602f60248201527f736c697070616765207072696365206973206f7574206f66206163636570746160448201526e626c652070726963652072616e676560881b6064820152608401610745565b505050505050565b60405163a34123a760e01b8152600284810b600483015283900b60248201526001600160801b03821660448201527f00000000000000000000000000000000000000000000000000000000000000006001600160a01b03169063a34123a7906064016040805180830381600087803b1580156133db57600080fd5b505af11580156133ef573d6000803e3d6000fd5b505050506040513d601f19601f820116820180604052508101906134139190614408565b50506040516309e3d67b60e31b81526001600160a01b037f00000000000000000000000000000000000000000000000000000000000000001690634f1eb3d890613470903090879087906001600160801b0390819060040161480d565b6040805180830381600087803b15801561348957600080fd5b505af115801561349d573d6000803e3d6000fd5b505050506040513d601f19601f820116820180604052508101906116a39190614498565b60007f00000000000000000000000000000000000000000000000000000000000000006001600160a01b0316633850c7bd6040518163ffffffff1660e01b815260040160e06040518083038186803b15801561351c57600080fd5b505afa158015613530573d6000803e3d6000fd5b505050506040513d601f19601f820116820180604052508101906135549190614527565b505050505050905060008511801561356c5750600084115b1561368f576000613596826135838a60020b61389e565b61358f8a60020b61389e565b89896122bc565b90506000807f00000000000000000000000000000000000000000000000000000000000000006001600160a01b0316633c8a7d8d308c8c87306040516020016135ee91906001600160a01b0391909116815260200190565b6040516020818303038152906040526040518663ffffffff1660e01b815260040161361d9594939291906147cb565b6040805180830381600087803b15801561363657600080fd5b505af115801561364a573d6000803e3d6000fd5b505050506040513d601f19601f8201168201806040525081019061366e9190614408565b909250905061367d8289614b73565b97506136898188614b73565b96505050505b600085118061369e5750600084115b156136e657838511600061271084836136b757876136b9565b885b6136c39190614a61565b6136cd9190614a1e565b90506136de89898989858a88613cb3565b909750955050505b50505050505050565b6060612f908484600085613f43565b600080806000198587098587029250828110838203039150508060001415613738576000841161372d57600080fd5b508290049050610768565b80841161374457600080fd5b60008486880980840393811190920391905060008561376581600019614b73565b6137709060016149a2565b169586900495938490049360008190030460010190506137908184614a61565b9093179260006137a1876003614a61565b60021890506137b08188614a61565b6137bb906002614b73565b6137c59082614a61565b90506137d18188614a61565b6137dc906002614b73565b6137e69082614a61565b90506137f28188614a61565b6137fd906002614b73565b6138079082614a61565b90506138138188614a61565b61381e906002614b73565b6138289082614a61565b90506138348188614a61565b61383f906002614b73565b6138499082614a61565b90506138558188614a61565b613860906002614b73565b61386a9082614a61565b90506138768186614a61565b9998505050505050505050565b806001600160801b038116811461389957600080fd5b919050565b60008060008360020b126138b5578260020b6138c2565b8260020b6138c290614beb565b90506138d1620d89e719614bca565b60020b8111156139075760405162461bcd60e51b81526020600482015260016024820152601560fa1b6044820152606401610745565b60006001821661391b57600160801b61392d565b6ffffcb933bd6fad37aa2d162d1a5940015b70ffffffffffffffffffffffffffffffffff169050600282161561396c576080613967826ffff97272373d413259a46990580e213a614a61565b901c90505b6004821615613996576080613991826ffff2e50f5f656932ef12357cf3c7fdcc614a61565b901c90505b60088216156139c05760806139bb826fffe5caca7e10e4e61c3624eaa0941cd0614a61565b901c90505b60108216156139ea5760806139e5826fffcb9843d60f6159c9db58835c926644614a61565b901c90505b6020821615613a14576080613a0f826fff973b41fa98c081472e6896dfb254c0614a61565b901c90505b6040821615613a3e576080613a39826fff2ea16466c96a3843ec78b326b52861614a61565b901c90505b6080821615613a68576080613a63826ffe5dee046a99a2a811c461f1969c3053614a61565b901c90505b610100821615613a93576080613a8e826ffcbe86c7900a88aedcffc83b479aa3a4614a61565b901c90505b610200821615613abe576080613ab9826ff987a7253ac413176f2b074cf7815e54614a61565b901c90505b610400821615613ae9576080613ae4826ff3392b0822b70005940c7a398e4b70f3614a61565b901c90505b610800821615613b14576080613b0f826fe7159475a2c29b7443b29c7fa6e889d9614a61565b901c90505b611000821615613b3f576080613b3a826fd097f3bdfd2022b8845ad8f792aa5825614a61565b901c90505b612000821615613b6a576080613b65826fa9f746462d870fdf8a65dc1f90e061e5614a61565b901c90505b614000821615613b95576080613b90826f70d869a156d2a1b890bb3df62baf32f7614a61565b901c90505b618000821615613bc0576080613bbb826f31be135f97d08fd981231505542fcfa6614a61565b901c90505b62010000821615613bec576080613be7826f09aa508b5b7a84e1c677de54f3e99bc9614a61565b901c90505b62020000821615613c17576080613c12826e5d6af8dedb81196699c329225ee604614a61565b901c90505b62040000821615613c41576080613c3c826d2216e584f5fa1ea926041bedfe98614a61565b901c90505b62080000821615613c69576080613c64826b048a170391f7dc42444e8fa2614a61565b901c90505b60008460020b1315613c8457613c8181600019614a1e565b90505b613c9364010000000082614bb6565b15613c9f576001613ca2565b60005b612f909060ff16602083901c6149a2565b6000806000807f00000000000000000000000000000000000000000000000000000000000000006001600160a01b031663128acb0830878a8a30604051602001613d0c91906001600160a01b0391909116815260200190565b6040516020818303038152906040526040518663ffffffff1660e01b8152600401613d3b959493929190614790565b6040805180830381600087803b158015613d5457600080fd5b505af1158015613d68573d6000803e3d6000fd5b505050506040513d601f19601f82011682018060405250810190613d8c9190614408565b9092509050613d9b828a614ac7565b9350613da78189614ac7565b925060007f00000000000000000000000000000000000000000000000000000000000000006001600160a01b0316633850c7bd6040518163ffffffff1660e01b815260040160e06040518083038186803b158015613e0457600080fd5b505afa158015613e18573d6000803e3d6000fd5b505050506040513d601f19601f82011682018060405250810190613e3c9190614527565b50505050505090506000613e5c82613e538f61389e565b61358f8f61389e565b90507f00000000000000000000000000000000000000000000000000000000000000006001600160a01b0316633c8a7d8d308f8f8530604051602001613eb191906001600160a01b0391909116815260200190565b6040516020818303038152906040526040518663ffffffff1660e01b8152600401613ee09594939291906147cb565b6040805180830381600087803b158015613ef957600080fd5b505af1158015613f0d573d6000803e3d6000fd5b505050506040513d601f19601f82011682018060405250810190613f319190614408565b50505050505097509795505050505050565b606082471015613fa45760405162461bcd60e51b815260206004820152602660248201527f416464726573733a20696e73756666696369656e742062616c616e636520666f6044820152651c8818d85b1b60d21b6064820152608401610745565b843b613ff25760405162461bcd60e51b815260206004820152601d60248201527f416464726573733a2063616c6c20746f206e6f6e2d636f6e74726163740000006044820152606401610745565b600080866001600160a01b0316858760405161400e9190614774565b60006040518083038185875af1925050503d806000811461404b576040519150601f19603f3d011682016040523d82523d6000602084013e614050565b606091505b509150915061406082828661406b565b979650505050505050565b6060831561407a575081610768565b82511561408a5782518084602001fd5b8160405162461bcd60e51b81526004016107459190614894565b600082601f8301126140b4578081fd5b815160206140c96140c48361490d565b6148dc565b80838252828201915082860187848660051b89010111156140e8578586fd5b855b8581101561410f5781516140fd81614c47565b845292840192908401906001016140ea565b5090979650505050505050565b8051801515811461389957600080fd5b60008083601f84011261413d578182fd5b50813567ffffffffffffffff811115614154578182fd5b60208301915083602082850101111561416c57600080fd5b9250929050565b805161ffff8116811461389957600080fd5b600060208284031215614196578081fd5b813561076881614c47565b600080604083850312156141b3578081fd5b82356141be81614c47565b915060208301356141ce81614c47565b809150509250929050565b6000806000606084860312156141ed578081fd5b83356141f881614c47565b9250602084013561420881614c47565b929592945050506040919091013590565b600080600080600080600060e0888a031215614233578283fd5b873561423e81614c47565b9650602088013561424e81614c47565b95506040880135945060608801359350608088013561426c81614c83565b9699959850939692959460a0840135945060c09093013592915050565b6000806040838503121561429b578182fd5b82356142a681614c47565b946020939093013593505050565b600080604083850312156142c6578182fd5b825167ffffffffffffffff808211156142dd578384fd5b818501915085601f8301126142f0578384fd5b815160206143006140c48361490d565b8083825282820191508286018a848660051b890101111561431f578889fd5b8896505b8487101561434f5780518060060b811461433b57898afd5b835260019690960195918301918301614323565b5091880151919650909350505080821115614368578283fd5b50614375858286016140a4565b9150509250929050565b600060208284031215614390578081fd5b6107688261411c565b60008060008060008060c087890312156143b1578384fd5b86356143bc81614c5f565b955060208701356143cc81614c5f565b945060408701356143dc81614c47565b9350606087013592506080870135915060a08701356143fa81614c47565b809150509295509295509295565b6000806040838503121561441a578182fd5b505080516020909101519092909150565b60008060008060608587031215614440578182fd5b8435935060208501359250604085013567ffffffffffffffff811115614464578283fd5b6144708782880161412c565b95989497509550505050565b60006020828403121561448d578081fd5b813561076881614c6e565b600080604083850312156144aa578182fd5b82516144b581614c6e565b60208401519092506141ce81614c6e565b600080600080600060a086880312156144dd578283fd5b85516144e881614c6e565b809550506020860151935060408601519250606086015161450881614c6e565b608087015190925061451981614c6e565b809150509295509295909350565b600080600080600080600060e0888a031215614541578081fd5b875161454c81614c47565b602089015190975061455d81614c5f565b955061456b60408901614173565b945061457960608901614173565b935061458760808901614173565b925060a088015161459781614c83565b91506145a560c0890161411c565b905092959891949750929550565b600080600080608085870312156145c8578182fd5b84356145d381614c47565b935060208501356145e381614c47565b925060408501356145f381614c47565b9150606085013561460381614c6e565b939692955090935050565b600080600080600060a08688031215614625578283fd5b853561463081614c47565b9450602086013561464081614c47565b9350604086013561465081614c47565b94979396509394606081013594506080013592915050565b600060208284031215614679578081fd5b5035919050565b600060208284031215614691578081fd5b5051919050565b600080600080608085870312156146ad578182fd5b8435935060208501356146bf81614c5f565b925060408501356146cf81614c5f565b9150606085013561460381614c47565b60008060008060008060c087890312156146f7578384fd5b8635955060208701359450604087013561471081614c5f565b9350606087013561472081614c5f565b9250608087013563ffffffff81168114614738578283fd5b915060a08701356143fa81614c47565b60008151808452614760816020860160208601614b8a565b601f01601f19169290920160200192915050565b60008251614786818460208701614b8a565b9190910192915050565b6001600160a01b0386811682528515156020830152604082018590528316606082015260a06080820181905260009061406090830184614748565b60018060a01b03861681528460020b60208201528360020b60408201526001600160801b038316606082015260a06080820152600061406060a0830184614748565b6001600160a01b03959095168552600293840b60208601529190920b60408401526001600160801b03918216606084015216608082015260a00190565b6020808252825182820181905260009190848201906040850190845b8181101561488857835163ffffffff1683529284019291840191600101614866565b50909695505050505050565b6020815260006107686020830184614748565b6020808252818101527f4f776e61626c653a2063616c6c6572206973206e6f7420746865206f776e6572604082015260600190565b604051601f8201601f1916810167ffffffffffffffff8111828210171561490557614905614c31565b604052919050565b600067ffffffffffffffff82111561492757614927614c31565b5060051b60200190565b60008160020b8360020b82821282627fffff0382138115161561495657614956614c05565b82627fffff1903821281161561496e5761496e614c05565b50019392505050565b60006001600160a01b0382811684821680830382111561499957614999614c05565b01949350505050565b600082198211156149b5576149b5614c05565b500190565b60008160060b8360060b806149d1576149d1614c1b565b667fffffffffffff198214600019821416156149ef576149ef614c05565b90059392505050565b60006001600160a01b0383811680614a1257614a12614c1b565b92169190910492915050565b600082614a2d57614a2d614c1b565b500490565b60006001600160a01b0382811684821681151582840482111615614a5857614a58614c05565b02949350505050565b6000816000190483118215151615614a7b57614a7b614c05565b500290565b60008160020b8360020b82811281627fffff1901831281151615614aa657614aa6614c05565b81627fffff018313811615614abd57614abd614c05565b5090039392505050565b60008083128015600160ff1b850184121615614ae557614ae5614c05565b6001600160ff1b0384018313811615614b0057614b00614c05565b50500390565b60008160060b8360060b82811281667fffffffffffff1901831281151615614b3057614b30614c05565b81667fffffffffffff018313811615614abd57614abd614c05565b60006001600160a01b0383811690831681811015614b6b57614b6b614c05565b039392505050565b600082821015614b8557614b85614c05565b500390565b60005b83811015614ba5578181015183820152602001614b8d565b83811115611cab5750506000910152565b600082614bc557614bc5614c1b565b500690565b60008160020b627fffff19811415614be457614be4614c05565b9003919050565b6000600160ff1b821415614c0157614c01614c05565b0390565b634e487b7160e01b600052601160045260246000fd5b634e487b7160e01b600052601260045260246000fd5b634e487b7160e01b600052604160045260246000fd5b6001600160a01b0381168114614c5c57600080fd5b50565b8060020b8114614c5c57600080fd5b6001600160801b0381168114614c5c57600080fd5b60ff81168114614c5c57600080fdfea26469706673582212209cca60dbb5ef2f17851c01f526166a369d6567ef2190f76d33249e9216def63a64736f6c63430008040033",
  "devdoc": {
    "details": "DO NOT ADD STATE VARIABLES - APPEND THEM TO GelatoUniV3PoolStorageDO NOT ADD BASE CONTRACTS WITH STATE VARS - APPEND THEM TO GelatoUniV3PoolStorage",
    "kind": "dev",
    "methods": {
      "DOMAIN_SEPARATOR()": {
        "details": "See {IERC20Permit-DOMAIN_SEPARATOR}."
      },
      "allowance(address,address)": {
        "details": "See {IERC20-allowance}."
      },
      "approve(address,uint256)": {
        "details": "See {IERC20-approve}. Requirements: - `spender` cannot be the zero address."
      },
      "balanceOf(address)": {
        "details": "See {IERC20-balanceOf}."
      },
      "decimals()": {
        "details": "Returns the number of decimals used to get its user representation. For example, if `decimals` equals `2`, a balance of `505` tokens should be displayed to a user as `5,05` (`505 / 10 ** 2`). Tokens usually opt for a value of 18, imitating the relationship between Ether and Wei. This is the value {ERC20} uses, unless this function is overridden; NOTE: This information is only used for _display_ purposes: it in no way affects any of the arithmetic of the contract, including {IERC20-balanceOf} and {IERC20-transfer}."
      },
      "decreaseAllowance(address,uint256)": {
        "details": "Atomically decreases the allowance granted to `spender` by the caller. This is an alternative to {approve} that can be used as a mitigation for problems described in {IERC20-approve}. Emits an {Approval} event indicating the updated allowance. Requirements: - `spender` cannot be the zero address. - `spender` must have allowance for the caller of at least `subtractedValue`."
      },
      "increaseAllowance(address,uint256)": {
        "details": "Atomically increases the allowance granted to `spender` by the caller. This is an alternative to {approve} that can be used as a mitigation for problems described in {IERC20-approve}. Emits an {Approval} event indicating the updated allowance. Requirements: - `spender` cannot be the zero address."
      },
      "name()": {
        "details": "Returns the name of the token."
      },
      "nonces(address)": {
        "details": "See {IERC20Permit-nonces}."
      },
      "owner()": {
        "details": "Returns the address of the current owner."
      },
      "permit(address,address,uint256,uint256,uint8,bytes32,bytes32)": {
        "details": "See {IERC20Permit-permit}."
      },
      "renounceOwnership()": {
        "details": "Leaves the contract without owner. It will not be possible to call `onlyOwner` functions anymore. Can only be called by the current owner. NOTE: Renouncing ownership will leave the contract without an owner, thereby removing any functionality that is only available to the owner."
      },
      "symbol()": {
        "details": "Returns the symbol of the token, usually a shorter version of the name."
      },
      "totalSupply()": {
        "details": "See {IERC20-totalSupply}."
      },
      "transfer(address,uint256)": {
        "details": "See {IERC20-transfer}. Requirements: - `recipient` cannot be the zero address. - the caller must have a balance of at least `amount`."
      },
      "transferFrom(address,address,uint256)": {
        "details": "See {IERC20-transferFrom}. Emits an {Approval} event indicating the updated allowance. This is not required by the EIP. See the note at the beginning of {ERC20}. Requirements: - `sender` and `recipient` cannot be the zero address. - `sender` must have a balance of at least `amount`. - the caller must have allowance for ``sender``'s tokens of at least `amount`."
      },
      "transferOwnership(address)": {
        "details": "Transfers ownership of the contract to a new account (`newOwner`). Can only be called by the current owner."
      }
    },
    "version": 1
  },
  "userdoc": {
    "kind": "user",
    "methods": {},
    "version": 1
  },
  "storageLayout": {
    "storage": [
      {
        "astId": 3008,
        "contract": "contracts/GelatoUniV3Pool.sol:GelatoUniV3Pool",
        "label": "_balances",
        "offset": 0,
        "slot": "0",
        "type": "t_mapping(t_address,t_uint256)"
      },
      {
        "astId": 3014,
        "contract": "contracts/GelatoUniV3Pool.sol:GelatoUniV3Pool",
        "label": "_allowances",
        "offset": 0,
        "slot": "1",
        "type": "t_mapping(t_address,t_mapping(t_address,t_uint256))"
      },
      {
        "astId": 3016,
        "contract": "contracts/GelatoUniV3Pool.sol:GelatoUniV3Pool",
        "label": "_totalSupply",
        "offset": 0,
        "slot": "2",
        "type": "t_uint256"
      },
      {
        "astId": 3512,
        "contract": "contracts/GelatoUniV3Pool.sol:GelatoUniV3Pool",
        "label": "_nonces",
        "offset": 0,
        "slot": "3",
        "type": "t_mapping(t_address,t_struct(Counter)773_storage)"
      },
      {
        "astId": 4073,
        "contract": "contracts/GelatoUniV3Pool.sol:GelatoUniV3Pool",
        "label": "_owner",
        "offset": 0,
        "slot": "4",
        "type": "t_address"
      },
      {
        "astId": 5,
        "contract": "contracts/GelatoUniV3Pool.sol:GelatoUniV3Pool",
        "label": "_initialized",
        "offset": 20,
        "slot": "4",
        "type": "t_bool"
      },
      {
        "astId": 8,
        "contract": "contracts/GelatoUniV3Pool.sol:GelatoUniV3Pool",
        "label": "_initializing",
        "offset": 21,
        "slot": "4",
        "type": "t_bool"
      },
      {
        "astId": 56,
        "contract": "contracts/GelatoUniV3Pool.sol:GelatoUniV3Pool",
        "label": "_status",
        "offset": 0,
        "slot": "5",
        "type": "t_uint256"
      },
      {
        "astId": 3717,
        "contract": "contracts/GelatoUniV3Pool.sol:GelatoUniV3Pool",
        "label": "_supplyCap",
        "offset": 0,
        "slot": "6",
        "type": "t_uint256"
      },
      {
        "astId": 3719,
        "contract": "contracts/GelatoUniV3Pool.sol:GelatoUniV3Pool",
        "label": "_heartbeat",
        "offset": 0,
        "slot": "7",
        "type": "t_uint256"
      },
      {
        "astId": 3721,
        "contract": "contracts/GelatoUniV3Pool.sol:GelatoUniV3Pool",
        "label": "_minTickDeviation",
        "offset": 0,
        "slot": "8",
        "type": "t_int24"
      },
      {
        "astId": 3723,
        "contract": "contracts/GelatoUniV3Pool.sol:GelatoUniV3Pool",
        "label": "_maxTickDeviation",
        "offset": 3,
        "slot": "8",
        "type": "t_int24"
      },
      {
        "astId": 3725,
        "contract": "contracts/GelatoUniV3Pool.sol:GelatoUniV3Pool",
        "label": "_observationSeconds",
        "offset": 6,
        "slot": "8",
        "type": "t_uint32"
      },
      {
        "astId": 3727,
        "contract": "contracts/GelatoUniV3Pool.sol:GelatoUniV3Pool",
        "label": "_maxSlippagePercentage",
        "offset": 10,
        "slot": "8",
        "type": "t_uint160"
      },
      {
        "astId": 3729,
        "contract": "contracts/GelatoUniV3Pool.sol:GelatoUniV3Pool",
        "label": "_currentLowerTick",
        "offset": 0,
        "slot": "9",
        "type": "t_int24"
      },
      {
        "astId": 3731,
        "contract": "contracts/GelatoUniV3Pool.sol:GelatoUniV3Pool",
        "label": "_currentUpperTick",
        "offset": 3,
        "slot": "9",
        "type": "t_int24"
      },
      {
        "astId": 3733,
        "contract": "contracts/GelatoUniV3Pool.sol:GelatoUniV3Pool",
        "label": "_lastRebalanceTimestamp",
        "offset": 0,
        "slot": "10",
        "type": "t_uint256"
      },
      {
        "astId": 3735,
        "contract": "contracts/GelatoUniV3Pool.sol:GelatoUniV3Pool",
        "label": "_lastMintOrBurnTimestamp",
        "offset": 0,
        "slot": "11",
        "type": "t_uint256"
      }
    ],
    "types": {
      "t_address": {
        "encoding": "inplace",
        "label": "address",
        "numberOfBytes": "20"
      },
      "t_bool": {
        "encoding": "inplace",
        "label": "bool",
        "numberOfBytes": "1"
      },
      "t_int24": {
        "encoding": "inplace",
        "label": "int24",
        "numberOfBytes": "3"
      },
      "t_mapping(t_address,t_mapping(t_address,t_uint256))": {
        "encoding": "mapping",
        "key": "t_address",
        "label": "mapping(address => mapping(address => uint256))",
        "numberOfBytes": "32",
        "value": "t_mapping(t_address,t_uint256)"
      },
      "t_mapping(t_address,t_struct(Counter)773_storage)": {
        "encoding": "mapping",
        "key": "t_address",
        "label": "mapping(address => struct Counters.Counter)",
        "numberOfBytes": "32",
        "value": "t_struct(Counter)773_storage"
      },
      "t_mapping(t_address,t_uint256)": {
        "encoding": "mapping",
        "key": "t_address",
        "label": "mapping(address => uint256)",
        "numberOfBytes": "32",
        "value": "t_uint256"
      },
      "t_struct(Counter)773_storage": {
        "encoding": "inplace",
        "label": "struct Counters.Counter",
        "members": [
          {
            "astId": 772,
            "contract": "contracts/GelatoUniV3Pool.sol:GelatoUniV3Pool",
            "label": "_value",
            "offset": 0,
            "slot": "0",
            "type": "t_uint256"
          }
        ],
        "numberOfBytes": "32"
      },
      "t_uint160": {
        "encoding": "inplace",
        "label": "uint160",
        "numberOfBytes": "20"
      },
      "t_uint256": {
        "encoding": "inplace",
        "label": "uint256",
        "numberOfBytes": "32"
      },
      "t_uint32": {
        "encoding": "inplace",
        "label": "uint32",
        "numberOfBytes": "4"
      }
    }
  }
}