{
  "address": "0x7C4D101b049c3b2c959890a6A7EaE1d7a02cBC25",
  "abi": [
    {
      "inputs": [
        {
          "internalType": "contract IUniswapV3Pool",
          "name": "_pool",
          "type": "address"
        },
        {
          "internalType": "address payable",
          "name": "_gelato",
          "type": "address"
        }
      ],
      "stateMutability": "nonpayable",
      "type": "constructor"
    },
    {
      "anonymous": false,
      "inputs": [
        {
          "indexed": true,
          "internalType": "address",
          "name": "owner",
          "type": "address"
        },
        {
          "indexed": true,
          "internalType": "address",
          "name": "spender",
          "type": "address"
        },
        {
          "indexed": false,
          "internalType": "uint256",
          "name": "value",
          "type": "uint256"
        }
      ],
      "name": "Approval",
      "type": "event"
    },
    {
      "anonymous": false,
      "inputs": [
        {
          "indexed": false,
          "internalType": "address",
          "name": "burner",
          "type": "address"
        },
        {
          "indexed": false,
          "internalType": "uint256",
          "name": "burnAmount",
          "type": "uint256"
        },
        {
          "indexed": false,
          "internalType": "uint256",
          "name": "amount0Out",
          "type": "uint256"
        },
        {
          "indexed": false,
          "internalType": "uint256",
          "name": "amount1Out",
          "type": "uint256"
        }
      ],
      "name": "Burned",
      "type": "event"
    },
    {
      "anonymous": false,
      "inputs": [
        {
          "indexed": false,
          "internalType": "address",
          "name": "minter",
          "type": "address"
        },
        {
          "indexed": false,
          "internalType": "uint256",
          "name": "mintAmount",
          "type": "uint256"
        },
        {
          "indexed": false,
          "internalType": "uint256",
          "name": "amount0In",
          "type": "uint256"
        },
        {
          "indexed": false,
          "internalType": "uint256",
          "name": "amount1In",
          "type": "uint256"
        }
      ],
      "name": "Minted",
      "type": "event"
    },
    {
      "anonymous": false,
      "inputs": [
        {
          "indexed": true,
          "internalType": "address",
          "name": "previousOwner",
          "type": "address"
        },
        {
          "indexed": true,
          "internalType": "address",
          "name": "newOwner",
          "type": "address"
        }
      ],
      "name": "OwnershipTransferred",
      "type": "event"
    },
    {
      "anonymous": false,
      "inputs": [
        {
          "indexed": false,
          "internalType": "int24",
          "name": "newLowerTick",
          "type": "int24"
        },
        {
          "indexed": false,
          "internalType": "int24",
          "name": "newUpperTick",
          "type": "int24"
        }
      ],
      "name": "Rebalance",
      "type": "event"
    },
    {
      "anonymous": false,
      "inputs": [
        {
          "indexed": true,
          "internalType": "address",
          "name": "from",
          "type": "address"
        },
        {
          "indexed": true,
          "internalType": "address",
          "name": "to",
          "type": "address"
        },
        {
          "indexed": false,
          "internalType": "uint256",
          "name": "value",
          "type": "uint256"
        }
      ],
      "name": "Transfer",
      "type": "event"
    },
    {
      "anonymous": false,
      "inputs": [
        {
          "indexed": false,
          "internalType": "bool",
          "name": "disableChangeTicksOld",
          "type": "bool"
        },
        {
          "indexed": false,
          "internalType": "bool",
          "name": "disableChangeTicksNew",
          "type": "bool"
        }
      ],
      "name": "UpdateDisableChangeTicks",
      "type": "event"
    },
    {
      "anonymous": false,
      "inputs": [
        {
          "indexed": false,
          "internalType": "uint256",
          "name": "adminFeeOld",
          "type": "uint256"
        },
        {
          "indexed": false,
          "internalType": "uint256",
          "name": "adminFeeNew",
          "type": "uint256"
        },
        {
          "indexed": false,
          "internalType": "uint256",
          "name": "maxRebalanceFeeOld",
          "type": "uint256"
        },
        {
          "indexed": false,
          "internalType": "uint256",
          "name": "maxRebalanceFeeNew",
          "type": "uint256"
        },
        {
          "indexed": false,
          "internalType": "uint256",
          "name": "maxWithdrawFeeOld",
          "type": "uint256"
        },
        {
          "indexed": false,
          "internalType": "uint256",
          "name": "maxWithdrawFeeNew",
          "type": "uint256"
        }
      ],
      "name": "UpdateFeeParams",
      "type": "event"
    },
    {
      "anonymous": false,
      "inputs": [
        {
          "indexed": false,
          "internalType": "uint256",
          "name": "heartbeatOld",
          "type": "uint256"
        },
        {
          "indexed": false,
          "internalType": "uint256",
          "name": "heartbeatNew",
          "type": "uint256"
        }
      ],
      "name": "UpdateHeartbeat",
      "type": "event"
    },
    {
      "anonymous": false,
      "inputs": [
        {
          "indexed": false,
          "internalType": "uint32",
          "name": "observationSecondsOld",
          "type": "uint32"
        },
        {
          "indexed": false,
          "internalType": "uint32",
          "name": "observationSecondsNew",
          "type": "uint32"
        },
        {
          "indexed": false,
          "internalType": "uint160",
          "name": "maxSlippagePercentageOld",
          "type": "uint160"
        },
        {
          "indexed": false,
          "internalType": "uint160",
          "name": "maxSlippagePercentageNew",
          "type": "uint160"
        }
      ],
      "name": "UpdateSlippageParams",
      "type": "event"
    },
    {
      "anonymous": false,
      "inputs": [
        {
          "indexed": false,
          "internalType": "uint256",
          "name": "supplyCapOld",
          "type": "uint256"
        },
        {
          "indexed": false,
          "internalType": "uint256",
          "name": "supplyCapNew",
          "type": "uint256"
        }
      ],
      "name": "UpdateSupplyCap",
      "type": "event"
    },
    {
      "anonymous": false,
      "inputs": [
        {
          "indexed": false,
          "internalType": "int24",
          "name": "minTickDeviationOld",
          "type": "int24"
        },
        {
          "indexed": false,
          "internalType": "int24",
          "name": "minTickDeviationNew",
          "type": "int24"
        },
        {
          "indexed": false,
          "internalType": "int24",
          "name": "maxTickDeviationOld",
          "type": "int24"
        },
        {
          "indexed": false,
          "internalType": "int24",
          "name": "maxTickDeviationNew",
          "type": "int24"
        }
      ],
      "name": "UpdateTickDeviations",
      "type": "event"
    },
    {
      "anonymous": false,
      "inputs": [
        {
          "indexed": false,
          "internalType": "address",
          "name": "account",
          "type": "address"
        },
        {
          "indexed": false,
          "internalType": "bool",
          "name": "isWhitelisted",
          "type": "bool"
        }
      ],
      "name": "UpdateTreasury",
      "type": "event"
    },
    {
      "inputs": [],
      "name": "DOMAIN_SEPARATOR",
      "outputs": [
        {
          "internalType": "bytes32",
          "name": "",
          "type": "bytes32"
        }
      ],
      "stateMutability": "view",
      "type": "function"
    },
    {
      "inputs": [],
      "name": "GELATO",
      "outputs": [
        {
          "internalType": "address payable",
          "name": "",
          "type": "address"
        }
      ],
      "stateMutability": "view",
      "type": "function"
    },
    {
      "inputs": [],
      "name": "adminBalanceToken0",
      "outputs": [
        {
          "internalType": "uint256",
          "name": "",
          "type": "uint256"
        }
      ],
      "stateMutability": "view",
      "type": "function"
    },
    {
      "inputs": [],
      "name": "adminBalanceToken1",
      "outputs": [
        {
          "internalType": "uint256",
          "name": "",
          "type": "uint256"
        }
      ],
      "stateMutability": "view",
      "type": "function"
    },
    {
      "inputs": [
        {
          "internalType": "address",
          "name": "account",
          "type": "address"
        }
      ],
      "name": "adminWhitelistedTreasury",
      "outputs": [
        {
          "internalType": "bool",
          "name": "",
          "type": "bool"
        }
      ],
      "stateMutability": "view",
      "type": "function"
    },
    {
      "inputs": [
        {
          "internalType": "address",
          "name": "owner",
          "type": "address"
        },
        {
          "internalType": "address",
          "name": "spender",
          "type": "address"
        }
      ],
      "name": "allowance",
      "outputs": [
        {
          "internalType": "uint256",
          "name": "",
          "type": "uint256"
        }
      ],
      "stateMutability": "view",
      "type": "function"
    },
    {
      "inputs": [
        {
          "internalType": "address",
          "name": "spender",
          "type": "address"
        },
        {
          "internalType": "uint256",
          "name": "amount",
          "type": "uint256"
        }
      ],
      "name": "approve",
      "outputs": [
        {
          "internalType": "bool",
          "name": "",
          "type": "bool"
        }
      ],
      "stateMutability": "nonpayable",
      "type": "function"
    },
    {
      "inputs": [
        {
          "internalType": "uint256",
          "name": "amountOut",
          "type": "uint256"
        },
        {
          "internalType": "address",
          "name": "token",
          "type": "address"
        },
        {
          "internalType": "address",
          "name": "receiver",
          "type": "address"
        },
        {
          "internalType": "uint256",
          "name": "feeAmount",
          "type": "uint256"
        }
      ],
      "name": "autoWithdrawFromAdminBalance",
      "outputs": [],
      "stateMutability": "nonpayable",
      "type": "function"
    },
    {
      "inputs": [
        {
          "internalType": "address",
          "name": "account",
          "type": "address"
        }
      ],
      "name": "balanceOf",
      "outputs": [
        {
          "internalType": "uint256",
          "name": "",
          "type": "uint256"
        }
      ],
      "stateMutability": "view",
      "type": "function"
    },
    {
      "inputs": [
        {
          "internalType": "address",
          "name": "account",
          "type": "address"
        }
      ],
      "name": "blacklistTreasury",
      "outputs": [],
      "stateMutability": "nonpayable",
      "type": "function"
    },
    {
      "inputs": [
        {
          "internalType": "uint256",
          "name": "_burnAmount",
          "type": "uint256"
        }
      ],
      "name": "burn",
      "outputs": [
        {
          "internalType": "uint256",
          "name": "amount0",
          "type": "uint256"
        },
        {
          "internalType": "uint256",
          "name": "amount1",
          "type": "uint256"
        },
        {
          "internalType": "uint128",
          "name": "liquidityBurned",
          "type": "uint128"
        }
      ],
      "stateMutability": "nonpayable",
      "type": "function"
    },
    {
      "inputs": [],
      "name": "currentLowerTick",
      "outputs": [
        {
          "internalType": "int24",
          "name": "",
          "type": "int24"
        }
      ],
      "stateMutability": "view",
      "type": "function"
    },
    {
      "inputs": [],
      "name": "currentUpperTick",
      "outputs": [
        {
          "internalType": "int24",
          "name": "",
          "type": "int24"
        }
      ],
      "stateMutability": "view",
      "type": "function"
    },
    {
      "inputs": [],
      "name": "decimals",
      "outputs": [
        {
          "internalType": "uint8",
          "name": "",
          "type": "uint8"
        }
      ],
      "stateMutability": "view",
      "type": "function"
    },
    {
      "inputs": [
        {
          "internalType": "address",
          "name": "spender",
          "type": "address"
        },
        {
          "internalType": "uint256",
          "name": "subtractedValue",
          "type": "uint256"
        }
      ],
      "name": "decreaseAllowance",
      "outputs": [
        {
          "internalType": "bool",
          "name": "",
          "type": "bool"
        }
      ],
      "stateMutability": "nonpayable",
      "type": "function"
    },
    {
      "inputs": [],
      "name": "deployer",
      "outputs": [
        {
          "internalType": "address",
          "name": "",
          "type": "address"
        }
      ],
      "stateMutability": "view",
      "type": "function"
    },
    {
      "inputs": [],
      "name": "disableChangeTicks",
      "outputs": [
        {
          "internalType": "bool",
          "name": "",
          "type": "bool"
        }
      ],
      "stateMutability": "view",
      "type": "function"
    },
    {
      "inputs": [
        {
          "internalType": "uint160",
          "name": "sqrtRatioX96",
          "type": "uint160"
        },
        {
          "internalType": "uint160",
          "name": "sqrtRatioAX96",
          "type": "uint160"
        },
        {
          "internalType": "uint160",
          "name": "sqrtRatioBX96",
          "type": "uint160"
        },
        {
          "internalType": "uint128",
          "name": "liquidity",
          "type": "uint128"
        }
      ],
      "name": "getAmountsForLiquidity",
      "outputs": [
        {
          "internalType": "uint256",
          "name": "amount0",
          "type": "uint256"
        },
        {
          "internalType": "uint256",
          "name": "amount1",
          "type": "uint256"
        }
      ],
      "stateMutability": "pure",
      "type": "function"
    },
    {
      "inputs": [
        {
          "internalType": "uint160",
          "name": "sqrtRatioX96",
          "type": "uint160"
        },
        {
          "internalType": "uint160",
          "name": "sqrtRatioAX96",
          "type": "uint160"
        },
        {
          "internalType": "uint160",
          "name": "sqrtRatioBX96",
          "type": "uint160"
        },
        {
          "internalType": "uint256",
          "name": "amount0",
          "type": "uint256"
        },
        {
          "internalType": "uint256",
          "name": "amount1",
          "type": "uint256"
        }
      ],
      "name": "getLiquidityForAmounts",
      "outputs": [
        {
          "internalType": "uint128",
          "name": "liquidity",
          "type": "uint128"
        }
      ],
      "stateMutability": "pure",
      "type": "function"
    },
    {
      "inputs": [
        {
          "internalType": "uint256",
          "name": "amount0Max",
          "type": "uint256"
        },
        {
          "internalType": "uint256",
          "name": "amount1Max",
          "type": "uint256"
        }
      ],
      "name": "getMintAmounts",
      "outputs": [
        {
          "internalType": "uint256",
          "name": "amount0",
          "type": "uint256"
        },
        {
          "internalType": "uint256",
          "name": "amount1",
          "type": "uint256"
        },
        {
          "internalType": "uint256",
          "name": "mintAmount",
          "type": "uint256"
        }
      ],
      "stateMutability": "view",
      "type": "function"
    },
    {
      "inputs": [],
      "name": "getPositionID",
      "outputs": [
        {
          "internalType": "bytes32",
          "name": "positionID",
          "type": "bytes32"
        }
      ],
      "stateMutability": "view",
      "type": "function"
    },
    {
      "inputs": [],
      "name": "heartbeat",
      "outputs": [
        {
          "internalType": "uint256",
          "name": "",
          "type": "uint256"
        }
      ],
      "stateMutability": "view",
      "type": "function"
    },
    {
      "inputs": [
        {
          "internalType": "address",
          "name": "spender",
          "type": "address"
        },
        {
          "internalType": "uint256",
          "name": "addedValue",
          "type": "uint256"
        }
      ],
      "name": "increaseAllowance",
      "outputs": [
        {
          "internalType": "bool",
          "name": "",
          "type": "bool"
        }
      ],
      "stateMutability": "nonpayable",
      "type": "function"
    },
    {
      "inputs": [
        {
          "internalType": "uint256",
          "name": "_supplyCap_",
          "type": "uint256"
        },
        {
          "internalType": "int24",
          "name": "_lowerTick",
          "type": "int24"
        },
        {
          "internalType": "int24",
          "name": "_upperTick",
          "type": "int24"
        },
        {
          "internalType": "bool",
          "name": "_disableChangeTicks_",
          "type": "bool"
        },
        {
          "internalType": "address",
          "name": "_owner_",
          "type": "address"
        }
      ],
      "name": "initialize",
      "outputs": [],
      "stateMutability": "nonpayable",
      "type": "function"
    },
    {
      "inputs": [],
      "name": "lastRebalanceTimestamp",
      "outputs": [
        {
          "internalType": "uint256",
          "name": "",
          "type": "uint256"
        }
      ],
      "stateMutability": "view",
      "type": "function"
    },
    {
      "inputs": [],
      "name": "maxTickDeviation",
      "outputs": [
        {
          "internalType": "int24",
          "name": "",
          "type": "int24"
        }
      ],
      "stateMutability": "view",
      "type": "function"
    },
    {
      "inputs": [],
      "name": "minTickDeviation",
      "outputs": [
        {
          "internalType": "int24",
          "name": "",
          "type": "int24"
        }
      ],
      "stateMutability": "view",
      "type": "function"
    },
    {
      "inputs": [
        {
          "internalType": "uint256",
          "name": "amount0Max",
          "type": "uint256"
        },
        {
          "internalType": "uint256",
          "name": "amount1Max",
          "type": "uint256"
        }
      ],
      "name": "mint",
      "outputs": [
        {
          "internalType": "uint256",
          "name": "amount0",
          "type": "uint256"
        },
        {
          "internalType": "uint256",
          "name": "amount1",
          "type": "uint256"
        },
        {
          "internalType": "uint256",
          "name": "mintAmount",
          "type": "uint256"
        }
      ],
      "stateMutability": "nonpayable",
      "type": "function"
    },
    {
      "inputs": [],
      "name": "name",
      "outputs": [
        {
          "internalType": "string",
          "name": "",
          "type": "string"
        }
      ],
      "stateMutability": "view",
      "type": "function"
    },
    {
      "inputs": [
        {
          "internalType": "address",
          "name": "owner",
          "type": "address"
        }
      ],
      "name": "nonces",
      "outputs": [
        {
          "internalType": "uint256",
          "name": "",
          "type": "uint256"
        }
      ],
      "stateMutability": "view",
      "type": "function"
    },
    {
      "inputs": [],
      "name": "owner",
      "outputs": [
        {
          "internalType": "address",
          "name": "",
          "type": "address"
        }
      ],
      "stateMutability": "view",
      "type": "function"
    },
    {
      "inputs": [
        {
          "internalType": "address",
          "name": "owner",
          "type": "address"
        },
        {
          "internalType": "address",
          "name": "spender",
          "type": "address"
        },
        {
          "internalType": "uint256",
          "name": "value",
          "type": "uint256"
        },
        {
          "internalType": "uint256",
          "name": "deadline",
          "type": "uint256"
        },
        {
          "internalType": "uint8",
          "name": "v",
          "type": "uint8"
        },
        {
          "internalType": "bytes32",
          "name": "r",
          "type": "bytes32"
        },
        {
          "internalType": "bytes32",
          "name": "s",
          "type": "bytes32"
        }
      ],
      "name": "permit",
      "outputs": [],
      "stateMutability": "nonpayable",
      "type": "function"
    },
    {
      "inputs": [],
      "name": "pool",
      "outputs": [
        {
          "internalType": "contract IUniswapV3Pool",
          "name": "",
          "type": "address"
        }
      ],
      "stateMutability": "view",
      "type": "function"
    },
    {
      "inputs": [
        {
          "internalType": "int24",
          "name": "_newLowerTick",
          "type": "int24"
        },
        {
          "internalType": "int24",
          "name": "_newUpperTick",
          "type": "int24"
        },
        {
          "internalType": "uint160",
          "name": "_swapThresholdPrice",
          "type": "uint160"
        },
        {
          "internalType": "uint256",
          "name": "_swapAmountBPS",
          "type": "uint256"
        },
        {
          "internalType": "uint256",
          "name": "_feeAmount",
          "type": "uint256"
        },
        {
          "internalType": "address",
          "name": "_paymentToken",
          "type": "address"
        }
      ],
      "name": "rebalance",
      "outputs": [],
      "stateMutability": "nonpayable",
      "type": "function"
    },
    {
      "inputs": [],
      "name": "renounceOwnership",
      "outputs": [],
      "stateMutability": "nonpayable",
      "type": "function"
    },
    {
      "inputs": [],
      "name": "supplyCap",
      "outputs": [
        {
          "internalType": "uint256",
          "name": "",
          "type": "uint256"
        }
      ],
      "stateMutability": "view",
      "type": "function"
    },
    {
      "inputs": [],
      "name": "symbol",
      "outputs": [
        {
          "internalType": "string",
          "name": "",
          "type": "string"
        }
      ],
      "stateMutability": "view",
      "type": "function"
    },
    {
      "inputs": [],
      "name": "token0",
      "outputs": [
        {
          "internalType": "contract IERC20",
          "name": "",
          "type": "address"
        }
      ],
      "stateMutability": "view",
      "type": "function"
    },
    {
      "inputs": [],
      "name": "token1",
      "outputs": [
        {
          "internalType": "contract IERC20",
          "name": "",
          "type": "address"
        }
      ],
      "stateMutability": "view",
      "type": "function"
    },
    {
      "inputs": [],
      "name": "totalSupply",
      "outputs": [
        {
          "internalType": "uint256",
          "name": "",
          "type": "uint256"
        }
      ],
      "stateMutability": "view",
      "type": "function"
    },
    {
      "inputs": [
        {
          "internalType": "address",
          "name": "recipient",
          "type": "address"
        },
        {
          "internalType": "uint256",
          "name": "amount",
          "type": "uint256"
        }
      ],
      "name": "transfer",
      "outputs": [
        {
          "internalType": "bool",
          "name": "",
          "type": "bool"
        }
      ],
      "stateMutability": "nonpayable",
      "type": "function"
    },
    {
      "inputs": [
        {
          "internalType": "address",
          "name": "sender",
          "type": "address"
        },
        {
          "internalType": "address",
          "name": "recipient",
          "type": "address"
        },
        {
          "internalType": "uint256",
          "name": "amount",
          "type": "uint256"
        }
      ],
      "name": "transferFrom",
      "outputs": [
        {
          "internalType": "bool",
          "name": "",
          "type": "bool"
        }
      ],
      "stateMutability": "nonpayable",
      "type": "function"
    },
    {
      "inputs": [
        {
          "internalType": "address",
          "name": "newOwner",
          "type": "address"
        }
      ],
      "name": "transferOwnership",
      "outputs": [],
      "stateMutability": "nonpayable",
      "type": "function"
    },
    {
      "inputs": [
        {
          "internalType": "uint256",
          "name": "_amount0Owed",
          "type": "uint256"
        },
        {
          "internalType": "uint256",
          "name": "_amount1Owed",
          "type": "uint256"
        },
        {
          "internalType": "bytes",
          "name": "_data",
          "type": "bytes"
        }
      ],
      "name": "uniswapV3MintCallback",
      "outputs": [],
      "stateMutability": "nonpayable",
      "type": "function"
    },
    {
      "inputs": [
        {
          "internalType": "int256",
          "name": "amount0Delta",
          "type": "int256"
        },
        {
          "internalType": "int256",
          "name": "amount1Delta",
          "type": "int256"
        },
        {
          "internalType": "bytes",
          "name": "",
          "type": "bytes"
        }
      ],
      "name": "uniswapV3SwapCallback",
      "outputs": [],
      "stateMutability": "nonpayable",
      "type": "function"
    },
    {
      "inputs": [
        {
          "internalType": "bool",
          "name": "newDisableChangeTicks",
          "type": "bool"
        }
      ],
      "name": "updateDisableChangeTicks",
      "outputs": [],
      "stateMutability": "nonpayable",
      "type": "function"
    },
    {
      "inputs": [
        {
          "internalType": "uint256",
          "name": "newAdminFeeBPS",
          "type": "uint256"
        },
        {
          "internalType": "uint256",
          "name": "newMaxRebalanceFeeBPS",
          "type": "uint256"
        },
        {
          "internalType": "uint256",
          "name": "newMaxWithdrawFeeBPS",
          "type": "uint256"
        }
      ],
      "name": "updateFeeParams",
      "outputs": [],
      "stateMutability": "nonpayable",
      "type": "function"
    },
    {
      "inputs": [
        {
          "internalType": "uint256",
          "name": "newHeartbeat",
          "type": "uint256"
        }
      ],
      "name": "updateHeartbeat",
      "outputs": [],
      "stateMutability": "nonpayable",
      "type": "function"
    },
    {
      "inputs": [
        {
          "internalType": "uint32",
          "name": "newObservationSeconds",
          "type": "uint32"
        },
        {
          "internalType": "uint32",
          "name": "newMaxSlippagePercentage",
          "type": "uint32"
        }
      ],
      "name": "updateSlippageParams",
      "outputs": [],
      "stateMutability": "nonpayable",
      "type": "function"
    },
    {
      "inputs": [
        {
          "internalType": "uint256",
          "name": "newSupplyCap",
          "type": "uint256"
        }
      ],
      "name": "updateSupplyCap",
      "outputs": [],
      "stateMutability": "nonpayable",
      "type": "function"
    },
    {
      "inputs": [
        {
          "internalType": "int24",
          "name": "newMinTickDeviation",
          "type": "int24"
        },
        {
          "internalType": "int24",
          "name": "newMaxTickDeviation",
          "type": "int24"
        }
      ],
      "name": "updateTickDeviations",
      "outputs": [],
      "stateMutability": "nonpayable",
      "type": "function"
    },
    {
      "inputs": [
        {
          "internalType": "address",
          "name": "account",
          "type": "address"
        }
      ],
      "name": "whitelistTreasury",
      "outputs": [],
      "stateMutability": "nonpayable",
      "type": "function"
    },
    {
      "inputs": [
        {
          "internalType": "uint256",
          "name": "amountOut",
          "type": "uint256"
        },
        {
          "internalType": "address",
          "name": "token",
          "type": "address"
        }
      ],
      "name": "withdrawFromAdminBalance",
      "outputs": [],
      "stateMutability": "nonpayable",
      "type": "function"
    }
  ],
  "transactionHash": "0x677c92ab3d8660b60dc6f5217d1d09eb80dc64a9f61701b91935f8ff77aafbf2",
  "args": [
    "0x25D0Ea8FAc3Ce2313c6a478DA92e0ccf95213B1A",
    "0xCc4CcD69D31F9FfDBD3BFfDe49c6aA886DaB98d9"
  ],
  "solcInputHash": "ed7e26b7a2a90b8e3e171dc0293fcc00",
  "bytecode": "0x6101e06040527f6e71edae12b1b97f4d1f60370fef10105fa2faae0126114a169c64845d6126c9610120523480156200003757600080fd5b506040516200657d3803806200657d8339810160408190526200005a91620003a5565b8181806040518060400160405280601d81526020017f47656c61746f20556e697377617020563320574554482f444149204c5000000081525080604051806040016040528060018152602001603160f81b81525060405180602001604052806000815250604051806020016040528060008152508160039080519060200190620000e6929190620002d9565b508051620000fc906004906020840190620002d9565b5050825160209384012082519284019290922060c083815260e08290524660a0818152604080517f8b73c3c69bb8fe3d512ecc4cf759cc79239f7b179b0ffacaa9a75d522b39400f818a0181905281830198909852606080820196909652608080820194909452308184015281518082039093018352938401808252825192890192909220909252610100959095526001600160601b031997831b881661014052600160075533831b610160529189901b90961661018052630dfe168160e01b90925250516001600160a01b03861693630dfe1681935060c4808201939291829003018186803b158015620001f057600080fd5b505afa15801562000205573d6000803e3d6000fd5b505050506040513d601f19601f820116820180604052508101906200022b91906200037f565b6001600160a01b03166101a0816001600160a01b031660601b81525050816001600160a01b031663d21220a76040518163ffffffff1660e01b815260040160206040518083038186803b1580156200028257600080fd5b505afa15801562000297573d6000803e3d6000fd5b505050506040513d601f19601f82011682018060405250810190620002bd91906200037f565b60601b6001600160601b0319166101c052506200043992505050565b828054620002e790620003e3565b90600052602060002090601f0160209004810192826200030b576000855562000356565b82601f106200032657805160ff191683800117855562000356565b8280016001018555821562000356579182015b828111156200035657825182559160200191906001019062000339565b506200036492915062000368565b5090565b5b8082111562000364576000815560010162000369565b60006020828403121562000391578081fd5b81516200039e8162000420565b9392505050565b60008060408385031215620003b8578081fd5b8251620003c58162000420565b6020840151909250620003d88162000420565b809150509250929050565b600181811c90821680620003f857607f821691505b602082108114156200041a57634e487b7160e01b600052602260045260246000fd5b50919050565b6001600160a01b03811681146200043657600080fd5b50565b60805160a05160c05160e05161010051610120516101405160601c6101605160601c6101805160601c6101a05160601c6101c05160601c615f18620006656000396000818161062501528181610970015281816109d601528181610bd501528181610ce6015281816114b2015281816116b5015281816119e801528181611a3b0152818161220801528181612282015281816127bd01528181612c3e01528181613cf601528181613d460152613dde0152600081816102df015281816108dc0152818161094201528181610b9a01528181610c4a0152818161141a0152818161167b0152818161195d015281816119b0015281816121ce015281816122470152818161277b01528181612b8901528181613b5c01528181613bac01528181613c44015261457b01526000818161031301528181610ad401528181610d8301528181610eb001528181611259015281816113600152818161158c01528181611e9a015281816121700152818161273b01528181612a9501528181613a7f01528181613ec2015281816143f50152818161449d015281816146ad0152818161478501528181614a6c01528181614ccf01528181614d6b0152614e1e0152600081816106720152611b250152600081816107160152818161079401528181610a2f01528181610a690152818161244a01528181612509015261254301526000612305015260006135c401526000613613015260006135ee015260006135720152600061359b0152615f186000f3fe608060405234801561001057600080fd5b50600436106102675760003560e01c806306fdde031461026c578063095ea7b3146102b75780630dfe1681146102da57806316f0115b1461030e578063173f843d1461033557806318160ddd1461034a5780631b2ef1ca1461035c5780631f6697c61461038a57806323b872dd146103ab578063313ce567146103be5780633644e515146103cd57806339509351146103d55780633defb962146103e85780633e6910c1146103f057806342966c68146104035780634b41d7d81461043a5780635c9ff287146104455780636098fd4a14610458578063638694fb14610483578063652531ab14610496578063696c58e5146104a95780636a8f1a44146104bb57806370945c78146104ce57806370a08231146104d657806370be5786146104ff578063715018a6146105125780637ecebe001461051a57806382d2a3fa1461052d57806383c60a6b146105355780638da5cb5b146105485780638f770ad01461055057806395d89b41146105585780639894f21a14610578578063a457c2d71461058b578063a66dafd81461059e578063a9059cbb146105ca578063b83d8157146105dd578063c6f686c9146105e5578063c72e160b146105f8578063d21220a714610620578063d348799714610647578063d505accf1461065a578063d5f394881461066d578063dd62ed3e14610694578063df28408a146106cd578063e3fbf2f8146106d5578063e5475ae7146106e8578063e5a97f07146106f3578063eca564f714610706578063eff557a714610711578063f2fde38b14610738578063f3dc7d421461074b578063fa461e331461075e575b600080fd5b60408051808201909152601d81527f47656c61746f20556e697377617020563320574554482f444149204c5000000060208201525b6040516102ae919061594d565b60405180910390f35b6102ca6102c536600461523b565b610771565b60405190151581526020016102ae565b6103017f000000000000000000000000000000000000000000000000000000000000000081565b6040516102ae9190615806565b6103017f000000000000000000000000000000000000000000000000000000000000000081565b6103486103433660046156a0565b610787565b005b6002545b6040519081526020016102ae565b61036f61036a366004615740565b610a96565b604080519384526020840192909252908201526060016102ae565b600b546301000000900460020b5b60405160029190910b81526020016102ae565b6102ca6103b936600461518b565b61107e565b604051601281526020016102ae565b61034e611131565b6102ca6103e336600461523b565b611140565b60095461034e565b6103486103fe366004615761565b611177565b61041661041136600461564c565b611211565b6040805193845260208401929092526001600160801b0316908201526060016102ae565b600a5460020b610398565b61034861045336600461578c565b61172e565b61046b6104663660046155f2565b611802565b6040516001600160801b0390911681526020016102ae565b610348610491366004615330565b61181d565b6103486104a436600461567c565b6118a2565b600a546301000000900460020b610398565b6103486104c93660046156e7565b611a6b565b60125461034e565b61034e6104e4366004615137565b6001600160a01b031660009081526020819052604090205490565b61034861050d366004615368565b611c53565b610348611d19565b61034e610528366004615137565b611d80565b60135461034e565b610348610543366004615137565b611da0565b610301611e76565b60085461034e565b60408051808201909152600481526367554e4960e01b60208201526102a1565b61036f610586366004615740565b611e85565b6102ca61059936600461523b565b611fc6565b6102ca6105ac366004615137565b6001600160a01b031660009081526014602052604090205460ff1690565b6102ca6105d836600461523b565b612061565b600c5461034e565b6103486105f3366004615137565b61206e565b61060b610606366004615597565b612148565b604080519283526020830191909152016102ae565b6103017f000000000000000000000000000000000000000000000000000000000000000081565b610348610655366004615427565b612165565b6103486106683660046151cb565b6122b1565b6103017f000000000000000000000000000000000000000000000000000000000000000081565b61034e6106a2366004615153565b6001600160a01b03918216600090815260016020908152604080832093909416825291909152205490565b61034e612433565b6103486106e3366004615395565b61243d565b600b5460020b610398565b61034861070136600461564c565b612572565b600e5460ff166102ca565b6103017f000000000000000000000000000000000000000000000000000000000000000081565b610348610746366004615137565b6125e2565b61034861075936600461564c565b6126c0565b61034861076c366004615427565b612730565b600061077e3384846127ea565b50600192915050565b8083336001600160a01b037f000000000000000000000000000000000000000000000000000000000000000016146107da5760405162461bcd60e51b81526004016107d190615960565b60405180910390fd5b82612710601154886107ec9190615c23565b6107f69190615be0565b10156108445760405162461bcd60e51b815260206004820152601f60248201527f776974687264726177616c2063616e6e6f7420626520746f6f20736d616c6c0060448201526064016107d1565b61084c611e76565b6001600160a01b0316846001600160a01b0316148061088357506001600160a01b03841660009081526014602052604090205460ff165b6108da5760405162461bcd60e51b815260206004820152602260248201527f6f6e6c792061646d696e73206d61792072656365697665207769746864726177604482015261185b60f21b60648201526084016107d1565b7f00000000000000000000000000000000000000000000000000000000000000006001600160a01b0316856001600160a01b0316141561096e5761091e8387615b64565b6012600082825461092f9190615d35565b9091555061096990506001600160a01b037f000000000000000000000000000000000000000000000000000000000000000016858861290f565b6109fd565b7f00000000000000000000000000000000000000000000000000000000000000006001600160a01b0316856001600160a01b031614156109fd576109b28387615b64565b601360008282546109c39190615d35565b909155506109fd90506001600160a01b037f000000000000000000000000000000000000000000000000000000000000000016858861290f565b6001600160a01b03811673eeeeeeeeeeeeeeeeeeeeeeeeeeeeeeeeeeeeeeee1415610a5a57610a556001600160a01b037f00000000000000000000000000000000000000000000000000000000000000001683612977565b610a8e565b610a8e6001600160a01b0382167f00000000000000000000000000000000000000000000000000000000000000008461290f565b505050505050565b600080600060026007541415610abe5760405162461bcd60e51b81526004016107d190615a69565b60026007556000610ace60025490565b905060007f00000000000000000000000000000000000000000000000000000000000000006001600160a01b0316633850c7bd6040518163ffffffff1660e01b815260040160e06040518083038186803b158015610b2b57600080fd5b505afa158015610b3f573d6000803e3d6000fd5b505050506040513d601f19601f82011682018060405250810190610b639190615506565b50505050505090506000821115610e5457610b8081838989612a8d565b919650945092508415610bc257610bc26001600160a01b037f000000000000000000000000000000000000000000000000000000000000000016333088612dd8565b8315610bfd57610bfd6001600160a01b037f000000000000000000000000000000000000000000000000000000000000000016333087612dd8565b600b54600090610d70908390610c1990600290810b900b612e10565b600b54610c339063010000009004600290810b900b612e10565b6040516370a0823160e01b81526001600160a01b037f000000000000000000000000000000000000000000000000000000000000000016906370a0823190610c7f903090600401615806565b60206040518083038186803b158015610c9757600080fd5b505afa158015610cab573d6000803e3d6000fd5b505050506040513d601f19601f82011682018060405250810190610ccf9190615664565b6040516370a0823160e01b81526001600160a01b037f000000000000000000000000000000000000000000000000000000000000000016906370a0823190610d1b903090600401615806565b60206040518083038186803b158015610d3357600080fd5b505afa158015610d47573d6000803e3d6000fd5b505050506040513d601f19601f82011682018060405250810190610d6b9190615664565b613222565b600b546040519192506001600160a01b037f00000000000000000000000000000000000000000000000000000000000000001691633c8a7d8d913091600282810b9263010000009004900b908690610dcc908590602001615806565b6040516020818303038152906040526040518663ffffffff1660e01b8152600401610dfb959493929190615835565b6040805180830381600087803b158015610e1457600080fd5b505af1158015610e28573d6000803e3d6000fd5b505050506040513d601f19601f82011682018060405250810190610e4c9190615404565b505050610f80565b600b54600090610e91908390610e7090600290810b900b612e10565b600b54610e8a9063010000009004600290810b900b612e10565b8b8b613222565b600b546040516001600160801b03831696509192506001600160a01b037f00000000000000000000000000000000000000000000000000000000000000001691633c8a7d8d913091600282810b9263010000009004900b908690610ef9903390602001615806565b6040516020818303038152906040526040518663ffffffff1660e01b8152600401610f28959493929190615835565b6040805180830381600087803b158015610f4157600080fd5b505af1158015610f55573d6000803e3d6000fd5b505050506040513d601f19601f82011682018060405250810190610f799190615404565b9096509450505b60008311610fcb5760405162461bcd60e51b815260206004820152601860248201527706d696e7420616d6f756e74206d75737420626520677420360441b60448201526064016107d1565b610fd58383615b64565b60085410156110265760405162461bcd60e51b815260206004820181905260248201527f47656c61746f556e695633506f6f6c2e6d696e743a205f737570706c7943617060448201526064016107d1565b61103033846132db565b7f5a3358a3d27a5373c0df2604662088d37894d56b7cfd27f315770440f4e0d9193384878760405161106594939291906158b7565b60405180910390a1505060016007819055509250925092565b600061108b8484846133a8565b6001600160a01b0384166000908152600160209081526040808320338452909152902054828110156111105760405162461bcd60e51b815260206004820152602860248201527f45524332303a207472616e7366657220616d6f756e74206578636565647320616044820152676c6c6f77616e636560c01b60648201526084016107d1565b611124853361111f8685615d35565b6127ea565b60019150505b9392505050565b600061113b61356e565b905090565b3360008181526001602090815260408083206001600160a01b0387168452909152812054909161077e91859061111f908690615b64565b33611180611e76565b6001600160a01b0316146111a65760405162461bcd60e51b81526004016107d1906159da565b600f54601054601154604080519384526020840187905283019190915260608201849052608082015260a081018290527f5540b38d6cb6d6d043dd47ce11c19b6544ab9bb176b69e66737fe454d1de293a9060c00160405180910390a1600f92909255601055601155565b6000806000600260075414156112395760405162461bcd60e51b81526004016107d190615a69565b60026007558361124857600080fd5b600061125360025490565b905060007f00000000000000000000000000000000000000000000000000000000000000006001600160a01b031663514ea4bf61128e613661565b6040518263ffffffff1660e01b81526004016112ac91815260200190565b60a06040518083038186803b1580156112c457600080fd5b505afa1580156112d8573d6000803e3d6000fd5b505050506040513d601f19601f820116820180604052508101906112fc91906154a5565b50505050905061130c33876136c0565b6000826113226001600160801b03841689615c23565b61132c9190615be0565b90506001600160801b03811061134157600080fd5b600b5460405163a34123a760e01b815291945084916001600160a01b037f0000000000000000000000000000000000000000000000000000000000000000169163a34123a7916113a691600281810b926301000000909204900b908690600401615927565b6040805180830381600087803b1580156113bf57600080fd5b505af11580156113d3573d6000803e3d6000fd5b505050506040513d601f19601f820116820180604052508101906113f79190615404565b6012546040516370a0823160e01b81529298509096506000916001600160a01b037f000000000000000000000000000000000000000000000000000000000000000016906370a082319061144f903090600401615806565b60206040518083038186803b15801561146757600080fd5b505afa15801561147b573d6000803e3d6000fd5b505050506040513d601f19601f8201168201806040525081019061149f9190615664565b6114a99190615d35565b905060006013547f00000000000000000000000000000000000000000000000000000000000000006001600160a01b03166370a08231306040518263ffffffff1660e01b81526004016114fc9190615806565b60206040518083038186803b15801561151457600080fd5b505afa158015611528573d6000803e3d6000fd5b505050506040513d601f19601f8201168201806040525081019061154c9190615664565b6115569190615d35565b9050600085611565848c615c23565b61156f9190615be0565b905060008661157e848d615c23565b6115889190615be0565b90507f00000000000000000000000000000000000000000000000000000000000000006001600160a01b0316634f1eb3d830600b60009054906101000a900460020b600b60039054906101000a900460020b8e8e6040518663ffffffff1660e01b81526004016115fc95949392919061587a565b6040805180830381600087803b15801561161557600080fd5b505af1158015611629573d6000803e3d6000fd5b505050506040513d601f19601f8201168201806040525081019061164d9190615477565b5061165a9050828b615b64565b9950611666818a615b64565b985089156116a2576116a26001600160a01b037f000000000000000000000000000000000000000000000000000000000000000016338c61290f565b88156116dc576116dc6001600160a01b037f000000000000000000000000000000000000000000000000000000000000000016338b61290f565b7f4c60206a5c1de41f3376d1d60f0949d96cb682033c90b1c2d9d9a62d4c4120c0338c8c8c60405161171194939291906158b7565b60405180910390a150506001600755509597949650929450505050565b33611737611e76565b6001600160a01b03161461175d5760405162461bcd60e51b81526004016107d1906159da565b600a5460408051600160301b830463ffffffff90811682528581166020830152600160501b9093046001600160a01b0316818301529183166060830152517f2b5c7193c371e1aaa3d6c68fde18532925ca4e9b1b7f707417ae330e4f8805e4916080908290030190a1600a8054600160301b600160f01b031916600160301b63ffffffff94851602600160501b600160f01b0319161791909216600160501b02179055565b60006118118686868686613222565b90505b95945050505050565b33611826611e76565b6001600160a01b03161461184c5760405162461bcd60e51b81526004016107d1906159da565b600e546040805160ff9092161515825282151560208301527f607fc8228a5b88e4f4c6b4808f62e4d82f8fd14af8fc698d89557ccc49677a48910160405180910390a1600e805460ff1916911515919091179055565b600260075414156118c55760405162461bcd60e51b81526004016107d190615a69565b6002600755336118d3611e76565b6001600160a01b031614806118f757503360009081526014602052604090205460ff165b6119515760405162461bcd60e51b815260206004820152602560248201527f6e6f7420617574686f72697a656420746f2077697468647261772061646d696e604482015264206665657360d81b60648201526084016107d1565b806001600160a01b03167f00000000000000000000000000000000000000000000000000000000000000006001600160a01b031614156119dc57816012600082825461199d9190615d35565b909155506119d790506001600160a01b037f000000000000000000000000000000000000000000000000000000000000000016338461290f565b611a62565b806001600160a01b03167f00000000000000000000000000000000000000000000000000000000000000006001600160a01b03161415611a62578160136000828254611a289190615d35565b90915550611a6290506001600160a01b037f000000000000000000000000000000000000000000000000000000000000000016338461290f565b50506001600755565b600654600160a81b900460ff1680611a8d5750600654600160a01b900460ff16155b611af05760405162461bcd60e51b815260206004820152602e60248201527f496e697469616c697a61626c653a20636f6e747261637420697320616c72656160448201526d191e481a5b9a5d1a585b1a5e995960921b60648201526084016107d1565b600654600160a81b900460ff16158015611b1a576006805461ffff60a01b191661010160a01b1790555b336001600160a01b037f00000000000000000000000000000000000000000000000000000000000000001614611bab5760405162461bcd60e51b815260206004820152603060248201527f47656c61746f556e695633506f6f6c53746f726167652e696e697469616c697a60448201526f329d1037b7363c903232b83637bcb2b960811b60648201526084016107d1565b600886905562015180600955600a80546001600160f01b0319166a050000012c001b580000781790556103e86010819055601155600e805460ff1916841515179055600b8054600287810b62ffffff90811665ffffffffffff199093169290921763010000009188900b9290921602179055600680546001600160a01b0319166001600160a01b0384161790558015610a8e576006805460ff60a81b19169055505050505050565b33611c5c611e76565b6001600160a01b031614611c825760405162461bcd60e51b81526004016107d1906159da565b600a5460408051600283810b810b825285810b60208301526301000000909304830b830b818301529183900b6060830152517f0d1dd86544e40ef0a5bff45622f6aeb3e861bf45eca2a09541c681c406513e799181900360800190a1600a8054600293840b62ffffff90811662ffffff199490950b166301000000029290921665ffffffffffff1990921691909117919091179055565b33611d22611e76565b6001600160a01b031614611d485760405162461bcd60e51b81526004016107d1906159da565b6006546040516000916001600160a01b031690600080516020615e63833981519152908390a3600680546001600160a01b0319169055565b6001600160a01b0381166000908152600560205260408120545b92915050565b33611da9611e76565b6001600160a01b031614611dcf5760405162461bcd60e51b81526004016107d1906159da565b6001600160a01b03811660009081526014602052604090205460ff16611e2d5760405162461bcd60e51b8152602060048201526013602482015272185b1c9958591e48189b1858dadb1a5cdd1959606a1b60448201526064016107d1565b600080516020615ec3833981519152816000604051611e4d92919061581a565b60405180910390a16001600160a01b03166000908152601460205260409020805460ff19169055565b6006546001600160a01b031690565b600080600080611e9460025490565b905060007f00000000000000000000000000000000000000000000000000000000000000006001600160a01b0316633850c7bd6040518163ffffffff1660e01b815260040160e06040518083038186803b158015611ef157600080fd5b505afa158015611f05573d6000803e3d6000fd5b505050506040513d601f19601f82011682018060405250810190611f299190615506565b50505050505090506000821115611f5257611f4681838989612a8d565b91965094509250611fbd565b600b54600090611f6e908390610e7090600290810b900b612e10565b600b546001600160801b0382169550909150611fb6908390611f9690600290810b900b612e10565b600b54611fb09063010000009004600290810b900b612e10565b846137fd565b9096509450505b50509250925092565b3360009081526001602090815260408083206001600160a01b0386168452909152812054828110156120485760405162461bcd60e51b815260206004820152602560248201527f45524332303a2064656372656173656420616c6c6f77616e63652062656c6f77604482015264207a65726f60d81b60648201526084016107d1565b612057338561111f8685615d35565b5060019392505050565b600061077e3384846133a8565b33612077611e76565b6001600160a01b03161461209d5760405162461bcd60e51b81526004016107d1906159da565b6001600160a01b03811660009081526014602052604090205460ff16156120fc5760405162461bcd60e51b8152602060048201526013602482015272185b1c9958591e481dda1a5d195b1a5cdd1959606a1b60448201526064016107d1565b600080516020615ec383398151915281600160405161211c92919061581a565b60405180910390a16001600160a01b03166000908152601460205260409020805460ff19166001179055565b600080612157868686866137fd565b915091505b94509492505050565b336001600160a01b037f0000000000000000000000000000000000000000000000000000000000000000161461219a57600080fd5b60006121a882840184615137565b90506001600160a01b0381163014156122345784156121f5576121f56001600160a01b037f000000000000000000000000000000000000000000000000000000000000000016338761290f565b831561222f5761222f6001600160a01b037f000000000000000000000000000000000000000000000000000000000000000016338661290f565b6122aa565b841561226f5761226f6001600160a01b037f000000000000000000000000000000000000000000000000000000000000000016823388612dd8565b83156122aa576122aa6001600160a01b037f000000000000000000000000000000000000000000000000000000000000000016823387612dd8565b5050505050565b834211156123015760405162461bcd60e51b815260206004820152601d60248201527f45524332305065726d69743a206578706972656420646561646c696e6500000060448201526064016107d1565b60007f000000000000000000000000000000000000000000000000000000000000000088888861234e8c6001600160a01b0316600090815260056020526040902080546001810190915590565b6040805160208101969096526001600160a01b0394851690860152929091166060840152608083015260a082015260c0810186905260e00160405160208183030381529060405280519060200120905060006123a982613899565b905060006123b9828787876138e7565b9050896001600160a01b0316816001600160a01b03161461241c5760405162461bcd60e51b815260206004820152601e60248201527f45524332305065726d69743a20696e76616c6964207369676e6174757265000060448201526064016107d1565b6124278a8a8a6127ea565b50505050505050505050565b600061113b613661565b8181336001600160a01b037f000000000000000000000000000000000000000000000000000000000000000016146124875760405162461bcd60e51b81526004016107d190615960565b612495888888888888613a78565b42600c556040805160028a810b825289900b60208201527fa40d93a72f8af7b904f2e4a60095955bfcaa3c724969f731bd8bc1fda226a171910160405180910390a16001600160a01b03811673eeeeeeeeeeeeeeeeeeeeeeeeeeeeeeeeeeeeeeee14156125345761252f6001600160a01b037f00000000000000000000000000000000000000000000000000000000000000001683612977565b612568565b6125686001600160a01b0382167f00000000000000000000000000000000000000000000000000000000000000008461290f565b5050505050505050565b3361257b611e76565b6001600160a01b0316146125a15760405162461bcd60e51b81526004016107d1906159da565b60085460408051918252602082018390527fccd898f16d5606b9584d88cb9377db147163cafbf1ee39fdd3373cac5acdb0a3910160405180910390a1600855565b336125eb611e76565b6001600160a01b0316146126115760405162461bcd60e51b81526004016107d1906159da565b6001600160a01b0381166126765760405162461bcd60e51b815260206004820152602660248201527f4f776e61626c653a206e6577206f776e657220697320746865207a65726f206160448201526564647265737360d01b60648201526084016107d1565b6006546040516001600160a01b03808416921690600080516020615e6383398151915290600090a3600680546001600160a01b0319166001600160a01b0392909216919091179055565b336126c9611e76565b6001600160a01b0316146126ef5760405162461bcd60e51b81526004016107d1906159da565b60095460408051918252602082018390527fb8ac0cacca9695df3af5d5895e4d904b97f5ffc929f4a362bb22d9d2f3dc0851910160405180910390a1600955565b336001600160a01b037f0000000000000000000000000000000000000000000000000000000000000000161461276557600080fd5b60008413156127a7576127a26001600160a01b037f000000000000000000000000000000000000000000000000000000000000000016338661290f565b6127e4565b60008313156127e4576127e46001600160a01b037f000000000000000000000000000000000000000000000000000000000000000016338561290f565b50505050565b6001600160a01b03831661284c5760405162461bcd60e51b8152602060048201526024808201527f45524332303a20617070726f76652066726f6d20746865207a65726f206164646044820152637265737360e01b60648201526084016107d1565b6001600160a01b0382166128ad5760405162461bcd60e51b815260206004820152602260248201527f45524332303a20617070726f766520746f20746865207a65726f206164647265604482015261737360f01b60648201526084016107d1565b6001600160a01b0383811660008181526001602090815260408083209487168084529482529182902085905590518481527f8c5be1e5ebec7d5bd14f71427d1e84f3dd0314c0f7b2291e5b200ac8c7c3b92591015b60405180910390a3505050565b6040516001600160a01b03831660248201526044810182905261297290849063a9059cbb60e01b906064015b60408051601f198184030181529190526020810180516001600160e01b03166001600160e01b0319909316929092179091526141c7565b505050565b804710156129c75760405162461bcd60e51b815260206004820152601d60248201527f416464726573733a20696e73756666696369656e742062616c616e636500000060448201526064016107d1565b6000826001600160a01b03168260405160006040518083038185875af1925050503d8060008114612a14576040519150601f19603f3d011682016040523d82523d6000602084013e612a19565b606091505b50509050806129725760405162461bcd60e51b815260206004820152603a60248201527f416464726573733a20756e61626c6520746f2073656e642076616c75652c20726044820152791958da5c1a595b9d081b585e481a185d99481c995d995c9d195960321b60648201526084016107d1565b6000806000807f00000000000000000000000000000000000000000000000000000000000000006001600160a01b031663514ea4bf612aca613661565b6040518263ffffffff1660e01b8152600401612ae891815260200190565b60a06040518083038186803b158015612b0057600080fd5b505afa158015612b14573d6000803e3d6000fd5b505050506040513d601f19601f82011682018060405250810190612b3891906154a5565b505050509050600080612b808a612b60600b60009054906101000a900460020b60020b612e10565b600b54612b7a9063010000009004600290810b900b612e10565b866137fd565b915091506012547f00000000000000000000000000000000000000000000000000000000000000006001600160a01b03166370a08231306040518263ffffffff1660e01b8152600401612bd39190615806565b60206040518083038186803b158015612beb57600080fd5b505afa158015612bff573d6000803e3d6000fd5b505050506040513d601f19601f82011682018060405250810190612c239190615664565b612c2d9084615b64565b612c379190615d35565b91506013547f00000000000000000000000000000000000000000000000000000000000000006001600160a01b03166370a08231306040518263ffffffff1660e01b8152600401612c889190615806565b60206040518083038186803b158015612ca057600080fd5b505afa158015612cb4573d6000803e3d6000fd5b505050506040513d601f19601f82011682018060405250810190612cd89190615664565b612ce29083615b64565b612cec9190615d35565b905081158015612cfc5750600081115b15612d1d5780612d0c8a89615c23565b612d169190615be0565b9350612d9d565b80158015612d2b5750600082115b15612d3b5781612d0c8a8a615c23565b6000808311612d4b576000612d60565b82612d568b8b615c23565b612d609190615be0565b90506000808311612d72576000612d87565b82612d7d8c8b615c23565b612d879190615be0565b9050808210612d965780612d98565b815b955050505b88612da88386615c23565b612db29190615be0565b955088612dbf8286615c23565b612dc99190615be0565b94505050509450945094915050565b6040516001600160a01b03808516602483015283166044820152606481018290526127e49085906323b872dd60e01b9060840161293b565b60008060008360020b12612e27578260020b612e34565b8260020b612e3490615dad565b9050612e43620d89e719615d8c565b60020b811115612e795760405162461bcd60e51b81526020600482015260016024820152601560fa1b60448201526064016107d1565b600060018216612e8d57600160801b612e9f565b6ffffcb933bd6fad37aa2d162d1a5940015b6001600160881b031690506002821615612ed4576080612ecf826ffff97272373d413259a46990580e213a615c23565b901c90505b6004821615612efe576080612ef9826ffff2e50f5f656932ef12357cf3c7fdcc615c23565b901c90505b6008821615612f28576080612f23826fffe5caca7e10e4e61c3624eaa0941cd0615c23565b901c90505b6010821615612f52576080612f4d826fffcb9843d60f6159c9db58835c926644615c23565b901c90505b6020821615612f7c576080612f77826fff973b41fa98c081472e6896dfb254c0615c23565b901c90505b6040821615612fa6576080612fa1826fff2ea16466c96a3843ec78b326b52861615c23565b901c90505b6080821615612fd0576080612fcb826ffe5dee046a99a2a811c461f1969c3053615c23565b901c90505b610100821615612ffb576080612ff6826ffcbe86c7900a88aedcffc83b479aa3a4615c23565b901c90505b610200821615613026576080613021826ff987a7253ac413176f2b074cf7815e54615c23565b901c90505b61040082161561305157608061304c826ff3392b0822b70005940c7a398e4b70f3615c23565b901c90505b61080082161561307c576080613077826fe7159475a2c29b7443b29c7fa6e889d9615c23565b901c90505b6110008216156130a75760806130a2826fd097f3bdfd2022b8845ad8f792aa5825615c23565b901c90505b6120008216156130d25760806130cd826fa9f746462d870fdf8a65dc1f90e061e5615c23565b901c90505b6140008216156130fd5760806130f8826f70d869a156d2a1b890bb3df62baf32f7615c23565b901c90505b618000821615613128576080613123826f31be135f97d08fd981231505542fcfa6615c23565b901c90505b6201000082161561315457608061314f826f09aa508b5b7a84e1c677de54f3e99bc9615c23565b901c90505b6202000082161561317f57608061317a826e5d6af8dedb81196699c329225ee604615c23565b901c90505b620400008216156131a95760806131a4826d2216e584f5fa1ea926041bedfe98615c23565b901c90505b620800008216156131d15760806131cc826b048a170391f7dc42444e8fa2615c23565b901c90505b60008460020b13156131ec576131e981600019615be0565b90505b6131fa600160201b82615d78565b15613206576001613209565b60005b61321a9060ff16602083901c615b64565b949350505050565b6000836001600160a01b0316856001600160a01b03161115613242579293925b846001600160a01b0316866001600160a01b0316101561326e57613267858585614299565b9050611814565b836001600160a01b0316866001600160a01b031610156132d0576000613295878686614299565b905060006132a4878986614303565b9050806001600160801b0316826001600160801b0316106132c557806132c7565b815b92505050611814565b611811858584614303565b6001600160a01b0382166133315760405162461bcd60e51b815260206004820152601f60248201527f45524332303a206d696e7420746f20746865207a65726f20616464726573730060448201526064016107d1565b80600260008282546133439190615b64565b90915550506001600160a01b03821660009081526020819052604081208054839290613370908490615b64565b90915550506040518181526001600160a01b03831690600090600080516020615e838339815191529060200160405180910390a35050565b6001600160a01b03831661340c5760405162461bcd60e51b815260206004820152602560248201527f45524332303a207472616e736665722066726f6d20746865207a65726f206164604482015264647265737360d81b60648201526084016107d1565b6001600160a01b03821661346e5760405162461bcd60e51b815260206004820152602360248201527f45524332303a207472616e7366657220746f20746865207a65726f206164647260448201526265737360e81b60648201526084016107d1565b6001600160a01b038316600090815260208190526040902054818110156134e65760405162461bcd60e51b815260206004820152602660248201527f45524332303a207472616e7366657220616d6f756e7420657863656564732062604482015265616c616e636560d01b60648201526084016107d1565b6134f08282615d35565b6001600160a01b038086166000908152602081905260408082209390935590851681529081208054849290613526908490615b64565b92505081905550826001600160a01b0316846001600160a01b0316600080516020615e838339815191528460405161356091815260200190565b60405180910390a350505050565b60007f00000000000000000000000000000000000000000000000000000000000000004614156135bd57507f000000000000000000000000000000000000000000000000000000000000000090565b50604080517f00000000000000000000000000000000000000000000000000000000000000006020808301919091527f0000000000000000000000000000000000000000000000000000000000000000828401527f000000000000000000000000000000000000000000000000000000000000000060608301524660808301523060a0808401919091528351808403909101815260c0909201909252805191012090565b600b546040516001600160601b03193060601b166020820152600282810b810b60e890811b60348401526301000000909304810b900b90911b6037820152600090603a0160405160208183030381529060405280519060200120905090565b6001600160a01b0382166137205760405162461bcd60e51b815260206004820152602160248201527f45524332303a206275726e2066726f6d20746865207a65726f206164647265736044820152607360f81b60648201526084016107d1565b6001600160a01b038216600090815260208190526040902054818110156137945760405162461bcd60e51b815260206004820152602260248201527f45524332303a206275726e20616d6f756e7420657863656564732062616c616e604482015261636560f01b60648201526084016107d1565b61379e8282615d35565b6001600160a01b038416600090815260208190526040812091909155600280548492906137cc908490615d35565b90915550506040518281526000906001600160a01b03851690600080516020615e8383398151915290602001612902565b600080836001600160a01b0316856001600160a01b0316111561381e579293925b846001600160a01b0316866001600160a01b0316101561384a57613843858585614339565b915061215c565b836001600160a01b0316866001600160a01b031610156138835761386f868585614339565b915061387c8587856143a3565b905061215c565b61388e8585856143a3565b905094509492505050565b6000611d9a6138a661356e565b8360405161190160f01b6020820152602281018390526042810182905260009060620160405160208183030381529060405280519060200120905092915050565b60006fa2a8918ca85bafe22016d0b997e4df60600160ff1b0382111561395a5760405162461bcd60e51b815260206004820152602260248201527f45434453413a20696e76616c6964207369676e6174757265202773272076616c604482015261756560f01b60648201526084016107d1565b8360ff16601b148061396f57508360ff16601c145b6139c65760405162461bcd60e51b815260206004820152602260248201527f45434453413a20696e76616c6964207369676e6174757265202776272076616c604482015261756560f01b60648201526084016107d1565b6040805160008082526020820180845288905260ff871692820192909252606081018590526080810184905260019060a0016020604051602081039080840390855afa158015613a1a573d6000803e3d6000fd5b5050604051601f1901519150506001600160a01b0381166118145760405162461bcd60e51b815260206004820152601860248201527745434453413a20696e76616c6964207369676e617475726560401b60448201526064016107d1565b60008060007f00000000000000000000000000000000000000000000000000000000000000006001600160a01b031663514ea4bf613ab4613661565b6040518263ffffffff1660e01b8152600401613ad291815260200190565b60a06040518083038186803b158015613aea57600080fd5b505afa158015613afe573d6000803e3d6000fd5b505050506040513d601f19601f82011682018060405250810190613b2291906154a5565b5050600b54600e54939450600093849350613b569250600282810b9263010000009004900b9086908b908b9060ff166143ed565b915091507f00000000000000000000000000000000000000000000000000000000000000006001600160a01b0316866001600160a01b031614613c40576040516370a0823160e01b815282906001600160a01b037f000000000000000000000000000000000000000000000000000000000000000016906370a0823190613be1903090600401615806565b60206040518083038186803b158015613bf957600080fd5b505afa158015613c0d573d6000803e3d6000fd5b505050506040513d601f19601f82011682018060405250810190613c319190615664565b613c3b9190615d35565b613cf2565b86827f00000000000000000000000000000000000000000000000000000000000000006001600160a01b03166370a08231306040518263ffffffff1660e01b8152600401613c8e9190615806565b60206040518083038186803b158015613ca657600080fd5b505afa158015613cba573d6000803e3d6000fd5b505050506040513d601f19601f82011682018060405250810190613cde9190615664565b613ce89190615d35565b613cf29190615d35565b94507f00000000000000000000000000000000000000000000000000000000000000006001600160a01b0316866001600160a01b031614613dda576040516370a0823160e01b815281906001600160a01b037f000000000000000000000000000000000000000000000000000000000000000016906370a0823190613d7b903090600401615806565b60206040518083038186803b158015613d9357600080fd5b505afa158015613da7573d6000803e3d6000fd5b505050506040513d601f19601f82011682018060405250810190613dcb9190615664565b613dd59190615d35565b613e8c565b86817f00000000000000000000000000000000000000000000000000000000000000006001600160a01b03166370a08231306040518263ffffffff1660e01b8152600401613e289190615806565b60206040518083038186803b158015613e4057600080fd5b505afa158015613e54573d6000803e3d6000fd5b505050506040513d601f19601f82011682018060405250810190613e789190615664565b613e829190615d35565b613e8c9190615d35565b600e5490945060ff16159250613ebe91505057600b5461252f90600281810b9163010000009004900b84848a8a6146a9565b60007f00000000000000000000000000000000000000000000000000000000000000006001600160a01b0316633850c7bd6040518163ffffffff1660e01b815260040160e06040518083038186803b158015613f1957600080fd5b505afa158015613f2d573d6000803e3d6000fd5b505050506040513d601f19601f82011682018060405250810190613f519190615506565b5050505050915050600954600c54613f699190615b64565b42101561400e57600b5463010000009004600290810b810b9082900b1380613f9c5750600b54600290810b810b9082900b125b61400e5760405162461bcd60e51b81526020600482015260496024820152600080516020615ea383398151915260448201527f6f6c3a207072696365207374696c6c20696e2072616e676520616e64206e6f206064820152681a19585c9d1899585d60ba1b608482015260a4016107d1565b600a5461401e9060020b82615c42565b60020b8960020b1315801561404f5750600a54614045906301000000900460020b82615c42565b60020b8960020b12155b6140ac5760405162461bcd60e51b815260206004820152603a6024820152600080516020615ea38339815191526044820152796f6c3a206c6f7765725469636b206f7574206f662072616e676560301b60648201526084016107d1565b600a546140c3906301000000900460020b82615af3565b60020b8860020b131580156140ed5750600a546140e39060020b82615af3565b60020b8860020b12155b61414a5760405162461bcd60e51b815260206004820152603a6024820152600080516020615ea38339815191526044820152796f6c3a2075707065725469636b206f7574206f662072616e676560301b60648201526084016107d1565b600b5460028a810b91810b900b1461417457600b805462ffffff191662ffffff60028c900b161790555b600b54600289810b6301000000909204810b900b146141ae57600b805465ffffff0000001916630100000062ffffff60028c900b16021790555b6141bc898985858b8b6146a9565b505050505050505050565b600061421c826040518060400160405280602081526020017f5361666545524332303a206c6f772d6c6576656c2063616c6c206661696c6564815250856001600160a01b03166148d29092919063ffffffff16565b805190915015612972578080602001905181019061423a919061534c565b6129725760405162461bcd60e51b815260206004820152602a60248201527f5361666545524332303a204552433230206f7065726174696f6e20646964206e6044820152691bdd081cdd58d8d9595960b21b60648201526084016107d1565b6000826001600160a01b0316846001600160a01b031611156142b9579192915b60006142dc856001600160a01b0316856001600160a01b0316600160601b6148e1565b90506118146142fe84836142f08989615d0d565b6001600160a01b03166148e1565b614990565b6000826001600160a01b0316846001600160a01b03161115614323579192915b61321a6142fe83600160601b6142f08888615d0d565b6000826001600160a01b0316846001600160a01b03161115614359579192915b6001600160a01b038416614399600160601b600160e01b03606085901b166143818787615d0d565b6001600160a01b0316866001600160a01b03166148e1565b61321a9190615be0565b6000826001600160a01b0316846001600160a01b031611156143c3579192915b61321a6001600160801b0383166143da8686615d0d565b6001600160a01b0316600160601b6148e1565b6000806000807f00000000000000000000000000000000000000000000000000000000000000006001600160a01b031663a34123a78b8b8b6040518463ffffffff1660e01b815260040161444393929190615927565b6040805180830381600087803b15801561445c57600080fd5b505af1158015614470573d6000803e3d6000fd5b505050506040513d601f19601f820116820180604052508101906144949190615404565b915091506000807f00000000000000000000000000000000000000000000000000000000000000006001600160a01b0316634f1eb3d8308e8e6001600160801b03806040518663ffffffff1660e01b81526004016144f695949392919061587a565b6040805180830381600087803b15801561450f57600080fd5b505af1158015614523573d6000803e3d6000fd5b505050506040513d601f19601f820116820180604052508101906145479190615477565b6001600160801b03918216935016905060006145638584615d35565b905060006145718584615d35565b9050881561462c577f00000000000000000000000000000000000000000000000000000000000000006001600160a01b03168a6001600160a01b031614156145f2578a612710601054846145c59190615c23565b6145cf9190615be0565b10156145ed5760405162461bcd60e51b81526004016107d190615a0f565b61462c565b8a612710601054836146049190615c23565b61460e9190615be0565b101561462c5760405162461bcd60e51b81526004016107d190615a0f565b612710600f548361463d9190615c23565b6146479190615be0565b9750612710600f548261465a9190615c23565b6146649190615be0565b965087601260008282546146789190615b64565b9250508190555086601360008282546146919190615b64565b92505081905550505050505050965096945050505050565b60007f00000000000000000000000000000000000000000000000000000000000000006001600160a01b0316633850c7bd6040518163ffffffff1660e01b815260040160e06040518083038186803b15801561470457600080fd5b505afa158015614718573d6000803e3d6000fd5b505050506040513d601f19601f8201168201806040525081019061473c9190615506565b50505050505090506000851180156147545750600084115b1561486857600061477e8261476b8a60020b612e10565b6147778a60020b612e10565b8989613222565b90506000807f00000000000000000000000000000000000000000000000000000000000000006001600160a01b0316633c8a7d8d308c8c87306040516020016147c79190615806565b6040516020818303038152906040526040518663ffffffff1660e01b81526004016147f6959493929190615835565b6040805180830381600087803b15801561480f57600080fd5b505af1158015614823573d6000803e3d6000fd5b505050506040513d601f19601f820116820180604052508101906148479190615404565b90925090506148568289615d35565b97506148628188615d35565b96505050505b60008511806148775750600084115b156148c95783851161488984826149ab565b6000612710848361489a578761489c565b885b6148a69190615c23565b6148b09190615be0565b90506148c189898989858a88614c84565b909750955050505b50505050505050565b606061321a8484600085614ef2565b60008080600019858709858702925082811083820303915050806000141561491b576000841161491057600080fd5b50829004905061112a565b80841161492757600080fd5b60008486880960026001871981018816978890046003810283188082028403028082028403028082028403028082028403028082028403029081029092039091026000889003889004909101858311909403939093029303949094049190911702949350505050565b806001600160801b03811681146149a657600080fd5b919050565b604080516002808252606082018352600092602083019080368337019050509050600a60069054906101000a900463ffffffff1681600081518110614a0057634e487b7160e01b600052603260045260246000fd5b602002602001019063ffffffff16908163ffffffff1681525050600081600181518110614a3d57634e487b7160e01b600052603260045260246000fd5b63ffffffff9092166020928302919091019091015260405163883bdbfd60e01b81526000906001600160a01b037f0000000000000000000000000000000000000000000000000000000000000000169063883bdbfd90614aa19085906004016158dd565b60006040518083038186803b158015614ab957600080fd5b505afa158015614acd573d6000803e3d6000fd5b505050506040513d6000823e601f3d908101601f19168201604052614af59190810190615266565b5090508051600214614b495760405162461bcd60e51b815260206004820152601f60248201527f756e6578706563746564206c656e677468206f66207469636b2061727261790060448201526064016107d1565b600a548151600091600160301b900463ffffffff169083908390614b7d57634e487b7160e01b600052603260045260246000fd5b602002602001015183600181518110614ba657634e487b7160e01b600052603260045260246000fd5b6020026020010151614bb89190615cc8565b614bc29190615b7c565b90506000614bd28260020b612e10565b905060006064600a8054906101000a90046001600160a01b031683614bf79190615bf4565b614c019190615bba565b90508515614c4957614c138183615d0d565b6001600160a01b0316876001600160a01b03161015614c445760405162461bcd60e51b81526004016107d190615991565b6148c9565b614c538183615b39565b6001600160a01b0316876001600160a01b031611156148c95760405162461bcd60e51b81526004016107d190615991565b604051630251596160e31b81523060048201528115156024820152604481018490526001600160a01b03838116606483015260a06084830152600060a48301819052918291829182917f0000000000000000000000000000000000000000000000000000000000000000169063128acb089060c4016040805180830381600087803b158015614d1257600080fd5b505af1158015614d26573d6000803e3d6000fd5b505050506040513d601f19601f82011682018060405250810190614d4a9190615404565b9092509050614d59828a615c89565b9350614d658189615c89565b925060007f00000000000000000000000000000000000000000000000000000000000000006001600160a01b0316633850c7bd6040518163ffffffff1660e01b815260040160e06040518083038186803b158015614dc257600080fd5b505afa158015614dd6573d6000803e3d6000fd5b505050506040513d601f19601f82011682018060405250810190614dfa9190615506565b50505050505090506000614e1a82614e118f612e10565b6147778f612e10565b90507f00000000000000000000000000000000000000000000000000000000000000006001600160a01b0316633c8a7d8d308f8f8530604051602001614e609190615806565b6040516020818303038152906040526040518663ffffffff1660e01b8152600401614e8f959493929190615835565b6040805180830381600087803b158015614ea857600080fd5b505af1158015614ebc573d6000803e3d6000fd5b505050506040513d601f19601f82011682018060405250810190614ee09190615404565b50505050505097509795505050505050565b606082471015614f535760405162461bcd60e51b815260206004820152602660248201527f416464726573733a20696e73756666696369656e742062616c616e636520666f6044820152651c8818d85b1b60d21b60648201526084016107d1565b843b614fa15760405162461bcd60e51b815260206004820152601d60248201527f416464726573733a2063616c6c20746f206e6f6e2d636f6e747261637400000060448201526064016107d1565b600080866001600160a01b03168587604051614fbd91906157ea565b60006040518083038185875af1925050503d8060008114614ffa576040519150601f19603f3d011682016040523d82523d6000602084013e614fff565b606091505b509150915061500f82828661501a565b979650505050505050565b6060831561502957508161112a565b8251156150395782518084602001fd5b8160405162461bcd60e51b81526004016107d1919061594d565b600082601f830112615063578081fd5b8151602061507861507383615ad0565b615aa0565b80838252828201915082860187848660051b8901011115615097578586fd5b855b858110156150be5781516150ac81615e09565b84529284019290840190600101615099565b5090979650505050505050565b60008083601f8401126150dc578182fd5b5081356001600160401b038111156150f2578182fd5b60208301915083602082850101111561510a57600080fd5b9250929050565b805161ffff811681146149a657600080fd5b803563ffffffff811681146149a657600080fd5b600060208284031215615148578081fd5b813561112a81615e09565b60008060408385031215615165578081fd5b823561517081615e09565b9150602083013561518081615e09565b809150509250929050565b60008060006060848603121561519f578081fd5b83356151aa81615e09565b925060208401356151ba81615e09565b929592945050506040919091013590565b600080600080600080600060e0888a0312156151e5578485fd5b87356151f081615e09565b9650602088013561520081615e09565b95506040880135945060608801359350608088013561521e81615e53565b9699959850939692959460a0840135945060c09093013592915050565b6000806040838503121561524d578182fd5b823561525881615e09565b946020939093013593505050565b60008060408385031215615278578182fd5b82516001600160401b038082111561528e578384fd5b818501915085601f8301126152a1578384fd5b815160206152b161507383615ad0565b8083825282820191508286018a848660051b89010111156152d0578889fd5b8896505b848710156153005780518060060b81146152ec57898afd5b8352600196909601959183019183016152d4565b5091880151919650909350505080821115615319578283fd5b5061532685828601615053565b9150509250929050565b600060208284031215615341578081fd5b813561112a81615e21565b60006020828403121561535d578081fd5b815161112a81615e21565b6000806040838503121561537a578182fd5b823561538581615e2f565b9150602083013561518081615e2f565b60008060008060008060c087890312156153ad578384fd5b86356153b881615e2f565b955060208701356153c881615e2f565b945060408701356153d881615e09565b9350606087013592506080870135915060a08701356153f681615e09565b809150509295509295509295565b60008060408385031215615416578182fd5b505080516020909101519092909150565b6000806000806060858703121561543c578182fd5b843593506020850135925060408501356001600160401b0381111561545f578283fd5b61546b878288016150cb565b95989497509550505050565b60008060408385031215615489578182fd5b825161549481615e3e565b602084015190925061518081615e3e565b600080600080600060a086880312156154bc578283fd5b85516154c781615e3e565b80955050602086015193506040860151925060608601516154e781615e3e565b60808701519092506154f881615e3e565b809150509295509295909350565b600080600080600080600060e0888a031215615520578081fd5b875161552b81615e09565b602089015190975061553c81615e2f565b955061554a60408901615111565b945061555860608901615111565b935061556660808901615111565b925060a088015161557681615e53565b60c089015190925061558781615e21565b8091505092959891949750929550565b600080600080608085870312156155ac578182fd5b84356155b781615e09565b935060208501356155c781615e09565b925060408501356155d781615e09565b915060608501356155e781615e3e565b939692955090935050565b600080600080600060a08688031215615609578283fd5b853561561481615e09565b9450602086013561562481615e09565b9350604086013561563481615e09565b94979396509394606081013594506080013592915050565b60006020828403121561565d578081fd5b5035919050565b600060208284031215615675578081fd5b5051919050565b6000806040838503121561568e578182fd5b82359150602083013561518081615e09565b600080600080608085870312156156b5578182fd5b8435935060208501356156c781615e09565b925060408501356156d781615e09565b9396929550929360600135925050565b600080600080600060a086880312156156fe578283fd5b85359450602086013561571081615e2f565b9350604086013561572081615e2f565b9250606086013561573081615e21565b915060808601356154f881615e09565b60008060408385031215615752578182fd5b50508035926020909101359150565b600080600060608486031215615775578081fd5b505081359360208301359350604090920135919050565b6000806040838503121561579e578182fd5b6157a783615123565b91506157b560208401615123565b90509250929050565b600081518084526157d6816020860160208601615d4c565b601f01601f19169290920160200192915050565b600082516157fc818460208701615d4c565b9190910192915050565b6001600160a01b0391909116815260200190565b6001600160a01b039290921682521515602082015260400190565b6001600160a01b0386168152600285810b602083015284900b60408201526001600160801b038316606082015260a06080820181905260009061500f908301846157be565b6001600160a01b03959095168552600293840b60208601529190920b60408401526001600160801b03918216606084015216608082015260a00190565b6001600160a01b0394909416845260208401929092526040830152606082015260800190565b6020808252825182820181905260009190848201906040850190845b8181101561591b57835163ffffffff16835292840192918401916001016158f9565b50909695505050505050565b600293840b81529190920b60208201526001600160801b03909116604082015260600190565b60208152600061112a60208301846157be565b60208082526017908201527647656c61746f666965643a204f6e6c792067656c61746f60481b604082015260600190565b60208082526029908201527f736c697070616765207072696365206973206f7574206f662061636365707461604082015268626c652072616e676560b81b606082015260800190565b6020808252818101527f4f776e61626c653a2063616c6c6572206973206e6f7420746865206f776e6572604082015260600190565b6020808252603a908201527f63616e6e6f7420726562616c616e63653a2074782066656520697320746f6f206040820152791b185c99d948199bdc88199959481c995a5b9d995cdd1b595b9d60321b606082015260800190565b6020808252601f908201527f5265656e7472616e637947756172643a207265656e7472616e742063616c6c00604082015260600190565b604051601f8201601f191681016001600160401b0381118282101715615ac857615ac8615df3565b604052919050565b60006001600160401b03821115615ae957615ae9615df3565b5060051b60200190565b60008160020b8360020b82821282627fffff03821381151615615b1857615b18615dc7565b82627fffff19038212811615615b3057615b30615dc7565b50019392505050565b60006001600160a01b03828116848216808303821115615b5b57615b5b615dc7565b01949350505050565b60008219821115615b7757615b77615dc7565b500190565b60008160060b8360060b80615b9357615b93615ddd565b667fffffffffffff19821460001982141615615bb157615bb1615dc7565b90059392505050565b60006001600160a01b0383811680615bd457615bd4615ddd565b92169190910492915050565b600082615bef57615bef615ddd565b500490565b60006001600160a01b0382811684821681151582840482111615615c1a57615c1a615dc7565b02949350505050565b6000816000190483118215151615615c3d57615c3d615dc7565b500290565b60008160020b8360020b82811281627fffff1901831281151615615c6857615c68615dc7565b81627fffff018313811615615c7f57615c7f615dc7565b5090039392505050565b60008083128015600160ff1b850184121615615ca757615ca7615dc7565b6001600160ff1b0384018313811615615cc257615cc2615dc7565b50500390565b60008160060b8360060b82811281667fffffffffffff1901831281151615615cf257615cf2615dc7565b81667fffffffffffff018313811615615c7f57615c7f615dc7565b60006001600160a01b0383811690831681811015615d2d57615d2d615dc7565b039392505050565b600082821015615d4757615d47615dc7565b500390565b60005b83811015615d67578181015183820152602001615d4f565b838111156127e45750506000910152565b600082615d8757615d87615ddd565b500690565b60008160020b627fffff19811415615da657615da6615dc7565b9003919050565b6000600160ff1b821415615dc357615dc3615dc7565b0390565b634e487b7160e01b600052601160045260246000fd5b634e487b7160e01b600052601260045260246000fd5b634e487b7160e01b600052604160045260246000fd5b6001600160a01b0381168114615e1e57600080fd5b50565b8015158114615e1e57600080fd5b8060020b8114615e1e57600080fd5b6001600160801b0381168114615e1e57600080fd5b60ff81168114615e1e57600080fdfe8be0079c531659141344cd1fd0a4f28419497f9722a3daafe3b4186f6b6457e0ddf252ad1be2c89b69c2b068fc378daa952ba7f163c4a11628f55a4df523b3ef47656c61746f556e695633506f6f6c2e5f61646a75737443757272656e74506fdf3f3e113a639491d6dfd73b2c3239d29d3e55d3f8585be097a9272c871d3b3da2646970667358221220db851ee3b3c9c7774317f05866500f0ed7253535a6eee839469151af4f02a4bb64736f6c63430008040033",
  "devdoc": {
    "details": "DO NOT ADD STATE VARIABLES - APPEND THEM TO GelatoUniV3PoolStorageDO NOT ADD BASE CONTRACTS WITH STATE VARS - APPEND THEM TO GelatoUniV3PoolStorage",
    "kind": "dev",
    "methods": {
      "DOMAIN_SEPARATOR()": {
        "details": "See {IERC20Permit-DOMAIN_SEPARATOR}."
      },
      "allowance(address,address)": {
        "details": "See {IERC20-allowance}."
      },
      "approve(address,uint256)": {
        "details": "See {IERC20-approve}. Requirements: - `spender` cannot be the zero address."
      },
      "balanceOf(address)": {
        "details": "See {IERC20-balanceOf}."
      },
      "decimals()": {
        "details": "Returns the number of decimals used to get its user representation. For example, if `decimals` equals `2`, a balance of `505` tokens should be displayed to a user as `5,05` (`505 / 10 ** 2`). Tokens usually opt for a value of 18, imitating the relationship between Ether and Wei. This is the value {ERC20} uses, unless this function is overridden; NOTE: This information is only used for _display_ purposes: it in no way affects any of the arithmetic of the contract, including {IERC20-balanceOf} and {IERC20-transfer}."
      },
      "decreaseAllowance(address,uint256)": {
        "details": "Atomically decreases the allowance granted to `spender` by the caller. This is an alternative to {approve} that can be used as a mitigation for problems described in {IERC20-approve}. Emits an {Approval} event indicating the updated allowance. Requirements: - `spender` cannot be the zero address. - `spender` must have allowance for the caller of at least `subtractedValue`."
      },
      "increaseAllowance(address,uint256)": {
        "details": "Atomically increases the allowance granted to `spender` by the caller. This is an alternative to {approve} that can be used as a mitigation for problems described in {IERC20-approve}. Emits an {Approval} event indicating the updated allowance. Requirements: - `spender` cannot be the zero address."
      },
      "name()": {
        "details": "Returns the name of the token."
      },
      "nonces(address)": {
        "details": "See {IERC20Permit-nonces}."
      },
      "owner()": {
        "details": "Returns the address of the current owner."
      },
      "permit(address,address,uint256,uint256,uint8,bytes32,bytes32)": {
        "details": "See {IERC20Permit-permit}."
      },
      "renounceOwnership()": {
        "details": "Leaves the contract without owner. It will not be possible to call `onlyOwner` functions anymore. Can only be called by the current owner. NOTE: Renouncing ownership will leave the contract without an owner, thereby removing any functionality that is only available to the owner."
      },
      "symbol()": {
        "details": "Returns the symbol of the token, usually a shorter version of the name."
      },
      "totalSupply()": {
        "details": "See {IERC20-totalSupply}."
      },
      "transfer(address,uint256)": {
        "details": "See {IERC20-transfer}. Requirements: - `recipient` cannot be the zero address. - the caller must have a balance of at least `amount`."
      },
      "transferFrom(address,address,uint256)": {
        "details": "See {IERC20-transferFrom}. Emits an {Approval} event indicating the updated allowance. This is not required by the EIP. See the note at the beginning of {ERC20}. Requirements: - `sender` and `recipient` cannot be the zero address. - `sender` must have a balance of at least `amount`. - the caller must have allowance for ``sender``'s tokens of at least `amount`."
      },
      "transferOwnership(address)": {
        "details": "Transfers ownership of the contract to a new account (`newOwner`). Can only be called by the current owner."
      }
    },
    "version": 1
  },
  "userdoc": {
    "kind": "user",
    "methods": {},
    "version": 1
  },
  "storageLayout": {
    "storage": [
      {
        "astId": 101,
        "contract": "contracts/GelatoUniV3Pool.sol:GelatoUniV3Pool",
        "label": "_balances",
        "offset": 0,
        "slot": "0",
        "type": "t_mapping(t_address,t_uint256)"
      },
      {
        "astId": 107,
        "contract": "contracts/GelatoUniV3Pool.sol:GelatoUniV3Pool",
        "label": "_allowances",
        "offset": 0,
        "slot": "1",
        "type": "t_mapping(t_address,t_mapping(t_address,t_uint256))"
      },
      {
        "astId": 109,
        "contract": "contracts/GelatoUniV3Pool.sol:GelatoUniV3Pool",
        "label": "_totalSupply",
        "offset": 0,
        "slot": "2",
        "type": "t_uint256"
      },
      {
        "astId": 111,
        "contract": "contracts/GelatoUniV3Pool.sol:GelatoUniV3Pool",
        "label": "_name",
        "offset": 0,
        "slot": "3",
        "type": "t_string_storage"
      },
      {
        "astId": 113,
        "contract": "contracts/GelatoUniV3Pool.sol:GelatoUniV3Pool",
        "label": "_symbol",
        "offset": 0,
        "slot": "4",
        "type": "t_string_storage"
      },
      {
        "astId": 718,
        "contract": "contracts/GelatoUniV3Pool.sol:GelatoUniV3Pool",
        "label": "_nonces",
        "offset": 0,
        "slot": "5",
        "type": "t_mapping(t_address,t_struct(Counter)1449_storage)"
      },
      {
        "astId": 4871,
        "contract": "contracts/GelatoUniV3Pool.sol:GelatoUniV3Pool",
        "label": "_owner",
        "offset": 0,
        "slot": "6",
        "type": "t_address"
      },
      {
        "astId": 5,
        "contract": "contracts/GelatoUniV3Pool.sol:GelatoUniV3Pool",
        "label": "_initialized",
        "offset": 20,
        "slot": "6",
        "type": "t_bool"
      },
      {
        "astId": 8,
        "contract": "contracts/GelatoUniV3Pool.sol:GelatoUniV3Pool",
        "label": "_initializing",
        "offset": 21,
        "slot": "6",
        "type": "t_bool"
      },
      {
        "astId": 56,
        "contract": "contracts/GelatoUniV3Pool.sol:GelatoUniV3Pool",
        "label": "_status",
        "offset": 0,
        "slot": "7",
        "type": "t_uint256"
      },
      {
        "astId": 4292,
        "contract": "contracts/GelatoUniV3Pool.sol:GelatoUniV3Pool",
        "label": "_supplyCap",
        "offset": 0,
        "slot": "8",
        "type": "t_uint256"
      },
      {
        "astId": 4294,
        "contract": "contracts/GelatoUniV3Pool.sol:GelatoUniV3Pool",
        "label": "_heartbeat",
        "offset": 0,
        "slot": "9",
        "type": "t_uint256"
      },
      {
        "astId": 4296,
        "contract": "contracts/GelatoUniV3Pool.sol:GelatoUniV3Pool",
        "label": "_minTickDeviation",
        "offset": 0,
        "slot": "10",
        "type": "t_int24"
      },
      {
        "astId": 4298,
        "contract": "contracts/GelatoUniV3Pool.sol:GelatoUniV3Pool",
        "label": "_maxTickDeviation",
        "offset": 3,
        "slot": "10",
        "type": "t_int24"
      },
      {
        "astId": 4300,
        "contract": "contracts/GelatoUniV3Pool.sol:GelatoUniV3Pool",
        "label": "_observationSeconds",
        "offset": 6,
        "slot": "10",
        "type": "t_uint32"
      },
      {
        "astId": 4302,
        "contract": "contracts/GelatoUniV3Pool.sol:GelatoUniV3Pool",
        "label": "_maxSlippagePercentage",
        "offset": 10,
        "slot": "10",
        "type": "t_uint160"
      },
      {
        "astId": 4304,
        "contract": "contracts/GelatoUniV3Pool.sol:GelatoUniV3Pool",
        "label": "_currentLowerTick",
        "offset": 0,
        "slot": "11",
        "type": "t_int24"
      },
      {
        "astId": 4306,
        "contract": "contracts/GelatoUniV3Pool.sol:GelatoUniV3Pool",
        "label": "_currentUpperTick",
        "offset": 3,
        "slot": "11",
        "type": "t_int24"
      },
      {
        "astId": 4308,
        "contract": "contracts/GelatoUniV3Pool.sol:GelatoUniV3Pool",
        "label": "_lastRebalanceTimestamp",
        "offset": 0,
        "slot": "12",
        "type": "t_uint256"
      },
      {
        "astId": 4310,
        "contract": "contracts/GelatoUniV3Pool.sol:GelatoUniV3Pool",
        "label": "_lastMintOrBurnTimestamp",
        "offset": 0,
        "slot": "13",
        "type": "t_uint256"
      },
      {
        "astId": 4313,
        "contract": "contracts/GelatoUniV3Pool.sol:GelatoUniV3Pool",
        "label": "_disableChangeTicks",
        "offset": 0,
        "slot": "14",
        "type": "t_bool"
      },
      {
        "astId": 4315,
        "contract": "contracts/GelatoUniV3Pool.sol:GelatoUniV3Pool",
        "label": "_adminFeeBPS",
        "offset": 0,
        "slot": "15",
        "type": "t_uint256"
      },
      {
        "astId": 4317,
        "contract": "contracts/GelatoUniV3Pool.sol:GelatoUniV3Pool",
        "label": "_maxRebalanceFeeBPS",
        "offset": 0,
        "slot": "16",
        "type": "t_uint256"
      },
      {
        "astId": 4319,
        "contract": "contracts/GelatoUniV3Pool.sol:GelatoUniV3Pool",
        "label": "_maxWithdrawFeeBPS",
        "offset": 0,
        "slot": "17",
        "type": "t_uint256"
      },
      {
        "astId": 4321,
        "contract": "contracts/GelatoUniV3Pool.sol:GelatoUniV3Pool",
        "label": "_adminBalanceToken0",
        "offset": 0,
        "slot": "18",
        "type": "t_uint256"
      },
      {
        "astId": 4323,
        "contract": "contracts/GelatoUniV3Pool.sol:GelatoUniV3Pool",
        "label": "_adminBalanceToken1",
        "offset": 0,
        "slot": "19",
        "type": "t_uint256"
      },
      {
        "astId": 4327,
        "contract": "contracts/GelatoUniV3Pool.sol:GelatoUniV3Pool",
        "label": "_adminWhitelistedTreasury",
        "offset": 0,
        "slot": "20",
        "type": "t_mapping(t_address,t_bool)"
      }
    ],
    "types": {
      "t_address": {
        "encoding": "inplace",
        "label": "address",
        "numberOfBytes": "20"
      },
      "t_bool": {
        "encoding": "inplace",
        "label": "bool",
        "numberOfBytes": "1"
      },
      "t_int24": {
        "encoding": "inplace",
        "label": "int24",
        "numberOfBytes": "3"
      },
      "t_mapping(t_address,t_bool)": {
        "encoding": "mapping",
        "key": "t_address",
        "label": "mapping(address => bool)",
        "numberOfBytes": "32",
        "value": "t_bool"
      },
      "t_mapping(t_address,t_mapping(t_address,t_uint256))": {
        "encoding": "mapping",
        "key": "t_address",
        "label": "mapping(address => mapping(address => uint256))",
        "numberOfBytes": "32",
        "value": "t_mapping(t_address,t_uint256)"
      },
      "t_mapping(t_address,t_struct(Counter)1449_storage)": {
        "encoding": "mapping",
        "key": "t_address",
        "label": "mapping(address => struct Counters.Counter)",
        "numberOfBytes": "32",
        "value": "t_struct(Counter)1449_storage"
      },
      "t_mapping(t_address,t_uint256)": {
        "encoding": "mapping",
        "key": "t_address",
        "label": "mapping(address => uint256)",
        "numberOfBytes": "32",
        "value": "t_uint256"
      },
      "t_string_storage": {
        "encoding": "bytes",
        "label": "string",
        "numberOfBytes": "32"
      },
      "t_struct(Counter)1449_storage": {
        "encoding": "inplace",
        "label": "struct Counters.Counter",
        "members": [
          {
            "astId": 1448,
            "contract": "contracts/GelatoUniV3Pool.sol:GelatoUniV3Pool",
            "label": "_value",
            "offset": 0,
            "slot": "0",
            "type": "t_uint256"
          }
        ],
        "numberOfBytes": "32"
      },
      "t_uint160": {
        "encoding": "inplace",
        "label": "uint160",
        "numberOfBytes": "20"
      },
      "t_uint256": {
        "encoding": "inplace",
        "label": "uint256",
        "numberOfBytes": "32"
      },
      "t_uint32": {
        "encoding": "inplace",
        "label": "uint32",
        "numberOfBytes": "4"
      }
    }
  }
}