{
  "address": "0x04C198C8bAfc84AbB887fb1Fed47551a9EE23845",
  "abi": [
    {
      "inputs": [
        {
          "internalType": "address payable",
          "name": "_gelato",
          "type": "address"
        }
      ],
      "stateMutability": "nonpayable",
      "type": "constructor"
    },
    {
      "anonymous": false,
      "inputs": [
        {
          "indexed": true,
          "internalType": "address",
          "name": "owner",
          "type": "address"
        },
        {
          "indexed": true,
          "internalType": "address",
          "name": "spender",
          "type": "address"
        },
        {
          "indexed": false,
          "internalType": "uint256",
          "name": "value",
          "type": "uint256"
        }
      ],
      "name": "Approval",
      "type": "event"
    },
    {
      "anonymous": false,
      "inputs": [
        {
          "indexed": false,
          "internalType": "address",
          "name": "receiver",
          "type": "address"
        },
        {
          "indexed": false,
          "internalType": "uint256",
          "name": "burnAmount",
          "type": "uint256"
        },
        {
          "indexed": false,
          "internalType": "uint256",
          "name": "amount0Out",
          "type": "uint256"
        },
        {
          "indexed": false,
          "internalType": "uint256",
          "name": "amount1Out",
          "type": "uint256"
        },
        {
          "indexed": false,
          "internalType": "uint128",
          "name": "liquidityBurned",
          "type": "uint128"
        }
      ],
      "name": "Burned",
      "type": "event"
    },
    {
      "anonymous": false,
      "inputs": [
        {
          "indexed": false,
          "internalType": "address",
          "name": "receiver",
          "type": "address"
        },
        {
          "indexed": false,
          "internalType": "uint256",
          "name": "mintAmount",
          "type": "uint256"
        },
        {
          "indexed": false,
          "internalType": "uint256",
          "name": "amount0In",
          "type": "uint256"
        },
        {
          "indexed": false,
          "internalType": "uint256",
          "name": "amount1In",
          "type": "uint256"
        },
        {
          "indexed": false,
          "internalType": "uint128",
          "name": "liquidityMinted",
          "type": "uint128"
        }
      ],
      "name": "Minted",
      "type": "event"
    },
    {
      "anonymous": false,
      "inputs": [
        {
          "indexed": true,
          "internalType": "address",
          "name": "previousManager",
          "type": "address"
        },
        {
          "indexed": true,
          "internalType": "address",
          "name": "newManager",
          "type": "address"
        }
      ],
      "name": "OwnershipTransferred",
      "type": "event"
    },
    {
      "anonymous": false,
      "inputs": [
        {
          "indexed": false,
          "internalType": "int24",
          "name": "lowerTick_",
          "type": "int24"
        },
        {
          "indexed": false,
          "internalType": "int24",
          "name": "upperTick_",
          "type": "int24"
        }
      ],
      "name": "Rebalance",
      "type": "event"
    },
    {
      "anonymous": false,
      "inputs": [
        {
          "indexed": true,
          "internalType": "address",
          "name": "from",
          "type": "address"
        },
        {
          "indexed": true,
          "internalType": "address",
          "name": "to",
          "type": "address"
        },
        {
          "indexed": false,
          "internalType": "uint256",
          "name": "value",
          "type": "uint256"
        }
      ],
      "name": "Transfer",
      "type": "event"
    },
    {
      "anonymous": false,
      "inputs": [
        {
          "indexed": false,
          "internalType": "address",
          "name": "oldAdminTreasury",
          "type": "address"
        },
        {
          "indexed": false,
          "internalType": "address",
          "name": "newAdminTreasury",
          "type": "address"
        }
      ],
      "name": "UpdateAdminTreasury",
      "type": "event"
    },
    {
      "anonymous": false,
      "inputs": [
        {
          "indexed": false,
          "internalType": "uint16",
          "name": "gelatoRebalanceBPS",
          "type": "uint16"
        },
        {
          "indexed": false,
          "internalType": "uint16",
          "name": "gelatoWithdrawBPS",
          "type": "uint16"
        },
        {
          "indexed": false,
          "internalType": "uint16",
          "name": "gelatoSlippageBPS",
          "type": "uint16"
        },
        {
          "indexed": false,
          "internalType": "uint32",
          "name": "gelatoSlippageInterval",
          "type": "uint32"
        }
      ],
      "name": "UpdateGelatoParams",
      "type": "event"
    },
    {
      "inputs": [],
      "name": "GELATO",
      "outputs": [
        {
          "internalType": "address payable",
          "name": "",
          "type": "address"
        }
      ],
      "stateMutability": "view",
      "type": "function"
    },
    {
      "inputs": [
        {
          "internalType": "address",
          "name": "owner",
          "type": "address"
        },
        {
          "internalType": "address",
          "name": "spender",
          "type": "address"
        }
      ],
      "name": "allowance",
      "outputs": [
        {
          "internalType": "uint256",
          "name": "",
          "type": "uint256"
        }
      ],
      "stateMutability": "view",
      "type": "function"
    },
    {
      "inputs": [
        {
          "internalType": "address",
          "name": "spender",
          "type": "address"
        },
        {
          "internalType": "uint256",
          "name": "amount",
          "type": "uint256"
        }
      ],
      "name": "approve",
      "outputs": [
        {
          "internalType": "bool",
          "name": "",
          "type": "bool"
        }
      ],
      "stateMutability": "nonpayable",
      "type": "function"
    },
    {
      "inputs": [
        {
          "internalType": "address",
          "name": "account",
          "type": "address"
        }
      ],
      "name": "balanceOf",
      "outputs": [
        {
          "internalType": "uint256",
          "name": "",
          "type": "uint256"
        }
      ],
      "stateMutability": "view",
      "type": "function"
    },
    {
      "inputs": [
        {
          "internalType": "uint256",
          "name": "burnAmount",
          "type": "uint256"
        },
        {
          "internalType": "address",
          "name": "receiver",
          "type": "address"
        }
      ],
      "name": "burn",
      "outputs": [
        {
          "internalType": "uint256",
          "name": "amount0",
          "type": "uint256"
        },
        {
          "internalType": "uint256",
          "name": "amount1",
          "type": "uint256"
        },
        {
          "internalType": "uint128",
          "name": "liquidityBurned",
          "type": "uint128"
        }
      ],
      "stateMutability": "nonpayable",
      "type": "function"
    },
    {
      "inputs": [],
      "name": "decimals",
      "outputs": [
        {
          "internalType": "uint8",
          "name": "",
          "type": "uint8"
        }
      ],
      "stateMutability": "view",
      "type": "function"
    },
    {
      "inputs": [
        {
          "internalType": "address",
          "name": "spender",
          "type": "address"
        },
        {
          "internalType": "uint256",
          "name": "subtractedValue",
          "type": "uint256"
        }
      ],
      "name": "decreaseAllowance",
      "outputs": [
        {
          "internalType": "bool",
          "name": "",
          "type": "bool"
        }
      ],
      "stateMutability": "nonpayable",
      "type": "function"
    },
    {
      "inputs": [
        {
          "internalType": "int24",
          "name": "newLowerTick",
          "type": "int24"
        },
        {
          "internalType": "int24",
          "name": "newUpperTick",
          "type": "int24"
        },
        {
          "internalType": "uint160",
          "name": "swapThresholdPrice",
          "type": "uint160"
        },
        {
          "internalType": "uint256",
          "name": "swapAmountBPS",
          "type": "uint256"
        }
      ],
      "name": "executiveRebalance",
      "outputs": [],
      "stateMutability": "nonpayable",
      "type": "function"
    },
    {
      "inputs": [],
      "name": "gelatoBalance0",
      "outputs": [
        {
          "internalType": "uint256",
          "name": "",
          "type": "uint256"
        }
      ],
      "stateMutability": "view",
      "type": "function"
    },
    {
      "inputs": [],
      "name": "gelatoBalance1",
      "outputs": [
        {
          "internalType": "uint256",
          "name": "",
          "type": "uint256"
        }
      ],
      "stateMutability": "view",
      "type": "function"
    },
    {
      "inputs": [],
      "name": "gelatoFeeBPS",
      "outputs": [
        {
          "internalType": "uint16",
          "name": "",
          "type": "uint16"
        }
      ],
      "stateMutability": "view",
      "type": "function"
    },
    {
      "inputs": [],
      "name": "gelatoRebalanceBPS",
      "outputs": [
        {
          "internalType": "uint16",
          "name": "",
          "type": "uint16"
        }
      ],
      "stateMutability": "view",
      "type": "function"
    },
    {
      "inputs": [],
      "name": "gelatoSlippageBPS",
      "outputs": [
        {
          "internalType": "uint16",
          "name": "",
          "type": "uint16"
        }
      ],
      "stateMutability": "view",
      "type": "function"
    },
    {
      "inputs": [],
      "name": "gelatoSlippageInterval",
      "outputs": [
        {
          "internalType": "uint32",
          "name": "",
          "type": "uint32"
        }
      ],
      "stateMutability": "view",
      "type": "function"
    },
    {
      "inputs": [],
      "name": "gelatoWithdrawBPS",
      "outputs": [
        {
          "internalType": "uint16",
          "name": "",
          "type": "uint16"
        }
      ],
      "stateMutability": "view",
      "type": "function"
    },
    {
      "inputs": [
        {
          "internalType": "uint256",
          "name": "amount0Max",
          "type": "uint256"
        },
        {
          "internalType": "uint256",
          "name": "amount1Max",
          "type": "uint256"
        }
      ],
      "name": "getMintAmounts",
      "outputs": [
        {
          "internalType": "uint256",
          "name": "amount0",
          "type": "uint256"
        },
        {
          "internalType": "uint256",
          "name": "amount1",
          "type": "uint256"
        },
        {
          "internalType": "uint256",
          "name": "mintAmount",
          "type": "uint256"
        }
      ],
      "stateMutability": "view",
      "type": "function"
    },
    {
      "inputs": [],
      "name": "getPositionID",
      "outputs": [
        {
          "internalType": "bytes32",
          "name": "positionID",
          "type": "bytes32"
        }
      ],
      "stateMutability": "view",
      "type": "function"
    },
    {
      "inputs": [],
      "name": "getUnderlyingBalances",
      "outputs": [
        {
          "internalType": "uint256",
          "name": "amount0Current",
          "type": "uint256"
        },
        {
          "internalType": "uint256",
          "name": "amount1Current",
          "type": "uint256"
        }
      ],
      "stateMutability": "view",
      "type": "function"
    },
    {
      "inputs": [
        {
          "internalType": "address",
          "name": "spender",
          "type": "address"
        },
        {
          "internalType": "uint256",
          "name": "addedValue",
          "type": "uint256"
        }
      ],
      "name": "increaseAllowance",
      "outputs": [
        {
          "internalType": "bool",
          "name": "",
          "type": "bool"
        }
      ],
      "stateMutability": "nonpayable",
      "type": "function"
    },
    {
      "inputs": [
        {
          "internalType": "string",
          "name": "_name",
          "type": "string"
        },
        {
          "internalType": "string",
          "name": "_symbol",
          "type": "string"
        },
        {
          "internalType": "address",
          "name": "_pool",
          "type": "address"
        },
        {
          "internalType": "uint16",
          "name": "_managerFeeBPS",
          "type": "uint16"
        },
        {
          "internalType": "int24",
          "name": "_lowerTick",
          "type": "int24"
        },
        {
          "internalType": "int24",
          "name": "_upperTick",
          "type": "int24"
        },
        {
          "internalType": "address",
          "name": "_manager_",
          "type": "address"
        }
      ],
      "name": "initialize",
      "outputs": [],
      "stateMutability": "nonpayable",
      "type": "function"
    },
    {
      "inputs": [
        {
          "internalType": "uint16",
          "name": "_managerFeeBPS",
          "type": "uint16"
        }
      ],
      "name": "initializeManagerFee",
      "outputs": [],
      "stateMutability": "nonpayable",
      "type": "function"
    },
    {
      "inputs": [],
      "name": "lowerTick",
      "outputs": [
        {
          "internalType": "int24",
          "name": "",
          "type": "int24"
        }
      ],
      "stateMutability": "view",
      "type": "function"
    },
    {
      "inputs": [],
      "name": "manager",
      "outputs": [
        {
          "internalType": "address",
          "name": "",
          "type": "address"
        }
      ],
      "stateMutability": "view",
      "type": "function"
    },
    {
      "inputs": [],
      "name": "managerBalance0",
      "outputs": [
        {
          "internalType": "uint256",
          "name": "",
          "type": "uint256"
        }
      ],
      "stateMutability": "view",
      "type": "function"
    },
    {
      "inputs": [],
      "name": "managerBalance1",
      "outputs": [
        {
          "internalType": "uint256",
          "name": "",
          "type": "uint256"
        }
      ],
      "stateMutability": "view",
      "type": "function"
    },
    {
      "inputs": [],
      "name": "managerFeeBPS",
      "outputs": [
        {
          "internalType": "uint16",
          "name": "",
          "type": "uint16"
        }
      ],
      "stateMutability": "view",
      "type": "function"
    },
    {
      "inputs": [],
      "name": "managerTreasury",
      "outputs": [
        {
          "internalType": "address",
          "name": "",
          "type": "address"
        }
      ],
      "stateMutability": "view",
      "type": "function"
    },
    {
      "inputs": [
        {
          "internalType": "uint256",
          "name": "mintAmount",
          "type": "uint256"
        },
        {
          "internalType": "address",
          "name": "receiver",
          "type": "address"
        }
      ],
      "name": "mint",
      "outputs": [
        {
          "internalType": "uint256",
          "name": "amount0",
          "type": "uint256"
        },
        {
          "internalType": "uint256",
          "name": "amount1",
          "type": "uint256"
        },
        {
          "internalType": "uint128",
          "name": "liquidityMinted",
          "type": "uint128"
        }
      ],
      "stateMutability": "nonpayable",
      "type": "function"
    },
    {
      "inputs": [],
      "name": "name",
      "outputs": [
        {
          "internalType": "string",
          "name": "",
          "type": "string"
        }
      ],
      "stateMutability": "view",
      "type": "function"
    },
    {
      "inputs": [],
      "name": "pool",
      "outputs": [
        {
          "internalType": "contract IUniswapV3Pool",
          "name": "",
          "type": "address"
        }
      ],
      "stateMutability": "view",
      "type": "function"
    },
    {
      "inputs": [
        {
          "internalType": "uint160",
          "name": "swapThresholdPrice",
          "type": "uint160"
        },
        {
          "internalType": "uint256",
          "name": "swapAmountBPS",
          "type": "uint256"
        },
        {
          "internalType": "uint256",
          "name": "feeAmount",
          "type": "uint256"
        },
        {
          "internalType": "address",
          "name": "paymentToken",
          "type": "address"
        }
      ],
      "name": "rebalance",
      "outputs": [],
      "stateMutability": "nonpayable",
      "type": "function"
    },
    {
      "inputs": [],
      "name": "renounceOwnership",
      "outputs": [],
      "stateMutability": "nonpayable",
      "type": "function"
    },
    {
      "inputs": [],
      "name": "symbol",
      "outputs": [
        {
          "internalType": "string",
          "name": "",
          "type": "string"
        }
      ],
      "stateMutability": "view",
      "type": "function"
    },
    {
      "inputs": [],
      "name": "token0",
      "outputs": [
        {
          "internalType": "contract IERC20",
          "name": "",
          "type": "address"
        }
      ],
      "stateMutability": "view",
      "type": "function"
    },
    {
      "inputs": [],
      "name": "token1",
      "outputs": [
        {
          "internalType": "contract IERC20",
          "name": "",
          "type": "address"
        }
      ],
      "stateMutability": "view",
      "type": "function"
    },
    {
      "inputs": [],
      "name": "totalSupply",
      "outputs": [
        {
          "internalType": "uint256",
          "name": "",
          "type": "uint256"
        }
      ],
      "stateMutability": "view",
      "type": "function"
    },
    {
      "inputs": [
        {
          "internalType": "address",
          "name": "recipient",
          "type": "address"
        },
        {
          "internalType": "uint256",
          "name": "amount",
          "type": "uint256"
        }
      ],
      "name": "transfer",
      "outputs": [
        {
          "internalType": "bool",
          "name": "",
          "type": "bool"
        }
      ],
      "stateMutability": "nonpayable",
      "type": "function"
    },
    {
      "inputs": [
        {
          "internalType": "address",
          "name": "sender",
          "type": "address"
        },
        {
          "internalType": "address",
          "name": "recipient",
          "type": "address"
        },
        {
          "internalType": "uint256",
          "name": "amount",
          "type": "uint256"
        }
      ],
      "name": "transferFrom",
      "outputs": [
        {
          "internalType": "bool",
          "name": "",
          "type": "bool"
        }
      ],
      "stateMutability": "nonpayable",
      "type": "function"
    },
    {
      "inputs": [
        {
          "internalType": "address",
          "name": "newOwner",
          "type": "address"
        }
      ],
      "name": "transferOwnership",
      "outputs": [],
      "stateMutability": "nonpayable",
      "type": "function"
    },
    {
      "inputs": [
        {
          "internalType": "uint256",
          "name": "amount0Owed",
          "type": "uint256"
        },
        {
          "internalType": "uint256",
          "name": "amount1Owed",
          "type": "uint256"
        },
        {
          "internalType": "bytes",
          "name": "",
          "type": "bytes"
        }
      ],
      "name": "uniswapV3MintCallback",
      "outputs": [],
      "stateMutability": "nonpayable",
      "type": "function"
    },
    {
      "inputs": [
        {
          "internalType": "int256",
          "name": "amount0Delta",
          "type": "int256"
        },
        {
          "internalType": "int256",
          "name": "amount1Delta",
          "type": "int256"
        },
        {
          "internalType": "bytes",
          "name": "",
          "type": "bytes"
        }
      ],
      "name": "uniswapV3SwapCallback",
      "outputs": [],
      "stateMutability": "nonpayable",
      "type": "function"
    },
    {
      "inputs": [
        {
          "internalType": "uint16",
          "name": "newRebalanceBPS",
          "type": "uint16"
        },
        {
          "internalType": "uint16",
          "name": "newWithdrawBPS",
          "type": "uint16"
        },
        {
          "internalType": "uint16",
          "name": "newSlippageBPS",
          "type": "uint16"
        },
        {
          "internalType": "uint32",
          "name": "newSlippageInterval",
          "type": "uint32"
        },
        {
          "internalType": "address",
          "name": "newTreasury",
          "type": "address"
        }
      ],
      "name": "updateGelatoParams",
      "outputs": [],
      "stateMutability": "nonpayable",
      "type": "function"
    },
    {
      "inputs": [],
      "name": "upperTick",
      "outputs": [
        {
          "internalType": "int24",
          "name": "",
          "type": "int24"
        }
      ],
      "stateMutability": "view",
      "type": "function"
    },
    {
      "inputs": [
        {
          "internalType": "uint256",
          "name": "feeAmount",
          "type": "uint256"
        },
        {
          "internalType": "address",
          "name": "feeToken",
          "type": "address"
        }
      ],
      "name": "withdrawGelatoBalance",
      "outputs": [],
      "stateMutability": "nonpayable",
      "type": "function"
    },
    {
      "inputs": [
        {
          "internalType": "uint256",
          "name": "feeAmount",
          "type": "uint256"
        },
        {
          "internalType": "address",
          "name": "feeToken",
          "type": "address"
        }
      ],
      "name": "withdrawManagerBalance",
      "outputs": [],
      "stateMutability": "nonpayable",
      "type": "function"
    }
  ],
  "transactionHash": "0x885f8de53e614f5830d4cb02e6c19b818ed60b8d36a9b28c901edf3cdca569e8",
  "args": [
    "0xCc4CcD69D31F9FfDBD3BFfDe49c6aA886DaB98d9"
  ],
  "solcInputHash": "98d5f5b0b481761cc5fe265b351302cc",
  "bytecode": "0x60a06040523480156200001157600080fd5b50604051620060aa380380620060aa83398101604081905262000034916200004a565b60601b6001600160601b0319166080526200007a565b6000602082840312156200005c578081fd5b81516001600160a01b038116811462000073578182fd5b9392505050565b60805160601c615fd2620000d8600039600081816105b201528181610b0201528181610bbf01528181610bf901528181610c8901528181610d7201528181610dac0152818161192a015281816119a101526119de0152615fd26000f3fe608060405234801561001057600080fd5b506004361061020f5760003560e01c8063065756db1461021457806306fdde0314610230578063095ea7b3146102455780630dfe1681146102685780631322d9541461028857806316f0115b146102a557806318160ddd146102b857806323b872dd146102c057806331366be4146102d3578063313ce567146102ee57806339509351146102fd5780633d8b30e11461031057806342fb9d4414610325578063481c6a751461032e5780636065641014610336578063672152bd1461034b57806370a0823114610370578063715018a614610399578063727dd228146103a157806378ac6357146103c257806394bf804d146103d557806395d89b411461040c5780639894f21a1461041457806399fd808c146104425780639b1344ac14610455578063a457c2d714610469578063a50b1fe71461047c578063a9059cbb14610491578063b0085e0f146104a4578063b536bd12146104b7578063be93dd5f146104c0578063c3454459146104d3578063cc95353e146104dc578063ccdf7a02146104f6578063d21220a71461050b578063d34879971461051e578063d6e7ff3914610531578063dd62ed3e14610546578063df28408a1461057f578063e25e15e314610587578063e40778941461059a578063eff557a7146105ad578063f2fde38b146105d4578063fa461e33146105e7578063fcd3533c146105fa575b600080fd5b61021d60995481565b6040519081526020015b60405180910390f35b61023861060d565b6040516102279190615a31565b610258610253366004615359565b61069f565b6040519015158152602001610227565b609e5461027b906001600160a01b031681565b60405161022791906158e9565b6102906106b5565b60408051928352602083019190915201610227565b609d5461027b906001600160a01b031681565b60355461021d565b6102586102ce366004615319565b6109f7565b6102db606481565b60405161ffff9091168152602001610227565b60405160128152602001610227565b61025861030b366004615359565b610aaf565b6097546102db90600160e01b900461ffff1681565b61021d609a5481565b61027b610ae6565b6103496103443660046157b7565b610af5565b005b60985461035b9063ffffffff1681565b60405163ffffffff9091168152602001610227565b61021d61037e3660046152a9565b6001600160a01b031660009081526033602052604090205490565b610349610c26565b6097546103b590600160b81b900460020b81565b60405161022791906159fd565b6103496103d0366004615888565b610c7c565b6103e86103e3366004615888565b610dd7565b6040805193845260208401929092526001600160801b031690820152606001610227565b6102386111c7565b6104276104223660046158ac565b6111d6565b60408051938452602084019290925290820152606001610227565b610349610450366004615800565b611328565b6097546103b590600160a01b900460020b81565b610258610477366004615359565b6114e8565b6097546102db90600160d01b900461ffff1681565b61025861049f366004615359565b611583565b6103496104b2366004615461565b611590565b61021d609b5481565b6103496104ce366004615888565b61191d565b61021d609c5481565b60985461027b90600160301b90046001600160a01b031681565b6098546102db90600160201b900461ffff1681565b609f5461027b906001600160a01b031681565b61034961052c3660046154d4565b611a03565b6097546102db90600160f01b900461ffff1681565b61021d6105543660046152e1565b6001600160a01b03918216600090815260346020908152604080832093909416825291909152205490565b61021d611a54565b610349610595366004615524565b611a63565b6103496105a8366004615700565b611d00565b61027b7f000000000000000000000000000000000000000000000000000000000000000081565b6103496105e23660046152a9565b611dea565b6103496105f53660046154d4565b611eca565b6103e8610608366004615888565b611f21565b60606036805461061c90615e0f565b80601f016020809104026020016040519081016040528092919081815260200182805461064890615e0f565b80156106955780601f1061066a57610100808354040283529160200191610695565b820191906000526020600020905b81548152906001019060200180831161067857829003601f168201915b5050505050905090565b60006106ac33848461239f565b50600192915050565b609d546000908190819081908190819081906001600160a01b031663514ea4bf6106dd6124c4565b6040518263ffffffff1660e01b81526004016106fb91815260200190565b60a06040518083038186803b15801561071357600080fd5b505afa158015610727573d6000803e3d6000fd5b505050506040513d601f19601f8201168201806040525081019061074b91906156aa565b94509450945094509450600080609d60009054906101000a90046001600160a01b03166001600160a01b0316633850c7bd6040518163ffffffff1660e01b815260040160e06040518083038186803b1580156107a657600080fd5b505afa1580156107ba573d6000803e3d6000fd5b505050506040513d601f19601f820116820180604052508101906107de919061571c565b50505050509150915061082682610806609760149054906101000a900460020b60020b61252a565b60975461082090600160b81b9004600290810b900b61252a565b8a61293c565b909950975060006001600160801b038516610844600189858c6129d9565b61084e9190615caa565b90506000846001600160801b0316610869600089868d6129d9565b6108739190615caa565b905061087f8282612de5565b609b54609954609e546040516370a0823160e01b8152949650929450909290916001600160a01b0316906370a08231906108bd9030906004016158e9565b60206040518083038186803b1580156108d557600080fd5b505afa1580156108e9573d6000803e3d6000fd5b505050506040513d601f19601f8201168201806040525081019061090d9190615870565b6109179085615caa565b6109219190615dcc565b61092b9190615dcc565b610935908c615caa565b609c54609a54609f546040516370a0823160e01b8152939e50919290916001600160a01b0316906370a08231906109709030906004016158e9565b60206040518083038186803b15801561098857600080fd5b505afa15801561099c573d6000803e3d6000fd5b505050506040513d601f19601f820116820180604052508101906109c09190615870565b6109ca9084615caa565b6109d49190615dcc565b6109de9190615dcc565b6109e8908b615caa565b99505050505050505050509091565b6000610a04848484612e80565b6001600160a01b038416600090815260346020908152604080832033845290915290205482811015610a8e5760405162461bcd60e51b815260206004820152602860248201527f45524332303a207472616e7366657220616d6f756e74206578636565647320616044820152676c6c6f77616e636560c01b60648201526084015b60405180910390fd5b610aa28533610a9d8685615dcc565b61239f565b60019150505b9392505050565b3360008181526034602090815260408083206001600160a01b038716845290915281205490916106ac918590610a9d908690615caa565b6097546001600160a01b031690565b8181336001600160a01b037f00000000000000000000000000000000000000000000000000000000000000001614610b3f5760405162461bcd60e51b8152600401610a8590615a64565b610b4b86868686613046565b60975460408051600160a01b8304600290810b810b8252600160b81b909304830b90920b6020830152600080516020615f3d833981519152910160405180910390a16001600160a01b03811673eeeeeeeeeeeeeeeeeeeeeeeeeeeeeeeeeeeeeeee1415610bea57610be56001600160a01b037f0000000000000000000000000000000000000000000000000000000000000000168361367b565b610c1e565b610c1e6001600160a01b0382167f000000000000000000000000000000000000000000000000000000000000000084613796565b505050505050565b33610c2f610ae6565b6001600160a01b031614610c555760405162461bcd60e51b8152600401610a8590615b76565b60988054600160201b600160d01b031916905560006099819055609a55610c7a6137f9565b565b8181336001600160a01b037f00000000000000000000000000000000000000000000000000000000000000001614610cc65760405162461bcd60e51b8152600401610a8590615a64565b600080610cd9609954609a548888613860565b60006099819055609a5590925090508115610d1357609854609e54610d13916001600160a01b0391821691600160301b9091041684613796565b8015610d3e57609854609f54610d3e916001600160a01b0391821691600160301b9091041683613796565b50506001600160a01b03811673eeeeeeeeeeeeeeeeeeeeeeeeeeeeeeeeeeeeeeee1415610d9d57610d986001600160a01b037f0000000000000000000000000000000000000000000000000000000000000000168361367b565b610dd1565b610dd16001600160a01b0382167f000000000000000000000000000000000000000000000000000000000000000084613796565b50505050565b600080600060026065541415610dff5760405162461bcd60e51b8152600401610a8590615bd8565b600260655584610e215760405162461bcd60e51b8152600401610a8590615bb8565b6000610e2c60355490565b90506000609d60009054906101000a90046001600160a01b03166001600160a01b0316633850c7bd6040518163ffffffff1660e01b815260040160e06040518083038186803b158015610e7e57600080fd5b505afa158015610e92573d6000803e3d6000fd5b505050506040513d601f19601f82011682018060405250810190610eb6919061571c565b50505050505090506000821115610ef757600080610ed26106b5565b91509150610ee1828a86613945565b9650610eee818a86613945565b95505050610f1c565b610f1681610806609760149054906101000a900460020b60020b61252a565b90955093505b8415610f3a57609e54610f3a906001600160a01b031633308861399c565b8315610f5857609f54610f58906001600160a01b031633308761399c565b6110ca81610f77609760149054906101000a900460020b60020b61252a565b609754610f9190600160b81b9004600290810b900b61252a565b609b54609954609e546040516370a0823160e01b81526001600160a01b03909116906370a0823190610fc79030906004016158e9565b60206040518083038186803b158015610fdf57600080fd5b505afa158015610ff3573d6000803e3d6000fd5b505050506040513d601f19601f820116820180604052508101906110179190615870565b6110219190615dcc565b61102b9190615dcc565b609c54609a54609f546040516370a0823160e01b81526001600160a01b03909116906370a08231906110619030906004016158e9565b60206040518083038186803b15801561107957600080fd5b505afa15801561108d573d6000803e3d6000fd5b505050506040513d601f19601f820116820180604052508101906110b19190615870565b6110bb9190615dcc565b6110c59190615dcc565b6139d4565b609d54609754604051633c8a7d8d60e01b81529295506001600160a01b0390911691633c8a7d8d9161111a913091600160a01b8104600290810b92600160b81b909204900b9089906004016158fd565b6040805180830381600087803b15801561113357600080fd5b505af1158015611147573d6000803e3d6000fd5b505050506040513d601f19601f8201168201806040525081019061116b91906154b1565b50506111778688613a97565b7f55801cfe493000b734571da1694b21e7f66b11e8ce9fdaa0524ecb59105e73e786888787876040516111ae95949392919061597c565b60405180910390a1505060016065819055509250925092565b60606037805461061c90615e0f565b6000806000806111e560355490565b90508015611204576111f8818787613b64565b91955093509150611320565b609d5460408051633850c7bd60e01b815290516000926001600160a01b031691633850c7bd9160048083019260e0929190829003018186803b15801561124957600080fd5b505afa15801561125d573d6000803e3d6000fd5b505050506040513d601f19601f82011682018060405250810190611281919061571c565b505050505050905060006112cb826112aa609760149054906101000a900460020b60020b61252a565b6097546112c490600160b81b9004600290810b900b61252a565b8b8b6139d4565b9050806001600160801b03169350611318826112f8609760149054906101000a900460020b60020b61252a565b60975461131290600160b81b9004600290810b900b61252a565b8461293c565b909650945050505b509250925092565b33611331610ae6565b6001600160a01b0316146113575760405162461bcd60e51b8152600401610a8590615b76565b6127108461ffff16111561137d5760405162461bcd60e51b8152600401610a8590615b59565b6127108561ffff1611156113a35760405162461bcd60e51b8152600401610a8590615b59565b6127108361ffff1611156113c95760405162461bcd60e51b8152600401610a8590615b59565b6040805161ffff8781168252868116602083015285168183015263ffffffff8416606082015290517f0b7615006627cf7664941bc288d4641731f895e102f95cb8690583ad7508faa89181900360800190a161ffff851615611440576097805461ffff60d01b1916600160d01b61ffff8816021790555b61ffff841615611465576097805461ffff60e01b1916600160e01b61ffff8716021790555b61ffff83161561148b57609780546001600160f01b0316600160f01b61ffff8616021790555b63ffffffff8216156114ad576098805463ffffffff191663ffffffff84161790555b6001600160a01b038116156114e15760988054600160301b600160d01b031916600160301b6001600160a01b038416021790555b5050505050565b3360009081526034602090815260408083206001600160a01b03861684529091528120548281101561156a5760405162461bcd60e51b815260206004820152602560248201527f45524332303a2064656372656173656420616c6c6f77616e63652062656c6f77604482015264207a65726f60d81b6064820152608401610a85565b6115793385610a9d8685615dcc565b5060019392505050565b60006106ac338484612e80565b33611599610ae6565b6001600160a01b0316146115bf5760405162461bcd60e51b8152600401610a8590615b76565b609d546000906001600160a01b031663514ea4bf6115db6124c4565b6040518263ffffffff1660e01b81526004016115f991815260200190565b60a06040518083038186803b15801561161157600080fd5b505afa158015611625573d6000803e3d6000fd5b505050506040513d601f19601f8201168201806040525081019061164991906156aa565b50506097549293506000928392506116789150600160a01b8104600290810b91600160b81b9004900b85613c73565b60985491935091506127109061169990600160201b900461ffff1684615d2b565b6116a39190615ce8565b609960008282546116b49190615caa565b9091555050609854612710906116d590600160201b900461ffff1683615d2b565b6116df9190615ce8565b609a60008282546116f09190615caa565b909155506127109050611704606484615d2b565b61170e9190615ce8565b609b600082825461171f9190615caa565b909155506127109050611733606483615d2b565b61173d9190615ce8565b609c600082825461174e9190615caa565b909155505060978054600288810b62ffffff908116600160b81b0262ffffff60b81b19928c900b909116600160a01b029190911665ffffffffffff60a01b1990921691909117179055609b54609954609e546040516370a0823160e01b815260009392916001600160a01b0316906370a08231906117d09030906004016158e9565b60206040518083038186803b1580156117e857600080fd5b505afa1580156117fc573d6000803e3d6000fd5b505050506040513d601f19601f820116820180604052508101906118209190615870565b61182a9190615dcc565b6118349190615dcc565b609c54609a54609f546040516370a0823160e01b81529394506000936001600160a01b03909116906370a08231906118709030906004016158e9565b60206040518083038186803b15801561188857600080fd5b505afa15801561189c573d6000803e3d6000fd5b505050506040513d601f19601f820116820180604052508101906118c09190615870565b6118ca9190615dcc565b6118d49190615dcc565b90506118e6898984848b8b6000613fde565b6040805160028b810b82528a900b6020820152600080516020615f3d833981519152910160405180910390a1505050505050505050565b8181336001600160a01b037f000000000000000000000000000000000000000000000000000000000000000016146119675760405162461bcd60e51b8152600401610a8590615a64565b60008061197a609b54609c548888613860565b6000609b819055609c55909250905081156119c657609e546119c6906001600160a01b03167f000000000000000000000000000000000000000000000000000000000000000084613796565b8015610d3e57609f54610d3e906001600160a01b03167f000000000000000000000000000000000000000000000000000000000000000083613796565b609d546001600160a01b03163314611a1a57600080fd5b8315611a3757609e54611a37906001600160a01b03163386613796565b8215610dd157609f54610dd1906001600160a01b03163385613796565b6000611a5e6124c4565b905090565b600054610100900460ff1680611a7c575060005460ff16155b611a985760405162461bcd60e51b8152600401610a8590615ae9565b600054610100900460ff16158015611aba576000805461ffff19166101011790555b611ac76064612710615d89565b61ffff168561ffff161115611aee5760405162461bcd60e51b8152600401610a8590615a95565b609d80546001600160a01b0319166001600160a01b03881690811790915560408051630dfe168160e01b81529051630dfe168191600480820192602092909190829003018186803b158015611b4257600080fd5b505afa158015611b56573d6000803e3d6000fd5b505050506040513d601f19601f82011682018060405250810190611b7a91906152c5565b609e80546001600160a01b0319166001600160a01b03928316179055609d546040805163d21220a760e01b81529051919092169163d21220a7916004808301926020929190829003018186803b158015611bd357600080fd5b505afa158015611be7573d6000803e3d6000fd5b505050506040513d601f19601f82011682018060405250810190611c0b91906152c5565b609f80546001600160a01b03199081166001600160a01b0393841617909155609880546097805461012c65ffffffffffff19909316600160201b61ffff8d160263ffffffff19161792909217600160301b600160d01b031916600160301b95881695860217909255643e800c801960d31b600165ffffff00000160a01b03909116600160a01b60028a810b62ffffff908116929092029290921792909217600165ffffff00000160a01b031916600160b81b9189900b9290921602909216919091179091179055611cdc88886141bf565b611ce461423e565b8015611cf6576000805461ff00191690555b5050505050505050565b33611d09610ae6565b6001600160a01b031614611d2f5760405162461bcd60e51b8152600401610a8590615b76565b609854600160201b900461ffff1615611d845760405162461bcd60e51b815260206004820152601760248201527619995948185b1c9958591e481a5b9a5d1a585b1a5e9959604a1b6044820152606401610a85565b60008161ffff16118015611dac5750611da06064612710615d89565b61ffff168161ffff1611155b611dc85760405162461bcd60e51b8152600401610a8590615a95565b6098805461ffff909216600160201b0261ffff60201b19909216919091179055565b33611df3610ae6565b6001600160a01b031614611e195760405162461bcd60e51b8152600401610a8590615b76565b6001600160a01b038116611e805760405162461bcd60e51b815260206004820152602860248201527f4f776e61626c653a206e6577206d616e6167657220697320746865207a65726f604482015267206164647265737360c01b6064820152608401610a85565b6097546040516001600160a01b03808416921690600080516020615f5d83398151915290600090a3609780546001600160a01b0319166001600160a01b0392909216919091179055565b609d546001600160a01b03163314611ee157600080fd5b6000841315611f0157609e54610d98906001600160a01b03163386613796565b6000831315610dd157609f54610dd1906001600160a01b03163385613796565b600080600060026065541415611f495760405162461bcd60e51b8152600401610a8590615bd8565b600260655584611f845760405162461bcd60e51b815260206004820152600660248201526506275726e20360d41b6044820152606401610a85565b6000611f8f60355490565b609d549091506000906001600160a01b031663514ea4bf611fae6124c4565b6040518263ffffffff1660e01b8152600401611fcc91815260200190565b60a06040518083038186803b158015611fe457600080fd5b505afa158015611ff8573d6000803e3d6000fd5b505050506040513d601f19601f8201168201806040525081019061201c91906156aa565b50505050905061202c33886142b2565b600061204288836001600160801b0316856143ef565b90506001600160801b03811061205757600080fd5b609e546040516370a0823160e01b815291945084916000916001600160a01b0316906370a082319061208d9030906004016158e9565b60206040518083038186803b1580156120a557600080fd5b505afa1580156120b9573d6000803e3d6000fd5b505050506040513d601f19601f820116820180604052508101906120dd9190615870565b609f546040516370a0823160e01b81529192506000916001600160a01b03909116906370a08231906121139030906004016158e9565b60206040518083038186803b15801561212b57600080fd5b505afa15801561213f573d6000803e3d6000fd5b505050506040513d601f19601f820116820180604052508101906121639190615870565b9050600061218c8b609b546099548661217c9190615dcc565b6121869190615dcc565b886143ef565b905060006121b58c609c54609a54866121a59190615dcc565b6121af9190615dcc565b896143ef565b6097549091506121dd90600160a01b8104600290810b91600160b81b9004900b8e8a8c61449e565b609e546040516370a0823160e01b8152839186916001600160a01b03909116906370a08231906122119030906004016158e9565b60206040518083038186803b15801561222957600080fd5b505afa15801561223d573d6000803e3d6000fd5b505050506040513d601f19601f820116820180604052508101906122619190615870565b61226b9190615dcc565b6122759190615caa565b609f546040516370a0823160e01b8152919b50829185916001600160a01b0316906370a08231906122aa9030906004016158e9565b60206040518083038186803b1580156122c257600080fd5b505afa1580156122d6573d6000803e3d6000fd5b505050506040513d601f19601f820116820180604052508101906122fa9190615870565b6123049190615dcc565b61230e9190615caa565b9850891561232d57609e5461232d906001600160a01b03168c8c613796565b881561234a57609f5461234a906001600160a01b03168c8b613796565b7f7239dff1718b550db7f36cbf69c665cfeb56d0e96b4fb76a5cba712961b655098b8d8c8c8c60405161238195949392919061597c565b60405180910390a15050505050505060016065819055509250925092565b6001600160a01b0383166124015760405162461bcd60e51b8152602060048201526024808201527f45524332303a20617070726f76652066726f6d20746865207a65726f206164646044820152637265737360e01b6064820152608401610a85565b6001600160a01b0382166124625760405162461bcd60e51b815260206004820152602260248201527f45524332303a20617070726f766520746f20746865207a65726f206164647265604482015261737360f01b6064820152608401610a85565b6001600160a01b0383811660008181526034602090815260408083209487168084529482529182902085905590518481527f8c5be1e5ebec7d5bd14f71427d1e84f3dd0314c0f7b2291e5b200ac8c7c3b92591015b60405180910390a3505050565b6097546040516001600160601b03193060601b166020820152600160a01b8204600290810b810b60e890811b6034840152600160b81b909304810b900b90911b6037820152600090603a0160405160208183030381529060405280519060200120905090565b60008060008360020b12612541578260020b61254e565b8260020b61254e90615e9a565b905061255d620d89e719615e79565b60020b8111156125935760405162461bcd60e51b81526020600482015260016024820152601560fa1b6044820152606401610a85565b6000600182166125a757600160801b6125b9565b6ffffcb933bd6fad37aa2d162d1a5940015b6001600160881b0316905060028216156125ee5760806125e9826ffff97272373d413259a46990580e213a615d2b565b901c90505b6004821615612618576080612613826ffff2e50f5f656932ef12357cf3c7fdcc615d2b565b901c90505b600882161561264257608061263d826fffe5caca7e10e4e61c3624eaa0941cd0615d2b565b901c90505b601082161561266c576080612667826fffcb9843d60f6159c9db58835c926644615d2b565b901c90505b6020821615612696576080612691826fff973b41fa98c081472e6896dfb254c0615d2b565b901c90505b60408216156126c05760806126bb826fff2ea16466c96a3843ec78b326b52861615d2b565b901c90505b60808216156126ea5760806126e5826ffe5dee046a99a2a811c461f1969c3053615d2b565b901c90505b610100821615612715576080612710826ffcbe86c7900a88aedcffc83b479aa3a4615d2b565b901c90505b61020082161561274057608061273b826ff987a7253ac413176f2b074cf7815e54615d2b565b901c90505b61040082161561276b576080612766826ff3392b0822b70005940c7a398e4b70f3615d2b565b901c90505b610800821615612796576080612791826fe7159475a2c29b7443b29c7fa6e889d9615d2b565b901c90505b6110008216156127c15760806127bc826fd097f3bdfd2022b8845ad8f792aa5825615d2b565b901c90505b6120008216156127ec5760806127e7826fa9f746462d870fdf8a65dc1f90e061e5615d2b565b901c90505b614000821615612817576080612812826f70d869a156d2a1b890bb3df62baf32f7615d2b565b901c90505b61800082161561284257608061283d826f31be135f97d08fd981231505542fcfa6615d2b565b901c90505b6201000082161561286e576080612869826f09aa508b5b7a84e1c677de54f3e99bc9615d2b565b901c90505b62020000821615612899576080612894826e5d6af8dedb81196699c329225ee604615d2b565b901c90505b620400008216156128c35760806128be826d2216e584f5fa1ea926041bedfe98615d2b565b901c90505b620800008216156128eb5760806128e6826b048a170391f7dc42444e8fa2615d2b565b901c90505b60008460020b13156129065761290381600019615ce8565b90505b612914600160201b82615e65565b15612920576001612923565b60005b6129349060ff16602083901c615caa565b949350505050565b600080836001600160a01b0316856001600160a01b0316111561295d579293925b846001600160a01b0316866001600160a01b03161015612989576129828585856146b5565b91506129d0565b836001600160a01b0316866001600160a01b031610156129c2576129ae8685856146b5565b91506129bb85878561471f565b90506129d0565b6129cd85858561471f565b90505b94509492505050565b6000806000808715612ba657609d60009054906101000a90046001600160a01b03166001600160a01b031663f30583996040518163ffffffff1660e01b815260040160206040518083038186803b158015612a3357600080fd5b505afa158015612a47573d6000803e3d6000fd5b505050506040513d601f19601f82011682018060405250810190612a6b9190615870565b609d5460975460405163f30dba9360e01b81529293506001600160a01b039091169163f30dba9391612aab91600160a01b90910460020b906004016159fd565b6101006040518083038186803b158015612ac457600080fd5b505afa158015612ad8573d6000803e3d6000fd5b505050506040513d601f19601f82011682018060405250810190612afc91906155e3565b5050609d5460975460405163f30dba9360e01b8152959a506001600160a01b03909116965063f30dba939550612b4594600160b81b90910460020b935060040191506159fd9050565b6101006040518083038186803b158015612b5e57600080fd5b505afa158015612b72573d6000803e3d6000fd5b505050506040513d601f19601f82011682018060405250810190612b9691906155e3565b50939750612d6195505050505050565b609d60009054906101000a90046001600160a01b03166001600160a01b031663461413196040518163ffffffff1660e01b815260040160206040518083038186803b158015612bf457600080fd5b505afa158015612c08573d6000803e3d6000fd5b505050506040513d601f19601f82011682018060405250810190612c2c9190615870565b609d5460975460405163f30dba9360e01b81529293506001600160a01b039091169163f30dba9391612c6c91600160a01b90910460020b906004016159fd565b6101006040518083038186803b158015612c8557600080fd5b505afa158015612c99573d6000803e3d6000fd5b505050506040513d601f19601f82011682018060405250810190612cbd91906155e3565b5050609d5460975460405163f30dba9360e01b8152949a506001600160a01b03909116965063f30dba939550612d059450600160b81b900460020b9260040191506159fd9050565b6101006040518083038186803b158015612d1e57600080fd5b505afa158015612d32573d6000803e3d6000fd5b505050506040513d601f19601f82011682018060405250810190612d5691906155e3565b509297505050505050505b6000609760149054906101000a900460020b60020b8760020b12612d86575082612d8b565b508281035b6000609760179054906101000a900460020b60020b8860020b1215612db1575082612db6565b508282035b818303819003612dd66001600160801b0389168b8303600160801b6143ef565b9b9a5050505050505050505050565b6000806000612710609860049054906101000a900461ffff166064612e0a9190615c62565b612e189061ffff1687615d2b565b612e229190615ce8565b60985490915060009061271090612e4590600160201b900461ffff166064615c62565b612e539061ffff1687615d2b565b612e5d9190615ce8565b9050612e698287615dcc565b9350612e758186615dcc565b925050509250929050565b6001600160a01b038316612ee45760405162461bcd60e51b815260206004820152602560248201527f45524332303a207472616e736665722066726f6d20746865207a65726f206164604482015264647265737360d81b6064820152608401610a85565b6001600160a01b038216612f465760405162461bcd60e51b815260206004820152602360248201527f45524332303a207472616e7366657220746f20746865207a65726f206164647260448201526265737360e81b6064820152608401610a85565b6001600160a01b03831660009081526033602052604090205481811015612fbe5760405162461bcd60e51b815260206004820152602660248201527f45524332303a207472616e7366657220616d6f756e7420657863656564732062604482015265616c616e636560d01b6064820152608401610a85565b612fc88282615dcc565b6001600160a01b038086166000908152603360205260408082209390935590851681529081208054849290612ffe908490615caa565b92505081905550826001600160a01b0316846001600160a01b0316600080516020615f7d8339815191528460405161303891815260200190565b60405180910390a350505050565b609d546000906001600160a01b031663514ea4bf6130626124c4565b6040518263ffffffff1660e01b815260040161308091815260200190565b60a06040518083038186803b15801561309857600080fd5b505afa1580156130ac573d6000803e3d6000fd5b505050506040513d601f19601f820116820180604052508101906130d091906156aa565b50506097549293506000928392506130ff9150600160a01b8104600290810b91600160b81b9004900b85613c73565b609e54919350915060009081906001600160a01b038781169116141561339c5760975487906127109061313d90600160d01b900461ffff1687615d2b565b6131479190615ce8565b10156131655760405162461bcd60e51b8152600401610a8590615b37565b60985461271090600160201b900461ffff166131818987615dcc565b61318b9190615d2b565b6131959190615ce8565b609960008282546131a69190615caa565b9091555050609854612710906131c790600160201b900461ffff1685615d2b565b6131d19190615ce8565b609a60008282546131e29190615caa565b90915550612710905060646131f78987615dcc565b6132019190615d2b565b61320b9190615ce8565b609b600082825461321c9190615caa565b909155506127109050613230606485615d2b565b61323a9190615ce8565b609c600082825461324b9190615caa565b9091555050609b54609954609e546040516370a0823160e01b81528a9392916001600160a01b0316906370a08231906132889030906004016158e9565b60206040518083038186803b1580156132a057600080fd5b505afa1580156132b4573d6000803e3d6000fd5b505050506040513d601f19601f820116820180604052508101906132d89190615870565b6132e29190615dcc565b6132ec9190615dcc565b6132f69190615dcc565b609c54609a54609f546040516370a0823160e01b8152939550919290916001600160a01b0316906370a08231906133319030906004016158e9565b60206040518083038186803b15801561334957600080fd5b505afa15801561335d573d6000803e3d6000fd5b505050506040513d601f19601f820116820180604052508101906133819190615870565b61338b9190615dcc565b6133959190615dcc565b9050613648565b609f546001600160a01b0387811691161415613612576097548790612710906133d090600160d01b900461ffff1686615d2b565b6133da9190615ce8565b10156133f85760405162461bcd60e51b8152600401610a8590615b37565b6098546127109061341490600160201b900461ffff1686615d2b565b61341e9190615ce8565b6099600082825461342f9190615caa565b909155505060985461271090600160201b900461ffff166134508986615dcc565b61345a9190615d2b565b6134649190615ce8565b609a60008282546134759190615caa565b909155506127109050613489606486615d2b565b6134939190615ce8565b609b60008282546134a49190615caa565b90915550612710905060646134b98986615dcc565b6134c39190615d2b565b6134cd9190615ce8565b609c60008282546134de9190615caa565b9091555050609b54609954609e546040516370a0823160e01b81526001600160a01b03909116906370a08231906135199030906004016158e9565b60206040518083038186803b15801561353157600080fd5b505afa158015613545573d6000803e3d6000fd5b505050506040513d601f19601f820116820180604052508101906135699190615870565b6135739190615dcc565b61357d9190615dcc565b609c54609a54609f546040516370a0823160e01b81529395508a936001600160a01b03909116906370a08231906135b89030906004016158e9565b60206040518083038186803b1580156135d057600080fd5b505afa1580156135e4573d6000803e3d6000fd5b505050506040513d601f19601f820116820180604052508101906136089190615870565b6133819190615dcc565b60405162461bcd60e51b815260206004820152600b60248201526a3bb937b733903a37b5b2b760a91b6044820152606401610a85565b60975461367090600160a01b8104600290810b91600160b81b9004900b84848d8d6001613fde565b505050505050505050565b804710156136cb5760405162461bcd60e51b815260206004820152601d60248201527f416464726573733a20696e73756666696369656e742062616c616e63650000006044820152606401610a85565b6000826001600160a01b03168260405160006040518083038185875af1925050503d8060008114613718576040519150601f19603f3d011682016040523d82523d6000602084013e61371d565b606091505b50509050806137915760405162461bcd60e51b815260206004820152603a60248201527f416464726573733a20756e61626c6520746f2073656e642076616c75652c20726044820152791958da5c1a595b9d081b585e481a185d99481c995d995c9d195960321b6064820152608401610a85565b505050565b6040516001600160a01b03831660248201526044810182905261379190849063a9059cbb60e01b906064015b60408051601f198184030181529190526020810180516001600160e01b03166001600160e01b031990931692909217909152614769565b33613802610ae6565b6001600160a01b0316146138285760405162461bcd60e51b8152600401610a8590615b76565b6097546040516000916001600160a01b031690600080516020615f5d833981519152908390a3609780546001600160a01b0319169055565b609e5460009081906001600160a01b03848116911614156138d55760975484906127109061389990600160e01b900461ffff1689615d2b565b6138a39190615ce8565b10156138c15760405162461bcd60e51b8152600401610a8590615b37565b6138cb8487615dcc565b91508490506129d0565b609f546001600160a01b03848116911614156136125760975484906127109061390990600160e01b900461ffff1688615d2b565b6139139190615ce8565b10156139315760405162461bcd60e51b8152600401610a8590615b37565b61393b8486615dcc565b90508591506129d0565b60006139528484846143ef565b90506000828061397257634e487b7160e01b600052601260045260246000fd5b8486091115610aa857600019811061398957600080fd5b8061399381615e4a565b95945050505050565b6040516001600160a01b0380851660248301528316604482015260648101829052610dd19085906323b872dd60e01b906084016137c2565b6000836001600160a01b0316856001600160a01b031611156139f4579293925b846001600160a01b0316866001600160a01b03161015613a2057613a1985858561483b565b9050613993565b836001600160a01b0316866001600160a01b03161015613a82576000613a4787868661483b565b90506000613a568789866148a5565b9050806001600160801b0316826001600160801b031610613a775780613a79565b815b92505050613993565b613a8d8585846148a5565b9695505050505050565b6001600160a01b038216613aed5760405162461bcd60e51b815260206004820152601f60248201527f45524332303a206d696e7420746f20746865207a65726f2061646472657373006044820152606401610a85565b8060356000828254613aff9190615caa565b90915550506001600160a01b03821660009081526033602052604081208054839290613b2c908490615caa565b90915550506040518181526001600160a01b03831690600090600080516020615f7d8339815191529060200160405180910390a35050565b6000806000806000613b746106b5565b91509150816000148015613b885750600081115b15613b9f57613b988689836143ef565b9250613c4e565b80158015613bad5750600082115b15613bbd57613b988789846143ef565b81158015613bc9575080155b15613bf05760405162461bcd60e51b81526020600482015260006024820152604401610a85565b6000613bfd888a856143ef565b90506000613c0c888b856143ef565b9050600082118015613c1e5750600081115b613c3a5760405162461bcd60e51b8152600401610a8590615bb8565b808210613c475780613c49565b815b945050505b613c5983838a613945565b9450613c6683828a613945565b9350505093509350939050565b609e546040516370a0823160e01b8152600091829182916001600160a01b0316906370a0823190613ca89030906004016158e9565b60206040518083038186803b158015613cc057600080fd5b505afa158015613cd4573d6000803e3d6000fd5b505050506040513d601f19601f82011682018060405250810190613cf89190615870565b609f546040516370a0823160e01b81529192506000916001600160a01b03909116906370a0823190613d2e9030906004016158e9565b60206040518083038186803b158015613d4657600080fd5b505afa158015613d5a573d6000803e3d6000fd5b505050506040513d601f19601f82011682018060405250810190613d7e9190615870565b609d5460405163a34123a760e01b815291925060009182916001600160a01b03169063a34123a790613db8908c908c908c90600401615a0b565b6040805180830381600087803b158015613dd157600080fd5b505af1158015613de5573d6000803e3d6000fd5b505050506040513d601f19601f82011682018060405250810190613e0991906154b1565b609d546040516309e3d67b60e31b81529294509092506001600160a01b031690634f1eb3d890613e4c9030908d908d906001600160801b0390819060040161593f565b6040805180830381600087803b158015613e6557600080fd5b505af1158015613e79573d6000803e3d6000fd5b505050506040513d601f19601f82011682018060405250810190613e9d9190615678565b5050609e546040516370a0823160e01b8152839186916001600160a01b03909116906370a0823190613ed39030906004016158e9565b60206040518083038186803b158015613eeb57600080fd5b505afa158015613eff573d6000803e3d6000fd5b505050506040513d601f19601f82011682018060405250810190613f239190615870565b613f2d9190615dcc565b613f379190615dcc565b609f546040516370a0823160e01b8152919750829185916001600160a01b0316906370a0823190613f6c9030906004016158e9565b60206040518083038186803b158015613f8457600080fd5b505afa158015613f98573d6000803e3d6000fd5b505050506040513d601f19601f82011682018060405250810190613fbc9190615870565b613fc69190615dcc565b613fd09190615dcc565b945050505050935093915050565b609d5460408051633850c7bd60e01b815290516000926001600160a01b031691633850c7bd9160048083019260e0929190829003018186803b15801561402357600080fd5b505afa158015614037573d6000803e3d6000fd5b505050506040513d601f19601f8201168201806040525081019061405b919061571c565b50505050505090506000614088826140758b60020b61252a565b6140818b60020b61252a565b8a8a6139d4565b90506001600160801b0381161561414557609d54604051633c8a7d8d60e01b815260009182916001600160a01b0390911690633c8a7d8d906140d49030908f908f9089906004016158fd565b6040805180830381600087803b1580156140ed57600080fd5b505af1158015614101573d6000803e3d6000fd5b505050506040513d601f19601f8201168201806040525081019061412591906154b1565b9092509050614134828a615dcc565b98506141408189615dcc565b975050505b60008711806141545750600086115b80156141605750600084115b156136705785871183156141785761417886826148db565b60006127108683614189578961418b565b8a5b6141959190615d2b565b61419f9190615ce8565b90506141b08b8b8b8b858c88614b7f565b50505050505050505050505050565b600054610100900460ff16806141d8575060005460ff16155b6141f45760405162461bcd60e51b8152600401610a8590615ae9565b600054610100900460ff16158015614216576000805461ffff19166101011790555b61421e614db5565b6142288383614e1f565b8015613791576000805461ff0019169055505050565b600054610100900460ff1680614257575060005460ff16155b6142735760405162461bcd60e51b8152600401610a8590615ae9565b600054610100900460ff16158015614295576000805461ffff19166101011790555b61429d614eb4565b80156142af576000805461ff00191690555b50565b6001600160a01b0382166143125760405162461bcd60e51b815260206004820152602160248201527f45524332303a206275726e2066726f6d20746865207a65726f206164647265736044820152607360f81b6064820152608401610a85565b6001600160a01b038216600090815260336020526040902054818110156143865760405162461bcd60e51b815260206004820152602260248201527f45524332303a206275726e20616d6f756e7420657863656564732062616c616e604482015261636560f01b6064820152608401610a85565b6143908282615dcc565b6001600160a01b038416600090815260336020526040812091909155603580548492906143be908490615dcc565b90915550506040518281526000906001600160a01b03851690600080516020615f7d833981519152906020016124b7565b600080806000198587098587029250828110838203039150508060001415614429576000841161441e57600080fd5b508290049050610aa8565b80841161443557600080fd5b60008486880960026001871981018816978890046003810283188082028403028082028403028082028403028082028403028082028403029081029092039091026000889003889004909101858311909403939093029303949094049190911702949350505050565b609d5460405163a34123a760e01b815260009182916001600160a01b039091169063a34123a7906144d7908a908a908890600401615a0b565b6040805180830381600087803b1580156144f057600080fd5b505af1158015614504573d6000803e3d6000fd5b505050506040513d601f19601f8201168201806040525081019061452891906154b1565b609d54919350915060009081906001600160a01b031663514ea4bf61454b6124c4565b6040518263ffffffff1660e01b815260040161456991815260200190565b60a06040518083038186803b15801561458157600080fd5b505afa158015614595573d6000803e3d6000fd5b505050506040513d601f19601f820116820180604052508101906145b991906156aa565b94509450505050600084836001600160801b03166145d79190615dcc565b905060006145ee856001600160801b038516615dcc565b90506145fa8282612de5565b909250905061460a89838a6143ef565b6146149087615caa565b955061462189828a6143ef565b61462b9086615caa565b609d546040516309e3d67b60e31b81529196506001600160a01b031690634f1eb3d8906146649030908f908f908c908c9060040161593f565b6040805180830381600087803b15801561467d57600080fd5b505af1158015614691573d6000803e3d6000fd5b505050506040513d601f19601f820116820180604052508101906141b09190615678565b6000826001600160a01b0316846001600160a01b031611156146d5579192915b6001600160a01b038416614715600160601b600160e01b03606085901b166146fd8787615dac565b6001600160a01b0316866001600160a01b03166143ef565b6129349190615ce8565b6000826001600160a01b0316846001600160a01b0316111561473f579192915b6129346001600160801b0383166147568686615dac565b6001600160a01b0316600160601b6143ef565b60006147be826040518060400160405280602081526020017f5361666545524332303a206c6f772d6c6576656c2063616c6c206661696c6564815250856001600160a01b0316614f249092919063ffffffff16565b80519091501561379157808060200190518101906147dc9190615447565b6137915760405162461bcd60e51b815260206004820152602a60248201527f5361666545524332303a204552433230206f7065726174696f6e20646964206e6044820152691bdd081cdd58d8d9595960b21b6064820152608401610a85565b6000826001600160a01b0316846001600160a01b0316111561485b579192915b600061487e856001600160a01b0316856001600160a01b0316600160601b6143ef565b90506139936148a084836148928989615dac565b6001600160a01b03166143ef565b614f33565b6000826001600160a01b0316846001600160a01b031611156148c5579192915b6129346148a083600160601b6148928888615dac565b6040805160028082526060820183526000926020830190803683375050609854825192935063ffffffff169183915060009061492757634e487b7160e01b600052603260045260246000fd5b602002602001019063ffffffff16908163ffffffff168152505060008160018151811061496457634e487b7160e01b600052603260045260246000fd5b63ffffffff90921660209283029190910190910152609d5460405163883bdbfd60e01b81526000916001600160a01b03169063883bdbfd906149aa9085906004016159b3565b60006040518083038186803b1580156149c257600080fd5b505afa1580156149d6573d6000803e3d6000fd5b505050506040513d6000823e601f3d908101601f191682016040526149fe9190810190615384565b5090508051600214614a415760405162461bcd60e51b815260206004820152600c60248201526b0c2e4e4c2f240d8cadccee8d60a31b6044820152606401610a85565b6098548151600091829163ffffffff90911660060b9084908390614a7557634e487b7160e01b600052603260045260246000fd5b602002602001015184600181518110614a9e57634e487b7160e01b600052603260045260246000fd5b60200260200101510360060b81614ac557634e487b7160e01b600052601260045260246000fd5b059050614ad48160020b61252a565b6097549092506000915061271090614af790600160f01b900461ffff1684615cfc565b614b019190615cc2565b90508415614b4457614b138183615dac565b6001600160a01b0316866001600160a01b03161015610be55760405162461bcd60e51b8152600401610a8590615aba565b614b4e8183615c88565b6001600160a01b0316866001600160a01b03161115610c1e5760405162461bcd60e51b8152600401610a8590615aba565b609d54604051630251596160e31b81523060048201528215156024820152604481018590526001600160a01b03848116606483015260a06084830152600060a4830181905292839283928392169063128acb089060c4016040805180830381600087803b158015614bef57600080fd5b505af1158015614c03573d6000803e3d6000fd5b505050506040513d601f19601f82011682018060405250810190614c2791906154b1565b9092509050614c36828a615d4a565b9350614c428189615d4a565b92506000609d60009054906101000a90046001600160a01b03166001600160a01b0316633850c7bd6040518163ffffffff1660e01b815260040160e06040518083038186803b158015614c9457600080fd5b505afa158015614ca8573d6000803e3d6000fd5b505050506040513d601f19601f82011682018060405250810190614ccc919061571c565b50505050505090506000614cf982614ce68f60020b61252a565b614cf28f60020b61252a565b89896139d4565b90506001600160801b03811615614da557609d60009054906101000a90046001600160a01b03166001600160a01b0316633c8a7d8d308f8f856040518563ffffffff1660e01b8152600401614d5194939291906158fd565b6040805180830381600087803b158015614d6a57600080fd5b505af1158015614d7e573d6000803e3d6000fd5b505050506040513d601f19601f82011682018060405250810190614da291906154b1565b50505b5050505097509795505050505050565b600054610100900460ff1680614dce575060005460ff16155b614dea5760405162461bcd60e51b8152600401610a8590615ae9565b600054610100900460ff1615801561429d576000805461ffff191661010117905580156142af576000805461ff001916905550565b600054610100900460ff1680614e38575060005460ff16155b614e545760405162461bcd60e51b8152600401610a8590615ae9565b600054610100900460ff16158015614e76576000805461ffff19166101011790555b8251614e899060369060208601906150af565b508151614e9d9060379060208501906150af565b508015613791576000805461ff0019169055505050565b600054610100900460ff1680614ecd575060005460ff16155b614ee95760405162461bcd60e51b8152600401610a8590615ae9565b600054610100900460ff16158015614f0b576000805461ffff19166101011790555b600160655580156142af576000805461ff001916905550565b60606129348484600085614f4e565b806001600160801b0381168114614f4957600080fd5b919050565b606082471015614faf5760405162461bcd60e51b815260206004820152602660248201527f416464726573733a20696e73756666696369656e742062616c616e636520666f6044820152651c8818d85b1b60d21b6064820152608401610a85565b843b614ffd5760405162461bcd60e51b815260206004820152601d60248201527f416464726573733a2063616c6c20746f206e6f6e2d636f6e74726163740000006044820152606401610a85565b600080866001600160a01b0316858760405161501991906158cd565b60006040518083038185875af1925050503d8060008114615056576040519150601f19603f3d011682016040523d82523d6000602084013e61505b565b606091505b509150915061506b828286615076565b979650505050505050565b60608315615085575081610aa8565b8251156150955782518084602001fd5b8160405162461bcd60e51b8152600401610a859190615a31565b8280546150bb90615e0f565b90600052602060002090601f0160209004810192826150dd5760008555615123565b82601f106150f657805160ff1916838001178555615123565b82800160010185558215615123579182015b82811115615123578251825591602001919060010190615108565b5061512f929150615133565b5090565b5b8082111561512f5760008155600101615134565b600082601f830112615158578081fd5b8151602061516d61516883615c3f565b615c0f565b80838252828201915082860187848660051b890101111561518c578586fd5b855b858110156151b35781516151a181615ef6565b8452928401929084019060010161518e565b5090979650505050505050565b80518015158114614f4957600080fd5b60008083601f8401126151e1578182fd5b5081356001600160401b038111156151f7578182fd5b60208301915083602082850101111561520f57600080fd5b9250929050565b8051600681900b8114614f4957600080fd5b600082601f830112615238578081fd5b81356001600160401b0381111561525157615251615ee0565b615264601f8201601f1916602001615c0f565b818152846020838601011115615278578283fd5b816020850160208301379081016020019190915292915050565b80516001600160801b0381168114614f4957600080fd5b6000602082840312156152ba578081fd5b8135610aa881615ef6565b6000602082840312156152d6578081fd5b8151610aa881615ef6565b600080604083850312156152f3578081fd5b82356152fe81615ef6565b9150602083013561530e81615ef6565b809150509250929050565b60008060006060848603121561532d578081fd5b833561533881615ef6565b9250602084013561534881615ef6565b929592945050506040919091013590565b6000806040838503121561536b578182fd5b823561537681615ef6565b946020939093013593505050565b60008060408385031215615396578182fd5b82516001600160401b03808211156153ac578384fd5b818501915085601f8301126153bf578384fd5b815160206153cf61516883615c3f565b8083825282820191508286018a848660051b89010111156153ee578889fd5b8896505b848710156154175761540381615216565b8352600196909601959183019183016153f2565b5091880151919650909350505080821115615430578283fd5b5061543d85828601615148565b9150509250929050565b600060208284031215615458578081fd5b610aa8826151c0565b60008060008060808587031215615476578182fd5b843561548181615f0b565b9350602085013561549181615f0b565b925060408501356154a181615ef6565b9396929550929360600135925050565b600080604083850312156154c3578182fd5b505080516020909101519092909150565b600080600080606085870312156154e9578182fd5b843593506020850135925060408501356001600160401b0381111561550c578283fd5b615518878288016151d0565b95989497509550505050565b600080600080600080600060e0888a03121561553e578485fd5b87356001600160401b0380821115615554578687fd5b6155608b838c01615228565b985060208a0135915080821115615575578687fd5b506155828a828b01615228565b965050604088013561559381615ef6565b945060608801356155a381615f1a565b935060808801356155b381615f0b565b925060a08801356155c381615f0b565b915060c08801356155d381615ef6565b8091505092959891949750929550565b600080600080600080600080610100898b0312156155ff578182fd5b61560889615292565b9750602089015180600f0b811461561d578283fd5b60408a015160608b01519198509650945061563a60808a01615216565b935060a089015161564a81615ef6565b60c08a015190935061565b81615f2a565b915061566960e08a016151c0565b90509295985092959890939650565b6000806040838503121561568a578182fd5b61569383615292565b91506156a160208401615292565b90509250929050565b600080600080600060a086880312156156c1578283fd5b6156ca86615292565b945060208601519350604086015192506156e660608701615292565b91506156f460808701615292565b90509295509295909350565b600060208284031215615711578081fd5b8135610aa881615f1a565b600080600080600080600060e0888a031215615736578081fd5b875161574181615ef6565b602089015190975061575281615f0b565b604089015190965061576381615f1a565b606089015190955061577481615f1a565b608089015190945061578581615f1a565b60a089015190935060ff8116811461579b578182fd5b91506157a960c089016151c0565b905092959891949750929550565b600080600080608085870312156157cc578182fd5b84356157d781615ef6565b9350602085013592506040850135915060608501356157f581615ef6565b939692955090935050565b600080600080600060a08688031215615817578283fd5b853561582281615f1a565b9450602086013561583281615f1a565b9350604086013561584281615f1a565b9250606086013561585281615f2a565b9150608086013561586281615ef6565b809150509295509295909350565b600060208284031215615881578081fd5b5051919050565b6000806040838503121561589a578182fd5b82359150602083013561530e81615ef6565b600080604083850312156158be578182fd5b50508035926020909101359150565b600082516158df818460208701615de3565b9190910192915050565b6001600160a01b0391909116815260200190565b6001600160a01b03949094168452600292830b6020850152910b60408301526001600160801b0316606082015260a06080820181905260009082015260c00190565b6001600160a01b03959095168552600293840b60208601529190920b60408401526001600160801b03918216606084015216608082015260a00190565b6001600160a01b039590951685526020850193909352604084019190915260608301526001600160801b0316608082015260a00190565b6020808252825182820181905260009190848201906040850190845b818110156159f157835163ffffffff16835292840192918401916001016159cf565b50909695505050505050565b60029190910b815260200190565b600293840b81529190920b60208201526001600160801b03909116604082015260600190565b6020815260008251806020840152615a50816040850160208701615de3565b601f01601f19169190910160400192915050565b60208082526017908201527647656c61746f666965643a204f6e6c792067656c61746f60481b604082015260600190565b6020808252600b908201526a6d616e616765722042505360a81b604082015260600190565b602080825260159082015274756e61636365707461626c6520736c69707061676560581b604082015260600190565b6020808252602e908201527f496e697469616c697a61626c653a20636f6e747261637420697320616c72656160408201526d191e481a5b9a5d1a585b1a5e995960921b606082015260800190565b602080825260089082015267686967682066656560c01b604082015260600190565b60208082526003908201526242505360e81b604082015260600190565b60208082526022908201527f4f776e61626c653a2063616c6c6572206973206e6f7420746865206d616e616760408201526132b960f11b606082015260800190565b60208082526006908201526506d696e7420360d41b604082015260600190565b6020808252601f908201527f5265656e7472616e637947756172643a207265656e7472616e742063616c6c00604082015260600190565b604051601f8201601f191681016001600160401b0381118282101715615c3757615c37615ee0565b604052919050565b60006001600160401b03821115615c5857615c58615ee0565b5060051b60200190565b600061ffff808316818516808303821115615c7f57615c7f615eb4565b01949350505050565b60006001600160a01b03828116848216808303821115615c7f57615c7f615eb4565b60008219821115615cbd57615cbd615eb4565b500190565b60006001600160a01b0383811680615cdc57615cdc615eca565b92169190910492915050565b600082615cf757615cf7615eca565b500490565b60006001600160a01b0382811684821681151582840482111615615d2257615d22615eb4565b02949350505050565b6000816000190483118215151615615d4557615d45615eb4565b500290565b60008083128015600160ff1b850184121615615d6857615d68615eb4565b6001600160ff1b0384018313811615615d8357615d83615eb4565b50500390565b600061ffff83811690831681811015615da457615da4615eb4565b039392505050565b60006001600160a01b0383811690831681811015615da457615da4615eb4565b600082821015615dde57615dde615eb4565b500390565b60005b83811015615dfe578181015183820152602001615de6565b83811115610dd15750506000910152565b600181811c90821680615e2357607f821691505b60208210811415615e4457634e487b7160e01b600052602260045260246000fd5b50919050565b6000600019821415615e5e57615e5e615eb4565b5060010190565b600082615e7457615e74615eca565b500690565b60008160020b627fffff19811415615e9357615e93615eb4565b9003919050565b6000600160ff1b821415615eb057615eb0615eb4565b0390565b634e487b7160e01b600052601160045260246000fd5b634e487b7160e01b600052601260045260246000fd5b634e487b7160e01b600052604160045260246000fd5b6001600160a01b03811681146142af57600080fd5b8060020b81146142af57600080fd5b61ffff811681146142af57600080fd5b63ffffffff811681146142af57600080fdfea40d93a72f8af7b904f2e4a60095955bfcaa3c724969f731bd8bc1fda226a1718be0079c531659141344cd1fd0a4f28419497f9722a3daafe3b4186f6b6457e0ddf252ad1be2c89b69c2b068fc378daa952ba7f163c4a11628f55a4df523b3efa2646970667358221220714ff6ebf564c6c716e34d83d29caef56a3d12a3f5ab6e6d8ee29bc128a35a4164736f6c63430008040033",
  "devdoc": {
    "kind": "dev",
    "methods": {
      "allowance(address,address)": {
        "details": "See {IERC20-allowance}."
      },
      "approve(address,uint256)": {
        "details": "See {IERC20-approve}. Requirements: - `spender` cannot be the zero address."
      },
      "balanceOf(address)": {
        "details": "See {IERC20-balanceOf}."
      },
      "burn(uint256,address)": {
        "params": {
          "burnAmount": "The number of G-UNI tokens to burn",
          "receiver": "The account to receive the underlying amounts of token0 and token1"
        },
        "returns": {
          "amount0": "amount of token0 transferred to receiver for burning `burnAmount`",
          "amount1": "amount of token1 transferred to receiver for burning `burnAmount`",
          "liquidityBurned": "amount of liquidity removed from the underlying Uniswap V3 position"
        }
      },
      "decimals()": {
        "details": "Returns the number of decimals used to get its user representation. For example, if `decimals` equals `2`, a balance of `505` tokens should be displayed to a user as `5,05` (`505 / 10 ** 2`). Tokens usually opt for a value of 18, imitating the relationship between Ether and Wei. This is the value {ERC20} uses, unless this function is overridden; NOTE: This information is only used for _display_ purposes: it in no way affects any of the arithmetic of the contract, including {IERC20-balanceOf} and {IERC20-transfer}."
      },
      "decreaseAllowance(address,uint256)": {
        "details": "Atomically decreases the allowance granted to `spender` by the caller. This is an alternative to {approve} that can be used as a mitigation for problems described in {IERC20-approve}. Emits an {Approval} event indicating the updated allowance. Requirements: - `spender` cannot be the zero address. - `spender` must have allowance for the caller of at least `subtractedValue`."
      },
      "executiveRebalance(int24,int24,uint160,uint256)": {
        "details": "When changing the range the inventory of token0 and token1 may be rebalanced with a swap to deposit as much liquidity as possible into the new position. Swap parameters can be computed by simulating the whole operation: remove all liquidity, deposit as much as possible into new position, then observe how much of token0 or token1 is leftover. Swap a proportion of this leftover to deposit more liquidity into the position, since any leftover will be unused and sit idle until the next rebalance.",
        "params": {
          "newLowerTick": "The new lower bound of the position's range",
          "newUpperTick": "The new upper bound of the position's range",
          "swapAmountBPS": "amount of leftover token to swap in Basis Points. Pass 0 for no swap.",
          "swapThresholdPrice": "slippage parameter on the swap as a min or max sqrtPriceX96"
        }
      },
      "getMintAmounts(uint256,uint256)": {
        "params": {
          "amount0Max": "The maximum amount of token1 to forward on mint"
        },
        "returns": {
          "amount0": "actual amount of token0 to forward when minting `mintAmount`",
          "amount1": "actual amount of token1 to forward when minting `mintAmount`",
          "mintAmount": "maximum number of G-UNI tokens to mint"
        }
      },
      "getUnderlyingBalances()": {
        "returns": {
          "amount0Current": "current total underlying balance of token0",
          "amount1Current": "current total underlying balance of token1"
        }
      },
      "increaseAllowance(address,uint256)": {
        "details": "Atomically increases the allowance granted to `spender` by the caller. This is an alternative to {approve} that can be used as a mitigation for problems described in {IERC20-approve}. Emits an {Approval} event indicating the updated allowance. Requirements: - `spender` cannot be the zero address."
      },
      "initialize(string,string,address,uint16,int24,int24,address)": {
        "params": {
          "_lowerTick": "initial upperTick (only changeable with executiveRebalance)",
          "_managerFeeBPS": "proportion of fees earned that go to manager treasury note that the 4 above params are NOT UPDATEABLE AFTER INILIALIZATION",
          "_manager_": "address of manager (ownership can be transferred)",
          "_name": "name of G-UNI token",
          "_pool": "address of Uniswap V3 pool",
          "_symbol": "symbol of G-UNI token"
        }
      },
      "initializeManagerFee(uint16)": {
        "params": {
          "_managerFeeBPS": "proportion of fees earned that are credited to manager in Basis Points"
        }
      },
      "manager()": {
        "details": "Returns the address of the current manager."
      },
      "mint(uint256,address)": {
        "details": "to compute the amouint of tokens necessary to mint `mintAmount` see getMintAmounts",
        "params": {
          "mintAmount": "The number of G-UNI tokens to mint",
          "receiver": "The account to receive the minted tokens"
        },
        "returns": {
          "amount0": "amount of token0 transferred from msg.sender to mint `mintAmount`",
          "amount1": "amount of token1 transferred from msg.sender to mint `mintAmount`",
          "liquidityMinted": "amount of liquidity added to the underlying Uniswap V3 position"
        }
      },
      "name()": {
        "details": "Returns the name of the token."
      },
      "renounceOwnership()": {
        "details": "Leaves the contract without manager. It will not be possible to call `onlyManager` functions anymore. Can only be called by the current manager. NOTE: Renouncing ownership will leave the contract without an manager, thereby removing any functionality that is only available to the manager."
      },
      "symbol()": {
        "details": "Returns the symbol of the token, usually a shorter version of the name."
      },
      "totalSupply()": {
        "details": "See {IERC20-totalSupply}."
      },
      "transfer(address,uint256)": {
        "details": "See {IERC20-transfer}. Requirements: - `recipient` cannot be the zero address. - the caller must have a balance of at least `amount`."
      },
      "transferFrom(address,address,uint256)": {
        "details": "See {IERC20-transferFrom}. Emits an {Approval} event indicating the updated allowance. This is not required by the EIP. See the note at the beginning of {ERC20}. Requirements: - `sender` and `recipient` cannot be the zero address. - `sender` must have a balance of at least `amount`. - the caller must have allowance for ``sender``'s tokens of at least `amount`."
      },
      "transferOwnership(address)": {
        "details": "Transfers ownership of the contract to a new account (`newOwner`). Can only be called by the current manager."
      },
      "updateGelatoParams(uint16,uint16,uint16,uint32,address)": {
        "params": {
          "newRebalanceBPS": "controls frequency of gelato rebalances: gas fee to execute rebalance can be gelatoRebalanceBPS proportion of fees earned since last rebalance",
          "newSlippageBPS": "maximum slippage on swaps during gelato rebalance",
          "newSlippageInterval": "length of time for TWAP used in computing slippage on swaps",
          "newTreasury": "address where managerFee withdrawals are sent",
          "newWithdrawBPS": "controls frequency of gelato withdrawals: gas fee to execute withdrawal can be gelatoWithdrawBPS proportion of fees accrued since last withdraw"
        }
      }
    },
    "version": 1
  },
  "userdoc": {
    "kind": "user",
    "methods": {
      "burn(uint256,address)": {
        "notice": "burn G-UNI tokens (fractional shares of a Uniswap V3 position) and receive tokens"
      },
      "executiveRebalance(int24,int24,uint160,uint256)": {
        "notice": "Change the range of underlying UniswapV3 position, only manager can call"
      },
      "getMintAmounts(uint256,uint256)": {
        "notice": "compute maximum G-UNI tokens that can be minted from `amount0Max` and `amount1Max`"
      },
      "getUnderlyingBalances()": {
        "notice": "compute total underlying holdings of the G-UNI token supply includes current liquidity invested in uniswap position, current fees earned and any uninvested leftover (but does not include manager or gelato fees accrued)"
      },
      "initialize(string,string,address,uint16,int24,int24,address)": {
        "notice": "initialize storage variables on a new G-UNI pool, only called once"
      },
      "initializeManagerFee(uint16)": {
        "notice": "initializeManagerFee sets a managerFee, only manager can call. If a manager fee was not set in the initialize function it can be set here but ONLY ONCE- after it is set to a non-zero value, managerFee can never be set again."
      },
      "mint(uint256,address)": {
        "notice": "mint fungible G-UNI tokens, fractional shares of a Uniswap V3 position"
      },
      "rebalance(uint160,uint256,uint256,address)": {
        "notice": "Reinvest fees earned into underlying position, only gelato executors can call Position bounds CANNOT be altered by gelato, only manager may via executiveRebalance. Frequency of rebalance configured with gelatoRebalanceBPS, alterable by manager."
      },
      "uniswapV3MintCallback(uint256,uint256,bytes)": {
        "notice": "Uniswap V3 callback fn, called back on pool.mint"
      },
      "uniswapV3SwapCallback(int256,int256,bytes)": {
        "notice": "Uniswap v3 callback fn, called back on pool.swap"
      },
      "updateGelatoParams(uint16,uint16,uint16,uint32,address)": {
        "notice": "change configurable parameters, only manager can call"
      },
      "withdrawGelatoBalance(uint256,address)": {
        "notice": "withdraw gelato fees accrued, only gelato executors can call. Frequency of withdrawals configured with gelatoWithdrawBPS, alterable by manager."
      },
      "withdrawManagerBalance(uint256,address)": {
        "notice": "withdraw manager fees accrued, only gelato executors can call. Target account to receive fees is managerTreasury, alterable by manager. Frequency of withdrawals configured with gelatoWithdrawBPS, alterable by manager."
      }
    },
    "version": 1
  },
  "storageLayout": {
    "storage": [
      {
        "astId": 5,
        "contract": "contracts/GUniPool.sol:GUniPool",
        "label": "_initialized",
        "offset": 0,
        "slot": "0",
        "type": "t_bool"
      },
      {
        "astId": 8,
        "contract": "contracts/GUniPool.sol:GUniPool",
        "label": "_initializing",
        "offset": 1,
        "slot": "0",
        "type": "t_bool"
      },
      {
        "astId": 784,
        "contract": "contracts/GUniPool.sol:GUniPool",
        "label": "__gap",
        "offset": 0,
        "slot": "1",
        "type": "t_array(t_uint256)50_storage"
      },
      {
        "astId": 122,
        "contract": "contracts/GUniPool.sol:GUniPool",
        "label": "_balances",
        "offset": 0,
        "slot": "51",
        "type": "t_mapping(t_address,t_uint256)"
      },
      {
        "astId": 128,
        "contract": "contracts/GUniPool.sol:GUniPool",
        "label": "_allowances",
        "offset": 0,
        "slot": "52",
        "type": "t_mapping(t_address,t_mapping(t_address,t_uint256))"
      },
      {
        "astId": 130,
        "contract": "contracts/GUniPool.sol:GUniPool",
        "label": "_totalSupply",
        "offset": 0,
        "slot": "53",
        "type": "t_uint256"
      },
      {
        "astId": 132,
        "contract": "contracts/GUniPool.sol:GUniPool",
        "label": "_name",
        "offset": 0,
        "slot": "54",
        "type": "t_string_storage"
      },
      {
        "astId": 134,
        "contract": "contracts/GUniPool.sol:GUniPool",
        "label": "_symbol",
        "offset": 0,
        "slot": "55",
        "type": "t_string_storage"
      },
      {
        "astId": 636,
        "contract": "contracts/GUniPool.sol:GUniPool",
        "label": "__gap",
        "offset": 0,
        "slot": "56",
        "type": "t_array(t_uint256)45_storage"
      },
      {
        "astId": 59,
        "contract": "contracts/GUniPool.sol:GUniPool",
        "label": "_status",
        "offset": 0,
        "slot": "101",
        "type": "t_uint256"
      },
      {
        "astId": 102,
        "contract": "contracts/GUniPool.sol:GUniPool",
        "label": "__gap",
        "offset": 0,
        "slot": "102",
        "type": "t_array(t_uint256)49_storage"
      },
      {
        "astId": 5575,
        "contract": "contracts/GUniPool.sol:GUniPool",
        "label": "_manager",
        "offset": 0,
        "slot": "151",
        "type": "t_address"
      },
      {
        "astId": 5173,
        "contract": "contracts/GUniPool.sol:GUniPool",
        "label": "lowerTick",
        "offset": 20,
        "slot": "151",
        "type": "t_int24"
      },
      {
        "astId": 5175,
        "contract": "contracts/GUniPool.sol:GUniPool",
        "label": "upperTick",
        "offset": 23,
        "slot": "151",
        "type": "t_int24"
      },
      {
        "astId": 5177,
        "contract": "contracts/GUniPool.sol:GUniPool",
        "label": "gelatoRebalanceBPS",
        "offset": 26,
        "slot": "151",
        "type": "t_uint16"
      },
      {
        "astId": 5179,
        "contract": "contracts/GUniPool.sol:GUniPool",
        "label": "gelatoWithdrawBPS",
        "offset": 28,
        "slot": "151",
        "type": "t_uint16"
      },
      {
        "astId": 5181,
        "contract": "contracts/GUniPool.sol:GUniPool",
        "label": "gelatoSlippageBPS",
        "offset": 30,
        "slot": "151",
        "type": "t_uint16"
      },
      {
        "astId": 5183,
        "contract": "contracts/GUniPool.sol:GUniPool",
        "label": "gelatoSlippageInterval",
        "offset": 0,
        "slot": "152",
        "type": "t_uint32"
      },
      {
        "astId": 5185,
        "contract": "contracts/GUniPool.sol:GUniPool",
        "label": "managerFeeBPS",
        "offset": 4,
        "slot": "152",
        "type": "t_uint16"
      },
      {
        "astId": 5187,
        "contract": "contracts/GUniPool.sol:GUniPool",
        "label": "managerTreasury",
        "offset": 6,
        "slot": "152",
        "type": "t_address"
      },
      {
        "astId": 5189,
        "contract": "contracts/GUniPool.sol:GUniPool",
        "label": "managerBalance0",
        "offset": 0,
        "slot": "153",
        "type": "t_uint256"
      },
      {
        "astId": 5191,
        "contract": "contracts/GUniPool.sol:GUniPool",
        "label": "managerBalance1",
        "offset": 0,
        "slot": "154",
        "type": "t_uint256"
      },
      {
        "astId": 5193,
        "contract": "contracts/GUniPool.sol:GUniPool",
        "label": "gelatoBalance0",
        "offset": 0,
        "slot": "155",
        "type": "t_uint256"
      },
      {
        "astId": 5195,
        "contract": "contracts/GUniPool.sol:GUniPool",
        "label": "gelatoBalance1",
        "offset": 0,
        "slot": "156",
        "type": "t_uint256"
      },
      {
        "astId": 5198,
        "contract": "contracts/GUniPool.sol:GUniPool",
        "label": "pool",
        "offset": 0,
        "slot": "157",
        "type": "t_contract(IUniswapV3Pool)1559"
      },
      {
        "astId": 5201,
        "contract": "contracts/GUniPool.sol:GUniPool",
        "label": "token0",
        "offset": 0,
        "slot": "158",
        "type": "t_contract(IERC20)909"
      },
      {
        "astId": 5204,
        "contract": "contracts/GUniPool.sol:GUniPool",
        "label": "token1",
        "offset": 0,
        "slot": "159",
        "type": "t_contract(IERC20)909"
      }
    ],
    "types": {
      "t_address": {
        "encoding": "inplace",
        "label": "address",
        "numberOfBytes": "20"
      },
      "t_array(t_uint256)45_storage": {
        "base": "t_uint256",
        "encoding": "inplace",
        "label": "uint256[45]",
        "numberOfBytes": "1440"
      },
      "t_array(t_uint256)49_storage": {
        "base": "t_uint256",
        "encoding": "inplace",
        "label": "uint256[49]",
        "numberOfBytes": "1568"
      },
      "t_array(t_uint256)50_storage": {
        "base": "t_uint256",
        "encoding": "inplace",
        "label": "uint256[50]",
        "numberOfBytes": "1600"
      },
      "t_bool": {
        "encoding": "inplace",
        "label": "bool",
        "numberOfBytes": "1"
      },
      "t_contract(IERC20)909": {
        "encoding": "inplace",
        "label": "contract IERC20",
        "numberOfBytes": "20"
      },
      "t_contract(IUniswapV3Pool)1559": {
        "encoding": "inplace",
        "label": "contract IUniswapV3Pool",
        "numberOfBytes": "20"
      },
      "t_int24": {
        "encoding": "inplace",
        "label": "int24",
        "numberOfBytes": "3"
      },
      "t_mapping(t_address,t_mapping(t_address,t_uint256))": {
        "encoding": "mapping",
        "key": "t_address",
        "label": "mapping(address => mapping(address => uint256))",
        "numberOfBytes": "32",
        "value": "t_mapping(t_address,t_uint256)"
      },
      "t_mapping(t_address,t_uint256)": {
        "encoding": "mapping",
        "key": "t_address",
        "label": "mapping(address => uint256)",
        "numberOfBytes": "32",
        "value": "t_uint256"
      },
      "t_string_storage": {
        "encoding": "bytes",
        "label": "string",
        "numberOfBytes": "32"
      },
      "t_uint16": {
        "encoding": "inplace",
        "label": "uint16",
        "numberOfBytes": "2"
      },
      "t_uint256": {
        "encoding": "inplace",
        "label": "uint256",
        "numberOfBytes": "32"
      },
      "t_uint32": {
        "encoding": "inplace",
        "label": "uint32",
        "numberOfBytes": "4"
      }
    }
  }
}