{
  "address": "0x85BC0b57910260120fd31A09Ab773C33aDEF185A",
  "abi": [
    {
      "inputs": [
        {
          "internalType": "contract IUniswapV3Pool",
          "name": "_pool",
          "type": "address"
        },
        {
          "internalType": "address payable",
          "name": "_gelato",
          "type": "address"
        }
      ],
      "stateMutability": "nonpayable",
      "type": "constructor"
    },
    {
      "anonymous": false,
      "inputs": [
        {
          "indexed": true,
          "internalType": "address",
          "name": "owner",
          "type": "address"
        },
        {
          "indexed": true,
          "internalType": "address",
          "name": "spender",
          "type": "address"
        },
        {
          "indexed": false,
          "internalType": "uint256",
          "name": "value",
          "type": "uint256"
        }
      ],
      "name": "Approval",
      "type": "event"
    },
    {
      "anonymous": false,
      "inputs": [
        {
          "indexed": false,
          "internalType": "address",
          "name": "receiver",
          "type": "address"
        },
        {
          "indexed": false,
          "internalType": "uint256",
          "name": "burnAmount",
          "type": "uint256"
        },
        {
          "indexed": false,
          "internalType": "uint256",
          "name": "amount0Out",
          "type": "uint256"
        },
        {
          "indexed": false,
          "internalType": "uint256",
          "name": "amount1Out",
          "type": "uint256"
        },
        {
          "indexed": false,
          "internalType": "uint128",
          "name": "liquidityBurned",
          "type": "uint128"
        }
      ],
      "name": "Burned",
      "type": "event"
    },
    {
      "anonymous": false,
      "inputs": [
        {
          "indexed": false,
          "internalType": "address",
          "name": "receiver",
          "type": "address"
        },
        {
          "indexed": false,
          "internalType": "uint256",
          "name": "mintAmount",
          "type": "uint256"
        },
        {
          "indexed": false,
          "internalType": "uint256",
          "name": "amount0In",
          "type": "uint256"
        },
        {
          "indexed": false,
          "internalType": "uint256",
          "name": "amount1In",
          "type": "uint256"
        },
        {
          "indexed": false,
          "internalType": "uint128",
          "name": "liquidityMinted",
          "type": "uint128"
        }
      ],
      "name": "Minted",
      "type": "event"
    },
    {
      "anonymous": false,
      "inputs": [
        {
          "indexed": true,
          "internalType": "address",
          "name": "previousOwner",
          "type": "address"
        },
        {
          "indexed": true,
          "internalType": "address",
          "name": "newOwner",
          "type": "address"
        }
      ],
      "name": "OwnershipTransferred",
      "type": "event"
    },
    {
      "anonymous": false,
      "inputs": [
        {
          "indexed": false,
          "internalType": "int24",
          "name": "lowerTick",
          "type": "int24"
        },
        {
          "indexed": false,
          "internalType": "int24",
          "name": "upperTick",
          "type": "int24"
        }
      ],
      "name": "Rebalance",
      "type": "event"
    },
    {
      "anonymous": false,
      "inputs": [
        {
          "indexed": true,
          "internalType": "address",
          "name": "from",
          "type": "address"
        },
        {
          "indexed": true,
          "internalType": "address",
          "name": "to",
          "type": "address"
        },
        {
          "indexed": false,
          "internalType": "uint256",
          "name": "value",
          "type": "uint256"
        }
      ],
      "name": "Transfer",
      "type": "event"
    },
    {
      "anonymous": false,
      "inputs": [
        {
          "indexed": false,
          "internalType": "uint16",
          "name": "adminFeeOld",
          "type": "uint16"
        },
        {
          "indexed": false,
          "internalType": "uint16",
          "name": "adminFeeNew",
          "type": "uint16"
        },
        {
          "indexed": false,
          "internalType": "uint16",
          "name": "rebalanceFeeOld",
          "type": "uint16"
        },
        {
          "indexed": false,
          "internalType": "uint16",
          "name": "rebalanceFeeNew",
          "type": "uint16"
        },
        {
          "indexed": false,
          "internalType": "uint16",
          "name": "withdrawFeeOld",
          "type": "uint16"
        },
        {
          "indexed": false,
          "internalType": "uint16",
          "name": "withdrawFeeNew",
          "type": "uint16"
        }
      ],
      "name": "UpdateFeeParams",
      "type": "event"
    },
    {
      "anonymous": false,
      "inputs": [
        {
          "indexed": false,
          "internalType": "uint32",
          "name": "observationSecondsOld",
          "type": "uint32"
        },
        {
          "indexed": false,
          "internalType": "uint32",
          "name": "observationSecondsNew",
          "type": "uint32"
        },
        {
          "indexed": false,
          "internalType": "uint16",
          "name": "maxSlippageBPSOld",
          "type": "uint16"
        },
        {
          "indexed": false,
          "internalType": "uint16",
          "name": "maxSlippageBPSNew",
          "type": "uint16"
        }
      ],
      "name": "UpdateSlippageParams",
      "type": "event"
    },
    {
      "anonymous": false,
      "inputs": [
        {
          "indexed": false,
          "internalType": "uint256",
          "name": "supplyCapOld",
          "type": "uint256"
        },
        {
          "indexed": false,
          "internalType": "uint256",
          "name": "supplyCapNew",
          "type": "uint256"
        }
      ],
      "name": "UpdateSupplyCap",
      "type": "event"
    },
    {
      "anonymous": false,
      "inputs": [
        {
          "indexed": false,
          "internalType": "address",
          "name": "treasuryOld",
          "type": "address"
        },
        {
          "indexed": false,
          "internalType": "address",
          "name": "treasuryNew",
          "type": "address"
        }
      ],
      "name": "UpdateTreasury",
      "type": "event"
    },
    {
      "inputs": [],
      "name": "DOMAIN_SEPARATOR",
      "outputs": [
        {
          "internalType": "bytes32",
          "name": "",
          "type": "bytes32"
        }
      ],
      "stateMutability": "view",
      "type": "function"
    },
    {
      "inputs": [],
      "name": "GELATO",
      "outputs": [
        {
          "internalType": "address payable",
          "name": "",
          "type": "address"
        }
      ],
      "stateMutability": "view",
      "type": "function"
    },
    {
      "inputs": [],
      "name": "adminBalanceToken0",
      "outputs": [
        {
          "internalType": "uint256",
          "name": "",
          "type": "uint256"
        }
      ],
      "stateMutability": "view",
      "type": "function"
    },
    {
      "inputs": [],
      "name": "adminBalanceToken1",
      "outputs": [
        {
          "internalType": "uint256",
          "name": "",
          "type": "uint256"
        }
      ],
      "stateMutability": "view",
      "type": "function"
    },
    {
      "inputs": [],
      "name": "adminFeeBPS",
      "outputs": [
        {
          "internalType": "uint16",
          "name": "",
          "type": "uint16"
        }
      ],
      "stateMutability": "view",
      "type": "function"
    },
    {
      "inputs": [
        {
          "internalType": "address",
          "name": "owner",
          "type": "address"
        },
        {
          "internalType": "address",
          "name": "spender",
          "type": "address"
        }
      ],
      "name": "allowance",
      "outputs": [
        {
          "internalType": "uint256",
          "name": "",
          "type": "uint256"
        }
      ],
      "stateMutability": "view",
      "type": "function"
    },
    {
      "inputs": [
        {
          "internalType": "address",
          "name": "spender",
          "type": "address"
        },
        {
          "internalType": "uint256",
          "name": "amount",
          "type": "uint256"
        }
      ],
      "name": "approve",
      "outputs": [
        {
          "internalType": "bool",
          "name": "",
          "type": "bool"
        }
      ],
      "stateMutability": "nonpayable",
      "type": "function"
    },
    {
      "inputs": [
        {
          "internalType": "uint256",
          "name": "feeAmount",
          "type": "uint256"
        },
        {
          "internalType": "address",
          "name": "feeToken",
          "type": "address"
        }
      ],
      "name": "autoWithdrawAdminBalance",
      "outputs": [],
      "stateMutability": "nonpayable",
      "type": "function"
    },
    {
      "inputs": [],
      "name": "autoWithdrawFeeBPS",
      "outputs": [
        {
          "internalType": "uint16",
          "name": "",
          "type": "uint16"
        }
      ],
      "stateMutability": "view",
      "type": "function"
    },
    {
      "inputs": [
        {
          "internalType": "address",
          "name": "account",
          "type": "address"
        }
      ],
      "name": "balanceOf",
      "outputs": [
        {
          "internalType": "uint256",
          "name": "",
          "type": "uint256"
        }
      ],
      "stateMutability": "view",
      "type": "function"
    },
    {
      "inputs": [
        {
          "internalType": "uint256",
          "name": "_burnAmount",
          "type": "uint256"
        },
        {
          "internalType": "address",
          "name": "_receiver",
          "type": "address"
        }
      ],
      "name": "burn",
      "outputs": [
        {
          "internalType": "uint256",
          "name": "amount0",
          "type": "uint256"
        },
        {
          "internalType": "uint256",
          "name": "amount1",
          "type": "uint256"
        },
        {
          "internalType": "uint128",
          "name": "liquidityBurned",
          "type": "uint128"
        }
      ],
      "stateMutability": "nonpayable",
      "type": "function"
    },
    {
      "inputs": [],
      "name": "decimals",
      "outputs": [
        {
          "internalType": "uint8",
          "name": "",
          "type": "uint8"
        }
      ],
      "stateMutability": "view",
      "type": "function"
    },
    {
      "inputs": [
        {
          "internalType": "address",
          "name": "spender",
          "type": "address"
        },
        {
          "internalType": "uint256",
          "name": "subtractedValue",
          "type": "uint256"
        }
      ],
      "name": "decreaseAllowance",
      "outputs": [
        {
          "internalType": "bool",
          "name": "",
          "type": "bool"
        }
      ],
      "stateMutability": "nonpayable",
      "type": "function"
    },
    {
      "inputs": [],
      "name": "deployer",
      "outputs": [
        {
          "internalType": "address",
          "name": "",
          "type": "address"
        }
      ],
      "stateMutability": "view",
      "type": "function"
    },
    {
      "inputs": [
        {
          "internalType": "int24",
          "name": "_newLowerTick",
          "type": "int24"
        },
        {
          "internalType": "int24",
          "name": "_newUpperTick",
          "type": "int24"
        },
        {
          "internalType": "uint160",
          "name": "_swapThresholdPrice",
          "type": "uint160"
        },
        {
          "internalType": "uint256",
          "name": "_swapAmountBPS",
          "type": "uint256"
        }
      ],
      "name": "executiveRebalance",
      "outputs": [],
      "stateMutability": "nonpayable",
      "type": "function"
    },
    {
      "inputs": [
        {
          "internalType": "uint256",
          "name": "amount0Max",
          "type": "uint256"
        },
        {
          "internalType": "uint256",
          "name": "amount1Max",
          "type": "uint256"
        }
      ],
      "name": "getMintAmounts",
      "outputs": [
        {
          "internalType": "uint256",
          "name": "amount0",
          "type": "uint256"
        },
        {
          "internalType": "uint256",
          "name": "amount1",
          "type": "uint256"
        },
        {
          "internalType": "uint256",
          "name": "mintAmount",
          "type": "uint256"
        }
      ],
      "stateMutability": "view",
      "type": "function"
    },
    {
      "inputs": [],
      "name": "getPositionID",
      "outputs": [
        {
          "internalType": "bytes32",
          "name": "positionID",
          "type": "bytes32"
        }
      ],
      "stateMutability": "view",
      "type": "function"
    },
    {
      "inputs": [
        {
          "internalType": "address",
          "name": "spender",
          "type": "address"
        },
        {
          "internalType": "uint256",
          "name": "addedValue",
          "type": "uint256"
        }
      ],
      "name": "increaseAllowance",
      "outputs": [
        {
          "internalType": "bool",
          "name": "",
          "type": "bool"
        }
      ],
      "stateMutability": "nonpayable",
      "type": "function"
    },
    {
      "inputs": [
        {
          "internalType": "uint256",
          "name": "_supplyCap_",
          "type": "uint256"
        },
        {
          "internalType": "int24",
          "name": "_lowerTick_",
          "type": "int24"
        },
        {
          "internalType": "int24",
          "name": "_upperTick_",
          "type": "int24"
        },
        {
          "internalType": "address",
          "name": "_owner_",
          "type": "address"
        }
      ],
      "name": "initialize",
      "outputs": [],
      "stateMutability": "nonpayable",
      "type": "function"
    },
    {
      "inputs": [],
      "name": "lowerTick",
      "outputs": [
        {
          "internalType": "int24",
          "name": "",
          "type": "int24"
        }
      ],
      "stateMutability": "view",
      "type": "function"
    },
    {
      "inputs": [],
      "name": "maxSlippageBPS",
      "outputs": [
        {
          "internalType": "uint16",
          "name": "",
          "type": "uint16"
        }
      ],
      "stateMutability": "view",
      "type": "function"
    },
    {
      "inputs": [
        {
          "internalType": "uint256",
          "name": "mintAmount",
          "type": "uint256"
        },
        {
          "internalType": "address",
          "name": "receiver",
          "type": "address"
        }
      ],
      "name": "mint",
      "outputs": [
        {
          "internalType": "uint256",
          "name": "amount0",
          "type": "uint256"
        },
        {
          "internalType": "uint256",
          "name": "amount1",
          "type": "uint256"
        },
        {
          "internalType": "uint128",
          "name": "liquidityMinted",
          "type": "uint128"
        }
      ],
      "stateMutability": "nonpayable",
      "type": "function"
    },
    {
      "inputs": [],
      "name": "name",
      "outputs": [
        {
          "internalType": "string",
          "name": "",
          "type": "string"
        }
      ],
      "stateMutability": "view",
      "type": "function"
    },
    {
      "inputs": [
        {
          "internalType": "address",
          "name": "owner",
          "type": "address"
        }
      ],
      "name": "nonces",
      "outputs": [
        {
          "internalType": "uint256",
          "name": "",
          "type": "uint256"
        }
      ],
      "stateMutability": "view",
      "type": "function"
    },
    {
      "inputs": [],
      "name": "observationSeconds",
      "outputs": [
        {
          "internalType": "uint32",
          "name": "",
          "type": "uint32"
        }
      ],
      "stateMutability": "view",
      "type": "function"
    },
    {
      "inputs": [],
      "name": "owner",
      "outputs": [
        {
          "internalType": "address",
          "name": "",
          "type": "address"
        }
      ],
      "stateMutability": "view",
      "type": "function"
    },
    {
      "inputs": [
        {
          "internalType": "address",
          "name": "owner",
          "type": "address"
        },
        {
          "internalType": "address",
          "name": "spender",
          "type": "address"
        },
        {
          "internalType": "uint256",
          "name": "value",
          "type": "uint256"
        },
        {
          "internalType": "uint256",
          "name": "deadline",
          "type": "uint256"
        },
        {
          "internalType": "uint8",
          "name": "v",
          "type": "uint8"
        },
        {
          "internalType": "bytes32",
          "name": "r",
          "type": "bytes32"
        },
        {
          "internalType": "bytes32",
          "name": "s",
          "type": "bytes32"
        }
      ],
      "name": "permit",
      "outputs": [],
      "stateMutability": "nonpayable",
      "type": "function"
    },
    {
      "inputs": [],
      "name": "pool",
      "outputs": [
        {
          "internalType": "contract IUniswapV3Pool",
          "name": "",
          "type": "address"
        }
      ],
      "stateMutability": "view",
      "type": "function"
    },
    {
      "inputs": [
        {
          "internalType": "uint160",
          "name": "_swapThresholdPrice",
          "type": "uint160"
        },
        {
          "internalType": "uint256",
          "name": "_swapAmountBPS",
          "type": "uint256"
        },
        {
          "internalType": "uint256",
          "name": "_feeAmount",
          "type": "uint256"
        },
        {
          "internalType": "address",
          "name": "_paymentToken",
          "type": "address"
        }
      ],
      "name": "rebalance",
      "outputs": [],
      "stateMutability": "nonpayable",
      "type": "function"
    },
    {
      "inputs": [],
      "name": "rebalanceFeeBPS",
      "outputs": [
        {
          "internalType": "uint16",
          "name": "",
          "type": "uint16"
        }
      ],
      "stateMutability": "view",
      "type": "function"
    },
    {
      "inputs": [],
      "name": "renounceOwnership",
      "outputs": [],
      "stateMutability": "nonpayable",
      "type": "function"
    },
    {
      "inputs": [],
      "name": "supplyCap",
      "outputs": [
        {
          "internalType": "uint256",
          "name": "",
          "type": "uint256"
        }
      ],
      "stateMutability": "view",
      "type": "function"
    },
    {
      "inputs": [],
      "name": "symbol",
      "outputs": [
        {
          "internalType": "string",
          "name": "",
          "type": "string"
        }
      ],
      "stateMutability": "view",
      "type": "function"
    },
    {
      "inputs": [],
      "name": "token0",
      "outputs": [
        {
          "internalType": "contract IERC20",
          "name": "",
          "type": "address"
        }
      ],
      "stateMutability": "view",
      "type": "function"
    },
    {
      "inputs": [],
      "name": "token1",
      "outputs": [
        {
          "internalType": "contract IERC20",
          "name": "",
          "type": "address"
        }
      ],
      "stateMutability": "view",
      "type": "function"
    },
    {
      "inputs": [],
      "name": "totalSupply",
      "outputs": [
        {
          "internalType": "uint256",
          "name": "",
          "type": "uint256"
        }
      ],
      "stateMutability": "view",
      "type": "function"
    },
    {
      "inputs": [
        {
          "internalType": "address",
          "name": "recipient",
          "type": "address"
        },
        {
          "internalType": "uint256",
          "name": "amount",
          "type": "uint256"
        }
      ],
      "name": "transfer",
      "outputs": [
        {
          "internalType": "bool",
          "name": "",
          "type": "bool"
        }
      ],
      "stateMutability": "nonpayable",
      "type": "function"
    },
    {
      "inputs": [
        {
          "internalType": "address",
          "name": "sender",
          "type": "address"
        },
        {
          "internalType": "address",
          "name": "recipient",
          "type": "address"
        },
        {
          "internalType": "uint256",
          "name": "amount",
          "type": "uint256"
        }
      ],
      "name": "transferFrom",
      "outputs": [
        {
          "internalType": "bool",
          "name": "",
          "type": "bool"
        }
      ],
      "stateMutability": "nonpayable",
      "type": "function"
    },
    {
      "inputs": [
        {
          "internalType": "address",
          "name": "newOwner",
          "type": "address"
        }
      ],
      "name": "transferOwnership",
      "outputs": [],
      "stateMutability": "nonpayable",
      "type": "function"
    },
    {
      "inputs": [],
      "name": "treasury",
      "outputs": [
        {
          "internalType": "address",
          "name": "",
          "type": "address"
        }
      ],
      "stateMutability": "view",
      "type": "function"
    },
    {
      "inputs": [
        {
          "internalType": "uint256",
          "name": "_amount0Owed",
          "type": "uint256"
        },
        {
          "internalType": "uint256",
          "name": "_amount1Owed",
          "type": "uint256"
        },
        {
          "internalType": "bytes",
          "name": "_data",
          "type": "bytes"
        }
      ],
      "name": "uniswapV3MintCallback",
      "outputs": [],
      "stateMutability": "nonpayable",
      "type": "function"
    },
    {
      "inputs": [
        {
          "internalType": "int256",
          "name": "amount0Delta",
          "type": "int256"
        },
        {
          "internalType": "int256",
          "name": "amount1Delta",
          "type": "int256"
        },
        {
          "internalType": "bytes",
          "name": "",
          "type": "bytes"
        }
      ],
      "name": "uniswapV3SwapCallback",
      "outputs": [],
      "stateMutability": "nonpayable",
      "type": "function"
    },
    {
      "inputs": [
        {
          "internalType": "uint16",
          "name": "newAdminFeeBPS",
          "type": "uint16"
        },
        {
          "internalType": "uint16",
          "name": "newRebalanceFeeBPS",
          "type": "uint16"
        },
        {
          "internalType": "uint16",
          "name": "newWithdrawFeeBPS",
          "type": "uint16"
        }
      ],
      "name": "updateFeeParams",
      "outputs": [],
      "stateMutability": "nonpayable",
      "type": "function"
    },
    {
      "inputs": [
        {
          "internalType": "uint32",
          "name": "newObservationSeconds",
          "type": "uint32"
        },
        {
          "internalType": "uint16",
          "name": "newMaxSlippageBPS",
          "type": "uint16"
        }
      ],
      "name": "updateSlippageParams",
      "outputs": [],
      "stateMutability": "nonpayable",
      "type": "function"
    },
    {
      "inputs": [
        {
          "internalType": "uint256",
          "name": "newSupplyCap",
          "type": "uint256"
        }
      ],
      "name": "updateSupplyCap",
      "outputs": [],
      "stateMutability": "nonpayable",
      "type": "function"
    },
    {
      "inputs": [
        {
          "internalType": "address",
          "name": "newTreasury",
          "type": "address"
        }
      ],
      "name": "updateTreasury",
      "outputs": [],
      "stateMutability": "nonpayable",
      "type": "function"
    },
    {
      "inputs": [],
      "name": "upperTick",
      "outputs": [
        {
          "internalType": "int24",
          "name": "",
          "type": "int24"
        }
      ],
      "stateMutability": "view",
      "type": "function"
    },
    {
      "inputs": [],
      "name": "withdrawAdminBalance",
      "outputs": [],
      "stateMutability": "nonpayable",
      "type": "function"
    }
  ],
  "transactionHash": "0x098bb595638dc59e0722b8b0e65f3620af04d2571b4ec2dd3deb583fba972c38",
  "args": [
    "0x25D0Ea8FAc3Ce2313c6a478DA92e0ccf95213B1A",
    "0xCc4CcD69D31F9FfDBD3BFfDe49c6aA886DaB98d9"
  ],
  "solcInputHash": "af065ec2df5ee92f973c67ec3e330a00",
  "bytecode": "0x6101e06040527f6e71edae12b1b97f4d1f60370fef10105fa2faae0126114a169c64845d6126c9610120523480156200003757600080fd5b5060405162006527380380620065278339810160408190526200005a91620003a5565b8181806040518060400160405280601d81526020017f47656c61746f20556e697377617020563320494e53542f455448204c5000000081525080604051806040016040528060018152602001603160f81b81525060405180602001604052806000815250604051806020016040528060008152508160039080519060200190620000e6929190620002d9565b508051620000fc906004906020840190620002d9565b5050825160209384012082519284019290922060c083815260e08290524660a0818152604080517f8b73c3c69bb8fe3d512ecc4cf759cc79239f7b179b0ffacaa9a75d522b39400f818a0181905281830198909852606080820196909652608080820194909452308184015281518082039093018352938401808252825192890192909220909252610100959095526001600160601b031997831b881661014052600160075533831b610160529189901b90961661018052630dfe168160e01b90925250516001600160a01b03861693630dfe1681935060c4808201939291829003018186803b158015620001f057600080fd5b505afa15801562000205573d6000803e3d6000fd5b505050506040513d601f19601f820116820180604052508101906200022b91906200037f565b6001600160a01b03166101a0816001600160a01b031660601b81525050816001600160a01b031663d21220a76040518163ffffffff1660e01b815260040160206040518083038186803b1580156200028257600080fd5b505afa15801562000297573d6000803e3d6000fd5b505050506040513d601f19601f82011682018060405250810190620002bd91906200037f565b60601b6001600160601b0319166101c052506200043992505050565b828054620002e790620003e3565b90600052602060002090601f0160209004810192826200030b576000855562000356565b82601f106200032657805160ff191683800117855562000356565b8280016001018555821562000356579182015b828111156200035657825182559160200191906001019062000339565b506200036492915062000368565b5090565b5b8082111562000364576000815560010162000369565b60006020828403121562000391578081fd5b81516200039e8162000420565b9392505050565b60008060408385031215620003b8578081fd5b8251620003c58162000420565b6020840151909250620003d88162000420565b809150509250929050565b600181811c90821680620003f857607f821691505b602082108114156200041a57634e487b7160e01b600052602260045260246000fd5b50919050565b6001600160a01b03811681146200043657600080fd5b50565b60805160a05160c05160e05161010051610120516101405160601c6101605160601c6101805160601c6101a05160601c6101c05160601c615ea6620006816000396000818161058e0152818161077001528181610e3901528181610f85015281816112a1015281816113c401528181611a1601528181611d7d01528181611df70152818161218101528181612375015281816126820152818161277f01528181612ed001528181612f7d0152818161311f015281816134f301528181613edf015261418a0152600081816102c40152818161071c01528181610d9001528181610f3e015281816112660152818161131b0152818161197e01528181611d4301528181611dbc01528181612144015281816122d5015281816125ce0152818161274501528181612d2201528181612e30015281816130880152818161345301528181613e3f01526140d601526000818161031a0152818161113e0152818161145c015281816115ab015281816117db01528181611ce501528181612104015281816121f0015281816124690152818161252601528181612c470152818161336a01528181613f800152818161403b0152818161424a0152818161431c01528181614b1201528181614d7401528181614e100152614ed20152600081816105db0152611bbb01526000818161065601528181610aed01528181610baa01528181610be401528181610d4e01528181610fe9015261102301526000611e7301526000612ba601526000612bf501526000612bd001526000612b5401526000612b7d0152615ea66000f3fe608060405234801561001057600080fd5b506004361061022f5760003560e01c80621640f91461023457806306fdde031461023e578063095ea7b3146102895780630b8d3d78146102ac5780630dfe1681146102bf57806313b6d260146102f357806316f0115b1461031557806318160ddd1461033c5780631911687a1461034e5780631d8c062b1461036157806323b872dd14610374578063313ce567146103875780633644e51514610396578063395093511461039e57806360656410146103b157806361d027b3146103c457806370945c78146103dc57806370a08231146103e4578063715018a61461040d578063727dd228146104155780637ecebe00146104365780637f51bb1f1461044957806382d2a3fa1461045c57806387a4a28c146104645780638da5cb5b146104775780638f770ad01461047f57806394bf804d1461048757806395d89b41146104be5780639894f21a146104df5780639b1344ac1461050d578063a457c2d71461051f578063a9059cbb14610532578063aa09474714610545578063b0085e0f14610557578063b74f27131461056a578063bfd72ff11461057d578063d21220a714610589578063d3487997146105b0578063d505accf146105c3578063d5f39488146105d6578063dd62ed3e146105fd578063df28408a14610636578063e5a97f071461063e578063eff557a714610651578063f2fde38b14610678578063fa2c6d7c1461068b578063fa461e33146106a3578063fcd3533c146106b6575b600080fd5b61023c6106c9565b005b60408051808201909152601d81527f47656c61746f20556e697377617020563320494e53542f455448204c5000000060208201525b6040516102809190615914565b60405180910390f35b61029c61029736600461531b565b6107a9565b6040519015158152602001610280565b61023c6102ba36600461575a565b6107bf565b6102e67f000000000000000000000000000000000000000000000000000000000000000081565b60405161028091906157d7565b600c54600160201b900461ffff165b60405161ffff9091168152602001610280565b6102e67f000000000000000000000000000000000000000000000000000000000000000081565b6002545b604051908152602001610280565b600954600160201b900461ffff16610302565b61023c61036f366004615654565b61089c565b61029c61038236600461526b565b6109e7565b60405160128152602001610280565b610340610a9a565b61029c6103ac36600461531b565b610aa9565b61023c6103bf36600461560b565b610ae0565b600c54600160301b90046001600160a01b03166102e6565b600a54610340565b6103406103f2366004615217565b6001600160a01b031660009081526020819052604090205490565b61023c610c11565b600954600160481b900460020b5b60405160029190910b8152602001610280565b610340610444366004615217565b610c78565b61023c610457366004615217565b610c98565b600b54610340565b61023c6104723660046156ce565b610d41565b6102e661104e565b600854610340565b61049a6104953660046156ce565b61105d565b6040805193845260208401929092526001600160801b031690820152606001610280565b604080518082019091526005815264472d554e4960d81b6020820152610273565b6104f26104ed366004615739565b611596565b60408051938452602084019290925290820152606001610280565b600954600160301b900460020b610423565b61029c61052d36600461531b565b611700565b61029c61054036600461531b565b61179b565b600c5462010000900461ffff16610302565b61023c61056536600461542a565b6117a8565b61023c6105783660046156f2565b611b01565b600c5461ffff16610302565b6102e67f000000000000000000000000000000000000000000000000000000000000000081565b61023c6105be36600461549d565b611cda565b61023c6105d13660046152ab565b611e1f565b6102e67f000000000000000000000000000000000000000000000000000000000000000081565b61034061060b366004615233565b6001600160a01b03918216600090815260016020908152604080832093909416825291909152205490565b610340611fa1565b61023c61064c36600461569e565b611fab565b6102e67f000000000000000000000000000000000000000000000000000000000000000081565b61023c610686366004615217565b61201b565b60095460405163ffffffff9091168152602001610280565b61023c6106b136600461549d565b6120f9565b61049a6106c43660046156ce565b6121a8565b600260075414156106f55760405162461bcd60e51b81526004016106ec90615a92565b60405180910390fd5b6002600755600a541561074e57600a80546000909155600c5461074c906001600160a01b037f0000000000000000000000000000000000000000000000000000000000000000811691600160301b900416836127fd565b505b600b54156107a257600b80546000909155600c546107a0906001600160a01b037f0000000000000000000000000000000000000000000000000000000000000000811691600160301b900416836127fd565b505b6001600755565b60006107b6338484612865565b50600192915050565b336107c861104e565b6001600160a01b0316146107ee5760405162461bcd60e51b81526004016106ec90615a5d565b6127108161ffff1611156108145760405162461bcd60e51b81526004016106ec9061599c565b6009546040805163ffffffff80841682528516602082015261ffff600160201b9093048316818301529183166060830152517f2bb981757d76130cc06210f9e9f0efd3c8135038a3b5b31b29a672cf0b4c0c859181900360800190a16009805461ffff909216600160201b0265ffffffffffff1990921663ffffffff90931692909217179055565b336108a561104e565b6001600160a01b0316146108cb5760405162461bcd60e51b81526004016106ec90615a5d565b6127108361ffff1611156108f15760405162461bcd60e51b81526004016106ec9061599c565b6127108161ffff1611156109175760405162461bcd60e51b81526004016106ec9061599c565b6127108261ffff16111561093d5760405162461bcd60e51b81526004016106ec9061599c565b600c546040805161ffff808416825286811660208301526201000084048116828401528581166060830152600160201b9093048316608082015291831660a0830152517fb88d9ea1660a0aa26c92f9cecc6024726b6aece1d78c6cbff68b6f867c6bd7409181900360c00190a1600c805461ffff94851663ffffffff199091161762010000938516939093029290921761ffff60201b1916600160201b9190931602919091179055565b60006109f484848461298a565b6001600160a01b038416600090815260016020908152604080832033845290915290205482811015610a795760405162461bcd60e51b815260206004820152602860248201527f45524332303a207472616e7366657220616d6f756e74206578636565647320616044820152676c6c6f77616e636560c01b60648201526084016106ec565b610a8d8533610a888685615cdb565b612865565b60019150505b9392505050565b6000610aa4612b50565b905090565b3360008181526001602090815260408083206001600160a01b038716845290915281205490916107b6918590610a88908690615b47565b8181336001600160a01b037f00000000000000000000000000000000000000000000000000000000000000001614610b2a5760405162461bcd60e51b81526004016106ec9061596b565b610b3686868686612c43565b60095460408051600160301b8304600290810b810b8252600160481b909304830b90920b6020830152600080516020615e11833981519152910160405180910390a16001600160a01b03811673eeeeeeeeeeeeeeeeeeeeeeeeeeeeeeeeeeeeeeee1415610bd557610bd06001600160a01b037f0000000000000000000000000000000000000000000000000000000000000000168361324d565b610c09565b610c096001600160a01b0382167f0000000000000000000000000000000000000000000000000000000000000000846127fd565b505050505050565b33610c1a61104e565b6001600160a01b031614610c405760405162461bcd60e51b81526004016106ec90615a5d565b6006546040516000916001600160a01b031690600080516020615e31833981519152908390a3600680546001600160a01b0319169055565b6001600160a01b0381166000908152600560205260408120545b92915050565b33610ca161104e565b6001600160a01b031614610cc75760405162461bcd60e51b81526004016106ec90615a5d565b600c54604080516001600160a01b03600160301b9093048316815291831660208301527fd101a15f9e9364a1c0a7c4cc8eb4cd9220094e83353915b0c74e09f72ec73edb910160405180910390a1600c80546001600160a01b03909216600160301b02600160301b600160d01b0319909216919091179055565b8181336001600160a01b037f00000000000000000000000000000000000000000000000000000000000000001614610d8b5760405162461bcd60e51b81526004016106ec9061596b565b6000807f00000000000000000000000000000000000000000000000000000000000000006001600160a01b0316856001600160a01b03161415610e3757600c54600a54879161271091610de991600160201b900461ffff1690615c06565b610df39190615bc3565b1015610e115760405162461bcd60e51b81526004016106ec90615a16565b85600a54610e1f9190615cdb565b6000600a819055600b80549190559092509050610f27565b7f00000000000000000000000000000000000000000000000000000000000000006001600160a01b0316856001600160a01b03161415610edf57600c54600b54879161271091610e9291600160201b900461ffff1690615c06565b610e9c9190615bc3565b1015610eba5760405162461bcd60e51b81526004016106ec90615a16565b85600b54610ec89190615cdb565b6000600b819055600a805491905592509050610f27565b60405162461bcd60e51b815260206004820152601d60248201527f666565546f6b656e206d757374206265206120706f6f6c20617373657400000060448201526064016106ec565b8115610f6e57600c54610f6e906001600160a01b037f0000000000000000000000000000000000000000000000000000000000000000811691600160301b900416846127fd565b8015610fb557600c54610fb5906001600160a01b037f0000000000000000000000000000000000000000000000000000000000000000811691600160301b900416836127fd565b50506001600160a01b03811673eeeeeeeeeeeeeeeeeeeeeeeeeeeeeeeeeeeeeeee14156110145761100f6001600160a01b037f0000000000000000000000000000000000000000000000000000000000000000168361324d565b611048565b6110486001600160a01b0382167f0000000000000000000000000000000000000000000000000000000000000000846127fd565b50505050565b6006546001600160a01b031690565b6000806000600260075414156110855760405162461bcd60e51b81526004016106ec90615a92565b6002600755846110d25760405162461bcd60e51b815260206004820152601860248201527706d696e7420616d6f756e74206d75737420626520677420360441b60448201526064016106ec565b60006110dd60025490565b90506110e98682615b47565b600854101561113a5760405162461bcd60e51b815260206004820181905260248201527f47656c61746f556e695633506f6f6c2e6d696e743a205f737570706c7943617060448201526064016106ec565b60007f00000000000000000000000000000000000000000000000000000000000000006001600160a01b0316633850c7bd6040518163ffffffff1660e01b815260040160e06040518083038186803b15801561119557600080fd5b505afa1580156111a9573d6000803e3d6000fd5b505050506040513d601f19601f820116820180604052508101906111cd9190615575565b5050505050509050600082111561120f576000806111ea83613363565b915091506111f9828a866135a9565b9650611206818a866135a9565b95505050611253565b61124d8161122e600960069054906101000a900460020b60020b613600565b61124760098054906101000a900460020b60020b613600565b8a613a12565b90955093505b841561128e5761128e6001600160a01b037f000000000000000000000000000000000000000000000000000000000000000016333088613aaf565b83156112c9576112c96001600160a01b037f000000000000000000000000000000000000000000000000000000000000000016333087613aaf565b611458816112e8600960069054906101000a900460020b60020b613600565b61130160098054906101000a900460020b60020b613600565b600a546040516370a0823160e01b81526001600160a01b037f000000000000000000000000000000000000000000000000000000000000000016906370a08231906113509030906004016157d7565b60206040518083038186803b15801561136857600080fd5b505afa15801561137c573d6000803e3d6000fd5b505050506040513d601f19601f820116820180604052508101906113a091906156b6565b6113aa9190615cdb565b600b546040516370a0823160e01b81526001600160a01b037f000000000000000000000000000000000000000000000000000000000000000016906370a08231906113f99030906004016157d7565b60206040518083038186803b15801561141157600080fd5b505afa158015611425573d6000803e3d6000fd5b505050506040513d601f19601f8201168201806040525081019061144991906156b6565b6114539190615cdb565b613ae7565b92507f00000000000000000000000000000000000000000000000000000000000000006001600160a01b0316633c8a7d8d30600960069054906101000a900460020b60098054906101000a900460020b87306040516020016114ba91906157d7565b6040516020818303038152906040526040518663ffffffff1660e01b81526004016114e99594939291906157eb565b6040805180830381600087803b15801561150257600080fd5b505af1158015611516573d6000803e3d6000fd5b505050506040513d601f19601f8201168201806040525081019061153a919061547a565b50506115468688613baa565b7f55801cfe493000b734571da1694b21e7f66b11e8ce9fdaa0524ecb59105e73e7868887878760405161157d95949392919061586d565b60405180910390a1505060016007819055509250925092565b6000806000806115a560025490565b905060007f00000000000000000000000000000000000000000000000000000000000000006001600160a01b0316633850c7bd6040518163ffffffff1660e01b815260040160e06040518083038186803b15801561160257600080fd5b505afa158015611616573d6000803e3d6000fd5b505050506040513d601f19601f8201168201806040525081019061163a9190615575565b505050505050905060008211156116635761165781838989613c77565b919650945092506116f7565b60006116a482611684600960069054906101000a900460020b60020b613600565b61169d60098054906101000a900460020b60020b613600565b8b8b613ae7565b9050806001600160801b031693506116f0826116d1600960069054906101000a900460020b60020b613600565b6116ea60098054906101000a900460020b60020b613600565b84613a12565b9096509450505b50509250925092565b3360009081526001602090815260408083206001600160a01b0386168452909152812054828110156117825760405162461bcd60e51b815260206004820152602560248201527f45524332303a2064656372656173656420616c6c6f77616e63652062656c6f77604482015264207a65726f60d81b60648201526084016106ec565b6117913385610a888685615cdb565b5060019392505050565b60006107b633848461298a565b336117b161104e565b6001600160a01b0316146117d75760405162461bcd60e51b81526004016106ec90615a5d565b60007f00000000000000000000000000000000000000000000000000000000000000006001600160a01b031663514ea4bf611810613dd2565b6040518263ffffffff1660e01b815260040161182e91815260200190565b60a06040518083038186803b15801561184657600080fd5b505afa15801561185a573d6000803e3d6000fd5b505050506040513d601f19601f8201168201806040525081019061187e919061551f565b50506009549293506000928392506118ad9150600160301b8104600290810b91600160481b9004900b85613e38565b600c549193509150612710906118c79061ffff1684615c06565b6118d19190615bc3565b600a60008282546118e29190615b47565b9091555050600c54612710906118fc9061ffff1683615c06565b6119069190615bc3565b600b60008282546119179190615b47565b909155505060098054600288810b62ffffff908116600160481b0262ffffff60481b19928c900b909116600160301b029190911665ffffffffffff60301b1990921691909117179055600a546040516370a0823160e01b8152600091906001600160a01b037f000000000000000000000000000000000000000000000000000000000000000016906370a08231906119b39030906004016157d7565b60206040518083038186803b1580156119cb57600080fd5b505afa1580156119df573d6000803e3d6000fd5b505050506040513d601f19601f82011682018060405250810190611a0391906156b6565b611a0d9190615cdb565b90506000600b547f00000000000000000000000000000000000000000000000000000000000000006001600160a01b03166370a08231306040518263ffffffff1660e01b8152600401611a6091906157d7565b60206040518083038186803b158015611a7857600080fd5b505afa158015611a8c573d6000803e3d6000fd5b505050506040513d601f19601f82011682018060405250810190611ab091906156b6565b611aba9190615cdb565b9050611aca898984848b8b614246565b6040805160028b810b82528a900b6020820152600080516020615e11833981519152910160405180910390a1505050505050505050565b600654600160a81b900460ff1680611b235750600654600160a01b900460ff16155b611b865760405162461bcd60e51b815260206004820152602e60248201527f496e697469616c697a61626c653a20636f6e747261637420697320616c72656160448201526d191e481a5b9a5d1a585b1a5e995960921b60648201526084016106ec565b600654600160a81b900460ff16158015611bb0576006805461ffff60a01b191661010160a01b1790555b336001600160a01b037f00000000000000000000000000000000000000000000000000000000000000001614611c275760405162461bcd60e51b815260206004820152601c60248201527b6f6e6c79206465706c6f796572206d617920696e697469616c697a6560201b60448201526064016106ec565b600885905560098054600c805460068054600160301b6001600160a01b03808316820262010000600160d01b031990951694909417646403e8000017909455600289810b62ffffff908116600160481b0262ffffff60481b19928d900b9091169095026001600160481b0319909616959095176501f40000012c1794909416929092179093559184166001600160a01b03199091161790558015611cd3576006805460ff60a81b191690555b5050505050565b336001600160a01b037f00000000000000000000000000000000000000000000000000000000000000001614611d0f57600080fd5b6000611d1d82840184615217565b90506001600160a01b038116301415611da9578415611d6a57611d6a6001600160a01b037f00000000000000000000000000000000000000000000000000000000000000001633876127fd565b8315611da457611da46001600160a01b037f00000000000000000000000000000000000000000000000000000000000000001633866127fd565b611cd3565b8415611de457611de46001600160a01b037f000000000000000000000000000000000000000000000000000000000000000016823388613aaf565b8315611cd357611cd36001600160a01b037f000000000000000000000000000000000000000000000000000000000000000016823387613aaf565b83421115611e6f5760405162461bcd60e51b815260206004820152601d60248201527f45524332305065726d69743a206578706972656420646561646c696e6500000060448201526064016106ec565b60007f0000000000000000000000000000000000000000000000000000000000000000888888611ebc8c6001600160a01b0316600090815260056020526040902080546001810190915590565b6040805160208101969096526001600160a01b0394851690860152929091166060840152608083015260a082015260c0810186905260e0016040516020818303038152906040528051906020012090506000611f1782614469565b90506000611f27828787876144b7565b9050896001600160a01b0316816001600160a01b031614611f8a5760405162461bcd60e51b815260206004820152601e60248201527f45524332305065726d69743a20696e76616c6964207369676e6174757265000060448201526064016106ec565b611f958a8a8a612865565b50505050505050505050565b6000610aa4613dd2565b33611fb461104e565b6001600160a01b031614611fda5760405162461bcd60e51b81526004016106ec90615a5d565b60085460408051918252602082018390527fccd898f16d5606b9584d88cb9377db147163cafbf1ee39fdd3373cac5acdb0a3910160405180910390a1600855565b3361202461104e565b6001600160a01b03161461204a5760405162461bcd60e51b81526004016106ec90615a5d565b6001600160a01b0381166120af5760405162461bcd60e51b815260206004820152602660248201527f4f776e61626c653a206e6577206f776e657220697320746865207a65726f206160448201526564647265737360d01b60648201526084016106ec565b6006546040516001600160a01b03808416921690600080516020615e3183398151915290600090a3600680546001600160a01b0319166001600160a01b0392909216919091179055565b336001600160a01b037f0000000000000000000000000000000000000000000000000000000000000000161461212e57600080fd5b600084131561216b5761100f6001600160a01b037f00000000000000000000000000000000000000000000000000000000000000001633866127fd565b6000831315611048576110486001600160a01b037f00000000000000000000000000000000000000000000000000000000000000001633856127fd565b6000806000600260075414156121d05760405162461bcd60e51b81526004016106ec90615a92565b6002600755846121df57600080fd5b60006121ea60025490565b905060007f00000000000000000000000000000000000000000000000000000000000000006001600160a01b031663514ea4bf612225613dd2565b6040518263ffffffff1660e01b815260040161224391815260200190565b60a06040518083038186803b15801561225b57600080fd5b505afa15801561226f573d6000803e3d6000fd5b505050506040513d601f19601f82011682018060405250810190612293919061551f565b5050505090506122a33388614648565b60006122b988836001600160801b031685614785565b90506001600160801b0381106122ce57600080fd5b80935060007f00000000000000000000000000000000000000000000000000000000000000006001600160a01b03166370a08231306040518263ffffffff1660e01b815260040161231f91906157d7565b60206040518083038186803b15801561233757600080fd5b505afa15801561234b573d6000803e3d6000fd5b505050506040513d601f19601f8201168201806040525081019061236f91906156b6565b905060007f00000000000000000000000000000000000000000000000000000000000000006001600160a01b03166370a08231306040518263ffffffff1660e01b81526004016123bf91906157d7565b60206040518083038186803b1580156123d757600080fd5b505afa1580156123eb573d6000803e3d6000fd5b505050506040513d601f19601f8201168201806040525081019061240f91906156b6565b9050600061242b8b600a54856124259190615cdb565b88614785565b905060006124478c600b54856124419190615cdb565b89614785565b60095460405163a34123a760e01b815291925060009182916001600160a01b037f0000000000000000000000000000000000000000000000000000000000000000169163a34123a7916124b591600160301b8204600290810b92600160481b9004900b908f906004016158ee565b6040805180830381600087803b1580156124ce57600080fd5b505af11580156124e2573d6000803e3d6000fd5b505050506040513d601f19601f82011682018060405250810190612506919061547a565b6009546040516309e3d67b60e31b81529294509092506001600160a01b037f00000000000000000000000000000000000000000000000000000000000000001691634f1eb3d891612577913091600160301b8104600290810b92600160481b909204900b9088908890600401615830565b6040805180830381600087803b15801561259057600080fd5b505af11580156125a4573d6000803e3d6000fd5b505050506040513d601f19601f820116820180604052508101906125c891906154ed565b505083867f00000000000000000000000000000000000000000000000000000000000000006001600160a01b03166370a08231306040518263ffffffff1660e01b815260040161261891906157d7565b60206040518083038186803b15801561263057600080fd5b505afa158015612644573d6000803e3d6000fd5b505050506040513d601f19601f8201168201806040525081019061266891906156b6565b6126729190615cdb565b61267c9190615b47565b9b5082857f00000000000000000000000000000000000000000000000000000000000000006001600160a01b03166370a08231306040518263ffffffff1660e01b81526004016126cc91906157d7565b60206040518083038186803b1580156126e457600080fd5b505afa1580156126f8573d6000803e3d6000fd5b505050506040513d601f19601f8201168201806040525081019061271c91906156b6565b6127269190615cdb565b6127309190615b47565b9a508b1561276c5761276c6001600160a01b037f0000000000000000000000000000000000000000000000000000000000000000168e8e6127fd565b8a156127a6576127a66001600160a01b037f0000000000000000000000000000000000000000000000000000000000000000168e8d6127fd565b7f7239dff1718b550db7f36cbf69c665cfeb56d0e96b4fb76a5cba712961b655098d8f8e8e8e6040516127dd95949392919061586d565b60405180910390a150505050505050505060016007819055509250925092565b6040516001600160a01b03831660248201526044810182905261286090849063a9059cbb60e01b906064015b60408051601f198184030181529190526020810180516001600160e01b03166001600160e01b031990931692909217909152614834565b505050565b6001600160a01b0383166128c75760405162461bcd60e51b8152602060048201526024808201527f45524332303a20617070726f76652066726f6d20746865207a65726f206164646044820152637265737360e01b60648201526084016106ec565b6001600160a01b0382166129285760405162461bcd60e51b815260206004820152602260248201527f45524332303a20617070726f766520746f20746865207a65726f206164647265604482015261737360f01b60648201526084016106ec565b6001600160a01b0383811660008181526001602090815260408083209487168084529482529182902085905590518481527f8c5be1e5ebec7d5bd14f71427d1e84f3dd0314c0f7b2291e5b200ac8c7c3b92591015b60405180910390a3505050565b6001600160a01b0383166129ee5760405162461bcd60e51b815260206004820152602560248201527f45524332303a207472616e736665722066726f6d20746865207a65726f206164604482015264647265737360d81b60648201526084016106ec565b6001600160a01b038216612a505760405162461bcd60e51b815260206004820152602360248201527f45524332303a207472616e7366657220746f20746865207a65726f206164647260448201526265737360e81b60648201526084016106ec565b6001600160a01b03831660009081526020819052604090205481811015612ac85760405162461bcd60e51b815260206004820152602660248201527f45524332303a207472616e7366657220616d6f756e7420657863656564732062604482015265616c616e636560d01b60648201526084016106ec565b612ad28282615cdb565b6001600160a01b038086166000908152602081905260408082209390935590851681529081208054849290612b08908490615b47565b92505081905550826001600160a01b0316846001600160a01b0316600080516020615e5183398151915284604051612b4291815260200190565b60405180910390a350505050565b60007f0000000000000000000000000000000000000000000000000000000000000000461415612b9f57507f000000000000000000000000000000000000000000000000000000000000000090565b50604080517f00000000000000000000000000000000000000000000000000000000000000006020808301919091527f0000000000000000000000000000000000000000000000000000000000000000828401527f000000000000000000000000000000000000000000000000000000000000000060608301524660808301523060a0808401919091528351808403909101815260c0909201909252805191012090565b60007f00000000000000000000000000000000000000000000000000000000000000006001600160a01b031663514ea4bf612c7c613dd2565b6040518263ffffffff1660e01b8152600401612c9a91815260200190565b60a06040518083038186803b158015612cb257600080fd5b505afa158015612cc6573d6000803e3d6000fd5b505050506040513d601f19601f82011682018060405250810190612cea919061551f565b5050600954929350600092839250612d199150600160301b8104600290810b91600160481b9004900b85613e38565b915091506000807f00000000000000000000000000000000000000000000000000000000000000006001600160a01b0316866001600160a01b03161415612f7b57600c54879061271090612d779062010000900461ffff1687615c06565b612d819190615bc3565b1015612d9f5760405162461bcd60e51b81526004016106ec90615927565b600c546127109061ffff16612db48987615cdb565b612dbe9190615c06565b612dc89190615bc3565b600a6000828254612dd99190615b47565b9091555050600c5461271090612df39061ffff1685615c06565b612dfd9190615bc3565b600b6000828254612e0e9190615b47565b9091555050600a546040516370a0823160e01b81528891906001600160a01b037f000000000000000000000000000000000000000000000000000000000000000016906370a0823190612e659030906004016157d7565b60206040518083038186803b158015612e7d57600080fd5b505afa158015612e91573d6000803e3d6000fd5b505050506040513d601f19601f82011682018060405250810190612eb591906156b6565b612ebf9190615cdb565b612ec99190615cdb565b9150600b547f00000000000000000000000000000000000000000000000000000000000000006001600160a01b03166370a08231306040518263ffffffff1660e01b8152600401612f1a91906157d7565b60206040518083038186803b158015612f3257600080fd5b505afa158015612f46573d6000803e3d6000fd5b505050506040513d601f19601f82011682018060405250810190612f6a91906156b6565b612f749190615cdb565b905061321c565b7f00000000000000000000000000000000000000000000000000000000000000006001600160a01b0316866001600160a01b031614156131c357600c54879061271090612fd29062010000900461ffff1686615c06565b612fdc9190615bc3565b1015612ffa5760405162461bcd60e51b81526004016106ec90615927565b600c546127109061300f9061ffff1686615c06565b6130199190615bc3565b600a600082825461302a9190615b47565b9091555050600c546127109061ffff166130448986615cdb565b61304e9190615c06565b6130589190615bc3565b600b60008282546130699190615b47565b9091555050600a546040516370a0823160e01b81526001600160a01b037f000000000000000000000000000000000000000000000000000000000000000016906370a08231906130bd9030906004016157d7565b60206040518083038186803b1580156130d557600080fd5b505afa1580156130e9573d6000803e3d6000fd5b505050506040513d601f19601f8201168201806040525081019061310d91906156b6565b6131179190615cdb565b915086600b547f00000000000000000000000000000000000000000000000000000000000000006001600160a01b03166370a08231306040518263ffffffff1660e01b815260040161316991906157d7565b60206040518083038186803b15801561318157600080fd5b505afa158015613195573d6000803e3d6000fd5b505050506040513d601f19601f820116820180604052508101906131b991906156b6565b612f6a9190615cdb565b60405162461bcd60e51b815260206004820152602860248201527f66656520746f6b656e206d757374206265206f6e65206f662074686520706f6f6044820152676c2061737365747360c01b60648201526084016106ec565b60095461324290600160301b8104600290810b91600160481b9004900b84848d8d614246565b505050505050505050565b8047101561329d5760405162461bcd60e51b815260206004820152601d60248201527f416464726573733a20696e73756666696369656e742062616c616e636500000060448201526064016106ec565b6000826001600160a01b03168260405160006040518083038185875af1925050503d80600081146132ea576040519150601f19603f3d011682016040523d82523d6000602084013e6132ef565b606091505b50509050806128605760405162461bcd60e51b815260206004820152603a60248201527f416464726573733a20756e61626c6520746f2073656e642076616c75652c20726044820152791958da5c1a595b9d081b585e481a185d99481c995d995c9d195960321b60648201526084016106ec565b60008060007f00000000000000000000000000000000000000000000000000000000000000006001600160a01b031663514ea4bf61339f613dd2565b6040518263ffffffff1660e01b81526004016133bd91815260200190565b60a06040518083038186803b1580156133d557600080fd5b505afa1580156133e9573d6000803e3d6000fd5b505050506040513d601f19601f8201168201806040525081019061340d919061551f565b505050509050613432846116d1600960069054906101000a900460020b60020b613600565b600a546040516370a0823160e01b8152929550909350906001600160a01b037f000000000000000000000000000000000000000000000000000000000000000016906370a08231906134889030906004016157d7565b60206040518083038186803b1580156134a057600080fd5b505afa1580156134b4573d6000803e3d6000fd5b505050506040513d601f19601f820116820180604052508101906134d891906156b6565b6134e29085615b47565b6134ec9190615cdb565b9250600b547f00000000000000000000000000000000000000000000000000000000000000006001600160a01b03166370a08231306040518263ffffffff1660e01b815260040161353d91906157d7565b60206040518083038186803b15801561355557600080fd5b505afa158015613569573d6000803e3d6000fd5b505050506040513d601f19601f8201168201806040525081019061358d91906156b6565b6135979084615b47565b6135a19190615cdb565b915050915091565b60006135b6848484614785565b9050600082806135d657634e487b7160e01b600052601260045260246000fd5b8486091115610a935760001981106135ed57600080fd5b806135f781615d1e565b95945050505050565b60008060008360020b12613617578260020b613624565b8260020b61362490615d6e565b9050613633620d89e719615d4d565b60020b8111156136695760405162461bcd60e51b81526020600482015260016024820152601560fa1b60448201526064016106ec565b60006001821661367d57600160801b61368f565b6ffffcb933bd6fad37aa2d162d1a5940015b6001600160881b0316905060028216156136c45760806136bf826ffff97272373d413259a46990580e213a615c06565b901c90505b60048216156136ee5760806136e9826ffff2e50f5f656932ef12357cf3c7fdcc615c06565b901c90505b6008821615613718576080613713826fffe5caca7e10e4e61c3624eaa0941cd0615c06565b901c90505b601082161561374257608061373d826fffcb9843d60f6159c9db58835c926644615c06565b901c90505b602082161561376c576080613767826fff973b41fa98c081472e6896dfb254c0615c06565b901c90505b6040821615613796576080613791826fff2ea16466c96a3843ec78b326b52861615c06565b901c90505b60808216156137c05760806137bb826ffe5dee046a99a2a811c461f1969c3053615c06565b901c90505b6101008216156137eb5760806137e6826ffcbe86c7900a88aedcffc83b479aa3a4615c06565b901c90505b610200821615613816576080613811826ff987a7253ac413176f2b074cf7815e54615c06565b901c90505b61040082161561384157608061383c826ff3392b0822b70005940c7a398e4b70f3615c06565b901c90505b61080082161561386c576080613867826fe7159475a2c29b7443b29c7fa6e889d9615c06565b901c90505b611000821615613897576080613892826fd097f3bdfd2022b8845ad8f792aa5825615c06565b901c90505b6120008216156138c25760806138bd826fa9f746462d870fdf8a65dc1f90e061e5615c06565b901c90505b6140008216156138ed5760806138e8826f70d869a156d2a1b890bb3df62baf32f7615c06565b901c90505b618000821615613918576080613913826f31be135f97d08fd981231505542fcfa6615c06565b901c90505b6201000082161561394457608061393f826f09aa508b5b7a84e1c677de54f3e99bc9615c06565b901c90505b6202000082161561396f57608061396a826e5d6af8dedb81196699c329225ee604615c06565b901c90505b62040000821615613999576080613994826d2216e584f5fa1ea926041bedfe98615c06565b901c90505b620800008216156139c15760806139bc826b048a170391f7dc42444e8fa2615c06565b901c90505b60008460020b13156139dc576139d981600019615bc3565b90505b6139ea600160201b82615d39565b156139f65760016139f9565b60005b613a0a9060ff16602083901c615b47565b949350505050565b600080836001600160a01b0316856001600160a01b03161115613a33579293925b846001600160a01b0316866001600160a01b03161015613a5f57613a58858585614906565b9150613aa6565b836001600160a01b0316866001600160a01b03161015613a9857613a84868585614906565b9150613a91858785614970565b9050613aa6565b613aa3858585614970565b90505b94509492505050565b6040516001600160a01b03808516602483015283166044820152606481018290526110489085906323b872dd60e01b90608401612829565b6000836001600160a01b0316856001600160a01b03161115613b07579293925b846001600160a01b0316866001600160a01b03161015613b3357613b2c8585856149ba565b90506135f7565b836001600160a01b0316866001600160a01b03161015613b95576000613b5a8786866149ba565b90506000613b69878986614a24565b9050806001600160801b0316826001600160801b031610613b8a5780613b8c565b815b925050506135f7565b613ba0858584614a24565b9695505050505050565b6001600160a01b038216613c005760405162461bcd60e51b815260206004820152601f60248201527f45524332303a206d696e7420746f20746865207a65726f20616464726573730060448201526064016106ec565b8060026000828254613c129190615b47565b90915550506001600160a01b03821660009081526020819052604081208054839290613c3f908490615b47565b90915550506040518181526001600160a01b03831690600090600080516020615e518339815191529060200160405180910390a35050565b6000806000806000613c8889613363565b91509150816000148015613c9c5750600081115b15613cb357613cac868983614785565b9250613dac565b80158015613cc15750600082115b15613cd157613cac878984614785565b81158015613cdd575080155b15613d275760405162461bcd60e51b815260206004820152601a60248201527934b6b837b9b9b4b136329d1034b73a32b93730b61032b93937b960311b60448201526064016106ec565b6000613d34888a85614785565b90506000613d43888b85614785565b9050600082118015613d555750600081115b613d985760405162461bcd60e51b815260206004820152601460248201527363616e6e6f74206d696e74203020746f6b656e7360601b60448201526064016106ec565b808210613da55780613da7565b815b945050505b613db783838a6135a9565b9450613dc483828a6135a9565b935050509450945094915050565b6009546040516001600160601b03193060601b166020820152600160301b8204600290810b810b60e890811b6034840152600160481b909304810b900b90911b6037820152600090603a0160405160208183030381529060405280519060200120905090565b60008060007f00000000000000000000000000000000000000000000000000000000000000006001600160a01b03166370a08231306040518263ffffffff1660e01b8152600401613e8991906157d7565b60206040518083038186803b158015613ea157600080fd5b505afa158015613eb5573d6000803e3d6000fd5b505050506040513d601f19601f82011682018060405250810190613ed991906156b6565b905060007f00000000000000000000000000000000000000000000000000000000000000006001600160a01b03166370a08231306040518263ffffffff1660e01b8152600401613f2991906157d7565b60206040518083038186803b158015613f4157600080fd5b505afa158015613f55573d6000803e3d6000fd5b505050506040513d601f19601f82011682018060405250810190613f7991906156b6565b90506000807f00000000000000000000000000000000000000000000000000000000000000006001600160a01b031663a34123a78a8a8a6040518463ffffffff1660e01b8152600401613fce939291906158ee565b6040805180830381600087803b158015613fe757600080fd5b505af1158015613ffb573d6000803e3d6000fd5b505050506040513d601f19601f8201168201806040525081019061401f919061547a565b6040516309e3d67b60e31b815291935091506001600160a01b037f00000000000000000000000000000000000000000000000000000000000000001690634f1eb3d89061407f9030908d908d906001600160801b03908190600401615830565b6040805180830381600087803b15801561409857600080fd5b505af11580156140ac573d6000803e3d6000fd5b505050506040513d601f19601f820116820180604052508101906140d091906154ed565b505081847f00000000000000000000000000000000000000000000000000000000000000006001600160a01b03166370a08231306040518263ffffffff1660e01b815260040161412091906157d7565b60206040518083038186803b15801561413857600080fd5b505afa15801561414c573d6000803e3d6000fd5b505050506040513d601f19601f8201168201806040525081019061417091906156b6565b61417a9190615cdb565b6141849190615cdb565b955080837f00000000000000000000000000000000000000000000000000000000000000006001600160a01b03166370a08231306040518263ffffffff1660e01b81526004016141d491906157d7565b60206040518083038186803b1580156141ec57600080fd5b505afa158015614200573d6000803e3d6000fd5b505050506040513d601f19601f8201168201806040525081019061422491906156b6565b61422e9190615cdb565b6142389190615cdb565b945050505050935093915050565b60007f00000000000000000000000000000000000000000000000000000000000000006001600160a01b0316633850c7bd6040518163ffffffff1660e01b815260040160e06040518083038186803b1580156142a157600080fd5b505afa1580156142b5573d6000803e3d6000fd5b505050506040513d601f19601f820116820180604052508101906142d99190615575565b50505050505090506000614306826142f38a60020b613600565b6142ff8a60020b613600565b8989613ae7565b90506001600160801b038116156143fe576000807f00000000000000000000000000000000000000000000000000000000000000006001600160a01b0316633c8a7d8d308c8c873060405160200161435e91906157d7565b6040516020818303038152906040526040518663ffffffff1660e01b815260040161438d9594939291906157eb565b6040805180830381600087803b1580156143a657600080fd5b505af11580156143ba573d6000803e3d6000fd5b505050506040513d601f19601f820116820180604052508101906143de919061547a565b90925090506143ed8289615cdb565b97506143f98188615cdb565b965050505b600086118061440d5750600085115b1561445f5784861161441f8582614a5a565b600061271085836144305788614432565b895b61443c9190615c06565b6144469190615bc3565b90506144578a8a8a8a858b88614d29565b909850965050505b5050505050505050565b6000610c92614476612b50565b8360405161190160f01b6020820152602281018390526042810182905260009060620160405160208183030381529060405280519060200120905092915050565b60006fa2a8918ca85bafe22016d0b997e4df60600160ff1b0382111561452a5760405162461bcd60e51b815260206004820152602260248201527f45434453413a20696e76616c6964207369676e6174757265202773272076616c604482015261756560f01b60648201526084016106ec565b8360ff16601b148061453f57508360ff16601c145b6145965760405162461bcd60e51b815260206004820152602260248201527f45434453413a20696e76616c6964207369676e6174757265202776272076616c604482015261756560f01b60648201526084016106ec565b6040805160008082526020820180845288905260ff871692820192909252606081018590526080810184905260019060a0016020604051602081039080840390855afa1580156145ea573d6000803e3d6000fd5b5050604051601f1901519150506001600160a01b0381166135f75760405162461bcd60e51b815260206004820152601860248201527745434453413a20696e76616c6964207369676e617475726560401b60448201526064016106ec565b6001600160a01b0382166146a85760405162461bcd60e51b815260206004820152602160248201527f45524332303a206275726e2066726f6d20746865207a65726f206164647265736044820152607360f81b60648201526084016106ec565b6001600160a01b0382166000908152602081905260409020548181101561471c5760405162461bcd60e51b815260206004820152602260248201527f45524332303a206275726e20616d6f756e7420657863656564732062616c616e604482015261636560f01b60648201526084016106ec565b6147268282615cdb565b6001600160a01b03841660009081526020819052604081209190915560028054849290614754908490615cdb565b90915550506040518281526000906001600160a01b03851690600080516020615e518339815191529060200161297d565b6000808060001985870985870292508281108382030391505080600014156147bf57600084116147b457600080fd5b508290049050610a93565b8084116147cb57600080fd5b60008486880960026001871981018816978890046003810283188082028403028082028403028082028403028082028403028082028403029081029092039091026000889003889004909101858311909403939093029303949094049190911702949350505050565b6000614889826040518060400160405280602081526020017f5361666545524332303a206c6f772d6c6576656c2063616c6c206661696c6564815250856001600160a01b0316614fa79092919063ffffffff16565b80519091501561286057808060200190518101906148a79190615410565b6128605760405162461bcd60e51b815260206004820152602a60248201527f5361666545524332303a204552433230206f7065726174696f6e20646964206e6044820152691bdd081cdd58d8d9595960b21b60648201526084016106ec565b6000826001600160a01b0316846001600160a01b03161115614926579192915b6001600160a01b038416614966600160601b600160e01b03606085901b1661494e8787615cb3565b6001600160a01b0316866001600160a01b0316614785565b613a0a9190615bc3565b6000826001600160a01b0316846001600160a01b03161115614990579192915b613a0a6001600160801b0383166149a78686615cb3565b6001600160a01b0316600160601b614785565b6000826001600160a01b0316846001600160a01b031611156149da579192915b60006149fd856001600160a01b0316856001600160a01b0316600160601b614785565b90506135f7614a1f8483614a118989615cb3565b6001600160a01b0316614785565b614fb6565b6000826001600160a01b0316846001600160a01b03161115614a44579192915b613a0a614a1f83600160601b614a118888615cb3565b6040805160028082526060820183526000926020830190803683375050600954825192935063ffffffff1691839150600090614aa657634e487b7160e01b600052603260045260246000fd5b602002602001019063ffffffff16908163ffffffff1681525050600081600181518110614ae357634e487b7160e01b600052603260045260246000fd5b63ffffffff9092166020928302919091019091015260405163883bdbfd60e01b81526000906001600160a01b037f0000000000000000000000000000000000000000000000000000000000000000169063883bdbfd90614b479085906004016158a4565b60006040518083038186803b158015614b5f57600080fd5b505afa158015614b73573d6000803e3d6000fd5b505050506040513d6000823e601f3d908101601f19168201604052614b9b9190810190615346565b5090508051600214614bef5760405162461bcd60e51b815260206004820152601f60248201527f756e6578706563746564206c656e677468206f66207469636b2061727261790060448201526064016106ec565b600954815160009163ffffffff169083908390614c1c57634e487b7160e01b600052603260045260246000fd5b602002602001015183600181518110614c4557634e487b7160e01b600052603260045260246000fd5b6020026020010151614c579190615c64565b614c619190615b5f565b90506000614c718260020b613600565b60095490915060009061271090614c9390600160201b900461ffff1684615bd7565b614c9d9190615b9d565b90508515614ce557614caf8183615cb3565b6001600160a01b0316876001600160a01b03161015614ce05760405162461bcd60e51b81526004016106ec906159cd565b614d20565b614cef8183615b1c565b6001600160a01b0316876001600160a01b03161115614d205760405162461bcd60e51b81526004016106ec906159cd565b50505050505050565b604051630251596160e31b81523060048201528115156024820152604481018490526001600160a01b03838116606483015260a06084830152600060a48301819052918291829182917f0000000000000000000000000000000000000000000000000000000000000000169063128acb089060c4016040805180830381600087803b158015614db757600080fd5b505af1158015614dcb573d6000803e3d6000fd5b505050506040513d601f19601f82011682018060405250810190614def919061547a565b9092509050614dfe828a615c25565b9350614e0a8189615c25565b925060007f00000000000000000000000000000000000000000000000000000000000000006001600160a01b0316633850c7bd6040518163ffffffff1660e01b815260040160e06040518083038186803b158015614e6757600080fd5b505afa158015614e7b573d6000803e3d6000fd5b505050506040513d601f19601f82011682018060405250810190614e9f9190615575565b50505050505090506000614ebf82614eb68f613600565b6142ff8f613600565b90506001600160801b03811615614f97577f00000000000000000000000000000000000000000000000000000000000000006001600160a01b0316633c8a7d8d308f8f8530604051602001614f1491906157d7565b6040516020818303038152906040526040518663ffffffff1660e01b8152600401614f439594939291906157eb565b6040805180830381600087803b158015614f5c57600080fd5b505af1158015614f70573d6000803e3d6000fd5b505050506040513d601f19601f82011682018060405250810190614f94919061547a565b50505b5050505097509795505050505050565b6060613a0a8484600085614fd1565b806001600160801b0381168114614fcc57600080fd5b919050565b6060824710156150325760405162461bcd60e51b815260206004820152602660248201527f416464726573733a20696e73756666696369656e742062616c616e636520666f6044820152651c8818d85b1b60d21b60648201526084016106ec565b843b6150805760405162461bcd60e51b815260206004820152601d60248201527f416464726573733a2063616c6c20746f206e6f6e2d636f6e747261637400000060448201526064016106ec565b600080866001600160a01b0316858760405161509c91906157bb565b60006040518083038185875af1925050503d80600081146150d9576040519150601f19603f3d011682016040523d82523d6000602084013e6150de565b606091505b50915091506150ee8282866150f9565b979650505050505050565b60608315615108575081610a93565b8251156151185782518084602001fd5b8160405162461bcd60e51b81526004016106ec9190615914565b600082601f830112615142578081fd5b8151602061515761515283615af9565b615ac9565b80838252828201915082860187848660051b8901011115615176578586fd5b855b8581101561519d57815161518b81615dca565b84529284019290840190600101615178565b5090979650505050505050565b80518015158114614fcc57600080fd5b60008083601f8401126151cb578182fd5b5081356001600160401b038111156151e1578182fd5b6020830191508360208285010111156151f957600080fd5b9250929050565b80516001600160801b0381168114614fcc57600080fd5b600060208284031215615228578081fd5b8135610a9381615dca565b60008060408385031215615245578081fd5b823561525081615dca565b9150602083013561526081615dca565b809150509250929050565b60008060006060848603121561527f578081fd5b833561528a81615dca565b9250602084013561529a81615dca565b929592945050506040919091013590565b600080600080600080600060e0888a0312156152c5578283fd5b87356152d081615dca565b965060208801356152e081615dca565b9550604088013594506060880135935060808801356152fe81615e01565b9699959850939692959460a0840135945060c09093013592915050565b6000806040838503121561532d578182fd5b823561533881615dca565b946020939093013593505050565b60008060408385031215615358578182fd5b82516001600160401b038082111561536e578384fd5b818501915085601f830112615381578384fd5b8151602061539161515283615af9565b8083825282820191508286018a848660051b89010111156153b0578889fd5b8896505b848710156153e05780518060060b81146153cc57898afd5b8352600196909601959183019183016153b4565b50918801519196509093505050808211156153f9578283fd5b5061540685828601615132565b9150509250929050565b600060208284031215615421578081fd5b610a93826151aa565b6000806000806080858703121561543f578182fd5b843561544a81615de2565b9350602085013561545a81615de2565b9250604085013561546a81615dca565b9396929550929360600135925050565b6000806040838503121561548c578182fd5b505080516020909101519092909150565b600080600080606085870312156154b2578182fd5b843593506020850135925060408501356001600160401b038111156154d5578283fd5b6154e1878288016151ba565b95989497509550505050565b600080604083850312156154ff578182fd5b61550883615200565b915061551660208401615200565b90509250929050565b600080600080600060a08688031215615536578283fd5b61553f86615200565b9450602086015193506040860151925061555b60608701615200565b915061556960808701615200565b90509295509295909350565b600080600080600080600060e0888a03121561558f578081fd5b875161559a81615dca565b60208901519097506155ab81615de2565b60408901519096506155bc81615df1565b60608901519095506155cd81615df1565b60808901519094506155de81615df1565b60a08901519093506155ef81615e01565b91506155fd60c089016151aa565b905092959891949750929550565b60008060008060808587031215615620578182fd5b843561562b81615dca565b93506020850135925060408501359150606085013561564981615dca565b939692955090935050565b600080600060608486031215615668578081fd5b833561567381615df1565b9250602084013561568381615df1565b9150604084013561569381615df1565b809150509250925092565b6000602082840312156156af578081fd5b5035919050565b6000602082840312156156c7578081fd5b5051919050565b600080604083850312156156e0578182fd5b82359150602083013561526081615dca565b60008060008060808587031215615707578182fd5b84359350602085013561571981615de2565b9250604085013561572981615de2565b9150606085013561564981615dca565b6000806040838503121561574b578182fd5b50508035926020909101359150565b6000806040838503121561576c578182fd5b823563ffffffff8116811461577f578283fd5b9150602083013561526081615df1565b600081518084526157a7816020860160208601615cf2565b601f01601f19169290920160200192915050565b600082516157cd818460208701615cf2565b9190910192915050565b6001600160a01b0391909116815260200190565b6001600160a01b0386168152600285810b602083015284900b60408201526001600160801b038316606082015260a0608082018190526000906150ee9083018461578f565b6001600160a01b03959095168552600293840b60208601529190920b60408401526001600160801b03918216606084015216608082015260a00190565b6001600160a01b039590951685526020850193909352604084019190915260608301526001600160801b0316608082015260a00190565b6020808252825182820181905260009190848201906040850190845b818110156158e257835163ffffffff16835292840192918401916001016158c0565b50909695505050505050565b600293840b81529190920b60208201526001600160801b03909116604082015260600190565b602081526000610a93602083018461578f565b60208082526024908201527f6d757374206561726e206d6f72652066656573206265666f726520726562616c604082015263616e636560e01b606082015260800190565b60208082526017908201527647656c61746f666965643a204f6e6c792067656c61746f60481b604082015260600190565b6020808252601790820152760425053206d7573742062652062656c6f7720313030303604c1b604082015260600190565b60208082526029908201527f736c697070616765207072696365206973206f7574206f662061636365707461604082015268626c652072616e676560b81b606082015260800190565b60208082526027908201527f6f6e6c7920776974686472617720616674657220656e6f7567682066656573206040820152661858d8dc9d595960ca1b606082015260800190565b6020808252818101527f4f776e61626c653a2063616c6c6572206973206e6f7420746865206f776e6572604082015260600190565b6020808252601f908201527f5265656e7472616e637947756172643a207265656e7472616e742063616c6c00604082015260600190565b604051601f8201601f191681016001600160401b0381118282101715615af157615af1615db4565b604052919050565b60006001600160401b03821115615b1257615b12615db4565b5060051b60200190565b60006001600160a01b03828116848216808303821115615b3e57615b3e615d88565b01949350505050565b60008219821115615b5a57615b5a615d88565b500190565b60008160060b8360060b80615b7657615b76615d9e565b667fffffffffffff19821460001982141615615b9457615b94615d88565b90059392505050565b60006001600160a01b0383811680615bb757615bb7615d9e565b92169190910492915050565b600082615bd257615bd2615d9e565b500490565b60006001600160a01b0382811684821681151582840482111615615bfd57615bfd615d88565b02949350505050565b6000816000190483118215151615615c2057615c20615d88565b500290565b60008083128015600160ff1b850184121615615c4357615c43615d88565b6001600160ff1b0384018313811615615c5e57615c5e615d88565b50500390565b60008160060b8360060b82811281667fffffffffffff1901831281151615615c8e57615c8e615d88565b81667fffffffffffff018313811615615ca957615ca9615d88565b5090039392505050565b60006001600160a01b0383811690831681811015615cd357615cd3615d88565b039392505050565b600082821015615ced57615ced615d88565b500390565b60005b83811015615d0d578181015183820152602001615cf5565b838111156110485750506000910152565b6000600019821415615d3257615d32615d88565b5060010190565b600082615d4857615d48615d9e565b500690565b60008160020b627fffff19811415615d6757615d67615d88565b9003919050565b6000600160ff1b821415615d8457615d84615d88565b0390565b634e487b7160e01b600052601160045260246000fd5b634e487b7160e01b600052601260045260246000fd5b634e487b7160e01b600052604160045260246000fd5b6001600160a01b0381168114615ddf57600080fd5b50565b8060020b8114615ddf57600080fd5b61ffff81168114615ddf57600080fd5b60ff81168114615ddf57600080fdfea40d93a72f8af7b904f2e4a60095955bfcaa3c724969f731bd8bc1fda226a1718be0079c531659141344cd1fd0a4f28419497f9722a3daafe3b4186f6b6457e0ddf252ad1be2c89b69c2b068fc378daa952ba7f163c4a11628f55a4df523b3efa2646970667358221220843d57e52b18f238f398eaa03c1d2abf9a0323dbbb0a10ccb47b24ed70f09e4c64736f6c63430008040033",
  "devdoc": {
    "details": "DO NOT ADD STATE VARIABLES - APPEND THEM TO GelatoUniV3PoolStorageDO NOT ADD BASE CONTRACTS WITH STATE VARS - APPEND THEM TO GelatoUniV3PoolStorage",
    "kind": "dev",
    "methods": {
      "DOMAIN_SEPARATOR()": {
        "details": "See {IERC20Permit-DOMAIN_SEPARATOR}."
      },
      "allowance(address,address)": {
        "details": "See {IERC20-allowance}."
      },
      "approve(address,uint256)": {
        "details": "See {IERC20-approve}. Requirements: - `spender` cannot be the zero address."
      },
      "balanceOf(address)": {
        "details": "See {IERC20-balanceOf}."
      },
      "decimals()": {
        "details": "Returns the number of decimals used to get its user representation. For example, if `decimals` equals `2`, a balance of `505` tokens should be displayed to a user as `5,05` (`505 / 10 ** 2`). Tokens usually opt for a value of 18, imitating the relationship between Ether and Wei. This is the value {ERC20} uses, unless this function is overridden; NOTE: This information is only used for _display_ purposes: it in no way affects any of the arithmetic of the contract, including {IERC20-balanceOf} and {IERC20-transfer}."
      },
      "decreaseAllowance(address,uint256)": {
        "details": "Atomically decreases the allowance granted to `spender` by the caller. This is an alternative to {approve} that can be used as a mitigation for problems described in {IERC20-approve}. Emits an {Approval} event indicating the updated allowance. Requirements: - `spender` cannot be the zero address. - `spender` must have allowance for the caller of at least `subtractedValue`."
      },
      "increaseAllowance(address,uint256)": {
        "details": "Atomically increases the allowance granted to `spender` by the caller. This is an alternative to {approve} that can be used as a mitigation for problems described in {IERC20-approve}. Emits an {Approval} event indicating the updated allowance. Requirements: - `spender` cannot be the zero address."
      },
      "name()": {
        "details": "Returns the name of the token."
      },
      "nonces(address)": {
        "details": "See {IERC20Permit-nonces}."
      },
      "owner()": {
        "details": "Returns the address of the current owner."
      },
      "permit(address,address,uint256,uint256,uint8,bytes32,bytes32)": {
        "details": "See {IERC20Permit-permit}."
      },
      "renounceOwnership()": {
        "details": "Leaves the contract without owner. It will not be possible to call `onlyOwner` functions anymore. Can only be called by the current owner. NOTE: Renouncing ownership will leave the contract without an owner, thereby removing any functionality that is only available to the owner."
      },
      "symbol()": {
        "details": "Returns the symbol of the token, usually a shorter version of the name."
      },
      "totalSupply()": {
        "details": "See {IERC20-totalSupply}."
      },
      "transfer(address,uint256)": {
        "details": "See {IERC20-transfer}. Requirements: - `recipient` cannot be the zero address. - the caller must have a balance of at least `amount`."
      },
      "transferFrom(address,address,uint256)": {
        "details": "See {IERC20-transferFrom}. Emits an {Approval} event indicating the updated allowance. This is not required by the EIP. See the note at the beginning of {ERC20}. Requirements: - `sender` and `recipient` cannot be the zero address. - `sender` must have a balance of at least `amount`. - the caller must have allowance for ``sender``'s tokens of at least `amount`."
      },
      "transferOwnership(address)": {
        "details": "Transfers ownership of the contract to a new account (`newOwner`). Can only be called by the current owner."
      }
    },
    "version": 1
  },
  "userdoc": {
    "kind": "user",
    "methods": {},
    "version": 1
  },
  "storageLayout": {
    "storage": [
      {
        "astId": 101,
        "contract": "contracts/GUniPoolStatic.sol:GUniPoolStatic",
        "label": "_balances",
        "offset": 0,
        "slot": "0",
        "type": "t_mapping(t_address,t_uint256)"
      },
      {
        "astId": 107,
        "contract": "contracts/GUniPoolStatic.sol:GUniPoolStatic",
        "label": "_allowances",
        "offset": 0,
        "slot": "1",
        "type": "t_mapping(t_address,t_mapping(t_address,t_uint256))"
      },
      {
        "astId": 109,
        "contract": "contracts/GUniPoolStatic.sol:GUniPoolStatic",
        "label": "_totalSupply",
        "offset": 0,
        "slot": "2",
        "type": "t_uint256"
      },
      {
        "astId": 111,
        "contract": "contracts/GUniPoolStatic.sol:GUniPoolStatic",
        "label": "_name",
        "offset": 0,
        "slot": "3",
        "type": "t_string_storage"
      },
      {
        "astId": 113,
        "contract": "contracts/GUniPoolStatic.sol:GUniPoolStatic",
        "label": "_symbol",
        "offset": 0,
        "slot": "4",
        "type": "t_string_storage"
      },
      {
        "astId": 718,
        "contract": "contracts/GUniPoolStatic.sol:GUniPoolStatic",
        "label": "_nonces",
        "offset": 0,
        "slot": "5",
        "type": "t_mapping(t_address,t_struct(Counter)1449_storage)"
      },
      {
        "astId": 4874,
        "contract": "contracts/GUniPoolStatic.sol:GUniPoolStatic",
        "label": "_owner",
        "offset": 0,
        "slot": "6",
        "type": "t_address"
      },
      {
        "astId": 5,
        "contract": "contracts/GUniPoolStatic.sol:GUniPoolStatic",
        "label": "_initialized",
        "offset": 20,
        "slot": "6",
        "type": "t_bool"
      },
      {
        "astId": 8,
        "contract": "contracts/GUniPoolStatic.sol:GUniPoolStatic",
        "label": "_initializing",
        "offset": 21,
        "slot": "6",
        "type": "t_bool"
      },
      {
        "astId": 56,
        "contract": "contracts/GUniPoolStatic.sol:GUniPoolStatic",
        "label": "_status",
        "offset": 0,
        "slot": "7",
        "type": "t_uint256"
      },
      {
        "astId": 4417,
        "contract": "contracts/GUniPoolStatic.sol:GUniPoolStatic",
        "label": "_supplyCap",
        "offset": 0,
        "slot": "8",
        "type": "t_uint256"
      },
      {
        "astId": 4419,
        "contract": "contracts/GUniPoolStatic.sol:GUniPoolStatic",
        "label": "_observationSeconds",
        "offset": 0,
        "slot": "9",
        "type": "t_uint32"
      },
      {
        "astId": 4421,
        "contract": "contracts/GUniPoolStatic.sol:GUniPoolStatic",
        "label": "_maxSlippageBPS",
        "offset": 4,
        "slot": "9",
        "type": "t_uint16"
      },
      {
        "astId": 4423,
        "contract": "contracts/GUniPoolStatic.sol:GUniPoolStatic",
        "label": "_lowerTick",
        "offset": 6,
        "slot": "9",
        "type": "t_int24"
      },
      {
        "astId": 4425,
        "contract": "contracts/GUniPoolStatic.sol:GUniPoolStatic",
        "label": "_upperTick",
        "offset": 9,
        "slot": "9",
        "type": "t_int24"
      },
      {
        "astId": 4427,
        "contract": "contracts/GUniPoolStatic.sol:GUniPoolStatic",
        "label": "_adminBalanceToken0",
        "offset": 0,
        "slot": "10",
        "type": "t_uint256"
      },
      {
        "astId": 4429,
        "contract": "contracts/GUniPoolStatic.sol:GUniPoolStatic",
        "label": "_adminBalanceToken1",
        "offset": 0,
        "slot": "11",
        "type": "t_uint256"
      },
      {
        "astId": 4431,
        "contract": "contracts/GUniPoolStatic.sol:GUniPoolStatic",
        "label": "_adminFeeBPS",
        "offset": 0,
        "slot": "12",
        "type": "t_uint16"
      },
      {
        "astId": 4433,
        "contract": "contracts/GUniPoolStatic.sol:GUniPoolStatic",
        "label": "_rebalanceFeeBPS",
        "offset": 2,
        "slot": "12",
        "type": "t_uint16"
      },
      {
        "astId": 4435,
        "contract": "contracts/GUniPoolStatic.sol:GUniPoolStatic",
        "label": "_autoWithdrawFeeBPS",
        "offset": 4,
        "slot": "12",
        "type": "t_uint16"
      },
      {
        "astId": 4437,
        "contract": "contracts/GUniPoolStatic.sol:GUniPoolStatic",
        "label": "_treasury",
        "offset": 6,
        "slot": "12",
        "type": "t_address"
      }
    ],
    "types": {
      "t_address": {
        "encoding": "inplace",
        "label": "address",
        "numberOfBytes": "20"
      },
      "t_bool": {
        "encoding": "inplace",
        "label": "bool",
        "numberOfBytes": "1"
      },
      "t_int24": {
        "encoding": "inplace",
        "label": "int24",
        "numberOfBytes": "3"
      },
      "t_mapping(t_address,t_mapping(t_address,t_uint256))": {
        "encoding": "mapping",
        "key": "t_address",
        "label": "mapping(address => mapping(address => uint256))",
        "numberOfBytes": "32",
        "value": "t_mapping(t_address,t_uint256)"
      },
      "t_mapping(t_address,t_struct(Counter)1449_storage)": {
        "encoding": "mapping",
        "key": "t_address",
        "label": "mapping(address => struct Counters.Counter)",
        "numberOfBytes": "32",
        "value": "t_struct(Counter)1449_storage"
      },
      "t_mapping(t_address,t_uint256)": {
        "encoding": "mapping",
        "key": "t_address",
        "label": "mapping(address => uint256)",
        "numberOfBytes": "32",
        "value": "t_uint256"
      },
      "t_string_storage": {
        "encoding": "bytes",
        "label": "string",
        "numberOfBytes": "32"
      },
      "t_struct(Counter)1449_storage": {
        "encoding": "inplace",
        "label": "struct Counters.Counter",
        "members": [
          {
            "astId": 1448,
            "contract": "contracts/GUniPoolStatic.sol:GUniPoolStatic",
            "label": "_value",
            "offset": 0,
            "slot": "0",
            "type": "t_uint256"
          }
        ],
        "numberOfBytes": "32"
      },
      "t_uint16": {
        "encoding": "inplace",
        "label": "uint16",
        "numberOfBytes": "2"
      },
      "t_uint256": {
        "encoding": "inplace",
        "label": "uint256",
        "numberOfBytes": "32"
      },
      "t_uint32": {
        "encoding": "inplace",
        "label": "uint32",
        "numberOfBytes": "4"
      }
    }
  }
}