{
  "address": "0x9E979bC0ba81FcFBdf1e2d5fEa59E32656fC1f8f",
  "abi": [
    {
      "inputs": [
        {
          "internalType": "contract IUniswapV3Pool",
          "name": "_pool",
          "type": "address"
        },
        {
          "internalType": "address",
          "name": "_gelato",
          "type": "address"
        }
      ],
      "stateMutability": "nonpayable",
      "type": "constructor"
    },
    {
      "anonymous": false,
      "inputs": [
        {
          "indexed": true,
          "internalType": "address",
          "name": "owner",
          "type": "address"
        },
        {
          "indexed": true,
          "internalType": "address",
          "name": "spender",
          "type": "address"
        },
        {
          "indexed": false,
          "internalType": "uint256",
          "name": "value",
          "type": "uint256"
        }
      ],
      "name": "Approval",
      "type": "event"
    },
    {
      "anonymous": false,
      "inputs": [
        {
          "indexed": false,
          "internalType": "address",
          "name": "burner",
          "type": "address"
        },
        {
          "indexed": false,
          "internalType": "uint256",
          "name": "burnAmount",
          "type": "uint256"
        },
        {
          "indexed": false,
          "internalType": "uint256",
          "name": "amount0Out",
          "type": "uint256"
        },
        {
          "indexed": false,
          "internalType": "uint256",
          "name": "amount1Out",
          "type": "uint256"
        }
      ],
      "name": "Burned",
      "type": "event"
    },
    {
      "anonymous": false,
      "inputs": [
        {
          "indexed": false,
          "internalType": "uint256",
          "name": "supplyCap",
          "type": "uint256"
        },
        {
          "indexed": false,
          "internalType": "uint256",
          "name": "heartbeat",
          "type": "uint256"
        },
        {
          "indexed": false,
          "internalType": "int24",
          "name": "minTickDeviation",
          "type": "int24"
        },
        {
          "indexed": false,
          "internalType": "int24",
          "name": "maxTickDeviation",
          "type": "int24"
        },
        {
          "indexed": false,
          "internalType": "uint32",
          "name": "observationSeconds",
          "type": "uint32"
        },
        {
          "indexed": false,
          "internalType": "uint160",
          "name": "maxSlippagePercentage",
          "type": "uint160"
        }
      ],
      "name": "MetaParamsAdjusted",
      "type": "event"
    },
    {
      "anonymous": false,
      "inputs": [
        {
          "indexed": false,
          "internalType": "address",
          "name": "minter",
          "type": "address"
        },
        {
          "indexed": false,
          "internalType": "uint256",
          "name": "mintAmount",
          "type": "uint256"
        },
        {
          "indexed": false,
          "internalType": "uint256",
          "name": "amount0In",
          "type": "uint256"
        },
        {
          "indexed": false,
          "internalType": "uint256",
          "name": "amount1In",
          "type": "uint256"
        }
      ],
      "name": "Minted",
      "type": "event"
    },
    {
      "anonymous": false,
      "inputs": [
        {
          "indexed": true,
          "internalType": "address",
          "name": "previousOwner",
          "type": "address"
        },
        {
          "indexed": true,
          "internalType": "address",
          "name": "newOwner",
          "type": "address"
        }
      ],
      "name": "OwnershipTransferred",
      "type": "event"
    },
    {
      "anonymous": false,
      "inputs": [
        {
          "indexed": false,
          "internalType": "int24",
          "name": "newLowerTick",
          "type": "int24"
        },
        {
          "indexed": false,
          "internalType": "int24",
          "name": "newUpperTick",
          "type": "int24"
        }
      ],
      "name": "ParamsAdjusted",
      "type": "event"
    },
    {
      "anonymous": false,
      "inputs": [
        {
          "indexed": true,
          "internalType": "address",
          "name": "from",
          "type": "address"
        },
        {
          "indexed": true,
          "internalType": "address",
          "name": "to",
          "type": "address"
        },
        {
          "indexed": false,
          "internalType": "uint256",
          "name": "value",
          "type": "uint256"
        }
      ],
      "name": "Transfer",
      "type": "event"
    },
    {
      "inputs": [],
      "name": "DOMAIN_SEPARATOR",
      "outputs": [
        {
          "internalType": "bytes32",
          "name": "",
          "type": "bytes32"
        }
      ],
      "stateMutability": "view",
      "type": "function"
    },
    {
      "inputs": [],
      "name": "PERMIT_TYPEHASH",
      "outputs": [
        {
          "internalType": "bytes32",
          "name": "",
          "type": "bytes32"
        }
      ],
      "stateMutability": "pure",
      "type": "function"
    },
    {
      "inputs": [],
      "name": "admin",
      "outputs": [
        {
          "internalType": "address",
          "name": "",
          "type": "address"
        }
      ],
      "stateMutability": "view",
      "type": "function"
    },
    {
      "inputs": [
        {
          "internalType": "address",
          "name": "owner",
          "type": "address"
        },
        {
          "internalType": "address",
          "name": "spender",
          "type": "address"
        }
      ],
      "name": "allowance",
      "outputs": [
        {
          "internalType": "uint256",
          "name": "",
          "type": "uint256"
        }
      ],
      "stateMutability": "view",
      "type": "function"
    },
    {
      "inputs": [
        {
          "internalType": "address",
          "name": "spender",
          "type": "address"
        },
        {
          "internalType": "uint256",
          "name": "value",
          "type": "uint256"
        }
      ],
      "name": "approve",
      "outputs": [
        {
          "internalType": "bool",
          "name": "",
          "type": "bool"
        }
      ],
      "stateMutability": "nonpayable",
      "type": "function"
    },
    {
      "inputs": [
        {
          "internalType": "address",
          "name": "account",
          "type": "address"
        }
      ],
      "name": "balanceOf",
      "outputs": [
        {
          "internalType": "uint256",
          "name": "",
          "type": "uint256"
        }
      ],
      "stateMutability": "view",
      "type": "function"
    },
    {
      "inputs": [
        {
          "internalType": "uint256",
          "name": "burnAmount",
          "type": "uint256"
        }
      ],
      "name": "burn",
      "outputs": [
        {
          "internalType": "uint256",
          "name": "amount0",
          "type": "uint256"
        },
        {
          "internalType": "uint256",
          "name": "amount1",
          "type": "uint256"
        },
        {
          "internalType": "uint128",
          "name": "liquidityBurned",
          "type": "uint128"
        }
      ],
      "stateMutability": "nonpayable",
      "type": "function"
    },
    {
      "inputs": [],
      "name": "currentLowerTick",
      "outputs": [
        {
          "internalType": "int24",
          "name": "",
          "type": "int24"
        }
      ],
      "stateMutability": "view",
      "type": "function"
    },
    {
      "inputs": [],
      "name": "currentUpperTick",
      "outputs": [
        {
          "internalType": "int24",
          "name": "",
          "type": "int24"
        }
      ],
      "stateMutability": "view",
      "type": "function"
    },
    {
      "inputs": [],
      "name": "decimals",
      "outputs": [
        {
          "internalType": "uint8",
          "name": "",
          "type": "uint8"
        }
      ],
      "stateMutability": "view",
      "type": "function"
    },
    {
      "inputs": [],
      "name": "firstAdmin",
      "outputs": [
        {
          "internalType": "address",
          "name": "",
          "type": "address"
        }
      ],
      "stateMutability": "view",
      "type": "function"
    },
    {
      "inputs": [],
      "name": "gelato",
      "outputs": [
        {
          "internalType": "address",
          "name": "",
          "type": "address"
        }
      ],
      "stateMutability": "view",
      "type": "function"
    },
    {
      "inputs": [
        {
          "internalType": "uint160",
          "name": "sqrtRatioX96",
          "type": "uint160"
        },
        {
          "internalType": "uint160",
          "name": "sqrtRatioAX96",
          "type": "uint160"
        },
        {
          "internalType": "uint160",
          "name": "sqrtRatioBX96",
          "type": "uint160"
        },
        {
          "internalType": "uint128",
          "name": "liquidity",
          "type": "uint128"
        }
      ],
      "name": "getAmountsForLiquidity",
      "outputs": [
        {
          "internalType": "uint256",
          "name": "amount0",
          "type": "uint256"
        },
        {
          "internalType": "uint256",
          "name": "amount1",
          "type": "uint256"
        }
      ],
      "stateMutability": "pure",
      "type": "function"
    },
    {
      "inputs": [
        {
          "internalType": "uint160",
          "name": "sqrtRatioX96",
          "type": "uint160"
        },
        {
          "internalType": "uint160",
          "name": "sqrtRatioAX96",
          "type": "uint160"
        },
        {
          "internalType": "uint160",
          "name": "sqrtRatioBX96",
          "type": "uint160"
        },
        {
          "internalType": "uint256",
          "name": "amount0",
          "type": "uint256"
        },
        {
          "internalType": "uint256",
          "name": "amount1",
          "type": "uint256"
        }
      ],
      "name": "getLiquidityForAmounts",
      "outputs": [
        {
          "internalType": "uint128",
          "name": "liquidity",
          "type": "uint128"
        }
      ],
      "stateMutability": "pure",
      "type": "function"
    },
    {
      "inputs": [],
      "name": "getPositionID",
      "outputs": [
        {
          "internalType": "bytes32",
          "name": "positionID",
          "type": "bytes32"
        }
      ],
      "stateMutability": "view",
      "type": "function"
    },
    {
      "inputs": [],
      "name": "heartbeat",
      "outputs": [
        {
          "internalType": "uint256",
          "name": "",
          "type": "uint256"
        }
      ],
      "stateMutability": "view",
      "type": "function"
    },
    {
      "inputs": [
        {
          "internalType": "int24",
          "name": "_lowerTick",
          "type": "int24"
        },
        {
          "internalType": "int24",
          "name": "_upperTick",
          "type": "int24"
        },
        {
          "internalType": "uint256",
          "name": "supply",
          "type": "uint256"
        },
        {
          "internalType": "address",
          "name": "admin",
          "type": "address"
        }
      ],
      "name": "initialize",
      "outputs": [],
      "stateMutability": "nonpayable",
      "type": "function"
    },
    {
      "inputs": [],
      "name": "lastRebalanceTimestamp",
      "outputs": [
        {
          "internalType": "uint256",
          "name": "",
          "type": "uint256"
        }
      ],
      "stateMutability": "view",
      "type": "function"
    },
    {
      "inputs": [],
      "name": "maxSlippagePercentage",
      "outputs": [
        {
          "internalType": "uint160",
          "name": "",
          "type": "uint160"
        }
      ],
      "stateMutability": "view",
      "type": "function"
    },
    {
      "inputs": [],
      "name": "maxTickDeviation",
      "outputs": [
        {
          "internalType": "int24",
          "name": "",
          "type": "int24"
        }
      ],
      "stateMutability": "view",
      "type": "function"
    },
    {
      "inputs": [],
      "name": "minTickDeviation",
      "outputs": [
        {
          "internalType": "int24",
          "name": "",
          "type": "int24"
        }
      ],
      "stateMutability": "view",
      "type": "function"
    },
    {
      "inputs": [
        {
          "internalType": "uint128",
          "name": "newLiquidity",
          "type": "uint128"
        }
      ],
      "name": "mint",
      "outputs": [
        {
          "internalType": "uint256",
          "name": "mintAmount",
          "type": "uint256"
        }
      ],
      "stateMutability": "nonpayable",
      "type": "function"
    },
    {
      "inputs": [],
      "name": "name",
      "outputs": [
        {
          "internalType": "string",
          "name": "",
          "type": "string"
        }
      ],
      "stateMutability": "view",
      "type": "function"
    },
    {
      "inputs": [
        {
          "internalType": "address",
          "name": "account",
          "type": "address"
        }
      ],
      "name": "nonces",
      "outputs": [
        {
          "internalType": "uint256",
          "name": "",
          "type": "uint256"
        }
      ],
      "stateMutability": "view",
      "type": "function"
    },
    {
      "inputs": [],
      "name": "observationSeconds",
      "outputs": [
        {
          "internalType": "uint32",
          "name": "",
          "type": "uint32"
        }
      ],
      "stateMutability": "view",
      "type": "function"
    },
    {
      "inputs": [
        {
          "internalType": "address",
          "name": "owner",
          "type": "address"
        },
        {
          "internalType": "address",
          "name": "spender",
          "type": "address"
        },
        {
          "internalType": "uint256",
          "name": "value",
          "type": "uint256"
        },
        {
          "internalType": "uint256",
          "name": "deadline",
          "type": "uint256"
        },
        {
          "internalType": "uint8",
          "name": "v",
          "type": "uint8"
        },
        {
          "internalType": "bytes32",
          "name": "r",
          "type": "bytes32"
        },
        {
          "internalType": "bytes32",
          "name": "s",
          "type": "bytes32"
        }
      ],
      "name": "permit",
      "outputs": [],
      "stateMutability": "nonpayable",
      "type": "function"
    },
    {
      "inputs": [],
      "name": "pool",
      "outputs": [
        {
          "internalType": "contract IUniswapV3Pool",
          "name": "",
          "type": "address"
        }
      ],
      "stateMutability": "view",
      "type": "function"
    },
    {
      "inputs": [
        {
          "internalType": "int24",
          "name": "newLowerTick",
          "type": "int24"
        },
        {
          "internalType": "int24",
          "name": "newUpperTick",
          "type": "int24"
        },
        {
          "internalType": "uint160",
          "name": "swapThresholdPrice",
          "type": "uint160"
        },
        {
          "internalType": "uint256",
          "name": "swapAmountBPS",
          "type": "uint256"
        },
        {
          "internalType": "uint256",
          "name": "feeAmount",
          "type": "uint256"
        },
        {
          "internalType": "address",
          "name": "paymentToken",
          "type": "address"
        }
      ],
      "name": "rebalance",
      "outputs": [],
      "stateMutability": "nonpayable",
      "type": "function"
    },
    {
      "inputs": [],
      "name": "renounceAdmin",
      "outputs": [],
      "stateMutability": "nonpayable",
      "type": "function"
    },
    {
      "inputs": [],
      "name": "supplyCap",
      "outputs": [
        {
          "internalType": "uint256",
          "name": "",
          "type": "uint256"
        }
      ],
      "stateMutability": "view",
      "type": "function"
    },
    {
      "inputs": [],
      "name": "symbol",
      "outputs": [
        {
          "internalType": "string",
          "name": "",
          "type": "string"
        }
      ],
      "stateMutability": "view",
      "type": "function"
    },
    {
      "inputs": [],
      "name": "token0",
      "outputs": [
        {
          "internalType": "contract IERC20Minimal",
          "name": "",
          "type": "address"
        }
      ],
      "stateMutability": "view",
      "type": "function"
    },
    {
      "inputs": [],
      "name": "token1",
      "outputs": [
        {
          "internalType": "contract IERC20Minimal",
          "name": "",
          "type": "address"
        }
      ],
      "stateMutability": "view",
      "type": "function"
    },
    {
      "inputs": [],
      "name": "totalSupply",
      "outputs": [
        {
          "internalType": "uint256",
          "name": "",
          "type": "uint256"
        }
      ],
      "stateMutability": "view",
      "type": "function"
    },
    {
      "inputs": [
        {
          "internalType": "address",
          "name": "to",
          "type": "address"
        },
        {
          "internalType": "uint256",
          "name": "value",
          "type": "uint256"
        }
      ],
      "name": "transfer",
      "outputs": [
        {
          "internalType": "bool",
          "name": "",
          "type": "bool"
        }
      ],
      "stateMutability": "nonpayable",
      "type": "function"
    },
    {
      "inputs": [
        {
          "internalType": "address",
          "name": "newAdmin",
          "type": "address"
        }
      ],
      "name": "transferAdmin",
      "outputs": [],
      "stateMutability": "nonpayable",
      "type": "function"
    },
    {
      "inputs": [
        {
          "internalType": "address",
          "name": "from",
          "type": "address"
        },
        {
          "internalType": "address",
          "name": "to",
          "type": "address"
        },
        {
          "internalType": "uint256",
          "name": "value",
          "type": "uint256"
        }
      ],
      "name": "transferFrom",
      "outputs": [
        {
          "internalType": "bool",
          "name": "",
          "type": "bool"
        }
      ],
      "stateMutability": "nonpayable",
      "type": "function"
    },
    {
      "inputs": [
        {
          "internalType": "uint256",
          "name": "amount0Owed",
          "type": "uint256"
        },
        {
          "internalType": "uint256",
          "name": "amount1Owed",
          "type": "uint256"
        },
        {
          "internalType": "bytes",
          "name": "data",
          "type": "bytes"
        }
      ],
      "name": "uniswapV3MintCallback",
      "outputs": [],
      "stateMutability": "nonpayable",
      "type": "function"
    },
    {
      "inputs": [
        {
          "internalType": "int256",
          "name": "amount0Delta",
          "type": "int256"
        },
        {
          "internalType": "int256",
          "name": "amount1Delta",
          "type": "int256"
        },
        {
          "internalType": "bytes",
          "name": "",
          "type": "bytes"
        }
      ],
      "name": "uniswapV3SwapCallback",
      "outputs": [],
      "stateMutability": "nonpayable",
      "type": "function"
    },
    {
      "inputs": [
        {
          "internalType": "uint256",
          "name": "__supplyCap",
          "type": "uint256"
        },
        {
          "internalType": "uint256",
          "name": "__heartbeat",
          "type": "uint256"
        },
        {
          "internalType": "int24",
          "name": "__minTickDeviation",
          "type": "int24"
        },
        {
          "internalType": "int24",
          "name": "__maxTickDeviation",
          "type": "int24"
        },
        {
          "internalType": "uint32",
          "name": "__observationSeconds",
          "type": "uint32"
        },
        {
          "internalType": "uint160",
          "name": "__maxSlippagePercentage",
          "type": "uint160"
        }
      ],
      "name": "updateMetaParams",
      "outputs": [],
      "stateMutability": "nonpayable",
      "type": "function"
    }
  ],
  "transactionHash": "0xceb8d92c68cbcaf27480103d7b4550eda6dd4c3fb65881f366b3af6b0d0cfb2c",
  "args": [
    "0x25D0Ea8FAc3Ce2313c6a478DA92e0ccf95213B1A",
    "0xD90fC89e89E3E5b75256b5aA617f887C583b29a2"
  ],
  "solcInputHash": "639c4592c14c8e701f67dddaced87636",
  "bytecode": "0x6101406040523480156200001257600080fd5b506040516200411b3803806200411b833981810160405260408110156200003857600080fd5b508051602091820151604080518082018252601d81527f47656c61746f20556e697377617020563320574554482f444149204c5000000090850152805180820182526001808252603160f81b9186019190915281517f8b73c3c69bb8fe3d512ecc4cf759cc79239f7b179b0ffacaa9a75d522b39400f818701527fd484bb871537624154e4f2fb208cc8dce9d68688adfc8b2047ec7fb6e1c554b4818401527fc89efdaa54c0f20c7adf612882df0950f5a951637e0307cdcb4c672f298b8bc6606080830191909152466080808401919091523060a08085019190915285518085038201815260c085018088528151918b01919091209092526004949094559086901b6001600160601b031916909252630dfe168160e01b9091529051929391926001600160a01b03851692630dfe16819260c48082019391829003018186803b1580156200018657600080fd5b505afa1580156200019b573d6000803e3d6000fd5b505050506040513d6020811015620001b257600080fd5b505160601b6001600160601b03191660c0526040805163d21220a760e01b815290516001600160a01b0384169163d21220a7916004808301926020929190829003018186803b1580156200020557600080fd5b505afa1580156200021a573d6000803e3d6000fd5b505050506040513d60208110156200023157600080fd5b50516001600160601b0319606091821b811660e05233821b6101205291901b16610100525060805160a05160601c60c05160601c60e05160601c6101005160601c6101205160601c613dae6200036d600039806109cc5280610f925250806110ad5280611d81525080610e1c5280610ecf5280611495528061156452806119e55280611a9f5280611b075280611f3e52806127de528061289a5250806108d05280610d5f5280610dee528061139b528061146a5280611a6e5280611ad55280611f05528061272152806128545250806108f45280610abd5280610be75280610cc4528061125b52806115905280611a125280611ecd528061266252806128ea5280612e6452806131a9528061325f52806132d15280613390528061394e5280613acf5280613b5f525080610a195280611c0b5250613dae6000f3fe608060405234801561001057600080fd5b50600436106102485760003560e01c80636a3089f61161013b578063d21220a7116100b8578063e3fbf2f81161007c578063e3fbf2f814610785578063e5475ae7146107d3578063f851a440146107db578063fa2c6d7c146107e3578063fa461e331461080457610248565b8063d21220a71461067c578063d348799714610684578063d505accf146106fe578063dd62ed3e1461074f578063df28408a1461077d57610248565b80638f770ad0116100ff5780638f770ad0146105d957806395d89b41146105e1578063a9059cbb146105e9578063b83d815714610615578063c72e160b1461061d57610248565b80636a3089f61461055757806370a082311461055f57806375829def146105855780637ecebe00146105ab5780638bad0c0a146105d157610248565b80633644e515116101c9578063573ea5751161018d578063573ea575146104715780636098fd4a14610479578063696c58e5146104d757806369822d91146104df57806369d3e20e1461053157610248565b80633644e515146103d35780633defb962146103db57806342966c68146103e35780634b41d7d81461042757806353e2a5741461042f57610248565b80631f6697c6116102105780631f6697c61461035057806323b872dd1461036f5780632d97b62f146103a557806330adf81f146103ad578063313ce567146103b557610248565b806306fdde031461024d578063095ea7b3146102ca5780630dfe16811461030a57806316f0115b1461032e57806318160ddd14610336575b600080fd5b61025561087e565b6040805160208082528351818301528351919283929083019185019080838360005b8381101561028f578181015183820152602001610277565b50505050905090810190601f1680156102bc5780820380516001836020036101000a031916815260200191505b509250505060405180910390f35b6102f6600480360360408110156102e057600080fd5b506001600160a01b0381351690602001356108b7565b604080519115158252519081900360200190f35b6103126108ce565b604080516001600160a01b039092168252519081900360200190f35b6103126108f2565b61033e610916565b60408051918252519081900360200190f35b610358610925565b6040805160029290920b8252519081900360200190f35b6102f66004803603606081101561038557600080fd5b506001600160a01b03813581169160208101359091169060400135610935565b6103126109ca565b61033e6109ee565b6103bd610a12565b6040805160ff9092168252519081900360200190f35b61033e610a17565b61033e610a3b565b610400600480360360208110156103f957600080fd5b5035610a41565b6040805193845260208401929092526001600160801b031682820152519081900360600190f35b610358610f69565b61046f6004803603608081101561044557600080fd5b508035600290810b91602081013590910b90604081013590606001356001600160a01b0316610f72565b005b6103126110ab565b6104bb600480360360a081101561048f57600080fd5b506001600160a01b038135811691602081013582169160408201351690606081013590608001356110cf565b604080516001600160801b039092168252519081900360200190f35b6103586110ea565b61046f600480360360c08110156104f557600080fd5b508035906020810135906040810135600290810b91606081013590910b90608081013563ffffffff169060a001356001600160a01b03166110fa565b61033e6004803603602081101561054757600080fd5b50356001600160801b0316611240565b610312611788565b61033e6004803603602081101561057557600080fd5b50356001600160a01b031661179e565b61046f6004803603602081101561059b57600080fd5b50356001600160a01b03166117bd565b61033e600480360360208110156105c157600080fd5b50356001600160a01b03166118c2565b61046f6118dd565b61033e61198b565b610255611991565b6102f6600480360360408110156105ff57600080fd5b506001600160a01b0381351690602001356119b3565b61033e6119c0565b6106636004803603608081101561063357600080fd5b5080356001600160a01b0390811691602081013582169160408201351690606001356001600160801b03166119c6565b6040805192835260208301919091528051918290030190f35b6103126119e3565b61046f6004803603606081101561069a57600080fd5b813591602081013591810190606081016040820135600160201b8111156106c057600080fd5b8201836020820111156106d257600080fd5b803590602001918460018302840111600160201b831117156106f357600080fd5b509092509050611a07565b61046f600480360360e081101561071457600080fd5b506001600160a01b03813581169160208101359091169060408101359060608101359060ff6080820135169060a08101359060c00135611b35565b61033e6004803603604081101561076557600080fd5b506001600160a01b0381358116916020013516611d4a565b61033e611d75565b61046f600480360360c081101561079b57600080fd5b508035600290810b91602081013590910b906001600160a01b03604082013581169160608101359160808201359160a0013516611d7f565b610358611e90565b610312611ea0565b6107eb611eaf565b6040805163ffffffff9092168252519081900360200190f35b61046f6004803603606081101561081a57600080fd5b813591602081013591810190606081016040820135600160201b81111561084057600080fd5b82018360208201111561085257600080fd5b803590602001918460018302840111600160201b8311171561087357600080fd5b509092509050611ec2565b6040518060400160405280601d81526020017f47656c61746f20556e697377617020563320574554482f444149204c5000000081525081565b60006108c4338484611f6a565b5060015b92915050565b7f000000000000000000000000000000000000000000000000000000000000000081565b7f000000000000000000000000000000000000000000000000000000000000000081565b6000610920611fcc565b905090565b600554600160b81b900460020b90565b6001600160a01b0383166000908152600260209081526040808320338452909152812054600019146109b4576001600160a01b038416600090815260026020908152604080832033845290915290205461098f9083611fd2565b6001600160a01b03851660009081526002602090815260408083203384529091529020555b6109bf848484611fe2565b5060015b9392505050565b7f000000000000000000000000000000000000000000000000000000000000000081565b7f6e71edae12b1b97f4d1f60370fef10105fa2faae0126114a169c64845d6126c990565b601281565b7f000000000000000000000000000000000000000000000000000000000000000081565b60085490565b600080600060026004541415610a9e576040805162461bcd60e51b815260206004820152601f60248201527f5265656e7472616e637947756172643a207265656e7472616e742063616c6c00604482015290519081900360640190fd5b600260045583610aad57600080fd5b6000610ab7610916565b905060007f00000000000000000000000000000000000000000000000000000000000000006001600160a01b031663514ea4bf610af2612090565b6040518263ffffffff1660e01b81526004018082815260200191505060a06040518083038186803b158015610b2657600080fd5b505afa158015610b3a573d6000803e3d6000fd5b505050506040513d60a0811015610b5057600080fd5b50519050610b5e33876120ea565b600082610b74886001600160801b03851661217c565b81610b7b57fe5b0490506001600160801b038110610b9157600080fd5b6005546040805163a34123a760e01b8152600160a01b8304600290810b810b6004830152600160b81b909304830b90920b60248301526001600160801b0383166044830152805192955085926001600160a01b037f0000000000000000000000000000000000000000000000000000000000000000169263a34123a79260648083019391928290030181600087803b158015610c2c57600080fd5b505af1158015610c40573d6000803e3d6000fd5b505050506040513d6040811015610c5657600080fd5b508051602090910151600554604080516309e3d67b60e31b8152336004820152600160a01b8304600290810b810b6024830152600160b81b909304830b90920b60448301526001600160801b0380851660648401528316608483015280519399509197506001600160a01b037f00000000000000000000000000000000000000000000000000000000000000001692634f1eb3d89260a4808401939192918290030181600087803b158015610d0a57600080fd5b505af1158015610d1e573d6000803e3d6000fd5b505050506040513d6040811015610d3457600080fd5b5050604080516370a0823160e01b815230600482015290516000918591610dd9916001600160a01b037f000000000000000000000000000000000000000000000000000000000000000016916370a0823191602480820192602092909190829003018186803b158015610da657600080fd5b505afa158015610dba573d6000803e3d6000fd5b505050506040513d6020811015610dd057600080fd5b50518a9061217c565b81610de057fe5b0490508015610e1457610e147f000000000000000000000000000000000000000000000000000000000000000033836121a0565b600084610eba7f00000000000000000000000000000000000000000000000000000000000000006001600160a01b03166370a08231306040518263ffffffff1660e01b815260040180826001600160a01b0316815260200191505060206040518083038186803b158015610e8757600080fd5b505afa158015610e9b573d6000803e3d6000fd5b505050506040513d6020811015610eb157600080fd5b50518b9061217c565b81610ec157fe5b0490508015610ef557610ef57f000000000000000000000000000000000000000000000000000000000000000033836121a0565b610eff88836122e8565b9750610f0b87826122e8565b60408051338152602081018c90528082018b90526060810183905290519198507f4c60206a5c1de41f3376d1d60f0949d96cb682033c90b1c2d9d9a62d4c4120c0919081900360800190a15050600160045550939592945090925050565b60095460020b90565b600954600160f01b900460ff16158015610fb45750336001600160a01b037f000000000000000000000000000000000000000000000000000000000000000016145b610fef5760405162461bcd60e51b8152600401808060200182810382526028815260200180613cea6028913960400191505060405180910390fd5b6005805462ffffff60a01b1916600160a01b600287810b62ffffff908116929092029290921762ffffff60b81b1916600160b81b9287900b919091169190910217905560098054607862ffffff199091161765ffffff0000001916641b580000001769ffffffff000000000000191667012c00000000000017600160501b600160f01b031916600560501b179055620151806008556007829055611092816122f8565b50506009805460ff60f01b1916600160f01b1790555050565b7f000000000000000000000000000000000000000000000000000000000000000081565b60006110de868686868661231a565b90505b95945050505050565b6009546301000000900460020b90565b33611103611ea0565b6001600160a01b03161461115e576040805162461bcd60e51b815260206004820181905260248201527f4f776e61626c653a2063616c6c6572206973206e6f7420746865206f776e6572604482015290519081900360640190fd5b600786905560088590556009805465ffffff00000019166301000000600286810b62ffffff818116939093029390931762ffffff19169088900b9182161769ffffffff0000000000001916600160301b63ffffffff871690810291909117600160501b600160f01b031916600160501b6001600160a01b03871690810291909117909455604080518b8152602081018b9052808201939093526060830193909352608082015260a0810192909252517f37bc6b2ab5c732be3097b0ac7f897954fde4420fdcf9de71f8df467c9a907f389160c0908290030190a1505050505050565b600080826001600160801b03161161125757600080fd5b60007f00000000000000000000000000000000000000000000000000000000000000006001600160a01b031663514ea4bf611290612090565b6040518263ffffffff1660e01b81526004018082815260200191505060a06040518083038186803b1580156112c457600080fd5b505afa1580156112d8573d6000803e3d6000fd5b505050506040513d60a08110156112ee57600080fd5b5051905060006112fc610916565b90508061131457836001600160801b03169250611337565b6001600160801b038083169061132c9086168361217c565b8161133357fe5b0492505b61134181846122e8565b6007541015611397576040805162461bcd60e51b815260206004820181905260248201527f63616e6e6f74206d696e74206d6f7265207468616e205f737570706c79436170604482015290519081900360640190fd5b60007f00000000000000000000000000000000000000000000000000000000000000006001600160a01b03166370a08231306040518263ffffffff1660e01b815260040180826001600160a01b0316815260200191505060206040518083038186803b15801561140657600080fd5b505afa15801561141a573d6000803e3d6000fd5b505050506040513d602081101561143057600080fd5b505190506000811561145f576001600160801b03808516906114549088168461217c565b8161145b57fe5b0490505b8015611491576114917f00000000000000000000000000000000000000000000000000000000000000003330846123d3565b60007f00000000000000000000000000000000000000000000000000000000000000006001600160a01b03166370a08231306040518263ffffffff1660e01b815260040180826001600160a01b0316815260200191505060206040518083038186803b15801561150057600080fd5b505afa158015611514573d6000803e3d6000fd5b505050506040513d602081101561152a57600080fd5b5051905060008115611559576001600160801b038087169061154e908a168461217c565b8161155557fe5b0490505b801561158b5761158b7f00000000000000000000000000000000000000000000000000000000000000003330846123d3565b6000807f00000000000000000000000000000000000000000000000000000000000000006001600160a01b0316633c8a7d8d30600560149054906101000a900460020b600560179054906101000a900460020b8e3360405160200180826001600160a01b031681526020019150506040516020818303038152906040526040518663ffffffff1660e01b815260040180866001600160a01b031681526020018560020b81526020018460020b8152602001836001600160801b0316815260200180602001828103825283818151815260200191508051906020019080838360005b8381101561168457818101518382015260200161166c565b50505050905090810190601f1680156116b15780820380516001836020036101000a031916815260200191505b5096505050505050506040805180830381600087803b1580156116d357600080fd5b505af11580156116e7573d6000803e3d6000fd5b505050506040513d60408110156116fd57600080fd5b5080516020909101519092509050611715338a61252c565b7f5a3358a3d27a5373c0df2604662088d37894d56b7cfd27f315770440f4e0d919338a61174285896122e8565b61174c85886122e8565b604080516001600160a01b0390951685526020850193909352838301919091526060830152519081900360800190a15050505050505050919050565b600954600160501b90046001600160a01b031690565b6001600160a01b0381166000908152600160205260409020545b919050565b336117c6611ea0565b6001600160a01b031614611821576040805162461bcd60e51b815260206004820181905260248201527f4f776e61626c653a2063616c6c6572206973206e6f7420746865206f776e6572604482015290519081900360640190fd5b6001600160a01b0381166118665760405162461bcd60e51b8152600401808060200182810382526026815260200180613cc46026913960400191505060405180910390fd5b6005546040516001600160a01b038084169216907f8be0079c531659141344cd1fd0a4f28419497f9722a3daafe3b4186f6b6457e090600090a3600580546001600160a01b0319166001600160a01b0392909216919091179055565b6001600160a01b031660009081526003602052604090205490565b336118e6611ea0565b6001600160a01b031614611941576040805162461bcd60e51b815260206004820181905260248201527f4f776e61626c653a2063616c6c6572206973206e6f7420746865206f776e6572604482015290519081900360640190fd5b6005546040516000916001600160a01b0316907f8be0079c531659141344cd1fd0a4f28419497f9722a3daafe3b4186f6b6457e0908390a3600580546001600160a01b0319169055565b60075490565b6040518060400160405280600681526020016567554e49563360d01b81525081565b60006108c4338484611fe2565b60065490565b6000806119d5868686866125b6565b915091505b94509492505050565b7f000000000000000000000000000000000000000000000000000000000000000081565b336001600160a01b037f00000000000000000000000000000000000000000000000000000000000000001614611a3c57600080fd5b600082826020811015611a4e57600080fd5b50356001600160a01b0316905030811415611aca578415611a9457611a947f000000000000000000000000000000000000000000000000000000000000000033876121a0565b8315611ac557611ac57f000000000000000000000000000000000000000000000000000000000000000033866121a0565b611b2e565b8415611afc57611afc7f00000000000000000000000000000000000000000000000000000000000000008233886123d3565b8315611b2e57611b2e7f00000000000000000000000000000000000000000000000000000000000000008233876123d3565b5050505050565b42841015611b74576040805162461bcd60e51b81526020600482015260076024820152661156141254915160ca1b604482015290519081900360640190fd5b6001600160a01b0380881660008181526003602090815260408083208054600180820190925582517f6e71edae12b1b97f4d1f60370fef10105fa2faae0126114a169c64845d6126c98186015280840196909652958c166060860152608085018b905260a085019590955260c08085018a90528151808603909101815260e08501825280519083012061190160f01b6101008601527f00000000000000000000000000000000000000000000000000000000000000006101028601526101228086019190915281518086039091018152610142850180835281519184019190912090849052610162850180835281905260ff89166101828601526101a285018890526101c285018790529051909492936101e28082019392601f1981019281900390910190855afa158015611cad573d6000803e3d6000fd5b5050604051601f1901519150506001600160a01b03811615801590611ce35750886001600160a01b0316816001600160a01b0316145b611d34576040805162461bcd60e51b815260206004820152601c60248201527f556e697377617056323a20494e56414c49445f5349474e415455524500000000604482015290519081900360640190fd5b611d3f898989611f6a565b505050505050505050565b6001600160a01b03918216600090815260026020908152604080832093909416825291909152205490565b6000610920612090565b7f00000000000000000000000000000000000000000000000000000000000000008282336001600160a01b03841614611dff576040805162461bcd60e51b815260206004820152601760248201527f47656c61746f666965643a204f6e6c792067656c61746f000000000000000000604482015290519081900360640190fd5b611e0d898989898989612652565b6040805160028b810b82528a900b602082015281517f50a05c052cf352432768eae291d601ff11e4036b91cb53eff330e6aee22b26be929181900390910190a1426006556001600160a01b03811673eeeeeeeeeeeeeeeeeeeeeeeeeeeeeeeeeeeeeeee1415611e8557611e808383612b75565b611d3f565b611d3f8184846121a0565b600554600160a01b900460020b90565b6005546001600160a01b031690565b600954600160301b900463ffffffff1690565b336001600160a01b037f00000000000000000000000000000000000000000000000000000000000000001614611ef757600080fd5b6000841315611f3057611f2b7f000000000000000000000000000000000000000000000000000000000000000033866121a0565b611f64565b6000831315611f6457611f647f000000000000000000000000000000000000000000000000000000000000000033856121a0565b50505050565b6001600160a01b03808416600081815260026020908152604080832094871680845294825291829020859055815185815291517f8c5be1e5ebec7d5bd14f71427d1e84f3dd0314c0f7b2291e5b200ac8c7c3b9259281900390910190a3505050565b60005490565b808203828111156108c857600080fd5b6001600160a01b0383166000908152600160205260409020546120059082611fd2565b6001600160a01b03808516600090815260016020526040808220939093559084168152205461203490826122e8565b6001600160a01b0380841660008181526001602090815260409182902094909455805185815290519193928716927fddf252ad1be2c89b69c2b068fc378daa952ba7f163c4a11628f55a4df523b3ef92918290030190a3505050565b600554604080513060601b602080830191909152600160a01b8404600290810b810b60e890811b6034850152600160b81b909504810b900b90931b60378201528151601a818303018152603a909101909152805191012090565b6001600160a01b03821660009081526001602052604090205461210d9082611fd2565b6001600160a01b038316600090815260016020526040812091909155546121349082611fd2565b60009081556040805183815290516001600160a01b038516917fddf252ad1be2c89b69c2b068fc378daa952ba7f163c4a11628f55a4df523b3ef919081900360200190a35050565b60008215806121975750508181028183828161219457fe5b04145b6108c857600080fd5b604080516001600160a01b038481166024830152604480830185905283518084039091018152606490920183526020820180516001600160e01b031663a9059cbb60e01b178152925182516000946060949389169392918291908083835b6020831061221d5780518252601f1990920191602091820191016121fe565b6001836020036101000a0380198251168184511680821785525050505050509050019150506000604051808303816000865af19150503d806000811461227f576040519150601f19603f3d011682016040523d82523d6000602084013e612284565b606091505b50915091508180156122b25750805115806122b257508080602001905160208110156122af57600080fd5b50515b611b2e576040805162461bcd60e51b815260206004820152600260248201526114d560f21b604482015290519081900360640190fd5b808201828110156108c857600080fd5b600580546001600160a01b0319166001600160a01b0392909216919091179055565b6000836001600160a01b0316856001600160a01b0316111561233a579293925b846001600160a01b0316866001600160a01b031610156123665761235f858585612c69565b90506110e1565b836001600160a01b0316866001600160a01b031610156123c857600061238d878686612c69565b9050600061239c878986612ccc565b9050806001600160801b0316826001600160801b0316106123bd57806123bf565b815b925050506110e1565b6110de858584612ccc565b604080516001600160a01b0385811660248301528481166044830152606480830185905283518084039091018152608490920183526020820180516001600160e01b03166323b872dd60e01b17815292518251600094606094938a169392918291908083835b602083106124585780518252601f199092019160209182019101612439565b6001836020036101000a0380198251168184511680821785525050505050509050019150506000604051808303816000865af19150503d80600081146124ba576040519150601f19603f3d011682016040523d82523d6000602084013e6124bf565b606091505b50915091508180156124ed5750805115806124ed57508080602001905160208110156124ea57600080fd5b50515b612524576040805162461bcd60e51b815260206004820152600360248201526229aa2360e91b604482015290519081900360640190fd5b505050505050565b60005461253990826122e8565b60009081556001600160a01b03831681526001602052604090205461255e90826122e8565b6001600160a01b03831660008181526001602090815260408083209490945583518581529351929391927fddf252ad1be2c89b69c2b068fc378daa952ba7f163c4a11628f55a4df523b3ef9281900390910190a35050565b600080836001600160a01b0316856001600160a01b031611156125d7579293925b846001600160a01b0316866001600160a01b03161015612603576125fc858585612d11565b91506119da565b836001600160a01b0316866001600160a01b0316101561263c57612628868585612d11565b9150612635858785612d7a565b90506119da565b612647858585612d7a565b905094509492505050565b61265b84612dbd565b60008060007f00000000000000000000000000000000000000000000000000000000000000006001600160a01b031663514ea4bf612697612090565b6040518263ffffffff1660e01b81526004018082815260200191505060a06040518083038186803b1580156126cb57600080fd5b505afa1580156126df573d6000803e3d6000fd5b505050506040513d60a08110156126f557600080fd5b505160055490915061271d90600160a01b8104600290810b91600160b81b9004900b8361316e565b60007f00000000000000000000000000000000000000000000000000000000000000006001600160a01b03166370a08231306040518263ffffffff1660e01b815260040180826001600160a01b0316815260200191505060206040518083038186803b15801561278c57600080fd5b505afa1580156127a0573d6000803e3d6000fd5b505050506040513d60208110156127b657600080fd5b5051604080516370a0823160e01b815230600482015290519192506000916001600160a01b037f000000000000000000000000000000000000000000000000000000000000000016916370a08231916024808301926020929190829003018186803b15801561282457600080fd5b505afa158015612838573d6000803e3d6000fd5b505050506040513d602081101561284e57600080fd5b505190507f00000000000000000000000000000000000000000000000000000000000000006001600160a01b039081169087161461288c5781612896565b6128968288611fd2565b94507f00000000000000000000000000000000000000000000000000000000000000006001600160a01b0316866001600160a01b0316146128d757806128e1565b6128e18188611fd2565b935050505060007f00000000000000000000000000000000000000000000000000000000000000006001600160a01b0316633850c7bd6040518163ffffffff1660e01b815260040160e06040518083038186803b15801561294157600080fd5b505afa158015612955573d6000803e3d6000fd5b505050506040513d60e081101561296b57600080fd5b506020015160085460065491925061298391906122e8565b4210156129f857600554600160b81b9004600290810b810b9082900b13806129bd5750600554600160a01b9004600290810b810b9082900b125b6129f85760405162461bcd60e51b8152600401808060200182810382526038815260200180613d416038913960400191505060405180910390fd5b60095460028a810b91810b8303900b12801590612a2a575060095463010000009004600290810b8203810b908a900b12155b612a74576040805162461bcd60e51b81526020600482015260166024820152756c6f7765725469636b206f7574206f662072616e676560501b604482015290519081900360640190fd5b600954600289810b6301000000909204810b8301900b12801590612aa65750600954600290810b8201810b9089900b12155b612af0576040805162461bcd60e51b815260206004820152601660248201527575707065725469636b206f7574206f662072616e676560501b604482015290519081900360640190fd5b60055460028a810b600160a01b909204810b900b141580612b235750600554600289810b600160b81b909204810b900b14155b15612b67576005805460028b810b62ffffff908116600160a01b0262ffffff60a01b19928d900b909116600160b81b0262ffffff60b81b1990931692909217161790555b611d3f898985858b8b6132cd565b604080516000808252602082019092526001600160a01b0384169083906040518082805190602001908083835b60208310612bc15780518252601f199092019160209182019101612ba2565b6001836020036101000a03801982511681845116808217855250505050505090500191505060006040518083038185875af1925050503d8060008114612c23576040519150601f19603f3d011682016040523d82523d6000602084013e612c28565b606091505b5050905080612c64576040805162461bcd60e51b815260206004820152600360248201526253544560e81b604482015290519081900360640190fd5b505050565b6000826001600160a01b0316846001600160a01b03161115612c89579192915b6000612cac856001600160a01b0316856001600160a01b0316600160601b613550565b90506110e1612cc784838888036001600160a01b0316613550565b6135ff565b6000826001600160a01b0316846001600160a01b03161115612cec579192915b612d09612cc783600160601b8787036001600160a01b0316613550565b949350505050565b6000826001600160a01b0316846001600160a01b03161115612d31579192915b836001600160a01b0316612d6a606060ff16846001600160801b0316901b8686036001600160a01b0316866001600160a01b0316613550565b81612d7157fe5b04949350505050565b6000826001600160a01b0316846001600160a01b03161115612d9a579192915b612d09826001600160801b03168585036001600160a01b0316600160601b613550565b6040805160028082526060808301845292602083019080368337019050509050600960069054906101000a900463ffffffff1681600081518110612dfd57fe5b602002602001019063ffffffff16908163ffffffff1681525050600081600181518110612e2657fe5b63ffffffff90921660209283029190910182015260405163883bdbfd60e01b8152600481018281528351602483015283516060936001600160a01b037f0000000000000000000000000000000000000000000000000000000000000000169363883bdbfd9387939092839260440191858201910280838360005b83811015612eb8578181015183820152602001612ea0565b505050509050019250505060006040518083038186803b158015612edb57600080fd5b505afa158015612eef573d6000803e3d6000fd5b505050506040513d6000823e601f3d908101601f191682016040908152811015612f1857600080fd5b8101908080516040519392919084600160201b821115612f3757600080fd5b908301906020820185811115612f4c57600080fd5b82518660208202830111600160201b82111715612f6857600080fd5b82525081516020918201928201910280838360005b83811015612f95578181015183820152602001612f7d565b5050505090500160405260200180516040519392919084600160201b821115612fbd57600080fd5b908301906020820185811115612fd257600080fd5b82518660208202830111600160201b82111715612fee57600080fd5b82525081516020918201928201910280838360005b8381101561301b578181015183820152602001613003565b505050509050016040525050505090508051600214613081576040805162461bcd60e51b815260206004820152601f60248201527f756e6578706563746564206c656e677468206f66207469636b20617272617900604482015290519081900360640190fd5b6009548151600091600160301b900463ffffffff1690839083906130a157fe5b6020026020010151836001815181106130b657fe5b60200260200101510360060b816130c957fe5b05905060006130d782613615565b6009549091506000906064906001600160a01b03600160501b9091048116840216049050856001600160a01b03168183016001600160a01b0316101580156131335750856001600160a01b03168183036001600160a01b031611155b6125245760405162461bcd60e51b815260040180806020018281038252602f815260200180613d12602f913960400191505060405180910390fd5b6040805163a34123a760e01b8152600285810b600483015284900b60248201526001600160801b038316604482015281516001600160a01b037f0000000000000000000000000000000000000000000000000000000000000000169263a34123a792606480820193918290030181600087803b1580156131ed57600080fd5b505af1158015613201573d6000803e3d6000fd5b505050506040513d604081101561321757600080fd5b5050604080516309e3d67b60e31b8152306004820152600285810b602483015284900b60448201526001600160801b0360648201819052608482015281516001600160a01b037f00000000000000000000000000000000000000000000000000000000000000001692634f1eb3d89260a480820193918290030181600087803b1580156132a357600080fd5b505af11580156132b7573d6000803e3d6000fd5b505050506040513d6040811015611b2e57600080fd5b60007f00000000000000000000000000000000000000000000000000000000000000006001600160a01b0316633850c7bd6040518163ffffffff1660e01b815260040160e06040518083038186803b15801561332857600080fd5b505afa15801561333c573d6000803e3d6000fd5b505050506040513d60e081101561335257600080fd5b5051905084158015906133655750600084115b156134f3576000613389826133798a613615565b6133828a613615565b898961231a565b90506000807f00000000000000000000000000000000000000000000000000000000000000006001600160a01b0316633c8a7d8d308c8c873060405160200180826001600160a01b031681526020019150506040516020818303038152906040526040518663ffffffff1660e01b815260040180866001600160a01b031681526020018560020b81526020018460020b8152602001836001600160801b0316815260200180602001828103825283818151815260200191508051906020019080838360005b8381101561346657818101518382015260200161344e565b50505050905090810190601f1680156134935780820380516001836020036101000a031916815260200191505b5096505050505050506040805180830381600087803b1580156134b557600080fd5b505af11580156134c9573d6000803e3d6000fd5b505050506040513d60408110156134df57600080fd5b508051602090910151980397909603955050505b60008511806135025750600084115b15613547578385116000612710613526858461351e5788613520565b895b9061217c565b8161352d57fe5b04905061353f89898989858a88613946565b909750955050505b50505050505050565b6000808060001985870986860292508281109083900303905080613586576000841161357b57600080fd5b5082900490506109c3565b80841161359257600080fd5b6000848688096000868103871696879004966002600389028118808a02820302808a02820302808a02820302808a02820302808a02820302808a02909103029181900381900460010186841190950394909402919094039290920491909117919091029150509392505050565b806001600160801b03811681146117b857600080fd5b60008060008360020b1261362c578260020b613634565b8260020b6000035b9050620d89e8811115613672576040805162461bcd60e51b81526020600482015260016024820152601560fa1b604482015290519081900360640190fd5b60006001821661368657600160801b613698565b6ffffcb933bd6fad37aa2d162d1a5940015b70ffffffffffffffffffffffffffffffffff16905060028216156136cc576ffff97272373d413259a46990580e213a0260801c5b60048216156136eb576ffff2e50f5f656932ef12357cf3c7fdcc0260801c5b600882161561370a576fffe5caca7e10e4e61c3624eaa0941cd00260801c5b6010821615613729576fffcb9843d60f6159c9db58835c9266440260801c5b6020821615613748576fff973b41fa98c081472e6896dfb254c00260801c5b6040821615613767576fff2ea16466c96a3843ec78b326b528610260801c5b6080821615613786576ffe5dee046a99a2a811c461f1969c30530260801c5b6101008216156137a6576ffcbe86c7900a88aedcffc83b479aa3a40260801c5b6102008216156137c6576ff987a7253ac413176f2b074cf7815e540260801c5b6104008216156137e6576ff3392b0822b70005940c7a398e4b70f30260801c5b610800821615613806576fe7159475a2c29b7443b29c7fa6e889d90260801c5b611000821615613826576fd097f3bdfd2022b8845ad8f792aa58250260801c5b612000821615613846576fa9f746462d870fdf8a65dc1f90e061e50260801c5b614000821615613866576f70d869a156d2a1b890bb3df62baf32f70260801c5b618000821615613886576f31be135f97d08fd981231505542fcfa60260801c5b620100008216156138a7576f09aa508b5b7a84e1c677de54f3e99bc90260801c5b620200008216156138c7576e5d6af8dedb81196699c329225ee6040260801c5b620400008216156138e6576d2216e584f5fa1ea926041bedfe980260801c5b62080000821615613903576b048a170391f7dc42444e8fa20260801c5b60008460020b131561391e57806000198161391a57fe5b0490505b600160201b810615613931576001613934565b60005b60ff16602082901c0192505050919050565b6000806000807f00000000000000000000000000000000000000000000000000000000000000006001600160a01b031663128acb0830878a8a3060405160200180826001600160a01b031681526020019150506040516020818303038152906040526040518663ffffffff1660e01b815260040180866001600160a01b031681526020018515158152602001848152602001836001600160a01b0316815260200180602001828103825283818151815260200191508051906020019080838360005b83811015613a20578181015183820152602001613a08565b50505050905090810190601f168015613a4d5780820380516001836020036101000a031916815260200191505b5096505050505050506040805180830381600087803b158015613a6f57600080fd5b505af1158015613a83573d6000803e3d6000fd5b505050506040513d6040811015613a9957600080fd5b50805160209091015160408051633850c7bd60e01b81529051838d039750828c0396509294509092506000916001600160a01b037f00000000000000000000000000000000000000000000000000000000000000001691633850c7bd9160048083019260e0929190829003018186803b158015613b1557600080fd5b505afa158015613b29573d6000803e3d6000fd5b505050506040513d60e0811015613b3f57600080fd5b505190506000613b5b82613b528f613615565b6133828f613615565b90507f00000000000000000000000000000000000000000000000000000000000000006001600160a01b0316633c8a7d8d308f8f853060405160200180826001600160a01b031681526020019150506040516020818303038152906040526040518663ffffffff1660e01b815260040180866001600160a01b031681526020018560020b81526020018460020b8152602001836001600160801b0316815260200180602001828103825283818151815260200191508051906020019080838360005b83811015613c35578181015183820152602001613c1d565b50505050905090810190601f168015613c625780820380516001836020036101000a031916815260200191505b5096505050505050506040805180830381600087803b158015613c8457600080fd5b505af1158015613c98573d6000803e3d6000fd5b505050506040513d6040811015613cae57600080fd5b50959d949c50939a505050505050505050505056fe4f776e61626c653a206e6577206f776e657220697320746865207a65726f20616464726573736f6e6c792061646d696e2063616e20696e697469616c697a652c20616e64206f6e6c79206f6e6365736c697070616765207072696365206973206f7574206f662061636365707461626c652070726963652072616e676563616e6e6f7420726562616c616e636520756e74696c205f68656172746265617420287072696365207374696c6c20696e2072616e676529a26469706673582212207195a4fa78a357d9d9a719e725240895f17d152b7305b640561ac1f1b4bb09e664736f6c63430007030033",
  "devdoc": {
    "kind": "dev",
    "methods": {
      "admin()": {
        "details": "Returns the address of the current owner."
      },
      "renounceAdmin()": {
        "details": "Leaves the contract without owner. It will not be possible to call `onlyOwner` functions anymore. Can only be called by the current owner. NOTE: Renouncing ownership will leave the contract without an owner, thereby removing any functionality that is only available to the owner."
      },
      "transferAdmin(address)": {
        "details": "Transfers ownership of the contract to a new account (`newOwner`). Can only be called by the current owner."
      },
      "uniswapV3MintCallback(uint256,uint256,bytes)": {
        "details": "In the implementation you must pay the pool tokens owed for the minted liquidity. The caller of this method must be checked to be a UniswapV3Pool deployed by the canonical UniswapV3Factory.",
        "params": {
          "amount0Owed": "The amount of token0 due to the pool for the minted liquidity",
          "amount1Owed": "The amount of token1 due to the pool for the minted liquidity",
          "data": "Any data passed through by the caller via the IUniswapV3PoolActions#mint call"
        }
      }
    },
    "version": 1
  },
  "userdoc": {
    "kind": "user",
    "methods": {
      "uniswapV3MintCallback(uint256,uint256,bytes)": {
        "notice": "Called to `msg.sender` after minting liquidity to a position from IUniswapV3Pool#mint."
      }
    },
    "version": 1
  },
  "storageLayout": {
    "storage": [
      {
        "astId": 1489,
        "contract": "contracts/MetaPool.sol:MetaPool",
        "label": "_totalSupply",
        "offset": 0,
        "slot": "0",
        "type": "t_uint256"
      },
      {
        "astId": 1493,
        "contract": "contracts/MetaPool.sol:MetaPool",
        "label": "_balanceOf",
        "offset": 0,
        "slot": "1",
        "type": "t_mapping(t_address,t_uint256)"
      },
      {
        "astId": 1499,
        "contract": "contracts/MetaPool.sol:MetaPool",
        "label": "_allowance",
        "offset": 0,
        "slot": "2",
        "type": "t_mapping(t_address,t_mapping(t_address,t_uint256))"
      },
      {
        "astId": 1510,
        "contract": "contracts/MetaPool.sol:MetaPool",
        "label": "_nonces",
        "offset": 0,
        "slot": "3",
        "type": "t_mapping(t_address,t_uint256)"
      },
      {
        "astId": 3633,
        "contract": "contracts/MetaPool.sol:MetaPool",
        "label": "_status",
        "offset": 0,
        "slot": "4",
        "type": "t_uint256"
      },
      {
        "astId": 3527,
        "contract": "contracts/MetaPool.sol:MetaPool",
        "label": "_admin",
        "offset": 0,
        "slot": "5",
        "type": "t_address"
      },
      {
        "astId": 2018,
        "contract": "contracts/MetaPool.sol:MetaPool",
        "label": "_currentLowerTick",
        "offset": 20,
        "slot": "5",
        "type": "t_int24"
      },
      {
        "astId": 2020,
        "contract": "contracts/MetaPool.sol:MetaPool",
        "label": "_currentUpperTick",
        "offset": 23,
        "slot": "5",
        "type": "t_int24"
      },
      {
        "astId": 2030,
        "contract": "contracts/MetaPool.sol:MetaPool",
        "label": "_lastRebalanceTimestamp",
        "offset": 0,
        "slot": "6",
        "type": "t_uint256"
      },
      {
        "astId": 2032,
        "contract": "contracts/MetaPool.sol:MetaPool",
        "label": "_supplyCap",
        "offset": 0,
        "slot": "7",
        "type": "t_uint256"
      },
      {
        "astId": 2034,
        "contract": "contracts/MetaPool.sol:MetaPool",
        "label": "_heartbeat",
        "offset": 0,
        "slot": "8",
        "type": "t_uint256"
      },
      {
        "astId": 2036,
        "contract": "contracts/MetaPool.sol:MetaPool",
        "label": "_minTickDeviation",
        "offset": 0,
        "slot": "9",
        "type": "t_int24"
      },
      {
        "astId": 2038,
        "contract": "contracts/MetaPool.sol:MetaPool",
        "label": "_maxTickDeviation",
        "offset": 3,
        "slot": "9",
        "type": "t_int24"
      },
      {
        "astId": 2040,
        "contract": "contracts/MetaPool.sol:MetaPool",
        "label": "_observationSeconds",
        "offset": 6,
        "slot": "9",
        "type": "t_uint32"
      },
      {
        "astId": 2042,
        "contract": "contracts/MetaPool.sol:MetaPool",
        "label": "_maxSlippagePercentage",
        "offset": 10,
        "slot": "9",
        "type": "t_uint160"
      },
      {
        "astId": 2046,
        "contract": "contracts/MetaPool.sol:MetaPool",
        "label": "initialized",
        "offset": 30,
        "slot": "9",
        "type": "t_bool"
      }
    ],
    "types": {
      "t_address": {
        "encoding": "inplace",
        "label": "address",
        "numberOfBytes": "20"
      },
      "t_bool": {
        "encoding": "inplace",
        "label": "bool",
        "numberOfBytes": "1"
      },
      "t_int24": {
        "encoding": "inplace",
        "label": "int24",
        "numberOfBytes": "3"
      },
      "t_mapping(t_address,t_mapping(t_address,t_uint256))": {
        "encoding": "mapping",
        "key": "t_address",
        "label": "mapping(address => mapping(address => uint256))",
        "numberOfBytes": "32",
        "value": "t_mapping(t_address,t_uint256)"
      },
      "t_mapping(t_address,t_uint256)": {
        "encoding": "mapping",
        "key": "t_address",
        "label": "mapping(address => uint256)",
        "numberOfBytes": "32",
        "value": "t_uint256"
      },
      "t_uint160": {
        "encoding": "inplace",
        "label": "uint160",
        "numberOfBytes": "20"
      },
      "t_uint256": {
        "encoding": "inplace",
        "label": "uint256",
        "numberOfBytes": "32"
      },
      "t_uint32": {
        "encoding": "inplace",
        "label": "uint32",
        "numberOfBytes": "4"
      }
    }
  }
}