{
  "address": "0x9297621246888Fab083815eC59aB84f8C663Cba4",
  "abi": [
    {
      "inputs": [
        {
          "internalType": "string",
          "name": "_name",
          "type": "string"
        },
        {
          "internalType": "contract IUniswapV3Pool",
          "name": "_pool",
          "type": "address"
        },
        {
          "internalType": "int24",
          "name": "_initialLowerTick",
          "type": "int24"
        },
        {
          "internalType": "int24",
          "name": "_initialUpperTick",
          "type": "int24"
        },
        {
          "internalType": "address",
          "name": "_gelato",
          "type": "address"
        }
      ],
      "stateMutability": "nonpayable",
      "type": "constructor"
    },
    {
      "anonymous": false,
      "inputs": [
        {
          "indexed": true,
          "internalType": "address",
          "name": "owner",
          "type": "address"
        },
        {
          "indexed": true,
          "internalType": "address",
          "name": "spender",
          "type": "address"
        },
        {
          "indexed": false,
          "internalType": "uint256",
          "name": "value",
          "type": "uint256"
        }
      ],
      "name": "Approval",
      "type": "event"
    },
    {
      "anonymous": false,
      "inputs": [
        {
          "indexed": false,
          "internalType": "address",
          "name": "burner",
          "type": "address"
        },
        {
          "indexed": false,
          "internalType": "uint256",
          "name": "burnAmount",
          "type": "uint256"
        },
        {
          "indexed": false,
          "internalType": "uint256",
          "name": "amount0Out",
          "type": "uint256"
        },
        {
          "indexed": false,
          "internalType": "uint256",
          "name": "amount1Out",
          "type": "uint256"
        }
      ],
      "name": "Burned",
      "type": "event"
    },
    {
      "anonymous": false,
      "inputs": [
        {
          "indexed": false,
          "internalType": "uint256",
          "name": "supplyCap",
          "type": "uint256"
        },
        {
          "indexed": false,
          "internalType": "uint256",
          "name": "heartbeat",
          "type": "uint256"
        },
        {
          "indexed": false,
          "internalType": "int24",
          "name": "minTickDeviation",
          "type": "int24"
        },
        {
          "indexed": false,
          "internalType": "int24",
          "name": "maxTickDeviation",
          "type": "int24"
        },
        {
          "indexed": false,
          "internalType": "uint32",
          "name": "observationSeconds",
          "type": "uint32"
        },
        {
          "indexed": false,
          "internalType": "uint160",
          "name": "maxSlippagePercentage",
          "type": "uint160"
        }
      ],
      "name": "MetaParamsAdjusted",
      "type": "event"
    },
    {
      "anonymous": false,
      "inputs": [
        {
          "indexed": false,
          "internalType": "address",
          "name": "minter",
          "type": "address"
        },
        {
          "indexed": false,
          "internalType": "uint256",
          "name": "mintAmount",
          "type": "uint256"
        },
        {
          "indexed": false,
          "internalType": "uint256",
          "name": "amount0In",
          "type": "uint256"
        },
        {
          "indexed": false,
          "internalType": "uint256",
          "name": "amount1In",
          "type": "uint256"
        }
      ],
      "name": "Minted",
      "type": "event"
    },
    {
      "anonymous": false,
      "inputs": [
        {
          "indexed": true,
          "internalType": "address",
          "name": "previousOwner",
          "type": "address"
        },
        {
          "indexed": true,
          "internalType": "address",
          "name": "newOwner",
          "type": "address"
        }
      ],
      "name": "OwnershipTransferred",
      "type": "event"
    },
    {
      "anonymous": false,
      "inputs": [
        {
          "indexed": false,
          "internalType": "int24",
          "name": "newLowerTick",
          "type": "int24"
        },
        {
          "indexed": false,
          "internalType": "int24",
          "name": "newUpperTick",
          "type": "int24"
        }
      ],
      "name": "ParamsAdjusted",
      "type": "event"
    },
    {
      "anonymous": false,
      "inputs": [
        {
          "indexed": true,
          "internalType": "address",
          "name": "from",
          "type": "address"
        },
        {
          "indexed": true,
          "internalType": "address",
          "name": "to",
          "type": "address"
        },
        {
          "indexed": false,
          "internalType": "uint256",
          "name": "value",
          "type": "uint256"
        }
      ],
      "name": "Transfer",
      "type": "event"
    },
    {
      "inputs": [],
      "name": "DOMAIN_SEPARATOR",
      "outputs": [
        {
          "internalType": "bytes32",
          "name": "",
          "type": "bytes32"
        }
      ],
      "stateMutability": "view",
      "type": "function"
    },
    {
      "inputs": [],
      "name": "ETH",
      "outputs": [
        {
          "internalType": "address",
          "name": "",
          "type": "address"
        }
      ],
      "stateMutability": "view",
      "type": "function"
    },
    {
      "inputs": [],
      "name": "PERMIT_TYPEHASH",
      "outputs": [
        {
          "internalType": "bytes32",
          "name": "",
          "type": "bytes32"
        }
      ],
      "stateMutability": "view",
      "type": "function"
    },
    {
      "inputs": [],
      "name": "admin",
      "outputs": [
        {
          "internalType": "address",
          "name": "",
          "type": "address"
        }
      ],
      "stateMutability": "view",
      "type": "function"
    },
    {
      "inputs": [
        {
          "internalType": "address",
          "name": "",
          "type": "address"
        },
        {
          "internalType": "address",
          "name": "",
          "type": "address"
        }
      ],
      "name": "allowance",
      "outputs": [
        {
          "internalType": "uint256",
          "name": "",
          "type": "uint256"
        }
      ],
      "stateMutability": "view",
      "type": "function"
    },
    {
      "inputs": [
        {
          "internalType": "address",
          "name": "spender",
          "type": "address"
        },
        {
          "internalType": "uint256",
          "name": "value",
          "type": "uint256"
        }
      ],
      "name": "approve",
      "outputs": [
        {
          "internalType": "bool",
          "name": "",
          "type": "bool"
        }
      ],
      "stateMutability": "nonpayable",
      "type": "function"
    },
    {
      "inputs": [
        {
          "internalType": "address",
          "name": "",
          "type": "address"
        }
      ],
      "name": "balanceOf",
      "outputs": [
        {
          "internalType": "uint256",
          "name": "",
          "type": "uint256"
        }
      ],
      "stateMutability": "view",
      "type": "function"
    },
    {
      "inputs": [
        {
          "internalType": "uint256",
          "name": "burnAmount",
          "type": "uint256"
        }
      ],
      "name": "burn",
      "outputs": [
        {
          "internalType": "uint256",
          "name": "amount0",
          "type": "uint256"
        },
        {
          "internalType": "uint256",
          "name": "amount1",
          "type": "uint256"
        },
        {
          "internalType": "uint128",
          "name": "liquidityBurned",
          "type": "uint128"
        }
      ],
      "stateMutability": "nonpayable",
      "type": "function"
    },
    {
      "inputs": [],
      "name": "currentLowerTick",
      "outputs": [
        {
          "internalType": "int24",
          "name": "",
          "type": "int24"
        }
      ],
      "stateMutability": "view",
      "type": "function"
    },
    {
      "inputs": [],
      "name": "currentUpperTick",
      "outputs": [
        {
          "internalType": "int24",
          "name": "",
          "type": "int24"
        }
      ],
      "stateMutability": "view",
      "type": "function"
    },
    {
      "inputs": [],
      "name": "decimals",
      "outputs": [
        {
          "internalType": "uint8",
          "name": "",
          "type": "uint8"
        }
      ],
      "stateMutability": "view",
      "type": "function"
    },
    {
      "inputs": [],
      "name": "gelato",
      "outputs": [
        {
          "internalType": "address",
          "name": "",
          "type": "address"
        }
      ],
      "stateMutability": "view",
      "type": "function"
    },
    {
      "inputs": [
        {
          "internalType": "uint160",
          "name": "sqrtRatioX96",
          "type": "uint160"
        },
        {
          "internalType": "uint160",
          "name": "sqrtRatioAX96",
          "type": "uint160"
        },
        {
          "internalType": "uint160",
          "name": "sqrtRatioBX96",
          "type": "uint160"
        },
        {
          "internalType": "uint128",
          "name": "liquidity",
          "type": "uint128"
        }
      ],
      "name": "getAmountsForLiquidity",
      "outputs": [
        {
          "internalType": "uint256",
          "name": "amount0",
          "type": "uint256"
        },
        {
          "internalType": "uint256",
          "name": "amount1",
          "type": "uint256"
        }
      ],
      "stateMutability": "pure",
      "type": "function"
    },
    {
      "inputs": [
        {
          "internalType": "uint160",
          "name": "sqrtRatioX96",
          "type": "uint160"
        },
        {
          "internalType": "uint160",
          "name": "sqrtRatioAX96",
          "type": "uint160"
        },
        {
          "internalType": "uint160",
          "name": "sqrtRatioBX96",
          "type": "uint160"
        },
        {
          "internalType": "uint256",
          "name": "amount0",
          "type": "uint256"
        },
        {
          "internalType": "uint256",
          "name": "amount1",
          "type": "uint256"
        }
      ],
      "name": "getLiquidityForAmounts",
      "outputs": [
        {
          "internalType": "uint128",
          "name": "liquidity",
          "type": "uint128"
        }
      ],
      "stateMutability": "pure",
      "type": "function"
    },
    {
      "inputs": [],
      "name": "getPositionID",
      "outputs": [
        {
          "internalType": "bytes32",
          "name": "positionID",
          "type": "bytes32"
        }
      ],
      "stateMutability": "view",
      "type": "function"
    },
    {
      "inputs": [],
      "name": "heartbeat",
      "outputs": [
        {
          "internalType": "uint256",
          "name": "",
          "type": "uint256"
        }
      ],
      "stateMutability": "view",
      "type": "function"
    },
    {
      "inputs": [],
      "name": "lastRebalanceTimestamp",
      "outputs": [
        {
          "internalType": "uint256",
          "name": "",
          "type": "uint256"
        }
      ],
      "stateMutability": "view",
      "type": "function"
    },
    {
      "inputs": [],
      "name": "maxSlippagePercentage",
      "outputs": [
        {
          "internalType": "uint160",
          "name": "",
          "type": "uint160"
        }
      ],
      "stateMutability": "view",
      "type": "function"
    },
    {
      "inputs": [],
      "name": "maxTickDeviation",
      "outputs": [
        {
          "internalType": "int24",
          "name": "",
          "type": "int24"
        }
      ],
      "stateMutability": "view",
      "type": "function"
    },
    {
      "inputs": [],
      "name": "minTickDeviation",
      "outputs": [
        {
          "internalType": "int24",
          "name": "",
          "type": "int24"
        }
      ],
      "stateMutability": "view",
      "type": "function"
    },
    {
      "inputs": [
        {
          "internalType": "uint128",
          "name": "newLiquidity",
          "type": "uint128"
        }
      ],
      "name": "mint",
      "outputs": [
        {
          "internalType": "uint256",
          "name": "mintAmount",
          "type": "uint256"
        }
      ],
      "stateMutability": "nonpayable",
      "type": "function"
    },
    {
      "inputs": [],
      "name": "name",
      "outputs": [
        {
          "internalType": "string",
          "name": "",
          "type": "string"
        }
      ],
      "stateMutability": "view",
      "type": "function"
    },
    {
      "inputs": [
        {
          "internalType": "address",
          "name": "",
          "type": "address"
        }
      ],
      "name": "nonces",
      "outputs": [
        {
          "internalType": "uint256",
          "name": "",
          "type": "uint256"
        }
      ],
      "stateMutability": "view",
      "type": "function"
    },
    {
      "inputs": [],
      "name": "observationSeconds",
      "outputs": [
        {
          "internalType": "uint32",
          "name": "",
          "type": "uint32"
        }
      ],
      "stateMutability": "view",
      "type": "function"
    },
    {
      "inputs": [
        {
          "internalType": "address",
          "name": "owner",
          "type": "address"
        },
        {
          "internalType": "address",
          "name": "spender",
          "type": "address"
        },
        {
          "internalType": "uint256",
          "name": "value",
          "type": "uint256"
        },
        {
          "internalType": "uint256",
          "name": "deadline",
          "type": "uint256"
        },
        {
          "internalType": "uint8",
          "name": "v",
          "type": "uint8"
        },
        {
          "internalType": "bytes32",
          "name": "r",
          "type": "bytes32"
        },
        {
          "internalType": "bytes32",
          "name": "s",
          "type": "bytes32"
        }
      ],
      "name": "permit",
      "outputs": [],
      "stateMutability": "nonpayable",
      "type": "function"
    },
    {
      "inputs": [],
      "name": "pool",
      "outputs": [
        {
          "internalType": "contract IUniswapV3Pool",
          "name": "",
          "type": "address"
        }
      ],
      "stateMutability": "view",
      "type": "function"
    },
    {
      "inputs": [
        {
          "internalType": "int24",
          "name": "newLowerTick",
          "type": "int24"
        },
        {
          "internalType": "int24",
          "name": "newUpperTick",
          "type": "int24"
        },
        {
          "internalType": "uint160",
          "name": "swapThresholdPrice",
          "type": "uint160"
        },
        {
          "internalType": "uint256",
          "name": "swapAmountBPS",
          "type": "uint256"
        },
        {
          "internalType": "uint256",
          "name": "feeAmount",
          "type": "uint256"
        },
        {
          "internalType": "address",
          "name": "paymentToken",
          "type": "address"
        }
      ],
      "name": "rebalance",
      "outputs": [],
      "stateMutability": "nonpayable",
      "type": "function"
    },
    {
      "inputs": [],
      "name": "renounceAdmin",
      "outputs": [],
      "stateMutability": "nonpayable",
      "type": "function"
    },
    {
      "inputs": [],
      "name": "supplyCap",
      "outputs": [
        {
          "internalType": "uint256",
          "name": "",
          "type": "uint256"
        }
      ],
      "stateMutability": "view",
      "type": "function"
    },
    {
      "inputs": [],
      "name": "symbol",
      "outputs": [
        {
          "internalType": "string",
          "name": "",
          "type": "string"
        }
      ],
      "stateMutability": "view",
      "type": "function"
    },
    {
      "inputs": [],
      "name": "token0",
      "outputs": [
        {
          "internalType": "contract IERC20Minimal",
          "name": "",
          "type": "address"
        }
      ],
      "stateMutability": "view",
      "type": "function"
    },
    {
      "inputs": [],
      "name": "token1",
      "outputs": [
        {
          "internalType": "contract IERC20Minimal",
          "name": "",
          "type": "address"
        }
      ],
      "stateMutability": "view",
      "type": "function"
    },
    {
      "inputs": [],
      "name": "totalSupply",
      "outputs": [
        {
          "internalType": "uint256",
          "name": "",
          "type": "uint256"
        }
      ],
      "stateMutability": "view",
      "type": "function"
    },
    {
      "inputs": [
        {
          "internalType": "address",
          "name": "to",
          "type": "address"
        },
        {
          "internalType": "uint256",
          "name": "value",
          "type": "uint256"
        }
      ],
      "name": "transfer",
      "outputs": [
        {
          "internalType": "bool",
          "name": "",
          "type": "bool"
        }
      ],
      "stateMutability": "nonpayable",
      "type": "function"
    },
    {
      "inputs": [
        {
          "internalType": "address",
          "name": "newAdmin",
          "type": "address"
        }
      ],
      "name": "transferAdmin",
      "outputs": [],
      "stateMutability": "nonpayable",
      "type": "function"
    },
    {
      "inputs": [
        {
          "internalType": "address",
          "name": "from",
          "type": "address"
        },
        {
          "internalType": "address",
          "name": "to",
          "type": "address"
        },
        {
          "internalType": "uint256",
          "name": "value",
          "type": "uint256"
        }
      ],
      "name": "transferFrom",
      "outputs": [
        {
          "internalType": "bool",
          "name": "",
          "type": "bool"
        }
      ],
      "stateMutability": "nonpayable",
      "type": "function"
    },
    {
      "inputs": [
        {
          "internalType": "uint256",
          "name": "amount0Owed",
          "type": "uint256"
        },
        {
          "internalType": "uint256",
          "name": "amount1Owed",
          "type": "uint256"
        },
        {
          "internalType": "bytes",
          "name": "data",
          "type": "bytes"
        }
      ],
      "name": "uniswapV3MintCallback",
      "outputs": [],
      "stateMutability": "nonpayable",
      "type": "function"
    },
    {
      "inputs": [
        {
          "internalType": "int256",
          "name": "amount0Delta",
          "type": "int256"
        },
        {
          "internalType": "int256",
          "name": "amount1Delta",
          "type": "int256"
        },
        {
          "internalType": "bytes",
          "name": "",
          "type": "bytes"
        }
      ],
      "name": "uniswapV3SwapCallback",
      "outputs": [],
      "stateMutability": "nonpayable",
      "type": "function"
    },
    {
      "inputs": [
        {
          "internalType": "uint256",
          "name": "_supplyCap",
          "type": "uint256"
        },
        {
          "internalType": "uint256",
          "name": "_heartbeat",
          "type": "uint256"
        },
        {
          "internalType": "int24",
          "name": "_minTickDeviation",
          "type": "int24"
        },
        {
          "internalType": "int24",
          "name": "_maxTickDeviation",
          "type": "int24"
        },
        {
          "internalType": "uint32",
          "name": "_observationSeconds",
          "type": "uint32"
        },
        {
          "internalType": "uint160",
          "name": "_maxSlippagePercentage",
          "type": "uint160"
        }
      ],
      "name": "updateMetaParams",
      "outputs": [],
      "stateMutability": "nonpayable",
      "type": "function"
    }
  ],
  "transactionHash": "0x83fad395d76e92ae8d5a971fb1b03ab1ced465e2898cb5666101b43049c8b065",
  "args": [
    "Gelato Uniswap V3 WETH/DAI LP",
    "0x25D0Ea8FAc3Ce2313c6a478DA92e0ccf95213B1A",
    -81480,
    -82500,
    "0xD90fC89e89E3E5b75256b5aA617f887C583b29a2"
  ],
  "solcInputHash": "5cf3e3ac71ff598d142ac85b4d502ce0",
  "bytecode": "0x61010060405269043c33c193756480000060095562015180600a55600b8054607862ffffff199091161765ffffff0000001916641b580000001763ffffffff60301b191667012c00000000000017600160501b600160f01b0319166a05000000000000000000001790553480156200007657600080fd5b50604051620041a7380380620041a7833981810160405260a08110156200009c57600080fd5b8101908080516040519392919084640100000000821115620000bd57600080fd5b908301906020820185811115620000d357600080fd5b8251640100000000811182820188101715620000ee57600080fd5b82525081516020918201929091019080838360005b838110156200011d57818101518382015260200162000103565b50505050905090810190601f1680156200014b5780820380516001836020036101000a031916815260200191505b5060409081526020828101519183015160608401516080909401518751939650909450918691600091620001859183919085019062000442565b504690507f8b73c3c69bb8fe3d512ecc4cf759cc79239f7b179b0ffacaa9a75d522b39400f600060405180828054600181600116156101000203166002900480156200020b5780601f10620001e85761010080835404028352918201916200020b565b820191906000526020600020905b815481529060010190602001808311620001f6575b50506040805191829003822082820182526001808452603160f81b602094850152825180850197909752868301919091527fc89efdaa54c0f20c7adf612882df0950f5a951637e0307cdcb4c672f298b8bc6606087015260808601969096523060a0808701919091528151808703909101815260c090950190819052845194909101939093206004555050600691909155600780546001600160a01b0319163390811790915591506000907f8be0079c531659141344cd1fd0a4f28419497f9722a3daafe3b4186f6b6457e0908290a3836001600160a01b03166080816001600160a01b031660601b81525050836001600160a01b0316630dfe16816040518163ffffffff1660e01b815260040160206040518083038186803b1580156200033257600080fd5b505afa15801562000347573d6000803e3d6000fd5b505050506040513d60208110156200035e57600080fd5b505160601b6001600160601b03191660a0526040805163d21220a760e01b815290516001600160a01b0386169163d21220a7916004808301926020929190829003018186803b158015620003b157600080fd5b505afa158015620003c6573d6000803e3d6000fd5b505050506040513d6020811015620003dd57600080fd5b50516001600160601b0319606091821b811660c05260078054600295860b62ffffff908116600160b81b0262ffffff60b81b199890970b16600160a01b0262ffffff60a01b1990911617959095169390931790935590911b1660e05250620004de9050565b828054600181600116156101000203166002900490600052602060002090601f016020900481019282601f106200048557805160ff1916838001178555620004b5565b82800160010185558215620004b5579182015b82811115620004b557825182559160200191906001019062000498565b50620004c3929150620004c7565b5090565b5b80821115620004c35760008155600101620004c8565b60805160601c60a05160601c60c05160601c60e05160601c613bd3620005d460003980610f2a5280611c00525080610dd25280610e85528061133152806114005280611880528061193a52806119a25280611dbd528061263552806126f15250806108da5280610d155280610da452806112375280611306528061190952806119705280611d84528061257852806126ab5250806108fe5280610a7b5280610b9d5280610c7a52806110ed528061142c52806118ad5280611d4c52806124b952806127415280612cbb528061300052806130b6528061312852806131d3528061379c528061391d52806139ad5250613bd36000f3fe608060405234801561001057600080fd5b506004361061023d5760003560e01c806370a082311161013b578063d21220a7116100b8578063e3fbf2f81161007c578063e3fbf2f81461073a578063e5475ae714610788578063f851a44014610790578063fa2c6d7c14610798578063fa461e33146107b95761023d565b8063d21220a714610631578063d348799714610639578063d505accf146106b3578063dd62ed3e14610704578063df28408a146107325761023d565b80638f770ad0116100ff5780638f770ad01461058e57806395d89b4114610596578063a9059cbb1461059e578063b83d8157146105ca578063c72e160b146105d25761023d565b806370a082311461050c57806375829def146105325780637ecebe00146105585780638322fff21461057e5780638bad0c0a146105865761023d565b80633644e515116101c95780636098fd4a1161018d5780636098fd4a14610424578063696c58e51461048257806369822d911461048a57806369d3e20e146104de5780636a3089f6146105045761023d565b80633644e515146103c05780633defb962146103c857806342966c68146103d05780634b41d7d814610414578063573ea5751461041c5761023d565b806318160ddd1161021057806318160ddd1461032b5780631f6697c61461034557806323b872dd1461036457806330adf81f1461039a578063313ce567146103a25761023d565b806306fdde0314610242578063095ea7b3146102bf5780630dfe1681146102ff57806316f0115b14610323575b600080fd5b61024a610833565b6040805160208082528351818301528351919283929083019185019080838360005b8381101561028457818101518382015260200161026c565b50505050905090810190601f1680156102b15780820380516001836020036101000a031916815260200191505b509250505060405180910390f35b6102eb600480360360408110156102d557600080fd5b506001600160a01b0381351690602001356108c1565b604080519115158252519081900360200190f35b6103076108d8565b604080516001600160a01b039092168252519081900360200190f35b6103076108fc565b610333610920565b60408051918252519081900360200190f35b61034d610926565b6040805160029290920b8252519081900360200190f35b6102eb6004803603606081101561037a57600080fd5b506001600160a01b03813581169160208101359091169060400135610936565b6103336109cb565b6103aa6109ef565b6040805160ff9092168252519081900360200190f35b6103336109f4565b6103336109fa565b6103ed600480360360208110156103e657600080fd5b5035610a00565b6040805193845260208401929092526001600160801b031682820152519081900360600190f35b61034d610f1f565b610307610f28565b610466600480360360a081101561043a57600080fd5b506001600160a01b03813581169160208101358216916040820135169060608101359060800135610f4c565b604080516001600160801b039092168252519081900360200190f35b61034d610f67565b6104dc600480360360c08110156104a057600080fd5b508035906020810135906040810135600290810b91606081013590910b90608081013563ffffffff169060a001356001600160a01b0316610f77565b005b610333600480360360208110156104f457600080fd5b50356001600160801b03166110d2565b610307611623565b6103336004803603602081101561052257600080fd5b50356001600160a01b0316611639565b6104dc6004803603602081101561054857600080fd5b50356001600160a01b031661164b565b6103336004803603602081101561056e57600080fd5b50356001600160a01b0316611750565b610307611762565b6104dc61177a565b610333611828565b61024a61182e565b6102eb600480360360408110156105b457600080fd5b506001600160a01b03813516906020013561184e565b61033361185b565b610618600480360360808110156105e857600080fd5b5080356001600160a01b0390811691602081013582169160408201351690606001356001600160801b0316611861565b6040805192835260208301919091528051918290030190f35b61030761187e565b6104dc6004803603606081101561064f57600080fd5b813591602081013591810190606081016040820135600160201b81111561067557600080fd5b82018360208201111561068757600080fd5b803590602001918460018302840111600160201b831117156106a857600080fd5b5090925090506118a2565b6104dc600480360360e08110156106c957600080fd5b506001600160a01b03813581169160208101359091169060408101359060608101359060ff6080820135169060a08101359060c001356119d0565b6103336004803603604081101561071a57600080fd5b506001600160a01b0381358116916020013516611bd2565b610333611bef565b6104dc600480360360c081101561075057600080fd5b508035600290810b91602081013590910b906001600160a01b03604082013581169160608101359160808201359160a0013516611bfe565b61034d611d0f565b610307611d1f565b6107a0611d2e565b6040805163ffffffff9092168252519081900360200190f35b6104dc600480360360608110156107cf57600080fd5b813591602081013591810190606081016040820135600160201b8111156107f557600080fd5b82018360208201111561080757600080fd5b803590602001918460018302840111600160201b8311171561082857600080fd5b509092509050611d41565b6000805460408051602060026001851615610100026000190190941693909304601f810184900484028201840190925281815292918301828280156108b95780601f1061088e576101008083540402835291602001916108b9565b820191906000526020600020905b81548152906001019060200180831161089c57829003601f168201915b505050505081565b60006108ce338484611de9565b5060015b92915050565b7f000000000000000000000000000000000000000000000000000000000000000081565b7f000000000000000000000000000000000000000000000000000000000000000081565b60015481565b600754600160b81b900460020b81565b6001600160a01b0383166000908152600360209081526040808320338452909152812054600019146109b5576001600160a01b03841660009081526003602090815260408083203384529091529020546109909083611e4b565b6001600160a01b03851660009081526003602090815260408083203384529091529020555b6109c0848484611e5b565b5060015b9392505050565b7f6e71edae12b1b97f4d1f60370fef10105fa2faae0126114a169c64845d6126c981565b601281565b60045481565b600a5481565b600080600060026006541415610a5d576040805162461bcd60e51b815260206004820152601f60248201527f5265656e7472616e637947756172643a207265656e7472616e742063616c6c00604482015290519081900360640190fd5b600260065583610a6c57600080fd5b60015460006001600160a01b037f00000000000000000000000000000000000000000000000000000000000000001663514ea4bf610aa8611f09565b6040518263ffffffff1660e01b81526004018082815260200191505060a06040518083038186803b158015610adc57600080fd5b505afa158015610af0573d6000803e3d6000fd5b505050506040513d60a0811015610b0657600080fd5b50519050610b143387611f63565b600082610b2a886001600160801b038516611ff4565b81610b3157fe5b0490506001600160801b038110610b4757600080fd5b6007546040805163a34123a760e01b8152600160a01b8304600290810b810b6004830152600160b81b909304830b90920b60248301526001600160801b0383166044830152805192955085926001600160a01b037f0000000000000000000000000000000000000000000000000000000000000000169263a34123a79260648083019391928290030181600087803b158015610be257600080fd5b505af1158015610bf6573d6000803e3d6000fd5b505050506040513d6040811015610c0c57600080fd5b508051602090910151600754604080516309e3d67b60e31b8152336004820152600160a01b8304600290810b810b6024830152600160b81b909304830b90920b60448301526001600160801b0380851660648401528316608483015280519399509197506001600160a01b037f00000000000000000000000000000000000000000000000000000000000000001692634f1eb3d89260a4808401939192918290030181600087803b158015610cc057600080fd5b505af1158015610cd4573d6000803e3d6000fd5b505050506040513d6040811015610cea57600080fd5b5050604080516370a0823160e01b815230600482015290516000918591610d8f916001600160a01b037f000000000000000000000000000000000000000000000000000000000000000016916370a0823191602480820192602092909190829003018186803b158015610d5c57600080fd5b505afa158015610d70573d6000803e3d6000fd5b505050506040513d6020811015610d8657600080fd5b50518a90611ff4565b81610d9657fe5b0490508015610dca57610dca7f00000000000000000000000000000000000000000000000000000000000000003383612018565b600084610e707f00000000000000000000000000000000000000000000000000000000000000006001600160a01b03166370a08231306040518263ffffffff1660e01b815260040180826001600160a01b0316815260200191505060206040518083038186803b158015610e3d57600080fd5b505afa158015610e51573d6000803e3d6000fd5b505050506040513d6020811015610e6757600080fd5b50518b90611ff4565b81610e7757fe5b0490508015610eab57610eab7f00000000000000000000000000000000000000000000000000000000000000003383612018565b610eb58883612160565b9750610ec18782612160565b60408051338152602081018c90528082018b90526060810183905290519198507f4c60206a5c1de41f3376d1d60f0949d96cb682033c90b1c2d9d9a62d4c4120c0919081900360800190a15050600160065550939592945090925050565b600b5460020b81565b7f000000000000000000000000000000000000000000000000000000000000000081565b6000610f5b8686868686612170565b90505b95945050505050565b600b546301000000900460020b81565b33610f80611d1f565b6001600160a01b031614610fdb576040805162461bcd60e51b815260206004820181905260248201527f4f776e61626c653a2063616c6c6572206973206e6f7420746865206f776e6572604482015290519081900360640190fd5b6009869055600a859055600b805465ffffff00000019166301000000600286810b62ffffff818116939093029390931762ffffff19169088900b9182161769ffffffff0000000000001916600160301b63ffffffff8716908102919091177fffff0000000000000000000000000000000000000000ffffffffffffffffffff16600160501b6001600160a01b03871690810291909117909455604080518b8152602081018b9052808201939093526060830193909352608082015260a0810192909252517f37bc6b2ab5c732be3097b0ac7f897954fde4420fdcf9de71f8df467c9a907f389160c0908290030190a1505050505050565b600080826001600160801b0316116110e957600080fd5b60007f00000000000000000000000000000000000000000000000000000000000000006001600160a01b031663514ea4bf611122611f09565b6040518263ffffffff1660e01b81526004018082815260200191505060a06040518083038186803b15801561115657600080fd5b505afa15801561116a573d6000803e3d6000fd5b505050506040513d60a081101561118057600080fd5b505160015490915061119d57826001600160801b031691506111d0565b806001600160801b03166111c5600154856001600160801b0316611ff490919063ffffffff16565b816111cc57fe5b0491505b6001546111dd9083612160565b6009541015611233576040805162461bcd60e51b815260206004820152601f60248201527f63616e6e6f74206d696e74206d6f7265207468616e20737570706c7943617000604482015290519081900360640190fd5b60007f00000000000000000000000000000000000000000000000000000000000000006001600160a01b03166370a08231306040518263ffffffff1660e01b815260040180826001600160a01b0316815260200191505060206040518083038186803b1580156112a257600080fd5b505afa1580156112b6573d6000803e3d6000fd5b505050506040513d60208110156112cc57600080fd5b50519050600081156112fb576001600160801b03808416906112f090871684611ff4565b816112f757fe5b0490505b801561132d5761132d7f0000000000000000000000000000000000000000000000000000000000000000333084612229565b60007f00000000000000000000000000000000000000000000000000000000000000006001600160a01b03166370a08231306040518263ffffffff1660e01b815260040180826001600160a01b0316815260200191505060206040518083038186803b15801561139c57600080fd5b505afa1580156113b0573d6000803e3d6000fd5b505050506040513d60208110156113c657600080fd5b50519050600081156113f5576001600160801b03808616906113ea90891684611ff4565b816113f157fe5b0490505b8015611427576114277f0000000000000000000000000000000000000000000000000000000000000000333084612229565b6000807f00000000000000000000000000000000000000000000000000000000000000006001600160a01b0316633c8a7d8d30600760149054906101000a900460020b600760179054906101000a900460020b8d3360405160200180826001600160a01b031681526020019150506040516020818303038152906040526040518663ffffffff1660e01b815260040180866001600160a01b031681526020018560020b81526020018460020b8152602001836001600160801b0316815260200180602001828103825283818151815260200191508051906020019080838360005b83811015611520578181015183820152602001611508565b50505050905090810190601f16801561154d5780820380516001836020036101000a031916815260200191505b5096505050505050506040805180830381600087803b15801561156f57600080fd5b505af1158015611583573d6000803e3d6000fd5b505050506040513d604081101561159957600080fd5b50805160209091015190925090506115b13389612382565b7f5a3358a3d27a5373c0df2604662088d37894d56b7cfd27f315770440f4e0d91933896115de8589612160565b6115e88588612160565b604080516001600160a01b0390951685526020850193909352838301919091526060830152519081900360800190a150505050505050919050565b600b54600160501b90046001600160a01b031681565b60026020526000908152604090205481565b33611654611d1f565b6001600160a01b0316146116af576040805162461bcd60e51b815260206004820181905260248201527f4f776e61626c653a2063616c6c6572206973206e6f7420746865206f776e6572604482015290519081900360640190fd5b6001600160a01b0381166116f45760405162461bcd60e51b8152600401808060200182810382526026815260200180613b496026913960400191505060405180910390fd5b6007546040516001600160a01b038084169216907f8be0079c531659141344cd1fd0a4f28419497f9722a3daafe3b4186f6b6457e090600090a3600780546001600160a01b0319166001600160a01b0392909216919091179055565b60056020526000908152604090205481565b73eeeeeeeeeeeeeeeeeeeeeeeeeeeeeeeeeeeeeeee81565b33611783611d1f565b6001600160a01b0316146117de576040805162461bcd60e51b815260206004820181905260248201527f4f776e61626c653a2063616c6c6572206973206e6f7420746865206f776e6572604482015290519081900360640190fd5b6007546040516000916001600160a01b0316907f8be0079c531659141344cd1fd0a4f28419497f9722a3daafe3b4186f6b6457e0908390a3600780546001600160a01b0319169055565b60095481565b6040518060400160405280600481526020016367554e4960e01b81525081565b60006108ce338484611e5b565b60085481565b6000806118708686868661240d565b915091505b94509492505050565b7f000000000000000000000000000000000000000000000000000000000000000081565b336001600160a01b037f000000000000000000000000000000000000000000000000000000000000000016146118d757600080fd5b6000828260208110156118e957600080fd5b50356001600160a01b031690503081141561196557841561192f5761192f7f00000000000000000000000000000000000000000000000000000000000000003387612018565b8315611960576119607f00000000000000000000000000000000000000000000000000000000000000003386612018565b6119c9565b8415611997576119977f0000000000000000000000000000000000000000000000000000000000000000823388612229565b83156119c9576119c97f0000000000000000000000000000000000000000000000000000000000000000823387612229565b5050505050565b42841015611a1a576040805162461bcd60e51b8152602060048201526012602482015271155b9a5cddd85c158c8e881156141254915160721b604482015290519081900360640190fd5b6004546001600160a01b0380891660008181526005602090815260408083208054600180820190925582517f6e71edae12b1b97f4d1f60370fef10105fa2faae0126114a169c64845d6126c98186015280840196909652958d166060860152608085018c905260a085019590955260c08085018b90528151808603909101815260e08501825280519083012061190160f01b6101008601526101028501969096526101228085019690965280518085039096018652610142840180825286519683019690962095839052610162840180825286905260ff89166101828501526101a284018890526101c28401879052519193926101e280820193601f1981019281900390910190855afa158015611b35573d6000803e3d6000fd5b5050604051601f1901519150506001600160a01b03811615801590611b6b5750886001600160a01b0316816001600160a01b0316145b611bbc576040805162461bcd60e51b815260206004820152601c60248201527f556e697377617056323a20494e56414c49445f5349474e415455524500000000604482015290519081900360640190fd5b611bc7898989611de9565b505050505050505050565b600360209081526000928352604080842090915290825290205481565b6000611bf9611f09565b905090565b7f00000000000000000000000000000000000000000000000000000000000000008282336001600160a01b03841614611c7e576040805162461bcd60e51b815260206004820152601760248201527f47656c61746f666965643a204f6e6c792067656c61746f000000000000000000604482015290519081900360640190fd5b611c8c8989898989896124a9565b6040805160028b810b82528a900b602082015281517f50a05c052cf352432768eae291d601ff11e4036b91cb53eff330e6aee22b26be929181900390910190a1426008556001600160a01b03811673eeeeeeeeeeeeeeeeeeeeeeeeeeeeeeeeeeeeeeee1415611d0457611cff83836129cc565b611bc7565b611bc7818484612018565b600754600160a01b900460020b81565b6007546001600160a01b031690565b600b54600160301b900463ffffffff1681565b336001600160a01b037f00000000000000000000000000000000000000000000000000000000000000001614611d7657600080fd5b6000841315611daf57611daa7f00000000000000000000000000000000000000000000000000000000000000003386612018565b611de3565b6000831315611de357611de37f00000000000000000000000000000000000000000000000000000000000000003385612018565b50505050565b6001600160a01b03808416600081815260036020908152604080832094871680845294825291829020859055815185815291517f8c5be1e5ebec7d5bd14f71427d1e84f3dd0314c0f7b2291e5b200ac8c7c3b9259281900390910190a3505050565b808203828111156108d257600080fd5b6001600160a01b038316600090815260026020526040902054611e7e9082611e4b565b6001600160a01b038085166000908152600260205260408082209390935590841681522054611ead9082612160565b6001600160a01b0380841660008181526002602090815260409182902094909455805185815290519193928716927fddf252ad1be2c89b69c2b068fc378daa952ba7f163c4a11628f55a4df523b3ef92918290030190a3505050565b600754604080513060601b602080830191909152600160a01b8404600290810b810b60e890811b6034850152600160b81b909504810b900b90931b60378201528151601a818303018152603a909101909152805191012090565b6001600160a01b038216600090815260026020526040902054611f869082611e4b565b6001600160a01b038316600090815260026020526040902055600154611fac9082611e4b565b6001556040805182815290516000916001600160a01b038516917fddf252ad1be2c89b69c2b068fc378daa952ba7f163c4a11628f55a4df523b3ef9181900360200190a35050565b600082158061200f5750508181028183828161200c57fe5b04145b6108d257600080fd5b604080516001600160a01b038481166024830152604480830185905283518084039091018152606490920183526020820180516001600160e01b031663a9059cbb60e01b178152925182516000946060949389169392918291908083835b602083106120955780518252601f199092019160209182019101612076565b6001836020036101000a0380198251168184511680821785525050505050509050019150506000604051808303816000865af19150503d80600081146120f7576040519150601f19603f3d011682016040523d82523d6000602084013e6120fc565b606091505b509150915081801561212a57508051158061212a575080806020019051602081101561212757600080fd5b50515b6119c9576040805162461bcd60e51b815260206004820152600260248201526114d560f21b604482015290519081900360640190fd5b808201828110156108d257600080fd5b6000836001600160a01b0316856001600160a01b03161115612190579293925b846001600160a01b0316866001600160a01b031610156121bc576121b5858585612ac0565b9050610f5e565b836001600160a01b0316866001600160a01b0316101561221e5760006121e3878686612ac0565b905060006121f2878986612b23565b9050806001600160801b0316826001600160801b0316106122135780612215565b815b92505050610f5e565b610f5b858584612b23565b604080516001600160a01b0385811660248301528481166044830152606480830185905283518084039091018152608490920183526020820180516001600160e01b03166323b872dd60e01b17815292518251600094606094938a169392918291908083835b602083106122ae5780518252601f19909201916020918201910161228f565b6001836020036101000a0380198251168184511680821785525050505050509050019150506000604051808303816000865af19150503d8060008114612310576040519150601f19603f3d011682016040523d82523d6000602084013e612315565b606091505b5091509150818015612343575080511580612343575080806020019051602081101561234057600080fd5b50515b61237a576040805162461bcd60e51b815260206004820152600360248201526229aa2360e91b604482015290519081900360640190fd5b505050505050565b60015461238f9082612160565b6001556001600160a01b0382166000908152600260205260409020546123b59082612160565b6001600160a01b03831660008181526002602090815260408083209490945583518581529351929391927fddf252ad1be2c89b69c2b068fc378daa952ba7f163c4a11628f55a4df523b3ef9281900390910190a35050565b600080836001600160a01b0316856001600160a01b0316111561242e579293925b846001600160a01b0316866001600160a01b0316101561245a57612453858585612b68565b9150611875565b836001600160a01b0316866001600160a01b031610156124935761247f868585612b68565b915061248c858785612bd1565b9050611875565b61249e858585612bd1565b905094509492505050565b6124b284612c14565b60008060007f00000000000000000000000000000000000000000000000000000000000000006001600160a01b031663514ea4bf6124ee611f09565b6040518263ffffffff1660e01b81526004018082815260200191505060a06040518083038186803b15801561252257600080fd5b505afa158015612536573d6000803e3d6000fd5b505050506040513d60a081101561254c57600080fd5b505160075490915061257490600160a01b8104600290810b91600160b81b9004900b83612fc5565b60007f00000000000000000000000000000000000000000000000000000000000000006001600160a01b03166370a08231306040518263ffffffff1660e01b815260040180826001600160a01b0316815260200191505060206040518083038186803b1580156125e357600080fd5b505afa1580156125f7573d6000803e3d6000fd5b505050506040513d602081101561260d57600080fd5b5051604080516370a0823160e01b815230600482015290519192506000916001600160a01b037f000000000000000000000000000000000000000000000000000000000000000016916370a08231916024808301926020929190829003018186803b15801561267b57600080fd5b505afa15801561268f573d6000803e3d6000fd5b505050506040513d60208110156126a557600080fd5b505190507f00000000000000000000000000000000000000000000000000000000000000006001600160a01b03908116908716146126e357816126ed565b6126ed8288611e4b565b94507f00000000000000000000000000000000000000000000000000000000000000006001600160a01b0316866001600160a01b03161461272e5780612738565b6127388188611e4b565b935050505060007f00000000000000000000000000000000000000000000000000000000000000006001600160a01b0316633850c7bd6040518163ffffffff1660e01b815260040160e06040518083038186803b15801561279857600080fd5b505afa1580156127ac573d6000803e3d6000fd5b505050506040513d60e08110156127c257600080fd5b5060200151600a546008549192506127da9190612160565b42101561284f57600754600160b81b9004600290810b810b9082900b13806128145750600754600160a01b9004600290810b810b9082900b125b61284f5760405162461bcd60e51b8152600401808060200182810382526037815260200180613b126037913960400191505060405180910390fd5b600b5460028a810b91810b8303900b128015906128815750600b5463010000009004600290810b8203810b908a900b12155b6128cb576040805162461bcd60e51b81526020600482015260166024820152756c6f7765725469636b206f7574206f662072616e676560501b604482015290519081900360640190fd5b600b54600289810b6301000000909204810b8301900b128015906128fd5750600b54600290810b8201810b9089900b12155b612947576040805162461bcd60e51b815260206004820152601660248201527575707065725469636b206f7574206f662072616e676560501b604482015290519081900360640190fd5b60075460028a810b600160a01b909204810b900b14158061297a5750600754600289810b600160b81b909204810b900b14155b156129be576007805460028b810b62ffffff908116600160a01b0262ffffff60a01b19928d900b909116600160b81b0262ffffff60b81b1990931692909217161790555b611bc7898985858b8b613124565b604080516000808252602082019092526001600160a01b0384169083906040518082805190602001908083835b60208310612a185780518252601f1990920191602091820191016129f9565b6001836020036101000a03801982511681845116808217855250505050505090500191505060006040518083038185875af1925050503d8060008114612a7a576040519150601f19603f3d011682016040523d82523d6000602084013e612a7f565b606091505b5050905080612abb576040805162461bcd60e51b815260206004820152600360248201526253544560e81b604482015290519081900360640190fd5b505050565b6000826001600160a01b0316846001600160a01b03161115612ae0579192915b6000612b03856001600160a01b0316856001600160a01b0316600160601b613399565b9050610f5e612b1e84838888036001600160a01b0316613399565b613448565b6000826001600160a01b0316846001600160a01b03161115612b43579192915b612b60612b1e83600160601b8787036001600160a01b0316613399565b949350505050565b6000826001600160a01b0316846001600160a01b03161115612b88579192915b836001600160a01b0316612bc1606060ff16846001600160801b0316901b8686036001600160a01b0316866001600160a01b0316613399565b81612bc857fe5b04949350505050565b6000826001600160a01b0316846001600160a01b03161115612bf1579192915b612b60826001600160801b03168585036001600160a01b0316600160601b613399565b6040805160028082526060808301845292602083019080368337019050509050600b60069054906101000a900463ffffffff1681600081518110612c5457fe5b602002602001019063ffffffff16908163ffffffff1681525050600081600181518110612c7d57fe5b63ffffffff90921660209283029190910182015260405163883bdbfd60e01b8152600481018281528351602483015283516060936001600160a01b037f0000000000000000000000000000000000000000000000000000000000000000169363883bdbfd9387939092839260440191858201910280838360005b83811015612d0f578181015183820152602001612cf7565b505050509050019250505060006040518083038186803b158015612d3257600080fd5b505afa158015612d46573d6000803e3d6000fd5b505050506040513d6000823e601f3d908101601f191682016040908152811015612d6f57600080fd5b8101908080516040519392919084600160201b821115612d8e57600080fd5b908301906020820185811115612da357600080fd5b82518660208202830111600160201b82111715612dbf57600080fd5b82525081516020918201928201910280838360005b83811015612dec578181015183820152602001612dd4565b5050505090500160405260200180516040519392919084600160201b821115612e1457600080fd5b908301906020820185811115612e2957600080fd5b82518660208202830111600160201b82111715612e4557600080fd5b82525081516020918201928201910280838360005b83811015612e72578181015183820152602001612e5a565b505050509050016040525050505090508051600214612ed8576040805162461bcd60e51b815260206004820152601f60248201527f756e6578706563746564206c656e677468206f66207469636b20617272617900604482015290519081900360640190fd5b600b548151600091600160301b900463ffffffff169083908390612ef857fe5b602002602001015183600181518110612f0d57fe5b60200260200101510360060b81612f2057fe5b0590506000612f2e82613463565b600b549091506000906064906001600160a01b03600160501b9091048116840216049050856001600160a01b03168183016001600160a01b031610158015612f8a5750856001600160a01b03168183036001600160a01b031611155b61237a5760405162461bcd60e51b815260040180806020018281038252602f815260200180613b6f602f913960400191505060405180910390fd5b6040805163a34123a760e01b8152600285810b600483015284900b60248201526001600160801b038316604482015281516001600160a01b037f0000000000000000000000000000000000000000000000000000000000000000169263a34123a792606480820193918290030181600087803b15801561304457600080fd5b505af1158015613058573d6000803e3d6000fd5b505050506040513d604081101561306e57600080fd5b5050604080516309e3d67b60e31b8152306004820152600285810b602483015284900b60448201526001600160801b0360648201819052608482015281516001600160a01b037f00000000000000000000000000000000000000000000000000000000000000001692634f1eb3d89260a480820193918290030181600087803b1580156130fa57600080fd5b505af115801561310e573d6000803e3d6000fd5b505050506040513d60408110156119c957600080fd5b60007f00000000000000000000000000000000000000000000000000000000000000006001600160a01b0316633850c7bd6040518163ffffffff1660e01b815260040160e06040518083038186803b15801561317f57600080fd5b505afa158015613193573d6000803e3d6000fd5b505050506040513d60e08110156131a957600080fd5b5051905060006131cc826131bc8a613463565b6131c58a613463565b8989612170565b90506000807f00000000000000000000000000000000000000000000000000000000000000006001600160a01b0316633c8a7d8d308c8c873060405160200180826001600160a01b031681526020019150506040516020818303038152906040526040518663ffffffff1660e01b815260040180866001600160a01b031681526020018560020b81526020018460020b8152602001836001600160801b0316815260200180602001828103825283818151815260200191508051906020019080838360005b838110156132a9578181015183820152602001613291565b50505050905090810190601f1680156132d65780820380516001836020036101000a031916815260200191505b5096505050505050506040805180830381600087803b1580156132f857600080fd5b505af115801561330c573d6000803e3d6000fd5b505050506040513d604081101561332257600080fd5b508051602090910151988190039897889003979092509050871515806133485750600087115b1561338d57868811600061271061336c8884613364578b613366565b8c5b90611ff4565b8161337357fe5b0490506133858c8c8c8c858d88613794565b909a50985050505b50505050505050505050565b60008080600019858709868602925082811090839003039050806133cf57600084116133c457600080fd5b5082900490506109c4565b8084116133db57600080fd5b6000848688096000868103871696879004966002600389028118808a02820302808a02820302808a02820302808a02820302808a02820302808a02909103029181900381900460010186841190950394909402919094039290920491909117919091029150509392505050565b806001600160801b038116811461345e57600080fd5b919050565b60008060008360020b1261347a578260020b613482565b8260020b6000035b9050620d89e88111156134c0576040805162461bcd60e51b81526020600482015260016024820152601560fa1b604482015290519081900360640190fd5b6000600182166134d457600160801b6134e6565b6ffffcb933bd6fad37aa2d162d1a5940015b70ffffffffffffffffffffffffffffffffff169050600282161561351a576ffff97272373d413259a46990580e213a0260801c5b6004821615613539576ffff2e50f5f656932ef12357cf3c7fdcc0260801c5b6008821615613558576fffe5caca7e10e4e61c3624eaa0941cd00260801c5b6010821615613577576fffcb9843d60f6159c9db58835c9266440260801c5b6020821615613596576fff973b41fa98c081472e6896dfb254c00260801c5b60408216156135b5576fff2ea16466c96a3843ec78b326b528610260801c5b60808216156135d4576ffe5dee046a99a2a811c461f1969c30530260801c5b6101008216156135f4576ffcbe86c7900a88aedcffc83b479aa3a40260801c5b610200821615613614576ff987a7253ac413176f2b074cf7815e540260801c5b610400821615613634576ff3392b0822b70005940c7a398e4b70f30260801c5b610800821615613654576fe7159475a2c29b7443b29c7fa6e889d90260801c5b611000821615613674576fd097f3bdfd2022b8845ad8f792aa58250260801c5b612000821615613694576fa9f746462d870fdf8a65dc1f90e061e50260801c5b6140008216156136b4576f70d869a156d2a1b890bb3df62baf32f70260801c5b6180008216156136d4576f31be135f97d08fd981231505542fcfa60260801c5b620100008216156136f5576f09aa508b5b7a84e1c677de54f3e99bc90260801c5b62020000821615613715576e5d6af8dedb81196699c329225ee6040260801c5b62040000821615613734576d2216e584f5fa1ea926041bedfe980260801c5b62080000821615613751576b048a170391f7dc42444e8fa20260801c5b60008460020b131561376c57806000198161376857fe5b0490505b600160201b81061561377f576001613782565b60005b60ff16602082901c0192505050919050565b6000806000807f00000000000000000000000000000000000000000000000000000000000000006001600160a01b031663128acb0830878a8a3060405160200180826001600160a01b031681526020019150506040516020818303038152906040526040518663ffffffff1660e01b815260040180866001600160a01b031681526020018515158152602001848152602001836001600160a01b0316815260200180602001828103825283818151815260200191508051906020019080838360005b8381101561386e578181015183820152602001613856565b50505050905090810190601f16801561389b5780820380516001836020036101000a031916815260200191505b5096505050505050506040805180830381600087803b1580156138bd57600080fd5b505af11580156138d1573d6000803e3d6000fd5b505050506040513d60408110156138e757600080fd5b50805160209091015160408051633850c7bd60e01b81529051838d039750828c0396509294509092506000916001600160a01b037f00000000000000000000000000000000000000000000000000000000000000001691633850c7bd9160048083019260e0929190829003018186803b15801561396357600080fd5b505afa158015613977573d6000803e3d6000fd5b505050506040513d60e081101561398d57600080fd5b5051905060006139a9826139a08f613463565b6131c58f613463565b90507f00000000000000000000000000000000000000000000000000000000000000006001600160a01b0316633c8a7d8d308f8f853060405160200180826001600160a01b031681526020019150506040516020818303038152906040526040518663ffffffff1660e01b815260040180866001600160a01b031681526020018560020b81526020018460020b8152602001836001600160801b0316815260200180602001828103825283818151815260200191508051906020019080838360005b83811015613a83578181015183820152602001613a6b565b50505050905090810190601f168015613ab05780820380516001836020036101000a031916815260200191505b5096505050505050506040805180830381600087803b158015613ad257600080fd5b505af1158015613ae6573d6000803e3d6000fd5b505050506040513d6040811015613afc57600080fd5b50959d949c50939a505050505050505050505056fe63616e6e6f7420726562616c616e636520756e74696c2068656172746265617420287072696365207374696c6c20696e2072616e6765294f776e61626c653a206e6577206f776e657220697320746865207a65726f2061646472657373736c697070616765207072696365206973206f7574206f662061636365707461626c652070726963652072616e6765a26469706673582212203bcddc830df41824d23f40938e86e9a2a7a7ac3db64e4d7d7ff1641d605a467f64736f6c63430007030033",
  "devdoc": {
    "kind": "dev",
    "methods": {
      "admin()": {
        "details": "Returns the address of the current owner."
      },
      "renounceAdmin()": {
        "details": "Leaves the contract without owner. It will not be possible to call `onlyOwner` functions anymore. Can only be called by the current owner. NOTE: Renouncing ownership will leave the contract without an owner, thereby removing any functionality that is only available to the owner."
      },
      "transferAdmin(address)": {
        "details": "Transfers ownership of the contract to a new account (`newOwner`). Can only be called by the current owner."
      },
      "uniswapV3MintCallback(uint256,uint256,bytes)": {
        "details": "In the implementation you must pay the pool tokens owed for the minted liquidity. The caller of this method must be checked to be a UniswapV3Pool deployed by the canonical UniswapV3Factory.",
        "params": {
          "amount0Owed": "The amount of token0 due to the pool for the minted liquidity",
          "amount1Owed": "The amount of token1 due to the pool for the minted liquidity",
          "data": "Any data passed through by the caller via the IUniswapV3PoolActions#mint call"
        }
      }
    },
    "version": 1
  },
  "userdoc": {
    "kind": "user",
    "methods": {
      "uniswapV3MintCallback(uint256,uint256,bytes)": {
        "notice": "Called to `msg.sender` after minting liquidity to a position from IUniswapV3Pool#mint."
      }
    },
    "version": 1
  },
  "storageLayout": {
    "storage": [
      {
        "astId": 1480,
        "contract": "contracts/MetaPool.sol:MetaPool",
        "label": "name",
        "offset": 0,
        "slot": "0",
        "type": "t_string_storage"
      },
      {
        "astId": 1488,
        "contract": "contracts/MetaPool.sol:MetaPool",
        "label": "totalSupply",
        "offset": 0,
        "slot": "1",
        "type": "t_uint256"
      },
      {
        "astId": 1492,
        "contract": "contracts/MetaPool.sol:MetaPool",
        "label": "balanceOf",
        "offset": 0,
        "slot": "2",
        "type": "t_mapping(t_address,t_uint256)"
      },
      {
        "astId": 1498,
        "contract": "contracts/MetaPool.sol:MetaPool",
        "label": "allowance",
        "offset": 0,
        "slot": "3",
        "type": "t_mapping(t_address,t_mapping(t_address,t_uint256))"
      },
      {
        "astId": 1500,
        "contract": "contracts/MetaPool.sol:MetaPool",
        "label": "DOMAIN_SEPARATOR",
        "offset": 0,
        "slot": "4",
        "type": "t_bytes32"
      },
      {
        "astId": 1509,
        "contract": "contracts/MetaPool.sol:MetaPool",
        "label": "nonces",
        "offset": 0,
        "slot": "5",
        "type": "t_mapping(t_address,t_uint256)"
      },
      {
        "astId": 3452,
        "contract": "contracts/MetaPool.sol:MetaPool",
        "label": "_status",
        "offset": 0,
        "slot": "6",
        "type": "t_uint256"
      },
      {
        "astId": 3342,
        "contract": "contracts/MetaPool.sol:MetaPool",
        "label": "_admin",
        "offset": 0,
        "slot": "7",
        "type": "t_address"
      },
      {
        "astId": 1958,
        "contract": "contracts/MetaPool.sol:MetaPool",
        "label": "currentLowerTick",
        "offset": 20,
        "slot": "7",
        "type": "t_int24"
      },
      {
        "astId": 1960,
        "contract": "contracts/MetaPool.sol:MetaPool",
        "label": "currentUpperTick",
        "offset": 23,
        "slot": "7",
        "type": "t_int24"
      },
      {
        "astId": 1977,
        "contract": "contracts/MetaPool.sol:MetaPool",
        "label": "lastRebalanceTimestamp",
        "offset": 0,
        "slot": "8",
        "type": "t_uint256"
      },
      {
        "astId": 1984,
        "contract": "contracts/MetaPool.sol:MetaPool",
        "label": "supplyCap",
        "offset": 0,
        "slot": "9",
        "type": "t_uint256"
      },
      {
        "astId": 1987,
        "contract": "contracts/MetaPool.sol:MetaPool",
        "label": "heartbeat",
        "offset": 0,
        "slot": "10",
        "type": "t_uint256"
      },
      {
        "astId": 1990,
        "contract": "contracts/MetaPool.sol:MetaPool",
        "label": "minTickDeviation",
        "offset": 0,
        "slot": "11",
        "type": "t_int24"
      },
      {
        "astId": 1993,
        "contract": "contracts/MetaPool.sol:MetaPool",
        "label": "maxTickDeviation",
        "offset": 3,
        "slot": "11",
        "type": "t_int24"
      },
      {
        "astId": 1996,
        "contract": "contracts/MetaPool.sol:MetaPool",
        "label": "observationSeconds",
        "offset": 6,
        "slot": "11",
        "type": "t_uint32"
      },
      {
        "astId": 1999,
        "contract": "contracts/MetaPool.sol:MetaPool",
        "label": "maxSlippagePercentage",
        "offset": 10,
        "slot": "11",
        "type": "t_uint160"
      }
    ],
    "types": {
      "t_address": {
        "encoding": "inplace",
        "label": "address",
        "numberOfBytes": "20"
      },
      "t_bytes32": {
        "encoding": "inplace",
        "label": "bytes32",
        "numberOfBytes": "32"
      },
      "t_int24": {
        "encoding": "inplace",
        "label": "int24",
        "numberOfBytes": "3"
      },
      "t_mapping(t_address,t_mapping(t_address,t_uint256))": {
        "encoding": "mapping",
        "key": "t_address",
        "label": "mapping(address => mapping(address => uint256))",
        "numberOfBytes": "32",
        "value": "t_mapping(t_address,t_uint256)"
      },
      "t_mapping(t_address,t_uint256)": {
        "encoding": "mapping",
        "key": "t_address",
        "label": "mapping(address => uint256)",
        "numberOfBytes": "32",
        "value": "t_uint256"
      },
      "t_string_storage": {
        "encoding": "bytes",
        "label": "string",
        "numberOfBytes": "32"
      },
      "t_uint160": {
        "encoding": "inplace",
        "label": "uint160",
        "numberOfBytes": "20"
      },
      "t_uint256": {
        "encoding": "inplace",
        "label": "uint256",
        "numberOfBytes": "32"
      },
      "t_uint32": {
        "encoding": "inplace",
        "label": "uint32",
        "numberOfBytes": "4"
      }
    }
  }
}