{
  "address": "0xb4Cecd92ADc5CDb0Dd877d6D8203Ac4Eb9db242D",
  "abi": [
    {
      "inputs": [
        {
          "internalType": "address",
          "name": "_uniswapFactory",
          "type": "address"
        },
        {
          "internalType": "address",
          "name": "_gelato",
          "type": "address"
        }
      ],
      "stateMutability": "nonpayable",
      "type": "constructor"
    },
    {
      "anonymous": false,
      "inputs": [
        {
          "indexed": true,
          "internalType": "address",
          "name": "token0",
          "type": "address"
        },
        {
          "indexed": true,
          "internalType": "address",
          "name": "token1",
          "type": "address"
        },
        {
          "indexed": false,
          "internalType": "address",
          "name": "pool",
          "type": "address"
        }
      ],
      "name": "PoolCreated",
      "type": "event"
    },
    {
      "inputs": [],
      "name": "POOL_BYTECODE_HASH",
      "outputs": [
        {
          "internalType": "bytes32",
          "name": "",
          "type": "bytes32"
        }
      ],
      "stateMutability": "view",
      "type": "function"
    },
    {
      "inputs": [
        {
          "internalType": "address",
          "name": "tokenA",
          "type": "address"
        },
        {
          "internalType": "address",
          "name": "tokenB",
          "type": "address"
        }
      ],
      "name": "calculatePoolAddress",
      "outputs": [
        {
          "internalType": "address",
          "name": "",
          "type": "address"
        }
      ],
      "stateMutability": "view",
      "type": "function"
    },
    {
      "inputs": [
        {
          "internalType": "address",
          "name": "tokenA",
          "type": "address"
        },
        {
          "internalType": "address",
          "name": "tokenB",
          "type": "address"
        },
        {
          "internalType": "int24",
          "name": "initialLowerTick",
          "type": "int24"
        },
        {
          "internalType": "int24",
          "name": "initialUpperTick",
          "type": "int24"
        }
      ],
      "name": "createPool",
      "outputs": [
        {
          "internalType": "address",
          "name": "pool",
          "type": "address"
        }
      ],
      "stateMutability": "nonpayable",
      "type": "function"
    },
    {
      "inputs": [],
      "name": "gelato",
      "outputs": [
        {
          "internalType": "address",
          "name": "",
          "type": "address"
        }
      ],
      "stateMutability": "view",
      "type": "function"
    },
    {
      "inputs": [],
      "name": "getDeployProps",
      "outputs": [
        {
          "internalType": "address",
          "name": "",
          "type": "address"
        },
        {
          "internalType": "address",
          "name": "",
          "type": "address"
        },
        {
          "internalType": "address",
          "name": "",
          "type": "address"
        },
        {
          "internalType": "int24",
          "name": "",
          "type": "int24"
        },
        {
          "internalType": "int24",
          "name": "",
          "type": "int24"
        },
        {
          "internalType": "address",
          "name": "",
          "type": "address"
        }
      ],
      "stateMutability": "view",
      "type": "function"
    },
    {
      "inputs": [],
      "name": "uniswapFactory",
      "outputs": [
        {
          "internalType": "address",
          "name": "",
          "type": "address"
        }
      ],
      "stateMutability": "view",
      "type": "function"
    }
  ],
  "transactionHash": "0x8a48752b73553c23f30c4d1ed9add2bd48a65c85b02d2355e209154d796fd3f3",
  "args": [
    "0xFeabCc62240297F1e4b238937D68e7516f0918D7",
    "0xD90fC89e89E3E5b75256b5aA617f887C583b29a2"
  ],
  "solcInputHash": "a0439d57761a1c8659540cefd53e5166",
  "bytecode": "0x60c060405234801561001057600080fd5b506040516153dd3803806153dd8339818101604052604081101561003357600080fd5b8101908080519060200190929190805190602001909291905050508173ffffffffffffffffffffffffffffffffffffffff1660808173ffffffffffffffffffffffffffffffffffffffff1660601b815250508073ffffffffffffffffffffffffffffffffffffffff1660a08173ffffffffffffffffffffffffffffffffffffffff1660601b81525050505060805160601c60a05160601c6152ec6100f16000398061077b528061087f52508061079f528061083e52506152ec6000f3fe608060405234801561001057600080fd5b50600436106100625760003560e01c8063023d90f814610067578063209b67381461010f578063573ea5751461019d5780638bdb2afa146101d1578063d0d3fb8014610205578063fff471bd14610223575b600080fd5b6100e36004803603608081101561007d57600080fd5b81019080803573ffffffffffffffffffffffffffffffffffffffff169060200190929190803573ffffffffffffffffffffffffffffffffffffffff169060200190929190803560020b9060200190929190803560020b90602001909291905050506102c2565b604051808273ffffffffffffffffffffffffffffffffffffffff16815260200191505060405180910390f35b6101716004803603604081101561012557600080fd5b81019080803573ffffffffffffffffffffffffffffffffffffffff169060200190929190803573ffffffffffffffffffffffffffffffffffffffff16906020019092919050505061061e565b604051808273ffffffffffffffffffffffffffffffffffffffff16815260200191505060405180910390f35b6101a5610779565b604051808273ffffffffffffffffffffffffffffffffffffffff16815260200191505060405180910390f35b6101d961079d565b604051808273ffffffffffffffffffffffffffffffffffffffff16815260200191505060405180910390f35b61020d6107c1565b6040518082815260200191505060405180910390f35b61022b6107ef565b604051808773ffffffffffffffffffffffffffffffffffffffff1681526020018673ffffffffffffffffffffffffffffffffffffffff1681526020018573ffffffffffffffffffffffffffffffffffffffff1681526020018460020b81526020018360020b81526020018273ffffffffffffffffffffffffffffffffffffffff168152602001965050505050505060405180910390f35b60008373ffffffffffffffffffffffffffffffffffffffff168573ffffffffffffffffffffffffffffffffffffffff1614156102fd57600080fd5b6000808573ffffffffffffffffffffffffffffffffffffffff168773ffffffffffffffffffffffffffffffffffffffff161061033a57858761033d565b86865b91509150600073ffffffffffffffffffffffffffffffffffffffff168273ffffffffffffffffffffffffffffffffffffffff16141561037b57600080fd5b816000806101000a81548173ffffffffffffffffffffffffffffffffffffffff021916908373ffffffffffffffffffffffffffffffffffffffff16021790555080600160006101000a81548173ffffffffffffffffffffffffffffffffffffffff021916908373ffffffffffffffffffffffffffffffffffffffff16021790555084600160146101000a81548162ffffff021916908360020b62ffffff16021790555083600160176101000a81548162ffffff021916908360020b62ffffff1602179055508181604051602001808373ffffffffffffffffffffffffffffffffffffffff1660601b81526014018273ffffffffffffffffffffffffffffffffffffffff1660601b815260140192505050604051602081830303815290604052805190602001206040516104ad906108b2565b8190604051809103906000f59050801580156104cd573d6000803e3d6000fd5b50925060008060006101000a81548173ffffffffffffffffffffffffffffffffffffffff021916908373ffffffffffffffffffffffffffffffffffffffff1602179055506000600160006101000a81548173ffffffffffffffffffffffffffffffffffffffff021916908373ffffffffffffffffffffffffffffffffffffffff1602179055506000600160146101000a81548162ffffff021916908360020b62ffffff1602179055506000600160176101000a81548162ffffff021916908360020b62ffffff1602179055508073ffffffffffffffffffffffffffffffffffffffff168273ffffffffffffffffffffffffffffffffffffffff167f9c5d829b9b23efc461f9aeef91979ec04bb903feb3bee4f26d22114abfc7335b85604051808273ffffffffffffffffffffffffffffffffffffffff16815260200191505060405180910390a35050949350505050565b60008060008373ffffffffffffffffffffffffffffffffffffffff168573ffffffffffffffffffffffffffffffffffffffff161061065d578385610660565b84845b9150915060ff60f81b308383604051602001808373ffffffffffffffffffffffffffffffffffffffff1660601b81526014018273ffffffffffffffffffffffffffffffffffffffff1660601b81526014019250505060405160208183030381529060405280519060200120604051806020016106db906108b2565b6020820181038252601f19601f820116604052508051906020012060405160200180857effffffffffffffffffffffffffffffffffffffffffffffffffffffffffffff191681526001018473ffffffffffffffffffffffffffffffffffffffff1660601b81526014018381526020018281526020019450505050506040516020818303038152906040528051906020012060001c9250505092915050565b7f000000000000000000000000000000000000000000000000000000000000000081565b7f000000000000000000000000000000000000000000000000000000000000000081565b604051806020016107d1906108b2565b6020820181038252601f19601f820116604052508051906020012081565b60008060008060008060008054906101000a900473ffffffffffffffffffffffffffffffffffffffff16600160009054906101000a900473ffffffffffffffffffffffffffffffffffffffff167f0000000000000000000000000000000000000000000000000000000000000000600160149054906101000a900460020b600160179054906101000a900460020b7f0000000000000000000000000000000000000000000000000000000000000000955095509550955095509550909192939495565b6149f7806108c08339019056fe6101206040523480156200001257600080fd5b5060004690507f8b73c3c69bb8fe3d512ecc4cf759cc79239f7b179b0ffacaa9a75d522b39400f604051806060016040528060268152602001620049d160269139805190602001206040518060400160405280600181526020017f3100000000000000000000000000000000000000000000000000000000000000815250805190602001208330604051602001808681526020018581526020018481526020018381526020018273ffffffffffffffffffffffffffffffffffffffff16815260200195505050505050604051602081830303815290604052805190602001206003819055505060003390508073ffffffffffffffffffffffffffffffffffffffff1660808173ffffffffffffffffffffffffffffffffffffffff1660601b815250506000806000806000808673ffffffffffffffffffffffffffffffffffffffff1663fff471bd6040518163ffffffff1660e01b815260040160c06040518083038186803b1580156200018457600080fd5b505afa15801562000199573d6000803e3d6000fd5b505050506040513d60c0811015620001b057600080fd5b810190808051906020019092919080519060200190929190805190602001909291908051906020019092919080519060200190929190805190602001909291905050509550955095509550955095508573ffffffffffffffffffffffffffffffffffffffff1660a08173ffffffffffffffffffffffffffffffffffffffff1660601b815250508473ffffffffffffffffffffffffffffffffffffffff1660c08173ffffffffffffffffffffffffffffffffffffffff1660601b815250508373ffffffffffffffffffffffffffffffffffffffff1660e08173ffffffffffffffffffffffffffffffffffffffff1660601b815250508073ffffffffffffffffffffffffffffffffffffffff166101008173ffffffffffffffffffffffffffffffffffffffff1660601b8152505082600560006101000a81548162ffffff021916908360020b62ffffff16021790555081600560036101000a81548162ffffff021916908360020b62ffffff160217905550610bb8600560066101000a81548162ffffff021916908362ffffff16021790555060008473ffffffffffffffffffffffffffffffffffffffff16631698ee828888610bb86040518463ffffffff1660e01b8152600401808473ffffffffffffffffffffffffffffffffffffffff1681526020018373ffffffffffffffffffffffffffffffffffffffff1681526020018262ffffff168152602001935050505060206040518083038186803b158015620003d857600080fd5b505afa158015620003ed573d6000803e3d6000fd5b505050506040513d60208110156200040457600080fd5b81019080805190602001909291905050509050600073ffffffffffffffffffffffffffffffffffffffff168173ffffffffffffffffffffffffffffffffffffffff1614156200045257600080fd5b80600560096101000a81548173ffffffffffffffffffffffffffffffffffffffff021916908373ffffffffffffffffffffffffffffffffffffffff160217905550505050505050505060805160601c60a05160601c60c05160601c60e05160601c6101005160601c6144a1620005306000398061125552806116aa52508061168652806127a15250806118ac52806119da5280611a4a5280611ee6528061272c52806127fe5280612b8f525080610c5c52806119a55280611a145280611ead52806126bd52806127dd5280612b1e52508061186c52506144a16000f3fe608060405234801561001057600080fd5b50600436106101e55760003560e01c806370a082311161010f578063c72e160b116100a2578063dd62ed3e11610071578063dd62ed3e14610ae3578063df28408a14610b5b578063e5475ae714610b79578063fa461e3314610b9a576101e5565b8063c72e160b146108ce578063d21220a714610989578063d3487997146109bd578063d505accf14610a4a576101e5565b8063954e94f4116100de578063954e94f41461073c57806395d89b41146107b3578063a9059cbb14610836578063c45a01551461089a576101e5565b806370a08231146106245780637ecebe001461067c5780638322fff2146106d45780638bdb2afa14610708576101e5565b8063313ce567116101875780636098fd4a116101565780636098fd4a146104bb57806366e3d11314610579578063692b69ae1461059c57806369d3e20e146105d0576101e5565b8063313ce567146103e65780633644e5151461040757806342966c6814610425578063573ea57514610487576101e5565b806318160ddd116101c357806318160ddd146103055780631f6697c61461032357806323b872dd1461034457806330adf81f146103c8576101e5565b806306fdde03146101ea578063095ea7b31461026d5780630dfe1681146102d1575b600080fd5b6101f2610c27565b6040518080602001828103825283818151815260200191508051906020019080838360005b83811015610232578082015181840152602081019050610217565b50505050905090810190601f16801561025f5780820380516001836020036101000a031916815260200191505b509250505060405180910390f35b6102b96004803603604081101561028357600080fd5b81019080803573ffffffffffffffffffffffffffffffffffffffff16906020019092919080359060200190929190505050610c43565b60405180821515815260200191505060405180910390f35b6102d9610c5a565b604051808273ffffffffffffffffffffffffffffffffffffffff16815260200191505060405180910390f35b61030d610c7e565b6040518082815260200191505060405180910390f35b61032b610c84565b604051808260020b815260200191505060405180910390f35b6103b06004803603606081101561035a57600080fd5b81019080803573ffffffffffffffffffffffffffffffffffffffff169060200190929190803573ffffffffffffffffffffffffffffffffffffffff16906020019092919080359060200190929190505050610c97565b60405180821515815260200191505060405180910390f35b6103d0610e62565b6040518082815260200191505060405180910390f35b6103ee610e86565b604051808260ff16815260200191505060405180910390f35b61040f610e8b565b6040518082815260200191505060405180910390f35b6104516004803603602081101561043b57600080fd5b8101908080359060200190929190505050610e91565b60405180848152602001838152602001826fffffffffffffffffffffffffffffffff168152602001935050505060405180910390f35b61048f611253565b604051808273ffffffffffffffffffffffffffffffffffffffff16815260200191505060405180910390f35b610551600480360360a08110156104d157600080fd5b81019080803573ffffffffffffffffffffffffffffffffffffffff169060200190929190803573ffffffffffffffffffffffffffffffffffffffff169060200190929190803573ffffffffffffffffffffffffffffffffffffffff1690602001909291908035906020019092919080359060200190929190505050611277565b60405180826fffffffffffffffffffffffffffffffff16815260200191505060405180910390f35b610581611291565b604051808262ffffff16815260200191505060405180910390f35b6105a46112a6565b604051808273ffffffffffffffffffffffffffffffffffffffff16815260200191505060405180910390f35b61060e600480360360208110156105e657600080fd5b8101908080356fffffffffffffffffffffffffffffffff1690602001909291905050506112cc565b6040518082815260200191505060405180910390f35b6106666004803603602081101561063a57600080fd5b81019080803573ffffffffffffffffffffffffffffffffffffffff16906020019092919050505061163c565b6040518082815260200191505060405180910390f35b6106be6004803603602081101561069257600080fd5b81019080803573ffffffffffffffffffffffffffffffffffffffff169060200190929190505050611654565b6040518082815260200191505060405180910390f35b6106dc61166c565b604051808273ffffffffffffffffffffffffffffffffffffffff16815260200191505060405180910390f35b610710611684565b604051808273ffffffffffffffffffffffffffffffffffffffff16815260200191505060405180910390f35b6107b1600480360360a081101561075257600080fd5b81019080803560020b9060200190929190803560020b9060200190929190803562ffffff16906020019092919080359060200190929190803573ffffffffffffffffffffffffffffffffffffffff1690602001909291905050506116a8565b005b6107bb61181a565b6040518080602001828103825283818151815260200191508051906020019080838360005b838110156107fb5780820151818401526020810190506107e0565b50505050905090810190601f1680156108285780820380516001836020036101000a031916815260200191505b509250505060405180910390f35b6108826004803603604081101561084c57600080fd5b81019080803573ffffffffffffffffffffffffffffffffffffffff16906020019092919080359060200190929190505050611853565b60405180821515815260200191505060405180910390f35b6108a261186a565b604051808273ffffffffffffffffffffffffffffffffffffffff16815260200191505060405180910390f35b61096c600480360360808110156108e457600080fd5b81019080803573ffffffffffffffffffffffffffffffffffffffff169060200190929190803573ffffffffffffffffffffffffffffffffffffffff169060200190929190803573ffffffffffffffffffffffffffffffffffffffff16906020019092919080356fffffffffffffffffffffffffffffffff16906020019092919050505061188e565b604051808381526020018281526020019250505060405180910390f35b6109916118aa565b604051808273ffffffffffffffffffffffffffffffffffffffff16815260200191505060405180910390f35b610a48600480360360608110156109d357600080fd5b81019080803590602001909291908035906020019092919080359060200190640100000000811115610a0457600080fd5b820183602082011115610a1657600080fd5b80359060200191846001830284011164010000000083111715610a3857600080fd5b90919293919293905050506118ce565b005b610ae1600480360360e0811015610a6057600080fd5b81019080803573ffffffffffffffffffffffffffffffffffffffff169060200190929190803573ffffffffffffffffffffffffffffffffffffffff1690602001909291908035906020019092919080359060200190929190803560ff1690602001909291908035906020019092919080359060200190929190505050611a7a565b005b610b4560048036036040811015610af957600080fd5b81019080803573ffffffffffffffffffffffffffffffffffffffff169060200190929190803573ffffffffffffffffffffffffffffffffffffffff169060200190929190505050611d8c565b6040518082815260200191505060405180910390f35b610b63611db1565b6040518082815260200191505060405180910390f35b610b81611e32565b604051808260020b815260200191505060405180910390f35b610c2560048036036060811015610bb057600080fd5b81019080803590602001909291908035906020019092919080359060200190640100000000811115610be157600080fd5b820183602082011115610bf357600080fd5b80359060200191846001830284011164010000000083111715610c1557600080fd5b9091929391929390505050611e45565b005b6040518060600160405280602681526020016144466026913981565b6000610c50338484611f14565b6001905092915050565b7f000000000000000000000000000000000000000000000000000000000000000081565b60005481565b600560039054906101000a900460020b81565b60007fffffffffffffffffffffffffffffffffffffffffffffffffffffffffffffffff600260008673ffffffffffffffffffffffffffffffffffffffff1673ffffffffffffffffffffffffffffffffffffffff16815260200190815260200160002060003373ffffffffffffffffffffffffffffffffffffffff1673ffffffffffffffffffffffffffffffffffffffff1681526020019081526020016000205414610e4c57610dcb82600260008773ffffffffffffffffffffffffffffffffffffffff1673ffffffffffffffffffffffffffffffffffffffff16815260200190815260200160002060003373ffffffffffffffffffffffffffffffffffffffff1673ffffffffffffffffffffffffffffffffffffffff16815260200190815260200160002054611fff90919063ffffffff16565b600260008673ffffffffffffffffffffffffffffffffffffffff1673ffffffffffffffffffffffffffffffffffffffff16815260200190815260200160002060003373ffffffffffffffffffffffffffffffffffffffff1673ffffffffffffffffffffffffffffffffffffffff168152602001908152602001600020819055505b610e57848484612019565b600190509392505050565b7f6e71edae12b1b97f4d1f60370fef10105fa2faae0126114a169c64845d6126c981565b601281565b60035481565b6000806000806000600560009054906101000a900460020b600560039054906101000a900460020b915091506000600560099054906101000a900473ffffffffffffffffffffffffffffffffffffffff1690506000805490506000308585604051602001808473ffffffffffffffffffffffffffffffffffffffff1660601b81526014018360020b60e81b81526003018260020b60e81b8152600301935050505060405160208183030381529060405280519060200120905060008373ffffffffffffffffffffffffffffffffffffffff1663514ea4bf836040518263ffffffff1660e01b81526004018082815260200191505060a06040518083038186803b158015610f9d57600080fd5b505afa158015610fb1573d6000803e3d6000fd5b505050506040513d60a0811015610fc757600080fd5b810190808051906020019092919080519060200190929190805190602001909291908051906020019092919080519060200190929190505050505050509050611010338b6121ad565b6000816fffffffffffffffffffffffffffffffff16611038858d6122c790919063ffffffff16565b8161103f57fe5b0490506fffffffffffffffffffffffffffffffff8016811061106057600080fd5b809750600560099054906101000a900473ffffffffffffffffffffffffffffffffffffffff1673ffffffffffffffffffffffffffffffffffffffff1663a34123a788888b6040518463ffffffff1660e01b8152600401808460020b81526020018360020b8152602001826fffffffffffffffffffffffffffffffff16815260200193505050506040805180830381600087803b1580156110ff57600080fd5b505af1158015611113573d6000803e3d6000fd5b505050506040513d604081101561112957600080fd5b810190808051906020019092919080519060200190929190505050809a50819b5050508473ffffffffffffffffffffffffffffffffffffffff16634f1eb3d83389898e8e6040518663ffffffff1660e01b8152600401808673ffffffffffffffffffffffffffffffffffffffff1681526020018560020b81526020018460020b8152602001836fffffffffffffffffffffffffffffffff168152602001826fffffffffffffffffffffffffffffffff168152602001955050505050506040805180830381600087803b1580156111fe57600080fd5b505af1158015611212573d6000803e3d6000fd5b505050506040513d604081101561122857600080fd5b8101908080519060200190929190805190602001909291905050505050505050505050509193909250565b7f000000000000000000000000000000000000000000000000000000000000000081565b600061128686868686866122f3565b905095945050505050565b600560069054906101000a900462ffffff1681565b600560099054906101000a900473ffffffffffffffffffffffffffffffffffffffff1681565b6000806000600560009054906101000a900460020b600560039054906101000a900460020b915091506000600560099054906101000a900473ffffffffffffffffffffffffffffffffffffffff1690506000308484604051602001808473ffffffffffffffffffffffffffffffffffffffff1660601b81526014018360020b60e81b81526003018260020b60e81b8152600301935050505060405160208183030381529060405280519060200120905060008273ffffffffffffffffffffffffffffffffffffffff1663514ea4bf836040518263ffffffff1660e01b81526004018082815260200191505060a06040518083038186803b1580156113cf57600080fd5b505afa1580156113e3573d6000803e3d6000fd5b505050506040513d60a08110156113f957600080fd5b8101908080519060200190929190805190602001909291908051906020019092919080519060200190929190805190602001909291905050505050505090508273ffffffffffffffffffffffffffffffffffffffff16633c8a7d8d3087878b33604051602001808273ffffffffffffffffffffffffffffffffffffffff1681526020019150506040516020818303038152906040526040518663ffffffff1660e01b8152600401808673ffffffffffffffffffffffffffffffffffffffff1681526020018560020b81526020018460020b8152602001836fffffffffffffffffffffffffffffffff16815260200180602001828103825283818151815260200191508051906020019080838360005b83811015611523578082015181840152602081019050611508565b50505050905090810190601f1680156115505780820380516001836020036101000a031916815260200191505b5096505050505050506040805180830381600087803b15801561157257600080fd5b505af1158015611586573d6000803e3d6000fd5b505050506040513d604081101561159c57600080fd5b810190808051906020019092919080519060200190929190505050505060008054905060008114156115e257876fffffffffffffffffffffffffffffffff169650611627565b816fffffffffffffffffffffffffffffffff1661161c6000548a6fffffffffffffffffffffffffffffffff166122c790919063ffffffff16565b8161162357fe5b0496505b6116313388612420565b505050505050919050565b60016020528060005260406000206000915090505481565b60046020528060005260406000206000915090505481565b73eeeeeeeeeeeeeeeeeeeeeeeeeeeeeeeeeeeeeeee81565b7f000000000000000000000000000000000000000000000000000000000000000081565b7f000000000000000000000000000000000000000000000000000000000000000082828273ffffffffffffffffffffffffffffffffffffffff163373ffffffffffffffffffffffffffffffffffffffff161461176c576040517f08c379a00000000000000000000000000000000000000000000000000000000081526004018080602001828103825260178152602001807f47656c61746f666965643a204f6e6c792067656c61746f00000000000000000081525060200191505060405180910390fd5b8562ffffff16600560069054906101000a900462ffffff1662ffffff16146117a05761179b888888888861253a565b6117ad565b6117ac8888878761299c565b5b73eeeeeeeeeeeeeeeeeeeeeeeeeeeeeeeeeeeeeeee73ffffffffffffffffffffffffffffffffffffffff168173ffffffffffffffffffffffffffffffffffffffff161415611804576117ff8383612c85565b611810565b61180f818484612e01565b5b5050505050505050565b6040518060400160405280600681526020017f67554e495633000000000000000000000000000000000000000000000000000081525081565b6000611860338484612019565b6001905092915050565b7f000000000000000000000000000000000000000000000000000000000000000081565b60008061189d86868686613003565b9150915094509492505050565b7f000000000000000000000000000000000000000000000000000000000000000081565b600560099054906101000a900473ffffffffffffffffffffffffffffffffffffffff1673ffffffffffffffffffffffffffffffffffffffff163373ffffffffffffffffffffffffffffffffffffffff161461192857600080fd5b60008282602081101561193a57600080fd5b81019080803573ffffffffffffffffffffffffffffffffffffffff16906020019092919050505090503073ffffffffffffffffffffffffffffffffffffffff168173ffffffffffffffffffffffffffffffffffffffff161415611a065760008511156119cc576119cb7f00000000000000000000000000000000000000000000000000000000000000003387612e01565b5b6000841115611a0157611a007f00000000000000000000000000000000000000000000000000000000000000003386612e01565b5b611a73565b6000851115611a3c57611a3b7f00000000000000000000000000000000000000000000000000000000000000008233886130f6565b5b6000841115611a7257611a717f00000000000000000000000000000000000000000000000000000000000000008233876130f6565b5b5b5050505050565b42841015611af0576040517f08c379a00000000000000000000000000000000000000000000000000000000081526004018080602001828103825260128152602001807f556e697377617056323a2045585049524544000000000000000000000000000081525060200191505060405180910390fd5b60006003547f6e71edae12b1b97f4d1f60370fef10105fa2faae0126114a169c64845d6126c9898989600460008e73ffffffffffffffffffffffffffffffffffffffff1673ffffffffffffffffffffffffffffffffffffffff1681526020019081526020016000206000815480929190600101919050558a604051602001808781526020018673ffffffffffffffffffffffffffffffffffffffff1681526020018573ffffffffffffffffffffffffffffffffffffffff16815260200184815260200183815260200182815260200196505050505050506040516020818303038152906040528051906020012060405160200180807f190100000000000000000000000000000000000000000000000000000000000081525060020183815260200182815260200192505050604051602081830303815290604052805190602001209050600060018286868660405160008152602001604052604051808581526020018460ff1681526020018381526020018281526020019450505050506020604051602081039080840390855afa158015611c90573d6000803e3d6000fd5b505050602060405103519050600073ffffffffffffffffffffffffffffffffffffffff168173ffffffffffffffffffffffffffffffffffffffff1614158015611d0457508873ffffffffffffffffffffffffffffffffffffffff168173ffffffffffffffffffffffffffffffffffffffff16145b611d76576040517f08c379a000000000000000000000000000000000000000000000000000000000815260040180806020018281038252601c8152602001807f556e697377617056323a20494e56414c49445f5349474e41545552450000000081525060200191505060405180910390fd5b611d81898989611f14565b505050505050505050565b6002602052816000526040600020602052806000526040600020600091509150505481565b600030600560009054906101000a900460020b600560039054906101000a900460020b604051602001808473ffffffffffffffffffffffffffffffffffffffff1660601b81526014018360020b60e81b81526003018260020b60e81b8152600301935050505060405160208183030381529060405280519060200120905090565b600560009054906101000a900460020b81565b600560099054906101000a900473ffffffffffffffffffffffffffffffffffffffff1673ffffffffffffffffffffffffffffffffffffffff163373ffffffffffffffffffffffffffffffffffffffff1614611e9f57600080fd5b6000841315611ed857611ed37f00000000000000000000000000000000000000000000000000000000000000003386612e01565b611f0e565b6000831315611f0d57611f0c7f00000000000000000000000000000000000000000000000000000000000000003385612e01565b5b5b50505050565b80600260008573ffffffffffffffffffffffffffffffffffffffff1673ffffffffffffffffffffffffffffffffffffffff16815260200190815260200160002060008473ffffffffffffffffffffffffffffffffffffffff1673ffffffffffffffffffffffffffffffffffffffff168152602001908152602001600020819055508173ffffffffffffffffffffffffffffffffffffffff168373ffffffffffffffffffffffffffffffffffffffff167f8c5be1e5ebec7d5bd14f71427d1e84f3dd0314c0f7b2291e5b200ac8c7c3b925836040518082815260200191505060405180910390a3505050565b600082828403915081111561201357600080fd5b92915050565b61206b81600160008673ffffffffffffffffffffffffffffffffffffffff1673ffffffffffffffffffffffffffffffffffffffff16815260200190815260200160002054611fff90919063ffffffff16565b600160008573ffffffffffffffffffffffffffffffffffffffff1673ffffffffffffffffffffffffffffffffffffffff1681526020019081526020016000208190555061210081600160008573ffffffffffffffffffffffffffffffffffffffff1673ffffffffffffffffffffffffffffffffffffffff1681526020019081526020016000205461331790919063ffffffff16565b600160008473ffffffffffffffffffffffffffffffffffffffff1673ffffffffffffffffffffffffffffffffffffffff168152602001908152602001600020819055508173ffffffffffffffffffffffffffffffffffffffff168373ffffffffffffffffffffffffffffffffffffffff167fddf252ad1be2c89b69c2b068fc378daa952ba7f163c4a11628f55a4df523b3ef836040518082815260200191505060405180910390a3505050565b6121ff81600160008573ffffffffffffffffffffffffffffffffffffffff1673ffffffffffffffffffffffffffffffffffffffff16815260200190815260200160002054611fff90919063ffffffff16565b600160008473ffffffffffffffffffffffffffffffffffffffff1673ffffffffffffffffffffffffffffffffffffffff1681526020019081526020016000208190555061225781600054611fff90919063ffffffff16565b600081905550600073ffffffffffffffffffffffffffffffffffffffff168273ffffffffffffffffffffffffffffffffffffffff167fddf252ad1be2c89b69c2b068fc378daa952ba7f163c4a11628f55a4df523b3ef836040518082815260200191505060405180910390a35050565b6000808314806122e457508183838502925082816122e157fe5b04145b6122ed57600080fd5b92915050565b60008373ffffffffffffffffffffffffffffffffffffffff168573ffffffffffffffffffffffffffffffffffffffff16111561233457838580955081965050505b8473ffffffffffffffffffffffffffffffffffffffff168673ffffffffffffffffffffffffffffffffffffffff16101561237a57612373858585613331565b9050612417565b8373ffffffffffffffffffffffffffffffffffffffff168673ffffffffffffffffffffffffffffffffffffffff1610156124085760006123bb878686613331565b905060006123ca8789866133ef565b9050806fffffffffffffffffffffffffffffffff16826fffffffffffffffffffffffffffffffff16106123fd57806123ff565b815b92505050612416565b6124138585846133ef565b90505b5b95945050505050565b6124358160005461331790919063ffffffff16565b60008190555061248d81600160008573ffffffffffffffffffffffffffffffffffffffff1673ffffffffffffffffffffffffffffffffffffffff1681526020019081526020016000205461331790919063ffffffff16565b600160008473ffffffffffffffffffffffffffffffffffffffff1673ffffffffffffffffffffffffffffffffffffffff168152602001908152602001600020819055508173ffffffffffffffffffffffffffffffffffffffff16600073ffffffffffffffffffffffffffffffffffffffff167fddf252ad1be2c89b69c2b068fc378daa952ba7f163c4a11628f55a4df523b3ef836040518082815260200191505060405180910390a35050565b6000806000600560099054906101000a900473ffffffffffffffffffffffffffffffffffffffff16600560009054906101000a900460020b600560039054906101000a900460020b9250925092506000806000308585604051602001808473ffffffffffffffffffffffffffffffffffffffff1660601b81526014018360020b60e81b81526003018260020b60e81b8152600301935050505060405160208183030381529060405280519060200120905060008673ffffffffffffffffffffffffffffffffffffffff1663514ea4bf836040518263ffffffff1660e01b81526004018082815260200191505060a06040518083038186803b15801561263e57600080fd5b505afa158015612652573d6000803e3d6000fd5b505050506040513d60a081101561266857600080fd5b8101908080519060200190929190805190602001909291908051906020019092919080519060200190929190805190602001909291905050505050505090506000806126b78989898630613471565b915091507f000000000000000000000000000000000000000000000000000000000000000073ffffffffffffffffffffffffffffffffffffffff168a73ffffffffffffffffffffffffffffffffffffffff16146127145781612728565b6127278b83611fff90919063ffffffff16565b5b95507f000000000000000000000000000000000000000000000000000000000000000073ffffffffffffffffffffffffffffffffffffffff168a73ffffffffffffffffffffffffffffffffffffffff16146127835780612797565b6127968b82611fff90919063ffffffff16565b5b94505050505060007f000000000000000000000000000000000000000000000000000000000000000073ffffffffffffffffffffffffffffffffffffffff16631698ee827f00000000000000000000000000000000000000000000000000000000000000007f00000000000000000000000000000000000000000000000000000000000000008c6040518463ffffffff1660e01b8152600401808473ffffffffffffffffffffffffffffffffffffffff1681526020018373ffffffffffffffffffffffffffffffffffffffff1681526020018262ffffff168152602001935050505060206040518083038186803b15801561289157600080fd5b505afa1580156128a5573d6000803e3d6000fd5b505050506040513d60208110156128bb57600080fd5b810190808051906020019092919050505090508a8a8a83600560006005600360056006600560098891906101000a81548173ffffffffffffffffffffffffffffffffffffffff021916908373ffffffffffffffffffffffffffffffffffffffff1602179055508791906101000a81548162ffffff021916908362ffffff1602179055508691906101000a81548162ffffff021916908360020b62ffffff1602179055508591906101000a81548162ffffff021916908360020b62ffffff1602179055505050505061298f818c8c86866136d5565b5050505050505050505050565b6000806000600560099054906101000a900473ffffffffffffffffffffffffffffffffffffffff16600560009054906101000a900460020b600560039054906101000a900460020b9250925092506000308383604051602001808473ffffffffffffffffffffffffffffffffffffffff1660601b81526014018360020b60e81b81526003018260020b60e81b8152600301935050505060405160208183030381529060405280519060200120905060008473ffffffffffffffffffffffffffffffffffffffff1663514ea4bf836040518263ffffffff1660e01b81526004018082815260200191505060a06040518083038186803b158015612a9d57600080fd5b505afa158015612ab1573d6000803e3d6000fd5b505050506040513d60a0811015612ac757600080fd5b810190808051906020019092919080519060200190929190805190602001909291908051906020019092919080519060200190929190505050505050509050600080612b168787878630613471565b9150915060007f000000000000000000000000000000000000000000000000000000000000000073ffffffffffffffffffffffffffffffffffffffff168973ffffffffffffffffffffffffffffffffffffffff1614612b755782612b89565b612b888a84611fff90919063ffffffff16565b5b905060007f000000000000000000000000000000000000000000000000000000000000000073ffffffffffffffffffffffffffffffffffffffff168a73ffffffffffffffffffffffffffffffffffffffff1614612be65782612bfa565b612bf98b84611fff90919063ffffffff16565b5b90508c60020b8860020b141580612c1757508b60020b8760020b14155b15612c69578c8c60056000600560038491906101000a81548162ffffff021916908360020b62ffffff1602179055508391906101000a81548162ffffff021916908360020b62ffffff16021790555050505b612c76898e8e85856136d5565b50505050505050505050505050565b60008273ffffffffffffffffffffffffffffffffffffffff1682600067ffffffffffffffff81118015612cb757600080fd5b506040519080825280601f01601f191660200182016040528015612cea5781602001600182028036833780820191505090505b506040518082805190602001908083835b60208310612d1e5780518252602082019150602081019050602083039250612cfb565b6001836020036101000a03801982511681845116808217855250505050505090500191505060006040518083038185875af1925050503d8060008114612d80576040519150601f19603f3d011682016040523d82523d6000602084013e612d85565b606091505b5050905080612dfc576040517f08c379a00000000000000000000000000000000000000000000000000000000081526004018080602001828103825260038152602001807f535445000000000000000000000000000000000000000000000000000000000081525060200191505060405180910390fd5b505050565b600060608473ffffffffffffffffffffffffffffffffffffffff1663a9059cbb60e01b8585604051602401808373ffffffffffffffffffffffffffffffffffffffff16815260200182815260200192505050604051602081830303815290604052907bffffffffffffffffffffffffffffffffffffffffffffffffffffffff19166020820180517bffffffffffffffffffffffffffffffffffffffffffffffffffffffff83818316178352505050506040518082805190602001908083835b60208310612ee35780518252602082019150602081019050602083039250612ec0565b6001836020036101000a0380198251168184511680821785525050505050509050019150506000604051808303816000865af19150503d8060008114612f45576040519150601f19603f3d011682016040523d82523d6000602084013e612f4a565b606091505b5091509150818015612f8a5750600081511480612f895750808060200190516020811015612f7757600080fd5b81019080805190602001909291905050505b5b612ffc576040517f08c379a00000000000000000000000000000000000000000000000000000000081526004018080602001828103825260028152602001807f535400000000000000000000000000000000000000000000000000000000000081525060200191505060405180910390fd5b5050505050565b6000808373ffffffffffffffffffffffffffffffffffffffff168573ffffffffffffffffffffffffffffffffffffffff16111561304557838580955081965050505b8473ffffffffffffffffffffffffffffffffffffffff168673ffffffffffffffffffffffffffffffffffffffff16101561308b57613084858585613dc1565b91506130ed565b8373ffffffffffffffffffffffffffffffffffffffff168673ffffffffffffffffffffffffffffffffffffffff1610156130de576130ca868585613dc1565b91506130d7858785613e7c565b90506130ec565b6130e9858585613e7c565b90505b5b94509492505050565b600060608573ffffffffffffffffffffffffffffffffffffffff166323b872dd60e01b868686604051602401808473ffffffffffffffffffffffffffffffffffffffff1681526020018373ffffffffffffffffffffffffffffffffffffffff1681526020018281526020019350505050604051602081830303815290604052907bffffffffffffffffffffffffffffffffffffffffffffffffffffffff19166020820180517bffffffffffffffffffffffffffffffffffffffffffffffffffffffff83818316178352505050506040518082805190602001908083835b602083106131f657805182526020820191506020810190506020830392506131d3565b6001836020036101000a0380198251168184511680821785525050505050509050019150506000604051808303816000865af19150503d8060008114613258576040519150601f19603f3d011682016040523d82523d6000602084013e61325d565b606091505b509150915081801561329d575060008151148061329c575080806020019051602081101561328a57600080fd5b81019080805190602001909291905050505b5b61330f576040517f08c379a00000000000000000000000000000000000000000000000000000000081526004018080602001828103825260038152602001807f535446000000000000000000000000000000000000000000000000000000000081525060200191505060405180910390fd5b505050505050565b600082828401915081101561332b57600080fd5b92915050565b60008273ffffffffffffffffffffffffffffffffffffffff168473ffffffffffffffffffffffffffffffffffffffff16111561337257828480945081955050505b60006133b88573ffffffffffffffffffffffffffffffffffffffff168573ffffffffffffffffffffffffffffffffffffffff166c01000000000000000000000000613f08565b90506133e56133e0848388880373ffffffffffffffffffffffffffffffffffffffff16613f08565b613fe2565b9150509392505050565b60008273ffffffffffffffffffffffffffffffffffffffff168473ffffffffffffffffffffffffffffffffffffffff16111561343057828480945081955050505b613468613463836c0100000000000000000000000087870373ffffffffffffffffffffffffffffffffffffffff16613f08565b613fe2565b90509392505050565b60008060006fffffffffffffffffffffffffffffffff905060006fffffffffffffffffffffffffffffffff90506000808a73ffffffffffffffffffffffffffffffffffffffff1663a34123a78b8b8b6040518463ffffffff1660e01b8152600401808460020b81526020018360020b8152602001826fffffffffffffffffffffffffffffffff16815260200193505050506040805180830381600087803b15801561351b57600080fd5b505af115801561352f573d6000803e3d6000fd5b505050506040513d604081101561354557600080fd5b810190808051906020019092919080519060200190929190505050915091503073ffffffffffffffffffffffffffffffffffffffff168773ffffffffffffffffffffffffffffffffffffffff161461359e578193508092505b8a73ffffffffffffffffffffffffffffffffffffffff16634f1eb3d8888c8c88886040518663ffffffff1660e01b8152600401808673ffffffffffffffffffffffffffffffffffffffff1681526020018560020b81526020018460020b8152602001836fffffffffffffffffffffffffffffffff168152602001826fffffffffffffffffffffffffffffffff168152602001955050505050506040805180830381600087803b15801561365057600080fd5b505af1158015613664573d6000803e3d6000fd5b505050506040513d604081101561367a57600080fd5b810190808051906020019092919080519060200190929190505050816fffffffffffffffffffffffffffffffff169150806fffffffffffffffffffffffffffffffff1690508096508197505050505050509550959350505050565b60008573ffffffffffffffffffffffffffffffffffffffff16633850c7bd6040518163ffffffff1660e01b815260040160e06040518083038186803b15801561371d57600080fd5b505afa158015613731573d6000803e3d6000fd5b505050506040513d60e081101561374757600080fd5b8101908080519060200190929190805190602001909291908051906020019092919080519060200190929190805190602001909291908051906020019092919080519060200190929190505050505050505050905060006137bb826137ab8861400a565b6137b48861400a565b87876122f3565b90506000808873ffffffffffffffffffffffffffffffffffffffff16633c8a7d8d308a8a8730604051602001808273ffffffffffffffffffffffffffffffffffffffff1681526020019150506040516020818303038152906040526040518663ffffffff1660e01b8152600401808673ffffffffffffffffffffffffffffffffffffffff1681526020018560020b81526020018460020b8152602001836fffffffffffffffffffffffffffffffff16815260200180602001828103825283818151815260200191508051906020019080838360005b838110156138ab578082015181840152602081019050613890565b50505050905090810190601f1680156138d85780820380516001836020036101000a031916815260200191505b5096505050505050506040805180830381600087803b1580156138fa57600080fd5b505af115801561390e573d6000803e3d6000fd5b505050506040513d604081101561392457600080fd5b8101908080519060200190929190805190602001909291905050509150915081860395508085039450600086118061395c5750600085115b15613db657600085871190506000808b73ffffffffffffffffffffffffffffffffffffffff1663128acb083085600287613996578c613998565b8d5b8161399f57fe5b05876139c257600173fffd8963efd1fc6a506488495d951d5263988d26036139cc565b60016401000276a3015b30604051602001808273ffffffffffffffffffffffffffffffffffffffff1681526020019150506040516020818303038152906040526040518663ffffffff1660e01b8152600401808673ffffffffffffffffffffffffffffffffffffffff16815260200185151581526020018481526020018373ffffffffffffffffffffffffffffffffffffffff16815260200180602001828103825283818151815260200191508051906020019080838360005b83811015613a97578082015181840152602081019050613a7c565b50505050905090810190601f168015613ac45780820380516001836020036101000a031916815260200191505b5096505050505050506040805180830381600087803b158015613ae657600080fd5b505af1158015613afa573d6000803e3d6000fd5b505050506040513d6040811015613b1057600080fd5b81019080805190602001909291908051906020019092919050505091509150818903985080880397508b73ffffffffffffffffffffffffffffffffffffffff16633850c7bd6040518163ffffffff1660e01b815260040160e06040518083038186803b158015613b7f57600080fd5b505afa158015613b93573d6000803e3d6000fd5b505050506040513d60e0811015613ba957600080fd5b8101908080519060200190929190805190602001909291908051906020019092919080519060200190929190805190602001909291908051906020019092919080519060200190929190505050909192939450909192935090919250909150905050809750506000613c2e88613c1e8e61400a565b613c278e61400a565b8d8d6122f3565b90508c73ffffffffffffffffffffffffffffffffffffffff16633c8a7d8d308e8e8530604051602001808273ffffffffffffffffffffffffffffffffffffffff1681526020019150506040516020818303038152906040526040518663ffffffff1660e01b8152600401808673ffffffffffffffffffffffffffffffffffffffff1681526020018560020b81526020018460020b8152602001836fffffffffffffffffffffffffffffffff16815260200180602001828103825283818151815260200191508051906020019080838360005b83811015613d1b578082015181840152602081019050613d00565b50505050905090810190601f168015613d485780820380516001836020036101000a031916815260200191505b5096505050505050506040805180830381600087803b158015613d6a57600080fd5b505af1158015613d7e573d6000803e3d6000fd5b505050506040513d6040811015613d9457600080fd5b8101908080519060200190929190805190602001909291905050505050505050505b505050505050505050565b60008273ffffffffffffffffffffffffffffffffffffffff168473ffffffffffffffffffffffffffffffffffffffff161115613e0257828480945081955050505b8373ffffffffffffffffffffffffffffffffffffffff16613e6b606060ff16846fffffffffffffffffffffffffffffffff16901b86860373ffffffffffffffffffffffffffffffffffffffff168673ffffffffffffffffffffffffffffffffffffffff16613f08565b81613e7257fe5b0490509392505050565b60008273ffffffffffffffffffffffffffffffffffffffff168473ffffffffffffffffffffffffffffffffffffffff161115613ebd57828480945081955050505b613eff826fffffffffffffffffffffffffffffffff1685850373ffffffffffffffffffffffffffffffffffffffff166c01000000000000000000000000613f08565b90509392505050565b600080600080198587098587029250828110838203039150506000811415613f435760008411613f3757600080fd5b83820492505050613fdb565b808411613f4f57600080fd5b600084868809905082811182039150808303925060008586600003169050808604955080840493506001818260000304019050808302841793506000600287600302189050808702600203810290508087026002038102905080870260020381029050808702600203810290508087026002038102905080870260020381029050808502955050505050505b9392505050565b600081829150816fffffffffffffffffffffffffffffffff161461400557600080fd5b919050565b60008060008360020b12614021578260020b614029565b8260020b6000035b90507ffffffffffffffffffffffffffffffffffffffffffffffffffffffffffff2761860000360020b8111156140c7576040517f08c379a00000000000000000000000000000000000000000000000000000000081526004018080602001828103825260018152602001807f540000000000000000000000000000000000000000000000000000000000000081525060200191505060405180910390fd5b6000806001831614156140eb577001000000000000000000000000000000006140fd565b6ffffcb933bd6fad37aa2d162d1a5940015b70ffffffffffffffffffffffffffffffffff169050600060028316146141375760806ffff97272373d413259a46990580e213a8202901c90505b6000600483161461415c5760806ffff2e50f5f656932ef12357cf3c7fdcc8202901c90505b600060088316146141815760806fffe5caca7e10e4e61c3624eaa0941cd08202901c90505b600060108316146141a65760806fffcb9843d60f6159c9db58835c9266448202901c90505b600060208316146141cb5760806fff973b41fa98c081472e6896dfb254c08202901c90505b600060408316146141f05760806fff2ea16466c96a3843ec78b326b528618202901c90505b600060808316146142155760806ffe5dee046a99a2a811c461f1969c30538202901c90505b600061010083161461423b5760806ffcbe86c7900a88aedcffc83b479aa3a48202901c90505b60006102008316146142615760806ff987a7253ac413176f2b074cf7815e548202901c90505b60006104008316146142875760806ff3392b0822b70005940c7a398e4b70f38202901c90505b60006108008316146142ad5760806fe7159475a2c29b7443b29c7fa6e889d98202901c90505b60006110008316146142d35760806fd097f3bdfd2022b8845ad8f792aa58258202901c90505b60006120008316146142f95760806fa9f746462d870fdf8a65dc1f90e061e58202901c90505b600061400083161461431f5760806f70d869a156d2a1b890bb3df62baf32f78202901c90505b60006180008316146143455760806f31be135f97d08fd981231505542fcfa68202901c90505b60006201000083161461436c5760806f09aa508b5b7a84e1c677de54f3e99bc98202901c90505b6000620200008316146143925760806e5d6af8dedb81196699c329225ee6048202901c90505b6000620400008316146143b75760806d2216e584f5fa1ea926041bedfe988202901c90505b6000620800008316146143da5760806b048a170391f7dc42444e8fa28202901c90505b60008460020b131561441357807fffffffffffffffffffffffffffffffffffffffffffffffffffffffffffffffff8161440f57fe5b0490505b6000640100000000828161442357fe5b0614614430576001614433565b60005b60ff16602082901c019250505091905056fe47656c61746f204175746f6d6174656420556e6973776170205633204554482f444149204c50a2646970667358221220328a299a09bbf2229862d00d814fb5d206f349c56109f358e356bc8fa5c7737964736f6c6343000703003347656c61746f204175746f6d6174656420556e6973776170205633204554482f444149204c50a2646970667358221220b786575711ec4fac956c965a3cae29844f5d732d206f37e1096d5f2bbf00c20464736f6c63430007030033",
  "devdoc": {
    "kind": "dev",
    "methods": {},
    "version": 1
  },
  "userdoc": {
    "kind": "user",
    "methods": {},
    "version": 1
  },
  "storageLayout": {
    "storage": [
      {
        "astId": 3041,
        "contract": "contracts/MetaPoolFactory.sol:MetaPoolFactory",
        "label": "_token0",
        "offset": 0,
        "slot": "0",
        "type": "t_address"
      },
      {
        "astId": 3043,
        "contract": "contracts/MetaPoolFactory.sol:MetaPoolFactory",
        "label": "_token1",
        "offset": 0,
        "slot": "1",
        "type": "t_address"
      },
      {
        "astId": 3045,
        "contract": "contracts/MetaPoolFactory.sol:MetaPoolFactory",
        "label": "_initialLowerTick",
        "offset": 20,
        "slot": "1",
        "type": "t_int24"
      },
      {
        "astId": 3047,
        "contract": "contracts/MetaPoolFactory.sol:MetaPoolFactory",
        "label": "_initialUpperTick",
        "offset": 23,
        "slot": "1",
        "type": "t_int24"
      }
    ],
    "types": {
      "t_address": {
        "encoding": "inplace",
        "label": "address",
        "numberOfBytes": "20"
      },
      "t_int24": {
        "encoding": "inplace",
        "label": "int24",
        "numberOfBytes": "3"
      }
    }
  }
}