{
  "address": "0x7b76b4FACd224072E8bA14375963d06434831196",
  "abi": [
    {
      "inputs": [
        {
          "internalType": "address",
          "name": "_uniswapFactory",
          "type": "address"
        },
        {
          "internalType": "address",
          "name": "_gelato",
          "type": "address"
        }
      ],
      "stateMutability": "nonpayable",
      "type": "constructor"
    },
    {
      "anonymous": false,
      "inputs": [
        {
          "indexed": true,
          "internalType": "address",
          "name": "token0",
          "type": "address"
        },
        {
          "indexed": true,
          "internalType": "address",
          "name": "token1",
          "type": "address"
        },
        {
          "indexed": false,
          "internalType": "address",
          "name": "pool",
          "type": "address"
        }
      ],
      "name": "PoolCreated",
      "type": "event"
    },
    {
      "inputs": [],
      "name": "POOL_BYTECODE_HASH",
      "outputs": [
        {
          "internalType": "bytes32",
          "name": "",
          "type": "bytes32"
        }
      ],
      "stateMutability": "view",
      "type": "function"
    },
    {
      "inputs": [
        {
          "internalType": "address",
          "name": "tokenA",
          "type": "address"
        },
        {
          "internalType": "address",
          "name": "tokenB",
          "type": "address"
        }
      ],
      "name": "calculatePoolAddress",
      "outputs": [
        {
          "internalType": "address",
          "name": "",
          "type": "address"
        }
      ],
      "stateMutability": "view",
      "type": "function"
    },
    {
      "inputs": [
        {
          "internalType": "address",
          "name": "tokenA",
          "type": "address"
        },
        {
          "internalType": "address",
          "name": "tokenB",
          "type": "address"
        }
      ],
      "name": "createPool",
      "outputs": [
        {
          "internalType": "address",
          "name": "pool",
          "type": "address"
        }
      ],
      "stateMutability": "nonpayable",
      "type": "function"
    },
    {
      "inputs": [],
      "name": "gelato",
      "outputs": [
        {
          "internalType": "address",
          "name": "",
          "type": "address"
        }
      ],
      "stateMutability": "view",
      "type": "function"
    },
    {
      "inputs": [],
      "name": "getDeployProps",
      "outputs": [
        {
          "internalType": "address",
          "name": "",
          "type": "address"
        },
        {
          "internalType": "address",
          "name": "",
          "type": "address"
        },
        {
          "internalType": "address",
          "name": "",
          "type": "address"
        },
        {
          "internalType": "address",
          "name": "",
          "type": "address"
        }
      ],
      "stateMutability": "view",
      "type": "function"
    },
    {
      "inputs": [],
      "name": "uniswapFactory",
      "outputs": [
        {
          "internalType": "address",
          "name": "",
          "type": "address"
        }
      ],
      "stateMutability": "view",
      "type": "function"
    }
  ],
  "transactionHash": "0x0a3171f1350612a6095f06b2d91b53bc999cac03ba5fcc63044332a8570197b4",
  "args": [
    "0xFeabCc62240297F1e4b238937D68e7516f0918D7",
    "0x4B5BaD436CcA8df3bD39A095b84991fAc9A226F1"
  ],
  "solcInputHash": "fa9bb4ed1354ba002a4554813c5a0c8f",
  "bytecode": "0x60c060405234801561001057600080fd5b50604051614e44380380614e448339818101604052604081101561003357600080fd5b8101908080519060200190929190805190602001909291905050508173ffffffffffffffffffffffffffffffffffffffff1660808173ffffffffffffffffffffffffffffffffffffffff1660601b815250508073ffffffffffffffffffffffffffffffffffffffff1660a08173ffffffffffffffffffffffffffffffffffffffff1660601b81525050505060805160601c60a05160601c614d536100f1600039806103f152806107a252508061041552806107815250614d536000f3fe608060405234801561001057600080fd5b50600436106100625760003560e01c8063209b673814610067578063573ea575146100f55780638bdb2afa14610129578063d0d3fb801461015d578063e34336151461017b578063fff471bd14610209575b600080fd5b6100c96004803603604081101561007d57600080fd5b81019080803573ffffffffffffffffffffffffffffffffffffffff169060200190929190803573ffffffffffffffffffffffffffffffffffffffff169060200190929190505050610294565b604051808273ffffffffffffffffffffffffffffffffffffffff16815260200191505060405180910390f35b6100fd6103ef565b604051808273ffffffffffffffffffffffffffffffffffffffff16815260200191505060405180910390f35b610131610413565b604051808273ffffffffffffffffffffffffffffffffffffffff16815260200191505060405180910390f35b610165610437565b6040518082815260200191505060405180910390f35b6101dd6004803603604081101561019157600080fd5b81019080803573ffffffffffffffffffffffffffffffffffffffff169060200190929190803573ffffffffffffffffffffffffffffffffffffffff169060200190929190505050610465565b604051808273ffffffffffffffffffffffffffffffffffffffff16815260200191505060405180910390f35b610211610735565b604051808573ffffffffffffffffffffffffffffffffffffffff1681526020018473ffffffffffffffffffffffffffffffffffffffff1681526020018373ffffffffffffffffffffffffffffffffffffffff1681526020018273ffffffffffffffffffffffffffffffffffffffff16815260200194505050505060405180910390f35b60008060008373ffffffffffffffffffffffffffffffffffffffff168573ffffffffffffffffffffffffffffffffffffffff16106102d35783856102d6565b84845b9150915060ff60f81b308383604051602001808373ffffffffffffffffffffffffffffffffffffffff1660601b81526014018273ffffffffffffffffffffffffffffffffffffffff1660601b8152601401925050506040516020818303038152906040528051906020012060405180602001610351906107cf565b6020820181038252601f19601f820116604052508051906020012060405160200180857effffffffffffffffffffffffffffffffffffffffffffffffffffffffffffff191681526001018473ffffffffffffffffffffffffffffffffffffffff1660601b81526014018381526020018281526020019450505050506040516020818303038152906040528051906020012060001c9250505092915050565b7f000000000000000000000000000000000000000000000000000000000000000081565b7f000000000000000000000000000000000000000000000000000000000000000081565b60405180602001610447906107cf565b6020820181038252601f19601f820116604052508051906020012081565b60008173ffffffffffffffffffffffffffffffffffffffff168373ffffffffffffffffffffffffffffffffffffffff1614156104a057600080fd5b6000808373ffffffffffffffffffffffffffffffffffffffff168573ffffffffffffffffffffffffffffffffffffffff16106104dd5783856104e0565b84845b91509150600073ffffffffffffffffffffffffffffffffffffffff168273ffffffffffffffffffffffffffffffffffffffff16141561051e57600080fd5b816000806101000a81548173ffffffffffffffffffffffffffffffffffffffff021916908373ffffffffffffffffffffffffffffffffffffffff16021790555080600160006101000a81548173ffffffffffffffffffffffffffffffffffffffff021916908373ffffffffffffffffffffffffffffffffffffffff1602179055508181604051602001808373ffffffffffffffffffffffffffffffffffffffff1660601b81526014018273ffffffffffffffffffffffffffffffffffffffff1660601b8152601401925050506040516020818303038152906040528051906020012060405161060c906107cf565b8190604051809103906000f590508015801561062c573d6000803e3d6000fd5b50925060008060006101000a81548173ffffffffffffffffffffffffffffffffffffffff021916908373ffffffffffffffffffffffffffffffffffffffff1602179055506000600160006101000a81548173ffffffffffffffffffffffffffffffffffffffff021916908373ffffffffffffffffffffffffffffffffffffffff1602179055508073ffffffffffffffffffffffffffffffffffffffff168273ffffffffffffffffffffffffffffffffffffffff167f9c5d829b9b23efc461f9aeef91979ec04bb903feb3bee4f26d22114abfc7335b85604051808273ffffffffffffffffffffffffffffffffffffffff16815260200191505060405180910390a3505092915050565b60008060008060008054906101000a900473ffffffffffffffffffffffffffffffffffffffff16600160009054906101000a900473ffffffffffffffffffffffffffffffffffffffff167f00000000000000000000000000000000000000000000000000000000000000007f0000000000000000000000000000000000000000000000000000000000000000935093509350935090919293565b614541806107dd8339019056fe6101206040523480156200001257600080fd5b5060004690507f8b73c3c69bb8fe3d512ecc4cf759cc79239f7b179b0ffacaa9a75d522b39400f6040518060400160405280600881526020017f4d657461506f6f6c000000000000000000000000000000000000000000000000815250805190602001206040518060400160405280600181526020017f3100000000000000000000000000000000000000000000000000000000000000815250805190602001208330604051602001808681526020018581526020018481526020018381526020018273ffffffffffffffffffffffffffffffffffffffff16815260200195505050505050604051602081830303815290604052805190602001206003819055505060003390508073ffffffffffffffffffffffffffffffffffffffff1660808173ffffffffffffffffffffffffffffffffffffffff1660601b815250506000806000808473ffffffffffffffffffffffffffffffffffffffff1663fff471bd6040518163ffffffff1660e01b815260040160806040518083038186803b1580156200019d57600080fd5b505afa158015620001b2573d6000803e3d6000fd5b505050506040513d6080811015620001c957600080fd5b810190808051906020019092919080519060200190929190805190602001909291908051906020019092919050505093509350935093508373ffffffffffffffffffffffffffffffffffffffff1660a08173ffffffffffffffffffffffffffffffffffffffff1660601b815250508273ffffffffffffffffffffffffffffffffffffffff1660c08173ffffffffffffffffffffffffffffffffffffffff1660601b815250508173ffffffffffffffffffffffffffffffffffffffff1660e08173ffffffffffffffffffffffffffffffffffffffff1660601b815250508073ffffffffffffffffffffffffffffffffffffffff166101008173ffffffffffffffffffffffffffffffffffffffff1660601b815250507ffffffffffffffffffffffffffffffffffffffffffffffffffffffffffff2764c600560006101000a81548162ffffff021916908360020b62ffffff160217905550620d89b4600560036101000a81548162ffffff021916908360020b62ffffff160217905550610bb8600560066101000a81548162ffffff021916908362ffffff16021790555060008273ffffffffffffffffffffffffffffffffffffffff16631698ee828686610bb86040518463ffffffff1660e01b8152600401808473ffffffffffffffffffffffffffffffffffffffff1681526020018373ffffffffffffffffffffffffffffffffffffffff1681526020018262ffffff168152602001935050505060206040518083038186803b158015620003fc57600080fd5b505afa15801562000411573d6000803e3d6000fd5b505050506040513d60208110156200042857600080fd5b81019080805190602001909291905050509050600073ffffffffffffffffffffffffffffffffffffffff168173ffffffffffffffffffffffffffffffffffffffff1614156200047657600080fd5b80600560096101000a81548173ffffffffffffffffffffffffffffffffffffffff021916908373ffffffffffffffffffffffffffffffffffffffff16021790555050505050505060805160601c60a05160601c60c05160601c60e05160601c6101005160601c613fef62000552600039806110ba52806114f55250806114d152806124225250806116db528061180952806118795280611c9452806123ad528061247f5280612810525080610ac152806117d452806118435280611c5b528061233e528061245e528061279f5250806116b75250613fef6000f3fe608060405234801561001057600080fd5b50600436106101c45760003560e01c806370a08231116100f9578063c45a015511610097578063d505accf11610071578063d505accf146108b0578063dd62ed3e14610949578063e5475ae7146109c1578063fa461e33146109e2576101c4565b8063c45a0155146107bb578063d21220a7146107ef578063d348799714610823576101c4565b80638bdb2afa116100d35780638bdb2afa14610629578063954e94f41461065d57806395d89b41146106d4578063a9059cbb14610757576101c4565b806370a08231146105455780637ecebe001461059d5780638322fff2146105f5576101c4565b8063313ce56711610166578063573ea57511610140578063573ea5751461046657806366e3d1131461049a578063692b69ae146104bd57806369d3e20e146104f1576101c4565b8063313ce567146103c55780633644e515146103e657806342966c6814610404576101c4565b806318160ddd116101a257806318160ddd146102e45780631f6697c61461030257806323b872dd1461032357806330adf81f146103a7576101c4565b806306fdde03146101c9578063095ea7b31461024c5780630dfe1681146102b0575b600080fd5b6101d1610a6f565b6040518080602001828103825283818151815260200191508051906020019080838360005b838110156102115780820151818401526020810190506101f6565b50505050905090810190601f16801561023e5780820380516001836020036101000a031916815260200191505b509250505060405180910390f35b6102986004803603604081101561026257600080fd5b81019080803573ffffffffffffffffffffffffffffffffffffffff16906020019092919080359060200190929190505050610aa8565b60405180821515815260200191505060405180910390f35b6102b8610abf565b604051808273ffffffffffffffffffffffffffffffffffffffff16815260200191505060405180910390f35b6102ec610ae3565b6040518082815260200191505060405180910390f35b61030a610ae9565b604051808260020b815260200191505060405180910390f35b61038f6004803603606081101561033957600080fd5b81019080803573ffffffffffffffffffffffffffffffffffffffff169060200190929190803573ffffffffffffffffffffffffffffffffffffffff16906020019092919080359060200190929190505050610afc565b60405180821515815260200191505060405180910390f35b6103af610cc7565b6040518082815260200191505060405180910390f35b6103cd610ceb565b604051808260ff16815260200191505060405180910390f35b6103ee610cf0565b6040518082815260200191505060405180910390f35b6104306004803603602081101561041a57600080fd5b8101908080359060200190929190505050610cf6565b60405180848152602001838152602001826fffffffffffffffffffffffffffffffff168152602001935050505060405180910390f35b61046e6110b8565b604051808273ffffffffffffffffffffffffffffffffffffffff16815260200191505060405180910390f35b6104a26110dc565b604051808262ffffff16815260200191505060405180910390f35b6104c56110f1565b604051808273ffffffffffffffffffffffffffffffffffffffff16815260200191505060405180910390f35b61052f6004803603602081101561050757600080fd5b8101908080356fffffffffffffffffffffffffffffffff169060200190929190505050611117565b6040518082815260200191505060405180910390f35b6105876004803603602081101561055b57600080fd5b81019080803573ffffffffffffffffffffffffffffffffffffffff169060200190929190505050611487565b6040518082815260200191505060405180910390f35b6105df600480360360208110156105b357600080fd5b81019080803573ffffffffffffffffffffffffffffffffffffffff16906020019092919050505061149f565b6040518082815260200191505060405180910390f35b6105fd6114b7565b604051808273ffffffffffffffffffffffffffffffffffffffff16815260200191505060405180910390f35b6106316114cf565b604051808273ffffffffffffffffffffffffffffffffffffffff16815260200191505060405180910390f35b6106d2600480360360a081101561067357600080fd5b81019080803560020b9060200190929190803560020b9060200190929190803562ffffff16906020019092919080359060200190929190803573ffffffffffffffffffffffffffffffffffffffff1690602001909291905050506114f3565b005b6106dc611665565b6040518080602001828103825283818151815260200191508051906020019080838360005b8381101561071c578082015181840152602081019050610701565b50505050905090810190601f1680156107495780820380516001836020036101000a031916815260200191505b509250505060405180910390f35b6107a36004803603604081101561076d57600080fd5b81019080803573ffffffffffffffffffffffffffffffffffffffff1690602001909291908035906020019092919050505061169e565b60405180821515815260200191505060405180910390f35b6107c36116b5565b604051808273ffffffffffffffffffffffffffffffffffffffff16815260200191505060405180910390f35b6107f76116d9565b604051808273ffffffffffffffffffffffffffffffffffffffff16815260200191505060405180910390f35b6108ae6004803603606081101561083957600080fd5b8101908080359060200190929190803590602001909291908035906020019064010000000081111561086a57600080fd5b82018360208201111561087c57600080fd5b8035906020019184600183028401116401000000008311171561089e57600080fd5b90919293919293905050506116fd565b005b610947600480360360e08110156108c657600080fd5b81019080803573ffffffffffffffffffffffffffffffffffffffff169060200190929190803573ffffffffffffffffffffffffffffffffffffffff1690602001909291908035906020019092919080359060200190929190803560ff16906020019092919080359060200190929190803590602001909291905050506118a9565b005b6109ab6004803603604081101561095f57600080fd5b81019080803573ffffffffffffffffffffffffffffffffffffffff169060200190929190803573ffffffffffffffffffffffffffffffffffffffff169060200190929190505050611bbb565b6040518082815260200191505060405180910390f35b6109c9611be0565b604051808260020b815260200191505060405180910390f35b610a6d600480360360608110156109f857600080fd5b81019080803590602001909291908035906020019092919080359060200190640100000000811115610a2957600080fd5b820183602082011115610a3b57600080fd5b80359060200191846001830284011164010000000083111715610a5d57600080fd5b9091929391929390505050611bf3565b005b6040518060400160405280600881526020017f4d657461506f6f6c00000000000000000000000000000000000000000000000081525081565b6000610ab5338484611cc2565b6001905092915050565b7f000000000000000000000000000000000000000000000000000000000000000081565b60005481565b600560039054906101000a900460020b81565b60007fffffffffffffffffffffffffffffffffffffffffffffffffffffffffffffffff600260008673ffffffffffffffffffffffffffffffffffffffff1673ffffffffffffffffffffffffffffffffffffffff16815260200190815260200160002060003373ffffffffffffffffffffffffffffffffffffffff1673ffffffffffffffffffffffffffffffffffffffff1681526020019081526020016000205414610cb157610c3082600260008773ffffffffffffffffffffffffffffffffffffffff1673ffffffffffffffffffffffffffffffffffffffff16815260200190815260200160002060003373ffffffffffffffffffffffffffffffffffffffff1673ffffffffffffffffffffffffffffffffffffffff16815260200190815260200160002054611dad90919063ffffffff16565b600260008673ffffffffffffffffffffffffffffffffffffffff1673ffffffffffffffffffffffffffffffffffffffff16815260200190815260200160002060003373ffffffffffffffffffffffffffffffffffffffff1673ffffffffffffffffffffffffffffffffffffffff168152602001908152602001600020819055505b610cbc848484611dc7565b600190509392505050565b7f6e71edae12b1b97f4d1f60370fef10105fa2faae0126114a169c64845d6126c981565b601281565b60035481565b6000806000806000600560009054906101000a900460020b600560039054906101000a900460020b915091506000600560099054906101000a900473ffffffffffffffffffffffffffffffffffffffff1690506000805490506000308585604051602001808473ffffffffffffffffffffffffffffffffffffffff1660601b81526014018360020b60e81b81526003018260020b60e81b8152600301935050505060405160208183030381529060405280519060200120905060008373ffffffffffffffffffffffffffffffffffffffff1663514ea4bf836040518263ffffffff1660e01b81526004018082815260200191505060a06040518083038186803b158015610e0257600080fd5b505afa158015610e16573d6000803e3d6000fd5b505050506040513d60a0811015610e2c57600080fd5b810190808051906020019092919080519060200190929190805190602001909291908051906020019092919080519060200190929190505050505050509050610e75338b611f5b565b6000816fffffffffffffffffffffffffffffffff16610e9d858d61207590919063ffffffff16565b81610ea457fe5b0490506fffffffffffffffffffffffffffffffff80168110610ec557600080fd5b809750600560099054906101000a900473ffffffffffffffffffffffffffffffffffffffff1673ffffffffffffffffffffffffffffffffffffffff1663a34123a788888b6040518463ffffffff1660e01b8152600401808460020b81526020018360020b8152602001826fffffffffffffffffffffffffffffffff16815260200193505050506040805180830381600087803b158015610f6457600080fd5b505af1158015610f78573d6000803e3d6000fd5b505050506040513d6040811015610f8e57600080fd5b810190808051906020019092919080519060200190929190505050809a50819b5050508473ffffffffffffffffffffffffffffffffffffffff16634f1eb3d83389898e8e6040518663ffffffff1660e01b8152600401808673ffffffffffffffffffffffffffffffffffffffff1681526020018560020b81526020018460020b8152602001836fffffffffffffffffffffffffffffffff168152602001826fffffffffffffffffffffffffffffffff168152602001955050505050506040805180830381600087803b15801561106357600080fd5b505af1158015611077573d6000803e3d6000fd5b505050506040513d604081101561108d57600080fd5b8101908080519060200190929190805190602001909291905050505050505050505050509193909250565b7f000000000000000000000000000000000000000000000000000000000000000081565b600560069054906101000a900462ffffff1681565b600560099054906101000a900473ffffffffffffffffffffffffffffffffffffffff1681565b6000806000600560009054906101000a900460020b600560039054906101000a900460020b915091506000600560099054906101000a900473ffffffffffffffffffffffffffffffffffffffff1690506000308484604051602001808473ffffffffffffffffffffffffffffffffffffffff1660601b81526014018360020b60e81b81526003018260020b60e81b8152600301935050505060405160208183030381529060405280519060200120905060008273ffffffffffffffffffffffffffffffffffffffff1663514ea4bf836040518263ffffffff1660e01b81526004018082815260200191505060a06040518083038186803b15801561121a57600080fd5b505afa15801561122e573d6000803e3d6000fd5b505050506040513d60a081101561124457600080fd5b8101908080519060200190929190805190602001909291908051906020019092919080519060200190929190805190602001909291905050505050505090508273ffffffffffffffffffffffffffffffffffffffff16633c8a7d8d3087878b33604051602001808273ffffffffffffffffffffffffffffffffffffffff1681526020019150506040516020818303038152906040526040518663ffffffff1660e01b8152600401808673ffffffffffffffffffffffffffffffffffffffff1681526020018560020b81526020018460020b8152602001836fffffffffffffffffffffffffffffffff16815260200180602001828103825283818151815260200191508051906020019080838360005b8381101561136e578082015181840152602081019050611353565b50505050905090810190601f16801561139b5780820380516001836020036101000a031916815260200191505b5096505050505050506040805180830381600087803b1580156113bd57600080fd5b505af11580156113d1573d6000803e3d6000fd5b505050506040513d60408110156113e757600080fd5b8101908080519060200190929190805190602001909291905050505050600080549050600081141561142d57876fffffffffffffffffffffffffffffffff169650611472565b816fffffffffffffffffffffffffffffffff166114676000548a6fffffffffffffffffffffffffffffffff1661207590919063ffffffff16565b8161146e57fe5b0496505b61147c33886120a1565b505050505050919050565b60016020528060005260406000206000915090505481565b60046020528060005260406000206000915090505481565b73eeeeeeeeeeeeeeeeeeeeeeeeeeeeeeeeeeeeeeee81565b7f000000000000000000000000000000000000000000000000000000000000000081565b7f000000000000000000000000000000000000000000000000000000000000000082828273ffffffffffffffffffffffffffffffffffffffff163373ffffffffffffffffffffffffffffffffffffffff16146115b7576040517f08c379a00000000000000000000000000000000000000000000000000000000081526004018080602001828103825260178152602001807f47656c61746f666965643a204f6e6c792067656c61746f00000000000000000081525060200191505060405180910390fd5b8562ffffff16600560069054906101000a900462ffffff1662ffffff16146115eb576115e688888888886121bb565b6115f8565b6115f78888878761261d565b5b73eeeeeeeeeeeeeeeeeeeeeeeeeeeeeeeeeeeeeeee73ffffffffffffffffffffffffffffffffffffffff168173ffffffffffffffffffffffffffffffffffffffff16141561164f5761164a8383612906565b61165b565b61165a818484612a82565b5b5050505050505050565b6040518060400160405280600381526020017f4d504c000000000000000000000000000000000000000000000000000000000081525081565b60006116ab338484611dc7565b6001905092915050565b7f000000000000000000000000000000000000000000000000000000000000000081565b7f000000000000000000000000000000000000000000000000000000000000000081565b600560099054906101000a900473ffffffffffffffffffffffffffffffffffffffff1673ffffffffffffffffffffffffffffffffffffffff163373ffffffffffffffffffffffffffffffffffffffff161461175757600080fd5b60008282602081101561176957600080fd5b81019080803573ffffffffffffffffffffffffffffffffffffffff16906020019092919050505090503073ffffffffffffffffffffffffffffffffffffffff168173ffffffffffffffffffffffffffffffffffffffff1614156118355760008511156117fb576117fa7f00000000000000000000000000000000000000000000000000000000000000003387612a82565b5b60008411156118305761182f7f00000000000000000000000000000000000000000000000000000000000000003386612a82565b5b6118a2565b600085111561186b5761186a7f0000000000000000000000000000000000000000000000000000000000000000823388612c84565b5b60008411156118a1576118a07f0000000000000000000000000000000000000000000000000000000000000000823387612c84565b5b5b5050505050565b4284101561191f576040517f08c379a00000000000000000000000000000000000000000000000000000000081526004018080602001828103825260128152602001807f556e697377617056323a2045585049524544000000000000000000000000000081525060200191505060405180910390fd5b60006003547f6e71edae12b1b97f4d1f60370fef10105fa2faae0126114a169c64845d6126c9898989600460008e73ffffffffffffffffffffffffffffffffffffffff1673ffffffffffffffffffffffffffffffffffffffff1681526020019081526020016000206000815480929190600101919050558a604051602001808781526020018673ffffffffffffffffffffffffffffffffffffffff1681526020018573ffffffffffffffffffffffffffffffffffffffff16815260200184815260200183815260200182815260200196505050505050506040516020818303038152906040528051906020012060405160200180807f190100000000000000000000000000000000000000000000000000000000000081525060020183815260200182815260200192505050604051602081830303815290604052805190602001209050600060018286868660405160008152602001604052604051808581526020018460ff1681526020018381526020018281526020019450505050506020604051602081039080840390855afa158015611abf573d6000803e3d6000fd5b505050602060405103519050600073ffffffffffffffffffffffffffffffffffffffff168173ffffffffffffffffffffffffffffffffffffffff1614158015611b3357508873ffffffffffffffffffffffffffffffffffffffff168173ffffffffffffffffffffffffffffffffffffffff16145b611ba5576040517f08c379a000000000000000000000000000000000000000000000000000000000815260040180806020018281038252601c8152602001807f556e697377617056323a20494e56414c49445f5349474e41545552450000000081525060200191505060405180910390fd5b611bb0898989611cc2565b505050505050505050565b6002602052816000526040600020602052806000526040600020600091509150505481565b600560009054906101000a900460020b81565b600560099054906101000a900473ffffffffffffffffffffffffffffffffffffffff1673ffffffffffffffffffffffffffffffffffffffff163373ffffffffffffffffffffffffffffffffffffffff1614611c4d57600080fd5b6000841315611c8657611c817f00000000000000000000000000000000000000000000000000000000000000003386612a82565b611cbc565b6000831315611cbb57611cba7f00000000000000000000000000000000000000000000000000000000000000003385612a82565b5b5b50505050565b80600260008573ffffffffffffffffffffffffffffffffffffffff1673ffffffffffffffffffffffffffffffffffffffff16815260200190815260200160002060008473ffffffffffffffffffffffffffffffffffffffff1673ffffffffffffffffffffffffffffffffffffffff168152602001908152602001600020819055508173ffffffffffffffffffffffffffffffffffffffff168373ffffffffffffffffffffffffffffffffffffffff167f8c5be1e5ebec7d5bd14f71427d1e84f3dd0314c0f7b2291e5b200ac8c7c3b925836040518082815260200191505060405180910390a3505050565b6000828284039150811115611dc157600080fd5b92915050565b611e1981600160008673ffffffffffffffffffffffffffffffffffffffff1673ffffffffffffffffffffffffffffffffffffffff16815260200190815260200160002054611dad90919063ffffffff16565b600160008573ffffffffffffffffffffffffffffffffffffffff1673ffffffffffffffffffffffffffffffffffffffff16815260200190815260200160002081905550611eae81600160008573ffffffffffffffffffffffffffffffffffffffff1673ffffffffffffffffffffffffffffffffffffffff16815260200190815260200160002054612ea590919063ffffffff16565b600160008473ffffffffffffffffffffffffffffffffffffffff1673ffffffffffffffffffffffffffffffffffffffff168152602001908152602001600020819055508173ffffffffffffffffffffffffffffffffffffffff168373ffffffffffffffffffffffffffffffffffffffff167fddf252ad1be2c89b69c2b068fc378daa952ba7f163c4a11628f55a4df523b3ef836040518082815260200191505060405180910390a3505050565b611fad81600160008573ffffffffffffffffffffffffffffffffffffffff1673ffffffffffffffffffffffffffffffffffffffff16815260200190815260200160002054611dad90919063ffffffff16565b600160008473ffffffffffffffffffffffffffffffffffffffff1673ffffffffffffffffffffffffffffffffffffffff1681526020019081526020016000208190555061200581600054611dad90919063ffffffff16565b600081905550600073ffffffffffffffffffffffffffffffffffffffff168273ffffffffffffffffffffffffffffffffffffffff167fddf252ad1be2c89b69c2b068fc378daa952ba7f163c4a11628f55a4df523b3ef836040518082815260200191505060405180910390a35050565b600080831480612092575081838385029250828161208f57fe5b04145b61209b57600080fd5b92915050565b6120b681600054612ea590919063ffffffff16565b60008190555061210e81600160008573ffffffffffffffffffffffffffffffffffffffff1673ffffffffffffffffffffffffffffffffffffffff16815260200190815260200160002054612ea590919063ffffffff16565b600160008473ffffffffffffffffffffffffffffffffffffffff1673ffffffffffffffffffffffffffffffffffffffff168152602001908152602001600020819055508173ffffffffffffffffffffffffffffffffffffffff16600073ffffffffffffffffffffffffffffffffffffffff167fddf252ad1be2c89b69c2b068fc378daa952ba7f163c4a11628f55a4df523b3ef836040518082815260200191505060405180910390a35050565b6000806000600560099054906101000a900473ffffffffffffffffffffffffffffffffffffffff16600560009054906101000a900460020b600560039054906101000a900460020b9250925092506000806000308585604051602001808473ffffffffffffffffffffffffffffffffffffffff1660601b81526014018360020b60e81b81526003018260020b60e81b8152600301935050505060405160208183030381529060405280519060200120905060008673ffffffffffffffffffffffffffffffffffffffff1663514ea4bf836040518263ffffffff1660e01b81526004018082815260200191505060a06040518083038186803b1580156122bf57600080fd5b505afa1580156122d3573d6000803e3d6000fd5b505050506040513d60a08110156122e957600080fd5b8101908080519060200190929190805190602001909291908051906020019092919080519060200190929190805190602001909291905050505050505090506000806123388989898630612ebf565b915091507f000000000000000000000000000000000000000000000000000000000000000073ffffffffffffffffffffffffffffffffffffffff168a73ffffffffffffffffffffffffffffffffffffffff161461239557816123a9565b6123a88b83611dad90919063ffffffff16565b5b95507f000000000000000000000000000000000000000000000000000000000000000073ffffffffffffffffffffffffffffffffffffffff168a73ffffffffffffffffffffffffffffffffffffffff16146124045780612418565b6124178b82611dad90919063ffffffff16565b5b94505050505060007f000000000000000000000000000000000000000000000000000000000000000073ffffffffffffffffffffffffffffffffffffffff16631698ee827f00000000000000000000000000000000000000000000000000000000000000007f00000000000000000000000000000000000000000000000000000000000000008c6040518463ffffffff1660e01b8152600401808473ffffffffffffffffffffffffffffffffffffffff1681526020018373ffffffffffffffffffffffffffffffffffffffff1681526020018262ffffff168152602001935050505060206040518083038186803b15801561251257600080fd5b505afa158015612526573d6000803e3d6000fd5b505050506040513d602081101561253c57600080fd5b810190808051906020019092919050505090508a8a8a83600560006005600360056006600560098891906101000a81548173ffffffffffffffffffffffffffffffffffffffff021916908373ffffffffffffffffffffffffffffffffffffffff1602179055508791906101000a81548162ffffff021916908362ffffff1602179055508691906101000a81548162ffffff021916908360020b62ffffff1602179055508591906101000a81548162ffffff021916908360020b62ffffff16021790555050505050612610818c8c8686613123565b5050505050505050505050565b6000806000600560099054906101000a900473ffffffffffffffffffffffffffffffffffffffff16600560009054906101000a900460020b600560039054906101000a900460020b9250925092506000308383604051602001808473ffffffffffffffffffffffffffffffffffffffff1660601b81526014018360020b60e81b81526003018260020b60e81b8152600301935050505060405160208183030381529060405280519060200120905060008473ffffffffffffffffffffffffffffffffffffffff1663514ea4bf836040518263ffffffff1660e01b81526004018082815260200191505060a06040518083038186803b15801561271e57600080fd5b505afa158015612732573d6000803e3d6000fd5b505050506040513d60a081101561274857600080fd5b8101908080519060200190929190805190602001909291908051906020019092919080519060200190929190805190602001909291905050505050505090506000806127978787878630612ebf565b9150915060007f000000000000000000000000000000000000000000000000000000000000000073ffffffffffffffffffffffffffffffffffffffff168973ffffffffffffffffffffffffffffffffffffffff16146127f6578261280a565b6128098a84611dad90919063ffffffff16565b5b905060007f000000000000000000000000000000000000000000000000000000000000000073ffffffffffffffffffffffffffffffffffffffff168a73ffffffffffffffffffffffffffffffffffffffff1614612867578261287b565b61287a8b84611dad90919063ffffffff16565b5b90508c60020b8860020b14158061289857508b60020b8760020b14155b156128ea578c8c60056000600560038491906101000a81548162ffffff021916908360020b62ffffff1602179055508391906101000a81548162ffffff021916908360020b62ffffff16021790555050505b6128f7898e8e8585613123565b50505050505050505050505050565b60008273ffffffffffffffffffffffffffffffffffffffff1682600067ffffffffffffffff8111801561293857600080fd5b506040519080825280601f01601f19166020018201604052801561296b5781602001600182028036833780820191505090505b506040518082805190602001908083835b6020831061299f578051825260208201915060208101905060208303925061297c565b6001836020036101000a03801982511681845116808217855250505050505090500191505060006040518083038185875af1925050503d8060008114612a01576040519150601f19603f3d011682016040523d82523d6000602084013e612a06565b606091505b5050905080612a7d576040517f08c379a00000000000000000000000000000000000000000000000000000000081526004018080602001828103825260038152602001807f535445000000000000000000000000000000000000000000000000000000000081525060200191505060405180910390fd5b505050565b600060608473ffffffffffffffffffffffffffffffffffffffff1663a9059cbb60e01b8585604051602401808373ffffffffffffffffffffffffffffffffffffffff16815260200182815260200192505050604051602081830303815290604052907bffffffffffffffffffffffffffffffffffffffffffffffffffffffff19166020820180517bffffffffffffffffffffffffffffffffffffffffffffffffffffffff83818316178352505050506040518082805190602001908083835b60208310612b645780518252602082019150602081019050602083039250612b41565b6001836020036101000a0380198251168184511680821785525050505050509050019150506000604051808303816000865af19150503d8060008114612bc6576040519150601f19603f3d011682016040523d82523d6000602084013e612bcb565b606091505b5091509150818015612c0b5750600081511480612c0a5750808060200190516020811015612bf857600080fd5b81019080805190602001909291905050505b5b612c7d576040517f08c379a00000000000000000000000000000000000000000000000000000000081526004018080602001828103825260028152602001807f535400000000000000000000000000000000000000000000000000000000000081525060200191505060405180910390fd5b5050505050565b600060608573ffffffffffffffffffffffffffffffffffffffff166323b872dd60e01b868686604051602401808473ffffffffffffffffffffffffffffffffffffffff1681526020018373ffffffffffffffffffffffffffffffffffffffff1681526020018281526020019350505050604051602081830303815290604052907bffffffffffffffffffffffffffffffffffffffffffffffffffffffff19166020820180517bffffffffffffffffffffffffffffffffffffffffffffffffffffffff83818316178352505050506040518082805190602001908083835b60208310612d845780518252602082019150602081019050602083039250612d61565b6001836020036101000a0380198251168184511680821785525050505050509050019150506000604051808303816000865af19150503d8060008114612de6576040519150601f19603f3d011682016040523d82523d6000602084013e612deb565b606091505b5091509150818015612e2b5750600081511480612e2a5750808060200190516020811015612e1857600080fd5b81019080805190602001909291905050505b5b612e9d576040517f08c379a00000000000000000000000000000000000000000000000000000000081526004018080602001828103825260038152602001807f535446000000000000000000000000000000000000000000000000000000000081525060200191505060405180910390fd5b505050505050565b6000828284019150811015612eb957600080fd5b92915050565b60008060006fffffffffffffffffffffffffffffffff905060006fffffffffffffffffffffffffffffffff90506000808a73ffffffffffffffffffffffffffffffffffffffff1663a34123a78b8b8b6040518463ffffffff1660e01b8152600401808460020b81526020018360020b8152602001826fffffffffffffffffffffffffffffffff16815260200193505050506040805180830381600087803b158015612f6957600080fd5b505af1158015612f7d573d6000803e3d6000fd5b505050506040513d6040811015612f9357600080fd5b810190808051906020019092919080519060200190929190505050915091503073ffffffffffffffffffffffffffffffffffffffff168773ffffffffffffffffffffffffffffffffffffffff1614612fec578193508092505b8a73ffffffffffffffffffffffffffffffffffffffff16634f1eb3d8888c8c88886040518663ffffffff1660e01b8152600401808673ffffffffffffffffffffffffffffffffffffffff1681526020018560020b81526020018460020b8152602001836fffffffffffffffffffffffffffffffff168152602001826fffffffffffffffffffffffffffffffff168152602001955050505050506040805180830381600087803b15801561309e57600080fd5b505af11580156130b2573d6000803e3d6000fd5b505050506040513d60408110156130c857600080fd5b810190808051906020019092919080519060200190929190505050816fffffffffffffffffffffffffffffffff169150806fffffffffffffffffffffffffffffffff1690508096508197505050505050509550959350505050565b60008573ffffffffffffffffffffffffffffffffffffffff16633850c7bd6040518163ffffffff1660e01b815260040160e06040518083038186803b15801561316b57600080fd5b505afa15801561317f573d6000803e3d6000fd5b505050506040513d60e081101561319557600080fd5b810190808051906020019092919080519060200190929190805190602001909291908051906020019092919080519060200190929190805190602001909291908051906020019092919050505050505050505090506000613209826131f98861380f565b6132028861380f565b8787613c4a565b90506000808873ffffffffffffffffffffffffffffffffffffffff16633c8a7d8d308a8a8730604051602001808273ffffffffffffffffffffffffffffffffffffffff1681526020019150506040516020818303038152906040526040518663ffffffff1660e01b8152600401808673ffffffffffffffffffffffffffffffffffffffff1681526020018560020b81526020018460020b8152602001836fffffffffffffffffffffffffffffffff16815260200180602001828103825283818151815260200191508051906020019080838360005b838110156132f95780820151818401526020810190506132de565b50505050905090810190601f1680156133265780820380516001836020036101000a031916815260200191505b5096505050505050506040805180830381600087803b15801561334857600080fd5b505af115801561335c573d6000803e3d6000fd5b505050506040513d604081101561337257600080fd5b810190808051906020019092919080519060200190929190505050915091508186039550808503945060008611806133aa5750600085115b1561380457600085871190506000808b73ffffffffffffffffffffffffffffffffffffffff1663128acb0830856002876133e4578c6133e6565b8d5b816133ed57fe5b058761341057600173fffd8963efd1fc6a506488495d951d5263988d260361341a565b60016401000276a3015b30604051602001808273ffffffffffffffffffffffffffffffffffffffff1681526020019150506040516020818303038152906040526040518663ffffffff1660e01b8152600401808673ffffffffffffffffffffffffffffffffffffffff16815260200185151581526020018481526020018373ffffffffffffffffffffffffffffffffffffffff16815260200180602001828103825283818151815260200191508051906020019080838360005b838110156134e55780820151818401526020810190506134ca565b50505050905090810190601f1680156135125780820380516001836020036101000a031916815260200191505b5096505050505050506040805180830381600087803b15801561353457600080fd5b505af1158015613548573d6000803e3d6000fd5b505050506040513d604081101561355e57600080fd5b81019080805190602001909291908051906020019092919050505091509150818903985080880397508b73ffffffffffffffffffffffffffffffffffffffff16633850c7bd6040518163ffffffff1660e01b815260040160e06040518083038186803b1580156135cd57600080fd5b505afa1580156135e1573d6000803e3d6000fd5b505050506040513d60e08110156135f757600080fd5b810190808051906020019092919080519060200190929190805190602001909291908051906020019092919080519060200190929190805190602001909291908051906020019092919050505090919293945090919293509091925090915090505080975050600061367c8861366c8e61380f565b6136758e61380f565b8d8d613c4a565b90508c73ffffffffffffffffffffffffffffffffffffffff16633c8a7d8d308e8e8530604051602001808273ffffffffffffffffffffffffffffffffffffffff1681526020019150506040516020818303038152906040526040518663ffffffff1660e01b8152600401808673ffffffffffffffffffffffffffffffffffffffff1681526020018560020b81526020018460020b8152602001836fffffffffffffffffffffffffffffffff16815260200180602001828103825283818151815260200191508051906020019080838360005b8381101561376957808201518184015260208101905061374e565b50505050905090810190601f1680156137965780820380516001836020036101000a031916815260200191505b5096505050505050506040805180830381600087803b1580156137b857600080fd5b505af11580156137cc573d6000803e3d6000fd5b505050506040513d60408110156137e257600080fd5b8101908080519060200190929190805190602001909291905050505050505050505b505050505050505050565b60008060008360020b12613826578260020b61382e565b8260020b6000035b90507ffffffffffffffffffffffffffffffffffffffffffffffffffffffffffff2761860000360020b8111156138cc576040517f08c379a00000000000000000000000000000000000000000000000000000000081526004018080602001828103825260018152602001807f540000000000000000000000000000000000000000000000000000000000000081525060200191505060405180910390fd5b6000806001831614156138f057700100000000000000000000000000000000613902565b6ffffcb933bd6fad37aa2d162d1a5940015b70ffffffffffffffffffffffffffffffffff1690506000600283161461393c5760806ffff97272373d413259a46990580e213a8202901c90505b600060048316146139615760806ffff2e50f5f656932ef12357cf3c7fdcc8202901c90505b600060088316146139865760806fffe5caca7e10e4e61c3624eaa0941cd08202901c90505b600060108316146139ab5760806fffcb9843d60f6159c9db58835c9266448202901c90505b600060208316146139d05760806fff973b41fa98c081472e6896dfb254c08202901c90505b600060408316146139f55760806fff2ea16466c96a3843ec78b326b528618202901c90505b60006080831614613a1a5760806ffe5dee046a99a2a811c461f1969c30538202901c90505b6000610100831614613a405760806ffcbe86c7900a88aedcffc83b479aa3a48202901c90505b6000610200831614613a665760806ff987a7253ac413176f2b074cf7815e548202901c90505b6000610400831614613a8c5760806ff3392b0822b70005940c7a398e4b70f38202901c90505b6000610800831614613ab25760806fe7159475a2c29b7443b29c7fa6e889d98202901c90505b6000611000831614613ad85760806fd097f3bdfd2022b8845ad8f792aa58258202901c90505b6000612000831614613afe5760806fa9f746462d870fdf8a65dc1f90e061e58202901c90505b6000614000831614613b245760806f70d869a156d2a1b890bb3df62baf32f78202901c90505b6000618000831614613b4a5760806f31be135f97d08fd981231505542fcfa68202901c90505b600062010000831614613b715760806f09aa508b5b7a84e1c677de54f3e99bc98202901c90505b600062020000831614613b975760806e5d6af8dedb81196699c329225ee6048202901c90505b600062040000831614613bbc5760806d2216e584f5fa1ea926041bedfe988202901c90505b600062080000831614613bdf5760806b048a170391f7dc42444e8fa28202901c90505b60008460020b1315613c1857807fffffffffffffffffffffffffffffffffffffffffffffffffffffffffffffffff81613c1457fe5b0490505b60006401000000008281613c2857fe5b0614613c35576001613c38565b60005b60ff16602082901c0192505050919050565b60008373ffffffffffffffffffffffffffffffffffffffff168573ffffffffffffffffffffffffffffffffffffffff161115613c8b57838580955081965050505b8473ffffffffffffffffffffffffffffffffffffffff168673ffffffffffffffffffffffffffffffffffffffff161015613cd157613cca858585613d77565b9050613d6e565b8373ffffffffffffffffffffffffffffffffffffffff168673ffffffffffffffffffffffffffffffffffffffff161015613d5f576000613d12878686613d77565b90506000613d21878986613e35565b9050806fffffffffffffffffffffffffffffffff16826fffffffffffffffffffffffffffffffff1610613d545780613d56565b815b92505050613d6d565b613d6a858584613e35565b90505b5b95945050505050565b60008273ffffffffffffffffffffffffffffffffffffffff168473ffffffffffffffffffffffffffffffffffffffff161115613db857828480945081955050505b6000613dfe8573ffffffffffffffffffffffffffffffffffffffff168573ffffffffffffffffffffffffffffffffffffffff166c01000000000000000000000000613eb7565b9050613e2b613e26848388880373ffffffffffffffffffffffffffffffffffffffff16613eb7565b613f91565b9150509392505050565b60008273ffffffffffffffffffffffffffffffffffffffff168473ffffffffffffffffffffffffffffffffffffffff161115613e7657828480945081955050505b613eae613ea9836c0100000000000000000000000087870373ffffffffffffffffffffffffffffffffffffffff16613eb7565b613f91565b90509392505050565b600080600080198587098587029250828110838203039150506000811415613ef25760008411613ee657600080fd5b83820492505050613f8a565b808411613efe57600080fd5b600084868809905082811182039150808303925060008586600003169050808604955080840493506001818260000304019050808302841793506000600287600302189050808702600203810290508087026002038102905080870260020381029050808702600203810290508087026002038102905080870260020381029050808502955050505050505b9392505050565b600081829150816fffffffffffffffffffffffffffffffff1614613fb457600080fd5b91905056fea26469706673582212205d590b22f0b4d7c8d7818b66158355a8a058c54fc9ae2f0005a800b79f04539364736f6c63430007030033a264697066735822122067136981fe9f9ff99e6ac180184476161bbbd63663e86d4c30b23bba7bd0aeb764736f6c63430007030033",
  "devdoc": {
    "kind": "dev",
    "methods": {},
    "version": 1
  },
  "userdoc": {
    "kind": "user",
    "methods": {},
    "version": 1
  },
  "storageLayout": {
    "storage": [
      {
        "astId": 2969,
        "contract": "contracts/MetaPoolFactory.sol:MetaPoolFactory",
        "label": "_token0",
        "offset": 0,
        "slot": "0",
        "type": "t_address"
      },
      {
        "astId": 2971,
        "contract": "contracts/MetaPoolFactory.sol:MetaPoolFactory",
        "label": "_token1",
        "offset": 0,
        "slot": "1",
        "type": "t_address"
      }
    ],
    "types": {
      "t_address": {
        "encoding": "inplace",
        "label": "address",
        "numberOfBytes": "20"
      }
    }
  }
}