{
  "address": "0xAf0C7de1eA9C654355A10Fc3b99A9FFeA4BD928c",
  "abi": [
    {
      "inputs": [
        {
          "internalType": "contract IUniswapV3Pool",
          "name": "_pool",
          "type": "address"
        },
        {
          "internalType": "address payable",
          "name": "_gelato",
          "type": "address"
        }
      ],
      "stateMutability": "nonpayable",
      "type": "constructor"
    },
    {
      "anonymous": false,
      "inputs": [
        {
          "indexed": true,
          "internalType": "address",
          "name": "owner",
          "type": "address"
        },
        {
          "indexed": true,
          "internalType": "address",
          "name": "spender",
          "type": "address"
        },
        {
          "indexed": false,
          "internalType": "uint256",
          "name": "value",
          "type": "uint256"
        }
      ],
      "name": "Approval",
      "type": "event"
    },
    {
      "anonymous": false,
      "inputs": [
        {
          "indexed": false,
          "internalType": "address",
          "name": "burner",
          "type": "address"
        },
        {
          "indexed": false,
          "internalType": "uint256",
          "name": "burnAmount",
          "type": "uint256"
        },
        {
          "indexed": false,
          "internalType": "uint256",
          "name": "amount0Out",
          "type": "uint256"
        },
        {
          "indexed": false,
          "internalType": "uint256",
          "name": "amount1Out",
          "type": "uint256"
        }
      ],
      "name": "Burned",
      "type": "event"
    },
    {
      "anonymous": false,
      "inputs": [
        {
          "indexed": false,
          "internalType": "uint256",
          "name": "supplyCap",
          "type": "uint256"
        },
        {
          "indexed": false,
          "internalType": "uint256",
          "name": "heartbeat",
          "type": "uint256"
        },
        {
          "indexed": false,
          "internalType": "int24",
          "name": "minTickDeviation",
          "type": "int24"
        },
        {
          "indexed": false,
          "internalType": "int24",
          "name": "maxTickDeviation",
          "type": "int24"
        },
        {
          "indexed": false,
          "internalType": "uint32",
          "name": "observationSeconds",
          "type": "uint32"
        },
        {
          "indexed": false,
          "internalType": "uint160",
          "name": "maxSlippagePercentage",
          "type": "uint160"
        }
      ],
      "name": "MetaParamsAdjusted",
      "type": "event"
    },
    {
      "anonymous": false,
      "inputs": [
        {
          "indexed": false,
          "internalType": "address",
          "name": "minter",
          "type": "address"
        },
        {
          "indexed": false,
          "internalType": "uint256",
          "name": "mintAmount",
          "type": "uint256"
        },
        {
          "indexed": false,
          "internalType": "uint256",
          "name": "amount0In",
          "type": "uint256"
        },
        {
          "indexed": false,
          "internalType": "uint256",
          "name": "amount1In",
          "type": "uint256"
        }
      ],
      "name": "Minted",
      "type": "event"
    },
    {
      "anonymous": false,
      "inputs": [
        {
          "indexed": true,
          "internalType": "address",
          "name": "previousOwner",
          "type": "address"
        },
        {
          "indexed": true,
          "internalType": "address",
          "name": "newOwner",
          "type": "address"
        }
      ],
      "name": "OwnershipTransferred",
      "type": "event"
    },
    {
      "anonymous": false,
      "inputs": [
        {
          "indexed": false,
          "internalType": "int24",
          "name": "newLowerTick",
          "type": "int24"
        },
        {
          "indexed": false,
          "internalType": "int24",
          "name": "newUpperTick",
          "type": "int24"
        }
      ],
      "name": "Rebalance",
      "type": "event"
    },
    {
      "anonymous": false,
      "inputs": [
        {
          "indexed": true,
          "internalType": "address",
          "name": "from",
          "type": "address"
        },
        {
          "indexed": true,
          "internalType": "address",
          "name": "to",
          "type": "address"
        },
        {
          "indexed": false,
          "internalType": "uint256",
          "name": "value",
          "type": "uint256"
        }
      ],
      "name": "Transfer",
      "type": "event"
    },
    {
      "inputs": [],
      "name": "DOMAIN_SEPARATOR",
      "outputs": [
        {
          "internalType": "bytes32",
          "name": "",
          "type": "bytes32"
        }
      ],
      "stateMutability": "view",
      "type": "function"
    },
    {
      "inputs": [],
      "name": "GELATO",
      "outputs": [
        {
          "internalType": "address payable",
          "name": "",
          "type": "address"
        }
      ],
      "stateMutability": "view",
      "type": "function"
    },
    {
      "inputs": [
        {
          "internalType": "address",
          "name": "owner",
          "type": "address"
        },
        {
          "internalType": "address",
          "name": "spender",
          "type": "address"
        }
      ],
      "name": "allowance",
      "outputs": [
        {
          "internalType": "uint256",
          "name": "",
          "type": "uint256"
        }
      ],
      "stateMutability": "view",
      "type": "function"
    },
    {
      "inputs": [
        {
          "internalType": "address",
          "name": "spender",
          "type": "address"
        },
        {
          "internalType": "uint256",
          "name": "amount",
          "type": "uint256"
        }
      ],
      "name": "approve",
      "outputs": [
        {
          "internalType": "bool",
          "name": "",
          "type": "bool"
        }
      ],
      "stateMutability": "nonpayable",
      "type": "function"
    },
    {
      "inputs": [
        {
          "internalType": "address",
          "name": "account",
          "type": "address"
        }
      ],
      "name": "balanceOf",
      "outputs": [
        {
          "internalType": "uint256",
          "name": "",
          "type": "uint256"
        }
      ],
      "stateMutability": "view",
      "type": "function"
    },
    {
      "inputs": [
        {
          "internalType": "uint256",
          "name": "_burnAmount",
          "type": "uint256"
        }
      ],
      "name": "burn",
      "outputs": [
        {
          "internalType": "uint256",
          "name": "amount0",
          "type": "uint256"
        },
        {
          "internalType": "uint256",
          "name": "amount1",
          "type": "uint256"
        },
        {
          "internalType": "uint128",
          "name": "liquidityBurned",
          "type": "uint128"
        }
      ],
      "stateMutability": "nonpayable",
      "type": "function"
    },
    {
      "inputs": [],
      "name": "currentLowerTick",
      "outputs": [
        {
          "internalType": "int24",
          "name": "",
          "type": "int24"
        }
      ],
      "stateMutability": "view",
      "type": "function"
    },
    {
      "inputs": [],
      "name": "currentUpperTick",
      "outputs": [
        {
          "internalType": "int24",
          "name": "",
          "type": "int24"
        }
      ],
      "stateMutability": "view",
      "type": "function"
    },
    {
      "inputs": [],
      "name": "decimals",
      "outputs": [
        {
          "internalType": "uint8",
          "name": "",
          "type": "uint8"
        }
      ],
      "stateMutability": "view",
      "type": "function"
    },
    {
      "inputs": [
        {
          "internalType": "address",
          "name": "spender",
          "type": "address"
        },
        {
          "internalType": "uint256",
          "name": "subtractedValue",
          "type": "uint256"
        }
      ],
      "name": "decreaseAllowance",
      "outputs": [
        {
          "internalType": "bool",
          "name": "",
          "type": "bool"
        }
      ],
      "stateMutability": "nonpayable",
      "type": "function"
    },
    {
      "inputs": [],
      "name": "deployer",
      "outputs": [
        {
          "internalType": "address",
          "name": "",
          "type": "address"
        }
      ],
      "stateMutability": "view",
      "type": "function"
    },
    {
      "inputs": [
        {
          "internalType": "uint160",
          "name": "sqrtRatioX96",
          "type": "uint160"
        },
        {
          "internalType": "uint160",
          "name": "sqrtRatioAX96",
          "type": "uint160"
        },
        {
          "internalType": "uint160",
          "name": "sqrtRatioBX96",
          "type": "uint160"
        },
        {
          "internalType": "uint128",
          "name": "liquidity",
          "type": "uint128"
        }
      ],
      "name": "getAmountsForLiquidity",
      "outputs": [
        {
          "internalType": "uint256",
          "name": "amount0",
          "type": "uint256"
        },
        {
          "internalType": "uint256",
          "name": "amount1",
          "type": "uint256"
        }
      ],
      "stateMutability": "pure",
      "type": "function"
    },
    {
      "inputs": [
        {
          "internalType": "uint160",
          "name": "sqrtRatioX96",
          "type": "uint160"
        },
        {
          "internalType": "uint160",
          "name": "sqrtRatioAX96",
          "type": "uint160"
        },
        {
          "internalType": "uint160",
          "name": "sqrtRatioBX96",
          "type": "uint160"
        },
        {
          "internalType": "uint256",
          "name": "amount0",
          "type": "uint256"
        },
        {
          "internalType": "uint256",
          "name": "amount1",
          "type": "uint256"
        }
      ],
      "name": "getLiquidityForAmounts",
      "outputs": [
        {
          "internalType": "uint128",
          "name": "liquidity",
          "type": "uint128"
        }
      ],
      "stateMutability": "pure",
      "type": "function"
    },
    {
      "inputs": [],
      "name": "getPositionID",
      "outputs": [
        {
          "internalType": "bytes32",
          "name": "positionID",
          "type": "bytes32"
        }
      ],
      "stateMutability": "view",
      "type": "function"
    },
    {
      "inputs": [],
      "name": "heartbeat",
      "outputs": [
        {
          "internalType": "uint256",
          "name": "",
          "type": "uint256"
        }
      ],
      "stateMutability": "view",
      "type": "function"
    },
    {
      "inputs": [
        {
          "internalType": "address",
          "name": "spender",
          "type": "address"
        },
        {
          "internalType": "uint256",
          "name": "addedValue",
          "type": "uint256"
        }
      ],
      "name": "increaseAllowance",
      "outputs": [
        {
          "internalType": "bool",
          "name": "",
          "type": "bool"
        }
      ],
      "stateMutability": "nonpayable",
      "type": "function"
    },
    {
      "inputs": [
        {
          "internalType": "uint256",
          "name": "__supplyCap",
          "type": "uint256"
        },
        {
          "internalType": "int24",
          "name": "_lowerTick",
          "type": "int24"
        },
        {
          "internalType": "int24",
          "name": "_upperTick",
          "type": "int24"
        },
        {
          "internalType": "address",
          "name": "_owner_",
          "type": "address"
        }
      ],
      "name": "initialize",
      "outputs": [],
      "stateMutability": "nonpayable",
      "type": "function"
    },
    {
      "inputs": [],
      "name": "lastMintOrBurnTimestamp",
      "outputs": [
        {
          "internalType": "uint256",
          "name": "",
          "type": "uint256"
        }
      ],
      "stateMutability": "view",
      "type": "function"
    },
    {
      "inputs": [],
      "name": "lastRebalanceTimestamp",
      "outputs": [
        {
          "internalType": "uint256",
          "name": "",
          "type": "uint256"
        }
      ],
      "stateMutability": "view",
      "type": "function"
    },
    {
      "inputs": [],
      "name": "maxSlippagePercentage",
      "outputs": [
        {
          "internalType": "uint160",
          "name": "",
          "type": "uint160"
        }
      ],
      "stateMutability": "view",
      "type": "function"
    },
    {
      "inputs": [],
      "name": "maxTickDeviation",
      "outputs": [
        {
          "internalType": "int24",
          "name": "",
          "type": "int24"
        }
      ],
      "stateMutability": "view",
      "type": "function"
    },
    {
      "inputs": [],
      "name": "minTickDeviation",
      "outputs": [
        {
          "internalType": "int24",
          "name": "",
          "type": "int24"
        }
      ],
      "stateMutability": "view",
      "type": "function"
    },
    {
      "inputs": [
        {
          "internalType": "uint128",
          "name": "_newLiquidity",
          "type": "uint128"
        }
      ],
      "name": "mint",
      "outputs": [
        {
          "internalType": "uint256",
          "name": "mintAmount",
          "type": "uint256"
        }
      ],
      "stateMutability": "nonpayable",
      "type": "function"
    },
    {
      "inputs": [],
      "name": "name",
      "outputs": [
        {
          "internalType": "string",
          "name": "",
          "type": "string"
        }
      ],
      "stateMutability": "view",
      "type": "function"
    },
    {
      "inputs": [
        {
          "internalType": "address",
          "name": "owner",
          "type": "address"
        }
      ],
      "name": "nonces",
      "outputs": [
        {
          "internalType": "uint256",
          "name": "",
          "type": "uint256"
        }
      ],
      "stateMutability": "view",
      "type": "function"
    },
    {
      "inputs": [],
      "name": "observationSeconds",
      "outputs": [
        {
          "internalType": "uint32",
          "name": "",
          "type": "uint32"
        }
      ],
      "stateMutability": "view",
      "type": "function"
    },
    {
      "inputs": [],
      "name": "owner",
      "outputs": [
        {
          "internalType": "address",
          "name": "",
          "type": "address"
        }
      ],
      "stateMutability": "view",
      "type": "function"
    },
    {
      "inputs": [
        {
          "internalType": "address",
          "name": "owner",
          "type": "address"
        },
        {
          "internalType": "address",
          "name": "spender",
          "type": "address"
        },
        {
          "internalType": "uint256",
          "name": "value",
          "type": "uint256"
        },
        {
          "internalType": "uint256",
          "name": "deadline",
          "type": "uint256"
        },
        {
          "internalType": "uint8",
          "name": "v",
          "type": "uint8"
        },
        {
          "internalType": "bytes32",
          "name": "r",
          "type": "bytes32"
        },
        {
          "internalType": "bytes32",
          "name": "s",
          "type": "bytes32"
        }
      ],
      "name": "permit",
      "outputs": [],
      "stateMutability": "nonpayable",
      "type": "function"
    },
    {
      "inputs": [],
      "name": "pool",
      "outputs": [
        {
          "internalType": "contract IUniswapV3Pool",
          "name": "",
          "type": "address"
        }
      ],
      "stateMutability": "view",
      "type": "function"
    },
    {
      "inputs": [
        {
          "internalType": "int24",
          "name": "_newLowerTick",
          "type": "int24"
        },
        {
          "internalType": "int24",
          "name": "_newUpperTick",
          "type": "int24"
        },
        {
          "internalType": "uint160",
          "name": "_swapThresholdPrice",
          "type": "uint160"
        },
        {
          "internalType": "uint256",
          "name": "_swapAmountBPS",
          "type": "uint256"
        },
        {
          "internalType": "uint256",
          "name": "_feeAmount",
          "type": "uint256"
        },
        {
          "internalType": "address",
          "name": "_paymentToken",
          "type": "address"
        }
      ],
      "name": "rebalance",
      "outputs": [],
      "stateMutability": "nonpayable",
      "type": "function"
    },
    {
      "inputs": [],
      "name": "renounceOwnership",
      "outputs": [],
      "stateMutability": "nonpayable",
      "type": "function"
    },
    {
      "inputs": [],
      "name": "supplyCap",
      "outputs": [
        {
          "internalType": "uint256",
          "name": "",
          "type": "uint256"
        }
      ],
      "stateMutability": "view",
      "type": "function"
    },
    {
      "inputs": [],
      "name": "symbol",
      "outputs": [
        {
          "internalType": "string",
          "name": "",
          "type": "string"
        }
      ],
      "stateMutability": "view",
      "type": "function"
    },
    {
      "inputs": [],
      "name": "token0",
      "outputs": [
        {
          "internalType": "contract IERC20",
          "name": "",
          "type": "address"
        }
      ],
      "stateMutability": "view",
      "type": "function"
    },
    {
      "inputs": [],
      "name": "token1",
      "outputs": [
        {
          "internalType": "contract IERC20",
          "name": "",
          "type": "address"
        }
      ],
      "stateMutability": "view",
      "type": "function"
    },
    {
      "inputs": [],
      "name": "totalSupply",
      "outputs": [
        {
          "internalType": "uint256",
          "name": "",
          "type": "uint256"
        }
      ],
      "stateMutability": "view",
      "type": "function"
    },
    {
      "inputs": [
        {
          "internalType": "address",
          "name": "recipient",
          "type": "address"
        },
        {
          "internalType": "uint256",
          "name": "amount",
          "type": "uint256"
        }
      ],
      "name": "transfer",
      "outputs": [
        {
          "internalType": "bool",
          "name": "",
          "type": "bool"
        }
      ],
      "stateMutability": "nonpayable",
      "type": "function"
    },
    {
      "inputs": [
        {
          "internalType": "address",
          "name": "sender",
          "type": "address"
        },
        {
          "internalType": "address",
          "name": "recipient",
          "type": "address"
        },
        {
          "internalType": "uint256",
          "name": "amount",
          "type": "uint256"
        }
      ],
      "name": "transferFrom",
      "outputs": [
        {
          "internalType": "bool",
          "name": "",
          "type": "bool"
        }
      ],
      "stateMutability": "nonpayable",
      "type": "function"
    },
    {
      "inputs": [
        {
          "internalType": "address",
          "name": "newOwner",
          "type": "address"
        }
      ],
      "name": "transferOwnership",
      "outputs": [],
      "stateMutability": "nonpayable",
      "type": "function"
    },
    {
      "inputs": [
        {
          "internalType": "uint256",
          "name": "_amount0Owed",
          "type": "uint256"
        },
        {
          "internalType": "uint256",
          "name": "_amount1Owed",
          "type": "uint256"
        },
        {
          "internalType": "bytes",
          "name": "_data",
          "type": "bytes"
        }
      ],
      "name": "uniswapV3MintCallback",
      "outputs": [],
      "stateMutability": "nonpayable",
      "type": "function"
    },
    {
      "inputs": [
        {
          "internalType": "int256",
          "name": "amount0Delta",
          "type": "int256"
        },
        {
          "internalType": "int256",
          "name": "amount1Delta",
          "type": "int256"
        },
        {
          "internalType": "bytes",
          "name": "",
          "type": "bytes"
        }
      ],
      "name": "uniswapV3SwapCallback",
      "outputs": [],
      "stateMutability": "nonpayable",
      "type": "function"
    },
    {
      "inputs": [
        {
          "internalType": "uint256",
          "name": "__supplyCap",
          "type": "uint256"
        },
        {
          "internalType": "uint256",
          "name": "__heartbeat",
          "type": "uint256"
        },
        {
          "internalType": "int24",
          "name": "__minTickDeviation",
          "type": "int24"
        },
        {
          "internalType": "int24",
          "name": "__maxTickDeviation",
          "type": "int24"
        },
        {
          "internalType": "uint32",
          "name": "__observationSeconds",
          "type": "uint32"
        },
        {
          "internalType": "uint160",
          "name": "__maxSlippagePercentage",
          "type": "uint160"
        }
      ],
      "name": "updateMetaParams",
      "outputs": [],
      "stateMutability": "nonpayable",
      "type": "function"
    }
  ],
  "transactionHash": "0xeb21a360e7d365ad1102f3f841240a8f6c7b1a2805c9988cd2a2fc0121e5e4fd",
  "args": [
    "0xC2e9F25Be6257c210d7Adf0D4Cd6E3E881ba25f8",
    "0x3CACa7b48D0573D793d3b0279b5F0029180E83b6"
  ],
  "solcInputHash": "95c2c99265364282bd5c6944756b58c5",
  "bytecode": "0x6101e06040527f6e71edae12b1b97f4d1f60370fef10105fa2faae0126114a169c64845d6126c9610120523480156200003757600080fd5b50604051620052fa380380620052fa8339810160408190526200005a91620003a5565b8181806040518060400160405280601d81526020017f47656c61746f20556e697377617020563320574554482f444149204c5000000081525080604051806040016040528060018152602001603160f81b81525060405180602001604052806000815250604051806020016040528060008152508160039080519060200190620000e6929190620002d9565b508051620000fc906004906020840190620002d9565b5050825160209384012082519284019290922060c083815260e08290524660a0818152604080517f8b73c3c69bb8fe3d512ecc4cf759cc79239f7b179b0ffacaa9a75d522b39400f818a0181905281830198909852606080820196909652608080820194909452308184015281518082039093018352938401808252825192890192909220909252610100959095526001600160601b031997831b881661014052600160075533831b610160529189901b90961661018052630dfe168160e01b90925250516001600160a01b03861693630dfe1681935060c4808201939291829003018186803b158015620001f057600080fd5b505afa15801562000205573d6000803e3d6000fd5b505050506040513d601f19601f820116820180604052508101906200022b91906200037f565b6001600160a01b03166101a0816001600160a01b031660601b81525050816001600160a01b031663d21220a76040518163ffffffff1660e01b815260040160206040518083038186803b1580156200028257600080fd5b505afa15801562000297573d6000803e3d6000fd5b505050506040513d601f19601f82011682018060405250810190620002bd91906200037f565b60601b6001600160601b0319166101c052506200043992505050565b828054620002e790620003e3565b90600052602060002090601f0160209004810192826200030b576000855562000356565b82601f106200032657805160ff191683800117855562000356565b8280016001018555821562000356579182015b828111156200035657825182559160200191906001019062000339565b506200036492915062000368565b5090565b5b8082111562000364576000815560010162000369565b60006020828403121562000391578081fd5b81516200039e8162000420565b9392505050565b60008060408385031215620003b8578081fd5b8251620003c58162000420565b6020840151909250620003d88162000420565b809150509250929050565b600181811c90821680620003f857607f821691505b602082108114156200041a57634e487b7160e01b600052602260045260246000fd5b50919050565b6001600160a01b03811681146200043657600080fd5b50565b60805160a05160c05160e05161010051610120516101405160601c6101605160601c6101805160601c6101a05160601c6101c05160601c614d1a620005e06000396000818161056101528181610ba701528181610c4a01528181611127015281816111f20152818161176a015281816117e401528181611c84015281816128a2015261296b0152600081816102d601528181610abb01528181610b5e0152818161101c015281816110e701528181611730015281816117a901528181611c42015281816127fd01526129200152600081816103150152818161082d01528181610959015281816109fc01528181610eba0152818161122f015281816116d201528181611c020152818161271d015281816129bb0152818161307c01528181613118015281816131b10152818161328901528181613a6a01528181613cc401528181613db60152613e690152600081816105ae0152611596015260008181610634015281816119a501528181611a940152611ace0152600061186001526000612004015260006120530152600061202e01526000611fb201526000611fdb0152614d1a6000f3fe608060405234801561001057600080fd5b506004361061025e5760003560e01c80637ecebe0011610146578063d3487997116100c3578063e3fbf2f811610087578063e3fbf2f814610611578063e5475ae714610624578063eff557a71461062f578063f2fde38b14610656578063fa2c6d7c14610669578063fa461e331461068e57600080fd5b8063d348799714610583578063d505accf14610596578063d5f39488146105a9578063dd62ed3e146105d0578063df28408a1461060957600080fd5b8063a9059cbb1161010a578063a9059cbb14610506578063b74f271314610519578063b83d81571461052c578063c72e160b14610534578063d21220a71461055c57600080fd5b80637ecebe00146104a75780638da5cb5b146104ba5780638f770ad0146104cb57806395d89b41146104d3578063a457c2d7146104f357600080fd5b80633defb962116101df578063696c58e5116101a3578063696c58e51461042457806369822d911461043657806369d3e20e1461044b5780636a3089f61461045e57806370a0823114610476578063715018a61461049f57600080fd5b80633defb962146103a757806342966c68146103af5780634b41d7d8146103e65780634f5e2635146103f15780636098fd4a146103f957600080fd5b80631f6697c6116102265780631f6697c61461034957806323b872dd1461036a578063313ce5671461037d5780633644e5151461038c578063395093511461039457600080fd5b806306fdde0314610263578063095ea7b3146102ae5780630dfe1681146102d157806316f0115b1461031057806318160ddd14610337575b600080fd5b60408051808201909152601d81527f47656c61746f20556e697377617020563320574554482f444149204c5000000060208201525b6040516102a5919061489d565b60405180910390f35b6102c16102bc366004614292565b6106a1565b60405190151581526020016102a5565b6102f87f000000000000000000000000000000000000000000000000000000000000000081565b6040516001600160a01b0390911681526020016102a5565b6102f87f000000000000000000000000000000000000000000000000000000000000000081565b6002545b6040519081526020016102a5565b600b546301000000900460020b5b60405160029190910b81526020016102a5565b6102c16103783660046141e2565b6106b7565b604051601281526020016102a5565b61033b61076f565b6102c16103a2366004614292565b61077e565b60095461033b565b6103c26103bd366004614671565b6107b5565b6040805193845260208401929092526001600160801b0316908201526060016102a5565b600a5460020b610357565b600d5461033b565b61040c610407366004614617565b610ce7565b6040516001600160801b0390911681526020016102a5565b600a546301000000900460020b610357565b6104496104443660046146e8565b610d02565b005b61033b610459366004614485565b610e49565b600a54600160501b90046001600160a01b03166102f8565b61033b61048436600461418e565b6001600160a01b031660009081526020819052604090205490565b610449611391565b61033b6104b536600461418e565b611414565b6006546001600160a01b03166102f8565b60085461033b565b60408051808201909152600481526367554e4960e01b6020820152610298565b6102c1610501366004614292565b611434565b6102c1610514366004614292565b6114cf565b6104496105273660046146a1565b6114dc565b600c5461033b565b6105476105423660046145bc565b6116aa565b604080519283526020830191909152016102a5565b6102f87f000000000000000000000000000000000000000000000000000000000000000081565b610449610591366004614434565b6116c7565b6104496105a4366004614222565b61180c565b6102f87f000000000000000000000000000000000000000000000000000000000000000081565b61033b6105de3660046141aa565b6001600160a01b03918216600090815260016020908152604080832093909416825291909152205490565b61033b61198e565b61044961061f3660046143a2565b611998565b600b5460020b610357565b6102f87f000000000000000000000000000000000000000000000000000000000000000081565b61044961066436600461418e565b611afd565b600a54600160301b900463ffffffff1660405163ffffffff90911681526020016102a5565b61044961069c366004614434565b611bf7565b60006106ae338484611cb1565b50600192915050565b60006106c4848484611dd6565b6001600160a01b03841660009081526001602090815260408083203384529091529020548281101561074e5760405162461bcd60e51b815260206004820152602860248201527f45524332303a207472616e7366657220616d6f756e74206578636565647320616044820152676c6c6f77616e636560c01b60648201526084015b60405180910390fd5b610762853361075d8685614bc5565b611cb1565b60019150505b9392505050565b6000610779611fae565b905090565b3360008181526001602090815260408083206001600160a01b038716845290915281205490916106ae91859061075d9086906149f4565b60008060006002600754141561080d5760405162461bcd60e51b815260206004820152601f60248201527f5265656e7472616e637947756172643a207265656e7472616e742063616c6c006044820152606401610745565b60026007558361081c57600080fd5b600061082760025490565b905060007f00000000000000000000000000000000000000000000000000000000000000006001600160a01b031663514ea4bf6108626120a1565b6040518263ffffffff1660e01b815260040161088091815260200190565b60a06040518083038186803b15801561089857600080fd5b505afa1580156108ac573d6000803e3d6000fd5b505050506040513d601f19601f820116820180604052508101906108d091906144cf565b5050505090506108e03387612105565b6000826108f66001600160801b03841689614ab3565b6109009190614a70565b90506001600160801b03811061091557600080fd5b600b5460405163a34123a760e01b8152600282810b810b60048301526301000000909204820b90910b60248201526001600160801b038216604482015290935083907f00000000000000000000000000000000000000000000000000000000000000006001600160a01b03169063a34123a7906064016040805180830381600087803b1580156109a457600080fd5b505af11580156109b8573d6000803e3d6000fd5b505050506040513d601f19601f820116820180604052508101906109dc9190614411565b600b546040516309e3d67b60e31b81529298509096506001600160a01b037f00000000000000000000000000000000000000000000000000000000000000001691634f1eb3d891610a46913391600281810b926301000000909204900b908c908c90600401614816565b6040805180830381600087803b158015610a5f57600080fd5b505af1158015610a73573d6000803e3d6000fd5b505050506040513d601f19601f82011682018060405250810190610a9791906144a1565b50506040516370a0823160e01b815230600482015260009084906001600160a01b037f000000000000000000000000000000000000000000000000000000000000000016906370a082319060240160206040518083038186803b158015610afd57600080fd5b505afa158015610b11573d6000803e3d6000fd5b505050506040513d601f19601f82011682018060405250810190610b359190614689565b610b3f908a614ab3565b610b499190614a70565b90508015610b8557610b856001600160a01b037f0000000000000000000000000000000000000000000000000000000000000000163383612254565b6040516370a0823160e01b815230600482015260009085906001600160a01b037f000000000000000000000000000000000000000000000000000000000000000016906370a082319060240160206040518083038186803b158015610be957600080fd5b505afa158015610bfd573d6000803e3d6000fd5b505050506040513d601f19601f82011682018060405250810190610c219190614689565b610c2b908b614ab3565b610c359190614a70565b90508015610c7157610c716001600160a01b037f0000000000000000000000000000000000000000000000000000000000000000163383612254565b610c7b82896149f4565b9750610c8781886149f4565b60408051338152602081018c90529081018a9052606081018290529097507f4c60206a5c1de41f3376d1d60f0949d96cb682033c90b1c2d9d9a62d4c4120c09060800160405180910390a1505042600d5550506001600755509193909250565b6000610cf686868686866122bc565b90505b95945050505050565b33610d156006546001600160a01b031690565b6001600160a01b031614610d3b5760405162461bcd60e51b8152600401610745906148f9565b60088690556009859055600a80546001600160a01b038316600160501b027fffff0000000000000000000000000000000000000000ffffffffffffffffffff63ffffffff8616600160301b02166601000000000000600160f01b0319600288810b62ffffff90811663010000000265ffffffffffff19909616918b900b16179390931792909216919091171790556040517f37bc6b2ab5c732be3097b0ac7f897954fde4420fdcf9de71f8df467c9a907f3890610e39908890889088908890889088909586526020860194909452600292830b6040860152910b606084015263ffffffff1660808301526001600160a01b031660a082015260c00190565b60405180910390a1505050505050565b600060026007541415610e9e5760405162461bcd60e51b815260206004820152601f60248201527f5265656e7472616e637947756172643a207265656e7472616e742063616c6c006044820152606401610745565b60026007556001600160801b038216610eb657600080fd5b60007f00000000000000000000000000000000000000000000000000000000000000006001600160a01b031663514ea4bf610eef6120a1565b6040518263ffffffff1660e01b8152600401610f0d91815260200190565b60a06040518083038186803b158015610f2557600080fd5b505afa158015610f39573d6000803e3d6000fd5b505050506040513d601f19601f82011682018060405250810190610f5d91906144cf565b5050505090506000610f6e60025490565b90508015610f9c5780610f8d6001600160801b03808516908716614ab3565b610f979190614a70565b610fa7565b836001600160801b03165b9250610fb383826149f4565b60085410156110045760405162461bcd60e51b815260206004820181905260248201527f47656c61746f556e695633506f6f6c2e6d696e743a205f737570706c794361706044820152606401610745565b6040516370a0823160e01b81523060048201526000907f00000000000000000000000000000000000000000000000000000000000000006001600160a01b0316906370a082319060240160206040518083038186803b15801561106657600080fd5b505afa15801561107a573d6000803e3d6000fd5b505050506040513d601f19601f8201168201806040525081019061109e9190614689565b9050600081156110d457836001600160801b031682876001600160801b03166110c79190614ab3565b6110d19190614a70565b90505b801561110f5761110f6001600160a01b037f000000000000000000000000000000000000000000000000000000000000000016333084612375565b6040516370a0823160e01b81523060048201526000907f00000000000000000000000000000000000000000000000000000000000000006001600160a01b0316906370a082319060240160206040518083038186803b15801561117157600080fd5b505afa158015611185573d6000803e3d6000fd5b505050506040513d601f19601f820116820180604052508101906111a99190614689565b9050600081156111df57856001600160801b031682896001600160801b03166111d29190614ab3565b6111dc9190614a70565b90505b801561121a5761121a6001600160a01b037f000000000000000000000000000000000000000000000000000000000000000016333084612375565b600b5460405160009182916001600160a01b037f00000000000000000000000000000000000000000000000000000000000000001691633c8a7d8d913091600281810b926301000000909204900b908f906112889033906020016001600160a01b0391909116815260200190565b6040516020818303038152906040526040518663ffffffff1660e01b81526004016112b79594939291906147d4565b6040805180830381600087803b1580156112d057600080fd5b505af11580156112e4573d6000803e3d6000fd5b505050506040513d601f19601f820116820180604052508101906113089190614411565b91509150611316338a6123ad565b7f5a3358a3d27a5373c0df2604662088d37894d56b7cfd27f315770440f4e0d919338a61134388866149f4565b61134d87866149f4565b604080516001600160a01b039095168552602085019390935291830152606082015260800160405180910390a1505042600d55505060016007555092949350505050565b336113a46006546001600160a01b031690565b6001600160a01b0316146113ca5760405162461bcd60e51b8152600401610745906148f9565b6006546040516000916001600160a01b0316907f8be0079c531659141344cd1fd0a4f28419497f9722a3daafe3b4186f6b6457e0908390a3600680546001600160a01b0319169055565b6001600160a01b0381166000908152600560205260408120545b92915050565b3360009081526001602090815260408083206001600160a01b0386168452909152812054828110156114b65760405162461bcd60e51b815260206004820152602560248201527f45524332303a2064656372656173656420616c6c6f77616e63652062656c6f77604482015264207a65726f60d81b6064820152608401610745565b6114c5338561075d8685614bc5565b5060019392505050565b60006106ae338484611dd6565b600654600160a81b900460ff16806114fe5750600654600160a01b900460ff16155b6115615760405162461bcd60e51b815260206004820152602e60248201527f496e697469616c697a61626c653a20636f6e747261637420697320616c72656160448201526d191e481a5b9a5d1a585b1a5e995960921b6064820152608401610745565b600654600160a81b900460ff1615801561158b576006805461ffff60a01b191661010160a01b1790555b336001600160a01b037f0000000000000000000000000000000000000000000000000000000000000000161461161c5760405162461bcd60e51b815260206004820152603060248201527f47656c61746f556e695633506f6f6c53746f726167652e696e697469616c697a60448201526f329d1037b7363c903232b83637bcb2b960811b6064820152608401610745565b600885905562015180600955600a80546a050000012c001b580000786001600160f01b0319909116179055600b8054600285810b62ffffff90811663010000000265ffffffffffff19939093169188900b1617179055600680546001600160a01b0384166001600160a01b031990911617905580156116a3576006805460ff60a81b191690555b5050505050565b6000806116b98686868661248c565b915091505b94509492505050565b336001600160a01b037f000000000000000000000000000000000000000000000000000000000000000016146116fc57600080fd5b600061170a8284018461418e565b90506001600160a01b038116301415611796578415611757576117576001600160a01b037f0000000000000000000000000000000000000000000000000000000000000000163387612254565b8315611791576117916001600160a01b037f0000000000000000000000000000000000000000000000000000000000000000163386612254565b6116a3565b84156117d1576117d16001600160a01b037f000000000000000000000000000000000000000000000000000000000000000016823388612375565b83156116a3576116a36001600160a01b037f000000000000000000000000000000000000000000000000000000000000000016823387612375565b8342111561185c5760405162461bcd60e51b815260206004820152601d60248201527f45524332305065726d69743a206578706972656420646561646c696e650000006044820152606401610745565b60007f00000000000000000000000000000000000000000000000000000000000000008888886118a98c6001600160a01b0316600090815260056020526040902080546001810190915590565b6040805160208101969096526001600160a01b0394851690860152929091166060840152608083015260a082015260c0810186905260e001604051602081830303815290604052805190602001209050600061190482612528565b9050600061191482878787612576565b9050896001600160a01b0316816001600160a01b0316146119775760405162461bcd60e51b815260206004820152601e60248201527f45524332305065726d69743a20696e76616c6964207369676e617475726500006044820152606401610745565b6119828a8a8a611cb1565b50505050505050505050565b60006107796120a1565b8181336001600160a01b037f00000000000000000000000000000000000000000000000000000000000000001614611a125760405162461bcd60e51b815260206004820152601760248201527f47656c61746f666965643a204f6e6c792067656c61746f0000000000000000006044820152606401610745565b611a20888888888888612716565b42600c556040805160028a810b825289900b60208201527fa40d93a72f8af7b904f2e4a60095955bfcaa3c724969f731bd8bc1fda226a171910160405180910390a16001600160a01b03811673eeeeeeeeeeeeeeeeeeeeeeeeeeeeeeeeeeeeeeee1415611abf57611aba6001600160a01b037f00000000000000000000000000000000000000000000000000000000000000001683612cfc565b611af3565b611af36001600160a01b0382167f000000000000000000000000000000000000000000000000000000000000000084612254565b5050505050505050565b33611b106006546001600160a01b031690565b6001600160a01b031614611b365760405162461bcd60e51b8152600401610745906148f9565b6001600160a01b038116611b9b5760405162461bcd60e51b815260206004820152602660248201527f4f776e61626c653a206e6577206f776e657220697320746865207a65726f206160448201526564647265737360d01b6064820152608401610745565b6006546040516001600160a01b038084169216907f8be0079c531659141344cd1fd0a4f28419497f9722a3daafe3b4186f6b6457e090600090a3600680546001600160a01b0319166001600160a01b0392909216919091179055565b336001600160a01b037f00000000000000000000000000000000000000000000000000000000000000001614611c2c57600080fd5b6000841315611c6e57611c696001600160a01b037f0000000000000000000000000000000000000000000000000000000000000000163386612254565b611cab565b6000831315611cab57611cab6001600160a01b037f0000000000000000000000000000000000000000000000000000000000000000163385612254565b50505050565b6001600160a01b038316611d135760405162461bcd60e51b8152602060048201526024808201527f45524332303a20617070726f76652066726f6d20746865207a65726f206164646044820152637265737360e01b6064820152608401610745565b6001600160a01b038216611d745760405162461bcd60e51b815260206004820152602260248201527f45524332303a20617070726f766520746f20746865207a65726f206164647265604482015261737360f01b6064820152608401610745565b6001600160a01b0383811660008181526001602090815260408083209487168084529482529182902085905590518481527f8c5be1e5ebec7d5bd14f71427d1e84f3dd0314c0f7b2291e5b200ac8c7c3b92591015b60405180910390a3505050565b6001600160a01b038316611e3a5760405162461bcd60e51b815260206004820152602560248201527f45524332303a207472616e736665722066726f6d20746865207a65726f206164604482015264647265737360d81b6064820152608401610745565b6001600160a01b038216611e9c5760405162461bcd60e51b815260206004820152602360248201527f45524332303a207472616e7366657220746f20746865207a65726f206164647260448201526265737360e81b6064820152608401610745565b6001600160a01b03831660009081526020819052604090205481811015611f145760405162461bcd60e51b815260206004820152602660248201527f45524332303a207472616e7366657220616d6f756e7420657863656564732062604482015265616c616e636560d01b6064820152608401610745565b611f1e8282614bc5565b6001600160a01b038086166000908152602081905260408082209390935590851681529081208054849290611f549084906149f4565b92505081905550826001600160a01b0316846001600160a01b03167fddf252ad1be2c89b69c2b068fc378daa952ba7f163c4a11628f55a4df523b3ef84604051611fa091815260200190565b60405180910390a350505050565b60007f0000000000000000000000000000000000000000000000000000000000000000461415611ffd57507f000000000000000000000000000000000000000000000000000000000000000090565b50604080517f00000000000000000000000000000000000000000000000000000000000000006020808301919091527f0000000000000000000000000000000000000000000000000000000000000000828401527f000000000000000000000000000000000000000000000000000000000000000060608301524660808301523060a0808401919091528351808403909101815260c0909201909252805191012090565b600b546040516bffffffffffffffffffffffff193060601b166020820152600282810b810b60e890811b60348401526301000000909304810b900b90911b6037820152600090603a0160405160208183030381529060405280519060200120905090565b6001600160a01b0382166121655760405162461bcd60e51b815260206004820152602160248201527f45524332303a206275726e2066726f6d20746865207a65726f206164647265736044820152607360f81b6064820152608401610745565b6001600160a01b038216600090815260208190526040902054818110156121d95760405162461bcd60e51b815260206004820152602260248201527f45524332303a206275726e20616d6f756e7420657863656564732062616c616e604482015261636560f01b6064820152608401610745565b6121e38282614bc5565b6001600160a01b03841660009081526020819052604081209190915560028054849290612211908490614bc5565b90915550506040518281526000906001600160a01b038516907fddf252ad1be2c89b69c2b068fc378daa952ba7f163c4a11628f55a4df523b3ef90602001611dc9565b6040516001600160a01b0383166024820152604481018290526122b790849063a9059cbb60e01b906064015b60408051601f198184030181529190526020810180516001600160e01b03166001600160e01b031990931692909217909152612e15565b505050565b6000836001600160a01b0316856001600160a01b031611156122dc579293925b846001600160a01b0316866001600160a01b0316101561230857612301858585612ee7565b9050610cf9565b836001600160a01b0316866001600160a01b0316101561236a57600061232f878686612ee7565b9050600061233e878986612f51565b9050806001600160801b0316826001600160801b03161061235f5780612361565b815b92505050610cf9565b610cf6858584612f51565b6040516001600160a01b0380851660248301528316604482015260648101829052611cab9085906323b872dd60e01b90608401612280565b6001600160a01b0382166124035760405162461bcd60e51b815260206004820152601f60248201527f45524332303a206d696e7420746f20746865207a65726f2061646472657373006044820152606401610745565b806002600082825461241591906149f4565b90915550506001600160a01b038216600090815260208190526040812080548392906124429084906149f4565b90915550506040518181526001600160a01b038316906000907fddf252ad1be2c89b69c2b068fc378daa952ba7f163c4a11628f55a4df523b3ef9060200160405180910390a35050565b600080836001600160a01b0316856001600160a01b031611156124ad579293925b846001600160a01b0316866001600160a01b031610156124d9576124d2858585612f8f565b91506116be565b836001600160a01b0316866001600160a01b03161015612512576124fe868585612f8f565b915061250b858785613002565b90506116be565b61251d858585613002565b905094509492505050565b600061142e612535611fae565b8360405161190160f01b6020820152602281018390526042810182905260009060620160405160208183030381529060405280519060200120905092915050565b60007f7fffffffffffffffffffffffffffffff5d576e7357a4501ddfe92f46681b20a08211156125f35760405162461bcd60e51b815260206004820152602260248201527f45434453413a20696e76616c6964207369676e6174757265202773272076616c604482015261756560f01b6064820152608401610745565b8360ff16601b148061260857508360ff16601c145b61265f5760405162461bcd60e51b815260206004820152602260248201527f45434453413a20696e76616c6964207369676e6174757265202776272076616c604482015261756560f01b6064820152608401610745565b6040805160008082526020820180845288905260ff871692820192909252606081018590526080810184905260019060a0016020604051602081039080840390855afa1580156126b3573d6000803e3d6000fd5b5050604051601f1901519150506001600160a01b038116610cf95760405162461bcd60e51b815260206004820152601860248201527f45434453413a20696e76616c6964207369676e617475726500000000000000006044820152606401610745565b60008060007f00000000000000000000000000000000000000000000000000000000000000006001600160a01b031663514ea4bf6127526120a1565b6040518263ffffffff1660e01b815260040161277091815260200190565b60a06040518083038186803b15801561278857600080fd5b505afa15801561279c573d6000803e3d6000fd5b505050506040513d601f19601f820116820180604052508101906127c091906144cf565b5050600b549293506127e592600281810b93506301000000909104900b90508361304c565b6040516370a0823160e01b81523060048201526000907f00000000000000000000000000000000000000000000000000000000000000006001600160a01b0316906370a082319060240160206040518083038186803b15801561284757600080fd5b505afa15801561285b573d6000803e3d6000fd5b505050506040513d601f19601f8201168201806040525081019061287f9190614689565b6040516370a0823160e01b81523060048201529091506000906001600160a01b037f000000000000000000000000000000000000000000000000000000000000000016906370a082319060240160206040518083038186803b1580156128e457600080fd5b505afa1580156128f8573d6000803e3d6000fd5b505050506040513d601f19601f8201168201806040525081019061291c9190614689565b90507f00000000000000000000000000000000000000000000000000000000000000006001600160a01b0316866001600160a01b03161461295d5781612967565b6129678783614bc5565b94507f00000000000000000000000000000000000000000000000000000000000000006001600160a01b0316866001600160a01b0316146129a857806129b2565b6129b28782614bc5565b935050505060007f00000000000000000000000000000000000000000000000000000000000000006001600160a01b0316633850c7bd6040518163ffffffff1660e01b815260040160e06040518083038186803b158015612a1257600080fd5b505afa158015612a26573d6000803e3d6000fd5b505050506040513d601f19601f82011682018060405250810190612a4a9190614530565b5050505050915050600954600c54612a6291906149f4565b421015612b1957600b5463010000009004600290810b810b9082900b1380612a955750600b54600290810b810b9082900b125b612b195760405162461bcd60e51b815260206004820152604960248201527f47656c61746f556e695633506f6f6c2e5f61646a75737443757272656e74506f60448201527f6f6c3a207072696365207374696c6c20696e2072616e676520616e64206e6f206064820152681a19585c9d1899585d60ba1b608482015260a401610745565b600a54612b299060020b82614ad2565b60020b8960020b13158015612b5a5750600a54612b50906301000000900460020b82614ad2565b60020b8960020b12155b612bcc5760405162461bcd60e51b815260206004820152603a60248201527f47656c61746f556e695633506f6f6c2e5f61646a75737443757272656e74506f60448201527f6f6c3a206c6f7765725469636b206f7574206f662072616e67650000000000006064820152608401610745565b600a54612be3906301000000900460020b82614983565b60020b8860020b13158015612c0d5750600a54612c039060020b82614983565b60020b8860020b12155b612c7f5760405162461bcd60e51b815260206004820152603a60248201527f47656c61746f556e695633506f6f6c2e5f61646a75737443757272656e74506f60448201527f6f6c3a2075707065725469636b206f7574206f662072616e67650000000000006064820152608401610745565b600b5460028a810b91810b900b14612ca957600b805462ffffff191662ffffff60028c900b161790555b600b54600289810b6301000000909204810b900b14612ce357600b805465ffffff0000001916630100000062ffffff60028c900b16021790555b612cf1898985858b8b6131ad565b505050505050505050565b80471015612d4c5760405162461bcd60e51b815260206004820152601d60248201527f416464726573733a20696e73756666696369656e742062616c616e63650000006044820152606401610745565b6000826001600160a01b03168260405160006040518083038185875af1925050503d8060008114612d99576040519150601f19603f3d011682016040523d82523d6000602084013e612d9e565b606091505b50509050806122b75760405162461bcd60e51b815260206004820152603a60248201527f416464726573733a20756e61626c6520746f2073656e642076616c75652c207260448201527f6563697069656e74206d617920686176652072657665727465640000000000006064820152608401610745565b6000612e6a826040518060400160405280602081526020017f5361666545524332303a206c6f772d6c6576656c2063616c6c206661696c6564815250856001600160a01b03166133e59092919063ffffffff16565b8051909150156122b75780806020019051810190612e889190614388565b6122b75760405162461bcd60e51b815260206004820152602a60248201527f5361666545524332303a204552433230206f7065726174696f6e20646964206e6044820152691bdd081cdd58d8d9595960b21b6064820152608401610745565b6000826001600160a01b0316846001600160a01b03161115612f07579192915b6000612f2a856001600160a01b0316856001600160a01b0316600160601b6133f4565b9050610cf9612f4c8483612f3e8989614b9d565b6001600160a01b03166133f4565b613579565b6000826001600160a01b0316846001600160a01b03161115612f71579192915b612f87612f4c83600160601b612f3e8888614b9d565b949350505050565b6000826001600160a01b0316846001600160a01b03161115612faf579192915b6001600160a01b038416612ff86fffffffffffffffffffffffffffffffff60601b606085901b16612fe08787614b9d565b6001600160a01b0316866001600160a01b03166133f4565b612f879190614a70565b6000826001600160a01b0316846001600160a01b03161115613022579192915b612f876001600160801b0383166130398686614b9d565b6001600160a01b0316600160601b6133f4565b60405163a34123a760e01b8152600284810b600483015283900b60248201526001600160801b03821660448201527f00000000000000000000000000000000000000000000000000000000000000006001600160a01b03169063a34123a7906064016040805180830381600087803b1580156130c757600080fd5b505af11580156130db573d6000803e3d6000fd5b505050506040513d601f19601f820116820180604052508101906130ff9190614411565b50506040516309e3d67b60e31b81526001600160a01b037f00000000000000000000000000000000000000000000000000000000000000001690634f1eb3d89061315c903090879087906001600160801b03908190600401614816565b6040805180830381600087803b15801561317557600080fd5b505af1158015613189573d6000803e3d6000fd5b505050506040513d601f19601f820116820180604052508101906116a391906144a1565b60007f00000000000000000000000000000000000000000000000000000000000000006001600160a01b0316633850c7bd6040518163ffffffff1660e01b815260040160e06040518083038186803b15801561320857600080fd5b505afa15801561321c573d6000803e3d6000fd5b505050506040513d601f19601f820116820180604052508101906132409190614530565b50505050505090506000851180156132585750600084115b1561337b5760006132828261326f8a60020b613594565b61327b8a60020b613594565b89896122bc565b90506000807f00000000000000000000000000000000000000000000000000000000000000006001600160a01b0316633c8a7d8d308c8c87306040516020016132da91906001600160a01b0391909116815260200190565b6040516020818303038152906040526040518663ffffffff1660e01b81526004016133099594939291906147d4565b6040805180830381600087803b15801561332257600080fd5b505af1158015613336573d6000803e3d6000fd5b505050506040513d601f19601f8201168201806040525081019061335a9190614411565b90925090506133698289614bc5565b97506133758188614bc5565b96505050505b600085118061338a5750600084115b156133dc5783851161339c84826139a9565b600061271084836133ad57876133af565b885b6133b99190614ab3565b6133c39190614a70565b90506133d489898989858a88613cbc565b909750955050505b50505050505050565b6060612f878484600085613f4c565b60008080600019858709858702925082811083820303915050806000141561342e576000841161342357600080fd5b508290049050610768565b80841161343a57600080fd5b60008486880980840393811190920391905060008561345b81600019614bc5565b6134669060016149f4565b169586900495938490049360008190030460010190506134868184614ab3565b909317926000613497876003614ab3565b60021890506134a68188614ab3565b6134b1906002614bc5565b6134bb9082614ab3565b90506134c78188614ab3565b6134d2906002614bc5565b6134dc9082614ab3565b90506134e88188614ab3565b6134f3906002614bc5565b6134fd9082614ab3565b90506135098188614ab3565b613514906002614bc5565b61351e9082614ab3565b905061352a8188614ab3565b613535906002614bc5565b61353f9082614ab3565b905061354b8188614ab3565b613556906002614bc5565b6135609082614ab3565b905061356c8186614ab3565b9998505050505050505050565b806001600160801b038116811461358f57600080fd5b919050565b60008060008360020b126135ab578260020b6135b8565b8260020b6135b890614c3d565b90506135c7620d89e719614c1c565b60020b8111156135fd5760405162461bcd60e51b81526020600482015260016024820152601560fa1b6044820152606401610745565b60006001821661361157600160801b613623565b6ffffcb933bd6fad37aa2d162d1a5940015b70ffffffffffffffffffffffffffffffffff169050600282161561366257608061365d826ffff97272373d413259a46990580e213a614ab3565b901c90505b600482161561368c576080613687826ffff2e50f5f656932ef12357cf3c7fdcc614ab3565b901c90505b60088216156136b65760806136b1826fffe5caca7e10e4e61c3624eaa0941cd0614ab3565b901c90505b60108216156136e05760806136db826fffcb9843d60f6159c9db58835c926644614ab3565b901c90505b602082161561370a576080613705826fff973b41fa98c081472e6896dfb254c0614ab3565b901c90505b604082161561373457608061372f826fff2ea16466c96a3843ec78b326b52861614ab3565b901c90505b608082161561375e576080613759826ffe5dee046a99a2a811c461f1969c3053614ab3565b901c90505b610100821615613789576080613784826ffcbe86c7900a88aedcffc83b479aa3a4614ab3565b901c90505b6102008216156137b45760806137af826ff987a7253ac413176f2b074cf7815e54614ab3565b901c90505b6104008216156137df5760806137da826ff3392b0822b70005940c7a398e4b70f3614ab3565b901c90505b61080082161561380a576080613805826fe7159475a2c29b7443b29c7fa6e889d9614ab3565b901c90505b611000821615613835576080613830826fd097f3bdfd2022b8845ad8f792aa5825614ab3565b901c90505b61200082161561386057608061385b826fa9f746462d870fdf8a65dc1f90e061e5614ab3565b901c90505b61400082161561388b576080613886826f70d869a156d2a1b890bb3df62baf32f7614ab3565b901c90505b6180008216156138b65760806138b1826f31be135f97d08fd981231505542fcfa6614ab3565b901c90505b620100008216156138e25760806138dd826f09aa508b5b7a84e1c677de54f3e99bc9614ab3565b901c90505b6202000082161561390d576080613908826e5d6af8dedb81196699c329225ee604614ab3565b901c90505b62040000821615613937576080613932826d2216e584f5fa1ea926041bedfe98614ab3565b901c90505b6208000082161561395f57608061395a826b048a170391f7dc42444e8fa2614ab3565b901c90505b60008460020b131561397a5761397781600019614a70565b90505b61398964010000000082614c08565b15613995576001613998565b60005b612f879060ff16602083901c6149f4565b604080516002808252606082018352600092602083019080368337019050509050600a60069054906101000a900463ffffffff16816000815181106139fe57634e487b7160e01b600052603260045260246000fd5b602002602001019063ffffffff16908163ffffffff1681525050600081600181518110613a3b57634e487b7160e01b600052603260045260246000fd5b63ffffffff9092166020928302919091019091015260405163883bdbfd60e01b81526000906001600160a01b037f0000000000000000000000000000000000000000000000000000000000000000169063883bdbfd90613a9f908590600401614853565b60006040518083038186803b158015613ab757600080fd5b505afa158015613acb573d6000803e3d6000fd5b505050506040513d6000823e601f3d908101601f19168201604052613af391908101906142bd565b5090508051600214613b475760405162461bcd60e51b815260206004820152601f60248201527f756e6578706563746564206c656e677468206f66207469636b206172726179006044820152606401610745565b600a548151600091600160301b900463ffffffff169083908390613b7b57634e487b7160e01b600052603260045260246000fd5b602002602001015183600181518110613ba457634e487b7160e01b600052603260045260246000fd5b6020026020010151613bb69190614b58565b613bc09190614a0c565b90506000613bd08260020b613594565b905060006064600a8054906101000a90046001600160a01b031683613bf59190614a84565b613bff9190614a4a565b90508515613c6457816001600160a01b0316876001600160a01b0316108015613c435750613c2d8183614b9d565b6001600160a01b0316876001600160a01b031610155b613c5f5760405162461bcd60e51b8152600401610745906148b0565b6133dc565b816001600160a01b0316876001600160a01b0316118015613ca05750613c8a81836149c9565b6001600160a01b0316876001600160a01b031611155b6133dc5760405162461bcd60e51b8152600401610745906148b0565b6000806000807f00000000000000000000000000000000000000000000000000000000000000006001600160a01b031663128acb0830878a8a30604051602001613d1591906001600160a01b0391909116815260200190565b6040516020818303038152906040526040518663ffffffff1660e01b8152600401613d44959493929190614799565b6040805180830381600087803b158015613d5d57600080fd5b505af1158015613d71573d6000803e3d6000fd5b505050506040513d601f19601f82011682018060405250810190613d959190614411565b9092509050613da4828a614b19565b9350613db08189614b19565b925060007f00000000000000000000000000000000000000000000000000000000000000006001600160a01b0316633850c7bd6040518163ffffffff1660e01b815260040160e06040518083038186803b158015613e0d57600080fd5b505afa158015613e21573d6000803e3d6000fd5b505050506040513d601f19601f82011682018060405250810190613e459190614530565b50505050505090506000613e6582613e5c8f613594565b61327b8f613594565b90507f00000000000000000000000000000000000000000000000000000000000000006001600160a01b0316633c8a7d8d308f8f8530604051602001613eba91906001600160a01b0391909116815260200190565b6040516020818303038152906040526040518663ffffffff1660e01b8152600401613ee99594939291906147d4565b6040805180830381600087803b158015613f0257600080fd5b505af1158015613f16573d6000803e3d6000fd5b505050506040513d601f19601f82011682018060405250810190613f3a9190614411565b50505050505097509795505050505050565b606082471015613fad5760405162461bcd60e51b815260206004820152602660248201527f416464726573733a20696e73756666696369656e742062616c616e636520666f6044820152651c8818d85b1b60d21b6064820152608401610745565b843b613ffb5760405162461bcd60e51b815260206004820152601d60248201527f416464726573733a2063616c6c20746f206e6f6e2d636f6e74726163740000006044820152606401610745565b600080866001600160a01b03168587604051614017919061477d565b60006040518083038185875af1925050503d8060008114614054576040519150601f19603f3d011682016040523d82523d6000602084013e614059565b606091505b5091509150614069828286614074565b979650505050505050565b60608315614083575081610768565b8251156140935782518084602001fd5b8160405162461bcd60e51b8152600401610745919061489d565b600082601f8301126140bd578081fd5b815160206140d26140cd8361495f565b61492e565b80838252828201915082860187848660051b89010111156140f1578586fd5b855b8581101561411857815161410681614c99565b845292840192908401906001016140f3565b5090979650505050505050565b8051801515811461358f57600080fd5b60008083601f840112614146578182fd5b50813567ffffffffffffffff81111561415d578182fd5b60208301915083602082850101111561417557600080fd5b9250929050565b805161ffff8116811461358f57600080fd5b60006020828403121561419f578081fd5b813561076881614c99565b600080604083850312156141bc578081fd5b82356141c781614c99565b915060208301356141d781614c99565b809150509250929050565b6000806000606084860312156141f6578081fd5b833561420181614c99565b9250602084013561421181614c99565b929592945050506040919091013590565b600080600080600080600060e0888a03121561423c578283fd5b873561424781614c99565b9650602088013561425781614c99565b95506040880135945060608801359350608088013561427581614cd5565b9699959850939692959460a0840135945060c09093013592915050565b600080604083850312156142a4578182fd5b82356142af81614c99565b946020939093013593505050565b600080604083850312156142cf578182fd5b825167ffffffffffffffff808211156142e6578384fd5b818501915085601f8301126142f9578384fd5b815160206143096140cd8361495f565b8083825282820191508286018a848660051b8901011115614328578889fd5b8896505b848710156143585780518060060b811461434457898afd5b83526001969096019591830191830161432c565b5091880151919650909350505080821115614371578283fd5b5061437e858286016140ad565b9150509250929050565b600060208284031215614399578081fd5b61076882614125565b60008060008060008060c087890312156143ba578384fd5b86356143c581614cb1565b955060208701356143d581614cb1565b945060408701356143e581614c99565b9350606087013592506080870135915060a087013561440381614c99565b809150509295509295509295565b60008060408385031215614423578182fd5b505080516020909101519092909150565b60008060008060608587031215614449578182fd5b8435935060208501359250604085013567ffffffffffffffff81111561446d578283fd5b61447987828801614135565b95989497509550505050565b600060208284031215614496578081fd5b813561076881614cc0565b600080604083850312156144b3578182fd5b82516144be81614cc0565b60208401519092506141d781614cc0565b600080600080600060a086880312156144e6578283fd5b85516144f181614cc0565b809550506020860151935060408601519250606086015161451181614cc0565b608087015190925061452281614cc0565b809150509295509295909350565b600080600080600080600060e0888a03121561454a578081fd5b875161455581614c99565b602089015190975061456681614cb1565b95506145746040890161417c565b94506145826060890161417c565b93506145906080890161417c565b925060a08801516145a081614cd5565b91506145ae60c08901614125565b905092959891949750929550565b600080600080608085870312156145d1578182fd5b84356145dc81614c99565b935060208501356145ec81614c99565b925060408501356145fc81614c99565b9150606085013561460c81614cc0565b939692955090935050565b600080600080600060a0868803121561462e578283fd5b853561463981614c99565b9450602086013561464981614c99565b9350604086013561465981614c99565b94979396509394606081013594506080013592915050565b600060208284031215614682578081fd5b5035919050565b60006020828403121561469a578081fd5b5051919050565b600080600080608085870312156146b6578182fd5b8435935060208501356146c881614cb1565b925060408501356146d881614cb1565b9150606085013561460c81614c99565b60008060008060008060c08789031215614700578384fd5b8635955060208701359450604087013561471981614cb1565b9350606087013561472981614cb1565b9250608087013563ffffffff81168114614741578283fd5b915060a087013561440381614c99565b60008151808452614769816020860160208601614bdc565b601f01601f19169290920160200192915050565b6000825161478f818460208701614bdc565b9190910192915050565b6001600160a01b0386811682528515156020830152604082018590528316606082015260a06080820181905260009061406990830184614751565b60018060a01b03861681528460020b60208201528360020b60408201526001600160801b038316606082015260a06080820152600061406960a0830184614751565b6001600160a01b03959095168552600293840b60208601529190920b60408401526001600160801b03918216606084015216608082015260a00190565b6020808252825182820181905260009190848201906040850190845b8181101561489157835163ffffffff168352928401929184019160010161486f565b50909695505050505050565b6020815260006107686020830184614751565b60208082526029908201527f736c697070616765207072696365206973206f7574206f662061636365707461604082015268626c652072616e676560b81b606082015260800190565b6020808252818101527f4f776e61626c653a2063616c6c6572206973206e6f7420746865206f776e6572604082015260600190565b604051601f8201601f1916810167ffffffffffffffff8111828210171561495757614957614c83565b604052919050565b600067ffffffffffffffff82111561497957614979614c83565b5060051b60200190565b60008160020b8360020b82821282627fffff038213811516156149a8576149a8614c57565b82627fffff190382128116156149c0576149c0614c57565b50019392505050565b60006001600160a01b038281168482168083038211156149eb576149eb614c57565b01949350505050565b60008219821115614a0757614a07614c57565b500190565b60008160060b8360060b80614a2357614a23614c6d565b667fffffffffffff19821460001982141615614a4157614a41614c57565b90059392505050565b60006001600160a01b0383811680614a6457614a64614c6d565b92169190910492915050565b600082614a7f57614a7f614c6d565b500490565b60006001600160a01b0382811684821681151582840482111615614aaa57614aaa614c57565b02949350505050565b6000816000190483118215151615614acd57614acd614c57565b500290565b60008160020b8360020b82811281627fffff1901831281151615614af857614af8614c57565b81627fffff018313811615614b0f57614b0f614c57565b5090039392505050565b60008083128015600160ff1b850184121615614b3757614b37614c57565b6001600160ff1b0384018313811615614b5257614b52614c57565b50500390565b60008160060b8360060b82811281667fffffffffffff1901831281151615614b8257614b82614c57565b81667fffffffffffff018313811615614b0f57614b0f614c57565b60006001600160a01b0383811690831681811015614bbd57614bbd614c57565b039392505050565b600082821015614bd757614bd7614c57565b500390565b60005b83811015614bf7578181015183820152602001614bdf565b83811115611cab5750506000910152565b600082614c1757614c17614c6d565b500690565b60008160020b627fffff19811415614c3657614c36614c57565b9003919050565b6000600160ff1b821415614c5357614c53614c57565b0390565b634e487b7160e01b600052601160045260246000fd5b634e487b7160e01b600052601260045260246000fd5b634e487b7160e01b600052604160045260246000fd5b6001600160a01b0381168114614cae57600080fd5b50565b8060020b8114614cae57600080fd5b6001600160801b0381168114614cae57600080fd5b60ff81168114614cae57600080fdfea26469706673582212208e8a11e75df39e435ce79fb5fce3a3420960387cb1fe715b4d02658187d001de64736f6c63430008040033",
  "devdoc": {
    "details": "DO NOT ADD STATE VARIABLES - APPEND THEM TO GelatoUniV3PoolStorageDO NOT ADD BASE CONTRACTS WITH STATE VARS - APPEND THEM TO GelatoUniV3PoolStorage",
    "kind": "dev",
    "methods": {
      "DOMAIN_SEPARATOR()": {
        "details": "See {IERC20Permit-DOMAIN_SEPARATOR}."
      },
      "allowance(address,address)": {
        "details": "See {IERC20-allowance}."
      },
      "approve(address,uint256)": {
        "details": "See {IERC20-approve}. Requirements: - `spender` cannot be the zero address."
      },
      "balanceOf(address)": {
        "details": "See {IERC20-balanceOf}."
      },
      "decimals()": {
        "details": "Returns the number of decimals used to get its user representation. For example, if `decimals` equals `2`, a balance of `505` tokens should be displayed to a user as `5,05` (`505 / 10 ** 2`). Tokens usually opt for a value of 18, imitating the relationship between Ether and Wei. This is the value {ERC20} uses, unless this function is overridden; NOTE: This information is only used for _display_ purposes: it in no way affects any of the arithmetic of the contract, including {IERC20-balanceOf} and {IERC20-transfer}."
      },
      "decreaseAllowance(address,uint256)": {
        "details": "Atomically decreases the allowance granted to `spender` by the caller. This is an alternative to {approve} that can be used as a mitigation for problems described in {IERC20-approve}. Emits an {Approval} event indicating the updated allowance. Requirements: - `spender` cannot be the zero address. - `spender` must have allowance for the caller of at least `subtractedValue`."
      },
      "increaseAllowance(address,uint256)": {
        "details": "Atomically increases the allowance granted to `spender` by the caller. This is an alternative to {approve} that can be used as a mitigation for problems described in {IERC20-approve}. Emits an {Approval} event indicating the updated allowance. Requirements: - `spender` cannot be the zero address."
      },
      "name()": {
        "details": "Returns the name of the token."
      },
      "nonces(address)": {
        "details": "See {IERC20Permit-nonces}."
      },
      "owner()": {
        "details": "Returns the address of the current owner."
      },
      "permit(address,address,uint256,uint256,uint8,bytes32,bytes32)": {
        "details": "See {IERC20Permit-permit}."
      },
      "renounceOwnership()": {
        "details": "Leaves the contract without owner. It will not be possible to call `onlyOwner` functions anymore. Can only be called by the current owner. NOTE: Renouncing ownership will leave the contract without an owner, thereby removing any functionality that is only available to the owner."
      },
      "symbol()": {
        "details": "Returns the symbol of the token, usually a shorter version of the name."
      },
      "totalSupply()": {
        "details": "See {IERC20-totalSupply}."
      },
      "transfer(address,uint256)": {
        "details": "See {IERC20-transfer}. Requirements: - `recipient` cannot be the zero address. - the caller must have a balance of at least `amount`."
      },
      "transferFrom(address,address,uint256)": {
        "details": "See {IERC20-transferFrom}. Emits an {Approval} event indicating the updated allowance. This is not required by the EIP. See the note at the beginning of {ERC20}. Requirements: - `sender` and `recipient` cannot be the zero address. - `sender` must have a balance of at least `amount`. - the caller must have allowance for ``sender``'s tokens of at least `amount`."
      },
      "transferOwnership(address)": {
        "details": "Transfers ownership of the contract to a new account (`newOwner`). Can only be called by the current owner."
      }
    },
    "version": 1
  },
  "userdoc": {
    "kind": "user",
    "methods": {},
    "version": 1
  },
  "storageLayout": {
    "storage": [
      {
        "astId": 101,
        "contract": "contracts/GelatoUniV3Pool.sol:GelatoUniV3Pool",
        "label": "_balances",
        "offset": 0,
        "slot": "0",
        "type": "t_mapping(t_address,t_uint256)"
      },
      {
        "astId": 107,
        "contract": "contracts/GelatoUniV3Pool.sol:GelatoUniV3Pool",
        "label": "_allowances",
        "offset": 0,
        "slot": "1",
        "type": "t_mapping(t_address,t_mapping(t_address,t_uint256))"
      },
      {
        "astId": 109,
        "contract": "contracts/GelatoUniV3Pool.sol:GelatoUniV3Pool",
        "label": "_totalSupply",
        "offset": 0,
        "slot": "2",
        "type": "t_uint256"
      },
      {
        "astId": 111,
        "contract": "contracts/GelatoUniV3Pool.sol:GelatoUniV3Pool",
        "label": "_name",
        "offset": 0,
        "slot": "3",
        "type": "t_string_storage"
      },
      {
        "astId": 113,
        "contract": "contracts/GelatoUniV3Pool.sol:GelatoUniV3Pool",
        "label": "_symbol",
        "offset": 0,
        "slot": "4",
        "type": "t_string_storage"
      },
      {
        "astId": 718,
        "contract": "contracts/GelatoUniV3Pool.sol:GelatoUniV3Pool",
        "label": "_nonces",
        "offset": 0,
        "slot": "5",
        "type": "t_mapping(t_address,t_struct(Counter)1449_storage)"
      },
      {
        "astId": 4134,
        "contract": "contracts/GelatoUniV3Pool.sol:GelatoUniV3Pool",
        "label": "_owner",
        "offset": 0,
        "slot": "6",
        "type": "t_address"
      },
      {
        "astId": 5,
        "contract": "contracts/GelatoUniV3Pool.sol:GelatoUniV3Pool",
        "label": "_initialized",
        "offset": 20,
        "slot": "6",
        "type": "t_bool"
      },
      {
        "astId": 8,
        "contract": "contracts/GelatoUniV3Pool.sol:GelatoUniV3Pool",
        "label": "_initializing",
        "offset": 21,
        "slot": "6",
        "type": "t_bool"
      },
      {
        "astId": 56,
        "contract": "contracts/GelatoUniV3Pool.sol:GelatoUniV3Pool",
        "label": "_status",
        "offset": 0,
        "slot": "7",
        "type": "t_uint256"
      },
      {
        "astId": 3778,
        "contract": "contracts/GelatoUniV3Pool.sol:GelatoUniV3Pool",
        "label": "_supplyCap",
        "offset": 0,
        "slot": "8",
        "type": "t_uint256"
      },
      {
        "astId": 3780,
        "contract": "contracts/GelatoUniV3Pool.sol:GelatoUniV3Pool",
        "label": "_heartbeat",
        "offset": 0,
        "slot": "9",
        "type": "t_uint256"
      },
      {
        "astId": 3782,
        "contract": "contracts/GelatoUniV3Pool.sol:GelatoUniV3Pool",
        "label": "_minTickDeviation",
        "offset": 0,
        "slot": "10",
        "type": "t_int24"
      },
      {
        "astId": 3784,
        "contract": "contracts/GelatoUniV3Pool.sol:GelatoUniV3Pool",
        "label": "_maxTickDeviation",
        "offset": 3,
        "slot": "10",
        "type": "t_int24"
      },
      {
        "astId": 3786,
        "contract": "contracts/GelatoUniV3Pool.sol:GelatoUniV3Pool",
        "label": "_observationSeconds",
        "offset": 6,
        "slot": "10",
        "type": "t_uint32"
      },
      {
        "astId": 3788,
        "contract": "contracts/GelatoUniV3Pool.sol:GelatoUniV3Pool",
        "label": "_maxSlippagePercentage",
        "offset": 10,
        "slot": "10",
        "type": "t_uint160"
      },
      {
        "astId": 3790,
        "contract": "contracts/GelatoUniV3Pool.sol:GelatoUniV3Pool",
        "label": "_currentLowerTick",
        "offset": 0,
        "slot": "11",
        "type": "t_int24"
      },
      {
        "astId": 3792,
        "contract": "contracts/GelatoUniV3Pool.sol:GelatoUniV3Pool",
        "label": "_currentUpperTick",
        "offset": 3,
        "slot": "11",
        "type": "t_int24"
      },
      {
        "astId": 3794,
        "contract": "contracts/GelatoUniV3Pool.sol:GelatoUniV3Pool",
        "label": "_lastRebalanceTimestamp",
        "offset": 0,
        "slot": "12",
        "type": "t_uint256"
      },
      {
        "astId": 3796,
        "contract": "contracts/GelatoUniV3Pool.sol:GelatoUniV3Pool",
        "label": "_lastMintOrBurnTimestamp",
        "offset": 0,
        "slot": "13",
        "type": "t_uint256"
      }
    ],
    "types": {
      "t_address": {
        "encoding": "inplace",
        "label": "address",
        "numberOfBytes": "20"
      },
      "t_bool": {
        "encoding": "inplace",
        "label": "bool",
        "numberOfBytes": "1"
      },
      "t_int24": {
        "encoding": "inplace",
        "label": "int24",
        "numberOfBytes": "3"
      },
      "t_mapping(t_address,t_mapping(t_address,t_uint256))": {
        "encoding": "mapping",
        "key": "t_address",
        "label": "mapping(address => mapping(address => uint256))",
        "numberOfBytes": "32",
        "value": "t_mapping(t_address,t_uint256)"
      },
      "t_mapping(t_address,t_struct(Counter)1449_storage)": {
        "encoding": "mapping",
        "key": "t_address",
        "label": "mapping(address => struct Counters.Counter)",
        "numberOfBytes": "32",
        "value": "t_struct(Counter)1449_storage"
      },
      "t_mapping(t_address,t_uint256)": {
        "encoding": "mapping",
        "key": "t_address",
        "label": "mapping(address => uint256)",
        "numberOfBytes": "32",
        "value": "t_uint256"
      },
      "t_string_storage": {
        "encoding": "bytes",
        "label": "string",
        "numberOfBytes": "32"
      },
      "t_struct(Counter)1449_storage": {
        "encoding": "inplace",
        "label": "struct Counters.Counter",
        "members": [
          {
            "astId": 1448,
            "contract": "contracts/GelatoUniV3Pool.sol:GelatoUniV3Pool",
            "label": "_value",
            "offset": 0,
            "slot": "0",
            "type": "t_uint256"
          }
        ],
        "numberOfBytes": "32"
      },
      "t_uint160": {
        "encoding": "inplace",
        "label": "uint160",
        "numberOfBytes": "20"
      },
      "t_uint256": {
        "encoding": "inplace",
        "label": "uint256",
        "numberOfBytes": "32"
      },
      "t_uint32": {
        "encoding": "inplace",
        "label": "uint32",
        "numberOfBytes": "4"
      }
    }
  }
}