{
  "address": "0xc2D8196DbcC92E8C5F372e58B8dbFDF2ac129057",
  "abi": [
    {
      "inputs": [
        {
          "internalType": "contract IUniswapV3Pool",
          "name": "_pool",
          "type": "address"
        },
        {
          "internalType": "address payable",
          "name": "_gelato",
          "type": "address"
        }
      ],
      "stateMutability": "nonpayable",
      "type": "constructor"
    },
    {
      "anonymous": false,
      "inputs": [
        {
          "indexed": true,
          "internalType": "address",
          "name": "owner",
          "type": "address"
        },
        {
          "indexed": true,
          "internalType": "address",
          "name": "spender",
          "type": "address"
        },
        {
          "indexed": false,
          "internalType": "uint256",
          "name": "value",
          "type": "uint256"
        }
      ],
      "name": "Approval",
      "type": "event"
    },
    {
      "anonymous": false,
      "inputs": [
        {
          "indexed": false,
          "internalType": "address",
          "name": "burner",
          "type": "address"
        },
        {
          "indexed": false,
          "internalType": "uint256",
          "name": "burnAmount",
          "type": "uint256"
        },
        {
          "indexed": false,
          "internalType": "uint256",
          "name": "amount0Out",
          "type": "uint256"
        },
        {
          "indexed": false,
          "internalType": "uint256",
          "name": "amount1Out",
          "type": "uint256"
        }
      ],
      "name": "Burned",
      "type": "event"
    },
    {
      "anonymous": false,
      "inputs": [
        {
          "indexed": false,
          "internalType": "uint256",
          "name": "supplyCap",
          "type": "uint256"
        },
        {
          "indexed": false,
          "internalType": "uint256",
          "name": "heartbeat",
          "type": "uint256"
        },
        {
          "indexed": false,
          "internalType": "int24",
          "name": "minTickDeviation",
          "type": "int24"
        },
        {
          "indexed": false,
          "internalType": "int24",
          "name": "maxTickDeviation",
          "type": "int24"
        },
        {
          "indexed": false,
          "internalType": "uint32",
          "name": "observationSeconds",
          "type": "uint32"
        },
        {
          "indexed": false,
          "internalType": "uint160",
          "name": "maxSlippagePercentage",
          "type": "uint160"
        }
      ],
      "name": "MetaParamsAdjusted",
      "type": "event"
    },
    {
      "anonymous": false,
      "inputs": [
        {
          "indexed": false,
          "internalType": "address",
          "name": "minter",
          "type": "address"
        },
        {
          "indexed": false,
          "internalType": "uint256",
          "name": "mintAmount",
          "type": "uint256"
        },
        {
          "indexed": false,
          "internalType": "uint256",
          "name": "amount0In",
          "type": "uint256"
        },
        {
          "indexed": false,
          "internalType": "uint256",
          "name": "amount1In",
          "type": "uint256"
        }
      ],
      "name": "Minted",
      "type": "event"
    },
    {
      "anonymous": false,
      "inputs": [
        {
          "indexed": true,
          "internalType": "address",
          "name": "previousOwner",
          "type": "address"
        },
        {
          "indexed": true,
          "internalType": "address",
          "name": "newOwner",
          "type": "address"
        }
      ],
      "name": "OwnershipTransferred",
      "type": "event"
    },
    {
      "anonymous": false,
      "inputs": [
        {
          "indexed": false,
          "internalType": "int24",
          "name": "newLowerTick",
          "type": "int24"
        },
        {
          "indexed": false,
          "internalType": "int24",
          "name": "newUpperTick",
          "type": "int24"
        }
      ],
      "name": "Rebalance",
      "type": "event"
    },
    {
      "anonymous": false,
      "inputs": [
        {
          "indexed": true,
          "internalType": "address",
          "name": "from",
          "type": "address"
        },
        {
          "indexed": true,
          "internalType": "address",
          "name": "to",
          "type": "address"
        },
        {
          "indexed": false,
          "internalType": "uint256",
          "name": "value",
          "type": "uint256"
        }
      ],
      "name": "Transfer",
      "type": "event"
    },
    {
      "inputs": [],
      "name": "DOMAIN_SEPARATOR",
      "outputs": [
        {
          "internalType": "bytes32",
          "name": "",
          "type": "bytes32"
        }
      ],
      "stateMutability": "view",
      "type": "function"
    },
    {
      "inputs": [],
      "name": "GELATO",
      "outputs": [
        {
          "internalType": "address payable",
          "name": "",
          "type": "address"
        }
      ],
      "stateMutability": "view",
      "type": "function"
    },
    {
      "inputs": [
        {
          "internalType": "address",
          "name": "owner",
          "type": "address"
        },
        {
          "internalType": "address",
          "name": "spender",
          "type": "address"
        }
      ],
      "name": "allowance",
      "outputs": [
        {
          "internalType": "uint256",
          "name": "",
          "type": "uint256"
        }
      ],
      "stateMutability": "view",
      "type": "function"
    },
    {
      "inputs": [
        {
          "internalType": "address",
          "name": "spender",
          "type": "address"
        },
        {
          "internalType": "uint256",
          "name": "amount",
          "type": "uint256"
        }
      ],
      "name": "approve",
      "outputs": [
        {
          "internalType": "bool",
          "name": "",
          "type": "bool"
        }
      ],
      "stateMutability": "nonpayable",
      "type": "function"
    },
    {
      "inputs": [
        {
          "internalType": "address",
          "name": "account",
          "type": "address"
        }
      ],
      "name": "balanceOf",
      "outputs": [
        {
          "internalType": "uint256",
          "name": "",
          "type": "uint256"
        }
      ],
      "stateMutability": "view",
      "type": "function"
    },
    {
      "inputs": [
        {
          "internalType": "uint256",
          "name": "_burnAmount",
          "type": "uint256"
        },
        {
          "internalType": "address",
          "name": "burner",
          "type": "address"
        }
      ],
      "name": "burn",
      "outputs": [
        {
          "internalType": "uint256",
          "name": "amount0",
          "type": "uint256"
        },
        {
          "internalType": "uint256",
          "name": "amount1",
          "type": "uint256"
        },
        {
          "internalType": "uint128",
          "name": "liquidityBurned",
          "type": "uint128"
        }
      ],
      "stateMutability": "nonpayable",
      "type": "function"
    },
    {
      "inputs": [],
      "name": "currentLowerTick",
      "outputs": [
        {
          "internalType": "int24",
          "name": "",
          "type": "int24"
        }
      ],
      "stateMutability": "view",
      "type": "function"
    },
    {
      "inputs": [],
      "name": "currentUpperTick",
      "outputs": [
        {
          "internalType": "int24",
          "name": "",
          "type": "int24"
        }
      ],
      "stateMutability": "view",
      "type": "function"
    },
    {
      "inputs": [],
      "name": "decimals",
      "outputs": [
        {
          "internalType": "uint8",
          "name": "",
          "type": "uint8"
        }
      ],
      "stateMutability": "view",
      "type": "function"
    },
    {
      "inputs": [
        {
          "internalType": "address",
          "name": "spender",
          "type": "address"
        },
        {
          "internalType": "uint256",
          "name": "subtractedValue",
          "type": "uint256"
        }
      ],
      "name": "decreaseAllowance",
      "outputs": [
        {
          "internalType": "bool",
          "name": "",
          "type": "bool"
        }
      ],
      "stateMutability": "nonpayable",
      "type": "function"
    },
    {
      "inputs": [],
      "name": "deployer",
      "outputs": [
        {
          "internalType": "address",
          "name": "",
          "type": "address"
        }
      ],
      "stateMutability": "view",
      "type": "function"
    },
    {
      "inputs": [
        {
          "internalType": "uint160",
          "name": "sqrtRatioX96",
          "type": "uint160"
        },
        {
          "internalType": "uint160",
          "name": "sqrtRatioAX96",
          "type": "uint160"
        },
        {
          "internalType": "uint160",
          "name": "sqrtRatioBX96",
          "type": "uint160"
        },
        {
          "internalType": "uint128",
          "name": "liquidity",
          "type": "uint128"
        }
      ],
      "name": "getAmountsForLiquidity",
      "outputs": [
        {
          "internalType": "uint256",
          "name": "amount0",
          "type": "uint256"
        },
        {
          "internalType": "uint256",
          "name": "amount1",
          "type": "uint256"
        }
      ],
      "stateMutability": "pure",
      "type": "function"
    },
    {
      "inputs": [
        {
          "internalType": "uint160",
          "name": "sqrtRatioX96",
          "type": "uint160"
        },
        {
          "internalType": "uint160",
          "name": "sqrtRatioAX96",
          "type": "uint160"
        },
        {
          "internalType": "uint160",
          "name": "sqrtRatioBX96",
          "type": "uint160"
        },
        {
          "internalType": "uint256",
          "name": "amount0",
          "type": "uint256"
        },
        {
          "internalType": "uint256",
          "name": "amount1",
          "type": "uint256"
        }
      ],
      "name": "getLiquidityForAmounts",
      "outputs": [
        {
          "internalType": "uint128",
          "name": "liquidity",
          "type": "uint128"
        }
      ],
      "stateMutability": "pure",
      "type": "function"
    },
    {
      "inputs": [],
      "name": "getPositionID",
      "outputs": [
        {
          "internalType": "bytes32",
          "name": "positionID",
          "type": "bytes32"
        }
      ],
      "stateMutability": "view",
      "type": "function"
    },
    {
      "inputs": [],
      "name": "heartbeat",
      "outputs": [
        {
          "internalType": "uint256",
          "name": "",
          "type": "uint256"
        }
      ],
      "stateMutability": "view",
      "type": "function"
    },
    {
      "inputs": [
        {
          "internalType": "address",
          "name": "spender",
          "type": "address"
        },
        {
          "internalType": "uint256",
          "name": "addedValue",
          "type": "uint256"
        }
      ],
      "name": "increaseAllowance",
      "outputs": [
        {
          "internalType": "bool",
          "name": "",
          "type": "bool"
        }
      ],
      "stateMutability": "nonpayable",
      "type": "function"
    },
    {
      "inputs": [
        {
          "internalType": "uint256",
          "name": "__supplyCap",
          "type": "uint256"
        },
        {
          "internalType": "int24",
          "name": "_lowerTick",
          "type": "int24"
        },
        {
          "internalType": "int24",
          "name": "_upperTick",
          "type": "int24"
        },
        {
          "internalType": "address",
          "name": "_owner_",
          "type": "address"
        }
      ],
      "name": "initialize",
      "outputs": [],
      "stateMutability": "nonpayable",
      "type": "function"
    },
    {
      "inputs": [],
      "name": "lastMintOrBurnTimestamp",
      "outputs": [
        {
          "internalType": "uint256",
          "name": "",
          "type": "uint256"
        }
      ],
      "stateMutability": "view",
      "type": "function"
    },
    {
      "inputs": [],
      "name": "lastRebalanceTimestamp",
      "outputs": [
        {
          "internalType": "uint256",
          "name": "",
          "type": "uint256"
        }
      ],
      "stateMutability": "view",
      "type": "function"
    },
    {
      "inputs": [],
      "name": "maxSlippagePercentage",
      "outputs": [
        {
          "internalType": "uint160",
          "name": "",
          "type": "uint160"
        }
      ],
      "stateMutability": "view",
      "type": "function"
    },
    {
      "inputs": [],
      "name": "maxTickDeviation",
      "outputs": [
        {
          "internalType": "int24",
          "name": "",
          "type": "int24"
        }
      ],
      "stateMutability": "view",
      "type": "function"
    },
    {
      "inputs": [],
      "name": "minTickDeviation",
      "outputs": [
        {
          "internalType": "int24",
          "name": "",
          "type": "int24"
        }
      ],
      "stateMutability": "view",
      "type": "function"
    },
    {
      "inputs": [
        {
          "internalType": "uint128",
          "name": "_newLiquidity",
          "type": "uint128"
        },
        {
          "internalType": "address",
          "name": "minter",
          "type": "address"
        }
      ],
      "name": "mint",
      "outputs": [
        {
          "internalType": "uint256",
          "name": "amount0",
          "type": "uint256"
        },
        {
          "internalType": "uint256",
          "name": "amount1",
          "type": "uint256"
        },
        {
          "internalType": "uint256",
          "name": "mintAmount",
          "type": "uint256"
        }
      ],
      "stateMutability": "nonpayable",
      "type": "function"
    },
    {
      "inputs": [],
      "name": "name",
      "outputs": [
        {
          "internalType": "string",
          "name": "",
          "type": "string"
        }
      ],
      "stateMutability": "view",
      "type": "function"
    },
    {
      "inputs": [
        {
          "internalType": "address",
          "name": "owner",
          "type": "address"
        }
      ],
      "name": "nonces",
      "outputs": [
        {
          "internalType": "uint256",
          "name": "",
          "type": "uint256"
        }
      ],
      "stateMutability": "view",
      "type": "function"
    },
    {
      "inputs": [],
      "name": "observationSeconds",
      "outputs": [
        {
          "internalType": "uint32",
          "name": "",
          "type": "uint32"
        }
      ],
      "stateMutability": "view",
      "type": "function"
    },
    {
      "inputs": [],
      "name": "owner",
      "outputs": [
        {
          "internalType": "address",
          "name": "",
          "type": "address"
        }
      ],
      "stateMutability": "view",
      "type": "function"
    },
    {
      "inputs": [
        {
          "internalType": "address",
          "name": "owner",
          "type": "address"
        },
        {
          "internalType": "address",
          "name": "spender",
          "type": "address"
        },
        {
          "internalType": "uint256",
          "name": "value",
          "type": "uint256"
        },
        {
          "internalType": "uint256",
          "name": "deadline",
          "type": "uint256"
        },
        {
          "internalType": "uint8",
          "name": "v",
          "type": "uint8"
        },
        {
          "internalType": "bytes32",
          "name": "r",
          "type": "bytes32"
        },
        {
          "internalType": "bytes32",
          "name": "s",
          "type": "bytes32"
        }
      ],
      "name": "permit",
      "outputs": [],
      "stateMutability": "nonpayable",
      "type": "function"
    },
    {
      "inputs": [],
      "name": "pool",
      "outputs": [
        {
          "internalType": "contract IUniswapV3Pool",
          "name": "",
          "type": "address"
        }
      ],
      "stateMutability": "view",
      "type": "function"
    },
    {
      "inputs": [
        {
          "internalType": "int24",
          "name": "_newLowerTick",
          "type": "int24"
        },
        {
          "internalType": "int24",
          "name": "_newUpperTick",
          "type": "int24"
        },
        {
          "internalType": "uint160",
          "name": "_swapThresholdPrice",
          "type": "uint160"
        },
        {
          "internalType": "uint256",
          "name": "_swapAmountBPS",
          "type": "uint256"
        },
        {
          "internalType": "uint256",
          "name": "_feeAmount",
          "type": "uint256"
        },
        {
          "internalType": "address",
          "name": "_paymentToken",
          "type": "address"
        }
      ],
      "name": "rebalance",
      "outputs": [],
      "stateMutability": "nonpayable",
      "type": "function"
    },
    {
      "inputs": [],
      "name": "renounceOwnership",
      "outputs": [],
      "stateMutability": "nonpayable",
      "type": "function"
    },
    {
      "inputs": [],
      "name": "supplyCap",
      "outputs": [
        {
          "internalType": "uint256",
          "name": "",
          "type": "uint256"
        }
      ],
      "stateMutability": "view",
      "type": "function"
    },
    {
      "inputs": [],
      "name": "symbol",
      "outputs": [
        {
          "internalType": "string",
          "name": "",
          "type": "string"
        }
      ],
      "stateMutability": "view",
      "type": "function"
    },
    {
      "inputs": [],
      "name": "token0",
      "outputs": [
        {
          "internalType": "contract IERC20",
          "name": "",
          "type": "address"
        }
      ],
      "stateMutability": "view",
      "type": "function"
    },
    {
      "inputs": [],
      "name": "token1",
      "outputs": [
        {
          "internalType": "contract IERC20",
          "name": "",
          "type": "address"
        }
      ],
      "stateMutability": "view",
      "type": "function"
    },
    {
      "inputs": [],
      "name": "totalSupply",
      "outputs": [
        {
          "internalType": "uint256",
          "name": "",
          "type": "uint256"
        }
      ],
      "stateMutability": "view",
      "type": "function"
    },
    {
      "inputs": [
        {
          "internalType": "address",
          "name": "recipient",
          "type": "address"
        },
        {
          "internalType": "uint256",
          "name": "amount",
          "type": "uint256"
        }
      ],
      "name": "transfer",
      "outputs": [
        {
          "internalType": "bool",
          "name": "",
          "type": "bool"
        }
      ],
      "stateMutability": "nonpayable",
      "type": "function"
    },
    {
      "inputs": [
        {
          "internalType": "address",
          "name": "sender",
          "type": "address"
        },
        {
          "internalType": "address",
          "name": "recipient",
          "type": "address"
        },
        {
          "internalType": "uint256",
          "name": "amount",
          "type": "uint256"
        }
      ],
      "name": "transferFrom",
      "outputs": [
        {
          "internalType": "bool",
          "name": "",
          "type": "bool"
        }
      ],
      "stateMutability": "nonpayable",
      "type": "function"
    },
    {
      "inputs": [
        {
          "internalType": "address",
          "name": "newOwner",
          "type": "address"
        }
      ],
      "name": "transferOwnership",
      "outputs": [],
      "stateMutability": "nonpayable",
      "type": "function"
    },
    {
      "inputs": [
        {
          "internalType": "uint256",
          "name": "_amount0Owed",
          "type": "uint256"
        },
        {
          "internalType": "uint256",
          "name": "_amount1Owed",
          "type": "uint256"
        },
        {
          "internalType": "bytes",
          "name": "_data",
          "type": "bytes"
        }
      ],
      "name": "uniswapV3MintCallback",
      "outputs": [],
      "stateMutability": "nonpayable",
      "type": "function"
    },
    {
      "inputs": [
        {
          "internalType": "int256",
          "name": "amount0Delta",
          "type": "int256"
        },
        {
          "internalType": "int256",
          "name": "amount1Delta",
          "type": "int256"
        },
        {
          "internalType": "bytes",
          "name": "",
          "type": "bytes"
        }
      ],
      "name": "uniswapV3SwapCallback",
      "outputs": [],
      "stateMutability": "nonpayable",
      "type": "function"
    },
    {
      "inputs": [
        {
          "internalType": "uint256",
          "name": "__supplyCap",
          "type": "uint256"
        },
        {
          "internalType": "uint256",
          "name": "__heartbeat",
          "type": "uint256"
        },
        {
          "internalType": "int24",
          "name": "__minTickDeviation",
          "type": "int24"
        },
        {
          "internalType": "int24",
          "name": "__maxTickDeviation",
          "type": "int24"
        },
        {
          "internalType": "uint32",
          "name": "__observationSeconds",
          "type": "uint32"
        },
        {
          "internalType": "uint160",
          "name": "__maxSlippagePercentage",
          "type": "uint160"
        }
      ],
      "name": "updateMetaParams",
      "outputs": [],
      "stateMutability": "nonpayable",
      "type": "function"
    }
  ],
  "transactionHash": "0xa462871372fd2a3e09a339021251da79ec521e0510d493ddd297ac08c8d25f9b",
  "args": [
    "0xC2e9F25Be6257c210d7Adf0D4Cd6E3E881ba25f8",
    "0x3CACa7b48D0573D793d3b0279b5F0029180E83b6"
  ],
  "solcInputHash": "024651fd0763c4d626b3a8f170002d62",
  "bytecode": "0x6101e06040527f6e71edae12b1b97f4d1f60370fef10105fa2faae0126114a169c64845d6126c9610120523480156200003757600080fd5b5060405162005345380380620053458339810160408190526200005a91620003a5565b8181806040518060400160405280601d81526020017f47656c61746f20556e697377617020563320574554482f444149204c5000000081525080604051806040016040528060018152602001603160f81b81525060405180602001604052806000815250604051806020016040528060008152508160039080519060200190620000e6929190620002d9565b508051620000fc906004906020840190620002d9565b5050825160209384012082519284019290922060c083815260e08290524660a0818152604080517f8b73c3c69bb8fe3d512ecc4cf759cc79239f7b179b0ffacaa9a75d522b39400f818a0181905281830198909852606080820196909652608080820194909452308184015281518082039093018352938401808252825192890192909220909252610100959095526001600160601b031997831b881661014052600160075533831b610160529189901b90961661018052630dfe168160e01b90925250516001600160a01b03861693630dfe1681935060c4808201939291829003018186803b158015620001f057600080fd5b505afa15801562000205573d6000803e3d6000fd5b505050506040513d601f19601f820116820180604052508101906200022b91906200037f565b6001600160a01b03166101a0816001600160a01b031660601b81525050816001600160a01b031663d21220a76040518163ffffffff1660e01b815260040160206040518083038186803b1580156200028257600080fd5b505afa15801562000297573d6000803e3d6000fd5b505050506040513d601f19601f82011682018060405250810190620002bd91906200037f565b60601b6001600160601b0319166101c052506200043992505050565b828054620002e790620003e3565b90600052602060002090601f0160209004810192826200030b576000855562000356565b82601f106200032657805160ff191683800117855562000356565b8280016001018555821562000356579182015b828111156200035657825182559160200191906001019062000339565b506200036492915062000368565b5090565b5b8082111562000364576000815560010162000369565b60006020828403121562000391578081fd5b81516200039e8162000420565b9392505050565b60008060408385031215620003b8578081fd5b8251620003c58162000420565b6020840151909250620003d88162000420565b809150509250929050565b600181811c90821680620003f857607f821691505b602082108114156200041a57634e487b7160e01b600052602260045260246000fd5b50919050565b6001600160a01b03811681146200043657600080fd5b50565b60805160a05160c05160e05161010051610120516101405160601c6101605160601c6101805160601c6101a05160601c6101c05160601c614d65620005e06000396000818161054501528181610d6601528181610e310152818161126a015281816112e40152818161178401528181611ba301528181611c4601528181612791015261285a0152600081816102d601528181610c5b01528181610d2601528181611230015281816112a90152818161174201528181611ab701528181611b5a015281816126ec015261280f01526000818161031501528181610af101528181610e5b015281816111d2015281816117020152818161182901528181611955015281816119f80152818161260c015281816128aa015281816130ba01528181613156015281816131ef015281816132c701528181613aa801528181613d0201528181613df40152613ea70152600081816105920152611096015260008181610618015281816114a50152818161159401526115ce0152600061136001526000612042015260006120910152600061206c01526000611ff0015260006120190152614d656000f3fe608060405234801561001057600080fd5b506004361061025e5760003560e01c80638f770ad011610146578063d505accf116100c3578063e5475ae711610087578063e5475ae714610608578063eff557a714610613578063f2fde38b1461063a578063fa2c6d7c1461064d578063fa461e3314610672578063fcd3533c1461068557600080fd5b8063d505accf1461057a578063d5f394881461058d578063dd62ed3e146105b4578063df28408a146105ed578063e3fbf2f8146105f557600080fd5b8063b74f27131161010a578063b74f2713146104fd578063b83d815714610510578063c72e160b14610518578063d21220a714610540578063d34879971461056757600080fd5b80638f770ad01461048157806395d89b4114610489578063a457c2d7146104a9578063a9059cbb146104bc578063b34912d7146104cf57600080fd5b80633defb962116101df57806369822d91116101a357806369822d91146103ff5780636a3089f61461041457806370a082311461042c578063715018a6146104555780637ecebe001461045d5780638da5cb5b1461047057600080fd5b80633defb962146103a75780634b41d7d8146103af5780634f5e2635146103ba5780636098fd4a146103c2578063696c58e5146103ed57600080fd5b80631f6697c6116102265780631f6697c61461034957806323b872dd1461036a578063313ce5671461037d5780633644e5151461038c578063395093511461039457600080fd5b806306fdde0314610263578063095ea7b3146102ae5780630dfe1681146102d157806316f0115b1461031057806318160ddd14610337575b600080fd5b60408051808201909152601d81527f47656c61746f20556e697377617020563320574554482f444149204c5000000060208201525b6040516102a591906148e8565b60405180910390f35b6102c16102bc3660046142d0565b6106bc565b60405190151581526020016102a5565b6102f87f000000000000000000000000000000000000000000000000000000000000000081565b6040516001600160a01b0390911681526020016102a5565b6102f87f000000000000000000000000000000000000000000000000000000000000000081565b6002545b6040519081526020016102a5565b600b546301000000900460020b5b60405160029190910b81526020016102a5565b6102c1610378366004614220565b6106d2565b604051601281526020016102a5565b61033b61078a565b6102c16103a23660046142d0565b610799565b60095461033b565b600a5460020b610357565b600d5461033b565b6103d56103d0366004614656565b6107d0565b6040516001600160801b0390911681526020016102a5565b600a546301000000900460020b610357565b61041261040d366004614733565b6107eb565b005b600a54600160501b90046001600160a01b03166102f8565b61033b61043a3660046141cc565b6001600160a01b031660009081526020819052604090205490565b610412610932565b61033b61046b3660046141cc565b6109b5565b6006546001600160a01b03166102f8565b60085461033b565b60408051808201909152600481526367554e4960e01b6020820152610298565b6102c16104b73660046142d0565b6109d5565b6102c16104ca3660046142d0565b610a70565b6104e26104dd3660046144c3565b610a7d565b604080519384526020840192909252908201526060016102a5565b61041261050b3660046146ec565b610fdc565b600c5461033b565b61052b6105263660046145fb565b6111aa565b604080519283526020830191909152016102a5565b6102f87f000000000000000000000000000000000000000000000000000000000000000081565b610412610575366004614472565b6111c7565b610412610588366004614260565b61130c565b6102f87f000000000000000000000000000000000000000000000000000000000000000081565b61033b6105c23660046141e8565b6001600160a01b03918216600090815260016020908152604080832093909416825291909152205490565b61033b61148e565b6104126106033660046143e0565b611498565b600b5460020b610357565b6102f87f000000000000000000000000000000000000000000000000000000000000000081565b6104126106483660046141cc565b6115fd565b600a54600160301b900463ffffffff1660405163ffffffff90911681526020016102a5565b610412610680366004614472565b6116f7565b6106986106933660046146c8565b6117b1565b6040805193845260208401929092526001600160801b0316908201526060016102a5565b60006106c9338484611cef565b50600192915050565b60006106df848484611e14565b6001600160a01b0384166000908152600160209081526040808320338452909152902054828110156107695760405162461bcd60e51b815260206004820152602860248201527f45524332303a207472616e7366657220616d6f756e74206578636565647320616044820152676c6c6f77616e636560c01b60648201526084015b60405180910390fd5b61077d85336107788685614c10565b611cef565b60019150505b9392505050565b6000610794611fec565b905090565b3360008181526001602090815260408083206001600160a01b038716845290915281205490916106c9918590610778908690614a3f565b60006107df86868686866120df565b90505b95945050505050565b336107fe6006546001600160a01b031690565b6001600160a01b0316146108245760405162461bcd60e51b815260040161076090614944565b60088690556009859055600a80546001600160a01b038316600160501b027fffff0000000000000000000000000000000000000000ffffffffffffffffffff63ffffffff8616600160301b02166601000000000000600160f01b0319600288810b62ffffff90811663010000000265ffffffffffff19909616918b900b16179390931792909216919091171790556040517f37bc6b2ab5c732be3097b0ac7f897954fde4420fdcf9de71f8df467c9a907f3890610922908890889088908890889088909586526020860194909452600292830b6040860152910b606084015263ffffffff1660808301526001600160a01b031660a082015260c00190565b60405180910390a1505050505050565b336109456006546001600160a01b031690565b6001600160a01b03161461096b5760405162461bcd60e51b815260040161076090614944565b6006546040516000916001600160a01b0316907f8be0079c531659141344cd1fd0a4f28419497f9722a3daafe3b4186f6b6457e0908390a3600680546001600160a01b0319169055565b6001600160a01b0381166000908152600560205260408120545b92915050565b3360009081526001602090815260408083206001600160a01b038616845290915281205482811015610a575760405162461bcd60e51b815260206004820152602560248201527f45524332303a2064656372656173656420616c6c6f77616e63652062656c6f77604482015264207a65726f60d81b6064820152608401610760565b610a6633856107788685614c10565b5060019392505050565b60006106c9338484611e14565b600080600060026007541415610ad55760405162461bcd60e51b815260206004820152601f60248201527f5265656e7472616e637947756172643a207265656e7472616e742063616c6c006044820152606401610760565b60026007556001600160801b038516610aed57600080fd5b60007f00000000000000000000000000000000000000000000000000000000000000006001600160a01b031663514ea4bf610b26612198565b6040518263ffffffff1660e01b8152600401610b4491815260200190565b60a06040518083038186803b158015610b5c57600080fd5b505afa158015610b70573d6000803e3d6000fd5b505050506040513d601f19601f82011682018060405250810190610b94919061450e565b5050505090506000610ba560025490565b90508015610bdb57816001600160801b031681886001600160801b0316610bcc9190614afe565b610bd69190614abb565b610be6565b866001600160801b03165b9250610bf28382614a3f565b6008541015610c435760405162461bcd60e51b815260206004820181905260248201527f47656c61746f556e695633506f6f6c2e6d696e743a205f737570706c794361706044820152606401610760565b6040516370a0823160e01b81523060048201526000907f00000000000000000000000000000000000000000000000000000000000000006001600160a01b0316906370a082319060240160206040518083038186803b158015610ca557600080fd5b505afa158015610cb9573d6000803e3d6000fd5b505050506040513d601f19601f82011682018060405250810190610cdd91906146b0565b905060008115610d1357836001600160801b0316828a6001600160801b0316610d069190614afe565b610d109190614abb565b90505b8015610d4e57610d4e6001600160a01b037f0000000000000000000000000000000000000000000000000000000000000000168930846121fc565b6040516370a0823160e01b81523060048201526000907f00000000000000000000000000000000000000000000000000000000000000006001600160a01b0316906370a082319060240160206040518083038186803b158015610db057600080fd5b505afa158015610dc4573d6000803e3d6000fd5b505050506040513d601f19601f82011682018060405250810190610de891906146b0565b905060008115610e1e57856001600160801b0316828c6001600160801b0316610e119190614afe565b610e1b9190614abb565b90505b8015610e5957610e596001600160a01b037f0000000000000000000000000000000000000000000000000000000000000000168b30846121fc565b7f00000000000000000000000000000000000000000000000000000000000000006001600160a01b0316633c8a7d8d30600b60009054906101000a900460020b600b60039054906101000a900460020b8f8f604051602001610eca91906001600160a01b0391909116815260200190565b6040516020818303038152906040526040518663ffffffff1660e01b8152600401610ef995949392919061481f565b6040805180830381600087803b158015610f1257600080fd5b505af1158015610f26573d6000803e3d6000fd5b505050506040513d601f19601f82011682018060405250810190610f4a919061444f565b9099509750610f598a88612267565b610f63838a614a3f565b9850610f6f8189614a3f565b604080516001600160a01b038d168152602081018a90529081018b9052606081018290529098507f5a3358a3d27a5373c0df2604662088d37894d56b7cfd27f315770440f4e0d9199060800160405180910390a1505042600d555050600160075550929591945092509050565b600654600160a81b900460ff1680610ffe5750600654600160a01b900460ff16155b6110615760405162461bcd60e51b815260206004820152602e60248201527f496e697469616c697a61626c653a20636f6e747261637420697320616c72656160448201526d191e481a5b9a5d1a585b1a5e995960921b6064820152608401610760565b600654600160a81b900460ff1615801561108b576006805461ffff60a01b191661010160a01b1790555b336001600160a01b037f0000000000000000000000000000000000000000000000000000000000000000161461111c5760405162461bcd60e51b815260206004820152603060248201527f47656c61746f556e695633506f6f6c53746f726167652e696e697469616c697a60448201526f329d1037b7363c903232b83637bcb2b960811b6064820152608401610760565b600885905562015180600955600a80546a050000012c001b580000786001600160f01b0319909116179055600b8054600285810b62ffffff90811663010000000265ffffffffffff19939093169188900b1617179055600680546001600160a01b0384166001600160a01b031990911617905580156111a3576006805460ff60a81b191690555b5050505050565b6000806111b986868686612346565b915091505b94509492505050565b336001600160a01b037f000000000000000000000000000000000000000000000000000000000000000016146111fc57600080fd5b600061120a828401846141cc565b90506001600160a01b038116301415611296578415611257576112576001600160a01b037f00000000000000000000000000000000000000000000000000000000000000001633876123e2565b8315611291576112916001600160a01b037f00000000000000000000000000000000000000000000000000000000000000001633866123e2565b6111a3565b84156112d1576112d16001600160a01b037f0000000000000000000000000000000000000000000000000000000000000000168233886121fc565b83156111a3576111a36001600160a01b037f0000000000000000000000000000000000000000000000000000000000000000168233876121fc565b8342111561135c5760405162461bcd60e51b815260206004820152601d60248201527f45524332305065726d69743a206578706972656420646561646c696e650000006044820152606401610760565b60007f00000000000000000000000000000000000000000000000000000000000000008888886113a98c6001600160a01b0316600090815260056020526040902080546001810190915590565b6040805160208101969096526001600160a01b0394851690860152929091166060840152608083015260a082015260c0810186905260e001604051602081830303815290604052805190602001209050600061140482612417565b9050600061141482878787612465565b9050896001600160a01b0316816001600160a01b0316146114775760405162461bcd60e51b815260206004820152601e60248201527f45524332305065726d69743a20696e76616c6964207369676e617475726500006044820152606401610760565b6114828a8a8a611cef565b50505050505050505050565b6000610794612198565b8181336001600160a01b037f000000000000000000000000000000000000000000000000000000000000000016146115125760405162461bcd60e51b815260206004820152601760248201527f47656c61746f666965643a204f6e6c792067656c61746f0000000000000000006044820152606401610760565b611520888888888888612605565b42600c556040805160028a810b825289900b60208201527fa40d93a72f8af7b904f2e4a60095955bfcaa3c724969f731bd8bc1fda226a171910160405180910390a16001600160a01b03811673eeeeeeeeeeeeeeeeeeeeeeeeeeeeeeeeeeeeeeee14156115bf576115ba6001600160a01b037f00000000000000000000000000000000000000000000000000000000000000001683612beb565b6115f3565b6115f36001600160a01b0382167f0000000000000000000000000000000000000000000000000000000000000000846123e2565b5050505050505050565b336116106006546001600160a01b031690565b6001600160a01b0316146116365760405162461bcd60e51b815260040161076090614944565b6001600160a01b03811661169b5760405162461bcd60e51b815260206004820152602660248201527f4f776e61626c653a206e6577206f776e657220697320746865207a65726f206160448201526564647265737360d01b6064820152608401610760565b6006546040516001600160a01b038084169216907f8be0079c531659141344cd1fd0a4f28419497f9722a3daafe3b4186f6b6457e090600090a3600680546001600160a01b0319166001600160a01b0392909216919091179055565b336001600160a01b037f0000000000000000000000000000000000000000000000000000000000000000161461172c57600080fd5b600084131561176e576117696001600160a01b037f00000000000000000000000000000000000000000000000000000000000000001633866123e2565b6117ab565b60008313156117ab576117ab6001600160a01b037f00000000000000000000000000000000000000000000000000000000000000001633856123e2565b50505050565b6000806000600260075414156118095760405162461bcd60e51b815260206004820152601f60248201527f5265656e7472616e637947756172643a207265656e7472616e742063616c6c006044820152606401610760565b60026007558461181857600080fd5b600061182360025490565b905060007f00000000000000000000000000000000000000000000000000000000000000006001600160a01b031663514ea4bf61185e612198565b6040518263ffffffff1660e01b815260040161187c91815260200190565b60a06040518083038186803b15801561189457600080fd5b505afa1580156118a8573d6000803e3d6000fd5b505050506040513d601f19601f820116820180604052508101906118cc919061450e565b5050505090506118dc8688612d04565b6000826118f26001600160801b0384168a614afe565b6118fc9190614abb565b90506001600160801b03811061191157600080fd5b600b5460405163a34123a760e01b8152600282810b810b60048301526301000000909204820b90910b60248201526001600160801b038216604482015290935083907f00000000000000000000000000000000000000000000000000000000000000006001600160a01b03169063a34123a7906064016040805180830381600087803b1580156119a057600080fd5b505af11580156119b4573d6000803e3d6000fd5b505050506040513d601f19601f820116820180604052508101906119d8919061444f565b600b546040516309e3d67b60e31b81529298509096506001600160a01b037f00000000000000000000000000000000000000000000000000000000000000001691634f1eb3d891611a42918b91600281810b926301000000909204900b908c908c90600401614861565b6040805180830381600087803b158015611a5b57600080fd5b505af1158015611a6f573d6000803e3d6000fd5b505050506040513d601f19601f82011682018060405250810190611a9391906144e0565b50506040516370a0823160e01b815230600482015260009084906001600160a01b037f000000000000000000000000000000000000000000000000000000000000000016906370a082319060240160206040518083038186803b158015611af957600080fd5b505afa158015611b0d573d6000803e3d6000fd5b505050506040513d601f19601f82011682018060405250810190611b3191906146b0565b611b3b908b614afe565b611b459190614abb565b90508015611b8157611b816001600160a01b037f00000000000000000000000000000000000000000000000000000000000000001689836123e2565b6040516370a0823160e01b815230600482015260009085906001600160a01b037f000000000000000000000000000000000000000000000000000000000000000016906370a082319060240160206040518083038186803b158015611be557600080fd5b505afa158015611bf9573d6000803e3d6000fd5b505050506040513d601f19601f82011682018060405250810190611c1d91906146b0565b611c27908c614afe565b611c319190614abb565b90508015611c6d57611c6d6001600160a01b037f0000000000000000000000000000000000000000000000000000000000000000168a836123e2565b611c778289614a3f565b9750611c838188614a3f565b604080516001600160a01b038c168152602081018d90529081018a9052606081018290529097507f4c60206a5c1de41f3376d1d60f0949d96cb682033c90b1c2d9d9a62d4c4120c09060800160405180910390a1505042600d5550506001600755509194909350909150565b6001600160a01b038316611d515760405162461bcd60e51b8152602060048201526024808201527f45524332303a20617070726f76652066726f6d20746865207a65726f206164646044820152637265737360e01b6064820152608401610760565b6001600160a01b038216611db25760405162461bcd60e51b815260206004820152602260248201527f45524332303a20617070726f766520746f20746865207a65726f206164647265604482015261737360f01b6064820152608401610760565b6001600160a01b0383811660008181526001602090815260408083209487168084529482529182902085905590518481527f8c5be1e5ebec7d5bd14f71427d1e84f3dd0314c0f7b2291e5b200ac8c7c3b92591015b60405180910390a3505050565b6001600160a01b038316611e785760405162461bcd60e51b815260206004820152602560248201527f45524332303a207472616e736665722066726f6d20746865207a65726f206164604482015264647265737360d81b6064820152608401610760565b6001600160a01b038216611eda5760405162461bcd60e51b815260206004820152602360248201527f45524332303a207472616e7366657220746f20746865207a65726f206164647260448201526265737360e81b6064820152608401610760565b6001600160a01b03831660009081526020819052604090205481811015611f525760405162461bcd60e51b815260206004820152602660248201527f45524332303a207472616e7366657220616d6f756e7420657863656564732062604482015265616c616e636560d01b6064820152608401610760565b611f5c8282614c10565b6001600160a01b038086166000908152602081905260408082209390935590851681529081208054849290611f92908490614a3f565b92505081905550826001600160a01b0316846001600160a01b03167fddf252ad1be2c89b69c2b068fc378daa952ba7f163c4a11628f55a4df523b3ef84604051611fde91815260200190565b60405180910390a350505050565b60007f000000000000000000000000000000000000000000000000000000000000000046141561203b57507f000000000000000000000000000000000000000000000000000000000000000090565b50604080517f00000000000000000000000000000000000000000000000000000000000000006020808301919091527f0000000000000000000000000000000000000000000000000000000000000000828401527f000000000000000000000000000000000000000000000000000000000000000060608301524660808301523060a0808401919091528351808403909101815260c0909201909252805191012090565b6000836001600160a01b0316856001600160a01b031611156120ff579293925b846001600160a01b0316866001600160a01b0316101561212b57612124858585612e53565b90506107e2565b836001600160a01b0316866001600160a01b0316101561218d576000612152878686612e53565b90506000612161878986612ebd565b9050806001600160801b0316826001600160801b0316106121825780612184565b815b925050506107e2565b6107df858584612ebd565b600b546040516bffffffffffffffffffffffff193060601b166020820152600282810b810b60e890811b60348401526301000000909304810b900b90911b6037820152600090603a0160405160208183030381529060405280519060200120905090565b6040516001600160a01b03808516602483015283166044820152606481018290526117ab9085906323b872dd60e01b906084015b60408051601f198184030181529190526020810180516001600160e01b03166001600160e01b031990931692909217909152612efb565b6001600160a01b0382166122bd5760405162461bcd60e51b815260206004820152601f60248201527f45524332303a206d696e7420746f20746865207a65726f2061646472657373006044820152606401610760565b80600260008282546122cf9190614a3f565b90915550506001600160a01b038216600090815260208190526040812080548392906122fc908490614a3f565b90915550506040518181526001600160a01b038316906000907fddf252ad1be2c89b69c2b068fc378daa952ba7f163c4a11628f55a4df523b3ef9060200160405180910390a35050565b600080836001600160a01b0316856001600160a01b03161115612367579293925b846001600160a01b0316866001600160a01b031610156123935761238c858585612fcd565b91506111be565b836001600160a01b0316866001600160a01b031610156123cc576123b8868585612fcd565b91506123c5858785613040565b90506111be565b6123d7858585613040565b905094509492505050565b6040516001600160a01b03831660248201526044810182905261241290849063a9059cbb60e01b90606401612230565b505050565b60006109cf612424611fec565b8360405161190160f01b6020820152602281018390526042810182905260009060620160405160208183030381529060405280519060200120905092915050565b60007f7fffffffffffffffffffffffffffffff5d576e7357a4501ddfe92f46681b20a08211156124e25760405162461bcd60e51b815260206004820152602260248201527f45434453413a20696e76616c6964207369676e6174757265202773272076616c604482015261756560f01b6064820152608401610760565b8360ff16601b14806124f757508360ff16601c145b61254e5760405162461bcd60e51b815260206004820152602260248201527f45434453413a20696e76616c6964207369676e6174757265202776272076616c604482015261756560f01b6064820152608401610760565b6040805160008082526020820180845288905260ff871692820192909252606081018590526080810184905260019060a0016020604051602081039080840390855afa1580156125a2573d6000803e3d6000fd5b5050604051601f1901519150506001600160a01b0381166107e25760405162461bcd60e51b815260206004820152601860248201527f45434453413a20696e76616c6964207369676e617475726500000000000000006044820152606401610760565b60008060007f00000000000000000000000000000000000000000000000000000000000000006001600160a01b031663514ea4bf612641612198565b6040518263ffffffff1660e01b815260040161265f91815260200190565b60a06040518083038186803b15801561267757600080fd5b505afa15801561268b573d6000803e3d6000fd5b505050506040513d601f19601f820116820180604052508101906126af919061450e565b5050600b549293506126d492600281810b93506301000000909104900b90508361308a565b6040516370a0823160e01b81523060048201526000907f00000000000000000000000000000000000000000000000000000000000000006001600160a01b0316906370a082319060240160206040518083038186803b15801561273657600080fd5b505afa15801561274a573d6000803e3d6000fd5b505050506040513d601f19601f8201168201806040525081019061276e91906146b0565b6040516370a0823160e01b81523060048201529091506000906001600160a01b037f000000000000000000000000000000000000000000000000000000000000000016906370a082319060240160206040518083038186803b1580156127d357600080fd5b505afa1580156127e7573d6000803e3d6000fd5b505050506040513d601f19601f8201168201806040525081019061280b91906146b0565b90507f00000000000000000000000000000000000000000000000000000000000000006001600160a01b0316866001600160a01b03161461284c5781612856565b6128568783614c10565b94507f00000000000000000000000000000000000000000000000000000000000000006001600160a01b0316866001600160a01b03161461289757806128a1565b6128a18782614c10565b935050505060007f00000000000000000000000000000000000000000000000000000000000000006001600160a01b0316633850c7bd6040518163ffffffff1660e01b815260040160e06040518083038186803b15801561290157600080fd5b505afa158015612915573d6000803e3d6000fd5b505050506040513d601f19601f82011682018060405250810190612939919061456f565b5050505050915050600954600c546129519190614a3f565b421015612a0857600b5463010000009004600290810b810b9082900b13806129845750600b54600290810b810b9082900b125b612a085760405162461bcd60e51b815260206004820152604960248201527f47656c61746f556e695633506f6f6c2e5f61646a75737443757272656e74506f60448201527f6f6c3a207072696365207374696c6c20696e2072616e676520616e64206e6f206064820152681a19585c9d1899585d60ba1b608482015260a401610760565b600a54612a189060020b82614b1d565b60020b8960020b13158015612a495750600a54612a3f906301000000900460020b82614b1d565b60020b8960020b12155b612abb5760405162461bcd60e51b815260206004820152603a60248201527f47656c61746f556e695633506f6f6c2e5f61646a75737443757272656e74506f60448201527f6f6c3a206c6f7765725469636b206f7574206f662072616e67650000000000006064820152608401610760565b600a54612ad2906301000000900460020b826149ce565b60020b8860020b13158015612afc5750600a54612af29060020b826149ce565b60020b8860020b12155b612b6e5760405162461bcd60e51b815260206004820152603a60248201527f47656c61746f556e695633506f6f6c2e5f61646a75737443757272656e74506f60448201527f6f6c3a2075707065725469636b206f7574206f662072616e67650000000000006064820152608401610760565b600b5460028a810b91810b900b14612b9857600b805462ffffff191662ffffff60028c900b161790555b600b54600289810b6301000000909204810b900b14612bd257600b805465ffffff0000001916630100000062ffffff60028c900b16021790555b612be0898985858b8b6131eb565b505050505050505050565b80471015612c3b5760405162461bcd60e51b815260206004820152601d60248201527f416464726573733a20696e73756666696369656e742062616c616e63650000006044820152606401610760565b6000826001600160a01b03168260405160006040518083038185875af1925050503d8060008114612c88576040519150601f19603f3d011682016040523d82523d6000602084013e612c8d565b606091505b50509050806124125760405162461bcd60e51b815260206004820152603a60248201527f416464726573733a20756e61626c6520746f2073656e642076616c75652c207260448201527f6563697069656e74206d617920686176652072657665727465640000000000006064820152608401610760565b6001600160a01b038216612d645760405162461bcd60e51b815260206004820152602160248201527f45524332303a206275726e2066726f6d20746865207a65726f206164647265736044820152607360f81b6064820152608401610760565b6001600160a01b03821660009081526020819052604090205481811015612dd85760405162461bcd60e51b815260206004820152602260248201527f45524332303a206275726e20616d6f756e7420657863656564732062616c616e604482015261636560f01b6064820152608401610760565b612de28282614c10565b6001600160a01b03841660009081526020819052604081209190915560028054849290612e10908490614c10565b90915550506040518281526000906001600160a01b038516907fddf252ad1be2c89b69c2b068fc378daa952ba7f163c4a11628f55a4df523b3ef90602001611e07565b6000826001600160a01b0316846001600160a01b03161115612e73579192915b6000612e96856001600160a01b0316856001600160a01b0316600160601b613423565b90506107e2612eb88483612eaa8989614be8565b6001600160a01b0316613423565b6135a8565b6000826001600160a01b0316846001600160a01b03161115612edd579192915b612ef3612eb883600160601b612eaa8888614be8565b949350505050565b6000612f50826040518060400160405280602081526020017f5361666545524332303a206c6f772d6c6576656c2063616c6c206661696c6564815250856001600160a01b03166135c39092919063ffffffff16565b8051909150156124125780806020019051810190612f6e91906143c6565b6124125760405162461bcd60e51b815260206004820152602a60248201527f5361666545524332303a204552433230206f7065726174696f6e20646964206e6044820152691bdd081cdd58d8d9595960b21b6064820152608401610760565b6000826001600160a01b0316846001600160a01b03161115612fed579192915b6001600160a01b0384166130366fffffffffffffffffffffffffffffffff60601b606085901b1661301e8787614be8565b6001600160a01b0316866001600160a01b0316613423565b612ef39190614abb565b6000826001600160a01b0316846001600160a01b03161115613060579192915b612ef36001600160801b0383166130778686614be8565b6001600160a01b0316600160601b613423565b60405163a34123a760e01b8152600284810b600483015283900b60248201526001600160801b03821660448201527f00000000000000000000000000000000000000000000000000000000000000006001600160a01b03169063a34123a7906064016040805180830381600087803b15801561310557600080fd5b505af1158015613119573d6000803e3d6000fd5b505050506040513d601f19601f8201168201806040525081019061313d919061444f565b50506040516309e3d67b60e31b81526001600160a01b037f00000000000000000000000000000000000000000000000000000000000000001690634f1eb3d89061319a903090879087906001600160801b03908190600401614861565b6040805180830381600087803b1580156131b357600080fd5b505af11580156131c7573d6000803e3d6000fd5b505050506040513d601f19601f820116820180604052508101906111a391906144e0565b60007f00000000000000000000000000000000000000000000000000000000000000006001600160a01b0316633850c7bd6040518163ffffffff1660e01b815260040160e06040518083038186803b15801561324657600080fd5b505afa15801561325a573d6000803e3d6000fd5b505050506040513d601f19601f8201168201806040525081019061327e919061456f565b50505050505090506000851180156132965750600084115b156133b95760006132c0826132ad8a60020b6135d2565b6132b98a60020b6135d2565b89896120df565b90506000807f00000000000000000000000000000000000000000000000000000000000000006001600160a01b0316633c8a7d8d308c8c873060405160200161331891906001600160a01b0391909116815260200190565b6040516020818303038152906040526040518663ffffffff1660e01b815260040161334795949392919061481f565b6040805180830381600087803b15801561336057600080fd5b505af1158015613374573d6000803e3d6000fd5b505050506040513d601f19601f82011682018060405250810190613398919061444f565b90925090506133a78289614c10565b97506133b38188614c10565b96505050505b60008511806133c85750600084115b1561341a578385116133da84826139e7565b600061271084836133eb57876133ed565b885b6133f79190614afe565b6134019190614abb565b905061341289898989858a88613cfa565b909750955050505b50505050505050565b60008080600019858709858702925082811083820303915050806000141561345d576000841161345257600080fd5b508290049050610783565b80841161346957600080fd5b60008486880980840393811190920391905060008561348a81600019614c10565b613495906001614a3f565b169586900495938490049360008190030460010190506134b58184614afe565b9093179260006134c6876003614afe565b60021890506134d58188614afe565b6134e0906002614c10565b6134ea9082614afe565b90506134f68188614afe565b613501906002614c10565b61350b9082614afe565b90506135178188614afe565b613522906002614c10565b61352c9082614afe565b90506135388188614afe565b613543906002614c10565b61354d9082614afe565b90506135598188614afe565b613564906002614c10565b61356e9082614afe565b905061357a8188614afe565b613585906002614c10565b61358f9082614afe565b905061359b8186614afe565b9998505050505050505050565b806001600160801b03811681146135be57600080fd5b919050565b6060612ef38484600085613f8a565b60008060008360020b126135e9578260020b6135f6565b8260020b6135f690614c88565b9050613605620d89e719614c67565b60020b81111561363b5760405162461bcd60e51b81526020600482015260016024820152601560fa1b6044820152606401610760565b60006001821661364f57600160801b613661565b6ffffcb933bd6fad37aa2d162d1a5940015b70ffffffffffffffffffffffffffffffffff16905060028216156136a057608061369b826ffff97272373d413259a46990580e213a614afe565b901c90505b60048216156136ca5760806136c5826ffff2e50f5f656932ef12357cf3c7fdcc614afe565b901c90505b60088216156136f45760806136ef826fffe5caca7e10e4e61c3624eaa0941cd0614afe565b901c90505b601082161561371e576080613719826fffcb9843d60f6159c9db58835c926644614afe565b901c90505b6020821615613748576080613743826fff973b41fa98c081472e6896dfb254c0614afe565b901c90505b604082161561377257608061376d826fff2ea16466c96a3843ec78b326b52861614afe565b901c90505b608082161561379c576080613797826ffe5dee046a99a2a811c461f1969c3053614afe565b901c90505b6101008216156137c75760806137c2826ffcbe86c7900a88aedcffc83b479aa3a4614afe565b901c90505b6102008216156137f25760806137ed826ff987a7253ac413176f2b074cf7815e54614afe565b901c90505b61040082161561381d576080613818826ff3392b0822b70005940c7a398e4b70f3614afe565b901c90505b610800821615613848576080613843826fe7159475a2c29b7443b29c7fa6e889d9614afe565b901c90505b61100082161561387357608061386e826fd097f3bdfd2022b8845ad8f792aa5825614afe565b901c90505b61200082161561389e576080613899826fa9f746462d870fdf8a65dc1f90e061e5614afe565b901c90505b6140008216156138c95760806138c4826f70d869a156d2a1b890bb3df62baf32f7614afe565b901c90505b6180008216156138f45760806138ef826f31be135f97d08fd981231505542fcfa6614afe565b901c90505b6201000082161561392057608061391b826f09aa508b5b7a84e1c677de54f3e99bc9614afe565b901c90505b6202000082161561394b576080613946826e5d6af8dedb81196699c329225ee604614afe565b901c90505b62040000821615613975576080613970826d2216e584f5fa1ea926041bedfe98614afe565b901c90505b6208000082161561399d576080613998826b048a170391f7dc42444e8fa2614afe565b901c90505b60008460020b13156139b8576139b581600019614abb565b90505b6139c764010000000082614c53565b156139d35760016139d6565b60005b612ef39060ff16602083901c614a3f565b604080516002808252606082018352600092602083019080368337019050509050600a60069054906101000a900463ffffffff1681600081518110613a3c57634e487b7160e01b600052603260045260246000fd5b602002602001019063ffffffff16908163ffffffff1681525050600081600181518110613a7957634e487b7160e01b600052603260045260246000fd5b63ffffffff9092166020928302919091019091015260405163883bdbfd60e01b81526000906001600160a01b037f0000000000000000000000000000000000000000000000000000000000000000169063883bdbfd90613add90859060040161489e565b60006040518083038186803b158015613af557600080fd5b505afa158015613b09573d6000803e3d6000fd5b505050506040513d6000823e601f3d908101601f19168201604052613b3191908101906142fb565b5090508051600214613b855760405162461bcd60e51b815260206004820152601f60248201527f756e6578706563746564206c656e677468206f66207469636b206172726179006044820152606401610760565b600a548151600091600160301b900463ffffffff169083908390613bb957634e487b7160e01b600052603260045260246000fd5b602002602001015183600181518110613be257634e487b7160e01b600052603260045260246000fd5b6020026020010151613bf49190614ba3565b613bfe9190614a57565b90506000613c0e8260020b6135d2565b905060006064600a8054906101000a90046001600160a01b031683613c339190614acf565b613c3d9190614a95565b90508515613ca257816001600160a01b0316876001600160a01b0316108015613c815750613c6b8183614be8565b6001600160a01b0316876001600160a01b031610155b613c9d5760405162461bcd60e51b8152600401610760906148fb565b61341a565b816001600160a01b0316876001600160a01b0316118015613cde5750613cc88183614a14565b6001600160a01b0316876001600160a01b031611155b61341a5760405162461bcd60e51b8152600401610760906148fb565b6000806000807f00000000000000000000000000000000000000000000000000000000000000006001600160a01b031663128acb0830878a8a30604051602001613d5391906001600160a01b0391909116815260200190565b6040516020818303038152906040526040518663ffffffff1660e01b8152600401613d829594939291906147e4565b6040805180830381600087803b158015613d9b57600080fd5b505af1158015613daf573d6000803e3d6000fd5b505050506040513d601f19601f82011682018060405250810190613dd3919061444f565b9092509050613de2828a614b64565b9350613dee8189614b64565b925060007f00000000000000000000000000000000000000000000000000000000000000006001600160a01b0316633850c7bd6040518163ffffffff1660e01b815260040160e06040518083038186803b158015613e4b57600080fd5b505afa158015613e5f573d6000803e3d6000fd5b505050506040513d601f19601f82011682018060405250810190613e83919061456f565b50505050505090506000613ea382613e9a8f6135d2565b6132b98f6135d2565b90507f00000000000000000000000000000000000000000000000000000000000000006001600160a01b0316633c8a7d8d308f8f8530604051602001613ef891906001600160a01b0391909116815260200190565b6040516020818303038152906040526040518663ffffffff1660e01b8152600401613f2795949392919061481f565b6040805180830381600087803b158015613f4057600080fd5b505af1158015613f54573d6000803e3d6000fd5b505050506040513d601f19601f82011682018060405250810190613f78919061444f565b50505050505097509795505050505050565b606082471015613feb5760405162461bcd60e51b815260206004820152602660248201527f416464726573733a20696e73756666696369656e742062616c616e636520666f6044820152651c8818d85b1b60d21b6064820152608401610760565b843b6140395760405162461bcd60e51b815260206004820152601d60248201527f416464726573733a2063616c6c20746f206e6f6e2d636f6e74726163740000006044820152606401610760565b600080866001600160a01b0316858760405161405591906147c8565b60006040518083038185875af1925050503d8060008114614092576040519150601f19603f3d011682016040523d82523d6000602084013e614097565b606091505b50915091506140a78282866140b2565b979650505050505050565b606083156140c1575081610783565b8251156140d15782518084602001fd5b8160405162461bcd60e51b815260040161076091906148e8565b600082601f8301126140fb578081fd5b8151602061411061410b836149aa565b614979565b80838252828201915082860187848660051b890101111561412f578586fd5b855b8581101561415657815161414481614ce4565b84529284019290840190600101614131565b5090979650505050505050565b805180151581146135be57600080fd5b60008083601f840112614184578182fd5b50813567ffffffffffffffff81111561419b578182fd5b6020830191508360208285010111156141b357600080fd5b9250929050565b805161ffff811681146135be57600080fd5b6000602082840312156141dd578081fd5b813561078381614ce4565b600080604083850312156141fa578081fd5b823561420581614ce4565b9150602083013561421581614ce4565b809150509250929050565b600080600060608486031215614234578081fd5b833561423f81614ce4565b9250602084013561424f81614ce4565b929592945050506040919091013590565b600080600080600080600060e0888a03121561427a578283fd5b873561428581614ce4565b9650602088013561429581614ce4565b9550604088013594506060880135935060808801356142b381614d20565b9699959850939692959460a0840135945060c09093013592915050565b600080604083850312156142e2578182fd5b82356142ed81614ce4565b946020939093013593505050565b6000806040838503121561430d578182fd5b825167ffffffffffffffff80821115614324578384fd5b818501915085601f830112614337578384fd5b8151602061434761410b836149aa565b8083825282820191508286018a848660051b8901011115614366578889fd5b8896505b848710156143965780518060060b811461438257898afd5b83526001969096019591830191830161436a565b50918801519196509093505050808211156143af578283fd5b506143bc858286016140eb565b9150509250929050565b6000602082840312156143d7578081fd5b61078382614163565b60008060008060008060c087890312156143f8578384fd5b863561440381614cfc565b9550602087013561441381614cfc565b9450604087013561442381614ce4565b9350606087013592506080870135915060a087013561444181614ce4565b809150509295509295509295565b60008060408385031215614461578182fd5b505080516020909101519092909150565b60008060008060608587031215614487578182fd5b8435935060208501359250604085013567ffffffffffffffff8111156144ab578283fd5b6144b787828801614173565b95989497509550505050565b600080604083850312156144d5578182fd5b823561420581614d0b565b600080604083850312156144f2578182fd5b82516144fd81614d0b565b602084015190925061421581614d0b565b600080600080600060a08688031215614525578283fd5b855161453081614d0b565b809550506020860151935060408601519250606086015161455081614d0b565b608087015190925061456181614d0b565b809150509295509295909350565b600080600080600080600060e0888a031215614589578081fd5b875161459481614ce4565b60208901519097506145a581614cfc565b95506145b3604089016141ba565b94506145c1606089016141ba565b93506145cf608089016141ba565b925060a08801516145df81614d20565b91506145ed60c08901614163565b905092959891949750929550565b60008060008060808587031215614610578182fd5b843561461b81614ce4565b9350602085013561462b81614ce4565b9250604085013561463b81614ce4565b9150606085013561464b81614d0b565b939692955090935050565b600080600080600060a0868803121561466d578283fd5b853561467881614ce4565b9450602086013561468881614ce4565b9350604086013561469881614ce4565b94979396509394606081013594506080013592915050565b6000602082840312156146c1578081fd5b5051919050565b600080604083850312156146da578182fd5b82359150602083013561421581614ce4565b60008060008060808587031215614701578182fd5b84359350602085013561471381614cfc565b9250604085013561472381614cfc565b9150606085013561464b81614ce4565b60008060008060008060c0878903121561474b578384fd5b8635955060208701359450604087013561476481614cfc565b9350606087013561477481614cfc565b9250608087013563ffffffff8116811461478c578283fd5b915060a087013561444181614ce4565b600081518084526147b4816020860160208601614c27565b601f01601f19169290920160200192915050565b600082516147da818460208701614c27565b9190910192915050565b6001600160a01b0386811682528515156020830152604082018590528316606082015260a0608082018190526000906140a79083018461479c565b60018060a01b03861681528460020b60208201528360020b60408201526001600160801b038316606082015260a0608082015260006140a760a083018461479c565b6001600160a01b03959095168552600293840b60208601529190920b60408401526001600160801b03918216606084015216608082015260a00190565b6020808252825182820181905260009190848201906040850190845b818110156148dc57835163ffffffff16835292840192918401916001016148ba565b50909695505050505050565b602081526000610783602083018461479c565b60208082526029908201527f736c697070616765207072696365206973206f7574206f662061636365707461604082015268626c652072616e676560b81b606082015260800190565b6020808252818101527f4f776e61626c653a2063616c6c6572206973206e6f7420746865206f776e6572604082015260600190565b604051601f8201601f1916810167ffffffffffffffff811182821017156149a2576149a2614cce565b604052919050565b600067ffffffffffffffff8211156149c4576149c4614cce565b5060051b60200190565b60008160020b8360020b82821282627fffff038213811516156149f3576149f3614ca2565b82627fffff19038212811615614a0b57614a0b614ca2565b50019392505050565b60006001600160a01b03828116848216808303821115614a3657614a36614ca2565b01949350505050565b60008219821115614a5257614a52614ca2565b500190565b60008160060b8360060b80614a6e57614a6e614cb8565b667fffffffffffff19821460001982141615614a8c57614a8c614ca2565b90059392505050565b60006001600160a01b0383811680614aaf57614aaf614cb8565b92169190910492915050565b600082614aca57614aca614cb8565b500490565b60006001600160a01b0382811684821681151582840482111615614af557614af5614ca2565b02949350505050565b6000816000190483118215151615614b1857614b18614ca2565b500290565b60008160020b8360020b82811281627fffff1901831281151615614b4357614b43614ca2565b81627fffff018313811615614b5a57614b5a614ca2565b5090039392505050565b60008083128015600160ff1b850184121615614b8257614b82614ca2565b6001600160ff1b0384018313811615614b9d57614b9d614ca2565b50500390565b60008160060b8360060b82811281667fffffffffffff1901831281151615614bcd57614bcd614ca2565b81667fffffffffffff018313811615614b5a57614b5a614ca2565b60006001600160a01b0383811690831681811015614c0857614c08614ca2565b039392505050565b600082821015614c2257614c22614ca2565b500390565b60005b83811015614c42578181015183820152602001614c2a565b838111156117ab5750506000910152565b600082614c6257614c62614cb8565b500690565b60008160020b627fffff19811415614c8157614c81614ca2565b9003919050565b6000600160ff1b821415614c9e57614c9e614ca2565b0390565b634e487b7160e01b600052601160045260246000fd5b634e487b7160e01b600052601260045260246000fd5b634e487b7160e01b600052604160045260246000fd5b6001600160a01b0381168114614cf957600080fd5b50565b8060020b8114614cf957600080fd5b6001600160801b0381168114614cf957600080fd5b60ff81168114614cf957600080fdfea26469706673582212209996b95a8dbda2169ae9d5023c0b10f53ea20b76e73256a0ec6aa946e4fab00a64736f6c63430008040033",
  "devdoc": {
    "details": "DO NOT ADD STATE VARIABLES - APPEND THEM TO GelatoUniV3PoolStorageDO NOT ADD BASE CONTRACTS WITH STATE VARS - APPEND THEM TO GelatoUniV3PoolStorage",
    "kind": "dev",
    "methods": {
      "DOMAIN_SEPARATOR()": {
        "details": "See {IERC20Permit-DOMAIN_SEPARATOR}."
      },
      "allowance(address,address)": {
        "details": "See {IERC20-allowance}."
      },
      "approve(address,uint256)": {
        "details": "See {IERC20-approve}. Requirements: - `spender` cannot be the zero address."
      },
      "balanceOf(address)": {
        "details": "See {IERC20-balanceOf}."
      },
      "decimals()": {
        "details": "Returns the number of decimals used to get its user representation. For example, if `decimals` equals `2`, a balance of `505` tokens should be displayed to a user as `5,05` (`505 / 10 ** 2`). Tokens usually opt for a value of 18, imitating the relationship between Ether and Wei. This is the value {ERC20} uses, unless this function is overridden; NOTE: This information is only used for _display_ purposes: it in no way affects any of the arithmetic of the contract, including {IERC20-balanceOf} and {IERC20-transfer}."
      },
      "decreaseAllowance(address,uint256)": {
        "details": "Atomically decreases the allowance granted to `spender` by the caller. This is an alternative to {approve} that can be used as a mitigation for problems described in {IERC20-approve}. Emits an {Approval} event indicating the updated allowance. Requirements: - `spender` cannot be the zero address. - `spender` must have allowance for the caller of at least `subtractedValue`."
      },
      "increaseAllowance(address,uint256)": {
        "details": "Atomically increases the allowance granted to `spender` by the caller. This is an alternative to {approve} that can be used as a mitigation for problems described in {IERC20-approve}. Emits an {Approval} event indicating the updated allowance. Requirements: - `spender` cannot be the zero address."
      },
      "name()": {
        "details": "Returns the name of the token."
      },
      "nonces(address)": {
        "details": "See {IERC20Permit-nonces}."
      },
      "owner()": {
        "details": "Returns the address of the current owner."
      },
      "permit(address,address,uint256,uint256,uint8,bytes32,bytes32)": {
        "details": "See {IERC20Permit-permit}."
      },
      "renounceOwnership()": {
        "details": "Leaves the contract without owner. It will not be possible to call `onlyOwner` functions anymore. Can only be called by the current owner. NOTE: Renouncing ownership will leave the contract without an owner, thereby removing any functionality that is only available to the owner."
      },
      "symbol()": {
        "details": "Returns the symbol of the token, usually a shorter version of the name."
      },
      "totalSupply()": {
        "details": "See {IERC20-totalSupply}."
      },
      "transfer(address,uint256)": {
        "details": "See {IERC20-transfer}. Requirements: - `recipient` cannot be the zero address. - the caller must have a balance of at least `amount`."
      },
      "transferFrom(address,address,uint256)": {
        "details": "See {IERC20-transferFrom}. Emits an {Approval} event indicating the updated allowance. This is not required by the EIP. See the note at the beginning of {ERC20}. Requirements: - `sender` and `recipient` cannot be the zero address. - `sender` must have a balance of at least `amount`. - the caller must have allowance for ``sender``'s tokens of at least `amount`."
      },
      "transferOwnership(address)": {
        "details": "Transfers ownership of the contract to a new account (`newOwner`). Can only be called by the current owner."
      }
    },
    "version": 1
  },
  "userdoc": {
    "kind": "user",
    "methods": {},
    "version": 1
  },
  "storageLayout": {
    "storage": [
      {
        "astId": 101,
        "contract": "contracts/GelatoUniV3Pool.sol:GelatoUniV3Pool",
        "label": "_balances",
        "offset": 0,
        "slot": "0",
        "type": "t_mapping(t_address,t_uint256)"
      },
      {
        "astId": 107,
        "contract": "contracts/GelatoUniV3Pool.sol:GelatoUniV3Pool",
        "label": "_allowances",
        "offset": 0,
        "slot": "1",
        "type": "t_mapping(t_address,t_mapping(t_address,t_uint256))"
      },
      {
        "astId": 109,
        "contract": "contracts/GelatoUniV3Pool.sol:GelatoUniV3Pool",
        "label": "_totalSupply",
        "offset": 0,
        "slot": "2",
        "type": "t_uint256"
      },
      {
        "astId": 111,
        "contract": "contracts/GelatoUniV3Pool.sol:GelatoUniV3Pool",
        "label": "_name",
        "offset": 0,
        "slot": "3",
        "type": "t_string_storage"
      },
      {
        "astId": 113,
        "contract": "contracts/GelatoUniV3Pool.sol:GelatoUniV3Pool",
        "label": "_symbol",
        "offset": 0,
        "slot": "4",
        "type": "t_string_storage"
      },
      {
        "astId": 718,
        "contract": "contracts/GelatoUniV3Pool.sol:GelatoUniV3Pool",
        "label": "_nonces",
        "offset": 0,
        "slot": "5",
        "type": "t_mapping(t_address,t_struct(Counter)1449_storage)"
      },
      {
        "astId": 4551,
        "contract": "contracts/GelatoUniV3Pool.sol:GelatoUniV3Pool",
        "label": "_owner",
        "offset": 0,
        "slot": "6",
        "type": "t_address"
      },
      {
        "astId": 5,
        "contract": "contracts/GelatoUniV3Pool.sol:GelatoUniV3Pool",
        "label": "_initialized",
        "offset": 20,
        "slot": "6",
        "type": "t_bool"
      },
      {
        "astId": 8,
        "contract": "contracts/GelatoUniV3Pool.sol:GelatoUniV3Pool",
        "label": "_initializing",
        "offset": 21,
        "slot": "6",
        "type": "t_bool"
      },
      {
        "astId": 56,
        "contract": "contracts/GelatoUniV3Pool.sol:GelatoUniV3Pool",
        "label": "_status",
        "offset": 0,
        "slot": "7",
        "type": "t_uint256"
      },
      {
        "astId": 4195,
        "contract": "contracts/GelatoUniV3Pool.sol:GelatoUniV3Pool",
        "label": "_supplyCap",
        "offset": 0,
        "slot": "8",
        "type": "t_uint256"
      },
      {
        "astId": 4197,
        "contract": "contracts/GelatoUniV3Pool.sol:GelatoUniV3Pool",
        "label": "_heartbeat",
        "offset": 0,
        "slot": "9",
        "type": "t_uint256"
      },
      {
        "astId": 4199,
        "contract": "contracts/GelatoUniV3Pool.sol:GelatoUniV3Pool",
        "label": "_minTickDeviation",
        "offset": 0,
        "slot": "10",
        "type": "t_int24"
      },
      {
        "astId": 4201,
        "contract": "contracts/GelatoUniV3Pool.sol:GelatoUniV3Pool",
        "label": "_maxTickDeviation",
        "offset": 3,
        "slot": "10",
        "type": "t_int24"
      },
      {
        "astId": 4203,
        "contract": "contracts/GelatoUniV3Pool.sol:GelatoUniV3Pool",
        "label": "_observationSeconds",
        "offset": 6,
        "slot": "10",
        "type": "t_uint32"
      },
      {
        "astId": 4205,
        "contract": "contracts/GelatoUniV3Pool.sol:GelatoUniV3Pool",
        "label": "_maxSlippagePercentage",
        "offset": 10,
        "slot": "10",
        "type": "t_uint160"
      },
      {
        "astId": 4207,
        "contract": "contracts/GelatoUniV3Pool.sol:GelatoUniV3Pool",
        "label": "_currentLowerTick",
        "offset": 0,
        "slot": "11",
        "type": "t_int24"
      },
      {
        "astId": 4209,
        "contract": "contracts/GelatoUniV3Pool.sol:GelatoUniV3Pool",
        "label": "_currentUpperTick",
        "offset": 3,
        "slot": "11",
        "type": "t_int24"
      },
      {
        "astId": 4211,
        "contract": "contracts/GelatoUniV3Pool.sol:GelatoUniV3Pool",
        "label": "_lastRebalanceTimestamp",
        "offset": 0,
        "slot": "12",
        "type": "t_uint256"
      },
      {
        "astId": 4213,
        "contract": "contracts/GelatoUniV3Pool.sol:GelatoUniV3Pool",
        "label": "_lastMintOrBurnTimestamp",
        "offset": 0,
        "slot": "13",
        "type": "t_uint256"
      }
    ],
    "types": {
      "t_address": {
        "encoding": "inplace",
        "label": "address",
        "numberOfBytes": "20"
      },
      "t_bool": {
        "encoding": "inplace",
        "label": "bool",
        "numberOfBytes": "1"
      },
      "t_int24": {
        "encoding": "inplace",
        "label": "int24",
        "numberOfBytes": "3"
      },
      "t_mapping(t_address,t_mapping(t_address,t_uint256))": {
        "encoding": "mapping",
        "key": "t_address",
        "label": "mapping(address => mapping(address => uint256))",
        "numberOfBytes": "32",
        "value": "t_mapping(t_address,t_uint256)"
      },
      "t_mapping(t_address,t_struct(Counter)1449_storage)": {
        "encoding": "mapping",
        "key": "t_address",
        "label": "mapping(address => struct Counters.Counter)",
        "numberOfBytes": "32",
        "value": "t_struct(Counter)1449_storage"
      },
      "t_mapping(t_address,t_uint256)": {
        "encoding": "mapping",
        "key": "t_address",
        "label": "mapping(address => uint256)",
        "numberOfBytes": "32",
        "value": "t_uint256"
      },
      "t_string_storage": {
        "encoding": "bytes",
        "label": "string",
        "numberOfBytes": "32"
      },
      "t_struct(Counter)1449_storage": {
        "encoding": "inplace",
        "label": "struct Counters.Counter",
        "members": [
          {
            "astId": 1448,
            "contract": "contracts/GelatoUniV3Pool.sol:GelatoUniV3Pool",
            "label": "_value",
            "offset": 0,
            "slot": "0",
            "type": "t_uint256"
          }
        ],
        "numberOfBytes": "32"
      },
      "t_uint160": {
        "encoding": "inplace",
        "label": "uint160",
        "numberOfBytes": "20"
      },
      "t_uint256": {
        "encoding": "inplace",
        "label": "uint256",
        "numberOfBytes": "32"
      },
      "t_uint32": {
        "encoding": "inplace",
        "label": "uint32",
        "numberOfBytes": "4"
      }
    }
  }
}