{
  "address": "0xdCdCcB0Ed430C8A30E3030663B033E63083F7b56",
  "abi": [
    {
      "inputs": [
        {
          "internalType": "contract IUniswapV3Pool",
          "name": "_pool",
          "type": "address"
        },
        {
          "internalType": "address payable",
          "name": "_gelato",
          "type": "address"
        }
      ],
      "stateMutability": "nonpayable",
      "type": "constructor"
    },
    {
      "anonymous": false,
      "inputs": [
        {
          "indexed": true,
          "internalType": "address",
          "name": "owner",
          "type": "address"
        },
        {
          "indexed": true,
          "internalType": "address",
          "name": "spender",
          "type": "address"
        },
        {
          "indexed": false,
          "internalType": "uint256",
          "name": "value",
          "type": "uint256"
        }
      ],
      "name": "Approval",
      "type": "event"
    },
    {
      "anonymous": false,
      "inputs": [
        {
          "indexed": false,
          "internalType": "address",
          "name": "burner",
          "type": "address"
        },
        {
          "indexed": false,
          "internalType": "uint256",
          "name": "burnAmount",
          "type": "uint256"
        },
        {
          "indexed": false,
          "internalType": "uint256",
          "name": "amount0Out",
          "type": "uint256"
        },
        {
          "indexed": false,
          "internalType": "uint256",
          "name": "amount1Out",
          "type": "uint256"
        },
        {
          "indexed": false,
          "internalType": "uint256",
          "name": "leftover0",
          "type": "uint256"
        },
        {
          "indexed": false,
          "internalType": "uint256",
          "name": "leftover1",
          "type": "uint256"
        }
      ],
      "name": "Burned",
      "type": "event"
    },
    {
      "anonymous": false,
      "inputs": [
        {
          "indexed": false,
          "internalType": "address",
          "name": "minter",
          "type": "address"
        },
        {
          "indexed": false,
          "internalType": "uint256",
          "name": "mintAmount",
          "type": "uint256"
        },
        {
          "indexed": false,
          "internalType": "uint256",
          "name": "amount0In",
          "type": "uint256"
        },
        {
          "indexed": false,
          "internalType": "uint256",
          "name": "amount1In",
          "type": "uint256"
        },
        {
          "indexed": false,
          "internalType": "uint256",
          "name": "leftover0",
          "type": "uint256"
        },
        {
          "indexed": false,
          "internalType": "uint256",
          "name": "leftover1",
          "type": "uint256"
        }
      ],
      "name": "Minted",
      "type": "event"
    },
    {
      "anonymous": false,
      "inputs": [
        {
          "indexed": true,
          "internalType": "address",
          "name": "previousOwner",
          "type": "address"
        },
        {
          "indexed": true,
          "internalType": "address",
          "name": "newOwner",
          "type": "address"
        }
      ],
      "name": "OwnershipTransferred",
      "type": "event"
    },
    {
      "anonymous": false,
      "inputs": [
        {
          "indexed": false,
          "internalType": "int24",
          "name": "newLowerTick",
          "type": "int24"
        },
        {
          "indexed": false,
          "internalType": "int24",
          "name": "newUpperTick",
          "type": "int24"
        }
      ],
      "name": "Rebalance",
      "type": "event"
    },
    {
      "anonymous": false,
      "inputs": [
        {
          "indexed": true,
          "internalType": "address",
          "name": "from",
          "type": "address"
        },
        {
          "indexed": true,
          "internalType": "address",
          "name": "to",
          "type": "address"
        },
        {
          "indexed": false,
          "internalType": "uint256",
          "name": "value",
          "type": "uint256"
        }
      ],
      "name": "Transfer",
      "type": "event"
    },
    {
      "anonymous": false,
      "inputs": [
        {
          "indexed": false,
          "internalType": "uint256",
          "name": "heartbeatOld",
          "type": "uint256"
        },
        {
          "indexed": false,
          "internalType": "uint256",
          "name": "heartbeatNew",
          "type": "uint256"
        }
      ],
      "name": "UpdateHeartbeat",
      "type": "event"
    },
    {
      "anonymous": false,
      "inputs": [
        {
          "indexed": false,
          "internalType": "uint160",
          "name": "maxSlippagePercentageOld",
          "type": "uint160"
        },
        {
          "indexed": false,
          "internalType": "uint160",
          "name": "maxSlippagePercentageNew",
          "type": "uint160"
        }
      ],
      "name": "UpdateMaxSlippagePercentage",
      "type": "event"
    },
    {
      "anonymous": false,
      "inputs": [
        {
          "indexed": false,
          "internalType": "int24",
          "name": "maxTickDeviationOld",
          "type": "int24"
        },
        {
          "indexed": false,
          "internalType": "int24",
          "name": "maxTickDeviationNew",
          "type": "int24"
        }
      ],
      "name": "UpdateMaxTickDeviation",
      "type": "event"
    },
    {
      "anonymous": false,
      "inputs": [
        {
          "indexed": false,
          "internalType": "int24",
          "name": "minTickDeviationOld",
          "type": "int24"
        },
        {
          "indexed": false,
          "internalType": "int24",
          "name": "minTickDeviationNew",
          "type": "int24"
        }
      ],
      "name": "UpdateMinTickDeviation",
      "type": "event"
    },
    {
      "anonymous": false,
      "inputs": [
        {
          "indexed": false,
          "internalType": "uint32",
          "name": "observationSecondsOld",
          "type": "uint32"
        },
        {
          "indexed": false,
          "internalType": "uint32",
          "name": "observationSecondsNew",
          "type": "uint32"
        }
      ],
      "name": "UpdateObservationSeconds",
      "type": "event"
    },
    {
      "anonymous": false,
      "inputs": [
        {
          "indexed": false,
          "internalType": "uint256",
          "name": "supplyCapOld",
          "type": "uint256"
        },
        {
          "indexed": false,
          "internalType": "uint256",
          "name": "supplyCapNew",
          "type": "uint256"
        }
      ],
      "name": "UpdateSupplyCap",
      "type": "event"
    },
    {
      "inputs": [],
      "name": "DOMAIN_SEPARATOR",
      "outputs": [
        {
          "internalType": "bytes32",
          "name": "",
          "type": "bytes32"
        }
      ],
      "stateMutability": "view",
      "type": "function"
    },
    {
      "inputs": [],
      "name": "GELATO",
      "outputs": [
        {
          "internalType": "address payable",
          "name": "",
          "type": "address"
        }
      ],
      "stateMutability": "view",
      "type": "function"
    },
    {
      "inputs": [
        {
          "internalType": "address",
          "name": "owner",
          "type": "address"
        },
        {
          "internalType": "address",
          "name": "spender",
          "type": "address"
        }
      ],
      "name": "allowance",
      "outputs": [
        {
          "internalType": "uint256",
          "name": "",
          "type": "uint256"
        }
      ],
      "stateMutability": "view",
      "type": "function"
    },
    {
      "inputs": [
        {
          "internalType": "address",
          "name": "spender",
          "type": "address"
        },
        {
          "internalType": "uint256",
          "name": "amount",
          "type": "uint256"
        }
      ],
      "name": "approve",
      "outputs": [
        {
          "internalType": "bool",
          "name": "",
          "type": "bool"
        }
      ],
      "stateMutability": "nonpayable",
      "type": "function"
    },
    {
      "inputs": [
        {
          "internalType": "address",
          "name": "account",
          "type": "address"
        }
      ],
      "name": "balanceOf",
      "outputs": [
        {
          "internalType": "uint256",
          "name": "",
          "type": "uint256"
        }
      ],
      "stateMutability": "view",
      "type": "function"
    },
    {
      "inputs": [
        {
          "internalType": "uint256",
          "name": "_burnAmount",
          "type": "uint256"
        }
      ],
      "name": "burn",
      "outputs": [
        {
          "internalType": "uint256",
          "name": "amount0",
          "type": "uint256"
        },
        {
          "internalType": "uint256",
          "name": "amount1",
          "type": "uint256"
        },
        {
          "internalType": "uint128",
          "name": "liquidityBurned",
          "type": "uint128"
        }
      ],
      "stateMutability": "nonpayable",
      "type": "function"
    },
    {
      "inputs": [],
      "name": "currentLowerTick",
      "outputs": [
        {
          "internalType": "int24",
          "name": "",
          "type": "int24"
        }
      ],
      "stateMutability": "view",
      "type": "function"
    },
    {
      "inputs": [],
      "name": "currentUpperTick",
      "outputs": [
        {
          "internalType": "int24",
          "name": "",
          "type": "int24"
        }
      ],
      "stateMutability": "view",
      "type": "function"
    },
    {
      "inputs": [],
      "name": "decimals",
      "outputs": [
        {
          "internalType": "uint8",
          "name": "",
          "type": "uint8"
        }
      ],
      "stateMutability": "view",
      "type": "function"
    },
    {
      "inputs": [
        {
          "internalType": "address",
          "name": "spender",
          "type": "address"
        },
        {
          "internalType": "uint256",
          "name": "subtractedValue",
          "type": "uint256"
        }
      ],
      "name": "decreaseAllowance",
      "outputs": [
        {
          "internalType": "bool",
          "name": "",
          "type": "bool"
        }
      ],
      "stateMutability": "nonpayable",
      "type": "function"
    },
    {
      "inputs": [],
      "name": "deployer",
      "outputs": [
        {
          "internalType": "address",
          "name": "",
          "type": "address"
        }
      ],
      "stateMutability": "view",
      "type": "function"
    },
    {
      "inputs": [
        {
          "internalType": "uint160",
          "name": "sqrtRatioX96",
          "type": "uint160"
        },
        {
          "internalType": "uint160",
          "name": "sqrtRatioAX96",
          "type": "uint160"
        },
        {
          "internalType": "uint160",
          "name": "sqrtRatioBX96",
          "type": "uint160"
        },
        {
          "internalType": "uint128",
          "name": "liquidity",
          "type": "uint128"
        }
      ],
      "name": "getAmountsForLiquidity",
      "outputs": [
        {
          "internalType": "uint256",
          "name": "amount0",
          "type": "uint256"
        },
        {
          "internalType": "uint256",
          "name": "amount1",
          "type": "uint256"
        }
      ],
      "stateMutability": "pure",
      "type": "function"
    },
    {
      "inputs": [
        {
          "internalType": "uint160",
          "name": "sqrtRatioX96",
          "type": "uint160"
        },
        {
          "internalType": "uint160",
          "name": "sqrtRatioAX96",
          "type": "uint160"
        },
        {
          "internalType": "uint160",
          "name": "sqrtRatioBX96",
          "type": "uint160"
        },
        {
          "internalType": "uint256",
          "name": "amount0",
          "type": "uint256"
        },
        {
          "internalType": "uint256",
          "name": "amount1",
          "type": "uint256"
        }
      ],
      "name": "getLiquidityForAmounts",
      "outputs": [
        {
          "internalType": "uint128",
          "name": "liquidity",
          "type": "uint128"
        }
      ],
      "stateMutability": "pure",
      "type": "function"
    },
    {
      "inputs": [
        {
          "internalType": "uint256",
          "name": "amount0Max",
          "type": "uint256"
        },
        {
          "internalType": "uint256",
          "name": "amount1Max",
          "type": "uint256"
        }
      ],
      "name": "getNewLiquidityFromAmounts",
      "outputs": [
        {
          "internalType": "uint128",
          "name": "",
          "type": "uint128"
        }
      ],
      "stateMutability": "view",
      "type": "function"
    },
    {
      "inputs": [],
      "name": "getPositionID",
      "outputs": [
        {
          "internalType": "bytes32",
          "name": "positionID",
          "type": "bytes32"
        }
      ],
      "stateMutability": "view",
      "type": "function"
    },
    {
      "inputs": [],
      "name": "heartbeat",
      "outputs": [
        {
          "internalType": "uint256",
          "name": "",
          "type": "uint256"
        }
      ],
      "stateMutability": "view",
      "type": "function"
    },
    {
      "inputs": [
        {
          "internalType": "address",
          "name": "spender",
          "type": "address"
        },
        {
          "internalType": "uint256",
          "name": "addedValue",
          "type": "uint256"
        }
      ],
      "name": "increaseAllowance",
      "outputs": [
        {
          "internalType": "bool",
          "name": "",
          "type": "bool"
        }
      ],
      "stateMutability": "nonpayable",
      "type": "function"
    },
    {
      "inputs": [
        {
          "internalType": "uint256",
          "name": "__supplyCap",
          "type": "uint256"
        },
        {
          "internalType": "int24",
          "name": "_lowerTick",
          "type": "int24"
        },
        {
          "internalType": "int24",
          "name": "_upperTick",
          "type": "int24"
        },
        {
          "internalType": "address",
          "name": "_owner_",
          "type": "address"
        }
      ],
      "name": "initialize",
      "outputs": [],
      "stateMutability": "nonpayable",
      "type": "function"
    },
    {
      "inputs": [],
      "name": "lastMintOrBurnTimestamp",
      "outputs": [
        {
          "internalType": "uint256",
          "name": "",
          "type": "uint256"
        }
      ],
      "stateMutability": "view",
      "type": "function"
    },
    {
      "inputs": [],
      "name": "lastRebalanceTimestamp",
      "outputs": [
        {
          "internalType": "uint256",
          "name": "",
          "type": "uint256"
        }
      ],
      "stateMutability": "view",
      "type": "function"
    },
    {
      "inputs": [],
      "name": "maxSlippagePercentage",
      "outputs": [
        {
          "internalType": "uint160",
          "name": "",
          "type": "uint160"
        }
      ],
      "stateMutability": "view",
      "type": "function"
    },
    {
      "inputs": [],
      "name": "maxTickDeviation",
      "outputs": [
        {
          "internalType": "int24",
          "name": "",
          "type": "int24"
        }
      ],
      "stateMutability": "view",
      "type": "function"
    },
    {
      "inputs": [],
      "name": "minTickDeviation",
      "outputs": [
        {
          "internalType": "int24",
          "name": "",
          "type": "int24"
        }
      ],
      "stateMutability": "view",
      "type": "function"
    },
    {
      "inputs": [
        {
          "internalType": "uint256",
          "name": "amount0Max",
          "type": "uint256"
        },
        {
          "internalType": "uint256",
          "name": "amount1Max",
          "type": "uint256"
        }
      ],
      "name": "mint",
      "outputs": [
        {
          "internalType": "uint256",
          "name": "amount0",
          "type": "uint256"
        },
        {
          "internalType": "uint256",
          "name": "amount1",
          "type": "uint256"
        },
        {
          "internalType": "uint256",
          "name": "mintAmount",
          "type": "uint256"
        }
      ],
      "stateMutability": "nonpayable",
      "type": "function"
    },
    {
      "inputs": [],
      "name": "name",
      "outputs": [
        {
          "internalType": "string",
          "name": "",
          "type": "string"
        }
      ],
      "stateMutability": "view",
      "type": "function"
    },
    {
      "inputs": [
        {
          "internalType": "address",
          "name": "owner",
          "type": "address"
        }
      ],
      "name": "nonces",
      "outputs": [
        {
          "internalType": "uint256",
          "name": "",
          "type": "uint256"
        }
      ],
      "stateMutability": "view",
      "type": "function"
    },
    {
      "inputs": [],
      "name": "observationSeconds",
      "outputs": [
        {
          "internalType": "uint32",
          "name": "",
          "type": "uint32"
        }
      ],
      "stateMutability": "view",
      "type": "function"
    },
    {
      "inputs": [],
      "name": "owner",
      "outputs": [
        {
          "internalType": "address",
          "name": "",
          "type": "address"
        }
      ],
      "stateMutability": "view",
      "type": "function"
    },
    {
      "inputs": [
        {
          "internalType": "address",
          "name": "owner",
          "type": "address"
        },
        {
          "internalType": "address",
          "name": "spender",
          "type": "address"
        },
        {
          "internalType": "uint256",
          "name": "value",
          "type": "uint256"
        },
        {
          "internalType": "uint256",
          "name": "deadline",
          "type": "uint256"
        },
        {
          "internalType": "uint8",
          "name": "v",
          "type": "uint8"
        },
        {
          "internalType": "bytes32",
          "name": "r",
          "type": "bytes32"
        },
        {
          "internalType": "bytes32",
          "name": "s",
          "type": "bytes32"
        }
      ],
      "name": "permit",
      "outputs": [],
      "stateMutability": "nonpayable",
      "type": "function"
    },
    {
      "inputs": [],
      "name": "pool",
      "outputs": [
        {
          "internalType": "contract IUniswapV3Pool",
          "name": "",
          "type": "address"
        }
      ],
      "stateMutability": "view",
      "type": "function"
    },
    {
      "inputs": [
        {
          "internalType": "int24",
          "name": "_newLowerTick",
          "type": "int24"
        },
        {
          "internalType": "int24",
          "name": "_newUpperTick",
          "type": "int24"
        },
        {
          "internalType": "uint160",
          "name": "_swapThresholdPrice",
          "type": "uint160"
        },
        {
          "internalType": "uint256",
          "name": "_swapAmountBPS",
          "type": "uint256"
        },
        {
          "internalType": "uint256",
          "name": "_feeAmount",
          "type": "uint256"
        },
        {
          "internalType": "address",
          "name": "_paymentToken",
          "type": "address"
        }
      ],
      "name": "rebalance",
      "outputs": [],
      "stateMutability": "nonpayable",
      "type": "function"
    },
    {
      "inputs": [],
      "name": "renounceOwnership",
      "outputs": [],
      "stateMutability": "nonpayable",
      "type": "function"
    },
    {
      "inputs": [],
      "name": "supplyCap",
      "outputs": [
        {
          "internalType": "uint256",
          "name": "",
          "type": "uint256"
        }
      ],
      "stateMutability": "view",
      "type": "function"
    },
    {
      "inputs": [],
      "name": "symbol",
      "outputs": [
        {
          "internalType": "string",
          "name": "",
          "type": "string"
        }
      ],
      "stateMutability": "view",
      "type": "function"
    },
    {
      "inputs": [],
      "name": "token0",
      "outputs": [
        {
          "internalType": "contract IERC20",
          "name": "",
          "type": "address"
        }
      ],
      "stateMutability": "view",
      "type": "function"
    },
    {
      "inputs": [],
      "name": "token1",
      "outputs": [
        {
          "internalType": "contract IERC20",
          "name": "",
          "type": "address"
        }
      ],
      "stateMutability": "view",
      "type": "function"
    },
    {
      "inputs": [],
      "name": "totalSupply",
      "outputs": [
        {
          "internalType": "uint256",
          "name": "",
          "type": "uint256"
        }
      ],
      "stateMutability": "view",
      "type": "function"
    },
    {
      "inputs": [
        {
          "internalType": "address",
          "name": "recipient",
          "type": "address"
        },
        {
          "internalType": "uint256",
          "name": "amount",
          "type": "uint256"
        }
      ],
      "name": "transfer",
      "outputs": [
        {
          "internalType": "bool",
          "name": "",
          "type": "bool"
        }
      ],
      "stateMutability": "nonpayable",
      "type": "function"
    },
    {
      "inputs": [
        {
          "internalType": "address",
          "name": "sender",
          "type": "address"
        },
        {
          "internalType": "address",
          "name": "recipient",
          "type": "address"
        },
        {
          "internalType": "uint256",
          "name": "amount",
          "type": "uint256"
        }
      ],
      "name": "transferFrom",
      "outputs": [
        {
          "internalType": "bool",
          "name": "",
          "type": "bool"
        }
      ],
      "stateMutability": "nonpayable",
      "type": "function"
    },
    {
      "inputs": [
        {
          "internalType": "address",
          "name": "newOwner",
          "type": "address"
        }
      ],
      "name": "transferOwnership",
      "outputs": [],
      "stateMutability": "nonpayable",
      "type": "function"
    },
    {
      "inputs": [
        {
          "internalType": "uint256",
          "name": "_amount0Owed",
          "type": "uint256"
        },
        {
          "internalType": "uint256",
          "name": "_amount1Owed",
          "type": "uint256"
        },
        {
          "internalType": "bytes",
          "name": "_data",
          "type": "bytes"
        }
      ],
      "name": "uniswapV3MintCallback",
      "outputs": [],
      "stateMutability": "nonpayable",
      "type": "function"
    },
    {
      "inputs": [
        {
          "internalType": "int256",
          "name": "amount0Delta",
          "type": "int256"
        },
        {
          "internalType": "int256",
          "name": "amount1Delta",
          "type": "int256"
        },
        {
          "internalType": "bytes",
          "name": "",
          "type": "bytes"
        }
      ],
      "name": "uniswapV3SwapCallback",
      "outputs": [],
      "stateMutability": "nonpayable",
      "type": "function"
    },
    {
      "inputs": [
        {
          "internalType": "uint256",
          "name": "newHeartbeat",
          "type": "uint256"
        }
      ],
      "name": "updateHeartbeat",
      "outputs": [],
      "stateMutability": "nonpayable",
      "type": "function"
    },
    {
      "inputs": [
        {
          "internalType": "uint32",
          "name": "newMaxSlippagePercentage",
          "type": "uint32"
        }
      ],
      "name": "updateMaxSlippagePercentage",
      "outputs": [],
      "stateMutability": "nonpayable",
      "type": "function"
    },
    {
      "inputs": [
        {
          "internalType": "int24",
          "name": "newMaxTickDeviation",
          "type": "int24"
        }
      ],
      "name": "updateMaxTickDeviation",
      "outputs": [],
      "stateMutability": "nonpayable",
      "type": "function"
    },
    {
      "inputs": [
        {
          "internalType": "int24",
          "name": "newMinTickDeviation",
          "type": "int24"
        }
      ],
      "name": "updateMinTickDeviation",
      "outputs": [],
      "stateMutability": "nonpayable",
      "type": "function"
    },
    {
      "inputs": [
        {
          "internalType": "uint32",
          "name": "newObservationSeconds",
          "type": "uint32"
        }
      ],
      "name": "updateObservationSeconds",
      "outputs": [],
      "stateMutability": "nonpayable",
      "type": "function"
    },
    {
      "inputs": [
        {
          "internalType": "uint256",
          "name": "newSupplyCap",
          "type": "uint256"
        }
      ],
      "name": "updateSupplyCap",
      "outputs": [],
      "stateMutability": "nonpayable",
      "type": "function"
    }
  ],
  "transactionHash": "0x8f7b11cf3a8f2257df0e4fbc26c37a217c439be2b799d71eda746bd1d665b95f",
  "args": [
    "0xC2e9F25Be6257c210d7Adf0D4Cd6E3E881ba25f8",
    "0x3CACa7b48D0573D793d3b0279b5F0029180E83b6"
  ],
  "solcInputHash": "bca33f0ca925d9b4d9c5ac711cc6c38f",
  "bytecode": "0x6101e06040527f6e71edae12b1b97f4d1f60370fef10105fa2faae0126114a169c64845d6126c9610120523480156200003757600080fd5b5060405162005999380380620059998339810160408190526200005a91620003a5565b8181806040518060400160405280601d81526020017f47656c61746f20556e697377617020563320574554482f444149204c5000000081525080604051806040016040528060018152602001603160f81b81525060405180602001604052806000815250604051806020016040528060008152508160039080519060200190620000e6929190620002d9565b508051620000fc906004906020840190620002d9565b5050825160209384012082519284019290922060c083815260e08290524660a0818152604080517f8b73c3c69bb8fe3d512ecc4cf759cc79239f7b179b0ffacaa9a75d522b39400f818a0181905281830198909852606080820196909652608080820194909452308184015281518082039093018352938401808252825192890192909220909252610100959095526001600160601b031997831b881661014052600160075533831b610160529189901b90961661018052630dfe168160e01b90925250516001600160a01b03861693630dfe1681935060c4808201939291829003018186803b158015620001f057600080fd5b505afa15801562000205573d6000803e3d6000fd5b505050506040513d601f19601f820116820180604052508101906200022b91906200037f565b6001600160a01b03166101a0816001600160a01b031660601b81525050816001600160a01b031663d21220a76040518163ffffffff1660e01b815260040160206040518083038186803b1580156200028257600080fd5b505afa15801562000297573d6000803e3d6000fd5b505050506040513d601f19601f82011682018060405250810190620002bd91906200037f565b60601b6001600160601b0319166101c052506200043992505050565b828054620002e790620003e3565b90600052602060002090601f0160209004810192826200030b576000855562000356565b82601f106200032657805160ff191683800117855562000356565b8280016001018555821562000356579182015b828111156200035657825182559160200191906001019062000339565b506200036492915062000368565b5090565b5b8082111562000364576000815560010162000369565b60006020828403121562000391578081fd5b81516200039e8162000420565b9392505050565b60008060408385031215620003b8578081fd5b8251620003c58162000420565b6020840151909250620003d88162000420565b809150509250929050565b600181811c90821680620003f857607f821691505b602082108114156200041a57634e487b7160e01b600052602260045260246000fd5b50919050565b6001600160a01b03811681146200043657600080fd5b50565b60805160a05160c05160e05161010051610120516101405160601c6101605160601c6101805160601c6101a05160601c6101c05160601c61539d620005fc600039600081816105f701528181610b3701528181610c020152818161128201528181611325015281816119e801528181611a62015281816120a201528181612db301528181612e7c0152613e3201526000818161032d01528181610a2c01528181610af70152818161119601528181611239015281816119ae01528181611a270152818161206001528181612d0e01528181612e310152613d8d01526000818161036c015281816108a501528181610c3901528181610f0801528181611034015281816110d70152818161188901528181611950015281816120200152818161225d01528181612c2e01528181612ecc015281816139f101528181613a8d01528181613b2601528181613bfe015281816141a90152818161440c015281816144a8015261455b01526000818161064401526116b70152600081816106f001528181611c2301528181611d120152611d4c01526000611ade015260006126c301526000612712015260006126ed015260006126710152600061269a015261539d6000f3fe608060405234801561001057600080fd5b50600436106102a05760003560e01c80638f770ad011610167578063d5f39488116100ce578063ea18fd1211610087578063ea18fd12146106d8578063eff557a7146106eb578063f2fde38b14610712578063f3dc7d4214610725578063fa2c6d7c14610738578063fa461e331461075d57600080fd5b8063d5f394881461063f578063dd62ed3e14610666578063df28408a1461069f578063e3fbf2f8146106a7578063e5475ae7146106ba578063e5a97f07146106c557600080fd5b8063baf2fd4511610120578063baf2fd45146105a4578063c72e160b146105b7578063cfa85362146105df578063d21220a7146105f2578063d348799714610619578063d505accf1461062c57600080fd5b80638f770ad01461053b57806395d89b4114610543578063a457c2d714610563578063a9059cbb14610576578063b74f271314610589578063b83d81571461059c57600080fd5b80633defb9621161020b5780636a3089f6116101c45780636a3089f6146104bb57806370a08231146104d3578063715018a6146104fc5780637ecebe00146105045780637f4ef569146105175780638da5cb5b1461052a57600080fd5b80633defb9621461042c57806342966c68146104345780634b41d7d81461046b5780634f5e2635146104765780636098fd4a1461047e578063696c58e5146104a957600080fd5b80631b2ef1ca1161025d5780631b2ef1ca146103a05780631f6697c6146103ce57806323b872dd146103ef578063313ce567146104025780633644e51514610411578063395093511461041957600080fd5b806302d7f9d6146102a557806306fdde03146102ba578063095ea7b3146103055780630dfe16811461032857806316f0115b1461036757806318160ddd1461038e575b600080fd5b6102b86102b3366004614deb565b610770565b005b60408051808201909152601d81527f47656c61746f20556e697377617020563320574554482f444149204c5000000060208201525b6040516102fc9190614f20565b60405180910390f35b610318610313366004614974565b610826565b60405190151581526020016102fc565b61034f7f000000000000000000000000000000000000000000000000000000000000000081565b6040516001600160a01b0390911681526020016102fc565b61034f7f000000000000000000000000000000000000000000000000000000000000000081565b6002545b6040519081526020016102fc565b6103b36103ae366004614dca565b61083c565b604080519384526020840192909252908201526060016102fc565b600b546301000000900460020b5b60405160029190910b81526020016102fc565b6103186103fd3660046148c4565b610d97565b604051601281526020016102fc565b610392610e4a565b610318610427366004614974565b610e59565b600954610392565b610447610442366004614d53565b610e90565b6040805193845260208401929092526001600160801b0316908201526060016102fc565b600a5460020b6103dc565b600d54610392565b61049161048c366004614cf9565b6113d0565b6040516001600160801b0390911681526020016102fc565b600a546301000000900460020b6103dc565b600a54600160501b90046001600160a01b031661034f565b6103926104e1366004614870565b6001600160a01b031660009081526020819052604090205490565b6102b86113eb565b610392610512366004614870565b61146e565b6102b8610525366004614deb565b61148e565b6006546001600160a01b031661034f565b600854610392565b60408051808201909152600481526367554e4960e01b60208201526102ef565b610318610571366004614974565b611555565b610318610584366004614974565b6115f0565b6102b8610597366004614d83565b6115fd565b600c54610392565b6102b86105b2366004614a84565b6117cb565b6105ca6105c5366004614c9e565b611867565b604080519283526020830191909152016102fc565b6104916105ed366004614dca565b611884565b61034f7f000000000000000000000000000000000000000000000000000000000000000081565b6102b8610627366004614b32565b611945565b6102b861063a366004614904565b611a8a565b61034f7f000000000000000000000000000000000000000000000000000000000000000081565b61039261067436600461488c565b6001600160a01b03918216600090815260016020908152604080832093909416825291909152205490565b610392611c0c565b6102b86106b5366004614aa0565b611c16565b600b5460020b6103dc565b6102b86106d3366004614d53565b611d7b565b6102b86106e6366004614a84565b611df5565b61034f7f000000000000000000000000000000000000000000000000000000000000000081565b6102b8610720366004614870565b611ea1565b6102b8610733366004614d53565b611f9b565b600a54600160301b900463ffffffff1660405163ffffffff90911681526020016102fc565b6102b861076b366004614b32565b612015565b336107836006546001600160a01b031690565b6001600160a01b0316146107b25760405162461bcd60e51b81526004016107a990614f7c565b60405180910390fd5b600a546040805163ffffffff600160301b9093048316815291831660208301527f49660c469300f3b21c44f31cbf8a92b53ac04f23c62584780d37c258c152d8ae910160405180910390a1600a805463ffffffff909216600160301b0269ffffffff00000000000019909216919091179055565b60006108333384846120cf565b50600192915050565b6000806000600260075414156108945760405162461bcd60e51b815260206004820152601f60248201527f5265656e7472616e637947756172643a207265656e7472616e742063616c6c0060448201526064016107a9565b600260075560006001600160a01b037f00000000000000000000000000000000000000000000000000000000000000001663514ea4bf6108d26121f4565b6040518263ffffffff1660e01b81526004016108f091815260200190565b60a06040518083038186803b15801561090857600080fd5b505afa15801561091c573d6000803e3d6000fd5b505050506040513d601f19601f820116820180604052508101906109409190614bb1565b5050505090506000610953878784612258565b90506000816001600160801b03161161096b57600080fd5b600061097660025490565b905080156109ac57826001600160801b031681836001600160801b031661099d9190615136565b6109a791906150f3565b6109b7565b816001600160801b03165b93506109c38482615077565b6008541015610a145760405162461bcd60e51b815260206004820181905260248201527f47656c61746f556e695633506f6f6c2e6d696e743a205f737570706c7943617060448201526064016107a9565b6040516370a0823160e01b81523060048201526000907f00000000000000000000000000000000000000000000000000000000000000006001600160a01b0316906370a082319060240160206040518083038186803b158015610a7657600080fd5b505afa158015610a8a573d6000803e3d6000fd5b505050506040513d601f19601f82011682018060405250810190610aae9190614d6b565b905060008115610ae457846001600160801b031682856001600160801b0316610ad79190615136565b610ae191906150f3565b90505b8015610b1f57610b1f6001600160a01b037f00000000000000000000000000000000000000000000000000000000000000001633308461234b565b6040516370a0823160e01b81523060048201526000907f00000000000000000000000000000000000000000000000000000000000000006001600160a01b0316906370a082319060240160206040518083038186803b158015610b8157600080fd5b505afa158015610b95573d6000803e3d6000fd5b505050506040513d601f19601f82011682018060405250810190610bb99190614d6b565b905060008115610bef57866001600160801b031682876001600160801b0316610be29190615136565b610bec91906150f3565b90505b8015610c2a57610c2a6001600160a01b037f00000000000000000000000000000000000000000000000000000000000000001633308461234b565b600b54604080513360208201527f00000000000000000000000000000000000000000000000000000000000000006001600160a01b031692633c8a7d8d923092600283810b9363010000009004900b918c91016040516020818303038152906040526040518663ffffffff1660e01b8152600401610cac959493929190614e57565b6040805180830381600087803b158015610cc557600080fd5b505af1158015610cd9573d6000803e3d6000fd5b505050506040513d601f19601f82011682018060405250810190610cfd9190614b0f565b909a509850610d0c33896123b6565b610d16838b615077565b9950610d22818a615077565b60408051338152602081018b90529081018c9052606081018290526080810185905260a081018390529099507f9045b28c8427bc83571801c0916c82f9ec27d9233ce8c25ac55e60cdf1ba30089060c00160405180910390a1505042600d555050600160075550939692955090935090915050565b6000610da4848484612495565b6001600160a01b038416600090815260016020908152604080832033845290915290205482811015610e295760405162461bcd60e51b815260206004820152602860248201527f45524332303a207472616e7366657220616d6f756e74206578636565647320616044820152676c6c6f77616e636560c01b60648201526084016107a9565b610e3d8533610e388685615248565b6120cf565b60019150505b9392505050565b6000610e5461266d565b905090565b3360008181526001602090815260408083206001600160a01b03871684529091528120549091610833918590610e38908690615077565b600080600060026007541415610ee85760405162461bcd60e51b815260206004820152601f60248201527f5265656e7472616e637947756172643a207265656e7472616e742063616c6c0060448201526064016107a9565b600260075583610ef757600080fd5b6000610f0260025490565b905060007f00000000000000000000000000000000000000000000000000000000000000006001600160a01b031663514ea4bf610f3d6121f4565b6040518263ffffffff1660e01b8152600401610f5b91815260200190565b60a06040518083038186803b158015610f7357600080fd5b505afa158015610f87573d6000803e3d6000fd5b505050506040513d601f19601f82011682018060405250810190610fab9190614bb1565b505050509050610fbb3387612760565b600082610fd16001600160801b03841689615136565b610fdb91906150f3565b90506001600160801b038110610ff057600080fd5b600b5460405163a34123a760e01b8152600282810b810b60048301526301000000909204820b90910b60248201526001600160801b038216604482015290935083907f00000000000000000000000000000000000000000000000000000000000000006001600160a01b03169063a34123a7906064016040805180830381600087803b15801561107f57600080fd5b505af1158015611093573d6000803e3d6000fd5b505050506040513d601f19601f820116820180604052508101906110b79190614b0f565b600b546040516309e3d67b60e31b81529298509096506001600160a01b037f00000000000000000000000000000000000000000000000000000000000000001691634f1eb3d891611121913391600281810b926301000000909204900b908c908c90600401614e99565b6040805180830381600087803b15801561113a57600080fd5b505af115801561114e573d6000803e3d6000fd5b505050506040513d601f19601f820116820180604052508101906111729190614b83565b50506040516370a0823160e01b815230600482015260009084906001600160a01b037f000000000000000000000000000000000000000000000000000000000000000016906370a082319060240160206040518083038186803b1580156111d857600080fd5b505afa1580156111ec573d6000803e3d6000fd5b505050506040513d601f19601f820116820180604052508101906112109190614d6b565b61121a908a615136565b61122491906150f3565b90508015611260576112606001600160a01b037f00000000000000000000000000000000000000000000000000000000000000001633836128af565b6040516370a0823160e01b815230600482015260009085906001600160a01b037f000000000000000000000000000000000000000000000000000000000000000016906370a082319060240160206040518083038186803b1580156112c457600080fd5b505afa1580156112d8573d6000803e3d6000fd5b505050506040513d601f19601f820116820180604052508101906112fc9190614d6b565b611306908b615136565b61131091906150f3565b9050801561134c5761134c6001600160a01b037f00000000000000000000000000000000000000000000000000000000000000001633836128af565b6113568289615077565b97506113628188615077565b60408051338152602081018c90529081018a9052606081018290526080810184905260a081018390529097507f80f0548872ebb3c3d5ff596e5655a9ef603d14b49cacd33460620b70bed258649060c00160405180910390a1505042600d5550506001600755509193909250565b60006113df86868686866128e4565b90505b95945050505050565b336113fe6006546001600160a01b031690565b6001600160a01b0316146114245760405162461bcd60e51b81526004016107a990614f7c565b6006546040516000916001600160a01b0316907f8be0079c531659141344cd1fd0a4f28419497f9722a3daafe3b4186f6b6457e0908390a3600680546001600160a01b0319169055565b6001600160a01b0381166000908152600560205260408120545b92915050565b336114a16006546001600160a01b031690565b6001600160a01b0316146114c75760405162461bcd60e51b81526004016107a990614f7c565b600a5460408051600160501b9092046001600160a01b0316825263ffffffff831660208301527f46e9fe9c8c27cf7118204ea45671f5e551234d6285b70b219d4530ccacb3e94c910160405180910390a1600a80547fffff0000000000000000000000000000000000000000ffffffffffffffffffff1663ffffffff92909216600160501b02919091179055565b3360009081526001602090815260408083206001600160a01b0386168452909152812054828110156115d75760405162461bcd60e51b815260206004820152602560248201527f45524332303a2064656372656173656420616c6c6f77616e63652062656c6f77604482015264207a65726f60d81b60648201526084016107a9565b6115e63385610e388685615248565b5060019392505050565b6000610833338484612495565b600654600160a81b900460ff168061161f5750600654600160a01b900460ff16155b6116825760405162461bcd60e51b815260206004820152602e60248201527f496e697469616c697a61626c653a20636f6e747261637420697320616c72656160448201526d191e481a5b9a5d1a585b1a5e995960921b60648201526084016107a9565b600654600160a81b900460ff161580156116ac576006805461ffff60a01b191661010160a01b1790555b336001600160a01b037f0000000000000000000000000000000000000000000000000000000000000000161461173d5760405162461bcd60e51b815260206004820152603060248201527f47656c61746f556e695633506f6f6c53746f726167652e696e697469616c697a60448201526f329d1037b7363c903232b83637bcb2b960811b60648201526084016107a9565b600885905562015180600955600a80546a050000012c001b580000786001600160f01b0319909116179055600b8054600285810b62ffffff90811663010000000265ffffffffffff19939093169188900b1617179055600680546001600160a01b0384166001600160a01b031990911617905580156117c4576006805460ff60a81b191690555b5050505050565b336117de6006546001600160a01b031690565b6001600160a01b0316146118045760405162461bcd60e51b81526004016107a990614f7c565b600a5460408051600292830b830b81529183900b60208301527ffc9323d3d1189f84d652a0a24a9dca3d4fb8520fdb4d922604a82c00b7961c1f910160405180910390a1600a805460029290920b62ffffff1662ffffff19909216919091179055565b6000806118768686868661299d565b915091505b94509492505050565b6000807f00000000000000000000000000000000000000000000000000000000000000006001600160a01b031663514ea4bf6118be6121f4565b6040518263ffffffff1660e01b81526004016118dc91815260200190565b60a06040518083038186803b1580156118f457600080fd5b505afa158015611908573d6000803e3d6000fd5b505050506040513d601f19601f8201168201806040525081019061192c9190614bb1565b50505050905061193d848483612258565b949350505050565b336001600160a01b037f0000000000000000000000000000000000000000000000000000000000000000161461197a57600080fd5b600061198882840184614870565b90506001600160a01b038116301415611a145784156119d5576119d56001600160a01b037f00000000000000000000000000000000000000000000000000000000000000001633876128af565b8315611a0f57611a0f6001600160a01b037f00000000000000000000000000000000000000000000000000000000000000001633866128af565b6117c4565b8415611a4f57611a4f6001600160a01b037f00000000000000000000000000000000000000000000000000000000000000001682338861234b565b83156117c4576117c46001600160a01b037f00000000000000000000000000000000000000000000000000000000000000001682338761234b565b83421115611ada5760405162461bcd60e51b815260206004820152601d60248201527f45524332305065726d69743a206578706972656420646561646c696e6500000060448201526064016107a9565b60007f0000000000000000000000000000000000000000000000000000000000000000888888611b278c6001600160a01b0316600090815260056020526040902080546001810190915590565b6040805160208101969096526001600160a01b0394851690860152929091166060840152608083015260a082015260c0810186905260e0016040516020818303038152906040528051906020012090506000611b8282612a39565b90506000611b9282878787612a87565b9050896001600160a01b0316816001600160a01b031614611bf55760405162461bcd60e51b815260206004820152601e60248201527f45524332305065726d69743a20696e76616c6964207369676e6174757265000060448201526064016107a9565b611c008a8a8a6120cf565b50505050505050505050565b6000610e546121f4565b8181336001600160a01b037f00000000000000000000000000000000000000000000000000000000000000001614611c905760405162461bcd60e51b815260206004820152601760248201527f47656c61746f666965643a204f6e6c792067656c61746f00000000000000000060448201526064016107a9565b611c9e888888888888612c27565b42600c556040805160028a810b825289900b60208201527fa40d93a72f8af7b904f2e4a60095955bfcaa3c724969f731bd8bc1fda226a171910160405180910390a16001600160a01b03811673eeeeeeeeeeeeeeeeeeeeeeeeeeeeeeeeeeeeeeee1415611d3d57611d386001600160a01b037f0000000000000000000000000000000000000000000000000000000000000000168361320d565b611d71565b611d716001600160a01b0382167f0000000000000000000000000000000000000000000000000000000000000000846128af565b5050505050505050565b33611d8e6006546001600160a01b031690565b6001600160a01b031614611db45760405162461bcd60e51b81526004016107a990614f7c565b60085460408051918252602082018390527fccd898f16d5606b9584d88cb9377db147163cafbf1ee39fdd3373cac5acdb0a3910160405180910390a1600855565b33611e086006546001600160a01b031690565b6001600160a01b031614611e2e5760405162461bcd60e51b81526004016107a990614f7c565b600a54604080516301000000909204600290810b810b835283900b60208301527f4e0cb9be252c388b564d89521642ad6c35b3928425ef223110fc3ce860d9211c910160405180910390a1600a805460029290920b62ffffff1663010000000265ffffff00000019909216919091179055565b33611eb46006546001600160a01b031690565b6001600160a01b031614611eda5760405162461bcd60e51b81526004016107a990614f7c565b6001600160a01b038116611f3f5760405162461bcd60e51b815260206004820152602660248201527f4f776e61626c653a206e6577206f776e657220697320746865207a65726f206160448201526564647265737360d01b60648201526084016107a9565b6006546040516001600160a01b038084169216907f8be0079c531659141344cd1fd0a4f28419497f9722a3daafe3b4186f6b6457e090600090a3600680546001600160a01b0319166001600160a01b0392909216919091179055565b33611fae6006546001600160a01b031690565b6001600160a01b031614611fd45760405162461bcd60e51b81526004016107a990614f7c565b60095460408051918252602082018390527fb8ac0cacca9695df3af5d5895e4d904b97f5ffc929f4a362bb22d9d2f3dc0851910160405180910390a1600955565b336001600160a01b037f0000000000000000000000000000000000000000000000000000000000000000161461204a57600080fd5b600084131561208c576120876001600160a01b037f00000000000000000000000000000000000000000000000000000000000000001633866128af565b6120c9565b60008313156120c9576120c96001600160a01b037f00000000000000000000000000000000000000000000000000000000000000001633856128af565b50505050565b6001600160a01b0383166121315760405162461bcd60e51b8152602060048201526024808201527f45524332303a20617070726f76652066726f6d20746865207a65726f206164646044820152637265737360e01b60648201526084016107a9565b6001600160a01b0382166121925760405162461bcd60e51b815260206004820152602260248201527f45524332303a20617070726f766520746f20746865207a65726f206164647265604482015261737360f01b60648201526084016107a9565b6001600160a01b0383811660008181526001602090815260408083209487168084529482529182902085905590518481527f8c5be1e5ebec7d5bd14f71427d1e84f3dd0314c0f7b2291e5b200ac8c7c3b92591015b60405180910390a3505050565b600b546040516bffffffffffffffffffffffff193060601b166020820152600282810b810b60e890811b60348401526301000000909304810b900b90911b6037820152600090603a0160405160208183030381529060405280519060200120905090565b6000807f00000000000000000000000000000000000000000000000000000000000000006001600160a01b0316633850c7bd6040518163ffffffff1660e01b815260040160e06040518083038186803b1580156122b457600080fd5b505afa1580156122c8573d6000803e3d6000fd5b505050506040513d601f19601f820116820180604052508101906122ec9190614c12565b50505050505090506000612311600b60009054906101000a900460020b60020b613326565b90506000612330600b60039054906101000a900460020b60020b613326565b905061234087878786868661373b565b979650505050505050565b6040516001600160a01b03808516602483015283166044820152606481018290526120c99085906323b872dd60e01b906084015b60408051601f198184030181529190526020810180516001600160e01b03166001600160e01b031990931692909217909152613792565b6001600160a01b03821661240c5760405162461bcd60e51b815260206004820152601f60248201527f45524332303a206d696e7420746f20746865207a65726f20616464726573730060448201526064016107a9565b806002600082825461241e9190615077565b90915550506001600160a01b0382166000908152602081905260408120805483929061244b908490615077565b90915550506040518181526001600160a01b038316906000907fddf252ad1be2c89b69c2b068fc378daa952ba7f163c4a11628f55a4df523b3ef9060200160405180910390a35050565b6001600160a01b0383166124f95760405162461bcd60e51b815260206004820152602560248201527f45524332303a207472616e736665722066726f6d20746865207a65726f206164604482015264647265737360d81b60648201526084016107a9565b6001600160a01b03821661255b5760405162461bcd60e51b815260206004820152602360248201527f45524332303a207472616e7366657220746f20746865207a65726f206164647260448201526265737360e81b60648201526084016107a9565b6001600160a01b038316600090815260208190526040902054818110156125d35760405162461bcd60e51b815260206004820152602660248201527f45524332303a207472616e7366657220616d6f756e7420657863656564732062604482015265616c616e636560d01b60648201526084016107a9565b6125dd8282615248565b6001600160a01b038086166000908152602081905260408082209390935590851681529081208054849290612613908490615077565b92505081905550826001600160a01b0316846001600160a01b03167fddf252ad1be2c89b69c2b068fc378daa952ba7f163c4a11628f55a4df523b3ef8460405161265f91815260200190565b60405180910390a350505050565b60007f00000000000000000000000000000000000000000000000000000000000000004614156126bc57507f000000000000000000000000000000000000000000000000000000000000000090565b50604080517f00000000000000000000000000000000000000000000000000000000000000006020808301919091527f0000000000000000000000000000000000000000000000000000000000000000828401527f000000000000000000000000000000000000000000000000000000000000000060608301524660808301523060a0808401919091528351808403909101815260c0909201909252805191012090565b6001600160a01b0382166127c05760405162461bcd60e51b815260206004820152602160248201527f45524332303a206275726e2066726f6d20746865207a65726f206164647265736044820152607360f81b60648201526084016107a9565b6001600160a01b038216600090815260208190526040902054818110156128345760405162461bcd60e51b815260206004820152602260248201527f45524332303a206275726e20616d6f756e7420657863656564732062616c616e604482015261636560f01b60648201526084016107a9565b61283e8282615248565b6001600160a01b0384166000908152602081905260408120919091556002805484929061286c908490615248565b90915550506040518281526000906001600160a01b038516907fddf252ad1be2c89b69c2b068fc378daa952ba7f163c4a11628f55a4df523b3ef906020016121e7565b6040516001600160a01b0383166024820152604481018290526128df90849063a9059cbb60e01b9060640161237f565b505050565b6000836001600160a01b0316856001600160a01b03161115612904579293925b846001600160a01b0316866001600160a01b0316101561293057612929858585613864565b90506113e2565b836001600160a01b0316866001600160a01b03161015612992576000612957878686613864565b905060006129668789866138ce565b9050806001600160801b0316826001600160801b0316106129875780612989565b815b925050506113e2565b6113df8585846138ce565b600080836001600160a01b0316856001600160a01b031611156129be579293925b846001600160a01b0316866001600160a01b031610156129ea576129e3858585613904565b915061187b565b836001600160a01b0316866001600160a01b03161015612a2357612a0f868585613904565b9150612a1c858785613977565b905061187b565b612a2e858585613977565b905094509492505050565b6000611488612a4661266d565b8360405161190160f01b6020820152602281018390526042810182905260009060620160405160208183030381529060405280519060200120905092915050565b60007f7fffffffffffffffffffffffffffffff5d576e7357a4501ddfe92f46681b20a0821115612b045760405162461bcd60e51b815260206004820152602260248201527f45434453413a20696e76616c6964207369676e6174757265202773272076616c604482015261756560f01b60648201526084016107a9565b8360ff16601b1480612b1957508360ff16601c145b612b705760405162461bcd60e51b815260206004820152602260248201527f45434453413a20696e76616c6964207369676e6174757265202776272076616c604482015261756560f01b60648201526084016107a9565b6040805160008082526020820180845288905260ff871692820192909252606081018590526080810184905260019060a0016020604051602081039080840390855afa158015612bc4573d6000803e3d6000fd5b5050604051601f1901519150506001600160a01b0381166113e25760405162461bcd60e51b815260206004820152601860248201527f45434453413a20696e76616c6964207369676e6174757265000000000000000060448201526064016107a9565b60008060007f00000000000000000000000000000000000000000000000000000000000000006001600160a01b031663514ea4bf612c636121f4565b6040518263ffffffff1660e01b8152600401612c8191815260200190565b60a06040518083038186803b158015612c9957600080fd5b505afa158015612cad573d6000803e3d6000fd5b505050506040513d601f19601f82011682018060405250810190612cd19190614bb1565b5050600b54929350612cf692600281810b93506301000000909104900b9050836139c1565b6040516370a0823160e01b81523060048201526000907f00000000000000000000000000000000000000000000000000000000000000006001600160a01b0316906370a082319060240160206040518083038186803b158015612d5857600080fd5b505afa158015612d6c573d6000803e3d6000fd5b505050506040513d601f19601f82011682018060405250810190612d909190614d6b565b6040516370a0823160e01b81523060048201529091506000906001600160a01b037f000000000000000000000000000000000000000000000000000000000000000016906370a082319060240160206040518083038186803b158015612df557600080fd5b505afa158015612e09573d6000803e3d6000fd5b505050506040513d601f19601f82011682018060405250810190612e2d9190614d6b565b90507f00000000000000000000000000000000000000000000000000000000000000006001600160a01b0316866001600160a01b031614612e6e5781612e78565b612e788783615248565b94507f00000000000000000000000000000000000000000000000000000000000000006001600160a01b0316866001600160a01b031614612eb95780612ec3565b612ec38782615248565b935050505060007f00000000000000000000000000000000000000000000000000000000000000006001600160a01b0316633850c7bd6040518163ffffffff1660e01b815260040160e06040518083038186803b158015612f2357600080fd5b505afa158015612f37573d6000803e3d6000fd5b505050506040513d601f19601f82011682018060405250810190612f5b9190614c12565b5050505050915050600954600c54612f739190615077565b42101561302a57600b5463010000009004600290810b810b9082900b1380612fa65750600b54600290810b810b9082900b125b61302a5760405162461bcd60e51b815260206004820152604960248201527f47656c61746f556e695633506f6f6c2e5f61646a75737443757272656e74506f60448201527f6f6c3a207072696365207374696c6c20696e2072616e676520616e64206e6f206064820152681a19585c9d1899585d60ba1b608482015260a4016107a9565b600a5461303a9060020b82615155565b60020b8960020b1315801561306b5750600a54613061906301000000900460020b82615155565b60020b8960020b12155b6130dd5760405162461bcd60e51b815260206004820152603a60248201527f47656c61746f556e695633506f6f6c2e5f61646a75737443757272656e74506f60448201527f6f6c3a206c6f7765725469636b206f7574206f662072616e676500000000000060648201526084016107a9565b600a546130f4906301000000900460020b82615006565b60020b8860020b1315801561311e5750600a546131149060020b82615006565b60020b8860020b12155b6131905760405162461bcd60e51b815260206004820152603a60248201527f47656c61746f556e695633506f6f6c2e5f61646a75737443757272656e74506f60448201527f6f6c3a2075707065725469636b206f7574206f662072616e676500000000000060648201526084016107a9565b600b5460028a810b91810b900b146131ba57600b805462ffffff191662ffffff60028c900b161790555b600b54600289810b6301000000909204810b900b146131f457600b805465ffffff0000001916630100000062ffffff60028c900b16021790555b613202898985858b8b613b22565b505050505050505050565b8047101561325d5760405162461bcd60e51b815260206004820152601d60248201527f416464726573733a20696e73756666696369656e742062616c616e636500000060448201526064016107a9565b6000826001600160a01b03168260405160006040518083038185875af1925050503d80600081146132aa576040519150601f19603f3d011682016040523d82523d6000602084013e6132af565b606091505b50509050806128df5760405162461bcd60e51b815260206004820152603a60248201527f416464726573733a20756e61626c6520746f2073656e642076616c75652c207260448201527f6563697069656e74206d6179206861766520726576657274656400000000000060648201526084016107a9565b60008060008360020b1261333d578260020b61334a565b8260020b61334a906152c0565b9050613359620d89e71961529f565b60020b81111561338f5760405162461bcd60e51b81526020600482015260016024820152601560fa1b60448201526064016107a9565b6000600182166133a357600160801b6133b5565b6ffffcb933bd6fad37aa2d162d1a5940015b70ffffffffffffffffffffffffffffffffff16905060028216156133f45760806133ef826ffff97272373d413259a46990580e213a615136565b901c90505b600482161561341e576080613419826ffff2e50f5f656932ef12357cf3c7fdcc615136565b901c90505b6008821615613448576080613443826fffe5caca7e10e4e61c3624eaa0941cd0615136565b901c90505b601082161561347257608061346d826fffcb9843d60f6159c9db58835c926644615136565b901c90505b602082161561349c576080613497826fff973b41fa98c081472e6896dfb254c0615136565b901c90505b60408216156134c65760806134c1826fff2ea16466c96a3843ec78b326b52861615136565b901c90505b60808216156134f05760806134eb826ffe5dee046a99a2a811c461f1969c3053615136565b901c90505b61010082161561351b576080613516826ffcbe86c7900a88aedcffc83b479aa3a4615136565b901c90505b610200821615613546576080613541826ff987a7253ac413176f2b074cf7815e54615136565b901c90505b61040082161561357157608061356c826ff3392b0822b70005940c7a398e4b70f3615136565b901c90505b61080082161561359c576080613597826fe7159475a2c29b7443b29c7fa6e889d9615136565b901c90505b6110008216156135c75760806135c2826fd097f3bdfd2022b8845ad8f792aa5825615136565b901c90505b6120008216156135f25760806135ed826fa9f746462d870fdf8a65dc1f90e061e5615136565b901c90505b61400082161561361d576080613618826f70d869a156d2a1b890bb3df62baf32f7615136565b901c90505b618000821615613648576080613643826f31be135f97d08fd981231505542fcfa6615136565b901c90505b6201000082161561367457608061366f826f09aa508b5b7a84e1c677de54f3e99bc9615136565b901c90505b6202000082161561369f57608061369a826e5d6af8dedb81196699c329225ee604615136565b901c90505b620400008216156136c95760806136c4826d2216e584f5fa1ea926041bedfe98615136565b901c90505b620800008216156136f15760806136ec826b048a170391f7dc42444e8fa2615136565b901c90505b60008460020b131561370c57613709816000196150f3565b90505b61371b6401000000008261528b565b1561372757600161372a565b60005b61193d9060ff16602083901c615077565b60008061374b8585858b8b6128e4565b905060008061375c83898c8c613d5a565b91509150898214158061376f5750888114155b156137845761378187878785856128e4565b92505b509098975050505050505050565b60006137e7826040518060400160405280602081526020017f5361666545524332303a206c6f772d6c6576656c2063616c6c206661696c6564815250856001600160a01b0316613f399092919063ffffffff16565b8051909150156128df57808060200190518101906138059190614a6a565b6128df5760405162461bcd60e51b815260206004820152602a60248201527f5361666545524332303a204552433230206f7065726174696f6e20646964206e6044820152691bdd081cdd58d8d9595960b21b60648201526084016107a9565b6000826001600160a01b0316846001600160a01b03161115613884579192915b60006138a7856001600160a01b0316856001600160a01b0316600160601b613f48565b90506113e26138c984836138bb8989615220565b6001600160a01b0316613f48565b6140cd565b6000826001600160a01b0316846001600160a01b031611156138ee579192915b61193d6138c983600160601b6138bb8888615220565b6000826001600160a01b0316846001600160a01b03161115613924579192915b6001600160a01b03841661396d6fffffffffffffffffffffffffffffffff60601b606085901b166139558787615220565b6001600160a01b0316866001600160a01b0316613f48565b61193d91906150f3565b6000826001600160a01b0316846001600160a01b03161115613997579192915b61193d6001600160801b0383166139ae8686615220565b6001600160a01b0316600160601b613f48565b60405163a34123a760e01b8152600284810b600483015283900b60248201526001600160801b03821660448201527f00000000000000000000000000000000000000000000000000000000000000006001600160a01b03169063a34123a7906064016040805180830381600087803b158015613a3c57600080fd5b505af1158015613a50573d6000803e3d6000fd5b505050506040513d601f19601f82011682018060405250810190613a749190614b0f565b50506040516309e3d67b60e31b81526001600160a01b037f00000000000000000000000000000000000000000000000000000000000000001690634f1eb3d890613ad1903090879087906001600160801b03908190600401614e99565b6040805180830381600087803b158015613aea57600080fd5b505af1158015613afe573d6000803e3d6000fd5b505050506040513d601f19601f820116820180604052508101906117c49190614b83565b60007f00000000000000000000000000000000000000000000000000000000000000006001600160a01b0316633850c7bd6040518163ffffffff1660e01b815260040160e06040518083038186803b158015613b7d57600080fd5b505afa158015613b91573d6000803e3d6000fd5b505050506040513d601f19601f82011682018060405250810190613bb59190614c12565b5050505050509050600085118015613bcd5750600084115b15613cf0576000613bf782613be48a60020b613326565b613bf08a60020b613326565b89896128e4565b90506000807f00000000000000000000000000000000000000000000000000000000000000006001600160a01b0316633c8a7d8d308c8c8730604051602001613c4f91906001600160a01b0391909116815260200190565b6040516020818303038152906040526040518663ffffffff1660e01b8152600401613c7e959493929190614e57565b6040805180830381600087803b158015613c9757600080fd5b505af1158015613cab573d6000803e3d6000fd5b505050506040513d601f19601f82011682018060405250810190613ccf9190614b0f565b9092509050613cde8289615248565b9750613cea8188615248565b96505050505b6000851180613cff5750600084115b15613d5157838511613d1184826140e8565b60006127108483613d225787613d24565b885b613d2e9190615136565b613d3891906150f3565b9050613d4989898989858a886143c1565b909750955050505b50505050505050565b6000806001600160801b038516613d7557508290508161187b565b6040516370a0823160e01b81523060048201526000907f00000000000000000000000000000000000000000000000000000000000000006001600160a01b0316906370a082319060240160206040518083038186803b158015613dd757600080fd5b505afa158015613deb573d6000803e3d6000fd5b505050506040513d601f19601f82011682018060405250810190613e0f9190614d6b565b6040516370a0823160e01b81523060048201529091506000906001600160a01b037f000000000000000000000000000000000000000000000000000000000000000016906370a082319060240160206040518083038186803b158015613e7457600080fd5b505afa158015613e88573d6000803e3d6000fd5b505050506040513d601f19601f82011682018060405250810190613eac9190614d6b565b90506000876001600160801b0316896001600160801b0316612710613ed19190615136565b613edb91906150f3565b90506000612710613eec8386615136565b613ef691906150f3565b90506000612710613f078486615136565b613f1191906150f3565b9050613f1d828a615248565b9650613f298189615248565b9550505050505094509492505050565b606061193d848460008561463e565b600080806000198587098587029250828110838203039150508060001415613f825760008411613f7757600080fd5b508290049050610e43565b808411613f8e57600080fd5b600084868809808403938111909203919050600085613faf81600019615248565b613fba906001615077565b16958690049593849004936000819003046001019050613fda8184615136565b909317926000613feb876003615136565b6002189050613ffa8188615136565b614005906002615248565b61400f9082615136565b905061401b8188615136565b614026906002615248565b6140309082615136565b905061403c8188615136565b614047906002615248565b6140519082615136565b905061405d8188615136565b614068906002615248565b6140729082615136565b905061407e8188615136565b614089906002615248565b6140939082615136565b905061409f8188615136565b6140aa906002615248565b6140b49082615136565b90506140c08186615136565b9998505050505050505050565b806001600160801b03811681146140e357600080fd5b919050565b604080516002808252606082018352600092602083019080368337019050509050600a60069054906101000a900463ffffffff168160008151811061413d57634e487b7160e01b600052603260045260246000fd5b602002602001019063ffffffff16908163ffffffff168152505060008160018151811061417a57634e487b7160e01b600052603260045260246000fd5b63ffffffff9092166020928302919091019091015260405163883bdbfd60e01b81526000906001600160a01b037f0000000000000000000000000000000000000000000000000000000000000000169063883bdbfd906141de908590600401614ed6565b60006040518083038186803b1580156141f657600080fd5b505afa15801561420a573d6000803e3d6000fd5b505050506040513d6000823e601f3d908101601f19168201604052614232919081019061499f565b50905080516002146142865760405162461bcd60e51b815260206004820152601f60248201527f756e6578706563746564206c656e677468206f66207469636b2061727261790060448201526064016107a9565b600a548151600091600160301b900463ffffffff1690839083906142ba57634e487b7160e01b600052603260045260246000fd5b6020026020010151836001815181106142e357634e487b7160e01b600052603260045260246000fd5b60200260200101516142f591906151db565b6142ff919061508f565b9050600061430f8260020b613326565b905060006064600a8054906101000a90046001600160a01b0316836143349190615107565b61433e91906150cd565b90508515614386576143508183615220565b6001600160a01b0316876001600160a01b031610156143815760405162461bcd60e51b81526004016107a990614f33565b613d51565b614390818361504c565b6001600160a01b0316876001600160a01b03161115613d515760405162461bcd60e51b81526004016107a990614f33565b604051630251596160e31b81523060048201528115156024820152604481018490526001600160a01b03838116606483015260a06084830152600060a48301819052918291829182917f0000000000000000000000000000000000000000000000000000000000000000169063128acb089060c4016040805180830381600087803b15801561444f57600080fd5b505af1158015614463573d6000803e3d6000fd5b505050506040513d601f19601f820116820180604052508101906144879190614b0f565b9092509050614496828a61519c565b93506144a2818961519c565b925060007f00000000000000000000000000000000000000000000000000000000000000006001600160a01b0316633850c7bd6040518163ffffffff1660e01b815260040160e06040518083038186803b1580156144ff57600080fd5b505afa158015614513573d6000803e3d6000fd5b505050506040513d601f19601f820116820180604052508101906145379190614c12565b505050505050905060006145578261454e8f613326565b613bf08f613326565b90507f00000000000000000000000000000000000000000000000000000000000000006001600160a01b0316633c8a7d8d308f8f85306040516020016145ac91906001600160a01b0391909116815260200190565b6040516020818303038152906040526040518663ffffffff1660e01b81526004016145db959493929190614e57565b6040805180830381600087803b1580156145f457600080fd5b505af1158015614608573d6000803e3d6000fd5b505050506040513d601f19601f8201168201806040525081019061462c9190614b0f565b50505050505097509795505050505050565b60608247101561469f5760405162461bcd60e51b815260206004820152602660248201527f416464726573733a20696e73756666696369656e742062616c616e636520666f6044820152651c8818d85b1b60d21b60648201526084016107a9565b843b6146ed5760405162461bcd60e51b815260206004820152601d60248201527f416464726573733a2063616c6c20746f206e6f6e2d636f6e747261637400000060448201526064016107a9565b600080866001600160a01b031685876040516147099190614e3b565b60006040518083038185875af1925050503d8060008114614746576040519150601f19603f3d011682016040523d82523d6000602084013e61474b565b606091505b509150915061234082828660608315614765575081610e43565b8251156147755782518084602001fd5b8160405162461bcd60e51b81526004016107a99190614f20565b600082601f83011261479f578081fd5b815160206147b46147af83614fe2565b614fb1565b80838252828201915082860187848660051b89010111156147d3578586fd5b855b858110156147fa5781516147e88161531c565b845292840192908401906001016147d5565b5090979650505050505050565b805180151581146140e357600080fd5b60008083601f840112614828578182fd5b50813567ffffffffffffffff81111561483f578182fd5b60208301915083602082850101111561485757600080fd5b9250929050565b805161ffff811681146140e357600080fd5b600060208284031215614881578081fd5b8135610e438161531c565b6000806040838503121561489e578081fd5b82356148a98161531c565b915060208301356148b98161531c565b809150509250929050565b6000806000606084860312156148d8578081fd5b83356148e38161531c565b925060208401356148f38161531c565b929592945050506040919091013590565b600080600080600080600060e0888a03121561491e578283fd5b87356149298161531c565b965060208801356149398161531c565b95506040880135945060608801359350608088013561495781615358565b9699959850939692959460a0840135945060c09093013592915050565b60008060408385031215614986578182fd5b82356149918161531c565b946020939093013593505050565b600080604083850312156149b1578182fd5b825167ffffffffffffffff808211156149c8578384fd5b818501915085601f8301126149db578384fd5b815160206149eb6147af83614fe2565b8083825282820191508286018a848660051b8901011115614a0a578889fd5b8896505b84871015614a3a5780518060060b8114614a2657898afd5b835260019690960195918301918301614a0e565b5091880151919650909350505080821115614a53578283fd5b50614a608582860161478f565b9150509250929050565b600060208284031215614a7b578081fd5b610e4382614807565b600060208284031215614a95578081fd5b8135610e4381615334565b60008060008060008060c08789031215614ab8578384fd5b8635614ac381615334565b95506020870135614ad381615334565b94506040870135614ae38161531c565b9350606087013592506080870135915060a0870135614b018161531c565b809150509295509295509295565b60008060408385031215614b21578182fd5b505080516020909101519092909150565b60008060008060608587031215614b47578182fd5b8435935060208501359250604085013567ffffffffffffffff811115614b6b578283fd5b614b7787828801614817565b95989497509550505050565b60008060408385031215614b95578182fd5b8251614ba081615343565b60208401519092506148b981615343565b600080600080600060a08688031215614bc8578283fd5b8551614bd381615343565b8095505060208601519350604086015192506060860151614bf381615343565b6080870151909250614c0481615343565b809150509295509295909350565b600080600080600080600060e0888a031215614c2c578081fd5b8751614c378161531c565b6020890151909750614c4881615334565b9550614c566040890161485e565b9450614c646060890161485e565b9350614c726080890161485e565b925060a0880151614c8281615358565b9150614c9060c08901614807565b905092959891949750929550565b60008060008060808587031215614cb3578182fd5b8435614cbe8161531c565b93506020850135614cce8161531c565b92506040850135614cde8161531c565b91506060850135614cee81615343565b939692955090935050565b600080600080600060a08688031215614d10578283fd5b8535614d1b8161531c565b94506020860135614d2b8161531c565b93506040860135614d3b8161531c565b94979396509394606081013594506080013592915050565b600060208284031215614d64578081fd5b5035919050565b600060208284031215614d7c578081fd5b5051919050565b60008060008060808587031215614d98578182fd5b843593506020850135614daa81615334565b92506040850135614dba81615334565b91506060850135614cee8161531c565b60008060408385031215614ddc578182fd5b50508035926020909101359150565b600060208284031215614dfc578081fd5b813563ffffffff81168114610e43578182fd5b60008151808452614e2781602086016020860161525f565b601f01601f19169290920160200192915050565b60008251614e4d81846020870161525f565b9190910192915050565b60018060a01b03861681528460020b60208201528360020b60408201526001600160801b038316606082015260a06080820152600061234060a0830184614e0f565b6001600160a01b03959095168552600293840b60208601529190920b60408401526001600160801b03918216606084015216608082015260a00190565b6020808252825182820181905260009190848201906040850190845b81811015614f1457835163ffffffff1683529284019291840191600101614ef2565b50909695505050505050565b602081526000610e436020830184614e0f565b60208082526029908201527f736c697070616765207072696365206973206f7574206f662061636365707461604082015268626c652072616e676560b81b606082015260800190565b6020808252818101527f4f776e61626c653a2063616c6c6572206973206e6f7420746865206f776e6572604082015260600190565b604051601f8201601f1916810167ffffffffffffffff81118282101715614fda57614fda615306565b604052919050565b600067ffffffffffffffff821115614ffc57614ffc615306565b5060051b60200190565b60008160020b8360020b82821282627fffff0382138115161561502b5761502b6152da565b82627fffff19038212811615615043576150436152da565b50019392505050565b60006001600160a01b0382811684821680830382111561506e5761506e6152da565b01949350505050565b6000821982111561508a5761508a6152da565b500190565b60008160060b8360060b806150a6576150a66152f0565b667fffffffffffff198214600019821416156150c4576150c46152da565b90059392505050565b60006001600160a01b03838116806150e7576150e76152f0565b92169190910492915050565b600082615102576151026152f0565b500490565b60006001600160a01b038281168482168115158284048211161561512d5761512d6152da565b02949350505050565b6000816000190483118215151615615150576151506152da565b500290565b60008160020b8360020b82811281627fffff190183128115161561517b5761517b6152da565b81627fffff018313811615615192576151926152da565b5090039392505050565b60008083128015600160ff1b8501841216156151ba576151ba6152da565b6001600160ff1b03840183138116156151d5576151d56152da565b50500390565b60008160060b8360060b82811281667fffffffffffff1901831281151615615205576152056152da565b81667fffffffffffff018313811615615192576151926152da565b60006001600160a01b0383811690831681811015615240576152406152da565b039392505050565b60008282101561525a5761525a6152da565b500390565b60005b8381101561527a578181015183820152602001615262565b838111156120c95750506000910152565b60008261529a5761529a6152f0565b500690565b60008160020b627fffff198114156152b9576152b96152da565b9003919050565b6000600160ff1b8214156152d6576152d66152da565b0390565b634e487b7160e01b600052601160045260246000fd5b634e487b7160e01b600052601260045260246000fd5b634e487b7160e01b600052604160045260246000fd5b6001600160a01b038116811461533157600080fd5b50565b8060020b811461533157600080fd5b6001600160801b038116811461533157600080fd5b60ff8116811461533157600080fdfea2646970667358221220893b353d13ce6d9d726626326b8b986f0af09211a3e04cc5f7fbb2c291c5ee2f64736f6c63430008040033",
  "devdoc": {
    "details": "DO NOT ADD STATE VARIABLES - APPEND THEM TO GelatoUniV3PoolStorageDO NOT ADD BASE CONTRACTS WITH STATE VARS - APPEND THEM TO GelatoUniV3PoolStorage",
    "kind": "dev",
    "methods": {
      "DOMAIN_SEPARATOR()": {
        "details": "See {IERC20Permit-DOMAIN_SEPARATOR}."
      },
      "allowance(address,address)": {
        "details": "See {IERC20-allowance}."
      },
      "approve(address,uint256)": {
        "details": "See {IERC20-approve}. Requirements: - `spender` cannot be the zero address."
      },
      "balanceOf(address)": {
        "details": "See {IERC20-balanceOf}."
      },
      "decimals()": {
        "details": "Returns the number of decimals used to get its user representation. For example, if `decimals` equals `2`, a balance of `505` tokens should be displayed to a user as `5,05` (`505 / 10 ** 2`). Tokens usually opt for a value of 18, imitating the relationship between Ether and Wei. This is the value {ERC20} uses, unless this function is overridden; NOTE: This information is only used for _display_ purposes: it in no way affects any of the arithmetic of the contract, including {IERC20-balanceOf} and {IERC20-transfer}."
      },
      "decreaseAllowance(address,uint256)": {
        "details": "Atomically decreases the allowance granted to `spender` by the caller. This is an alternative to {approve} that can be used as a mitigation for problems described in {IERC20-approve}. Emits an {Approval} event indicating the updated allowance. Requirements: - `spender` cannot be the zero address. - `spender` must have allowance for the caller of at least `subtractedValue`."
      },
      "increaseAllowance(address,uint256)": {
        "details": "Atomically increases the allowance granted to `spender` by the caller. This is an alternative to {approve} that can be used as a mitigation for problems described in {IERC20-approve}. Emits an {Approval} event indicating the updated allowance. Requirements: - `spender` cannot be the zero address."
      },
      "name()": {
        "details": "Returns the name of the token."
      },
      "nonces(address)": {
        "details": "See {IERC20Permit-nonces}."
      },
      "owner()": {
        "details": "Returns the address of the current owner."
      },
      "permit(address,address,uint256,uint256,uint8,bytes32,bytes32)": {
        "details": "See {IERC20Permit-permit}."
      },
      "renounceOwnership()": {
        "details": "Leaves the contract without owner. It will not be possible to call `onlyOwner` functions anymore. Can only be called by the current owner. NOTE: Renouncing ownership will leave the contract without an owner, thereby removing any functionality that is only available to the owner."
      },
      "symbol()": {
        "details": "Returns the symbol of the token, usually a shorter version of the name."
      },
      "totalSupply()": {
        "details": "See {IERC20-totalSupply}."
      },
      "transfer(address,uint256)": {
        "details": "See {IERC20-transfer}. Requirements: - `recipient` cannot be the zero address. - the caller must have a balance of at least `amount`."
      },
      "transferFrom(address,address,uint256)": {
        "details": "See {IERC20-transferFrom}. Emits an {Approval} event indicating the updated allowance. This is not required by the EIP. See the note at the beginning of {ERC20}. Requirements: - `sender` and `recipient` cannot be the zero address. - `sender` must have a balance of at least `amount`. - the caller must have allowance for ``sender``'s tokens of at least `amount`."
      },
      "transferOwnership(address)": {
        "details": "Transfers ownership of the contract to a new account (`newOwner`). Can only be called by the current owner."
      }
    },
    "version": 1
  },
  "userdoc": {
    "kind": "user",
    "methods": {},
    "version": 1
  },
  "storageLayout": {
    "storage": [
      {
        "astId": 101,
        "contract": "contracts/GelatoUniV3Pool.sol:GelatoUniV3Pool",
        "label": "_balances",
        "offset": 0,
        "slot": "0",
        "type": "t_mapping(t_address,t_uint256)"
      },
      {
        "astId": 107,
        "contract": "contracts/GelatoUniV3Pool.sol:GelatoUniV3Pool",
        "label": "_allowances",
        "offset": 0,
        "slot": "1",
        "type": "t_mapping(t_address,t_mapping(t_address,t_uint256))"
      },
      {
        "astId": 109,
        "contract": "contracts/GelatoUniV3Pool.sol:GelatoUniV3Pool",
        "label": "_totalSupply",
        "offset": 0,
        "slot": "2",
        "type": "t_uint256"
      },
      {
        "astId": 111,
        "contract": "contracts/GelatoUniV3Pool.sol:GelatoUniV3Pool",
        "label": "_name",
        "offset": 0,
        "slot": "3",
        "type": "t_string_storage"
      },
      {
        "astId": 113,
        "contract": "contracts/GelatoUniV3Pool.sol:GelatoUniV3Pool",
        "label": "_symbol",
        "offset": 0,
        "slot": "4",
        "type": "t_string_storage"
      },
      {
        "astId": 718,
        "contract": "contracts/GelatoUniV3Pool.sol:GelatoUniV3Pool",
        "label": "_nonces",
        "offset": 0,
        "slot": "5",
        "type": "t_mapping(t_address,t_struct(Counter)1449_storage)"
      },
      {
        "astId": 4435,
        "contract": "contracts/GelatoUniV3Pool.sol:GelatoUniV3Pool",
        "label": "_owner",
        "offset": 0,
        "slot": "6",
        "type": "t_address"
      },
      {
        "astId": 5,
        "contract": "contracts/GelatoUniV3Pool.sol:GelatoUniV3Pool",
        "label": "_initialized",
        "offset": 20,
        "slot": "6",
        "type": "t_bool"
      },
      {
        "astId": 8,
        "contract": "contracts/GelatoUniV3Pool.sol:GelatoUniV3Pool",
        "label": "_initializing",
        "offset": 21,
        "slot": "6",
        "type": "t_bool"
      },
      {
        "astId": 56,
        "contract": "contracts/GelatoUniV3Pool.sol:GelatoUniV3Pool",
        "label": "_status",
        "offset": 0,
        "slot": "7",
        "type": "t_uint256"
      },
      {
        "astId": 4006,
        "contract": "contracts/GelatoUniV3Pool.sol:GelatoUniV3Pool",
        "label": "_supplyCap",
        "offset": 0,
        "slot": "8",
        "type": "t_uint256"
      },
      {
        "astId": 4008,
        "contract": "contracts/GelatoUniV3Pool.sol:GelatoUniV3Pool",
        "label": "_heartbeat",
        "offset": 0,
        "slot": "9",
        "type": "t_uint256"
      },
      {
        "astId": 4010,
        "contract": "contracts/GelatoUniV3Pool.sol:GelatoUniV3Pool",
        "label": "_minTickDeviation",
        "offset": 0,
        "slot": "10",
        "type": "t_int24"
      },
      {
        "astId": 4012,
        "contract": "contracts/GelatoUniV3Pool.sol:GelatoUniV3Pool",
        "label": "_maxTickDeviation",
        "offset": 3,
        "slot": "10",
        "type": "t_int24"
      },
      {
        "astId": 4014,
        "contract": "contracts/GelatoUniV3Pool.sol:GelatoUniV3Pool",
        "label": "_observationSeconds",
        "offset": 6,
        "slot": "10",
        "type": "t_uint32"
      },
      {
        "astId": 4016,
        "contract": "contracts/GelatoUniV3Pool.sol:GelatoUniV3Pool",
        "label": "_maxSlippagePercentage",
        "offset": 10,
        "slot": "10",
        "type": "t_uint160"
      },
      {
        "astId": 4018,
        "contract": "contracts/GelatoUniV3Pool.sol:GelatoUniV3Pool",
        "label": "_currentLowerTick",
        "offset": 0,
        "slot": "11",
        "type": "t_int24"
      },
      {
        "astId": 4020,
        "contract": "contracts/GelatoUniV3Pool.sol:GelatoUniV3Pool",
        "label": "_currentUpperTick",
        "offset": 3,
        "slot": "11",
        "type": "t_int24"
      },
      {
        "astId": 4022,
        "contract": "contracts/GelatoUniV3Pool.sol:GelatoUniV3Pool",
        "label": "_lastRebalanceTimestamp",
        "offset": 0,
        "slot": "12",
        "type": "t_uint256"
      },
      {
        "astId": 4024,
        "contract": "contracts/GelatoUniV3Pool.sol:GelatoUniV3Pool",
        "label": "_lastMintOrBurnTimestamp",
        "offset": 0,
        "slot": "13",
        "type": "t_uint256"
      }
    ],
    "types": {
      "t_address": {
        "encoding": "inplace",
        "label": "address",
        "numberOfBytes": "20"
      },
      "t_bool": {
        "encoding": "inplace",
        "label": "bool",
        "numberOfBytes": "1"
      },
      "t_int24": {
        "encoding": "inplace",
        "label": "int24",
        "numberOfBytes": "3"
      },
      "t_mapping(t_address,t_mapping(t_address,t_uint256))": {
        "encoding": "mapping",
        "key": "t_address",
        "label": "mapping(address => mapping(address => uint256))",
        "numberOfBytes": "32",
        "value": "t_mapping(t_address,t_uint256)"
      },
      "t_mapping(t_address,t_struct(Counter)1449_storage)": {
        "encoding": "mapping",
        "key": "t_address",
        "label": "mapping(address => struct Counters.Counter)",
        "numberOfBytes": "32",
        "value": "t_struct(Counter)1449_storage"
      },
      "t_mapping(t_address,t_uint256)": {
        "encoding": "mapping",
        "key": "t_address",
        "label": "mapping(address => uint256)",
        "numberOfBytes": "32",
        "value": "t_uint256"
      },
      "t_string_storage": {
        "encoding": "bytes",
        "label": "string",
        "numberOfBytes": "32"
      },
      "t_struct(Counter)1449_storage": {
        "encoding": "inplace",
        "label": "struct Counters.Counter",
        "members": [
          {
            "astId": 1448,
            "contract": "contracts/GelatoUniV3Pool.sol:GelatoUniV3Pool",
            "label": "_value",
            "offset": 0,
            "slot": "0",
            "type": "t_uint256"
          }
        ],
        "numberOfBytes": "32"
      },
      "t_uint160": {
        "encoding": "inplace",
        "label": "uint160",
        "numberOfBytes": "20"
      },
      "t_uint256": {
        "encoding": "inplace",
        "label": "uint256",
        "numberOfBytes": "32"
      },
      "t_uint32": {
        "encoding": "inplace",
        "label": "uint32",
        "numberOfBytes": "4"
      }
    }
  }
}