{
  "address": "0x9dB7Be212d8Af680eA7E1aCE9724e513d4A590D5",
  "abi": [
    {
      "inputs": [
        {
          "internalType": "contract IUniswapV3Pool",
          "name": "_pool",
          "type": "address"
        },
        {
          "internalType": "address payable",
          "name": "_gelato",
          "type": "address"
        }
      ],
      "stateMutability": "nonpayable",
      "type": "constructor"
    },
    {
      "anonymous": false,
      "inputs": [
        {
          "indexed": true,
          "internalType": "address",
          "name": "owner",
          "type": "address"
        },
        {
          "indexed": true,
          "internalType": "address",
          "name": "spender",
          "type": "address"
        },
        {
          "indexed": false,
          "internalType": "uint256",
          "name": "value",
          "type": "uint256"
        }
      ],
      "name": "Approval",
      "type": "event"
    },
    {
      "anonymous": false,
      "inputs": [
        {
          "indexed": false,
          "internalType": "address",
          "name": "receiver",
          "type": "address"
        },
        {
          "indexed": false,
          "internalType": "uint256",
          "name": "burnAmount",
          "type": "uint256"
        },
        {
          "indexed": false,
          "internalType": "uint256",
          "name": "amount0Out",
          "type": "uint256"
        },
        {
          "indexed": false,
          "internalType": "uint256",
          "name": "amount1Out",
          "type": "uint256"
        },
        {
          "indexed": false,
          "internalType": "uint128",
          "name": "liquidityBurned",
          "type": "uint128"
        }
      ],
      "name": "Burned",
      "type": "event"
    },
    {
      "anonymous": false,
      "inputs": [
        {
          "indexed": false,
          "internalType": "address",
          "name": "receiver",
          "type": "address"
        },
        {
          "indexed": false,
          "internalType": "uint256",
          "name": "mintAmount",
          "type": "uint256"
        },
        {
          "indexed": false,
          "internalType": "uint256",
          "name": "amount0In",
          "type": "uint256"
        },
        {
          "indexed": false,
          "internalType": "uint256",
          "name": "amount1In",
          "type": "uint256"
        },
        {
          "indexed": false,
          "internalType": "uint128",
          "name": "liquidityMinted",
          "type": "uint128"
        }
      ],
      "name": "Minted",
      "type": "event"
    },
    {
      "anonymous": false,
      "inputs": [
        {
          "indexed": true,
          "internalType": "address",
          "name": "previousOwner",
          "type": "address"
        },
        {
          "indexed": true,
          "internalType": "address",
          "name": "newOwner",
          "type": "address"
        }
      ],
      "name": "OwnershipTransferred",
      "type": "event"
    },
    {
      "anonymous": false,
      "inputs": [
        {
          "indexed": false,
          "internalType": "int24",
          "name": "lowerTick",
          "type": "int24"
        },
        {
          "indexed": false,
          "internalType": "int24",
          "name": "upperTick",
          "type": "int24"
        }
      ],
      "name": "Rebalance",
      "type": "event"
    },
    {
      "anonymous": false,
      "inputs": [
        {
          "indexed": true,
          "internalType": "address",
          "name": "from",
          "type": "address"
        },
        {
          "indexed": true,
          "internalType": "address",
          "name": "to",
          "type": "address"
        },
        {
          "indexed": false,
          "internalType": "uint256",
          "name": "value",
          "type": "uint256"
        }
      ],
      "name": "Transfer",
      "type": "event"
    },
    {
      "anonymous": false,
      "inputs": [
        {
          "indexed": false,
          "internalType": "uint32",
          "name": "observationSeconds",
          "type": "uint32"
        },
        {
          "indexed": false,
          "internalType": "uint16",
          "name": "maxSlippageBPS",
          "type": "uint16"
        },
        {
          "indexed": false,
          "internalType": "uint16",
          "name": "adminFeeBPS",
          "type": "uint16"
        },
        {
          "indexed": false,
          "internalType": "uint16",
          "name": "rebalanceFeeBPS",
          "type": "uint16"
        },
        {
          "indexed": false,
          "internalType": "uint16",
          "name": "autoWithdrawFeeBPS",
          "type": "uint16"
        },
        {
          "indexed": false,
          "internalType": "address",
          "name": "treasury",
          "type": "address"
        }
      ],
      "name": "UpdateAdminParams",
      "type": "event"
    },
    {
      "inputs": [],
      "name": "DOMAIN_SEPARATOR",
      "outputs": [
        {
          "internalType": "bytes32",
          "name": "",
          "type": "bytes32"
        }
      ],
      "stateMutability": "view",
      "type": "function"
    },
    {
      "inputs": [],
      "name": "GELATO",
      "outputs": [
        {
          "internalType": "address payable",
          "name": "",
          "type": "address"
        }
      ],
      "stateMutability": "view",
      "type": "function"
    },
    {
      "inputs": [
        {
          "internalType": "address",
          "name": "owner",
          "type": "address"
        },
        {
          "internalType": "address",
          "name": "spender",
          "type": "address"
        }
      ],
      "name": "allowance",
      "outputs": [
        {
          "internalType": "uint256",
          "name": "",
          "type": "uint256"
        }
      ],
      "stateMutability": "view",
      "type": "function"
    },
    {
      "inputs": [
        {
          "internalType": "address",
          "name": "spender",
          "type": "address"
        },
        {
          "internalType": "uint256",
          "name": "amount",
          "type": "uint256"
        }
      ],
      "name": "approve",
      "outputs": [
        {
          "internalType": "bool",
          "name": "",
          "type": "bool"
        }
      ],
      "stateMutability": "nonpayable",
      "type": "function"
    },
    {
      "inputs": [
        {
          "internalType": "uint256",
          "name": "feeAmount",
          "type": "uint256"
        },
        {
          "internalType": "address",
          "name": "feeToken",
          "type": "address"
        }
      ],
      "name": "autoWithdrawAdminBalance",
      "outputs": [],
      "stateMutability": "nonpayable",
      "type": "function"
    },
    {
      "inputs": [
        {
          "internalType": "address",
          "name": "account",
          "type": "address"
        }
      ],
      "name": "balanceOf",
      "outputs": [
        {
          "internalType": "uint256",
          "name": "",
          "type": "uint256"
        }
      ],
      "stateMutability": "view",
      "type": "function"
    },
    {
      "inputs": [
        {
          "internalType": "uint256",
          "name": "_burnAmount",
          "type": "uint256"
        },
        {
          "internalType": "address",
          "name": "_receiver",
          "type": "address"
        }
      ],
      "name": "burn",
      "outputs": [
        {
          "internalType": "uint256",
          "name": "amount0",
          "type": "uint256"
        },
        {
          "internalType": "uint256",
          "name": "amount1",
          "type": "uint256"
        },
        {
          "internalType": "uint128",
          "name": "liquidityBurned",
          "type": "uint128"
        }
      ],
      "stateMutability": "nonpayable",
      "type": "function"
    },
    {
      "inputs": [],
      "name": "decimals",
      "outputs": [
        {
          "internalType": "uint8",
          "name": "",
          "type": "uint8"
        }
      ],
      "stateMutability": "view",
      "type": "function"
    },
    {
      "inputs": [
        {
          "internalType": "address",
          "name": "spender",
          "type": "address"
        },
        {
          "internalType": "uint256",
          "name": "subtractedValue",
          "type": "uint256"
        }
      ],
      "name": "decreaseAllowance",
      "outputs": [
        {
          "internalType": "bool",
          "name": "",
          "type": "bool"
        }
      ],
      "stateMutability": "nonpayable",
      "type": "function"
    },
    {
      "inputs": [],
      "name": "deployer",
      "outputs": [
        {
          "internalType": "address",
          "name": "",
          "type": "address"
        }
      ],
      "stateMutability": "view",
      "type": "function"
    },
    {
      "inputs": [
        {
          "internalType": "int24",
          "name": "_newLowerTick",
          "type": "int24"
        },
        {
          "internalType": "int24",
          "name": "_newUpperTick",
          "type": "int24"
        },
        {
          "internalType": "uint160",
          "name": "_swapThresholdPrice",
          "type": "uint160"
        },
        {
          "internalType": "uint256",
          "name": "_swapAmountBPS",
          "type": "uint256"
        }
      ],
      "name": "executiveRebalance",
      "outputs": [],
      "stateMutability": "nonpayable",
      "type": "function"
    },
    {
      "inputs": [
        {
          "internalType": "uint256",
          "name": "amount0Max",
          "type": "uint256"
        },
        {
          "internalType": "uint256",
          "name": "amount1Max",
          "type": "uint256"
        }
      ],
      "name": "getMintAmounts",
      "outputs": [
        {
          "internalType": "uint256",
          "name": "amount0",
          "type": "uint256"
        },
        {
          "internalType": "uint256",
          "name": "amount1",
          "type": "uint256"
        },
        {
          "internalType": "uint256",
          "name": "mintAmount",
          "type": "uint256"
        }
      ],
      "stateMutability": "view",
      "type": "function"
    },
    {
      "inputs": [],
      "name": "getPositionID",
      "outputs": [
        {
          "internalType": "bytes32",
          "name": "positionID",
          "type": "bytes32"
        }
      ],
      "stateMutability": "view",
      "type": "function"
    },
    {
      "inputs": [],
      "name": "getUnderlyingBalances",
      "outputs": [
        {
          "internalType": "uint256",
          "name": "amount0Current",
          "type": "uint256"
        },
        {
          "internalType": "uint256",
          "name": "amount1Current",
          "type": "uint256"
        }
      ],
      "stateMutability": "view",
      "type": "function"
    },
    {
      "inputs": [
        {
          "internalType": "address",
          "name": "spender",
          "type": "address"
        },
        {
          "internalType": "uint256",
          "name": "addedValue",
          "type": "uint256"
        }
      ],
      "name": "increaseAllowance",
      "outputs": [
        {
          "internalType": "bool",
          "name": "",
          "type": "bool"
        }
      ],
      "stateMutability": "nonpayable",
      "type": "function"
    },
    {
      "inputs": [
        {
          "internalType": "int24",
          "name": "_lowerTick_",
          "type": "int24"
        },
        {
          "internalType": "int24",
          "name": "_upperTick_",
          "type": "int24"
        },
        {
          "internalType": "address",
          "name": "_owner_",
          "type": "address"
        }
      ],
      "name": "initialize",
      "outputs": [],
      "stateMutability": "nonpayable",
      "type": "function"
    },
    {
      "inputs": [],
      "name": "lowerTick",
      "outputs": [
        {
          "internalType": "int24",
          "name": "",
          "type": "int24"
        }
      ],
      "stateMutability": "view",
      "type": "function"
    },
    {
      "inputs": [
        {
          "internalType": "uint256",
          "name": "mintAmount",
          "type": "uint256"
        },
        {
          "internalType": "address",
          "name": "receiver",
          "type": "address"
        }
      ],
      "name": "mint",
      "outputs": [
        {
          "internalType": "uint256",
          "name": "amount0",
          "type": "uint256"
        },
        {
          "internalType": "uint256",
          "name": "amount1",
          "type": "uint256"
        },
        {
          "internalType": "uint128",
          "name": "liquidityMinted",
          "type": "uint128"
        }
      ],
      "stateMutability": "nonpayable",
      "type": "function"
    },
    {
      "inputs": [],
      "name": "name",
      "outputs": [
        {
          "internalType": "string",
          "name": "",
          "type": "string"
        }
      ],
      "stateMutability": "view",
      "type": "function"
    },
    {
      "inputs": [
        {
          "internalType": "address",
          "name": "owner",
          "type": "address"
        }
      ],
      "name": "nonces",
      "outputs": [
        {
          "internalType": "uint256",
          "name": "",
          "type": "uint256"
        }
      ],
      "stateMutability": "view",
      "type": "function"
    },
    {
      "inputs": [],
      "name": "owner",
      "outputs": [
        {
          "internalType": "address",
          "name": "",
          "type": "address"
        }
      ],
      "stateMutability": "view",
      "type": "function"
    },
    {
      "inputs": [
        {
          "internalType": "address",
          "name": "owner",
          "type": "address"
        },
        {
          "internalType": "address",
          "name": "spender",
          "type": "address"
        },
        {
          "internalType": "uint256",
          "name": "value",
          "type": "uint256"
        },
        {
          "internalType": "uint256",
          "name": "deadline",
          "type": "uint256"
        },
        {
          "internalType": "uint8",
          "name": "v",
          "type": "uint8"
        },
        {
          "internalType": "bytes32",
          "name": "r",
          "type": "bytes32"
        },
        {
          "internalType": "bytes32",
          "name": "s",
          "type": "bytes32"
        }
      ],
      "name": "permit",
      "outputs": [],
      "stateMutability": "nonpayable",
      "type": "function"
    },
    {
      "inputs": [],
      "name": "pool",
      "outputs": [
        {
          "internalType": "contract IUniswapV3Pool",
          "name": "",
          "type": "address"
        }
      ],
      "stateMutability": "view",
      "type": "function"
    },
    {
      "inputs": [
        {
          "internalType": "uint160",
          "name": "_swapThresholdPrice",
          "type": "uint160"
        },
        {
          "internalType": "uint256",
          "name": "_swapAmountBPS",
          "type": "uint256"
        },
        {
          "internalType": "uint256",
          "name": "_feeAmount",
          "type": "uint256"
        },
        {
          "internalType": "address",
          "name": "_paymentToken",
          "type": "address"
        }
      ],
      "name": "rebalance",
      "outputs": [],
      "stateMutability": "nonpayable",
      "type": "function"
    },
    {
      "inputs": [],
      "name": "renounceOwnership",
      "outputs": [],
      "stateMutability": "nonpayable",
      "type": "function"
    },
    {
      "inputs": [],
      "name": "symbol",
      "outputs": [
        {
          "internalType": "string",
          "name": "",
          "type": "string"
        }
      ],
      "stateMutability": "view",
      "type": "function"
    },
    {
      "inputs": [],
      "name": "token0",
      "outputs": [
        {
          "internalType": "contract IERC20",
          "name": "",
          "type": "address"
        }
      ],
      "stateMutability": "view",
      "type": "function"
    },
    {
      "inputs": [],
      "name": "token1",
      "outputs": [
        {
          "internalType": "contract IERC20",
          "name": "",
          "type": "address"
        }
      ],
      "stateMutability": "view",
      "type": "function"
    },
    {
      "inputs": [],
      "name": "totalSupply",
      "outputs": [
        {
          "internalType": "uint256",
          "name": "",
          "type": "uint256"
        }
      ],
      "stateMutability": "view",
      "type": "function"
    },
    {
      "inputs": [
        {
          "internalType": "address",
          "name": "recipient",
          "type": "address"
        },
        {
          "internalType": "uint256",
          "name": "amount",
          "type": "uint256"
        }
      ],
      "name": "transfer",
      "outputs": [
        {
          "internalType": "bool",
          "name": "",
          "type": "bool"
        }
      ],
      "stateMutability": "nonpayable",
      "type": "function"
    },
    {
      "inputs": [
        {
          "internalType": "address",
          "name": "sender",
          "type": "address"
        },
        {
          "internalType": "address",
          "name": "recipient",
          "type": "address"
        },
        {
          "internalType": "uint256",
          "name": "amount",
          "type": "uint256"
        }
      ],
      "name": "transferFrom",
      "outputs": [
        {
          "internalType": "bool",
          "name": "",
          "type": "bool"
        }
      ],
      "stateMutability": "nonpayable",
      "type": "function"
    },
    {
      "inputs": [
        {
          "internalType": "address",
          "name": "newOwner",
          "type": "address"
        }
      ],
      "name": "transferOwnership",
      "outputs": [],
      "stateMutability": "nonpayable",
      "type": "function"
    },
    {
      "inputs": [
        {
          "internalType": "uint256",
          "name": "_amount0Owed",
          "type": "uint256"
        },
        {
          "internalType": "uint256",
          "name": "_amount1Owed",
          "type": "uint256"
        },
        {
          "internalType": "bytes",
          "name": "",
          "type": "bytes"
        }
      ],
      "name": "uniswapV3MintCallback",
      "outputs": [],
      "stateMutability": "nonpayable",
      "type": "function"
    },
    {
      "inputs": [
        {
          "internalType": "int256",
          "name": "amount0Delta",
          "type": "int256"
        },
        {
          "internalType": "int256",
          "name": "amount1Delta",
          "type": "int256"
        },
        {
          "internalType": "bytes",
          "name": "",
          "type": "bytes"
        }
      ],
      "name": "uniswapV3SwapCallback",
      "outputs": [],
      "stateMutability": "nonpayable",
      "type": "function"
    },
    {
      "inputs": [
        {
          "internalType": "uint32",
          "name": "newObservationSeconds",
          "type": "uint32"
        },
        {
          "internalType": "uint16",
          "name": "newMaxSlippageBPS",
          "type": "uint16"
        },
        {
          "internalType": "uint16",
          "name": "newAdminFeeBPS",
          "type": "uint16"
        },
        {
          "internalType": "uint16",
          "name": "newRebalanceFeeBPS",
          "type": "uint16"
        },
        {
          "internalType": "uint16",
          "name": "newWithdrawFeeBPS",
          "type": "uint16"
        },
        {
          "internalType": "address",
          "name": "newTreasury",
          "type": "address"
        }
      ],
      "name": "updateAdminParams",
      "outputs": [],
      "stateMutability": "nonpayable",
      "type": "function"
    },
    {
      "inputs": [],
      "name": "upperTick",
      "outputs": [
        {
          "internalType": "int24",
          "name": "",
          "type": "int24"
        }
      ],
      "stateMutability": "view",
      "type": "function"
    }
  ],
  "transactionHash": "0xb1b9c88e274a134d24fafb8f1e8ee5a35e2e7aff2ca356d743efc5b078ae2c30",
  "args": [
    "0xCba27C8e7115b4Eb50Aa14999BC0866674a96eCB",
    "0x3CACa7b48D0573D793d3b0279b5F0029180E83b6"
  ],
  "solcInputHash": "b3a9274b816b3a822e9183c145a9949e",
  "bytecode": "0x6101e06040527f6e71edae12b1b97f4d1f60370fef10105fa2faae0126114a169c64845d6126c9610120523480156200003757600080fd5b5060405162006657380380620066578339810160408190526200005a91620003a5565b8181806040518060400160405280601f81526020017f47656c61746f20556e697377617020563320494e53542f455448204c5020310081525080604051806040016040528060018152602001603160f81b81525060405180602001604052806000815250604051806020016040528060008152508160039080519060200190620000e6929190620002d9565b508051620000fc906004906020840190620002d9565b5050825160209384012082519284019290922060c083815260e08290524660a0818152604080517f8b73c3c69bb8fe3d512ecc4cf759cc79239f7b179b0ffacaa9a75d522b39400f818a0181905281830198909852606080820196909652608080820194909452308184015281518082039093018352938401808252825192890192909220909252610100959095526001600160601b031997831b881661014052600160075533831b610160529189901b90961661018052630dfe168160e01b90925250516001600160a01b03861693630dfe1681935060c4808201939291829003018186803b158015620001f057600080fd5b505afa15801562000205573d6000803e3d6000fd5b505050506040513d601f19601f820116820180604052508101906200022b91906200037f565b6001600160a01b03166101a0816001600160a01b031660601b81525050816001600160a01b031663d21220a76040518163ffffffff1660e01b815260040160206040518083038186803b1580156200028257600080fd5b505afa15801562000297573d6000803e3d6000fd5b505050506040513d601f19601f82011682018060405250810190620002bd91906200037f565b60601b6001600160601b0319166101c052506200043992505050565b828054620002e790620003e3565b90600052602060002090601f0160209004810192826200030b576000855562000356565b82601f106200032657805160ff191683800117855562000356565b8280016001018555821562000356579182015b828111156200035657825182559160200191906001019062000339565b506200036492915062000368565b5090565b5b8082111562000364576000815560010162000369565b60006020828403121562000391578081fd5b81516200039e8162000420565b9392505050565b60008060408385031215620003b8578081fd5b8251620003c58162000420565b6020840151909250620003d88162000420565b809150509250929050565b600181811c90821680620003f857607f821691505b602082108114156200041a57634e487b7160e01b600052602260045260246000fd5b50919050565b6001600160a01b03811681146200043657600080fd5b50565b60805160a05160c05160e05161010051610120516101405160601c6101605160601c6101805160601c6101a05160601c6101c05160601c615fba6200069d6000396000818161047101528181610a0401528181610e8701528181610fba015281816113dd015281816114ff01528181611b3201528181611c9f01528181611fb8015281816121d80152818161236f0152818161246c0152818161352f015281816135dc0152818161378b01528181613db3015261405e0152600081816102390152818161093201528181610dde01528181610f7a015281816113a20152818161145601528181611a9a01528181611c6501528181611f7b01528181612138015281816122bb01528181612432015281816133740152818161348f015281816136f401528181613d130152613faa01526000818161028a0152818161077f015281816108310152818161129c015281816115b0015281816116de015281816118eb01528181611c2801528181611f3b0152818161205301528181612b3001528181612bdc01528181612c8b01528181612d3401528181612de001528181612e8f0152818161329901528181613e5401528181613f0f0152818161411e015281816141f001528181614706015281816147ad015281816148ba01528181614c4301528181614e9401528181614f300152614ff20152600081816104be015261113601526000818161052601528181610be401528181610ca101528181610cdb01528181610d9c01528181611017015261105101526000611d1a015260006131f80152600061324701526000613222015260006131a6015260006131cf0152615fba6000f3fe608060405234801561001057600080fd5b50600436106101ac5760003560e01c806306fdde03146101b1578063095ea7b3146101fc5780630aa6f5051461021f5780630dfe1681146102345780631322d9541461026857806316f0115b1461028557806318160ddd146102ac57806323b872dd146102be578063313ce567146102d15780633644e515146102e057806339509351146102e857806360656410146102fb57806370a082311461030e578063715018a614610337578063727dd2281461033f5780637ecebe001461035a57806387a4a28c1461036d5780638b6e052e146103805780638da5cb5b1461039357806394bf804d1461039b57806395d89b41146103d25780639894f21a146103f35780639b1344ac14610421578063a457c2d714610433578063a9059cbb14610446578063b0085e0f14610459578063d21220a71461046c578063d348799714610493578063d505accf146104a6578063d5f39488146104b9578063dd62ed3e146104e0578063df28408a14610519578063eff557a714610521578063f2fde38b14610548578063fa461e331461055b578063fcd3533c1461056e575b600080fd5b60408051808201909152601f81527f47656c61746f20556e697377617020563320494e53542f455448204c5020310060208201525b6040516101f39190615a7f565b60405180910390f35b61020f61020a36600461542c565b610581565b60405190151581526020016101f3565b61023261022d36600461589a565b610597565b005b61025b7f000000000000000000000000000000000000000000000000000000000000000081565b6040516101f39190615937565b610270610772565b604080519283526020830191909152016101f3565b61025b7f000000000000000000000000000000000000000000000000000000000000000081565b6002545b6040519081526020016101f3565b61020f6102cc36600461537c565b610ade565b604051601281526020016101f3565b6102b0610b91565b61020f6102f636600461542c565b610ba0565b6102326103093660046157f4565b610bd7565b6102b061031c366004615328565b6001600160a01b031660009081526020819052604090205490565b610232610d08565b600854600160581b900460020b5b6040516101f39190615a4b565b6102b0610368366004615328565b610d6f565b61023261037b366004615855565b610d8f565b61023261038e366004615534565b61107c565b61025b611232565b6103ae6103a9366004615855565b611241565b6040805193845260208401929092526001600160801b0316908201526060016101f3565b604080518082019091526005815264472d554e4960d81b60208201526101e6565b610406610401366004615879565b6116ac565b604080519384526020840192909252908201526060016101f3565b600854600160401b900460020b61034d565b61020f61044136600461542c565b611810565b61020f61045436600461542c565b6118ab565b61023261046736600461557e565b6118b8565b61025b7f000000000000000000000000000000000000000000000000000000000000000081565b6102326104a13660046155f1565b611c1d565b6102326104b43660046153bc565b611cc6565b61025b7f000000000000000000000000000000000000000000000000000000000000000081565b6102b06104ee366004615344565b6001600160a01b03918216600090815260016020908152604080832093909416825291909152205490565b6102b0611e48565b61025b7f000000000000000000000000000000000000000000000000000000000000000081565b610232610556366004615328565b611e52565b6102326105693660046155f1565b611f30565b6103ae61057c366004615855565b611fdf565b600061058e3384846124e8565b50600192915050565b336105a0611232565b6001600160a01b0316146105cf5760405162461bcd60e51b81526004016105c690615b00565b60405180910390fd5b6127108561ffff1611156105f55760405162461bcd60e51b81526004016105c690615b57565b6127108461ffff16111561061b5760405162461bcd60e51b81526004016105c690615b57565b6127108261ffff1611156106415760405162461bcd60e51b81526004016105c690615b57565b6127108361ffff1611156106675760405162461bcd60e51b81526004016105c690615b57565b6040805163ffffffff8816815261ffff8781166020830152868116828401528581166060830152841660808201526001600160a01b03831660a082015290517f4504720859103b4cec82186dd7ba06fb1b72ac1bd278410ad45120614b7b822d9181900360c00190a16008805465ffffffff000019166201000061ffff9687160261ffff60201b191617600160201b948616949094029390931761ffff60301b63ffffffff60701b011916600160301b9285169290920263ffffffff60701b191691909117600160701b63ffffffff96909616959095029490941761ffff191692909116919091179055600980546001600160a01b0319166001600160a01b03909216919091179055565b60008060008060008060007f00000000000000000000000000000000000000000000000000000000000000006001600160a01b031663514ea4bf6107b461260d565b6040518263ffffffff1660e01b81526004016107d291815260200190565b60a06040518083038186803b1580156107ea57600080fd5b505afa1580156107fe573d6000803e3d6000fd5b505050506040513d601f19601f820116820180604052508101906108229190615708565b945094509450945094506000807f00000000000000000000000000000000000000000000000000000000000000006001600160a01b0316633850c7bd6040518163ffffffff1660e01b815260040160e06040518083038186803b15801561088857600080fd5b505afa15801561089c573d6000803e3d6000fd5b505050506040513d601f19601f820116820180604052508101906108c0919061575e565b505050505091509150610906826108e660088054906101000a900460020b60020b612673565b60085461090090600160581b9004600290810b900b612673565b8a612a85565b9099509750600061091a600188848b612b22565b9050600061092b600088858c612b22565b9050600a547f00000000000000000000000000000000000000000000000000000000000000006001600160a01b03166370a08231306040518263ffffffff1660e01b815260040161097c9190615937565b60206040518083038186803b15801561099457600080fd5b505afa1580156109a8573d6000803e3d6000fd5b505050506040513d601f19601f820116820180604052508101906109cc919061583d565b6109df6001600160801b03891685615c49565b6109e99190615c49565b6109f39190615ddd565b6109fd908c615c49565b9a50600b547f00000000000000000000000000000000000000000000000000000000000000006001600160a01b03166370a08231306040518263ffffffff1660e01b8152600401610a4e9190615937565b60206040518083038186803b158015610a6657600080fd5b505afa158015610a7a573d6000803e3d6000fd5b505050506040513d601f19601f82011682018060405250810190610a9e919061583d565b610ab16001600160801b03881684615c49565b610abb9190615c49565b610ac59190615ddd565b610acf908b615c49565b99505050505050505050509091565b6000610aeb848484612fdc565b6001600160a01b038416600090815260016020908152604080832033845290915290205482811015610b705760405162461bcd60e51b815260206004820152602860248201527f45524332303a207472616e7366657220616d6f756e74206578636565647320616044820152676c6c6f77616e636560c01b60648201526084016105c6565b610b848533610b7f8685615ddd565b6124e8565b60019150505b9392505050565b6000610b9b6131a2565b905090565b3360008181526001602090815260408083206001600160a01b0387168452909152812054909161058e918590610b7f908690615c49565b8181336001600160a01b037f00000000000000000000000000000000000000000000000000000000000000001614610c215760405162461bcd60e51b81526004016105c690615ab2565b610c2d86868686613295565b60085460408051600160401b8304600290810b810b8252600160581b909304830b90920b6020830152600080516020615f25833981519152910160405180910390a16001600160a01b03811673eeeeeeeeeeeeeeeeeeeeeeeeeeeeeeeeeeeeeeee1415610ccc57610cc76001600160a01b037f00000000000000000000000000000000000000000000000000000000000000001683613860565b610d00565b610d006001600160a01b0382167f00000000000000000000000000000000000000000000000000000000000000008461397b565b505050505050565b33610d11611232565b6001600160a01b031614610d375760405162461bcd60e51b81526004016105c690615b00565b6006546040516000916001600160a01b031690600080516020615f45833981519152908390a3600680546001600160a01b0319169055565b6001600160a01b0381166000908152600560205260408120545b92915050565b8181336001600160a01b037f00000000000000000000000000000000000000000000000000000000000000001614610dd95760405162461bcd60e51b81526004016105c690615ab2565b6000807f00000000000000000000000000000000000000000000000000000000000000006001600160a01b0316856001600160a01b03161415610e8557600854600a54879161271091610e3791600160301b900461ffff1690615d08565b610e419190615cc5565b1015610e5f5760405162461bcd60e51b81526004016105c690615b35565b85600a54610e6d9190615ddd565b6000600a819055600b80549190559092509050610f63565b7f00000000000000000000000000000000000000000000000000000000000000006001600160a01b0316856001600160a01b03161415610f2d57600854600b54879161271091610ee091600160301b900461ffff1690615d08565b610eea9190615cc5565b1015610f085760405162461bcd60e51b81526004016105c690615b35565b85600b54610f169190615ddd565b6000600b819055600a805491905592509050610f63565b60405162461bcd60e51b815260206004820152600b60248201526a3bb937b733903a37b5b2b760a91b60448201526064016105c6565b8115610fa357600954610fa3906001600160a01b037f0000000000000000000000000000000000000000000000000000000000000000811691168461397b565b8015610fe357600954610fe3906001600160a01b037f0000000000000000000000000000000000000000000000000000000000000000811691168361397b565b50506001600160a01b03811673eeeeeeeeeeeeeeeeeeeeeeeeeeeeeeeeeeeeeeee14156110425761103d6001600160a01b037f00000000000000000000000000000000000000000000000000000000000000001683613860565b611076565b6110766001600160a01b0382167f00000000000000000000000000000000000000000000000000000000000000008461397b565b50505050565b600654600160a81b900460ff168061109e5750600654600160a01b900460ff16155b6111015760405162461bcd60e51b815260206004820152602e60248201527f496e697469616c697a61626c653a20636f6e747261637420697320616c72656160448201526d191e481a5b9a5d1a585b1a5e995960921b60648201526084016105c6565b600654600160a81b900460ff1615801561112b576006805461ffff60a01b191661010160a01b1790555b336001600160a01b037f000000000000000000000000000000000000000000000000000000000000000016146111935760405162461bcd60e51b815260206004820152600d60248201526c37b7363c903232b83637bcb2b960991b60448201526064016105c6565b60088054600980546001600160a01b0386166001600160a01b03199182168117909255600287810b62ffffff908116600160581b0262ffffff60581b19928b900b909116600160401b0263ffff000166ffffffff00000160581b031990951694909417666403e8000001f4604b60721b011716929092179092556006805490911690911790558015611076576006805460ff60a81b1916905550505050565b6006546001600160a01b031690565b6000806000600260075414156112695760405162461bcd60e51b81526004016105c690615b94565b60026007558461128b5760405162461bcd60e51b81526004016105c690615b74565b600061129660025490565b905060007f00000000000000000000000000000000000000000000000000000000000000006001600160a01b0316633850c7bd6040518163ffffffff1660e01b815260040160e06040518083038186803b1580156112f357600080fd5b505afa158015611307573d6000803e3d6000fd5b505050506040513d601f19601f8201168201806040525081019061132b919061575e565b5050505050509050600082111561136c57600080611347610772565b91509150611356828a866139de565b9650611363818a866139de565b9550505061138f565b611389816108e660088054906101000a900460020b60020b612673565b90955093505b84156113ca576113ca6001600160a01b037f000000000000000000000000000000000000000000000000000000000000000016333088613a35565b8315611405576114056001600160a01b037f000000000000000000000000000000000000000000000000000000000000000016333087613a35565b6115938161142260088054906101000a900460020b60020b612673565b60085461143c90600160581b9004600290810b900b612673565b600a546040516370a0823160e01b81526001600160a01b037f000000000000000000000000000000000000000000000000000000000000000016906370a082319061148b903090600401615937565b60206040518083038186803b1580156114a357600080fd5b505afa1580156114b7573d6000803e3d6000fd5b505050506040513d601f19601f820116820180604052508101906114db919061583d565b6114e59190615ddd565b600b546040516370a0823160e01b81526001600160a01b037f000000000000000000000000000000000000000000000000000000000000000016906370a0823190611534903090600401615937565b60206040518083038186803b15801561154c57600080fd5b505afa158015611560573d6000803e3d6000fd5b505050506040513d601f19601f82011682018060405250810190611584919061583d565b61158e9190615ddd565b613a6d565b600854604051633c8a7d8d60e01b81529194506001600160a01b037f00000000000000000000000000000000000000000000000000000000000000001691633c8a7d8d916115ff913091600160401b8104600290810b92600160581b909204900b90899060040161594b565b6040805180830381600087803b15801561161857600080fd5b505af115801561162c573d6000803e3d6000fd5b505050506040513d601f19601f8201168201806040525081019061165091906155ce565b505061165c8688613b30565b7f55801cfe493000b734571da1694b21e7f66b11e8ce9fdaa0524ecb59105e73e786888787876040516116939594939291906159ca565b60405180910390a1505060016007819055509250925092565b6000806000806116bb60025490565b905080156116da576116ce818787613bfd565b91955093509150611808565b60007f00000000000000000000000000000000000000000000000000000000000000006001600160a01b0316633850c7bd6040518163ffffffff1660e01b815260040160e06040518083038186803b15801561173557600080fd5b505afa158015611749573d6000803e3d6000fd5b505050506040513d601f19601f8201168201806040525081019061176d919061575e565b505050505050905060006117b58261179460088054906101000a900460020b60020b612673565b6008546117ae90600160581b9004600290810b900b612673565b8b8b613a6d565b9050806001600160801b03169350611800826117e060088054906101000a900460020b60020b612673565b6008546117fa90600160581b9004600290810b900b612673565b84612a85565b909650945050505b509250925092565b3360009081526001602090815260408083206001600160a01b0386168452909152812054828110156118925760405162461bcd60e51b815260206004820152602560248201527f45524332303a2064656372656173656420616c6c6f77616e63652062656c6f77604482015264207a65726f60d81b60648201526084016105c6565b6118a13385610b7f8685615ddd565b5060019392505050565b600061058e338484612fdc565b336118c1611232565b6001600160a01b0316146118e75760405162461bcd60e51b81526004016105c690615b00565b60007f00000000000000000000000000000000000000000000000000000000000000006001600160a01b031663514ea4bf61192061260d565b6040518263ffffffff1660e01b815260040161193e91815260200190565b60a06040518083038186803b15801561195657600080fd5b505afa15801561196a573d6000803e3d6000fd5b505050506040513d601f19601f8201168201806040525081019061198e9190615708565b50506008549293506000928392506119bd9150600160401b8104600290810b91600160581b9004900b85613d0c565b6008549193509150612710906119dd9062010000900461ffff1684615d08565b6119e79190615cc5565b600a60008282546119f89190615c49565b909155505060085461271090611a189062010000900461ffff1683615d08565b611a229190615cc5565b600b6000828254611a339190615c49565b909155505060088054600288810b62ffffff908116600160581b0262ffffff60581b19928c900b909116600160401b029190911665ffffffffffff60401b1990921691909117179055600a546040516370a0823160e01b8152600091906001600160a01b037f000000000000000000000000000000000000000000000000000000000000000016906370a0823190611acf903090600401615937565b60206040518083038186803b158015611ae757600080fd5b505afa158015611afb573d6000803e3d6000fd5b505050506040513d601f19601f82011682018060405250810190611b1f919061583d565b611b299190615ddd565b90506000600b547f00000000000000000000000000000000000000000000000000000000000000006001600160a01b03166370a08231306040518263ffffffff1660e01b8152600401611b7c9190615937565b60206040518083038186803b158015611b9457600080fd5b505afa158015611ba8573d6000803e3d6000fd5b505050506040513d601f19601f82011682018060405250810190611bcc919061583d565b611bd69190615ddd565b9050611be6898984848b8b61411a565b6040805160028b810b82528a900b6020820152600080516020615f25833981519152910160405180910390a1505050505050505050565b336001600160a01b037f00000000000000000000000000000000000000000000000000000000000000001614611c5257600080fd5b8315611c8c57611c8c6001600160a01b037f000000000000000000000000000000000000000000000000000000000000000016338661397b565b8215611076576110766001600160a01b037f000000000000000000000000000000000000000000000000000000000000000016338561397b565b83421115611d165760405162461bcd60e51b815260206004820152601d60248201527f45524332305065726d69743a206578706972656420646561646c696e6500000060448201526064016105c6565b60007f0000000000000000000000000000000000000000000000000000000000000000888888611d638c6001600160a01b0316600090815260056020526040902080546001810190915590565b6040805160208101969096526001600160a01b0394851690860152929091166060840152608083015260a082015260c0810186905260e0016040516020818303038152906040528051906020012090506000611dbe8261431c565b90506000611dce8287878761436a565b9050896001600160a01b0316816001600160a01b031614611e315760405162461bcd60e51b815260206004820152601e60248201527f45524332305065726d69743a20696e76616c6964207369676e6174757265000060448201526064016105c6565b611e3c8a8a8a6124e8565b50505050505050505050565b6000610b9b61260d565b33611e5b611232565b6001600160a01b031614611e815760405162461bcd60e51b81526004016105c690615b00565b6001600160a01b038116611ee65760405162461bcd60e51b815260206004820152602660248201527f4f776e61626c653a206e6577206f776e657220697320746865207a65726f206160448201526564647265737360d01b60648201526084016105c6565b6006546040516001600160a01b03808416921690600080516020615f4583398151915290600090a3600680546001600160a01b0319166001600160a01b0392909216919091179055565b336001600160a01b037f00000000000000000000000000000000000000000000000000000000000000001614611f6557600080fd5b6000841315611fa25761103d6001600160a01b037f000000000000000000000000000000000000000000000000000000000000000016338661397b565b6000831315611076576110766001600160a01b037f000000000000000000000000000000000000000000000000000000000000000016338561397b565b6000806000600260075414156120075760405162461bcd60e51b81526004016105c690615b94565b6002600755846120425760405162461bcd60e51b815260206004820152600660248201526506275726e20360d41b60448201526064016105c6565b600061204d60025490565b905060007f00000000000000000000000000000000000000000000000000000000000000006001600160a01b031663514ea4bf61208861260d565b6040518263ffffffff1660e01b81526004016120a691815260200190565b60a06040518083038186803b1580156120be57600080fd5b505afa1580156120d2573d6000803e3d6000fd5b505050506040513d601f19601f820116820180604052508101906120f69190615708565b50505050905061210633886144fb565b600061211c88836001600160801b031685614638565b90506001600160801b03811061213157600080fd5b80935060007f00000000000000000000000000000000000000000000000000000000000000006001600160a01b03166370a08231306040518263ffffffff1660e01b81526004016121829190615937565b60206040518083038186803b15801561219a57600080fd5b505afa1580156121ae573d6000803e3d6000fd5b505050506040513d601f19601f820116820180604052508101906121d2919061583d565b905060007f00000000000000000000000000000000000000000000000000000000000000006001600160a01b03166370a08231306040518263ffffffff1660e01b81526004016122229190615937565b60206040518083038186803b15801561223a57600080fd5b505afa15801561224e573d6000803e3d6000fd5b505050506040513d601f19601f82011682018060405250810190612272919061583d565b9050600061228e8b600a54856122889190615ddd565b88614638565b905060006122aa8c600b54856122a49190615ddd565b89614638565b90506122b78c888a6146e7565b81847f00000000000000000000000000000000000000000000000000000000000000006001600160a01b03166370a08231306040518263ffffffff1660e01b81526004016123059190615937565b60206040518083038186803b15801561231d57600080fd5b505afa158015612331573d6000803e3d6000fd5b505050506040513d601f19601f82011682018060405250810190612355919061583d565b61235f9190615ddd565b6123699190615c49565b995080837f00000000000000000000000000000000000000000000000000000000000000006001600160a01b03166370a08231306040518263ffffffff1660e01b81526004016123b99190615937565b60206040518083038186803b1580156123d157600080fd5b505afa1580156123e5573d6000803e3d6000fd5b505050506040513d601f19601f82011682018060405250810190612409919061583d565b6124139190615ddd565b61241d9190615c49565b98508915612459576124596001600160a01b037f0000000000000000000000000000000000000000000000000000000000000000168c8c61397b565b8815612493576124936001600160a01b037f0000000000000000000000000000000000000000000000000000000000000000168c8b61397b565b7f7239dff1718b550db7f36cbf69c665cfeb56d0e96b4fb76a5cba712961b655098b8d8c8c8c6040516124ca9594939291906159ca565b60405180910390a15050505050505060016007819055509250925092565b6001600160a01b03831661254a5760405162461bcd60e51b8152602060048201526024808201527f45524332303a20617070726f76652066726f6d20746865207a65726f206164646044820152637265737360e01b60648201526084016105c6565b6001600160a01b0382166125ab5760405162461bcd60e51b815260206004820152602260248201527f45524332303a20617070726f766520746f20746865207a65726f206164647265604482015261737360f01b60648201526084016105c6565b6001600160a01b0383811660008181526001602090815260408083209487168084529482529182902085905590518481527f8c5be1e5ebec7d5bd14f71427d1e84f3dd0314c0f7b2291e5b200ac8c7c3b92591015b60405180910390a3505050565b6008546040516001600160601b03193060601b166020820152600160401b8204600290810b810b60e890811b6034840152600160581b909304810b900b90911b6037820152600090603a0160405160208183030381529060405280519060200120905090565b60008060008360020b1261268a578260020b612697565b8260020b61269790615e70565b90506126a6620d89e719615e4f565b60020b8111156126dc5760405162461bcd60e51b81526020600482015260016024820152601560fa1b60448201526064016105c6565b6000600182166126f057600160801b612702565b6ffffcb933bd6fad37aa2d162d1a5940015b6001600160881b031690506002821615612737576080612732826ffff97272373d413259a46990580e213a615d08565b901c90505b600482161561276157608061275c826ffff2e50f5f656932ef12357cf3c7fdcc615d08565b901c90505b600882161561278b576080612786826fffe5caca7e10e4e61c3624eaa0941cd0615d08565b901c90505b60108216156127b55760806127b0826fffcb9843d60f6159c9db58835c926644615d08565b901c90505b60208216156127df5760806127da826fff973b41fa98c081472e6896dfb254c0615d08565b901c90505b6040821615612809576080612804826fff2ea16466c96a3843ec78b326b52861615d08565b901c90505b608082161561283357608061282e826ffe5dee046a99a2a811c461f1969c3053615d08565b901c90505b61010082161561285e576080612859826ffcbe86c7900a88aedcffc83b479aa3a4615d08565b901c90505b610200821615612889576080612884826ff987a7253ac413176f2b074cf7815e54615d08565b901c90505b6104008216156128b45760806128af826ff3392b0822b70005940c7a398e4b70f3615d08565b901c90505b6108008216156128df5760806128da826fe7159475a2c29b7443b29c7fa6e889d9615d08565b901c90505b61100082161561290a576080612905826fd097f3bdfd2022b8845ad8f792aa5825615d08565b901c90505b612000821615612935576080612930826fa9f746462d870fdf8a65dc1f90e061e5615d08565b901c90505b61400082161561296057608061295b826f70d869a156d2a1b890bb3df62baf32f7615d08565b901c90505b61800082161561298b576080612986826f31be135f97d08fd981231505542fcfa6615d08565b901c90505b620100008216156129b75760806129b2826f09aa508b5b7a84e1c677de54f3e99bc9615d08565b901c90505b620200008216156129e25760806129dd826e5d6af8dedb81196699c329225ee604615d08565b901c90505b62040000821615612a0c576080612a07826d2216e584f5fa1ea926041bedfe98615d08565b901c90505b62080000821615612a34576080612a2f826b048a170391f7dc42444e8fa2615d08565b901c90505b60008460020b1315612a4f57612a4c81600019615cc5565b90505b612a5d600160201b82615e3b565b15612a69576001612a6c565b60005b612a7d9060ff16602083901c615c49565b949350505050565b600080836001600160a01b0316856001600160a01b03161115612aa6579293925b846001600160a01b0316866001600160a01b03161015612ad257612acb85858561495c565b9150612b19565b836001600160a01b0316866001600160a01b03161015612b0b57612af786858561495c565b9150612b048587856149c6565b9050612b19565b612b168585856149c6565b90505b94509492505050565b6000806000808715612d32577f00000000000000000000000000000000000000000000000000000000000000006001600160a01b031663f30583996040518163ffffffff1660e01b815260040160206040518083038186803b158015612b8757600080fd5b505afa158015612b9b573d6000803e3d6000fd5b505050506040513d601f19601f82011682018060405250810190612bbf919061583d565b60085460405163f30dba9360e01b81529192506001600160a01b037f0000000000000000000000000000000000000000000000000000000000000000169163f30dba9391612c1b91600160401b90910460020b90600401615a4b565b6101006040518083038186803b158015612c3457600080fd5b505afa158015612c48573d6000803e3d6000fd5b505050506040513d601f19601f82011682018060405250810190612c6c9190615641565b505060085460405163f30dba9360e01b81529499506001600160a01b037f000000000000000000000000000000000000000000000000000000000000000016965063f30dba939550612cd194600160581b90910460020b93506004019150615a4b9050565b6101006040518083038186803b158015612cea57600080fd5b505afa158015612cfe573d6000803e3d6000fd5b505050506040513d601f19601f82011682018060405250810190612d229190615641565b50939750612f3095505050505050565b7f00000000000000000000000000000000000000000000000000000000000000006001600160a01b031663461413196040518163ffffffff1660e01b815260040160206040518083038186803b158015612d8b57600080fd5b505afa158015612d9f573d6000803e3d6000fd5b505050506040513d601f19601f82011682018060405250810190612dc3919061583d565b60085460405163f30dba9360e01b81529192506001600160a01b037f0000000000000000000000000000000000000000000000000000000000000000169163f30dba9391612e1f91600160401b90910460020b90600401615a4b565b6101006040518083038186803b158015612e3857600080fd5b505afa158015612e4c573d6000803e3d6000fd5b505050506040513d601f19601f82011682018060405250810190612e709190615641565b505060085460405163f30dba9360e01b81529399506001600160a01b037f000000000000000000000000000000000000000000000000000000000000000016965063f30dba939550612ed49450600160581b900460020b926004019150615a4b9050565b6101006040518083038186803b158015612eed57600080fd5b505afa158015612f01573d6000803e3d6000fd5b505050506040513d601f19601f82011682018060405250810190612f259190615641565b509297505050505050505b600060088054906101000a900460020b60020b8760020b12612f53575082612f60565b612f5d8483615ddd565b90505b60006008600b9054906101000a900460020b60020b8860020b1215612f86575082612f93565b612f908484615ddd565b90505b600081612fa08486615ddd565b612faa9190615ddd565b9050612fcd6001600160801b038916612fc38c84615ddd565b600160801b614638565b9b9a5050505050505050505050565b6001600160a01b0383166130405760405162461bcd60e51b815260206004820152602560248201527f45524332303a207472616e736665722066726f6d20746865207a65726f206164604482015264647265737360d81b60648201526084016105c6565b6001600160a01b0382166130a25760405162461bcd60e51b815260206004820152602360248201527f45524332303a207472616e7366657220746f20746865207a65726f206164647260448201526265737360e81b60648201526084016105c6565b6001600160a01b0383166000908152602081905260409020548181101561311a5760405162461bcd60e51b815260206004820152602660248201527f45524332303a207472616e7366657220616d6f756e7420657863656564732062604482015265616c616e636560d01b60648201526084016105c6565b6131248282615ddd565b6001600160a01b03808616600090815260208190526040808220939093559085168152908120805484929061315a908490615c49565b92505081905550826001600160a01b0316846001600160a01b0316600080516020615f658339815191528460405161319491815260200190565b60405180910390a350505050565b60007f00000000000000000000000000000000000000000000000000000000000000004614156131f157507f000000000000000000000000000000000000000000000000000000000000000090565b50604080517f00000000000000000000000000000000000000000000000000000000000000006020808301919091527f0000000000000000000000000000000000000000000000000000000000000000828401527f000000000000000000000000000000000000000000000000000000000000000060608301524660808301523060a0808401919091528351808403909101815260c0909201909252805191012090565b60007f00000000000000000000000000000000000000000000000000000000000000006001600160a01b031663514ea4bf6132ce61260d565b6040518263ffffffff1660e01b81526004016132ec91815260200190565b60a06040518083038186803b15801561330457600080fd5b505afa158015613318573d6000803e3d6000fd5b505050506040513d601f19601f8201168201806040525081019061333c9190615708565b505060085492935060009283925061336b9150600160401b8104600290810b91600160581b9004900b85613d0c565b915091506000807f00000000000000000000000000000000000000000000000000000000000000006001600160a01b0316866001600160a01b031614156135da576008548790612710906133ca90600160201b900461ffff1687615d08565b6133d49190615cc5565b10156133f25760405162461bcd60e51b81526004016105c690615b35565b6008546127109062010000900461ffff1661340d8987615ddd565b6134179190615d08565b6134219190615cc5565b600a60008282546134329190615c49565b9091555050600854612710906134529062010000900461ffff1685615d08565b61345c9190615cc5565b600b600082825461346d9190615c49565b9091555050600a546040516370a0823160e01b81528891906001600160a01b037f000000000000000000000000000000000000000000000000000000000000000016906370a08231906134c4903090600401615937565b60206040518083038186803b1580156134dc57600080fd5b505afa1580156134f0573d6000803e3d6000fd5b505050506040513d601f19601f82011682018060405250810190613514919061583d565b61351e9190615ddd565b6135289190615ddd565b9150600b547f00000000000000000000000000000000000000000000000000000000000000006001600160a01b03166370a08231306040518263ffffffff1660e01b81526004016135799190615937565b60206040518083038186803b15801561359157600080fd5b505afa1580156135a5573d6000803e3d6000fd5b505050506040513d601f19601f820116820180604052508101906135c9919061583d565b6135d39190615ddd565b905061382f565b7f00000000000000000000000000000000000000000000000000000000000000006001600160a01b0316866001600160a01b03161415610f2d5760085487906127109061363290600160201b900461ffff1686615d08565b61363c9190615cc5565b101561365a5760405162461bcd60e51b81526004016105c690615b35565b600854612710906136759062010000900461ffff1686615d08565b61367f9190615cc5565b600a60008282546136909190615c49565b90915550506008546127109062010000900461ffff166136b08986615ddd565b6136ba9190615d08565b6136c49190615cc5565b600b60008282546136d59190615c49565b9091555050600a546040516370a0823160e01b81526001600160a01b037f000000000000000000000000000000000000000000000000000000000000000016906370a0823190613729903090600401615937565b60206040518083038186803b15801561374157600080fd5b505afa158015613755573d6000803e3d6000fd5b505050506040513d601f19601f82011682018060405250810190613779919061583d565b6137839190615ddd565b915086600b547f00000000000000000000000000000000000000000000000000000000000000006001600160a01b03166370a08231306040518263ffffffff1660e01b81526004016137d59190615937565b60206040518083038186803b1580156137ed57600080fd5b505afa158015613801573d6000803e3d6000fd5b505050506040513d601f19601f82011682018060405250810190613825919061583d565b6135c99190615ddd565b60085461385590600160401b8104600290810b91600160581b9004900b84848d8d61411a565b505050505050505050565b804710156138b05760405162461bcd60e51b815260206004820152601d60248201527f416464726573733a20696e73756666696369656e742062616c616e636500000060448201526064016105c6565b6000826001600160a01b03168260405160006040518083038185875af1925050503d80600081146138fd576040519150601f19603f3d011682016040523d82523d6000602084013e613902565b606091505b50509050806139765760405162461bcd60e51b815260206004820152603a60248201527f416464726573733a20756e61626c6520746f2073656e642076616c75652c20726044820152791958da5c1a595b9d081b585e481a185d99481c995d995c9d195960321b60648201526084016105c6565b505050565b6040516001600160a01b03831660248201526044810182905261397690849063a9059cbb60e01b906064015b60408051601f198184030181529190526020810180516001600160e01b03166001600160e01b031990931692909217909152614a10565b60006139eb848484614638565b905060008280613a0b57634e487b7160e01b600052601260045260246000fd5b8486091115610b8a576000198110613a2257600080fd5b80613a2c81615e20565b95945050505050565b6040516001600160a01b03808516602483015283166044820152606481018290526110769085906323b872dd60e01b906084016139a7565b6000836001600160a01b0316856001600160a01b03161115613a8d579293925b846001600160a01b0316866001600160a01b03161015613ab957613ab2858585614ae2565b9050613a2c565b836001600160a01b0316866001600160a01b03161015613b1b576000613ae0878686614ae2565b90506000613aef878986614b4c565b9050806001600160801b0316826001600160801b031610613b105780613b12565b815b92505050613a2c565b613b26858584614b4c565b9695505050505050565b6001600160a01b038216613b865760405162461bcd60e51b815260206004820152601f60248201527f45524332303a206d696e7420746f20746865207a65726f20616464726573730060448201526064016105c6565b8060026000828254613b989190615c49565b90915550506001600160a01b03821660009081526020819052604081208054839290613bc5908490615c49565b90915550506040518181526001600160a01b03831690600090600080516020615f658339815191529060200160405180910390a35050565b6000806000806000613c0d610772565b91509150816000148015613c215750600081115b15613c3857613c31868983614638565b9250613ce7565b80158015613c465750600082115b15613c5657613c31878984614638565b81158015613c62575080155b15613c895760405162461bcd60e51b815260206004820152600060248201526044016105c6565b6000613c96888a85614638565b90506000613ca5888b85614638565b9050600082118015613cb75750600081115b613cd35760405162461bcd60e51b81526004016105c690615b74565b808210613ce05780613ce2565b815b945050505b613cf283838a6139de565b9450613cff83828a6139de565b9350505093509350939050565b60008060007f00000000000000000000000000000000000000000000000000000000000000006001600160a01b03166370a08231306040518263ffffffff1660e01b8152600401613d5d9190615937565b60206040518083038186803b158015613d7557600080fd5b505afa158015613d89573d6000803e3d6000fd5b505050506040513d601f19601f82011682018060405250810190613dad919061583d565b905060007f00000000000000000000000000000000000000000000000000000000000000006001600160a01b03166370a08231306040518263ffffffff1660e01b8152600401613dfd9190615937565b60206040518083038186803b158015613e1557600080fd5b505afa158015613e29573d6000803e3d6000fd5b505050506040513d601f19601f82011682018060405250810190613e4d919061583d565b90506000807f00000000000000000000000000000000000000000000000000000000000000006001600160a01b031663a34123a78a8a8a6040518463ffffffff1660e01b8152600401613ea293929190615a59565b6040805180830381600087803b158015613ebb57600080fd5b505af1158015613ecf573d6000803e3d6000fd5b505050506040513d601f19601f82011682018060405250810190613ef391906155ce565b6040516309e3d67b60e31b815291935091506001600160a01b037f00000000000000000000000000000000000000000000000000000000000000001690634f1eb3d890613f539030908d908d906001600160801b0390819060040161598d565b6040805180830381600087803b158015613f6c57600080fd5b505af1158015613f80573d6000803e3d6000fd5b505050506040513d601f19601f82011682018060405250810190613fa491906156d6565b505081847f00000000000000000000000000000000000000000000000000000000000000006001600160a01b03166370a08231306040518263ffffffff1660e01b8152600401613ff49190615937565b60206040518083038186803b15801561400c57600080fd5b505afa158015614020573d6000803e3d6000fd5b505050506040513d601f19601f82011682018060405250810190614044919061583d565b61404e9190615ddd565b6140589190615ddd565b955080837f00000000000000000000000000000000000000000000000000000000000000006001600160a01b03166370a08231306040518263ffffffff1660e01b81526004016140a89190615937565b60206040518083038186803b1580156140c057600080fd5b505afa1580156140d4573d6000803e3d6000fd5b505050506040513d601f19601f820116820180604052508101906140f8919061583d565b6141029190615ddd565b61410c9190615ddd565b945050505050935093915050565b60007f00000000000000000000000000000000000000000000000000000000000000006001600160a01b0316633850c7bd6040518163ffffffff1660e01b815260040160e06040518083038186803b15801561417557600080fd5b505afa158015614189573d6000803e3d6000fd5b505050506040513d601f19601f820116820180604052508101906141ad919061575e565b505050505050905060006141da826141c78a60020b612673565b6141d38a60020b612673565b8989613a6d565b90506001600160801b038116156142b1576000807f00000000000000000000000000000000000000000000000000000000000000006001600160a01b0316633c8a7d8d308c8c876040518563ffffffff1660e01b8152600401614240949392919061594b565b6040805180830381600087803b15801561425957600080fd5b505af115801561426d573d6000803e3d6000fd5b505050506040513d601f19601f8201168201806040525081019061429191906155ce565b90925090506142a08289615ddd565b97506142ac8188615ddd565b965050505b60008611806142c05750600085115b15614312578486116142d28582614b82565b600061271085836142e357886142e5565b895b6142ef9190615d08565b6142f99190615cc5565b905061430a8a8a8a8a858b88614e49565b909850965050505b5050505050505050565b6000610d896143296131a2565b8360405161190160f01b6020820152602281018390526042810182905260009060620160405160208183030381529060405280519060200120905092915050565b60006fa2a8918ca85bafe22016d0b997e4df60600160ff1b038211156143dd5760405162461bcd60e51b815260206004820152602260248201527f45434453413a20696e76616c6964207369676e6174757265202773272076616c604482015261756560f01b60648201526084016105c6565b8360ff16601b14806143f257508360ff16601c145b6144495760405162461bcd60e51b815260206004820152602260248201527f45434453413a20696e76616c6964207369676e6174757265202776272076616c604482015261756560f01b60648201526084016105c6565b6040805160008082526020820180845288905260ff871692820192909252606081018590526080810184905260019060a0016020604051602081039080840390855afa15801561449d573d6000803e3d6000fd5b5050604051601f1901519150506001600160a01b038116613a2c5760405162461bcd60e51b815260206004820152601860248201527745434453413a20696e76616c6964207369676e617475726560401b60448201526064016105c6565b6001600160a01b03821661455b5760405162461bcd60e51b815260206004820152602160248201527f45524332303a206275726e2066726f6d20746865207a65726f206164647265736044820152607360f81b60648201526084016105c6565b6001600160a01b038216600090815260208190526040902054818110156145cf5760405162461bcd60e51b815260206004820152602260248201527f45524332303a206275726e20616d6f756e7420657863656564732062616c616e604482015261636560f01b60648201526084016105c6565b6145d98282615ddd565b6001600160a01b03841660009081526020819052604081209190915560028054849290614607908490615ddd565b90915550506040518281526000906001600160a01b03851690600080516020615f6583398151915290602001612600565b600080806000198587098587029250828110838203039150508060001415614672576000841161466757600080fd5b508290049050610b8a565b80841161467e57600080fd5b60008486880960026001871981018816978890046003810283188082028403028082028403028082028403028082028403028082028403029081029092039091026000889003889004909101858311909403939093029303949094049190911702949350505050565b60085460405163a34123a760e01b815260009182916001600160a01b037f0000000000000000000000000000000000000000000000000000000000000000169163a34123a79161475391600160401b8104600290810b92600160581b909204900b908890600401615a59565b6040805180830381600087803b15801561476c57600080fd5b505af1158015614780573d6000803e3d6000fd5b505050506040513d601f19601f820116820180604052508101906147a491906155ce565b915091506000807f00000000000000000000000000000000000000000000000000000000000000006001600160a01b031663514ea4bf6147e261260d565b6040518263ffffffff1660e01b815260040161480091815260200190565b60a06040518083038186803b15801561481857600080fd5b505afa15801561482c573d6000803e3d6000fd5b505050506040513d601f19601f820116820180604052508101906148509190615708565b945094505050506148708785846001600160801b03166122889190615ddd565b61487a9085615c49565b935061489387612288856001600160801b038516615ddd565b61489d9084615c49565b6008546040516309e3d67b60e31b81529194506001600160a01b037f00000000000000000000000000000000000000000000000000000000000000001691634f1eb3d89161490b913091600160401b8104600290810b92600160581b909204900b908a908a9060040161598d565b6040805180830381600087803b15801561492457600080fd5b505af1158015614938573d6000803e3d6000fd5b505050506040513d601f19601f8201168201806040525081019061385591906156d6565b6000826001600160a01b0316846001600160a01b0316111561497c579192915b6001600160a01b0384166149bc600160601b600160e01b03606085901b166149a48787615db5565b6001600160a01b0316866001600160a01b0316614638565b612a7d9190615cc5565b6000826001600160a01b0316846001600160a01b031611156149e6579192915b612a7d6001600160801b0383166149fd8686615db5565b6001600160a01b0316600160601b614638565b6000614a65826040518060400160405280602081526020017f5361666545524332303a206c6f772d6c6576656c2063616c6c206661696c6564815250856001600160a01b03166150a69092919063ffffffff16565b8051909150156139765780806020019051810190614a83919061551a565b6139765760405162461bcd60e51b815260206004820152602a60248201527f5361666545524332303a204552433230206f7065726174696f6e20646964206e6044820152691bdd081cdd58d8d9595960b21b60648201526084016105c6565b6000826001600160a01b0316846001600160a01b03161115614b02579192915b6000614b25856001600160a01b0316856001600160a01b0316600160601b614638565b9050613a2c614b478483614b398989615db5565b6001600160a01b0316614638565b6150b5565b6000826001600160a01b0316846001600160a01b03161115614b6c579192915b612a7d614b4783600160601b614b398888615db5565b6040805160028082526060820183526000926020830190803683370190505090506008600e9054906101000a900463ffffffff1681600081518110614bd757634e487b7160e01b600052603260045260246000fd5b602002602001019063ffffffff16908163ffffffff1681525050600081600181518110614c1457634e487b7160e01b600052603260045260246000fd5b63ffffffff9092166020928302919091019091015260405163883bdbfd60e01b81526000906001600160a01b037f0000000000000000000000000000000000000000000000000000000000000000169063883bdbfd90614c78908590600401615a01565b60006040518083038186803b158015614c9057600080fd5b505afa158015614ca4573d6000803e3d6000fd5b505050506040513d6000823e601f3d908101601f19168201604052614ccc9190810190615457565b5090508051600214614d0f5760405162461bcd60e51b815260206004820152600c60248201526b0c2e4e4c2f240d8cadccee8d60a31b60448201526064016105c6565b6008548151600091600160701b900463ffffffff169083908390614d4357634e487b7160e01b600052603260045260246000fd5b602002602001015183600181518110614d6c57634e487b7160e01b600052603260045260246000fd5b6020026020010151614d7e9190615d66565b614d889190615c61565b90506000614d988260020b612673565b60085490915060009061271090614db39061ffff1684615cd9565b614dbd9190615c9f565b90508515614e0557614dcf8183615db5565b6001600160a01b0316876001600160a01b03161015614e005760405162461bcd60e51b81526004016105c690615ae3565b614e40565b614e0f8183615c1e565b6001600160a01b0316876001600160a01b03161115614e405760405162461bcd60e51b81526004016105c690615ae3565b50505050505050565b604051630251596160e31b81523060048201528115156024820152604481018490526001600160a01b03838116606483015260a06084830152600060a48301819052918291829182917f0000000000000000000000000000000000000000000000000000000000000000169063128acb089060c4016040805180830381600087803b158015614ed757600080fd5b505af1158015614eeb573d6000803e3d6000fd5b505050506040513d601f19601f82011682018060405250810190614f0f91906155ce565b9092509050614f1e828a615d27565b9350614f2a8189615d27565b925060007f00000000000000000000000000000000000000000000000000000000000000006001600160a01b0316633850c7bd6040518163ffffffff1660e01b815260040160e06040518083038186803b158015614f8757600080fd5b505afa158015614f9b573d6000803e3d6000fd5b505050506040513d601f19601f82011682018060405250810190614fbf919061575e565b50505050505090506000614fdf82614fd68f612673565b6141d38f612673565b90506001600160801b03811615615096577f00000000000000000000000000000000000000000000000000000000000000006001600160a01b0316633c8a7d8d308f8f856040518563ffffffff1660e01b8152600401615042949392919061594b565b6040805180830381600087803b15801561505b57600080fd5b505af115801561506f573d6000803e3d6000fd5b505050506040513d601f19601f8201168201806040525081019061509391906155ce565b50505b5050505097509795505050505050565b6060612a7d84846000856150d0565b806001600160801b03811681146150cb57600080fd5b919050565b6060824710156151315760405162461bcd60e51b815260206004820152602660248201527f416464726573733a20696e73756666696369656e742062616c616e636520666f6044820152651c8818d85b1b60d21b60648201526084016105c6565b843b61517f5760405162461bcd60e51b815260206004820152601d60248201527f416464726573733a2063616c6c20746f206e6f6e2d636f6e747261637400000060448201526064016105c6565b600080866001600160a01b0316858760405161519b919061591b565b60006040518083038185875af1925050503d80600081146151d8576040519150601f19603f3d011682016040523d82523d6000602084013e6151dd565b606091505b50915091506151ed8282866151f8565b979650505050505050565b60608315615207575081610b8a565b8251156152175782518084602001fd5b8160405162461bcd60e51b81526004016105c69190615a7f565b600082601f830112615241578081fd5b8151602061525661525183615bfb565b615bcb565b80838252828201915082860187848660051b8901011115615275578586fd5b855b8581101561529c57815161528a81615ecc565b84529284019290840190600101615277565b5090979650505050505050565b805180151581146150cb57600080fd5b60008083601f8401126152ca578182fd5b5081356001600160401b038111156152e0578182fd5b6020830191508360208285010111156152f857600080fd5b9250929050565b8051600681900b81146150cb57600080fd5b80516001600160801b03811681146150cb57600080fd5b600060208284031215615339578081fd5b8135610b8a81615ecc565b60008060408385031215615356578081fd5b823561536181615ecc565b9150602083013561537181615ecc565b809150509250929050565b600080600060608486031215615390578081fd5b833561539b81615ecc565b925060208401356153ab81615ecc565b929592945050506040919091013590565b600080600080600080600060e0888a0312156153d6578283fd5b87356153e181615ecc565b965060208801356153f181615ecc565b95506040880135945060608801359350608088013561540f81615f15565b9699959850939692959460a0840135945060c09093013592915050565b6000806040838503121561543e578182fd5b823561544981615ecc565b946020939093013593505050565b60008060408385031215615469578182fd5b82516001600160401b038082111561547f578384fd5b818501915085601f830112615492578384fd5b815160206154a261525183615bfb565b8083825282820191508286018a848660051b89010111156154c1578889fd5b8896505b848710156154ea576154d6816152ff565b8352600196909601959183019183016154c5565b5091880151919650909350505080821115615503578283fd5b5061551085828601615231565b9150509250929050565b60006020828403121561552b578081fd5b610b8a826152a9565b600080600060608486031215615548578081fd5b833561555381615ee4565b9250602084013561556381615ee4565b9150604084013561557381615ecc565b809150509250925092565b60008060008060808587031215615593578182fd5b843561559e81615ee4565b935060208501356155ae81615ee4565b925060408501356155be81615ecc565b9396929550929360600135925050565b600080604083850312156155e0578182fd5b505080516020909101519092909150565b60008060008060608587031215615606578182fd5b843593506020850135925060408501356001600160401b03811115615629578283fd5b615635878288016152b9565b95989497509550505050565b600080600080600080600080610100898b03121561565d578182fd5b61566689615311565b9750602089015180600f0b811461567b578283fd5b60408a015160608b01519198509650945061569860808a016152ff565b935060a08901516156a881615ecc565b60c08a01519093506156b981615f03565b91506156c760e08a016152a9565b90509295985092959890939650565b600080604083850312156156e8578182fd5b6156f183615311565b91506156ff60208401615311565b90509250929050565b600080600080600060a0868803121561571f578283fd5b61572886615311565b9450602086015193506040860151925061574460608701615311565b915061575260808701615311565b90509295509295909350565b600080600080600080600060e0888a031215615778578081fd5b875161578381615ecc565b602089015190975061579481615ee4565b60408901519096506157a581615ef3565b60608901519095506157b681615ef3565b60808901519094506157c781615ef3565b60a08901519093506157d881615f15565b91506157e660c089016152a9565b905092959891949750929550565b60008060008060808587031215615809578182fd5b843561581481615ecc565b93506020850135925060408501359150606085013561583281615ecc565b939692955090935050565b60006020828403121561584e578081fd5b5051919050565b60008060408385031215615867578182fd5b82359150602083013561537181615ecc565b6000806040838503121561588b578182fd5b50508035926020909101359150565b60008060008060008060c087890312156158b2578384fd5b86356158bd81615f03565b955060208701356158cd81615ef3565b945060408701356158dd81615ef3565b935060608701356158ed81615ef3565b925060808701356158fd81615ef3565b915060a087013561590d81615ecc565b809150509295509295509295565b6000825161592d818460208701615df4565b9190910192915050565b6001600160a01b0391909116815260200190565b6001600160a01b03949094168452600292830b6020850152910b60408301526001600160801b0316606082015260a06080820181905260009082015260c00190565b6001600160a01b03959095168552600293840b60208601529190920b60408401526001600160801b03918216606084015216608082015260a00190565b6001600160a01b039590951685526020850193909352604084019190915260608301526001600160801b0316608082015260a00190565b6020808252825182820181905260009190848201906040850190845b81811015615a3f57835163ffffffff1683529284019291840191600101615a1d565b50909695505050505050565b60029190910b815260200190565b600293840b81529190920b60208201526001600160801b03909116604082015260600190565b6020815260008251806020840152615a9e816040850160208701615df4565b601f01601f19169190910160400192915050565b60208082526017908201527647656c61746f666965643a204f6e6c792067656c61746f60481b604082015260600190565b60208082526003908201526227a7a960e91b604082015260600190565b6020808252818101527f4f776e61626c653a2063616c6c6572206973206e6f7420746865206f776e6572604082015260600190565b602080825260089082015267686967682066656560c01b604082015260600190565b60208082526003908201526242505360e81b604082015260600190565b60208082526006908201526506d696e7420360d41b604082015260600190565b6020808252601f908201527f5265656e7472616e637947756172643a207265656e7472616e742063616c6c00604082015260600190565b604051601f8201601f191681016001600160401b0381118282101715615bf357615bf3615eb6565b604052919050565b60006001600160401b03821115615c1457615c14615eb6565b5060051b60200190565b60006001600160a01b03828116848216808303821115615c4057615c40615e8a565b01949350505050565b60008219821115615c5c57615c5c615e8a565b500190565b60008160060b8360060b80615c7857615c78615ea0565b667fffffffffffff19821460001982141615615c9657615c96615e8a565b90059392505050565b60006001600160a01b0383811680615cb957615cb9615ea0565b92169190910492915050565b600082615cd457615cd4615ea0565b500490565b60006001600160a01b0382811684821681151582840482111615615cff57615cff615e8a565b02949350505050565b6000816000190483118215151615615d2257615d22615e8a565b500290565b60008083128015600160ff1b850184121615615d4557615d45615e8a565b6001600160ff1b0384018313811615615d6057615d60615e8a565b50500390565b60008160060b8360060b82811281667fffffffffffff1901831281151615615d9057615d90615e8a565b81667fffffffffffff018313811615615dab57615dab615e8a565b5090039392505050565b60006001600160a01b0383811690831681811015615dd557615dd5615e8a565b039392505050565b600082821015615def57615def615e8a565b500390565b60005b83811015615e0f578181015183820152602001615df7565b838111156110765750506000910152565b6000600019821415615e3457615e34615e8a565b5060010190565b600082615e4a57615e4a615ea0565b500690565b60008160020b627fffff19811415615e6957615e69615e8a565b9003919050565b6000600160ff1b821415615e8657615e86615e8a565b0390565b634e487b7160e01b600052601160045260246000fd5b634e487b7160e01b600052601260045260246000fd5b634e487b7160e01b600052604160045260246000fd5b6001600160a01b0381168114615ee157600080fd5b50565b8060020b8114615ee157600080fd5b61ffff81168114615ee157600080fd5b63ffffffff81168114615ee157600080fd5b60ff81168114615ee157600080fdfea40d93a72f8af7b904f2e4a60095955bfcaa3c724969f731bd8bc1fda226a1718be0079c531659141344cd1fd0a4f28419497f9722a3daafe3b4186f6b6457e0ddf252ad1be2c89b69c2b068fc378daa952ba7f163c4a11628f55a4df523b3efa26469706673582212201b6829c1801fc48ccef64d041bdb6161b14b2c0a7e3898501a2a98b04319481564736f6c63430008040033",
  "devdoc": {
    "details": "DO NOT ADD STATE VARIABLES - APPEND THEM TO GelatoUniV3PoolStorageDO NOT ADD BASE CONTRACTS WITH STATE VARS - APPEND THEM TO GelatoUniV3PoolStorage",
    "kind": "dev",
    "methods": {
      "DOMAIN_SEPARATOR()": {
        "details": "See {IERC20Permit-DOMAIN_SEPARATOR}."
      },
      "allowance(address,address)": {
        "details": "See {IERC20-allowance}."
      },
      "approve(address,uint256)": {
        "details": "See {IERC20-approve}. Requirements: - `spender` cannot be the zero address."
      },
      "balanceOf(address)": {
        "details": "See {IERC20-balanceOf}."
      },
      "decimals()": {
        "details": "Returns the number of decimals used to get its user representation. For example, if `decimals` equals `2`, a balance of `505` tokens should be displayed to a user as `5,05` (`505 / 10 ** 2`). Tokens usually opt for a value of 18, imitating the relationship between Ether and Wei. This is the value {ERC20} uses, unless this function is overridden; NOTE: This information is only used for _display_ purposes: it in no way affects any of the arithmetic of the contract, including {IERC20-balanceOf} and {IERC20-transfer}."
      },
      "decreaseAllowance(address,uint256)": {
        "details": "Atomically decreases the allowance granted to `spender` by the caller. This is an alternative to {approve} that can be used as a mitigation for problems described in {IERC20-approve}. Emits an {Approval} event indicating the updated allowance. Requirements: - `spender` cannot be the zero address. - `spender` must have allowance for the caller of at least `subtractedValue`."
      },
      "increaseAllowance(address,uint256)": {
        "details": "Atomically increases the allowance granted to `spender` by the caller. This is an alternative to {approve} that can be used as a mitigation for problems described in {IERC20-approve}. Emits an {Approval} event indicating the updated allowance. Requirements: - `spender` cannot be the zero address."
      },
      "name()": {
        "details": "Returns the name of the token."
      },
      "nonces(address)": {
        "details": "See {IERC20Permit-nonces}."
      },
      "owner()": {
        "details": "Returns the address of the current owner."
      },
      "permit(address,address,uint256,uint256,uint8,bytes32,bytes32)": {
        "details": "See {IERC20Permit-permit}."
      },
      "renounceOwnership()": {
        "details": "Leaves the contract without owner. It will not be possible to call `onlyOwner` functions anymore. Can only be called by the current owner. NOTE: Renouncing ownership will leave the contract without an owner, thereby removing any functionality that is only available to the owner."
      },
      "symbol()": {
        "details": "Returns the symbol of the token, usually a shorter version of the name."
      },
      "totalSupply()": {
        "details": "See {IERC20-totalSupply}."
      },
      "transfer(address,uint256)": {
        "details": "See {IERC20-transfer}. Requirements: - `recipient` cannot be the zero address. - the caller must have a balance of at least `amount`."
      },
      "transferFrom(address,address,uint256)": {
        "details": "See {IERC20-transferFrom}. Emits an {Approval} event indicating the updated allowance. This is not required by the EIP. See the note at the beginning of {ERC20}. Requirements: - `sender` and `recipient` cannot be the zero address. - `sender` must have a balance of at least `amount`. - the caller must have allowance for ``sender``'s tokens of at least `amount`."
      },
      "transferOwnership(address)": {
        "details": "Transfers ownership of the contract to a new account (`newOwner`). Can only be called by the current owner."
      }
    },
    "version": 1
  },
  "userdoc": {
    "kind": "user",
    "methods": {},
    "version": 1
  },
  "storageLayout": {
    "storage": [
      {
        "astId": 101,
        "contract": "contracts/GUniPoolStatic.sol:GUniPoolStatic",
        "label": "_balances",
        "offset": 0,
        "slot": "0",
        "type": "t_mapping(t_address,t_uint256)"
      },
      {
        "astId": 107,
        "contract": "contracts/GUniPoolStatic.sol:GUniPoolStatic",
        "label": "_allowances",
        "offset": 0,
        "slot": "1",
        "type": "t_mapping(t_address,t_mapping(t_address,t_uint256))"
      },
      {
        "astId": 109,
        "contract": "contracts/GUniPoolStatic.sol:GUniPoolStatic",
        "label": "_totalSupply",
        "offset": 0,
        "slot": "2",
        "type": "t_uint256"
      },
      {
        "astId": 111,
        "contract": "contracts/GUniPoolStatic.sol:GUniPoolStatic",
        "label": "_name",
        "offset": 0,
        "slot": "3",
        "type": "t_string_storage"
      },
      {
        "astId": 113,
        "contract": "contracts/GUniPoolStatic.sol:GUniPoolStatic",
        "label": "_symbol",
        "offset": 0,
        "slot": "4",
        "type": "t_string_storage"
      },
      {
        "astId": 718,
        "contract": "contracts/GUniPoolStatic.sol:GUniPoolStatic",
        "label": "_nonces",
        "offset": 0,
        "slot": "5",
        "type": "t_mapping(t_address,t_struct(Counter)1449_storage)"
      },
      {
        "astId": 4832,
        "contract": "contracts/GUniPoolStatic.sol:GUniPoolStatic",
        "label": "_owner",
        "offset": 0,
        "slot": "6",
        "type": "t_address"
      },
      {
        "astId": 5,
        "contract": "contracts/GUniPoolStatic.sol:GUniPoolStatic",
        "label": "_initialized",
        "offset": 20,
        "slot": "6",
        "type": "t_bool"
      },
      {
        "astId": 8,
        "contract": "contracts/GUniPoolStatic.sol:GUniPoolStatic",
        "label": "_initializing",
        "offset": 21,
        "slot": "6",
        "type": "t_bool"
      },
      {
        "astId": 56,
        "contract": "contracts/GUniPoolStatic.sol:GUniPoolStatic",
        "label": "_status",
        "offset": 0,
        "slot": "7",
        "type": "t_uint256"
      },
      {
        "astId": 4518,
        "contract": "contracts/GUniPoolStatic.sol:GUniPoolStatic",
        "label": "_maxSlippageBPS",
        "offset": 0,
        "slot": "8",
        "type": "t_uint16"
      },
      {
        "astId": 4520,
        "contract": "contracts/GUniPoolStatic.sol:GUniPoolStatic",
        "label": "_adminFeeBPS",
        "offset": 2,
        "slot": "8",
        "type": "t_uint16"
      },
      {
        "astId": 4522,
        "contract": "contracts/GUniPoolStatic.sol:GUniPoolStatic",
        "label": "_rebalanceFeeBPS",
        "offset": 4,
        "slot": "8",
        "type": "t_uint16"
      },
      {
        "astId": 4524,
        "contract": "contracts/GUniPoolStatic.sol:GUniPoolStatic",
        "label": "_autoWithdrawFeeBPS",
        "offset": 6,
        "slot": "8",
        "type": "t_uint16"
      },
      {
        "astId": 4526,
        "contract": "contracts/GUniPoolStatic.sol:GUniPoolStatic",
        "label": "_lowerTick",
        "offset": 8,
        "slot": "8",
        "type": "t_int24"
      },
      {
        "astId": 4528,
        "contract": "contracts/GUniPoolStatic.sol:GUniPoolStatic",
        "label": "_upperTick",
        "offset": 11,
        "slot": "8",
        "type": "t_int24"
      },
      {
        "astId": 4530,
        "contract": "contracts/GUniPoolStatic.sol:GUniPoolStatic",
        "label": "_observationSeconds",
        "offset": 14,
        "slot": "8",
        "type": "t_uint32"
      },
      {
        "astId": 4532,
        "contract": "contracts/GUniPoolStatic.sol:GUniPoolStatic",
        "label": "_treasury",
        "offset": 0,
        "slot": "9",
        "type": "t_address"
      },
      {
        "astId": 4534,
        "contract": "contracts/GUniPoolStatic.sol:GUniPoolStatic",
        "label": "_adminBalanceToken0",
        "offset": 0,
        "slot": "10",
        "type": "t_uint256"
      },
      {
        "astId": 4536,
        "contract": "contracts/GUniPoolStatic.sol:GUniPoolStatic",
        "label": "_adminBalanceToken1",
        "offset": 0,
        "slot": "11",
        "type": "t_uint256"
      }
    ],
    "types": {
      "t_address": {
        "encoding": "inplace",
        "label": "address",
        "numberOfBytes": "20"
      },
      "t_bool": {
        "encoding": "inplace",
        "label": "bool",
        "numberOfBytes": "1"
      },
      "t_int24": {
        "encoding": "inplace",
        "label": "int24",
        "numberOfBytes": "3"
      },
      "t_mapping(t_address,t_mapping(t_address,t_uint256))": {
        "encoding": "mapping",
        "key": "t_address",
        "label": "mapping(address => mapping(address => uint256))",
        "numberOfBytes": "32",
        "value": "t_mapping(t_address,t_uint256)"
      },
      "t_mapping(t_address,t_struct(Counter)1449_storage)": {
        "encoding": "mapping",
        "key": "t_address",
        "label": "mapping(address => struct Counters.Counter)",
        "numberOfBytes": "32",
        "value": "t_struct(Counter)1449_storage"
      },
      "t_mapping(t_address,t_uint256)": {
        "encoding": "mapping",
        "key": "t_address",
        "label": "mapping(address => uint256)",
        "numberOfBytes": "32",
        "value": "t_uint256"
      },
      "t_string_storage": {
        "encoding": "bytes",
        "label": "string",
        "numberOfBytes": "32"
      },
      "t_struct(Counter)1449_storage": {
        "encoding": "inplace",
        "label": "struct Counters.Counter",
        "members": [
          {
            "astId": 1448,
            "contract": "contracts/GUniPoolStatic.sol:GUniPoolStatic",
            "label": "_value",
            "offset": 0,
            "slot": "0",
            "type": "t_uint256"
          }
        ],
        "numberOfBytes": "32"
      },
      "t_uint16": {
        "encoding": "inplace",
        "label": "uint16",
        "numberOfBytes": "2"
      },
      "t_uint256": {
        "encoding": "inplace",
        "label": "uint256",
        "numberOfBytes": "32"
      },
      "t_uint32": {
        "encoding": "inplace",
        "label": "uint32",
        "numberOfBytes": "4"
      }
    }
  }
}