{
  "address": "0x8582Bf142BE76fEF830D23f590a2587f2aD7C216",
  "abi": [
    {
      "inputs": [
        {
          "internalType": "address",
          "name": "_uniswapFactory",
          "type": "address"
        },
        {
          "internalType": "address",
          "name": "_gelato",
          "type": "address"
        },
        {
          "internalType": "address",
          "name": "_owner",
          "type": "address"
        }
      ],
      "stateMutability": "nonpayable",
      "type": "constructor"
    },
    {
      "anonymous": false,
      "inputs": [
        {
          "indexed": true,
          "internalType": "address",
          "name": "token0",
          "type": "address"
        },
        {
          "indexed": true,
          "internalType": "address",
          "name": "token1",
          "type": "address"
        },
        {
          "indexed": false,
          "internalType": "address",
          "name": "pool",
          "type": "address"
        }
      ],
      "name": "PoolCreated",
      "type": "event"
    },
    {
      "inputs": [],
      "name": "POOL_BYTECODE_HASH",
      "outputs": [
        {
          "internalType": "bytes32",
          "name": "",
          "type": "bytes32"
        }
      ],
      "stateMutability": "view",
      "type": "function"
    },
    {
      "inputs": [
        {
          "internalType": "address",
          "name": "tokenA",
          "type": "address"
        },
        {
          "internalType": "address",
          "name": "tokenB",
          "type": "address"
        }
      ],
      "name": "calculatePoolAddress",
      "outputs": [
        {
          "internalType": "address",
          "name": "",
          "type": "address"
        }
      ],
      "stateMutability": "view",
      "type": "function"
    },
    {
      "inputs": [
        {
          "internalType": "string",
          "name": "name",
          "type": "string"
        },
        {
          "internalType": "address",
          "name": "tokenA",
          "type": "address"
        },
        {
          "internalType": "address",
          "name": "tokenB",
          "type": "address"
        },
        {
          "internalType": "int24",
          "name": "initialLowerTick",
          "type": "int24"
        },
        {
          "internalType": "int24",
          "name": "initialUpperTick",
          "type": "int24"
        }
      ],
      "name": "createPool",
      "outputs": [
        {
          "internalType": "address",
          "name": "pool",
          "type": "address"
        }
      ],
      "stateMutability": "nonpayable",
      "type": "function"
    },
    {
      "inputs": [],
      "name": "gelato",
      "outputs": [
        {
          "internalType": "address",
          "name": "",
          "type": "address"
        }
      ],
      "stateMutability": "view",
      "type": "function"
    },
    {
      "inputs": [],
      "name": "getDeployProps",
      "outputs": [
        {
          "internalType": "address",
          "name": "",
          "type": "address"
        },
        {
          "internalType": "address",
          "name": "",
          "type": "address"
        },
        {
          "internalType": "address",
          "name": "",
          "type": "address"
        },
        {
          "internalType": "int24",
          "name": "",
          "type": "int24"
        },
        {
          "internalType": "int24",
          "name": "",
          "type": "int24"
        },
        {
          "internalType": "address",
          "name": "",
          "type": "address"
        },
        {
          "internalType": "address",
          "name": "",
          "type": "address"
        },
        {
          "internalType": "string",
          "name": "",
          "type": "string"
        }
      ],
      "stateMutability": "view",
      "type": "function"
    },
    {
      "inputs": [],
      "name": "owner",
      "outputs": [
        {
          "internalType": "address",
          "name": "",
          "type": "address"
        }
      ],
      "stateMutability": "view",
      "type": "function"
    },
    {
      "inputs": [],
      "name": "uniswapFactory",
      "outputs": [
        {
          "internalType": "address",
          "name": "",
          "type": "address"
        }
      ],
      "stateMutability": "view",
      "type": "function"
    }
  ],
  "transactionHash": "0x620a570e6565c2e20f448b7af92ba02186d2147feb2bbb889e33236f3426e607",
  "args": [
    "0x1F98431c8aD98523631AE4a59f267346ea31F984",
    "0x3CACa7b48D0573D793d3b0279b5F0029180E83b6",
    "0x163407FDA1a93941358c1bfda39a868599553b6D"
  ],
  "solcInputHash": "76c564ed4901b2d2c9bc52a0c816f795",
  "bytecode": "0x60e060405234801561001057600080fd5b50604051614b1f380380614b1f8339818101604052606081101561003357600080fd5b50805160208201516040909201516001600160601b0319606092831b811660805292821b831660a052901b1660c05260805160601c60a05160601c60c05160601c614a796100a6600039806103e952806106e65250806103a152806106c45250806103c5528061068d5250614a796000f3fe60806040523480156200001157600080fd5b5060043610620000885760003560e01c80638da5cb5b11620000635780638da5cb5b14620000ee578063d0d3fb8014620000f8578063fc8af1651462000114578063fff471bd14620001b05762000088565b8063209b6738146200008d578063573ea57514620000da5780638bdb2afa14620000e4575b600080fd5b620000be60048036036040811015620000a557600080fd5b506001600160a01b038135811691602001351662000299565b604080516001600160a01b039092168252519081900360200190f35b620000be6200039f565b620000be620003c3565b620000be620003e7565b620001026200040b565b60408051918252519081900360200190f35b620000be600480360360a08110156200012c57600080fd5b8101906020810181356401000000008111156200014857600080fd5b8201836020820111156200015b57600080fd5b803590602001918460018302840111640100000000831117156200017e57600080fd5b91935091506001600160a01b0381358116916020810135909116906040810135600290810b9160600135900b6200043a565b620001ba62000632565b60405180896001600160a01b03168152602001886001600160a01b03168152602001876001600160a01b031681526020018660020b81526020018560020b8152602001846001600160a01b03168152602001836001600160a01b0316815260200180602001828103825283818151815260200191508051906020019080838360005b83811015620002565781810151838201526020016200023c565b50505050905090810190601f168015620002845780820380516001836020036101000a031916815260200191505b50995050505050505050505060405180910390f35b6000806000836001600160a01b0316856001600160a01b031610620002c0578385620002c3565b84845b9150915060ff60f81b30838360405160200180836001600160a01b031660601b8152601401826001600160a01b031660601b815260140192505050604051602081830303815290604052805190602001206040518060200162000326906200077f565b6020820181038252601f19601f820116604052508051906020012060405160200180856001600160f81b0319168152600101846001600160a01b031660601b81526014018381526020018281526020019450505050506040516020818303038152906040528051906020012060001c9250505092915050565b7f000000000000000000000000000000000000000000000000000000000000000081565b7f000000000000000000000000000000000000000000000000000000000000000081565b7f000000000000000000000000000000000000000000000000000000000000000081565b6040516200041c602082016200077f565b6020820181038252601f19601f820116604052508051906020012081565b6000836001600160a01b0316856001600160a01b031614156200045c57600080fd5b600080856001600160a01b0316876001600160a01b0316106200048157858762000484565b86865b90925090506001600160a01b0382166200049d57600080fd5b600080546001600160a01b038085166001600160a01b03199283161790925560018054600288810b62ffffff908116600160b81b0262ffffff60b81b198c840b909216600160a01b0262ffffff60a01b1997891694909616939093179590951693909317939093169290921790915562000519908a8a6200078d565b50818160405160200180836001600160a01b031660601b8152601401826001600160a01b031660601b815260140192505050604051602081830303815290604052805190602001206040516200056f906200077f565b8190604051809103906000f590508015801562000590573d6000803e3d6000fd5b50600080546001600160a01b0319168155600180546001600160d01b0319169055604080516020810191829052829052919450620005d19160029162000812565b50806001600160a01b0316826001600160a01b03167f9c5d829b9b23efc461f9aeef91979ec04bb903feb3bee4f26d22114abfc7335b8560405180826001600160a01b0316815260200191505060405180910390a350509695505050505050565b600080546001805460028054604080516020610100968416159690960260001901909216839004601f81018690048602830186019091528082528695869586958695869586956060956001600160a01b0390811695908516947f000000000000000000000000000000000000000000000000000000000000000094600160a01b8204810b94600160b81b909204810b937f0000000000000000000000000000000000000000000000000000000000000000937f0000000000000000000000000000000000000000000000000000000000000000939183918301828280156200075e5780601f1062000732576101008083540402835291602001916200075e565b820191906000526020600020905b8154815290600101906020018083116200074057829003601f168201915b50505050509050975097509750975097509750975097509091929394959697565b6141a7806200089d83390190565b828054600181600116156101000203166002900490600052602060002090601f016020900481019282601f10620007d05782800160ff1982351617855562000800565b8280016001018555821562000800579182015b8281111562000800578235825591602001919060010190620007e3565b506200080e92915062000885565b5090565b828054600181600116156101000203166002900490600052602060002090601f016020900481019282601f106200085557805160ff191683800117855562000800565b8280016001018555821562000800579182015b828111156200080057825182559160200191906001019062000868565b5b808211156200080e57600081556001016200088656fe61012060405269032d26d12e980b600000600a5562015180600b55600c8054607862ffffff199091161765ffffff0000001916641b580000001763ffffffff60381b191668012c0000000000000017600160581b600160f81b0319166b0500000000000000000000001790553480156200007857600080fd5b5060004690507f8b73c3c69bb8fe3d512ecc4cf759cc79239f7b179b0ffacaa9a75d522b39400f60006040518082805460018160011615610100020316600290048015620001005780601f10620000dd57610100808354040283529182019162000100565b820191906000526020600020905b815481529060010190602001808311620000eb575b50506040805191829003822082820182526001808452603160f81b602094850152825180850197909752868301919091527fc89efdaa54c0f20c7adf612882df0950f5a951637e0307cdcb4c672f298b8bc6606087015260808601969096523060a0808701919091528151808703909101815260c090950190819052845194909101939093206004555050600691909155600780546001600160a01b031916339081179091559060009060008051602062004187833981519152908290a36000339050806001600160a01b03166080816001600160a01b031660601b8152505060008060008060008060006060886001600160a01b031663fff471bd6040518163ffffffff1660e01b815260040160006040518083038186803b1580156200022757600080fd5b505afa1580156200023c573d6000803e3d6000fd5b505050506040513d6000823e601f3d908101601f191682016040526101008110156200026757600080fd5b815160208301516040808501516060860151608087015160a088015160c089015160e08a0180519651989a979995989497939692959194939182019284640100000000821115620002b757600080fd5b908301906020820185811115620002cd57600080fd5b8251640100000000811182820188101715620002e857600080fd5b82525081516020918201929091019080838360005b8381101562000317578181015183820152602001620002fd565b50505050905090810190601f168015620003455780820380516001836020036101000a031916815260200191505b506040525050506001600160601b0319606089811b821660a05288811b821660c05287811b821660e05284901b1661010052969e50949c50929a5090985096509450925090506200039682620004c4565b620003a181620005bd565b6007805462ffffff60a01b1916600160a01b600288810b62ffffff908116929092029290921762ffffff60b81b1916600160b81b9288900b91909116919091021762ffffff60d01b191661017760d31b17905560408051630b4c774160e11b81526001600160a01b038a811660048301528981166024830152610bb860448301529151600092891691631698ee82916064808301926020929190829003018186803b1580156200045057600080fd5b505afa15801562000465573d6000803e3d6000fd5b505050506040513d60208110156200047c57600080fd5b505190506001600160a01b0381166200049457600080fd5b600880546001600160a01b0319166001600160a01b03929092169190911790555062000681975050505050505050565b33620004cf620005d6565b6001600160a01b0316146200052b576040805162461bcd60e51b815260206004820181905260248201527f4f776e61626c653a2063616c6c6572206973206e6f7420746865206f776e6572604482015290519081900360640190fd5b6001600160a01b038116620005725760405162461bcd60e51b8152600401808060200182810382526026815260200180620041616026913960400191505060405180910390fd5b6007546040516001600160a01b038084169216906000805160206200418783398151915290600090a3600780546001600160a01b0319166001600160a01b0392909216919091179055565b8051620005d2906000906020840190620005e5565b5050565b6007546001600160a01b031690565b828054600181600116156101000203166002900490600052602060002090601f016020900481019282601f106200062857805160ff191683800117855562000658565b8280016001018555821562000658579182015b82811115620006585782518255916020019190600101906200063b565b50620006669291506200066a565b5090565b5b808211156200066657600081556001016200066b565b60805160601c60a05160601c60c05160601c60e05160601c6101005160601c613a4b6200071660003980610a1c5280610e9852508061129c5280611c7052508061135e5280611599528061160152806119d85280611c205280611cc0528061211152508061094d528061156852806115cf528061199f5280611bd55280611c9f52806120c652508061131d5250613a4b6000f3fe608060405234801561001057600080fd5b50600436106102695760003560e01c8063715018a611610151578063c72e160b116100c3578063dd62ed3e11610087578063dd62ed3e146107a7578063df28408a146107d5578063e5475ae7146107dd578063f2fde38b146107e5578063fa2c6d7c1461080b578063fa461e331461082c57610269565b8063c72e160b1461061b578063d21220a71461067a578063d23e6fa714610682578063d3487997146106dc578063d505accf1461075657610269565b80638f770ad0116101155780638f770ad0146105c757806395d89b41146105cf57806398469b3d146105d7578063a9059cbb146105df578063b83d81571461060b578063c45a01551461061357610269565b8063715018a6146105815780637ecebe00146105895780638322fff2146105af5780638bdb2afa146105b75780638da5cb5b146105bf57610269565b80633defb962116101ea57806366e3d113116101ae57806366e3d113146104fd578063692b69ae1461051d578063696c58e51461052557806369d3e20e1461052d5780636a3089f61461055357806370a082311461055b57610269565b80633defb9621461044357806342966c681461044b5780634b41d7d81461048f578063573ea575146104975780636098fd4a1461049f57610269565b806323b872dd1161023157806323b872dd14610388578063308685c6146103be57806330adf81f14610415578063313ce5671461041d5780633644e5151461043b57610269565b806306fdde031461026e578063095ea7b3146102eb5780630dfe16811461032b57806318160ddd1461034f5780631f6697c614610369575b600080fd5b6102766108a6565b6040805160208082528351818301528351919283929083019185019080838360005b838110156102b0578181015183820152602001610298565b50505050905090810190601f1680156102dd5780820380516001836020036101000a031916815260200191505b509250505060405180910390f35b6103176004803603604081101561030157600080fd5b506001600160a01b038135169060200135610934565b604080519115158252519081900360200190f35b61033361094b565b604080516001600160a01b039092168252519081900360200190f35b61035761096f565b60408051918252519081900360200190f35b610371610975565b6040805160029290920b8252519081900360200190f35b6103176004803603606081101561039e57600080fd5b506001600160a01b03813581169160208101359091169060400135610985565b610413600480360360c08110156103d457600080fd5b508035600290810b91602081013590910b9062ffffff604082013516906001600160a01b03606082013581169160808101359160a09091013516610a1a565b005b610357610bc2565b610425610be6565b6040805160ff9092168252519081900360200190f35b610357610beb565b610357610bf1565b6104686004803603602081101561046157600080fd5b5035610bf7565b6040805193845260208401929092526001600160801b031682820152519081900360600190f35b610371610e8d565b610333610e96565b6104e1600480360360a08110156104b557600080fd5b506001600160a01b03813581169160208101358216916040820135169060608101359060800135610eba565b604080516001600160801b039092168252519081900360200190f35b610505610ed5565b6040805162ffffff9092168252519081900360200190f35b610333610ee7565b610371610ef6565b6103576004803603602081101561054357600080fd5b50356001600160801b0316610f06565b61033361119a565b6103576004803603602081101561057157600080fd5b50356001600160a01b03166111b0565b6104136111c2565b6103576004803603602081101561059f57600080fd5b50356001600160a01b0316611270565b610333611282565b61033361129a565b6103336112be565b6103576112cd565b6102766112d3565b6103176112f5565b610317600480360360408110156105f557600080fd5b506001600160a01b038135169060200135611308565b610357611315565b61033361131b565b6106616004803603608081101561063157600080fd5b5080356001600160a01b0390811691602081013582169160408201351690606001356001600160801b031661133f565b6040805192835260208301919091528051918290030190f35b61033361135c565b610413600480360360e081101561069857600080fd5b508035906020810135906040810135600290810b91606081013590910b90608081013515159060a081013563ffffffff169060c001356001600160a01b0316611380565b610413600480360360608110156106f257600080fd5b813591602081013591810190606081016040820135600160201b81111561071857600080fd5b82018360208201111561072a57600080fd5b803590602001918460018302840111600160201b8311171561074b57600080fd5b50909250905061151f565b610413600480360360e081101561076c57600080fd5b506001600160a01b03813581169160208101359091169060408101359060608101359060ff6080820135169060a08101359060c0013561162f565b610357600480360360408110156107bd57600080fd5b506001600160a01b0381358116916020013516611826565b610357611843565b610371611852565b610413600480360360208110156107fb57600080fd5b50356001600160a01b0316611862565b610813611967565b6040805163ffffffff9092168252519081900360200190f35b6104136004803603606081101561084257600080fd5b813591602081013591810190606081016040820135600160201b81111561086857600080fd5b82018360208201111561087a57600080fd5b803590602001918460018302840111600160201b8311171561089b57600080fd5b50909250905061197a565b6000805460408051602060026001851615610100026000190190941693909304601f8101849004840282018401909252818152929183018282801561092c5780601f106109015761010080835404028352916020019161092c565b820191906000526020600020905b81548152906001019060200180831161090f57829003601f168201915b505050505081565b6000610941338484611a04565b5060015b92915050565b7f000000000000000000000000000000000000000000000000000000000000000081565b60015481565b600754600160b81b900460020b81565b6001600160a01b038316600090815260036020908152604080832033845290915281205460001914610a04576001600160a01b03841660009081526003602090815260408083203384529091529020546109df9083611a66565b6001600160a01b03851660009081526003602090815260408083203384529091529020555b610a0f848484611a76565b5060015b9392505050565b7f00000000000000000000000000000000000000000000000000000000000000008282336001600160a01b03841614610a9a576040805162461bcd60e51b815260206004820152601760248201527f47656c61746f666965643a204f6e6c792067656c61746f000000000000000000604482015290519081900360640190fd5b60075462ffffff888116600160d01b9092041614610b1e57600c546601000000000000900460ff1615610b0b576040805162461bcd60e51b81526020600482015260146024820152731cddda5d18da141bdbdb1cc8191a5cd8589b195960621b604482015290519081900360640190fd5b610b19898989898989611b24565b610b2b565b610b2b8989888888612001565b6040805160028b810b82528a900b602082015262ffffff89168183015290517f9eb978de8e4fad24d8f0da57516dac8217f1fd1a93ece2e957e9f2f76ea849729181900360600190a1426009556001600160a01b03811673eeeeeeeeeeeeeeeeeeeeeeeeeeeeeeeeeeeeeeee1415610bac57610ba783836123a7565b610bb7565b610bb781848461249b565b505050505050505050565b7f6e71edae12b1b97f4d1f60370fef10105fa2faae0126114a169c64845d6126c981565b601281565b60045481565b600b5481565b600080600060026006541415610c54576040805162461bcd60e51b815260206004820152601f60248201527f5265656e7472616e637947756172643a207265656e7472616e742063616c6c00604482015290519081900360640190fd5b600260065583610c6357600080fd5b600754600854600154600160a01b8304600290810b93600160b81b9004900b916001600160a01b03169060008263514ea4bf610c9d6125e3565b6040518263ffffffff1660e01b81526004018082815260200191505060a06040518083038186803b158015610cd157600080fd5b505afa158015610ce5573d6000803e3d6000fd5b505050506040513d60a0811015610cfb57600080fd5b50519050610d09338a61263d565b600082610d1f8b6001600160801b0385166126ce565b81610d2657fe5b0490506001600160801b038110610d3c57600080fd5b6008546040805163a34123a760e01b8152600289810b600483015288900b60248201526001600160801b0384166044820152815193995089936001600160a01b039093169263a34123a7926064808401939192918290030181600087803b158015610da657600080fd5b505af1158015610dba573d6000803e3d6000fd5b505050506040513d6040811015610dd057600080fd5b508051602090910151604080516309e3d67b60e31b815233600482015260028a810b602483015289900b60448201526001600160801b038085166064830152831660848201528151939c50919a506001600160a01b03871692634f1eb3d89260a48082019392918290030181600087803b158015610e4d57600080fd5b505af1158015610e61573d6000803e3d6000fd5b505050506040513d6040811015610e7757600080fd5b5050600160065550969895975093955050505050565b600c5460020b81565b7f000000000000000000000000000000000000000000000000000000000000000081565b6000610ec986868686866126f2565b90505b95945050505050565b600754600160d01b900462ffffff1681565b6008546001600160a01b031681565b600c546301000000900460020b81565b600080826001600160801b031611610f1d57600080fd5b600754600854600160a01b8204600290810b92600160b81b9004900b906001600160a01b031660008163514ea4bf610f536125e3565b6040518263ffffffff1660e01b81526004018082815260200191505060a06040518083038186803b158015610f8757600080fd5b505afa158015610f9b573d6000803e3d6000fd5b505050506040513d60a0811015610fb157600080fd5b505160015490915080610fcf57866001600160801b03169550610ff2565b6001600160801b0380831690610fe7908916836126ce565b81610fee57fe5b0495505b610ffc81876127ab565b600a541015611052576040805162461bcd60e51b815260206004820152601f60248201527f63616e6e6f74206d696e74206d6f7265207468616e20737570706c7943617000604482015290519081900360640190fd5b826001600160a01b0316633c8a7d8d3087878b3360405160200180826001600160a01b031681526020019150506040516020818303038152906040526040518663ffffffff1660e01b815260040180866001600160a01b031681526020018560020b81526020018460020b8152602001836001600160801b0316815260200180602001828103825283818151815260200191508051906020019080838360005b8381101561110a5781810151838201526020016110f2565b50505050905090810190601f1680156111375780820380516001836020036101000a031916815260200191505b5096505050505050506040805180830381600087803b15801561115957600080fd5b505af115801561116d573d6000803e3d6000fd5b505050506040513d604081101561118357600080fd5b50611190905033876127bb565b5050505050919050565b600c54600160581b90046001600160a01b031681565b60026020526000908152604090205481565b336111cb6112be565b6001600160a01b031614611226576040805162461bcd60e51b815260206004820181905260248201527f4f776e61626c653a2063616c6c6572206973206e6f7420746865206f776e6572604482015290519081900360640190fd5b6007546040516000916001600160a01b0316907f8be0079c531659141344cd1fd0a4f28419497f9722a3daafe3b4186f6b6457e0908390a3600780546001600160a01b0319169055565b60056020526000908152604090205481565b73eeeeeeeeeeeeeeeeeeeeeeeeeeeeeeeeeeeeeeee81565b7f000000000000000000000000000000000000000000000000000000000000000081565b6007546001600160a01b031690565b600a5481565b6040518060400160405280600681526020016567554e49563360d01b81525081565b600c546601000000000000900460ff1681565b6000610941338484611a76565b60095481565b7f000000000000000000000000000000000000000000000000000000000000000081565b60008061134e86868686612846565b915091505b94509492505050565b7f000000000000000000000000000000000000000000000000000000000000000081565b336113896112be565b6001600160a01b0316146113e4576040805162461bcd60e51b815260206004820181905260248201527f4f776e61626c653a2063616c6c6572206973206e6f7420746865206f776e6572604482015290519081900360640190fd5b86600a8190555085600b8190555083600c60036101000a81548162ffffff021916908360020b62ffffff16021790555084600c60006101000a81548162ffffff021916908360020b62ffffff16021790555082600c60066101000a81548160ff02191690831515021790555081600c60076101000a81548163ffffffff021916908363ffffffff16021790555080600c600b6101000a8154816001600160a01b0302191690836001600160a01b031602179055507f85db074801e1d9ef3241988f8477d89131f9a93ce4e09136e9a5584dc6dfd13687878787878787604051808881526020018781526020018660020b81526020018560020b815260200184151581526020018363ffffffff168152602001826001600160a01b0316815260200197505050505050505060405180910390a150505050505050565b6008546001600160a01b0316331461153657600080fd5b60008282602081101561154857600080fd5b50356001600160a01b03169050308114156115c457841561158e5761158e7f0000000000000000000000000000000000000000000000000000000000000000338761249b565b83156115bf576115bf7f0000000000000000000000000000000000000000000000000000000000000000338661249b565b611628565b84156115f6576115f67f00000000000000000000000000000000000000000000000000000000000000008233886128e2565b8315611628576116287f00000000000000000000000000000000000000000000000000000000000000008233876128e2565b5050505050565b42841015611679576040805162461bcd60e51b8152602060048201526012602482015271155b9a5cddd85c158c8e881156141254915160721b604482015290519081900360640190fd5b6004546001600160a01b0380891660008181526005602090815260408083208054600180820190925582517f6e71edae12b1b97f4d1f60370fef10105fa2faae0126114a169c64845d6126c98186015280840196909652958d166060860152608085018c905260a085019590955260c08085018b90528151808603909101815260e08501825280519083012061190160f01b6101008601526101028501969096526101228085019690965280518085039096018652610142840180825286519683019690962095839052610162840180825286905260ff89166101828501526101a284018890526101c28401879052519193926101e280820193601f1981019281900390910190855afa158015611794573d6000803e3d6000fd5b5050604051601f1901519150506001600160a01b038116158015906117ca5750886001600160a01b0316816001600160a01b0316145b61181b576040805162461bcd60e51b815260206004820152601c60248201527f556e697377617056323a20494e56414c49445f5349474e415455524500000000604482015290519081900360640190fd5b610bb7898989611a04565b600360209081526000928352604080842090915290825290205481565b600061184d6125e3565b905090565b600754600160a01b900460020b81565b3361186b6112be565b6001600160a01b0316146118c6576040805162461bcd60e51b815260206004820181905260248201527f4f776e61626c653a2063616c6c6572206973206e6f7420746865206f776e6572604482015290519081900360640190fd5b6001600160a01b03811661190b5760405162461bcd60e51b81526004018080602001828103825260268152602001806139c16026913960400191505060405180910390fd5b6007546040516001600160a01b038084169216907f8be0079c531659141344cd1fd0a4f28419497f9722a3daafe3b4186f6b6457e090600090a3600780546001600160a01b0319166001600160a01b0392909216919091179055565b600c54600160381b900463ffffffff1681565b6008546001600160a01b0316331461199157600080fd5b60008413156119ca576119c57f0000000000000000000000000000000000000000000000000000000000000000338661249b565b6119fe565b60008313156119fe576119fe7f0000000000000000000000000000000000000000000000000000000000000000338561249b565b50505050565b6001600160a01b03808416600081815260036020908152604080832094871680845294825291829020859055815185815291517f8c5be1e5ebec7d5bd14f71427d1e84f3dd0314c0f7b2291e5b200ac8c7c3b9259281900390910190a3505050565b8082038281111561094557600080fd5b6001600160a01b038316600090815260026020526040902054611a999082611a66565b6001600160a01b038085166000908152600260205260408082209390935590841681522054611ac890826127ab565b6001600160a01b0380841660008181526002602090815260409182902094909455805185815290519193928716927fddf252ad1be2c89b69c2b068fc378daa952ba7f163c4a11628f55a4df523b3ef92918290030190a3505050565b6008546007546001600160a01b0390911690600160a01b8104600290810b91600160b81b9004900b600080808563514ea4bf611b5e6125e3565b6040518263ffffffff1660e01b81526004018082815260200191505060a06040518083038186803b158015611b9257600080fd5b505afa158015611ba6573d6000803e3d6000fd5b505050506040513d60a0811015611bbc57600080fd5b50519050600080611bcf88888886612a3b565b915091507f00000000000000000000000000000000000000000000000000000000000000006001600160a01b0316896001600160a01b031614611c125781611c1c565b611c1c828b611a66565b94507f00000000000000000000000000000000000000000000000000000000000000006001600160a01b0316896001600160a01b031614611c5d5780611c67565b611c67818b611a66565b935050505060007f00000000000000000000000000000000000000000000000000000000000000006001600160a01b0316631698ee827f00000000000000000000000000000000000000000000000000000000000000007f00000000000000000000000000000000000000000000000000000000000000008d6040518463ffffffff1660e01b815260040180846001600160a01b03168152602001836001600160a01b031681526020018262ffffff168152602001935050505060206040518083038186803b158015611d3957600080fd5b505afa158015611d4d573d6000803e3d6000fd5b505050506040513d6020811015611d6357600080fd5b505160408051633850c7bd60e01b815290519192506000916001600160a01b03841691633850c7bd9160048083019260e0929190829003018186803b158015611dab57600080fd5b505afa158015611dbf573d6000803e3d6000fd5b505050506040513d60e0811015611dd557600080fd5b5060200151600b54600954919250611ded91906127ab565b421015611e48578460020b8160020b1380611e0d57508560020b8160020b125b611e485760405162461bcd60e51b815260040180806020018281038252603781526020018061398a6037913960400191505060405180910390fd5b600c5460028e810b91810b8303900b12801590611e7a5750600c5463010000009004600290810b8203810b908e900b12155b611ec4576040805162461bcd60e51b81526020600482015260166024820152756c6f7765725469636b206f7574206f662072616e676560501b604482015290519081900360640190fd5b600c5460028d810b6301000000909204810b8301900b12801590611ef65750600c54600290810b8201810b908d900b12155b611f40576040805162461bcd60e51b815260206004820152601660248201527575707065725469636b206f7574206f662072616e676560501b604482015290519081900360640190fd5b8c8c8c8460076014600760176007601a600860008891906101000a8154816001600160a01b0302191690836001600160a01b031602179055508791906101000a81548162ffffff021916908362ffffff1602179055508691906101000a81548162ffffff021916908360020b62ffffff1602179055508591906101000a81548162ffffff021916908360020b62ffffff16021790555050505050611fe4828b612b81565b611ff2828e8e87878f612f1b565b50505050505050505050505050565b6008546007546001600160a01b0390911690600160a01b8104600290810b91600160b81b9004900b6120338387612b81565b6000806000856001600160a01b031663514ea4bf61204f6125e3565b6040518263ffffffff1660e01b81526004018082815260200191505060a06040518083038186803b15801561208357600080fd5b505afa158015612097573d6000803e3d6000fd5b505050506040513d60a08110156120ad57600080fd5b505190506000806120c088888886612a3b565b915091507f00000000000000000000000000000000000000000000000000000000000000006001600160a01b0316896001600160a01b031614612103578161210d565b61210d828b611a66565b94507f00000000000000000000000000000000000000000000000000000000000000006001600160a01b0316896001600160a01b03161461214e5780612158565b612158818b611a66565b93505050506000856001600160a01b0316633850c7bd6040518163ffffffff1660e01b815260040160e06040518083038186803b15801561219857600080fd5b505afa1580156121ac573d6000803e3d6000fd5b505050506040513d60e08110156121c257600080fd5b5060200151600b546009549192506121da91906127ab565b421015612235578360020b8160020b13806121fa57508460020b8160020b125b6122355760405162461bcd60e51b815260040180806020018281038252603781526020018061398a6037913960400191505060405180910390fd5b600c5460028c810b91810b8303900b128015906122675750600c5463010000009004600290810b8203810b908c900b12155b6122b1576040805162461bcd60e51b81526020600482015260166024820152756c6f7765725469636b206f7574206f662072616e676560501b604482015290519081900360640190fd5b600c5460028b810b6301000000909204810b8301900b128015906122e35750600c54600290810b8201810b908b900b12155b61232d576040805162461bcd60e51b815260206004820152601660248201527575707065725469636b206f7574206f662072616e676560501b604482015290519081900360640190fd5b8a60020b8560020b14158061234857508960020b8460020b14155b1561238c576007805460028d810b62ffffff908116600160a01b0262ffffff60a01b19928f900b909116600160b81b0262ffffff60b81b1990931692909217161790555b61239a868c8c86868e612f1b565b5050505050505050505050565b604080516000808252602082019092526001600160a01b0384169083906040518082805190602001908083835b602083106123f35780518252601f1990920191602091820191016123d4565b6001836020036101000a03801982511681845116808217855250505050505090500191505060006040518083038185875af1925050503d8060008114612455576040519150601f19603f3d011682016040523d82523d6000602084013e61245a565b606091505b5050905080612496576040805162461bcd60e51b815260206004820152600360248201526253544560e81b604482015290519081900360640190fd5b505050565b604080516001600160a01b038481166024830152604480830185905283518084039091018152606490920183526020820180516001600160e01b031663a9059cbb60e01b178152925182516000946060949389169392918291908083835b602083106125185780518252601f1990920191602091820191016124f9565b6001836020036101000a0380198251168184511680821785525050505050509050019150506000604051808303816000865af19150503d806000811461257a576040519150601f19603f3d011682016040523d82523d6000602084013e61257f565b606091505b50915091508180156125ad5750805115806125ad57508080602001905160208110156125aa57600080fd5b50515b611628576040805162461bcd60e51b815260206004820152600260248201526114d560f21b604482015290519081900360640190fd5b600754604080513060601b602080830191909152600160a01b8404600290810b810b60e890811b6034850152600160b81b909504810b900b90931b60378201528151601a818303018152603a909101909152805191012090565b6001600160a01b0382166000908152600260205260409020546126609082611a66565b6001600160a01b0383166000908152600260205260409020556001546126869082611a66565b6001556040805182815290516000916001600160a01b038516917fddf252ad1be2c89b69c2b068fc378daa952ba7f163c4a11628f55a4df523b3ef9181900360200190a35050565b60008215806126e9575050818102818382816126e657fe5b04145b61094557600080fd5b6000836001600160a01b0316856001600160a01b03161115612712579293925b846001600160a01b0316866001600160a01b0316101561273e5761273785858561343a565b9050610ecc565b836001600160a01b0316866001600160a01b031610156127a057600061276587868661343a565b9050600061277487898661349d565b9050806001600160801b0316826001600160801b0316106127955780612797565b815b92505050610ecc565b610ec985858461349d565b8082018281101561094557600080fd5b6001546127c890826127ab565b6001556001600160a01b0382166000908152600260205260409020546127ee90826127ab565b6001600160a01b03831660008181526002602090815260408083209490945583518581529351929391927fddf252ad1be2c89b69c2b068fc378daa952ba7f163c4a11628f55a4df523b3ef9281900390910190a35050565b600080836001600160a01b0316856001600160a01b03161115612867579293925b846001600160a01b0316866001600160a01b031610156128935761288c8585856134e2565b9150611353565b836001600160a01b0316866001600160a01b031610156128cc576128b88685856134e2565b91506128c585878561354b565b9050611353565b6128d785858561354b565b905094509492505050565b604080516001600160a01b0385811660248301528481166044830152606480830185905283518084039091018152608490920183526020820180516001600160e01b03166323b872dd60e01b17815292518251600094606094938a169392918291908083835b602083106129675780518252601f199092019160209182019101612948565b6001836020036101000a0380198251168184511680821785525050505050509050019150506000604051808303816000865af19150503d80600081146129c9576040519150601f19603f3d011682016040523d82523d6000602084013e6129ce565b606091505b50915091508180156129fc5750805115806129fc57508080602001905160208110156129f957600080fd5b50515b612a33576040805162461bcd60e51b815260206004820152600360248201526229aa2360e91b604482015290519081900360640190fd5b505050505050565b6040805163a34123a760e01b8152600285810b600483015284900b60248201526001600160801b0383166044820152815160009283926001600160a01b0389169263a34123a79260648084019391929182900301818787803b158015612aa057600080fd5b505af1158015612ab4573d6000803e3d6000fd5b505050506040513d6040811015612aca57600080fd5b5050604080516309e3d67b60e31b8152306004820152600287810b602483015286900b60448201526001600160801b0360648201819052608482015281516001600160a01b03891692634f1eb3d89260a480820193918290030181600087803b158015612b3657600080fd5b505af1158015612b4a573d6000803e3d6000fd5b505050506040513d6040811015612b6057600080fd5b5080516020909101516001600160801b039182169891169650945050505050565b6040805160028082526060808301845292602083019080368337019050509050600c60079054906101000a900463ffffffff1681600081518110612bc157fe5b602002602001019063ffffffff16908163ffffffff1681525050600081600181518110612bea57fe5b63ffffffff90921660209283029190910182015260405163883bdbfd60e01b8152600481018281528351602483015283516060936001600160a01b0388169363883bdbfd9387939092839260440191858201910280838360005b83811015612c5c578181015183820152602001612c44565b505050509050019250505060006040518083038186803b158015612c7f57600080fd5b505afa158015612c93573d6000803e3d6000fd5b505050506040513d6000823e601f3d908101601f191682016040908152811015612cbc57600080fd5b8101908080516040519392919084600160201b821115612cdb57600080fd5b908301906020820185811115612cf057600080fd5b82518660208202830111600160201b82111715612d0c57600080fd5b82525081516020918201928201910280838360005b83811015612d39578181015183820152602001612d21565b5050505090500160405260200180516040519392919084600160201b821115612d6157600080fd5b908301906020820185811115612d7657600080fd5b82518660208202830111600160201b82111715612d9257600080fd5b82525081516020918201928201910280838360005b83811015612dbf578181015183820152602001612da7565b505050509050016040525050505090508051600214612e25576040805162461bcd60e51b815260206004820152601f60248201527f756e6578706563746564206c656e677468206f66207469636b20617272617900604482015290519081900360640190fd5b600c548151600091600160381b900463ffffffff169083908390612e4557fe5b602002602001015183600181518110612e5a57fe5b60200260200101510360060b81612e6d57fe5b0590506000612e7b8261358e565b600c549091506000906064906001600160a01b03600160581b9091048116840216049050856001600160a01b03168183016001600160a01b031610158015612ed75750856001600160a01b03168183036001600160a01b031611155b612f125760405162461bcd60e51b815260040180806020018281038252602f8152602001806139e7602f913960400191505060405180910390fd5b50505050505050565b6000866001600160a01b0316633850c7bd6040518163ffffffff1660e01b815260040160e06040518083038186803b158015612f5657600080fd5b505afa158015612f6a573d6000803e3d6000fd5b505050506040513d60e0811015612f8057600080fd5b505190506000612fa382612f938961358e565b612f9c8961358e565b88886126f2565b9050600080896001600160a01b0316633c8a7d8d308b8b873060405160200180826001600160a01b031681526020019150506040516020818303038152906040526040518663ffffffff1660e01b815260040180866001600160a01b031681526020018560020b81526020018460020b8152602001836001600160801b0316815260200180602001828103825283818151815260200191508051906020019080838360005b83811015613060578181015183820152602001613048565b50505050905090810190601f16801561308d5780820380516001836020036101000a031916815260200191505b5096505050505050506040805180830381600087803b1580156130af57600080fd5b505af11580156130c3573d6000803e3d6000fd5b505050506040513d60408110156130d957600080fd5b508051602090910151978190039796879003969092509050861515806130ff5750600086115b1561342e578587116000806001600160a01b038d1663128acb083085600281613128578d61312a565b8e5b8161313157fe5b058c3060405160200180826001600160a01b031681526020019150506040516020818303038152906040526040518663ffffffff1660e01b815260040180866001600160a01b031681526020018515158152602001848152602001836001600160a01b0316815260200180602001828103825283818151815260200191508051906020019080838360005b838110156131d45781810151838201526020016131bc565b50505050905090810190601f1680156132015780820380516001836020036101000a031916815260200191505b5096505050505050506040805180830381600087803b15801561322357600080fd5b505af1158015613237573d6000803e3d6000fd5b505050506040513d604081101561324d57600080fd5b50805160209091015160408051633850c7bd60e01b815290519c8390039c9b8290039b9294509092506001600160a01b038f1691633850c7bd9160048082019260e092909190829003018186803b1580156132a757600080fd5b505afa1580156132bb573d6000803e3d6000fd5b505050506040513d60e08110156132d157600080fd5b5051965060006132f4886132e48f61358e565b6132ed8f61358e565b8e8e6126f2565b90508d6001600160a01b0316633c8a7d8d308f8f853060405160200180826001600160a01b031681526020019150506040516020818303038152906040526040518663ffffffff1660e01b815260040180866001600160a01b031681526020018560020b81526020018460020b8152602001836001600160801b0316815260200180602001828103825283818151815260200191508051906020019080838360005b838110156133ae578181015183820152602001613396565b50505050905090810190601f1680156133db5780820380516001836020036101000a031916815260200191505b5096505050505050506040805180830381600087803b1580156133fd57600080fd5b505af1158015613411573d6000803e3d6000fd5b505050506040513d604081101561342757600080fd5b5050505050505b50505050505050505050565b6000826001600160a01b0316846001600160a01b0316111561345a579192915b600061347d856001600160a01b0316856001600160a01b0316600160601b6138bf565b9050610ecc61349884838888036001600160a01b03166138bf565b61396e565b6000826001600160a01b0316846001600160a01b031611156134bd579192915b6134da61349883600160601b8787036001600160a01b03166138bf565b949350505050565b6000826001600160a01b0316846001600160a01b03161115613502579192915b836001600160a01b031661353b606060ff16846001600160801b0316901b8686036001600160a01b0316866001600160a01b03166138bf565b8161354257fe5b04949350505050565b6000826001600160a01b0316846001600160a01b0316111561356b579192915b6134da826001600160801b03168585036001600160a01b0316600160601b6138bf565b60008060008360020b126135a5578260020b6135ad565b8260020b6000035b9050620d89e88111156135eb576040805162461bcd60e51b81526020600482015260016024820152601560fa1b604482015290519081900360640190fd5b6000600182166135ff57600160801b613611565b6ffffcb933bd6fad37aa2d162d1a5940015b70ffffffffffffffffffffffffffffffffff1690506002821615613645576ffff97272373d413259a46990580e213a0260801c5b6004821615613664576ffff2e50f5f656932ef12357cf3c7fdcc0260801c5b6008821615613683576fffe5caca7e10e4e61c3624eaa0941cd00260801c5b60108216156136a2576fffcb9843d60f6159c9db58835c9266440260801c5b60208216156136c1576fff973b41fa98c081472e6896dfb254c00260801c5b60408216156136e0576fff2ea16466c96a3843ec78b326b528610260801c5b60808216156136ff576ffe5dee046a99a2a811c461f1969c30530260801c5b61010082161561371f576ffcbe86c7900a88aedcffc83b479aa3a40260801c5b61020082161561373f576ff987a7253ac413176f2b074cf7815e540260801c5b61040082161561375f576ff3392b0822b70005940c7a398e4b70f30260801c5b61080082161561377f576fe7159475a2c29b7443b29c7fa6e889d90260801c5b61100082161561379f576fd097f3bdfd2022b8845ad8f792aa58250260801c5b6120008216156137bf576fa9f746462d870fdf8a65dc1f90e061e50260801c5b6140008216156137df576f70d869a156d2a1b890bb3df62baf32f70260801c5b6180008216156137ff576f31be135f97d08fd981231505542fcfa60260801c5b62010000821615613820576f09aa508b5b7a84e1c677de54f3e99bc90260801c5b62020000821615613840576e5d6af8dedb81196699c329225ee6040260801c5b6204000082161561385f576d2216e584f5fa1ea926041bedfe980260801c5b6208000082161561387c576b048a170391f7dc42444e8fa20260801c5b60008460020b131561389757806000198161389357fe5b0490505b600160201b8106156138aa5760016138ad565b60005b60ff16602082901c0192505050919050565b60008080600019858709868602925082811090839003039050806138f557600084116138ea57600080fd5b508290049050610a13565b80841161390157600080fd5b6000848688096000868103871696879004966002600389028118808a02820302808a02820302808a02820302808a02820302808a02820302808a02909103029181900381900460010186841190950394909402919094039290920491909117919091029150509392505050565b806001600160801b038116811461398457600080fd5b91905056fe63616e6e6f7420726562616c616e636520756e74696c2068656172746265617420287072696365207374696c6c20696e2072616e6765294f776e61626c653a206e6577206f776e657220697320746865207a65726f2061646472657373736c697070616765207072696365206973206f7574206f662061636365707461626c652070726963652072616e6765a26469706673582212203004537e7fd382a33ec8f083e99bf7232309811cc76e00f198e66b170632905164736f6c634300070300334f776e61626c653a206e6577206f776e657220697320746865207a65726f20616464726573738be0079c531659141344cd1fd0a4f28419497f9722a3daafe3b4186f6b6457e0a2646970667358221220c9fdc3879d1bed11e0cb32d7c1380070a2c4b1d64d67225910ecbdd942a955f764736f6c63430007030033",
  "devdoc": {
    "kind": "dev",
    "methods": {},
    "version": 1
  },
  "userdoc": {
    "kind": "user",
    "methods": {},
    "version": 1
  },
  "storageLayout": {
    "storage": [
      {
        "astId": 3352,
        "contract": "contracts/MetaPoolFactory.sol:MetaPoolFactory",
        "label": "_token0",
        "offset": 0,
        "slot": "0",
        "type": "t_address"
      },
      {
        "astId": 3354,
        "contract": "contracts/MetaPoolFactory.sol:MetaPoolFactory",
        "label": "_token1",
        "offset": 0,
        "slot": "1",
        "type": "t_address"
      },
      {
        "astId": 3356,
        "contract": "contracts/MetaPoolFactory.sol:MetaPoolFactory",
        "label": "_initialLowerTick",
        "offset": 20,
        "slot": "1",
        "type": "t_int24"
      },
      {
        "astId": 3358,
        "contract": "contracts/MetaPoolFactory.sol:MetaPoolFactory",
        "label": "_initialUpperTick",
        "offset": 23,
        "slot": "1",
        "type": "t_int24"
      },
      {
        "astId": 3360,
        "contract": "contracts/MetaPoolFactory.sol:MetaPoolFactory",
        "label": "_name",
        "offset": 0,
        "slot": "2",
        "type": "t_string_storage"
      }
    ],
    "types": {
      "t_address": {
        "encoding": "inplace",
        "label": "address",
        "numberOfBytes": "20"
      },
      "t_int24": {
        "encoding": "inplace",
        "label": "int24",
        "numberOfBytes": "3"
      },
      "t_string_storage": {
        "encoding": "bytes",
        "label": "string",
        "numberOfBytes": "32"
      }
    }
  }
}